:020000040800F2
:10000000000001209DA90008596C00085B6C0008E5
:100010005D6C00085F6C0008616C00080000000067
:10002000000000000000000000000000112E000889
:10003000636C000800000000B12E00084D0E00089F
:10004000EDA90008EDA90008EDA90008EDA9000838
:10005000EDA90008EDA90008EDA90008EDA9000828
:10006000EDA90008EDA90008EDA90008EDA9000818
:10007000EDA90008EDA90008EDA90008EDA9000808
:10008000EDA90008EDA90008EDA900080000000096
:10009000000000000000000000000000656C000887
:1000A000EDA90008EDA90008716C0008EDA9000891
:1000B000896C0008EDA90008EDA90008EDA9000869
:1000C000EDA90008EDA90008EDA90008EDA90008B8
:1000D000EDA90008EDA90008EDA900080000000046
:1000E000EDA90008EDA90008EDA900080000000036
:1000F000000000000000000000000000EDA9000862
:1001000000000000EDA90008EDA90008EDA9000815
:1001100000000000000000000000000000000000DF
:100120009D6C0008EDA90008EDA90008EDA90008E4
:10013000EDA9000800000000000000000000000021
:10014000000000000000000000000000AD6C00088E
:10015000EDA90008EDA90008EDA90008EDA9000827
:10016000EDA90008EDA90008000000000000000053
:10017000000000000000000000000000000000007F
:1001800000000000EDA900080000000000000000D1
:04019000EDA90008CD
:1001A000034613F8012B002AFBD1181A01387047B7
:1001B00001F0FF01102A2BDB10F0070F08D010F818
:1001C000013B013A8B422DD010F0070F42B3F6D11C
:1001D000F0B441EA012141EA014122F007047FF035
:1001E00000070023F0E80256083C85EA010586EA8C
:1001F000010685FA47F5A3FA87F586FA47F6A5FAC8
:1002000087F68EB9EED1F0BC01F0FF0102F00702D3
:1002100032B110F8013B013A83EA010313B1F8D17E
:100220000020704701387047002D06BF354603385F
:10023000073815F0010F07D1013015F4807F02BF98
:10024000013015F4C03F0130F0BC0138704700BFE9
:1002500081F0004102E000BF83F0004330B54FEA77
:1002600041044FEA430594EA050F08BF90EA020FE4
:100270001FBF54EA000C55EA020C7FEA645C7FEA77
:10028000655C00F0E2804FEA5454D4EB5555B8BF9A
:100290006D420CDD2C4480EA020281EA030382EA0B
:1002A000000083EA010180EA020281EA0303362D9D
:1002B00088BF30BD11F0004F4FEA01314FF4801C70
:1002C0004CEA113102D0404261EB410113F0004F82
:1002D0004FEA03334CEA133302D0524263EB430339
:1002E00094EA050F00F0A780A4F10104D5F1200ED7
:1002F0000DDB02FA0EFC22FA05F2801841F1000132
:1003000003FA0EF2801843FA05F359410EE0A5F105
:1003100020050EF1200E012A03FA0EFC28BF4CF036
:10032000020C43FA05F3C01851EBE37101F00045EC
:1003300007D54FF0000EDCF1000C7EEB00006EEBF9
:100340000101B1F5801F1BD3B1F5001F0CD3490883
:100350005FEA30004FEA3C0C04F101044FEA4452DA
:1003600012F5800F80F09A80BCF1004F08BF5FEA61
:10037000500C50F1000041EB045141EA050130BD41
:100380005FEA4C0C404141EB0101013C28BFB1F553
:10039000801FE9D291F0000F04BF01460020B1FA9E
:1003A00081F308BF2033A3F10B03B3F120020CDA71
:1003B0000C3208DD02F1140CC2F10C0201FA0CF04F
:1003C00021FA02F10CE002F11402D8BFC2F1200CB4
:1003D00001FA02F120FA0CFCDCBF41EA0C0190406A
:1003E000E41AA2BF01EB0451294330BD6FEA0404B3
:1003F0001F3C1CDA0C340EDC04F11404C4F120029E
:1004000020FA04F001FA02F340EA030021FA04F3AF
:1004100045EA030130BDC4F10C04C4F1200220FA06
:1004200002F001FA04F340EA0300294630BD21FA44
:1004300004F0294630BD94F0000F83F4801306BF0A
:1004400081F480110134013D4EE77FEA645C18BFFE
:100450007FEA655C29D094EA050F08BF90EA020F95
:1004600005D054EA000C04BF1946104630BD91EA8D
:10047000030F1EBF0021002030BD5FEA545C05D190
:100480004000494128BF41F0004130BD14F58004CF
:100490003CBF01F5801130BD01F0004545F0FE4143
:1004A00041F470014FF0000030BD7FEA645C1ABF78
:1004B000194610467FEA655C1CBF0B46024650EAAF
:1004C000013406BF52EA033591EA030F41F40021DB
:1004D00030BD00BF90F0000F04BF0021704730B561
:1004E0004FF4806404F132044FF000054FF0000136
:1004F00050E700BF90F0000F04BF0021704730B5F7
:100500004FF4806404F1320410F0004548BF4042CB
:100510004FF000013EE700BF42004FEAE2014FEA20
:1005200031014FEA02701FBF12F07F4393F07F4FFB
:1005300081F06051704732F07F4208BF704793F0FE
:100540007F4F04BF41F40021704730B54FF4607411
:1005500001F0004521F000411CE700BF50EA010214
:1005600008BF704730B54FF000050AE050EA0102BD
:1005700008BF704730B511F0004502D5404261EB2D
:1005800041014FF4806404F132045FEA915C3FF46E
:10059000D8AE4FF003025FEADC0C18BF03325FEA0B
:1005A000DC0C18BF033202EBDC02C2F1200300FABC
:1005B00003FC20FA02F001FA03FE40EA0E0021FAE1
:1005C00002F11444BDE600BF70B54FF0FF0C4CF4CF
:1005D000E06C1CEA11541DBF1CEA135594EA0C0F81
:1005E00095EA0C0F00F0DEF82C4481EA030621EABC
:1005F0004C5123EA4C5350EA013518BF52EA0335F7
:1006000041F4801143F4801338D0A0FB02CE4FF0A8
:100610000005E1FB02E506F00042E0FB03E54FF0D8
:100620000006E1FB03569CF0000F18BF4EF0010ED0
:10063000A4F1FF04B6F5007F64F5407404D25FEACC
:100640004E0E6D4146EB060642EAC62141EA55517F
:100650004FEAC52040EA5E504FEACE2EB4F1FD0CC1
:1006600088BFBCF5E06F1ED8BEF1004F08BF5FEA3F
:10067000500E50F1000041EB045170BD06F00046F1
:1006800046EA010140EA020081EA0301B4EB5C049E
:10069000C2BFD4EB0C0541EA045170BD41F4801196
:1006A0004FF0000E013C00F3AB8014F1360FDEBFBB
:1006B000002001F0004170BDC4F10004203C35DA97
:1006C0000C341BDC04F11404C4F1200500FA05F31A
:1006D00020FA04F001FA05F240EA020001F00042BB
:1006E00021F0004110EBD37021FA04F642EB060131
:1006F0005EEA430E08BF20EAD37070BDC4F10C045B
:10070000C4F1200500FA04F320FA05F001FA04F21E
:1007100040EA020001F0004110EBD37041F100010A
:100720005EEA430E08BF20EAD37070BDC4F1200515
:1007300000FA05F24EEA020E20FA04F301FA05F27D
:1007400043EA020321FA04F001F0004121FA04F225
:1007500020EA020000EBD3705EEA430E08BF20EAF5
:10076000D37070BD94F0000F0FD101F0004640002F
:1007700041EB010111F4801F08BF013CF7D041EAB1
:10078000060195F0000F18BF704703F000465200B5
:1007900043EB030313F4801F08BF013DF7D043EA86
:1007A0000603704794EA0C0F0CEA135518BF95EA3C
:1007B0000C0F0CD050EA410618BF52EA4306D1D1C3
:1007C00081EA030101F000414FF0000070BD50EAE2
:1007D000410606BF1046194652EA430619D094EA6C
:1007E0000C0F02D150EA013613D195EA0C0F05D156
:1007F00052EA03361CBF104619460AD181EA0301AA
:1008000001F0004141F0FE4141F470014FF0000061
:1008100070BD41F0FE4141F4780170BD70B54FF0FC
:10082000FF0C4CF4E06C1CEA11541DBF1CEA13557C
:1008300094EA0C0F95EA0C0F00F0A7F8A4EB05045E
:1008400081EA030E52EA03354FEA013100F0888055
:100850004FEA03334FF0805545EA131343EA12631E
:100860004FEA022245EA111545EA10654FEA0026D3
:100870000EF000419D4208BF964244F1FD0404F58C
:10088000407402D25B084FEA3202B61A65EB0305E8
:100890005B084FEA32024FF480104FF4002CB6EBA5
:1008A000020E75EB030E22BFB61A754640EA0C0025
:1008B0005B084FEA3202B6EB020E75EB030E22BF65
:1008C000B61A754640EA5C005B084FEA3202B6EBA6
:1008D000020E75EB030E22BFB61A754640EA9C0065
:1008E0005B084FEA3202B6EB020E75EB030E22BF35
:1008F000B61A754640EADC0055EA060E18D04FEAF3
:10090000051545EA16754FEA06164FEAC30343EA92
:1009100052734FEAC2025FEA1C1CC0D111F4801F5F
:100920000BD141EA00014FF000004FF0004CB6E758
:1009300011F4801F04BF01430020B4F1FD0C88BFF7
:10094000BCF5E06F3FF6AFAEB5EB030C04BFB6EB02
:10095000020C5FEA500C50F1000041EB045170BDF5
:100960000EF0004E4EEA113114EB5C04C2BFD4EB22
:100970000C0541EA045170BD41F480114FF0000EA6
:10098000013C90E645EA060E8DE60CEA135594EA22
:100990000C0F08BF95EA0C0F3FF43BAF94EA0C0F25
:1009A0000AD150EA01347FF434AF95EA0C0F7FF49A
:1009B00025AF104619462CE795EA0C0F06D152EAEE
:1009C00003353FF4FDAE1046194622E750EA4106D2
:1009D00018BF52EA43067FF4C5AE50EA41047FF4E3
:1009E0000DAF52EA43057FF4EBAE12E74A0011D295
:1009F00012F5001211D20DD56FF47873B3EB625279
:100A00000ED44FEAC12343F0004343EA505323FA84
:100A100002F070474FF00000704750EA013002D1F9
:100A20004FF0FF3070474FF00000704753B94AB99C
:100A3000002908BF00281CBF4FF0FF314FF0FF30E6
:100A400000F00CB8ADF1080C6DE904CE0AF0BAFD67
:100A5000DDF804E0DDE9022304B07047704700BF11
:100A600010B5054C237833B9044B13B10448AFF3E8
:100A700000800123237010BDB001002000000000A1
:100A8000BCB8000808B5034B1BB103490348AFF3DA
:100A9000008008BD00000000B4010020BCB80008C0
:100AA00010B58CB00024089409940A940B94202269
:100AB0002146684609F0D2FF8348844B03604FF417
:100AC00080334360846001230361047680F8204012
:100AD000C4627F4A8262C4600D22C26180F83040E5
:100AE000436103F0E1F9002840F0B8800023089347
:100AF000012209920A9308A9734803F0FFFA00281B
:100B000040F0AF80012308930223099308A96E489F
:100B100003F0F4FA002840F0A7800223089303238F
:100B2000099308A9684803F0E9FA002840F09F807B
:100B3000032308930423099308A9634803F0DEFA0A
:100B4000002840F09780042308930523099308A9FF
:100B50005D4803F0D3FA002840F08F800523089306
:100B60000623099308A9584803F0C8FA002840F062
:100B70008780062308930723099308A9524803F0A6
:100B8000BDFA00287FD1072308930823099308A9F9
:100B90004D4803F0B3FA002878D10E2308930923B7
:100BA000099308A9484803F0A9FA002871D10A233B
:100BB0000893099308A9444803F0A0FA00286BD1D0
:100BC0000B230893099308A93F4803F097FA0028DC
:100BD00065D10C230893099308A93B4803F08EFACA
:100BE00000285FD10D230893099308A9364803F024
:100BF00085FA002859D10023009301220192042292
:100C0000049202930793334A06928DF815308DF8BB
:100C10001430039369462C4803F03AFB002847D16F
:100C200001230093022301936946274803F030FB18
:100C3000002840D1022300930323019369462248F0
:100C400003F026FBD0BB03230093042301936946E2
:100C50001D4803F01DFBA0BB0CB010BD01F086FFCA
:100C600044E701F083FF4DE701F080FF55E701F015
:100C70007DFF5DE701F07AFF65E701F077FF6DE743
:100C800001F074FF75E701F071FF7CE701F06EFF82
:100C900083E701F06BFF8AE701F068FF90E701F05E
:100CA00065FF96E701F062FF9CE701F05FFFA2E7B6
:100CB00001F05CFFB4E701F059FFBBE701F056FF1C
:100CC000C1E701F053FFC7E72C02002000200140DC
:100CD0000100000F01000F00F0B589B0002303935D
:100CE0000493059306930793026803F1804303F589
:100CF00090339A4201D009B0F0BD0446002500951A
:100D000003F58C335A6C42F480725A645A6C02F4C4
:100D100080720092009A01951A6B42F004021A63E5
:100D20001A6B02F004020192019A02951A6B42F0CA
:100D300001021A631B6B03F001030293029B1F2342
:100D400003930327049703AE3146144803F01CFEB7
:100D5000FF230393049705953146114803F014FED1
:100D60001048114B036045608560C5604FF4806397
:100D700003614FF4006343614FF400538361C56125
:100D80004FF400330362456203F076FC18B9054B5B
:100D9000A3639C63AFE701F0E9FEF8E700080240B7
:100DA00000000240CC0100201064024008B5044B52
:100DB000186818B16822034903F0A2F808BD00BF03
:100DC00044030020740200207047000008B558B1A9
:100DD000074A106000231A460121064800F0D8F89F
:100DE000012100F029F908BD034801F0D7F8FAE71E
:100DF00044030020AD0D00081CB9000810B50C28F4
:100E000002D8002319460FE00A4801F0C7F8002075
:100E10000EE003EB430203EB82020244064C34F87B
:100E2000122011FA82F10133072BF2D9C1F3CF005E
:100E300010BD00BF4CB900087402002008B507F0CF
:100E4000E4FF10B102684068904708BD08B54FF054
:100E5000E0231B6907F078FA012800D108BD02F0F1
:100E600059F8FBE7EFF305832BB9064B186828B94F
:100E700001221A6070476FF0050070474FF0FF3095
:100E8000704700BF000A0020EFF3058373B90A4BD7
:100E90001B68012B0DD110B50024084BDC77064BE5
:100EA00002221A6006F0ACFF204610BD6FF005006C
:100EB00070474FF0FF307047000A002000ED00E05F
:100EC000F0B587B000240594EFF3058404BBF8B1B6
:100ED000002A34D0156893692BB11E46013B372B8D
:100EE00002D9002015E01826536813F0010F3FD1F6
:100EF000546984B14FEA940C93682BB1D7685B2F87
:100F000002D9176907B184B943B14FF0FF330BB36E
:100F1000059807B0F0BD4FF0800CEDE7D368A3B99A
:100F20001369ABB14FF0FF33F1E7029301970096DD
:100F30000B466246294606F0F5FE0590E8E71546A1
:100F4000002318264FF0800CE1E74FF0FF33DEE777
:100F50000023DCE705AB019300960B461FFA8CF2E9
:100F6000294606F01AFF0128D2D000230593CFE7C7
:100F70000020CEE708B5EFF3058333B908B90020A8
:100F800008BD07F09FF80020FAE76FF00500F7E7CB
:100F90002DE9F04383B0EFF30587002F43D10646D8
:100FA000894615461C4600283FD0082001F060FA0B
:100FB000804600283BD006604560B9F1000F00D0A4
:100FC000012704B32068A36813B1E2682B2A10D864
:100FD00053B14FF0FF33DBB10024404601F0CAFAB1
:100FE000204603B0BDE8F083E3687BB14FF0FF33E8
:100FF000F1E701930F4B009343463A46012107F076
:101000004FFD04460CE020460023E4E70023E2E71E
:10101000084B009343463A46012107F025FD04465C
:10102000002CDDD1D9E70024DAE70024D8E7044614
:10103000D6E700BF3D0E0008EFF305836BB90A4603
:1010400070B100B583B00093042107F053FD01286F
:1010500009D1002003B05DF804FB6FF00500704774
:101060006FF0030070476FF00200F3E708B5EFF38D
:101070000583CBB9A0B1836813B1C2681F2A0BD80E
:101080002BB14FF0FF338BB900F0E9FF08BDC36807
:1010900043B14FF0FF33F6E7184600F0BBFFF5E72A
:1010A0000023F0E70023EEE70020EFE70020EDE764
:1010B00070B582B0EFF30583002B3AD114460028B7
:1010C0003BD000293BD06AB393684BB1D2684F2A1A
:1010D00006D9226922B101FB00F56669AE421BD236
:1010E00073B14FF0FF3363BB002202F034F90546C1
:1010F00005B304B124682146284602F081FB19E0BB
:10110000E3688BB9236913B14FF0FF33EBE76369F1
:101110006BB14FF0FF33E6E70025009502F0D1F800
:101120000546E5E70023DEE74FF0FF33DBE700236A
:10113000D9E70025284602B070BD0025FAE7002552
:10114000F8E70025F6E710B582B01C46EFF30583FB
:10115000C3B118B329B33CBB0023019301AA02F029
:10116000E2F9012823D1019850B14FF0E0234FF06C
:101170008052C3F8042DBFF34F8FBFF36F8F002051
:1011800002B010BDB0B1C1B10023224602F007F990
:10119000012815D0B4B16FF00100F1E76FF0030042
:1011A000EEE76FF00300EBE76FF00300E8E76FF0A6
:1011B0000200E5E76FF00300E2E76FF00300DFE70E
:1011C0000020DDE76FF00200DAE710B582B01C46C0
:1011D000EFF30583C3B110B321B334BB00230193F4
:1011E00001AA02F0B6FA012822D1019850B14FF0BD
:1011F000E0234FF08052C3F8042DBFF34F8FBFF3AD
:101200006F8F002002B010BDA8B1B9B1224602F024
:10121000F1F9012815D0B4B16FF00100F2E76FF0D9
:101220000300EFE76FF00300ECE76FF00300E9E77E
:101230006FF00200E6E76FF00300E3E76FF00300F2
:10124000E0E70020DEE76FF00200DBE7034B03601E
:10125000034B0B6080231360704700BFA40900207C
:10126000A4070020034B0360034B0B604FF4807313
:101270001360704748070020480300202DE9F04321
:1012800083B00F4615468DF8070096B206F10708A1
:101290001FFA88F8013676BA01220DF10701002005
:1012A00009F060FB2A46394609F05CFB040204F4AD
:1012B0007F0444EA1064030A03F47F431C4344EAB6
:1012C0000064DFF83090A9F800609DF8073089F8D5
:1012D00002302A46394609F1030009F0F3FB0335D1
:1012E00049F805404146484608F052FB03B0BDE8C6
:1012F000F08300BF240E002038B51446012B07D020
:101300004AB901224FF40051074803F028FC38BDC8
:10131000FFF7B4FFF5E7054D284609F0D3FBA1B26E
:10132000284608F035FBECE700080240240E0020B8
:1013300010B58AB0002208210A20FFF7B9FE0B4B36
:10134000186001AC24220021204609F087FB084BDD
:1013500001934FF4805306931823079322460021EC
:101360000448FFF7ADFD0AB010BD00BF44120020D5
:101370006CB900089115000808B50378433B102BA1
:1013800032D8DFE803F021313109313129313131EF
:10139000313131311931110000230322134918462C
:1013A000FFF7AAFF012020E000231322104918466E
:1013B000FFF7A2FF012018E0002313220C49184672
:1013C000FFF79AFF012010E000230122FF211846B9
:1013D000FFF792FF012008E000231A46194618463D
:1013E000FFF78AFF012000E0002008BD78B900085F
:1013F0007CB9000801280DD808B5881840F63813C4
:10140000984200DD08BD0123034801440020FFF796
:1014100073FFF7E7704700BF4413002030B583B077
:1014200005460C46FFF7A8FF002840F0A480052CD5
:1014300021D8AB78423B352B00F29880DFE803F0EF
:101440008F2096962796962E969696969652963535
:10145000963C9696966F96969696969696969696AD
:1014600096969696439696969661969696969696A4
:1014700059969696967FA21FA91C09F073FAD8E791
:1014800001231A46FF210020FFF736FF73E00123F6
:1014900003223A490020FFF72FFF6CE001231A4690
:1014A00000210846FFF728FF65E001231322344995
:1014B0000020FFF721FF5EE00123142230490020C5
:1014C000FFF71AFF57E002238DF800300423ADF830
:1014D0000130ADF803300123052269460020FFF7F3
:1014E0000BFF48E00123502226490020FFF704FFAC
:1014F00041E0B5F80520B5F803100020FFF77AFFAA
:1015000039E041F234322049002009F02BFA0090F2
:101510000123042269460020FFF7EEFE2BE0B5F818
:101520000330B5F80520E91D1748184409F0CAFA38
:101530000123002211461046FFF7DEFE1BE0B5F83E
:101540000330B5F80520E91D0F48184409F0BAFA30
:101550000123002211461046FFF7CEFE0BE00123C7
:10156000002211460420FFF7C7FE04E04FF40051AB
:10157000064803F0FAFA03B030BD00BF78B900089E
:101580007CB90008F4120020441300200008024037
:1015900000B583B04FF0FF3300226946054800686C
:1015A000FFF713FE0028F5D1BDF804100098FFF7EF
:1015B00035FFEFE74412002008B56420FFF7DAFC9E
:1015C000104B114A02213C2007F07CFE0320FFF75C
:1015D00015FC07EE900AF8EE677A9FED0C7A67EE3D
:1015E000877A9FED0B7A87EE870AF2EE047A30EE67
:1015F000270A084B83ED000A07F078FE0120FFF769
:10160000B9FCE3E74C120020F19000080080774419
:1016100000F07F454812002000B5584B584AC3F8E7
:1016200000224FF08242C3F804225649C3F8081240
:101630004FF07E5CC3F80CC2534AC3F810224FF03F
:101640007C52C3F814225148C3F818025048C3F81A
:101650001C02C3F820024F48C3F824024E48C3F8C6
:101660002802C3F82C12C3F830224C4AC3F83422A3
:101670004B49C3F838124B48C3F83C02C3F8402228
:10168000F3EE047AC3ED917AC3F848C20021C3F89F
:101690004C12C3F85012DFF81CE1C3F854E2C3F84F
:1016A0005822C3ED977AC3F860C2C3F86412C3F836
:1016B0006812C3F86CE2C3F870223B4AC3F8742284
:1016C000C3F87802394AC3F87C223949C3F880123A
:1016D000C3F88402C3F888224FF47A62A3F80C237B
:1016E0004FF41662A3F80E2340F6B831A3F8101396
:1016F00040F2A462A3F81223A3F81413A3F816234C
:10170000002283F8182383F8192383F81A2383F817
:101710001B2383F81C2383F81D2383F81E23042135
:1017200083F81F1383F82023032083F8210301216A
:1017300083F822134FF0050C83F823C383F8242386
:1017400083F8252383F8262383F8272383F8282387
:1017500083F8290383F82A2383F82B2383F82C2387
:1017600083F82D1383F82E2383F82F2383F8302357
:1017700083F8311383F832235DF804FB44230020FF
:101780000000C8430000204100C05A4500007041DD
:1017900033336B410080BB4400805444CDCCCC3DFE
:1017A0000000C8C20000C8420000DC420000BE4287
:1017B0000000B44200007F43F0B58FB050220021FA
:1017C0002F4809F04BF92F4807F032FB2E48FFF75E
:1017D000FDFAFFF721FF2D4C01230093032304F2B0
:1017E0001B3294F81A132A4807F026FC294F46F2B8
:1017F000A81302930C2301930823009304230022CF
:101800002549384600F026FA244E304601F022FAE7
:10181000234D3B46234A3146284600F079FB9FED95
:10182000220A284600F0A6FB94F826131F4802F06F
:1018300097F994F827131E4802F014F994F8281326
:101840001C4802F0E9F81C4802F00CFA1B4800F0B2
:1018500089FFFFF76DFD05AC24220021204609F029
:10186000FDF8174B05934FF480630A9318230B93ED
:10187000224600211348FFF723FB0FB0F0BD00BF45
:10188000F4120020C46D00202C020020442300200C
:101890004C120020B81200207C6D00202000002097
:1018A000D01200205C00002000008C42A01200201A
:1018B00088120020801200207812002000000020F2
:1018C00090B90008B915000808B50548054B036034
:1018D00002F046FE00B908BD01F048F9FBE700BF81
:1018E00078260020003002400268094B9A4200D05E
:1018F000704782B000230193064B1A6B42F480526A
:101900001A631B6B03F480530193019B02B0704771
:101910000030024000380240002800F038812DE9F4
:10192000F8430D46164604460768002F52D010466D
:10193000FEF7E0FD96A3D3E90023FEF76FFF804694
:1019400089463F68F86AFEF7C5FD42464B46FEF7FA
:101950003BFEFFF74BF8FDB1012D79D06368002BFA
:1019600040F0CF807B63A368002B40F0D7802368D2
:101970001B6800225A63E368002B40F0E280236872
:101980001B6800225A632369002B40F0ED80236816
:101990001B6800225A631BE0E3686BB122695AB1ED
:1019A000042B19D0082B1AD000233B642369CBB930
:1019B00023681B68DA6A5A63A36833BB23681B6811
:1019C00000225A636368002B32D123681B68586376
:1019D00066752575BDE8F8830023BB63E6E7002341
:1019E000FB63E3E7042B06D0082B09D023681B68B0
:1019F000DA6A1A64E0E723681B68DA6A9A63DBE74D
:101A000023681B68DA6ADA63D6E7042B06D0082B52
:101A100009D023681B6800221A64D3E723681B6877
:101A200000229A63CEE723681B680022DA63C9E7C5
:101A3000042B05D0082B07D023681B681864C7E760
:101A400023681B689863C3E723681B68D863BFE7F4
:101A5000E3686BB123695BB1042B16D0082B17D058
:101A600000233B64E368B3B923681B68DA6A5A63EE
:101A700063681BBB23681B6800225A63A368002BA2
:101A80002FD123681B685863A2E70023BB63E9E7F3
:101A90000023FB63E6E7042B06D0082B09D023685C
:101AA0001B68DA6A1A64E3E723681B68DA6A9A63D8
:101AB000DEE723681B68DA6ADA63D9E7042B06D00D
:101AC000082B09D023681B6800221A64D6E7236814
:101AD0001B6800229A63D1E723681B680022DA633F
:101AE000CCE7042B05D0082B07D023681B681864AB
:101AF0006EE723681B6898636AE723681B68D863EE
:101B000066E7042B04D0082B05D000233B642AE7AA
:101B10000023BB6327E70023FB6324E7042B06D0E5
:101B2000082B09D023681B6800221A6423E7236866
:101B30001B6800229A631EE723681B680022DA6391
:101B400019E7042B06D0082B09D023681B68002254
:101B50001A6418E723681B6800229A6313E7236856
:101B60001B680022DA630EE7042B06D0082B09D08D
:101B700023681B6800221A642AE723681B68002276
:101B80009A6325E723681B680022DA6320E7704721
:101B90000000000000E06F40034678B102686AB1BF
:101BA000416861B9126851639A68C2B91A681268CB
:101BB0000021516300225A7502229A757047042948
:101BC00005D0082907D0126800211164ECE71268DB
:101BD00000219163E8E712680021D163E4E7042A59
:101BE00006D0082A09D01A68126800211164E1E7BA
:101BF0001A68126800219163DCE71A6812680021F4
:101C0000D163D7E738B5054699B10C4644F6206351
:101C1000994200D91C4604F0F7F8002202FB044365
:101C2000B0FBF3F3013BB3F5803F05D3013292B231
:101C3000F4E7FFF7B1FF0CE0296809688A622A68B7
:101C40001268D3622A68D3606A7D297D2846FFF72F
:101C500063FE38BD002800F0918010B504460029CD
:101C60003FD0016042608360029BC360039B0361BD
:101C7000002303758375084604F0BAFABDF8101006
:101C80002046FFF7BFFF6368002B2BD123681B683A
:101C900000225A63A368002B37D123681B680022F7
:101CA0005A63E368002B43D123681B6800225A6300
:101CB0002369002B4FD123681B6800225A63616897
:101CC000206804F0A3FEA168206804F09FFEE1688C
:101CD000206804F09BFE2169206804F097FE002331
:101CE000637510BD042B06D0082B09D023681B6830
:101CF00000221A64CEE723681B6800229A63C9E7B2
:101D000023681B680022DA63C4E7042B06D0082B83
:101D100009D023681B6800221A64C2E723681B6885
:101D200000229A63BDE723681B680022DA63B8E7E4
:101D3000042B06D0082B09D023681B6800221A64E4
:101D4000B6E723681B6800229A63B1E723681B6823
:101D50000022DA63ACE7042B06D0082B09D02368F5
:101D60001B6800221A64AAE723681B6800229A6392
:101D7000A5E723681B680022DA63A0E7704700002C
:101D800000B583B000220192094B196B41F4800128
:101D900019631B6B03F480030193019B0521382019
:101DA00002F0CAFB382002F0D7FB03B05DF804FB59
:101DB0000038024030B52DED028B83B000284AD0A8
:101DC00004468368002B46D0C068002843D063686F
:101DD000002B40D001F0AAFDB0EE408A84ED050A48
:101DE00094ED040AA06800F03EFFA56807F04EF8E5
:101DF0000146B0EE480A284600F038FFB5EEC00AAA
:101E0000F1EE10FAD4BF0121002194F82030002B0C
:101E100051D0DFED3C7A78EE677AF5EEC07AF1EEDC
:101E200010FA1FD4B6EE007AF4EEC77AF1EE10FA8B
:101E30004CBF012300230BB3B5EEC00AF1EE10FA3C
:101E40001AD4D4ED077AF4EEC07AF1EE10FA15D573
:101E5000B0EE670A12E02C4800F0A0F803B0BDEC29
:101E6000028B30BDBEEE007AF4EEC77AF1EE10FAC6
:101E7000CCBF01230023DEE79FED240AB5EEC08A24
:101E8000F1EE10FA26D4F6EE007AB4EEE78AF1EE1F
:101E900010FA4CBF012300236BB1B5EEC00AF1EE7E
:101EA00010FA21D4D4ED067AF4EEC07AF1EE10FAED
:101EB00001D5B0EE670A6068B5EEC00AF1EE10FA1F
:101EC00016D4FCEEC07ACDED017A9DF80420FFF720
:101ED00023FDC3E7FEEE007AB4EEE78AF1EE10FAD6
:101EE000CCBF01230023D7E760689FED080AE8E72D
:101EF000B1EE400AFCEEC07ACDED017A9DF80420E7
:101F0000E5E700BF0000C8429CB9000800000000DF
:101F100010B5F0B10446E2B1DBB18160C26043604C
:101F2000002303610D4B4B6183680D4A1A6183687E
:101F30000C4ADA6183680C4A9A6100230246012147
:101F40000A48FFF725F80121FFF776F801232370EF
:101F500010BD074800F022F8FAE700BF00007F43F9
:101F600000007FC300007A4300007AC3B51D00085B
:101F7000C0B90008B5EEC00AF1EE10FA06DBDFEDDD
:101F8000067AB4EEE70AF1EE10FA01D900230361F4
:101F900080ED040A704700BF0000C842C0B170B5B0
:101FA0009AB0064601AC64252A460021204608F076
:101FB00055FD3346074A2946204608F019FD2046BC
:101FC000FEF7EEF881B2204607F0E2FC1AB070BDD1
:101FD000704700BFE0B90008C0B170B59AB00646BE
:101FE00001AC64252A460021204608F037FD33461F
:101FF000074A2946204608F0FBFC2046FEF7D0F8A9
:1020000081B2204607F0C4FC1AB070BD704700BF13
:10201000ECB9000880B110B582B0044620230193CA
:10202000019B202B11D04FF0500383F31188BFF395
:102030006F8FBFF34F8FFEE74FF0500383F311888C
:10204000BFF36F8FBFF34F8FFEE7002340F8043BD1
:1020500000F02EFD01232377204602B010BD38B5D5
:10206000202000F005FA044628B1002540F8045B62
:1020700000F01EFD2577204638BD08B507F08CF925
:102080006420FEF777FF0120FEF774FFFBE708B539
:102090000120FEF76FFFFBE708B50120FEF76AFF9E
:1020A000FBE7000008B5FFF787FB00220EE0642382
:1020B00002FB03F302F580702D4901EB800107EE6E
:1020C000903AF8EE677AC1ED007A01320F2AEED924
:1020D00000230EE003EB8302520003F588702449CD
:1020E00001EB800107EE902AF8EE677AC1ED007AE5
:1020F00001330F2BEED9002011E05A1C00FB022106
:1021000007EE901A03EB0013194901EB8303F8EE75
:10211000677AC3ED007A13460F2BEED901300F28F2
:102120000CD80023F8E7DFED130A134B93ED000AF8
:102130000F4805F0ABFB114B83ED000A0120FEF7C1
:1021400019FF0D4BD3ED007AB2EE047A77EE877A61
:10215000C3ED007A0A4B0B4A1A609FED0B7AF4EE3E
:10216000C77AF1EE10FADEDD034B084A1A60DAE7AF
:10217000C42600200000344184260020C026002010
:10218000802600200000344100409C4500007AC4B5
:1021900008B50120FEF7EEFE01F038FD054C84ED98
:1021A0000D0A01F0AFFC84ED0E0A01F06FFD84F81A
:1021B0004B00EEE7F412002008B5144A0021144841
:1021C000FEF77EFE134B1860134A00211348FEF7FA
:1021D00077FE134B1860134A00211348FEF770FE78
:1021E000124B1860124A00211248FEF769FE124B8A
:1021F0001860124A00211248FEF762FE114B186067
:102200001148FEF733FF114B186008BD60BE00088F
:102210007B200008BC2600203CBE00088F20000860
:10222000B826002018BE000899200008B426002017
:10223000F4BD0008A5200008B0260020D0BD00088D
:1022400091210008AC260020C0BD0008A82600206F
:102250002DE9F0478AB005AD002405940694079453
:102260000894099400944B4B1A6B42F004021A63D1
:102270001A6B02F004020092009A01941A6B42F069
:1022800080021A631A6B02F080020192019A029492
:102290001A6B42F001021A631A6B02F001020292F9
:1022A000029A03941A6B42F002021A631A6B02F04C
:1022B00002020392039A04941A6B42F008021A6312
:1022C0001B6B03F008030493049BDFF8D0A02246A5
:1022D0004FF47051504602F042FC2F4E22464FF20E
:1022E0003F41304602F03BFCDFF8B49022464FF409
:1022F0000041484602F033FCDFF8A8802246042162
:10230000404602F02CFC4FF47053059301270697CA
:10231000079408942946504602F036FB4FF23F439B
:1023200005930697079408942946304602F02CFB43
:102330004FF40043059306970794089429464846AE
:1023400002F022FB0423059306970794089429467C
:10235000404602F019FB4FF48073059306940794EE
:102360002946304602F010FB4FF4007305934FF4FA
:102370008813069307942946304602F005FB22464F
:102380000521172002F0D8F8172002F0E5F80AB06E
:10239000BDE8F08700380240000402400008024017
:1023A00000000240000C0240124A12F0070F1ED03B
:1023B000D11D21F00701C1F5705313440A460E48A0
:1023C0000260002141601344083B23F007030B48DF
:1023D000036059601960991A51601360084B1960C5
:1023E000084B1960084B4FF000421A6070474FF4D9
:1023F0007053E4E7642B00205C2B0020582B002056
:10240000502B0020542B0020442B0020164B1A4642
:102410001B688342FBD3516802EB010C844509D051
:10242000416800EB010C634509D00360904219D06C
:10243000106070474068014451601046F0E710B4E6
:102440000A4C2468A3420BD05B68194441601368AE
:102450001B680360904200D010605DF8044B704729
:102460000460F7E7704700BF5C2B0020582B00206A
:1024700038B5044605F010FD384B1B68B3B1384B36
:102480001B681C4250D1002C50D004F1080214F0FB
:10249000070F02D022F007020832002A55D0314B34
:1024A0001B68934253D330490C6804E0FFF77CFF6C
:1024B000E5E721461C466368934202D22368002B5D
:1024C000F7D1264B1B68A34243D00D68083523681B
:1024D0000B6063689B1A102B10D9A01810F0070F1F
:1024E00008D04FF0500383F31188BFF36F8FBFF311
:1024F0004F8FFEE743606260FFF788FF626819490B
:102500000B689B1A0B60194909688B4201D2174965
:102510000B60134B1B681343636000232360144A52
:1025200013680133136002E0002500E0002505F088
:102530004DFD15F0070F0ED04FF0500383F31188B7
:10254000BFF36F8FBFF34F8FFEE70025EFE7002546
:10255000EDE70025EBE7284638BD00BF582B0020EB
:10256000442B0020542B00205C2B0020502B0020FB
:102570004C2B0020002834D038B50446A0F10805C3
:1025800050F8043C174A1268134208D14FF0500328
:1025900083F31188BFF36F8FBFF34F8FFEE750F8BF
:1025A000081C41B14FF0500383F31188BFF36F8FC4
:1025B000BFF34F8FFEE723EA020340F8043C05F027
:1025C0006BFC54F8041C084A13680B44136028463B
:1025D000FFF71CFF054A13680133136005F0F6FC92
:1025E00038BD7047442B0020542B0020482B00207E
:1025F00008B50B480B4B03600B4B43600023836013
:10260000C3604FF48042026143618361C36103622E
:1026100002F0C2FA00B908BD00F0A8FAFBE700BF5B
:102620006467002000540040A086010030B589B0E6
:102630000023039304930593069307930268144BB6
:102640009A4201D009B030BD00250195114C236B91
:1026500043F002032363236B03F002030193019B06
:10266000C0230393122304930323069304230793A5
:1026700003A9094802F088F90295236C43F400137A
:102680002364236C03F400130293029BDAE700BF78
:1026900000540040003802400004024030B370B5DE
:1026A00004464378032B02D80378032B03D9104840
:1026B000FFF774FC70BD0F4A0125D5544378D554FB
:1026C00000780D4E336803EBC0012A46898853F821
:1026D000300002F044FA6078336803EBC0012A4608
:1026E000898853F8300002F03AFAE3E7704700BFF8
:1026F00048BA0008C0670020C467002040B370B526
:1027000004464378032B02D80378032B03D91148DE
:10271000FFF744FC70BD104A0025D5544378D554CA
:1027200000780E4E336803EBC0012A46898853F8BF
:10273000300002F014FA6078336803EBC0012A46D7
:10274000898853F8300002F00AFA054B1D70E1E762
:10275000704700BF48BA0008C0670020C467002067
:10276000BB67002010B5A8B1244A1060244B93F831
:1027700018339BB90422234B1A70234B0121197083
:10278000032159709A700222DA70204B204ADA61D4
:10279000002413E01F48FFF701FC02E01E48FFF78A
:1027A000FDFB10BD154B1B6803EBC402918853F869
:1027B000340002F0CDF9194B18550134032CF1D92E
:1027C00000240AE00D4B1B6803EBC401002289883A
:1027D00053F8340002F0C3F90134032CF2D9084B4A
:1027E00093F82233002BDCD0054B93F82333082BCE
:1027F000D7D90B48FFF7F0FBD3E700BFC467002031
:1028000044230020BA670020BC670020F412002097
:102810000000344360BA000888BA0008C06700208E
:10282000B4BA0008944B93F82133002B00F02381B5
:10283000F0B52DED028B85B0B0EE608A8F4B93ED35
:10284000077AB5EE407AF1EE10FA00F0E4808A4B98
:10285000D3ED837AF6EE006AF4EEE67AF1EE10FA42
:10286000C0F2DD80F1EE006AF4EEE67AF1EE10FAE5
:1028700000F2D580C0EE076AFCEEE66ACDED016A93
:102880009DF8043006EE903AF8EEE66A66EE876A46
:10289000B3EE0E6A76EEC66A37EE267A8DED037ACF
:1028A0009DED037ADFED766A67EEA67AF5EE400AD3
:1028B000F1EE10FA00F0D080DFED726A60EEA66AE9
:1028C000DFED715A86EEA56A67EE867A77EE677A53
:1028D000CDED027A6D4CE25C013AD2B26C490A70DD
:1028E0004A700233E35C013B4B70644B93F8484001
:1028F000012C40F0AD80DDED027A77EEC07AB2EEC9
:10290000047AF4EEC77AF1EE10FA40F1A180614B3F
:102910001B78002B40F09C80DDED027A77EEC07AC8
:10292000F5EEC07AF1EE10FA40F39280DDED027A16
:1029300077EEC07AB5EE408AF1EE10FA00F08F80A3
:102940009FED507A28EE077ADFED4F6AC6EE878A50
:10295000FCEEE88AF8EE688A67EEA87AFCEEE77A81
:1029600017EE905A0544DDED037A77EEC07A68EEF3
:10297000A77AFCEEE77A17EE906A0644444F3A468F
:102980004549284606F012FB3A464449304606F0CF
:102990000DFB394B93F82233002B63D0364B93F861
:1029A0002333A34263D9344BD3ED847AF4EEC87A4F
:1029B000F1EE10FA5BD407EE904AF8EE677A93EDE9
:1029C000857AD3ED836A37EE267A67EE877A9FEDB4
:1029D0002C7A67EE877AFCEEE77AF8EE676A93ED79
:1029E000867A28EE877AF4EEC76AF1EE10FA3EDABC
:1029F00017EE903A1D441E44254A2749284606F002
:102A0000D5FAA0B3224A2549304606F0CFFA70B372
:102A10000134E4B2C2E72248FFF7C0FA18E0B6EE8C
:102A2000007AF4EEC77AF1EE10FA09D4B1EE007A2A
:102A3000F4EEC77AF1EE10FA04DDF0EE477A01E029
:102A4000F6EE007A0C4BC3ED837A1648FFF7A6FA30
:102A500005B0BDEC028BF0BD9FED136A34E7DFEDEE
:102A6000138A77E7054B012283F84C20F0E7034BEC
:102A700083F84C40ECE7704744230020F412002018
:102A800000007A440000B443C0E1644CBC670020FD
:102A9000B8670020BB6700209D260008FD260008BF
:102AA000E8BA000804BB00080000000000000000B5
:102AB00000F1080343604FF0FF328260C36003619E
:102AC00000230360704700230361704743684B6035
:102AD0009A688A60516099600861036801330360F5
:102AE000704730B40D68B5F1FF3F11D000F1080315
:102AF0001C465B681A68AA42FAD963684B60996001
:102B00008C606160086103680133036030BC70470A
:102B10000469F2E70369416882688A60416851602C
:102B20005A68824206D0002202611A68013A1A608D
:102B30001868704782685A60F5E7000000BFB0F57A
:102B4000007F00D0704708B5014806F0D1FA08BDF3
:102B50004C12002008B50268034B9A4200D008BD11
:102B600001F0E2F8FBE700BF0048014072B6FEE763
:102B700010B594B008AC30220021204607F06EFF5B
:102B80000023039304930593069307930193214A2B
:102B9000116C41F080511164126C02F0805201926C
:102BA000019A02931C4A136823F4404343F4004300
:102BB0001360136803F440430293029B01230893BC
:102BC0004FF48033099302230E934FF480030F9345
:102BD000192310934FF4A87311930423129307231E
:102BE0001393204602F014FF78B90F2303930221B8
:102BF0000491002305934FF480520692079303A893
:102C000003F056F918B914B010BDFFF7AFFFFFF786
:102C1000ADFF00BF003802400070004008B501F071
:102C200069F8FFF7A5FFFFF713FBFFF7A9F805F019
:102C3000FBFDFDF735FF05F089FD05F097FCFEF77C
:102C400043FEFFF7D5FCFEF70DF9FFF7B5FAFEF7E7
:102C50001BF9FEE70023036243628362C362002222
:102C600002638363704780ED0D0A7047036BCB1AD4
:102C700007EE903AF8EE677A9FED397AC7EE876AE9
:102C800090ED0D6A36EE406AD0ED005A65EE865A38
:102C900090ED087AD0ED017AB6EE005A67EE857AAB
:102CA00067EEA67A90ED0A5A35EE065A67EE857AF7
:102CB00077EE277AC0ED087A90ED077AF4EEC77ABE
:102CC000F1EE10FA38DD80ED087AD0ED027A77EE79
:102CD000A77A90ED0B7A30EE477A67EE877A90ED1F
:102CE000037A37EE077A37EE665AD0ED094A25EEB9
:102CF000245A77EE857AF1EE677A37EE267AC7EEB8
:102D0000876AC0ED096AD0ED087A77EEA57A76EE8B
:102D1000A77AC0ED0E7A90ED057AF4EEC77AF1EE5F
:102D200010FA13DD80ED0E7A80ED0A6A80ED0B0A51
:102D3000016390ED0E0A704790ED067AF4EEC77AC3
:102D4000F1EE10FAC1D580ED087ABEE790ED047A75
:102D5000F4EEC77AF1EE10FAE6D580ED0E7AE3E7ED
:102D60000024744982B0002301930D4B1B68B3F11A
:102D7000FF3F08D04FF0500383F31188BFF36F8FEC
:102D8000BFF34F8FFEE74FF0500383F31188BFF37B
:102D90006F8FBFF34F8F019B002BFCD002B07047A9
:102DA0006400002008480068006880F308884FF03D
:102DB000000080F3148862B661B6BFF34F8FBFF393
:102DC0006F8F00DF00BF000008ED00E0DFF80C00AF
:102DD000016841F4700101607047000088ED00E077
:102DE0004FF0807340F8043C21F0010140F8081CCA
:102DF000054B40F80C3C40F8202C6FF0020340F8E3
:102E0000243C4438704700BF652D000800000000D6
:102E1000074B19680868B0E8F04F80F30988BFF3E2
:102E20006F8F4FF0000080F311887047AFF3008080
:102E3000786D00204FF0500383F31188BFF36F8F3C
:102E4000BFF34F8F0B4A136801331360012B00D07F
:102E500070474FF0E023D3F8043D13F0FF0FF7D095
:102E60004FF0500383F31188BFF36F8FBFF34F8F81
:102E7000FEE700BF64000020094B1B6843B94FF018
:102E8000500383F31188BFF36F8FBFF34F8FFEE7BB
:102E9000013B034A13600BB983F31188704700BFED
:102EA000640000200000000000000000000000009E
:102EB000EFF30980BFF36F8F154B1A681EF0100FE8
:102EC00008BF20ED108A20E9F04F10602DE90900BD
:102ED0004FF0500080F31188BFF34F8FBFF36F8F17
:102EE00005F016F94FF0000080F3118809BC19684D
:102EF0000868B0E8F04F1EF0100F08BFB0EC108A61
:102F000080F30988BFF36F8F704700BFAFF3008075
:102F1000786D002008B54FF0500383F31188BFF39C
:102F20006F8FBFF34F8F04F0C5FF28B14FF0E02340
:102F30004FF08052C3F8042D002383F3118808BD9D
:102F40004FF0E022002313619361054B1B68054994
:102F5000A1FB03139B09013B5361072313617047D6
:102F600070000020D34D62104FF0E023D3F8002D05
:102F70003D4B9A421CD04FF0E023D3F8002D3B4B41
:102F80009A421ED030B583B0394B1A78D2B2019232
:102F9000FF221A701B78DBB28DF803309DF80330E6
:102FA00003F05003334A1370334B07221A601BE0BF
:102FB0004FF0500383F31188BFF36F8FBFF34F8F30
:102FC000FEE74FF0500383F31188BFF36F8FBFF319
:102FD0004F8FFEE7284A1368013B13609DF80330CA
:102FE0005B00DBB28DF803309DF8033013F0800FE7
:102FF000F0D1214B1B68032B08D04FF0500383F313
:103000001188BFF36F8FBFF34F8FFEE71B021A4A81
:10301000136003F4E0631360019BDBB2144A137086
:103020004FF0E024D4F8203D43F47003C4F8203D71
:10303000D4F8203D43F07043C4F8203DFFF780FFF3
:1030400000250E4B1D60FFF7C1FED4F8343F43F05E
:103050004043C4F8343FFFF7A5FE05F059F8FFF7E9
:1030600081FE284603B030BD71C20F4170C20F41CE
:1030700000E400E0CC670020C86700206400002066
:10308000EFF305830F2B0ED9114A9A5C114B1B7875
:103090009A4208D24FF0500383F31188BFF36F8F29
:1030A000BFF34F8FFEE74FF0E023D3F80C3D03F45E
:1030B000E063094A1268934208D94FF0500383F342
:1030C0001188BFF36F8FBFF34F8FFEE7704700BFCC
:1030D000F0E300E0CC670020C867002010B504468C
:1030E000FFF7A8FEA26BE36B9A4204D00024FFF71F
:1030F000C3FE204610BD0124F9E710B50446FFF7D2
:1031000099FEA36B23B90124FFF7B6FE204610BD3C
:103110000024F9E770B504461546866B026C5AB96F
:1031200003681BB100200136A66370BD806805F0FE
:103130001BF90023A360F6E76DB9406807F0C2FCF5
:103140006368226C13446360A268934219D32368B6
:1031500063602846E7E7C06807F0B4FCE368226CC8
:1031600051429B1AE3602268934202D2A3680B4447
:10317000E360022D01D00020D5E726B1013E0020FA
:10318000D1E72846CFE70020CDE70346026C6AB1BD
:1031900010B50846D9681144D9609C68A14201D392
:1031A0001968D960D96807F08DFC10BD704738B533
:1031B0000546FFF73FFE95F8454064B201E0013C4B
:1031C00064B2002C0ADD6B6A43B105F1240005F0FE
:1031D0001FF80028F3D005F0B1F8F0E7FF2385F8D9
:1031E0004530FFF749FEFFF725FE95F8444064B2ED
:1031F00001E0013C64B2002C0ADD2B6943B105F10A
:10320000100005F005F80028F3D005F097F8F0E776
:10321000FF2385F84430FFF72FFE38BD38B5E0B105
:103220000D460446FFF706FE2368E26B216C01FBA6
:103230000230A0600020A0636360013A02FB01330A
:10324000E360FF2384F8443084F84530FDB92369F6
:1032500063B9FFF711FE012038BD4FF0500383F32F
:103260001188BFF36F8FBFF34F8FFEE704F110009B
:1032700004F0CEFF0028ECD04FF0E0234FF0805256
:10328000C3F8042DBFF34F8FBFF36F8FE1E704F155
:103290001000FFF70DFC04F12400FFF709FCD8E74C
:1032A00038B51D46049C0B4649B92460E06323648D
:1032B00001212046FFF7B2FF84F84C5038BD226050
:1032C000F4E740B94FF0500383F31188BFF36F8FD9
:1032D000BFF34F8FFEE710B584B01C46844653B150
:1032E00092B189B94FF0500383F31188BFF36F8F08
:1032F000BFF34F8FFEE74FF0500383F31188BFF306
:103300006F8FBFF34F8FFEE76AB150230393039B88
:10331000502B13D04FF0500383F31188BFF36F8FFE
:10332000BFF34F8FFEE70029EFD04FF0500383F338
:103330001188BFF36F8FBFF34F8FFEE7039B01230D
:1033400084F8463000949DF818306046FFF7A8FFD7
:10335000204604B010BD40B94FF0500383F31188EC
:10336000BFF36F8FBFF34F8FFEE7F0B583B00D460D
:103370001446064601FB00F05030FFF779F8074687
:1033800050B1002380F846300090234600F15002EF
:1033900029463046FFF784FF384603B0F0BDF0B54C
:1033A00085B0019288B10F461D460446B1B1022D89
:1033B00020D1E36B012B1DD04FF0500383F3118814
:1033C000BFF36F8FBFF34F8FFEE74FF0500383F3D0
:1033D0001188BFF36F8FBFF34F8FFEE7036C002B95
:1033E000E5D04FF0500383F31188BFF36F8FBFF325
:1033F0004F8FFEE704F0A8FF064658B9019B002B4B
:1034000048D04FF0500383F31188BFF36F8FBFF3A1
:103410004F8FFEE700263DE02A4639462046FFF75B
:1034200079FE636A7BB948B14FF0E0234FF08052D8
:10343000C3F8042DBFF34F8FBFF36F8FFFF71CFD51
:10344000012005B0F0BD04F1240004F0E1FE0028E5
:10345000F4D04FF0E0234FF08052C3F8042DBFF3B7
:103460004F8FBFF36F8FE9E7FFF706FD0020E8E716
:1034700002A804F013FF012619E0002384F8443069
:1034800021E0002384F8453023E02046FFF78FFE3B
:1034900004F09CFDFFF7CEFCA26BE36B9A42BBD31A
:1034A000022DB9D0019B002BDED0002EE0D0FFF71B
:1034B000E3FC04F0F1FCFFF7BDFC94F8442052B2A9
:1034C000B2F1FF3FD9D094F8452052B2B2F1FF3F9C
:1034D000D7D0FFF7D1FC01A902A804F0EBFED8B9C0
:1034E0002046FFF7FBFD0028CFD0019904F1100022
:1034F00004F05AFE2046FFF75AFE04F067FD00284C
:10350000C8D14FF0E0234FF08052C3F8042DBFF331
:103510004F8FBFF36F8FBDE72046FFF748FE04F0E3
:1035200055FD00208DE72DE9F84390B10F46164672
:103530001C460546B1B1022C20D1EB6B012B1DD0EE
:103540004FF0500383F31188BFF36F8FBFF34F8F9A
:10355000FEE74FF0500383F31188BFF36F8FBFF383
:103560004F8FFEE7036C002BE5D04FF0500383F341
:103570001188BFF36F8FBFF34F8FFEE7FFF780FD1A
:10358000EFF311884FF0500383F31188BFF36F8F6F
:10359000BFF34F8FAA6BEB6B9A4206D3022C04D079
:1035A000002088F31188BDE8F88395F845904FFA1C
:1035B00089F9AB6B224639462846FFF7ABFDB9F1D6
:1035C000FF3F06D009F101035BB285F845300120C9
:1035D000E7E76B6A0BB90120E3E705F1240004F08B
:1035E00017FE18B126B101203060DAE70120D8E7D4
:1035F0000120D6E7F0B585B0019290B10F460446A0
:10360000C1B104F0A1FE064600BB019B002B5ED0B9
:103610004FF0500383F31188BFF36F8FBFF34F8FC9
:10362000FEE74FF0500383F31188BFF36F8FBFF3B2
:103630004F8FFEE7036C002BE3D04FF0500383F372
:103640001188BFF36F8FBFF34F8FFEE700263EE078
:1036500039462046FFF799FD013DA563236923B94B
:10366000FFF70AFC012005B0F0BD04F1100004F0E2
:10367000CFFD0028F4D04FF0E0234FF08052C3F884
:10368000042DBFF34F8FBFF36F8FE9E7FFF7F4FB14
:103690000020E8E702A804F001FE012621E0002353
:1036A00084F8443029E0002384F845302BE020469C
:1036B000FFF77DFD04F08AFC09E02046FFF777FD67
:1036C00004F084FC2046FFF718FD00283FD1FFF7E7
:1036D000B1FBA56B002DBBD1019B002BD6D0002EDA
:1036E000D8D0FFF7C9FB04F0D7FBFFF7A3FB94F892
:1036F00044305BB2B3F1FF3FD1D094F845305BB2B8
:10370000B3F1FF3FCFD0FFF7B7FB01A902A804F048
:10371000D1FD0028D1D12046FFF7EFFC0028C6D00C
:10372000019904F1240004F03FFD2046FFF73FFD1E
:1037300004F04CFC0028CAD14FF0E0234FF0805237
:10374000C3F8042DBFF34F8FBFF36F8FBFE7002087
:1037500089E72DE9F843B0B10D4690460446D9B14A
:10376000FFF78EFCEFF311874FF0500383F31188BE
:10377000BFF36F8FBFF34F8FA66BCEB9002087F3D7
:103780001188BDE8F8834FF0500383F31188BFF32D
:103790006F8FBFF34F8FFEE7036C002BE0D04FF02D
:1037A000500383F31188BFF36F8FBFF34F8FFEE792
:1037B00094F844904FFA89F929462046FFF7E5FC32
:1037C000731EA363B9F1FF3F06D009F101035BB299
:1037D00084F844300120D2E723690BB90120CEE7F9
:1037E00004F1100004F014FD30B1B8F1000F05D061
:1037F0000120C8F80000C2E70120C0E70120BEE7B1
:103800000023072B0CD8074A52F833200AB10133A2
:10381000F7E7044A42F8331002EBC30250607047E6
:10382000704700BFD067002070B504460D461646AD
:10383000FFF700FB94F844305BB2B3F1FF3F0DD0CB
:1038400094F845305BB2B3F1FF3F0BD0FFF714FBA8
:10385000A36B5BB12046FFF7AAFC70BD002384F880
:103860004430EDE7002384F84530EFE7324629463F
:1038700004F1240004F0B0FCECE7000008B520B12E
:1038800080ED010A0170027208BD0248FEF786FB56
:10389000FAE700BF24BB000810B50446007AFDF724
:1038A000ADFA07EE100AB8EE477ADFED1A6AC7EEF6
:1038B000267A9FED197A67EE877A9FED187AF4EEF3
:1038C000C77AF1EE10FA13DB9FED157AF4EEC77AA2
:1038D000F1EE10FA0CD8237883B9D4ED016A66EEC4
:1038E000A76A9FED0D7A77EE677A86EEA70A04E065
:1038F0000C48FEF753FB9FED0C0A10BD9FED067AB6
:1039000037EE677AD4ED016A27EE267A87EE270A2A
:10391000F3E700BF00F07F4533335340C3F5283E43
:10392000D7A348403CBB00080000C07F10B5B0B32F
:10393000044603880BB94388BBB32079FDF75EFAD0
:1039400007EE900A6379B3B3F8EE677A228807EE40
:10395000102AF8EE476A638807EE103AB8EE477A05
:103960009A4245D077EEE67A9FED266A67EE867A30
:1039700037EE667A87EE870ADFED237A30EE270A84
:10398000B5EEC00AF1EE10FA38D4DFED1E7AB4EECF
:10399000E70AF1EE10FA01DDB0EE670A10BD1B4830
:1039A000FEF7FCFA9FED1A0AF8E71A48FEF7F6FA56
:1039B0009FED170AF2E7F8EE677A628807EE102AA1
:1039C000F8EE476A238807EE103AB8EE477A9A4233
:1039D00011D077EEE67A9FED0B6A67EE867A37EEC6
:1039E000667A87EE870ADFED087A30EE270AC7E7A6
:1039F0009FED050AC9E79FED040AC6E79FED020A9D
:103A0000CCE700BF0000C8420000000054BB000823
:103A10000000C07F60BB000810B568B1044679B1F2
:103A2000012915D16423038040F6B8334380042371
:103A30000371094B1C6010BD0848FEF7AFFAFAE7A6
:103A40006423038040F6B833438004230371F0E716
:103A50000348FEF7A3FAECE72868002078BB0008CB
:103A60008CBB000870B58AB00446E9B1012938D191
:103A7000052200219FED1D0AFFF700FF04AD1C4E3B
:103A80000FCE0FC596E8030085E803000AAB13E9E3
:103A900007008DE8070004AB0ECB204604F0ACFC19
:103AA000144B1C600AB070BD052200219FED120A64
:103AB000FFF7E4FE0DF1100C104D0FCDACE80F0038
:103AC00095E803008CE803000AAB13E907008DE8D2
:103AD000070004AB0ECB204604F08EFC054B1C60A7
:103AE000E0E70748FEF75AFADCE700BF00401C4653
:103AF000D4B800082468002000E09245ECB8000823
:103B0000ACBB000808B5104B186880B104F0E8FCA5
:103B1000DFED0E7AB4EEE70AF1EE10FA0DDBDFED21
:103B20000C7AB4EEE70AF1EE10FA06D808BD09489F
:103B3000FEF734FA9FED080AF8E70848FEF72EFA78
:103B40009FED050AF2E700BF24680020000048C28C
:103B500000001643CCBB000800002042E0BB000878
:103B600070B58AB0F8B1044609B301293CD10622E8
:103B700000219FED1F0AFFF781FE04AD1D4E0FCE01
:103B80000FC596E8030085E803000AAB13E90700B8
:103B90008DE8070004AB0ECB204604F02DFC164B3D
:103BA0001C600AB070BD1548FEF7F8F9F9E7062267
:103BB00000219FED130AFFF761FE0DF1100C114D6E
:103BC0000FCDACE80F0095E803008CE803000AABCA
:103BD00013E907008DE8070004AB0ECB204604F084
:103BE0000BFC054B1C60DCE70748FEF7D7F9D8E76C
:103BF00000401C4604B9000820680020FCBB0008F7
:103C000000E09245ECB8000810BC000808B5104B65
:103C1000186880B104F064FCDFED0E7AB4EEE70AB8
:103C2000F1EE10FA0DDBDFED0C7AB4EEE70AF1EEFF
:103C300010FA06D808BD0948FEF7B0F9B3EE0E0A2F
:103C4000F8E70748FEF7AAF9B3EE0E0AF2E700BF5D
:103C500020680020000048C200001643FCBB00089A
:103C600030BC000808B548B140F2FF720280C8229B
:103C7000428007220271034A106008BD0248FEF725
:103C80008DF9FAE71C6800204CBC000810B5144BF5
:103C90001B6803B31879FDF7B1F8114B1B681C883A
:103CA00084422CBF0024012405F0F8F80D4B1B784A
:103CB000A34203D00C4B18600A4B1C700A4B1B68C4
:103CC000C01A074B1B685B88984201D3074B1C70D6
:103CD000064B187810BD0648FEF760F90020F9E79A
:103CE0001C6800201868002014680020106800205C
:103CF0004CBC000808B50B4B1A6842F400721A60FD
:103D00001A6842F480621A601A6842F480721A607B
:103D1000032000F0FFFB0F2002F054FF01F01AF81F
:103D2000002008BD003C0240034A1168034B1B7889
:103D30000B441360704700BF2C680020680000200F
:103D4000014B1868704700BF2C68002038B5044646
:103D5000FFF7F6FF0546B4F1FF3F02D0044B1B7896
:103D60001C44FFF7EDFF401BA042FAD338BD00BF53
:103D7000680000204A4B5A6822F440325A605A6860
:103D800041680A435A600268536823F480735360A1
:103D900002685368016943EA01235360026853686B
:103DA00023F0407353600268536881680B4353608B
:103DB0000268936823F40063936002689368C168A3
:103DC0000B439360826A374B9A4257D002689368DC
:103DD00023F07063936002689368816A0B43936079
:103DE0000268936823F04053936002689368C16A45
:103DF0000B4393600268936823F0020393600268A8
:103E00009368017E43EA4103936090F82030002BD1
:103E10003FD00268536843F40063536002685368FC
:103E200023F46043536001684B68426A013A43EAF5
:103E300042334B600268D36A23F47003D362016893
:103E4000CB6AC269013A43EA0253CB6202689368C3
:103E500023F4007393600268936890F8301043EA8B
:103E6000412393600268936823F48063936002683F
:103E70009368416943EA81239360704702689368BD
:103E800023F0706393600268936823F0405393605B
:103E9000B0E70268536823F400635360CAE700BFC9
:103EA000002301400100000F38B310B50446036C35
:103EB00043B1236C13F0100F0BD00120002384F8C2
:103EC0003C3010BDFCF708FF0023636484F83C30ED
:103ED000EFE7236C23F4885323F0020343F002033B
:103EE00023642046FFF746FF00206064236C23F024
:103EF000030343F001032364E0E70120704700005F
:103F000010B582B013460022019290F83C20012A9D
:103F100000F094800446012280F83C2002689068FA
:103F200010F0010F13D1906840F001009060464AF4
:103F30001068464AA2FB0020800C00EB4000019074
:103F400002E001980138019001980028F9D1226817
:103F5000906810F4807F03D0906820F480709060A7
:103F60002268906810F0010F5DD0206C20F4E060B2
:103F700020F0010040F480702064526812F4806FD9
:103F800005D0226C22F4405242F480522264226C0A
:103F900012F4805F34D0626C22F006026264002268
:103FA00084F83C20A26B2A48D063A26B2948106495
:103FB000A26B2948D06422686FF02200106020684C
:103FC000426842F0806242602068826842F48072F7
:103FD000826020680A4600F14C01A06B00F0B2FB41
:103FE0001E4B5B6813F01F0F0DD123689A6812F007
:103FF000405F25D19A6842F080429A6000201BE021
:1040000000226264CBE72368154A934201D0002066
:1040100012E09A6812F0405F14D19A6842F0804230
:104020009A60002008E0236C43F010032364636C63
:1040300043F001036364002002B010BD0220FBE7DF
:104040000020F9E70020F7E77000002083DE1B4323
:1040500089400008674000087340000800230140C1
:1040600000200140704708B5806BFFF7FBFF08BDDB
:10407000704708B5806B40230364436C43F004032E
:104080004364FFF7F5FF08BD08B50346806B026C7B
:1040900012F0500F25D1036C43F4007303640368DE
:1040A0009A6812F0405F19D1027EBAB9DA6A12F446
:1040B000700F03D09A6812F4806F0FD15A6822F003
:1040C00020025A60036C23F480730364036C13F4BE
:1040D000805F03D1036C43F001030364FCF774FEBB
:1040E00008BD026C12F0100F04D1826BD26C18461E
:1040F0009047F5E7FFF7BCFFF2E7000030B482B06D
:104100000022019290F83C20012A00F0B68003467C
:10411000012280F83C200A68092A40D90468E06836
:1041200092B202EB42021E3A4FF0070C0CFA02F276
:1041300020EA0202E2601C68E0680A8802EB4202A0
:104140001E3A8D6805FA02F20243E2604A68062AC6
:104150003CD81C68606B02EB8202053A4FF01F0CE2
:104160000CFA02F220EA020262631C68606B4A6881
:1041700002EB8202053AB1F800C00CFA02F20243E7
:10418000626318683E4A904250D018683C4A904298
:1041900055D0002083F83C0002B030BC7047046862
:1041A000206992B202EB42024FF0070C0CFA02F2C5
:1041B00020EA020222611C6820690A8802EB42029E
:1041C0008D6805FA02F202432261BFE70C2A16D875
:1041D0001D68286B02EB8202233A1F2404FA02F2C4
:1041E00020EA02022A631D68286B4A6802EB8202F9
:1041F000233A0C8804FA02F202432A63C1E71D68DD
:10420000E86A02EB8202413A1F2404FA02F220EA31
:104210000202EA621D68E86A4A6802EB8202413AD9
:104220000C8804FA02F20243EA62AAE70A68122A38
:10423000ABD11448426842F480024260A5E70A68A4
:10424000103A012AA5D80F48426842F400024260A1
:104250000A68102A9DD10C4A12680C49A1FB02126F
:10426000920C02EB82025200019202E0019A013AA2
:104270000192019A002AF9D18BE702208CE700BF56
:1042800000200140002301407000002083DE1B431A
:1042900090F83C20012A00F0F28030B4034601225D
:1042A00080F83C200A68092A40F289800568E8689D
:1042B00092B202EB42021E3A072404FA02F220EA0A
:1042C0000202EA601D68E8688C680A8802EB420214
:1042D0001E3A94402043E8601868826B22F4401232
:1042E00082631C68A26B0869013842EA0052A2632B
:1042F0001C68A06B4A680D69521BD2B20332D2B25D
:1043000002EB82024FF01F0C0CFA02F220EA0202CA
:10431000A2631C68A06B4A680D69521BD2B20332BB
:10432000D2B202EB8202B1F800C00CFA02F20243F0
:10433000A2638869534A904256D01868826822F472
:1043400070228260186882688C69224382601868D3
:10435000826822F44012826018688268CC69224325
:1043600082604A7D002A4AD01868426842F480621E
:1043700042600A7D002A48D01868426842F48052A0
:1043800042604A68022A46D0032A4FD0012A58D1F7
:10439000186842696FF30B02426118684269CC6881
:1043A000224342611868384A904255D01868364A0C
:1043B00090425AD0002083F83C0030BC704705681A
:1043C000286992B202EB4202072404FA02F220EAC0
:1043D00002022A611D6828698C680A8802EB420281
:1043E00094402043286177E71868826822F470229D
:1043F00082601868826822F440128260B1E718680F
:10440000426822F480624260B3E71868426822F48E
:1044100080524260B5E7186882696FF30B028261CF
:1044200018688269CC6822438261BBE71868C26958
:104430006FF30B02C2611868C269CC682243C26183
:10444000B0E71868026A6FF30B0202621868026A2A
:10445000CC6822430262A5E70A68122AA6D10B485B
:10446000426842F480024260A0E70A68103A012ADA
:10447000A0D806494A6842F400024A609AE702203E
:10448000704700BF01000F000020014000230140E1
:10449000002807DB00F01F02400901239340024A75
:1044A00042F82030704700BF00E100E0002808DB40
:1044B0000901C9B200F1604000F5614080F80013C5
:1044C000704700F00F000901C9B2014B1954704741
:1044D00014ED00E000B500F00700C0F1070CBCF1DE
:1044E000040F28BF4FF0040C031D062B0FD9C31E69
:1044F0004FF0FF3E0EFA0CF021EA000199400EFA4F
:1045000003FE22EA0E0241EA02005DF804FB0023EA
:10451000EEE70000074AD36823F4E0631B041B0C9A
:10452000000200F4E060034343F0BF6343F4003350
:10453000D360704700ED00E010B50446054BD86825
:10454000C0F30220FFF7C6FF01462046FFF7AEFF8B
:1045500010BD00BF00ED00E008B5FFF799FF08BDF2
:1045600058B110B5044643791BB101236371002093
:1045700010BD0371FDF7B8F9F7E70120704730B4BB
:1045800005682C6824F480242C60046863608368C8
:10459000402B05D0036899600368DA6030BC70472F
:1045A00003689A600368D960F8E7000010B40368F4
:1045B000D9B210390A4AA2FB01421209094CA25C85
:1045C000C2655F2907D96FF3090304338365806DE2
:1045D0005DF8044B70476FF309038365F7E700BF8D
:1045E000ABAAAAAA84BE0008836A826992B9012B89
:1045F0000AD0022B02D00BB100207047C36A13F01F
:10460000807F28D100207047C36AB3F1C07F24D0D7
:1046100000207047B2F5005F09D0022B25D9032B8B
:1046200025D1C36A13F0807F23D100207047032B6C
:1046300003D8DFE803F01404140A00207047C36AAB
:1046400013F0807F0DD100207047C36AB3F1C07FA3
:1046500009D00020704701207047012070470120D9
:1046600070470120704701207047012070470020EB
:10467000704701207047000070B50446FFF760FBEB
:10468000002C5BD00546022384F83530002384F8E3
:1046900034302268136823F00103136023681A681A
:1046A00012F0010F0AD0FFF74BFB431B052BF5D986
:1046B00020236365032084F8350070BD1A68204903
:1046C00011406268A0680243E06802432069024327
:1046D00060690243A0690243E0690243206A024321
:1046E0000A43616A04291ED01A602668756925F09C
:1046F0000705636A1D43042B07D1A36A1D43E36AC0
:104700001BB12046FFF770FF90B975612046FFF797
:104710004DFFE26D3F2393408360002060650123DD
:1047200084F83530C9E7E16A206B01430A43DBE7CF
:1047300040236365012084F83500BEE70120BCE713
:104740003F8010F038B50446856D90F8340001289C
:104750002AD0012084F8340094F83500012804D0D0
:10476000002384F83430022038BD022084F835005C
:10477000002060652046FFF702FFE26D3F23934073
:10478000AB602268136843F016031360236C23B1F7
:104790002268136843F0080313602268136843F02B
:1047A000010313600020DFE70220DDE7F0B583B0EE
:1047B000044600230193724B1D68724BA3FB053521
:1047C000AD0A876D3E68C26D08239340334210D016
:1047D00003681A6812F0040F0BD01A6822F0040262
:1047E0001A60C26D08239340BB60436D43F0010320
:1047F0004365E26D01239340334209D02268526938
:1048000012F0800F04D0BB60636D43F00203636558
:10481000E26D04239340334209D02268126812F0FB
:10482000020F04D0BB60636D43F004036365E26D67
:1048300010239340334224D02268126812F0080FEC
:104840001FD0BB6023681A6812F4802F0DD01B683C
:1048500013F4002F04D1236C9BB12046984710E03D
:10486000A36C73B1204698470BE01A6812F4807F5E
:1048700003D11A6822F008021A60236C0BB120469B
:104880009847E26D20239340334254D02268126847
:1048900012F0100F4FD0BB6094F83530052B0ED0BE
:1048A00023681A6812F4802F33D01B6813F4002F8A
:1048B0002AD1636C002B3ED0204698473BE022680B
:1048C000136823F0160313602268536923F08003F2
:1048D0005361236CA3B12268136823F008031360AB
:1048E000E26D3F239340BB60012384F83530002301
:1048F00084F83430236D002B3FD0204698473CE0AD
:10490000A36C002BE7D1EBE7E36BA3B120469847FC
:1049100011E01A6812F4807F09D11A6822F010029F
:104920001A60012384F83530002384F83430E36BB7
:104930000BB120469847636DFBB1636D13F0010F17
:1049400017D0052384F835302268136823F001035B
:104950001360019B01330193AB4204D823681B68A9
:1049600013F0010FF5D1012384F83530002384F8CA
:104970003430E36C0BB12046984703B0F0BD00BF64
:1049800070000020B5814E1B00230F2B00F2D78052
:1049900070B582B065E085684FEA430E032404FADF
:1049A0000EF425EA0405CC6804FA0EF42C43846066
:1049B000446824EA02044A68C2F300129A4022437F
:1049C00042605CE0DC08083450F8242003F007055E
:1049D000AD004FF00F0E0EFA05FE22EA0E0E0A6928
:1049E000AA4042EA0E0240F824205CE0042200E0E3
:1049F000002202FA0EF22A430234514D45F82420D7
:104A0000504A94686FEA0C0224EA0C054E6816F4CA
:104A1000801F01D04CEA04054A4CA560E46802EA14
:104A200004054E6816F4001F01D04CEA0405454CFD
:104A3000E560646802EA04054E6816F4003F01D0A0
:104A40004CEA04053F4C6560246822404D6815F42B
:104A5000803F01D04CEA04023A4C226001330F2B14
:104A60006BD801229A400C6804EA020C32EA040472
:104A7000F4D14C6804F00304013C012C8BD94A6842
:104A800002F00302032A09D0C4685D000322AA4091
:104A900024EA02048A68AA402243C2604A6802F0FB
:104AA0000302022A8ED004684FEA430E032202FA60
:104AB0000EF224EA02044A6802F0030202FA0EF23D
:104AC000224302604A6812F4403FC7D0002201929C
:104AD0001D4A546C44F480445464526C02F4804285
:104AE0000192019A9C08A51C154A52F8255003F022
:104AF000030E4FEA8E0E0F2202FA0EF225EA02058D
:104B0000124A90423FF474AF02F5806290420ED098
:104B100002F5806290420CD002F5806290420AD089
:104B200002F5806290423FF461AF072261E7012203
:104B30005FE702225DE703225BE702B070BD7047CA
:104B400000380140003C01400038024000000240B3
:104B50000369194201D001207047002070470AB153
:104B600081617047090481617047436901EA03026A
:104B700021EA030141EA02418161704708B5054B12
:104B80005B69034200D108BD024B5861FDF7D6FFB7
:104B9000F9E700BF003C0140002800F0CC8070B570
:104BA000044690F83D30002B77D0242384F83D3024
:104BB0002268136823F0010313602268136843F42A
:104BC000004313602268136823F40043136001F06C
:104BD00025FA62685A4B9A4264D85A4B98428CBF65
:104BE00000230123002B40F0A8805749A1FB00318E
:104BF0008B0C25686A6822F03F0242EA91426A60A3
:104C000021680A6A22F03F0266684D4DAE424FD8D5
:104C1000013313430B622168CA6922F44F4222F028
:104C2000FF026568464B9D424CD8431E6D00B3FBA6
:104C3000F5F3013340F6FC70034278D0C3F30B0365
:104C40001A43CA6121680B6823F0C003E269206A35
:104C5000024313430B6021688B6823F4034323F062
:104C6000FF032269E068024313438B602168CB682D
:104C700023F0FF036269A06902431343CB602268FB
:104C8000136843F00103136000202064202384F89C
:104C90003D30206384F83E0070BD80F83C30FDF765
:104CA000C5FC82E7294B98428CBF0023012399E77A
:104CB0004FF4967505FB03F3254DA5FB03539B09A4
:104CC0000133A6E7A668BEB9431E05EB450CB3FB4E
:104CD000FCF30133C3F30B03B3FA83F35B0943BB68
:104CE000C6B9431E05EB4505B3FBF5F30133C3F32A
:104CF0000B0343F40043A3E7431E05EB850C0CEBC9
:104D00008C0CB3FBFCF30133C3F30B03B3FA83F353
:104D10005B09E4E7431E05EB850505EB8505B3FB61
:104D2000F5F30133C3F30B0343F4404388E7042353
:104D300086E7012384E7012070470120ACE700BF2C
:104D4000A08601007F841E0083DE1B43FF083D0018
:104D5000D34D621000B583B0002200920D4B596C08
:104D600041F480415964596C01F4804100910099EB
:104D70000192196C41F0805119641B6C03F080534F
:104D80000193019B0F216FF00100FFF7D5FB03B0EA
:104D90005DF804FB003802402DE9F04383B0D0F801
:104DA000008001EBC10300EB83039A6A5B6A9A42BD
:104DB00054D807460C469B1A01EBC10200EB820255
:104DC000D2699A4200D31A4602F103094FEA9909BF
:104DD00015E006F103094FEA9909BB7904EBC40514
:104DE00007EB8505296A0093B3B2E2B2404602F0B0
:104DF0009AFA2B6A33442B62AB6A3344AB6208EBFA
:104E0000441303F510639B699BB24B4512D304EB2B
:104E1000C40307EB83039A6A5B6A9A420AD24BB1D6
:104E20009B1A04EBC40207EB8202D6699E42D0D3E0
:104E30001E46CEE704EBC40307EB83077A6ABB6A1E
:104E40009A420FD804F00F040122A240D8F8343857
:104E500023EA0203C8F83438002000E0012003B040
:104E6000BDE8F0830020FAE730B583B000287AD09F
:104E70000446056890F89534C3B1032384F895344B
:104E8000B5F1A04F17D0206801F0FEFF237C8DF80C
:104E90000030231D0ECB206801F035FF70B10223D6
:104EA00084F895340125284603B030BD80F8943449
:104EB00004F084FDE1E70023A371E4E7002120680A
:104EC00002F047FC0246B8B903462079984218D947
:104ED00003EBC30104EB8101012048750B75CB8501
:104EE00000200876C861086203EBC30104EB81016E
:104EF00048620133DBB2E8E7022384F895340125E8
:104F0000D1E7904217D902EBC20304EB83030021DF
:104F100083F8551283F8542283F85812C3F85C12B0
:104F2000C3F8601202EBC20304EB8303C3F86412FC
:104F30000132D2B2E5E7237C8DF80030231D0ECB81
:104F4000206801F0F7FF054620B1022384F895346C
:104F50000125A8E700236374012384F895342068B1
:104F600002F0B6FB9FE701259DE7036890F89424C3
:104F7000012A1AD010B50446012280F89424DA6878
:104F800012F0400F02D0427B012A09D0206801F0C4
:104F900075FF206802F08EFB002084F8940410BD99
:104FA0009A6B42F480329A63F0E702207047000067
:104FB00070B504460D460068066C00EB411303F51E
:104FC00030639A68A179012911D038498E4256D0B0
:104FD0003DB905EBC50304EB8303D3F86432002B22
:104FE0005ED0E9B2204604F035FD002070BD12F01D
:104FF000080F09D02E498E42F7D912F4004FF4D091
:105000004FF400429A60F0E712F0200F02D0202205
:105010009A60EAE712F0280FE7D125498E4206D9B7
:1050200012F4004F03D04FF400429A60DDE705EB25
:10503000C50204EB8202D2F874121B69C3F3120397
:10504000CB1AC2F868327DB905EBC50204EB8202C7
:10505000D2F864226AB105EBC50204EB8202D2F8F1
:1050600060121944C2F86012E9B2204604F0F2FC62
:10507000BBE704F29C42012102F0AAFBF4E712F420
:10508000004F03D04FF400429A60AEE712F0200FB9
:1050900001D020229A60E9B2204604F0DBFCA4E7AC
:1050A00004F29C42002102F093FB9AE70A31544F2C
:1050B0000A30544F38B5044603681D6C03EB4113A6
:1050C000D3F8081B0E4A954207D903F5306311F453
:1050D000004F02D04FF400429A60204604F0B2FC28
:1050E000074B9D4202D9A379012B01D0002038BD86
:1050F00004F29C420121206802F06AFBF6E700BF3F
:105100000A30544F90F89434012B0CD010B504465B
:10511000012380F894344174006802F0BBFA002047
:1051200084F8940410BD0220704738B505468C46BB
:1051300011F0800F2BD101F00F0E0EEBCE04A40066
:1051400004F514740444211D0EEBCE0E00EB8E0EFC
:1051500000208EF855020CF00F0C81F800C0C2F34D
:105160000A028A600B714A780AB1A1F81AC0022BB0
:105170001CD095F89434012B1BD0012385F894346E
:10518000286801F0B4FF002085F8940438BD01F0D0
:105190000F0000EBC001890010312944043100EBFD
:1051A000C00005EB800001244475D4E700234B7157
:1051B000DFE70220EAE710B504460A4611F0800F47
:1051C00020D101F00F0000EBC0039B0003F5147326
:1051D0002344191D00EBC00004EB8000002380F87D
:1051E000553202F00F020A7094F89434012B18D053
:1051F000012384F89434206801F0C6FF002084F86D
:10520000940410BD01F00F0000EBC0039B001033AD
:105210002344191D00EBC00004EB800001234375FB
:10522000DFE70220EDE710B5144601F00F0C0CEBA0
:10523000CC01890001F51471014404310CEBCC0E52
:1052400000EB8E0ECEF86022CEF864320023CEF84A
:1052500068328EF855328EF854C28279012A04D011
:10526000006802F077F8002010BDCEF87042F7E732
:1052700001F00F0101EBC10100EB8100D0F86802E1
:10528000704710B5144601F00F0C0CEBCC018900EF
:105290001031014404310CEBCC0E00EB8E0ECEF835
:1052A0002020CEF824300023CEF8283001238EF8B9
:1052B00015308EF814C082799A4204D0006802F04A
:1052C00049F8002010BDCEF83040F7E738B501F0BE
:1052D0000F050279AA4238D304460B4611F0800F1D
:1052E0001FD101EBC101890001F5147101440431A2
:1052F00003EBC30300EB8303002283F85522012351
:105300008B700D7094F89434012B20D0012384F815
:105310009434206802F063F985B1002084F8940485
:1053200038BD05EBC501890010310144043105EB9E
:10533000C50300EB830301225A75E0E704F29C42A7
:10534000A179206802F044FAE7E70120E8E70220AB
:10535000E6E701F00F0302799A4230D310B5044614
:1053600011F0800F1ED103EBC301890001F5147108
:105370000144043103EBC30200EB8202002082F8F7
:10538000550200228A700B7094F89434012B18D0C7
:10539000012384F89434206802F04EF9002084F848
:1053A000940410BD03EBC3018900103101440431A2
:1053B00003EBC30200EB820201205075E1E70120FC
:1053C00070470220EDE708B511F0800F0CD101F015
:1053D0000F0101EBC101890001F514710144043191
:1053E000006801F041FF08BD01F00F0101EBC101B0
:1053F0008900103101440431F2E72DE9F04F83B008
:1054000004460568284602F0A0F910B103B0BDE8D3
:10541000F08F0646206802F069F90028F6D005F5FD
:105420000067BB68C3F30D23C4F8D434206802F0CE
:105430005DF910F0020F04D02268536903F00203F3
:105440005361206802F052F910F0100F15D0226855
:10545000936923F010039361D5F8208008F00F09B9
:1054600008F4F013B3F5802F4CD0B3F5402F6FD074
:105470002268936943F010039361206802F036F9C3
:1054800010F4002F76D1206802F030F910F4802F4C
:1054900040F0E080206802F029F90028C0F2618124
:1054A000206802F023F910F4006F09D0BB6813F0F4
:1054B000010F40F06E812268536903F40063536169
:1054C000206802F013F910F4805F40F066812068D4
:1054D00002F00CF910F4005F40F0B381206802F094
:1054E00005F910F0080F40F0C481206802F0FEF8C2
:1054F00010F0800F00F0D781AB6923F08003AB611F
:105500000126C0E147F6F07318EA030FB0D04FEA66
:10551000181A4FEAC903019309EBC90B04EB8B0B73
:10552000C8F30A12DBF86012284602F035F8DBF8FF
:105530006032CAF30A0A5344CBF86032DBF86832AF
:10554000019A4A4404EB82025344C2F868328FE75E
:10555000082204F29C41284602F01EF809EBC90318
:1055600004EB8303D3F86822C8F30A184244C3F853
:1055700068227DE7206802F0BDF88046B14635E03C
:1055800005EB49130122C3F8082B49462046FFF7D3
:105590000FFD3CE005EB49130822C3F8082B4946F0
:1055A0002046FFF787FD35E009EBC90304EB8303D1
:1055B00093F85732012B41D005EB49130222C3F86F
:1055C000082B1AF0200F04D005EB49132022C3F852
:1055D000082B1AF4005F05D005EB49134FF4005275
:1055E000C3F8082B09F101094FEA5808B8F1000F78
:1055F0003FF449AF18F0010FF4D05FFA89FB594628
:10560000206802F087F8824610F0010FB8D11AF036
:10561000080FBFD11AF0100F04D005EB4913102268
:10562000C3F8082B1AF0020FCBD06B6913F0800F70
:10563000BAD07B6843F480637B60B5E709EBC903AC
:1056400004EB8303002283F857225946204604F0D6
:105650004FFAB1E7206802F055F88046B14625E0E0
:105660005946204604F002FA1AF0080F04D005EB60
:1056700049130822C3F808291AF0100F04D005EBCB
:1056800049131022C3F808291AF0400F04D005EB83
:1056900049134022C3F808291AF0020F40D11AF02A
:1056A000800F59D109F101094FEA5808B8F1000FEC
:1056B0003FF4F0AE18F0010FF4D05FFA89FB5946C1
:1056C000206802F030F8824610F0010FCCD009F0CB
:1056D0000F02012101FA02F27B6B23EA02037B63D2
:1056E00005EB4913C3F80819A3798B42B8D109EB2C
:1056F000C90304EB83031A6AD9690A441A62B9F12F
:10570000000FADD109EBC90304EB83035B6A002BE7
:10571000A6D104F29C420121206802F059F89FE7CB
:105720004946284601F0B6FB09EBC90304EB8303A5
:10573000DB7D012B05D005EB49130222C3F80829B4
:10574000ADE709EBC90304EB83030022DA75594680
:10575000204604F0D3F9EEE749462046FFF71CFB4C
:10576000A0E77B6823F001037B6094F8CC34012B25
:1057700008D0204604F0B6F92268536903F00043CC
:1057800053618DE6002184F8CC14204600F03FF9E7
:10579000F2E7204604F08EF98DE67B6823F00103E2
:1057A0007B601021206801F075FB1AE005EB4613C1
:1057B0004FF67F31C3F80819D3F8002922F40012FC
:1057C000C3F80029C3F8081BD3F8002B22F40012F9
:1057D000C3F8002BD3F8002B42F00062C3F8002B73
:1057E00001362379B342E1D8FB6943F00113FB6131
:1057F000E37BDBB1D7F8843043F00B03C7F8843088
:105800007B6C43F00B037B64D5F8003823F4FE6314
:10581000C5F8003804F29C42A179206801F0D8FF55
:105820002268536903F48053536150E67B6943F463
:10583000005343F02B037B613B6943F00B033B6157
:10584000E2E7206801F0B6FF206801F03FFCE0715C
:10585000266800F0DDFB0146E279304601F09CFA53
:10586000204604F014F92268536903F4005353618D
:1058700034E6204604F005F92268536903F0080372
:10588000536132E601362379B3420CD906EBC603E5
:1058900004EB830393F85732012BF3D1F1B2204686
:1058A000FFF791FDEEE7206801F020FF10F4801F64
:1058B00025D1206801F01AFF10F4001F59D00123F0
:1058C00026E001362379B3421BD905EB4613D3F802
:1058D000002906EBC60304EB83031B7E012BF0D1EA
:1058E000002AEEDA06EBC60304EB83030122DA7525
:1058F00066F07F01C9B22046FFF765FDE1E70126AA
:10590000E0E72268536903F480135361D1E7013360
:1059100022799A4228D905EB4312D2F8001B03EBF7
:10592000C30204EB820292F85822012AEFD1002927
:10593000EDDA01F48031D4F8D42402F0010291426E
:10594000E5D103EBC30204EB8202012182F8571276
:10595000AA6942F08002AA616A6912F0800FD6D16A
:105960007B6843F400737B602268536903F400137F
:105970005361206801F0BAFE10F0804F10D120680A
:1059800001F0B4FE10F0040F3FF440AD23685D68F1
:1059900015F0040F0DD1226853682B43536035E591
:1059A000204604F0B1F82268536903F08043536144
:1059B000E5E7204604F0AEF8EDE710B40468606A4D
:1059C00031B940EA0240A06200205DF8044B704704
:1059D0008C46A36A00EB1340002308E003F140016A
:1059E00004EB8101496800EB11400133DBB20CF19B
:1059F000FF318B42F2D340EA02400CF13F0104EB4D
:105A000081046060E0E703685962002070477047D6
:105A1000002800F0E08170B582B00446036813F0FE
:105A2000010F3BD09F4B9B6803F00C03042B2CD041
:105A30009C4B9B6803F00C03082B21D06368B3F5E3
:105A4000803F4FD0B3F5A02F52D0964B1A6822F466
:105A500080321A601A6822F480221A606368002B70
:105A600050D0FEF76DF905468E4B1B6813F4003FCE
:105A700014D1FEF765F9401B6428F5D90320B1E184
:105A8000884B5B6813F4800FD8D0864B1B6813F4E7
:105A9000003F03D06368002B00F09F81236813F060
:105AA000020F54D07F4B9B6813F00C0F3ED07D4B00
:105AB0009B6803F00C03082B33D0E368002B68D0FD
:105AC000794B01221A60FEF73BF90546754B1B68BE
:105AD00013F0020F54D1FEF733F9401B0228F5D919
