:020000040800F2
:1000000000000120D5920008055900080759000892
:10001000095900080B5900080D590008000000009C
:100020000000000000000000000000001123000894
:100030000F59000800000000B1230008C90D000896
:1000400025930008259300082593000825930008B0
:1000500025930008259300082593000825930008A0
:100060002593000825930008259300082593000890
:100070002593000825930008259300082593000880
:100080002593000825930008259300080000000030
:1000900000000000000000000000000011590008EE
:1000A00025930008259300081D5900082593000892
:1000B000355900082593000825930008259300086A
:1000C0002593000825930008259300082593000830
:1000D00025930008259300082593000800000000E0
:1000E00025930008259300082593000800000000D0
:1000F0000000000000000000000000002593000840
:1001000000000000259300082593000825930008AF
:1001100000000000000000000000000000000000DF
:1001200049590008259300082593000825930008E5
:1001300025930008000000000000000000000000FF
:1001400000000000000000000000000059590008F5
:10015000259300082593000825930008259300089F
:10016000259300082593000800000000000000000F
:10017000000000000000000000000000000000007F
:1001800000000000259300080000000000000000AF
:0401900025930008AB
:1001A000034613F8012B002AFBD1181A01387047B7
:1001B00001F0FF01102A2BDB10F0070F08D010F818
:1001C000013B013A8B422DD010F0070F42B3F6D11C
:1001D000F0B441EA012141EA014122F007047FF035
:1001E00000070023F0E80256083C85EA010586EA8C
:1001F000010685FA47F5A3FA87F586FA47F6A5FAC8
:1002000087F68EB9EED1F0BC01F0FF0102F00702D3
:1002100032B110F8013B013A83EA010313B1F8D17E
:100220000020704701387047002D06BF354603385F
:10023000073815F0010F07D1013015F4807F02BF98
:10024000013015F4C03F0130F0BC0138704700BFE9
:1002500081F0004102E000BF83F0004330B54FEA77
:1002600041044FEA430594EA050F08BF90EA020FE4
:100270001FBF54EA000C55EA020C7FEA645C7FEA77
:10028000655C00F0E2804FEA5454D4EB5555B8BF9A
:100290006D420CDD2C4480EA020281EA030382EA0B
:1002A000000083EA010180EA020281EA0303362D9D
:1002B00088BF30BD11F0004F4FEA01314FF4801C70
:1002C0004CEA113102D0404261EB410113F0004F82
:1002D0004FEA03334CEA133302D0524263EB430339
:1002E00094EA050F00F0A780A4F10104D5F1200ED7
:1002F0000DDB02FA0EFC22FA05F2801841F1000132
:1003000003FA0EF2801843FA05F359410EE0A5F105
:1003100020050EF1200E012A03FA0EFC28BF4CF036
:10032000020C43FA05F3C01851EBE37101F00045EC
:1003300007D54FF0000EDCF1000C7EEB00006EEBF9
:100340000101B1F5801F1BD3B1F5001F0CD3490883
:100350005FEA30004FEA3C0C04F101044FEA4452DA
:1003600012F5800F80F09A80BCF1004F08BF5FEA61
:10037000500C50F1000041EB045141EA050130BD41
:100380005FEA4C0C404141EB0101013C28BFB1F553
:10039000801FE9D291F0000F04BF01460020B1FA9E
:1003A00081F308BF2033A3F10B03B3F120020CDA71
:1003B0000C3208DD02F1140CC2F10C0201FA0CF04F
:1003C00021FA02F10CE002F11402D8BFC2F1200CB4
:1003D00001FA02F120FA0CFCDCBF41EA0C0190406A
:1003E000E41AA2BF01EB0451294330BD6FEA0404B3
:1003F0001F3C1CDA0C340EDC04F11404C4F120029E
:1004000020FA04F001FA02F340EA030021FA04F3AF
:1004100045EA030130BDC4F10C04C4F1200220FA06
:1004200002F001FA04F340EA0300294630BD21FA44
:1004300004F0294630BD94F0000F83F4801306BF0A
:1004400081F480110134013D4EE77FEA645C18BFFE
:100450007FEA655C29D094EA050F08BF90EA020F95
:1004600005D054EA000C04BF1946104630BD91EA8D
:10047000030F1EBF0021002030BD5FEA545C05D190
:100480004000494128BF41F0004130BD14F58004CF
:100490003CBF01F5801130BD01F0004545F0FE4143
:1004A00041F470014FF0000030BD7FEA645C1ABF78
:1004B000194610467FEA655C1CBF0B46024650EAAF
:1004C000013406BF52EA033591EA030F41F40021DB
:1004D00030BD00BF90F0000F04BF0021704730B561
:1004E0004FF4806404F132044FF000054FF0000136
:1004F00050E700BF90F0000F04BF0021704730B5F7
:100500004FF4806404F1320410F0004548BF4042CB
:100510004FF000013EE700BF42004FEAE2014FEA20
:1005200031014FEA02701FBF12F07F4393F07F4FFB
:1005300081F06051704732F07F4208BF704793F0FE
:100540007F4F04BF41F40021704730B54FF4607411
:1005500001F0004521F000411CE700BF50EA010214
:1005600008BF704730B54FF000050AE050EA0102BD
:1005700008BF704730B511F0004502D5404261EB2D
:1005800041014FF4806404F132045FEA915C3FF46E
:10059000D8AE4FF003025FEADC0C18BF03325FEA0B
:1005A000DC0C18BF033202EBDC02C2F1200300FABC
:1005B00003FC20FA02F001FA03FE40EA0E0021FAE1
:1005C00002F11444BDE600BF70B54FF0FF0C4CF4CF
:1005D000E06C1CEA11541DBF1CEA135594EA0C0F81
:1005E00095EA0C0F00F0DEF82C4481EA030621EABC
:1005F0004C5123EA4C5350EA013518BF52EA0335F7
:1006000041F4801143F4801338D0A0FB02CE4FF0A8
:100610000005E1FB02E506F00042E0FB03E54FF0D8
:100620000006E1FB03569CF0000F18BF4EF0010ED0
:10063000A4F1FF04B6F5007F64F5407404D25FEACC
:100640004E0E6D4146EB060642EAC62141EA55517F
:100650004FEAC52040EA5E504FEACE2EB4F1FD0CC1
:1006600088BFBCF5E06F1ED8BEF1004F08BF5FEA3F
:10067000500E50F1000041EB045170BD06F00046F1
:1006800046EA010140EA020081EA0301B4EB5C049E
:10069000C2BFD4EB0C0541EA045170BD41F4801196
:1006A0004FF0000E013C00F3AB8014F1360FDEBFBB
:1006B000002001F0004170BDC4F10004203C35DA97
:1006C0000C341BDC04F11404C4F1200500FA05F31A
:1006D00020FA04F001FA05F240EA020001F00042BB
:1006E00021F0004110EBD37021FA04F642EB060131
:1006F0005EEA430E08BF20EAD37070BDC4F10C045B
:10070000C4F1200500FA04F320FA05F001FA04F21E
:1007100040EA020001F0004110EBD37041F100010A
:100720005EEA430E08BF20EAD37070BDC4F1200515
:1007300000FA05F24EEA020E20FA04F301FA05F27D
:1007400043EA020321FA04F001F0004121FA04F225
:1007500020EA020000EBD3705EEA430E08BF20EAF5
:10076000D37070BD94F0000F0FD101F0004640002F
:1007700041EB010111F4801F08BF013CF7D041EAB1
:10078000060195F0000F18BF704703F000465200B5
:1007900043EB030313F4801F08BF013DF7D043EA86
:1007A0000603704794EA0C0F0CEA135518BF95EA3C
:1007B0000C0F0CD050EA410618BF52EA4306D1D1C3
:1007C00081EA030101F000414FF0000070BD50EAE2
:1007D000410606BF1046194652EA430619D094EA6C
:1007E0000C0F02D150EA013613D195EA0C0F05D156
:1007F00052EA03361CBF104619460AD181EA0301AA
:1008000001F0004141F0FE4141F470014FF0000061
:1008100070BD41F0FE4141F4780170BD70B54FF0FC
:10082000FF0C4CF4E06C1CEA11541DBF1CEA13557C
:1008300094EA0C0F95EA0C0F00F0A7F8A4EB05045E
:1008400081EA030E52EA03354FEA013100F0888055
:100850004FEA03334FF0805545EA131343EA12631E
:100860004FEA022245EA111545EA10654FEA0026D3
:100870000EF000419D4208BF964244F1FD0404F58C
:10088000407402D25B084FEA3202B61A65EB0305E8
:100890005B084FEA32024FF480104FF4002CB6EBA5
:1008A000020E75EB030E22BFB61A754640EA0C0025
:1008B0005B084FEA3202B6EB020E75EB030E22BF65
:1008C000B61A754640EA5C005B084FEA3202B6EBA6
:1008D000020E75EB030E22BFB61A754640EA9C0065
:1008E0005B084FEA3202B6EB020E75EB030E22BF35
:1008F000B61A754640EADC0055EA060E18D04FEAF3
:10090000051545EA16754FEA06164FEAC30343EA92
:1009100052734FEAC2025FEA1C1CC0D111F4801F5F
:100920000BD141EA00014FF000004FF0004CB6E758
:1009300011F4801F04BF01430020B4F1FD0C88BFF7
:10094000BCF5E06F3FF6AFAEB5EB030C04BFB6EB02
:10095000020C5FEA500C50F1000041EB045170BDF5
:100960000EF0004E4EEA113114EB5C04C2BFD4EB22
:100970000C0541EA045170BD41F480114FF0000EA6
:10098000013C90E645EA060E8DE60CEA135594EA22
:100990000C0F08BF95EA0C0F3FF43BAF94EA0C0F25
:1009A0000AD150EA01347FF434AF95EA0C0F7FF49A
:1009B00025AF104619462CE795EA0C0F06D152EAEE
:1009C00003353FF4FDAE1046194622E750EA4106D2
:1009D00018BF52EA43067FF4C5AE50EA41047FF4E3
:1009E0000DAF52EA43057FF4EBAE12E74A0011D295
:1009F00012F5001211D20DD56FF47873B3EB625279
:100A00000ED44FEAC12343F0004343EA505323FA84
:100A100002F070474FF00000704750EA013002D1F9
:100A20004FF0FF3070474FF00000704753B94AB99C
:100A3000002908BF00281CBF4FF0FF314FF0FF30E6
:100A400000F00CB8ADF1080C6DE904CE09F026F900
:100A5000DDF804E0DDE9022304B07047704700BF11
:100A600010B5054C237833B9044B13B10448AFF3E8
:100A700000800123237010BD9401002000000000BD
:100A8000949F000808B5034B1BB103490348AFF31B
:100A9000008008BD0000000098010020949F00081D
:100AA00000B585B00023009301930293039361483E
:100AB000614A02604FF48032426083600122026129
:100AC000037680F82030C3625C498162C3600D21E7
:100AD000C16180F83030426102F02AFA00287ED1EC
:100AE000002300930122019202936946514802F0CB
:100AF00049FB002876D10123009302230193694624
:100B00004C4802F03FFB00286FD1022300930323DF
:100B100001936946474802F035FB002868D103235A
:100B20000093042301936946424802F02BFB0028FE
:100B300061D1042300930523019369463D4802F0E7
:100B400021FB00285AD1052300930623019369460F
:100B5000384802F017FB002853D1062300930723DF
:100B600001936946334802F00DFB00284CD107235E
:100B700000930823019369462E4802F003FB0028E6
:100B800045D10E230093092301936946294802F0B9
:100B9000F9FA00283ED10A230093019369462548BB
:100BA00002F0F0FA002838D10B2300930193694634
:100BB000204802F0E7FA98BB0C23009301936946A2
:100BC0001C4802F0DFFA70BB0D23009301936946C5
:100BD000184802F0D7FA48BB05B05DF804FB01F0F5
:100BE00037FA7DE701F034FA85E701F031FA8CE756
:100BF00001F02EFA93E701F02BFA9AE701F028FAB8
:100C0000A1E701F025FAA8E701F022FAAFE701F029
:100C10001FFAB6E701F01CFABDE701F019FAC3E7C5
:100C200001F016FAC8E701F013FACDE701F010FA67
:100C3000D2E700BF10020020002001400100000F99
:100C4000F0B589B0002303930493059306930793AB
:100C5000026803F1804303F590339A4201D009B052
:100C6000F0BD04460025009503F58C335A6C42F420
:100C700080725A645A6C02F480720092009A019554
:100C80001A6B42F004021A631A6B02F0040201921A
:100C9000019A02951A6B42F001021A631B6B03F072
:100CA00001030293029B1F2303930327049703AEC0
:100CB0003146144802F0ACFDFF23039304970595D9
:100CC0003146114802F0A4FD1048114B0360456005
:100CD0008560C5604FF4806303614FF40063436136
:100CE0004FF400538361C5614FF480330362456262
:100CF00002F006FC18B9054BA3639C63AFE701F053
:100D0000A7F9F8E70008024000000240B001002007
:100D10001064024008B5074B186810B1064B1B78E9
:100D200003B108BD044B01221A700D22034902F0E1
:100D30002BF9F6E778020020580200205C02002020
:100D4000014B00221A7070475802002010B590B174
:100D50000B4A106001240B4A14700D220A4902F05C
:100D600013F900231A462146084800F0CFF821461F
:100D700000F020F910BD064800F006FDFAE700BFBC
:100D800078020020580200205C020020150D0008A7
:100D9000CC9F000808B50C2804D8054B33F8100088
:100DA00080B208BD034800F0EFFC0020F9E700BF67
:100DB0005C020020FC9F000808B506F0F2FC10B1B0
:100DC00002684068904708BD08B54FF0E0231B69F2
:100DD00006F04AF8012800D108BD01F01BFBFBE733
:100DE000EFF305832BB9064B186828B901221A6066
:100DF00070476FF0050070474FF0FF30704700BF3D
:100E000034090020EFF3058373B90A4B1B68012BEB
:100E10000DD110B50024084BDC77064B02221A6076
:100E200005F07EFD204610BD6FF0050070474FF0C5
:100E3000FF3070473409002000ED00E0F0B587B0C6
:100E400000240594EFF3058404BBF8B1002A34D0E4
:100E5000156893692BB11E46013B372B02D9002040
:100E600015E01826536813F0010F3FD1546984B17F
:100E70004FEA940C93682BB1D7685B2F02D917699E
:100E800007B184B943B14FF0FF330BB3059807B0F6
:100E9000F0BD4FF0800CEDE7D368A3B91369ABB197
:100EA0004FF0FF33F1E70293019700960B4662463D
:100EB000294605F0C7FC0590E8E7154600231826EB
:100EC0004FF0800CE1E74FF0FF33DEE70023DCE773
:100ED00005AB019300960B461FFA8CF2294605F0EC
:100EE000ECFC0128D2D000230593CFE70020CEE709
:100EF00008B5EFF3058333B908B9002008BD05F044
:100F000071FE0020FAE76FF00500F7E72DE9F043E6
:100F100083B0EFF30587002F43D106468946154677
:100F20001C4600283FD0082000F0E8FD804600283D
:100F30003BD006604560B9F1000F00D0012704B333
:100F40002068A36813B1E2682B2A10D853B14FF080
:100F5000FF33DBB10024404600F052FE204603B0D0
:100F6000BDE8F083E3687BB14FF0FF33F1E7019315
:100F70000F4B009343463A46012106F05DFA0446C2
:100F80000CE020460023E4E70023E2E7084B00934F
:100F900043463A46012106F033FA0446002CDDD1DF
:100FA000D9E70024DAE70024D8E70446D6E700BFF3
:100FB000B90D0008EFF305836BB90A4670B100B5AF
:100FC00083B00093042106F061FA012809D10020C2
:100FD00003B05DF804FB6FF0050070476FF003008D
:100FE00070476FF00200F3E770B582B0EFF305834E
:100FF000002B3AD1144600283BD000293BD06AB3DD
:1010000093684BB1D2684F2A06D9226922B101FBFD
:1010100000F56669AE421BD273B14FF0FF3363BB7C
:10102000002201F018FC054605B304B124682146EE
:10103000284601F065FE19E0E3688BB9236913B116
:101040004FF0FF33EBE763696BB14FF0FF33E6E737
:101050000025009501F0B5FB0546E5E70023DEE736
:101060004FF0FF33DBE70023D9E70025284602B025
:1010700070BD0025FAE70025F8E70025F6E710B572
:1010800082B01C46EFF30583C3B118B329B33CBB50
:101090000023019301AA01F0C6FC012823D1019885
:1010A00050B14FF0E0234FF08052C3F8042DBFF34E
:1010B0004F8FBFF36F8F002002B010BDB0B1C1B130
:1010C0000023224601F0EBFB012815D0B4B16FF0EC
:1010D0000100F1E76FF00300EEE76FF00300EBE7CC
:1010E0006FF00300E8E76FF00200E5E76FF0030040
:1010F000E2E76FF00300DFE70020DDE76FF00200BA
:10110000DAE710B582B01C46EFF30583C3B110B324
:1011100021B334BB0023019301AA01F09AFD0128F9
:1011200022D1019850B14FF0E0234FF08052C3F824
:10113000042DBFF34F8FBFF36F8F002002B010BD9F
:10114000A8B1B9B1224601F0D5FC012815D0B4B13F
:101150006FF00100F2E76FF00300EFE76FF00300BC
:10116000ECE76FF00300E9E76FF00200E6E76FF0ED
:101170000300E3E76FF00300E0E70020DEE76FF035
:101180000200DBE7034B0360034B0B60802313601B
:10119000704700BFD8080020D8060020034B03602A
:1011A000034B0B604FF48073136070477C06002084
:1011B0007C02002000B593B003E00421164807F03C
:1011C0009FF84FF0FF33002201A914480068FFF791
:1011D00098FF0028F5D14FF4005100F1804000F550
:1011E000023002F006FC9DF804308DF803309DF8C3
:1011F0000330002BE5D09DF80330512BDDD09DF856
:101200000330532BD9D09DF80330462BD9D104217C
:10121000034807F075F8D4E718A200083C0900203D
:101220001CA0000810B58AB0002244210820FFF756
:10123000DBFE0C4B186001AC24220021204608F094
:10124000A9F8094B01934FF4006306931823079301
:10125000224600210548FFF7F1FD054B18600AB052
:1012600010BD00BF3C09002020A00008B5110008F7
:10127000380900202DE9F0418AB02A4E0027376056
:1012800000237360B360F3604FF0040886F81080A9
:101290007774254B7361254D254BEB6103232B762A
:1012A000AF713C23EB7102232B72224BEB600DF1EB
:1012B000080C214C0FCCACE80F0094E80F008CE830
:1012C0000F004FF07E53EB671C4B6B611C4BEB65C3
:1012D0001C4806F079FA1C48FFF738FD06F11800A3
:1012E00006F0DEFB02A800F025FDFFF79BFF174D7F
:1012F000284600F01FFF164E4FF47A7300934346C2
:101300003A461449304600F055F9134C3346134A17
:101310002946204600F0FCF9204600F0EDFA0AB01C
:10132000BDE8F0816409002000003443A4090020D6
:10133000000040400000C843AC9F0008000020416E
:1013400000007A44C44C0020100200200800002055
:10135000400900200C4D0020500900200000002012
:1013600008B50548054B036002F03EF800B908BD1A
:1013700000F06EFEFBE700BF480A0020003002408C
:101380000268094B9A4200D0704782B00023019353
:10139000064B1A6B42F480521A631B6B03F48053A2
:1013A0000193019B02B070470030024000380240B8
:1013B000002800F09B802DE9F8430D4616460446B0
:1013C0000768002F2DD01046FFF794F848A3D3E903
:1013D0000023FFF723FA804689463F68F86AFFF743
:1013E00079F842464B46FFF7EFF8FFF7FFFA6DB189
:1013F000012D35D06368002B58D17B63A368002B87
:1014000061D123681B6800225A6308E0636853B9FE
:101410007863A3688BB923681B6800225A636673DC
:101420002573BDE8F883042B03D0082B03D0386460
:10143000EFE7B863EDE7F863EBE7042B06D0082B82
:1014400009D023681B6800221A64E8E723681B6838
:1014500000229A63E3E723681B680022DA63DEE771
:10146000636833B97B63A36883B923681B685863D7
:10147000D5E7042B04D0082B05D000233B64F2E70A
:101480000023BB63EFE70023FB63ECE7042B05D0ED
:10149000082B07D023681B681864C0E723681B6803
:1014A0009863BCE723681B68D863B8E7042B04D0B3
:1014B000082B05D000233B64A0E70023BB639DE716
:1014C0000023FB639AE7042B06D0082B09D023687E
:1014D0001B6800221A64A2E723681B6800229A6333
:1014E0009DE723681B680022DA6398E7704700BF16
:1014F0000000000000E06F40034678B102686AB166
:10150000416861B9126851639A68C2B91A68126871
:101510000021516300225A7302229A7370470429F2
:1015200005D0082907D0126800211164ECE7126881
:1015300000219163E8E712680021D163E4E7042AFF
:1015400006D0082A09D01A68126800211164E1E760
:101550001A68126800219163DCE71A68126800219A
:10156000D163D7E738B5054699B10C4642F21073FE
:10157000994200D91C4603F0ADFA002202FB044355
:10158000B0FBF3F3013BB3F5803F05D3013292B2D8
:10159000F4E7FFF7B1FF0CE0296809688A622A685E
:1015A0001268D3622A68D3606A7B297B2846FFF7DA
:1015B000FFFE38BD00284DD010B5044619B30160B8
:1015C00042608360002303738373084603F066FC64
:1015D000BDF808102046FFF7C5FF6368A3B923686C
:1015E0001B6800225A63A3680BBB23681B68002298
:1015F0005A636168206804F05FF8A168206804F00D
:101600005BF80023637310BD042B06D0082B09D0B0
:1016100023681B6800221A64E5E723681B68002220
:101620009A63E0E723681B680022DA63DBE7042B98
:1016300006D0082B09D023681B6800221A64D8E75B
:1016400023681B6800229A63D3E723681B68002283
:10165000DA63CEE77047000000B583B00022019244
:10166000094B196B41F4800119631B6B03F4800370
:101670000193019B0521382001F0A2FE382001F0E2
:10168000AFFE03B05DF804FB0038024030B52DED2D
:10169000028B83B050B3044683683BB3C06828B361
:1016A00063681BB306F068F9B0EE408A94ED040A53
:1016B000A06800F048FDA56806F0B4F80146B0EE59
:1016C000480A284600F042FDB5EEC00AF1EE10FAD5
:1016D000D4BF0121002160680FD4FCEEC07ACDEDAB
:1016E000017A9DF80420FFF763FE02E0074800F04E
:1016F0004BF803B0BDEC028B30BDB1EE400AFCEEFE
:10170000C07ACDED017A9DF80420ECE72CA000080A
:1017100010B5C0B10446B2B1ABB18160C2604360E4
:10172000002303610A4B4B6183680A4A1A61002354
:10173000024601210848FFF7E9FB0121FFF73AFCC7
:101740000123237010BD054800F01EF8FAE700BF22
:1017500000007F4300007FC38D16000850A00008E2
:10176000B5EEC00AF1EE10FA06DBDFED067AB4EE54
:10177000E70AF1EE10FA01D90023036180ED040AB3
:10178000704700BF0000C842C0B170B59AB00646AD
:1017900001AC64252A460021204607F0FBFD3346B4
:1017A000074A2946204607F0BFFD2046FEF7F8FC11
:1017B00081B2204606F0A4FD1AB070BD704700BF8C
:1017C00070A00008C0B170B59AB0064601AC64259F
:1017D0002A460021204607F0DDFD3346074A294608
:1017E000204607F0A1FD2046FEF7DAFC81B2204634
:1017F00006F086FD1AB070BD704700BF7CA00008DF
:1018000008B506F097FAFFF735FD6420FFF770FB87
:101810000120FFF76DFBFBE708B5074A02213C20DA
:1018200006F02AFA054B93ED000A06F033FA012080
:10183000FFF75EFBF6E700BFF57A000844000020E2
:1018400008B5074A00210748FFF7F8FA064B186069
:10185000064A00210648FFF7F1FA064B186008BD5A
:1018600040A2000801180008540A00201CA2000829
:1018700019180008500A002010B52DED028B194BE5
:10188000186878B1184B5B7C032B0FD0164B0022E5
:1018900083F83C20154B93ED050AFFF761FFBDEC83
:1018A000028B10BD1248FFF76FFFF8E70E4B0222C4
:1018B00083F83C200F4C0D4B93ED170A204600F0A7
:1018C00042FC06F00BF9B0EE408A05F0ABFF014692
:1018D000B0EE480A204600F039FC024B1868FFF7CA
:1018E0003FFFDCE7940A002064090020A4090020DF
:1018F000A4A00008580A002010B5B8B10D4A106025
:101900000D4C204600F016FC0C4B63610023236154
:101910000B49204600F096FC00231A460121094895
:10192000FFF7F4FA0121FFF745FB10BD0648FFF76A
:101930002BFFFAE7940A0020580A00200000C84252
:10194000200A002079180008B8A000082DE9F0410D
:101950008AB005AD00240594069407940894099470
:101960000194314B1A6B42F004021A631A6B02F0B5
:1019700004020192019A02941A6B42F080021A63E7
:101980001A6B02F080020292029A03941A6B42F0E0
:1019900001021A631A6B02F001020392039A049483
:1019A0001A6B42F002021A631B6B03F002030493EA
:1019B000049BDFF87C8022464FF40051404602F041
:1019C00012F81A4E22464FF47041304602F00BF8DE
:1019D0004FF400530593012706970794089429466E
:1019E000404601F015FF4FF47043059306970794A6
:1019F00008942946304601F00BFF4FF4007305931D
:101A00004FF48813069307942946304601F000FFEF
:101A100022460521172001F0D3FC172001F0E0FC3D
:101A20000AB0BDE8F08100BF003802400004024067
:101A300000080240124A12F0070F1ED0D11D21F0FB
:101A40000701C1F5705313440A460E480260002195
:101A500041601344083B23F007030B4803605960BF
:101A60001960991A51601360084B1960084B19608E
:101A7000084B4FF000421A6070474FF47053E4E790
:101A8000B80A0020B00A0020AC0A0020A40A0020F6
:101A9000A80A0020980A0020164B1A461B688342A9
:101AA000FBD3516802EB010C844509D0416800EB7F
:101AB000010C634509D00360904219D01060704753
:101AC0004068014451601046F0E710B40A4C2468A5
:101AD000A3420BD05B681944416013681B68036024
:101AE000904200D010605DF8044B70470460F7E747
:101AF000704700BFB00A0020AC0A002038B5044689
:101B000004F05AFF384B1B68B3B1384B1B681C42BA
:101B100050D1002C50D004F1080214F0070F02D06D
:101B200022F007020832002A55D0314B1B6893423D
:101B300053D330490C6804E0FFF77CFFE5E721460A
:101B40001C466368934202D22368002BF7D1264BD0
:101B50001B68A34243D00D68083523680B60636897
:101B60009B1A102B10D9A01810F0070F08D04FF0B7
:101B7000500383F31188BFF36F8FBFF34F8FFEE7DE
:101B800043606260FFF788FF626819490B689B1A1F
:101B90000B60194909688B4201D217490B60134B3E
:101BA0001B681343636000232360144A13680133E6
:101BB000136002E0002500E0002504F097FF15F017
:101BC000070F0ED04FF0500383F31188BFF36F8FD0
:101BD000BFF34F8FFEE70025EFE70025EDE7002577
:101BE000EBE7284638BD00BFAC0A0020980A002069
:101BF000A80A0020B00A0020A40A0020A00A0020A1
:101C0000002834D038B50446A0F1080550F8043C4B
:101C1000174A1268134208D14FF0500383F311881A
:101C2000BFF36F8FBFF34F8FFEE750F8081C41B131
:101C30004FF0500383F31188BFF36F8FBFF34F8FC3
:101C4000FEE723EA020340F8043C04F0B5FE54F832
:101C5000041C084A13680B4413602846FFF71CFF56
:101C6000054A13680133136004F040FF38BD704724
:101C7000980A0020A80A00209C0A002010B370B522
:101C800004464378032B19D802780F4B01269E5443
:101C900042789E5403780D4D05EBC3013246898886
:101CA00055F8330001F09FFE637805EBC30132461F
:101CB000898855F8330001F096FE70BD0448FFF79F
:101CC00063FDFAE7704700BFC0460020C44600200D
:101CD000D0A0000820B370B504464378032B1BD86E
:101CE0000278104B00259D5442789D5403780E4E87
:101CF00006EBC3012A46898856F8330001F073FECB
:101D0000637806EBC3012A46898856F8330001F050
:101D10006AFE064B1D7070BD0548FFF735FDFAE7FA
:101D2000704700BFC0460020C4460020BA460020CD
:101D3000D0A0000810B590B10146274B1B7993B98C
:101D4000264A04201074264B01241C7003245C7066
:101D500098700220D870234B5361002313E022486F
:101D6000FFF712FD02E02148FFF70EFD10BD51F80C
:101D700033001F4A42F8330001EBC300406802EB16
:101D8000C30250600133032BF1D9002408E0184B43
:101D9000998853F8340001F01FFE164B1855013492
:101DA000032CF4D9002407E0114B0022998853F842
:101DB000340001F018FE0134032CF5D9064B93F8DA
:101DC0002030002BD2D0044B93F82130082BCDD9F2
:101DD0000948FFF7F7FCC9E7A409002064090020BF
:101DE000BC46002000003443E8A0000810A1000811
:101DF000C4460020C04600203CA100085A4B1B7E70
:101E0000002B00F0AF8030B585B0574BD3ED077A8B
:101E1000B6EE007AF4EEC77AF1EE10FAC0F29780CF
:101E2000B1EE007AF4EEC77AF1EE10FA00F28F808C
:101E30004E4B93ED057AC0EE076AFCEEE66ACDEDF7
:101E4000016A9DF8043006EE903AF8EEE66A66EE16
:101E5000876AB3EE0E6A76EEC66A37EE267A8DEDA5
:101E6000037A9DED037ADFED426A67EEA67AF5EE1E
:101E7000400AF1EE10FA6FD0DFED3E6A60EEA66A1E
:101E8000DFED3D5A86EEA56A67EE867A77EE677AD1
:101E9000CDED027A394CE25C013AD2B238490A708F
:101EA0004A700233E35C013B4B70304B5B7E012B8D
:101EB00050D1DDED027A77EEC07AB2EE047AF4EE1C
:101EC000C77AF1EE10FA45D52E4B1B78002B41D185
:101ED000DDED027A77EEC07AF5EEC07AF1EE10FA17
:101EE00038DD284B01221A709DED027A37EE407AD8
:101EF000F5EE400AF1EE10FA31D0DFED1E7A60EE19
:101F0000A70ADFED1D6AC6EEA07AFCEEE77AF8EECE
:101F1000677A27EE277ABCEEC77ADDED036A76EEA4
:101F2000C06A67EEA67AFCEEE77A17EE904A0444A0
:101F3000134D2A46144917EE103A0344184605F08B
:101F4000F3FC2A461149204605F0EEFC02E0104859
:101F5000FFF71AFC05B030BD9FED0E6A94E7DFED88
:101F60000E7AD4E7704700BFA4090020640900205E
:101F700000007A440000B443C0E1644CBC46002039
:101F8000B8460020BA4600207D1C0008D51C000879
:101F900070A10008000000000000000000F108032C
:101FA00043604FF0FF328260C3600361002303602F
:101FB000704700230361704743684B609A688A60EA
:101FC000516099600861036801330360704730B461
:101FD0000D68B5F1FF3F11D000F108031C465B68A6
:101FE0001A68AA42FAD963684B6099608C60616094
:101FF000086103680133036030BC70470469F2E78D
:102000000369416882688A60416851605A68824207
:1020100006D0002202611A68013A1A6018687047F7
:1020200082685A60F5E700BFB0F5007F00D07047C6
:1020300008B505F05FFD08BD08B50268034B9A427C
:1020400000D008BD00F0B4FEFBE700BF004801402F
:1020500072B6FEE710B594B008AC302200212046DD
:1020600007F098F9002303930493059306930793CD
:102070000193214A116C41F080511164126C02F0FD
:1020800080520192019A02931C4A136823F4404340
:1020900043F400431360136803F440430293029B2C
:1020A000012308934FF48033099302230E934FF4D6
:1020B00080030F93192310934FF4A87311930423F3
:1020C000129307231393204602F008FB78B90F23DD
:1020D000039302210491002305934FF4805206924A
:1020E000079303A802F04AFD18B914B010BDFFF71A
:1020F000AFFFFFF7ADFF00BF0038024000700040A7
:1021000008B500F03BFEFFF7A5FFFFF71FFCFFF748
:10211000A3FA05F055F8FEF7C3FC04F0EDFF04F058
:10212000FBFEFFF71DF9FEF75BFEFFF789FBFEF7ED
:1021300069FEFEE70023036243628362C3620022FA
:1021400002638363704780ED0D0A7047036BCB1AFF
:1021500007EE903AF8EE677A9FED397AC7EE876A14
:1021600090ED0D6A36EE406AD0ED005A65EE865A63
:1021700090ED087AD0ED017AB6EE005A67EE857AD6
:1021800067EEA67A90ED0A5A35EE065A67EE857A22
:1021900077EE277AC0ED087A90ED077AF4EEC77AE9
:1021A000F1EE10FA38DD80ED087AD0ED027A77EEA4
:1021B000A77A90ED0B7A30EE477A67EE877A90ED4A
:1021C000037A37EE077A37EE665AD0ED094A25EEE4
:1021D000245A77EE857AF1EE677A37EE267AC7EEE3
:1021E000876AC0ED096AD0ED087A77EEA57A76EEB7
:1021F000A77AC0ED0E7A90ED057AF4EEC77AF1EE8B
:1022000010FA13DD80ED0E7A80ED0A6A80ED0B0A7C
:10221000016390ED0E0A704790ED067AF4EEC77AEE
:10222000F1EE10FAC1D580ED087ABEE790ED047AA0
:10223000F4EEC77AF1EE10FAE6D580ED0E7AE3E718
:102240000024744958B10A6802604A6842608A688A
:102250008260CA6882610A69C2614A69C260704765
:1022600082B0002301930D4B1B68B3F1FF3F08D0F0
:102270004FF0500383F31188BFF36F8FBFF34F8F7D
:10228000FEE74FF0500383F31188BFF36F8FBFF366
:102290004F8F019B002BFCD002B0704748000020FC
:1022A00008480068006880F308884FF0000080F359
:1022B000148862B661B6BFF34F8FBFF36F8F00DF34
:1022C00000BF000008ED00E0DFF80C00016841F4F9
:1022D000700101607047000088ED00E04FF08073EE
:1022E00040F8043C21F0010140F8081C054B40F87F
:1022F0000C3C40F8202C6FF0020340F8243C44389A
:10230000704700BF612200080000000000000000CC
:10231000074B19680868B0E8F04F80F30988BFF3ED
:102320006F8F4FF0000080F311887047AFF300808B
:10233000784C00204FF0500383F31188BFF36F8F68
:10234000BFF34F8F0B4A136801331360012B00D08A
:1023500070474FF0E023D3F8043D13F0FF0FF7D0A0
:102360004FF0500383F31188BFF36F8FBFF34F8F8C
:10237000FEE700BF48000020094B1B6843B94FF03F
:10238000500383F31188BFF36F8FBFF34F8FFEE7C6
:10239000013B034A13600BB983F31188704700BFF8
:1023A00048000020000000000000000000000000C5
:1023B000EFF30980BFF36F8F154B1A681EF0100FF3
:1023C00008BF20ED108A20E9F04F10602DE90900C8
:1023D0004FF0500080F31188BFF34F8FBFF36F8F22
:1023E00004F026FC4FF0000080F3118809BC196846
:1023F0000868B0E8F04F1EF0100F08BFB0EC108A6C
:1024000080F30988BFF36F8F704700BFAFF3008080
:10241000784C002008B54FF0500383F31188BFF3C8
:102420006F8FBFF34F8F04F0D5FA28B14FF0E02340
:102430004FF08052C3F8042D002383F3118808BDA8
:102440004FF0E022002313619361054B1B6805499F
:10245000A1FB03139B09013B5361072313617047E1
:1024600054000020D34D62104FF0E023D3F8002D2C
:102470003D4B9A421CD04FF0E023D3F8002D3B4B4C
:102480009A421ED030B583B0394B1A78D2B201923D
:10249000FF221A701B78DBB28DF803309DF80330F1
:1024A00003F05003334A1370334B07221A601BE0CA
:1024B0004FF0500383F31188BFF36F8FBFF34F8F3B
:1024C000FEE74FF0500383F31188BFF36F8FBFF324
:1024D0004F8FFEE7284A1368013B13609DF80330D5
:1024E0005B00DBB28DF803309DF8033013F0800FF2
:1024F000F0D1214B1B68032B08D04FF0500383F31E
:102500001188BFF36F8FBFF34F8FFEE71B021A4A8C
:10251000136003F4E0631360019BDBB2144A137091
:102520004FF0E024D4F8203D43F47003C4F8203D7C
:10253000D4F8203D43F07043C4F8203DFFF780FFFE
:1025400000250E4B1D60FFF7BFFED4F8343F43F06B
:102550004043C4F8343FFFF7A3FE04F069FBFFF7E4
:102560007FFE284603B030BD71C20F4170C20F41DB
:1025700000E400E0E8460020E44600204800002097
:10258000EFF305830F2B0ED9114A9A5C114B1B7880
:102590009A4208D24FF0500383F31188BFF36F8F34
:1025A000BFF34F8FFEE74FF0E023D3F80C3D03F469
:1025B000E063094A1268934208D94FF0500383F34D
:1025C0001188BFF36F8FBFF34F8FFEE7704700BFD7
:1025D000F0E300E0E8460020E446002010B50446A1
:1025E000FFF7A8FEA26BE36B9A4204D00024FFF72A
:1025F000C3FE204610BD0124F9E710B50446FFF7DD
:1026000099FEA36B23B90124FFF7B6FE204610BD47
:102610000024F9E770B504461546866B026C5AB97A
:1026200003681BB100200136A66370BD806804F00A
:102630002BFC0023A360F6E76DB9406806F0DEFED0
:102640006368226C13446360A268934219D32368C1
:1026500063602846E7E7C06806F0D0FEE368226CB6
:1026600051429B1AE3602268934202D2A3680B4452
:10267000E360022D01D00020D5E726B1013E002005
:10268000D1E72846CFE70020CDE70346026C6AB1C8
:1026900010B50846D9681144D9609C68A14201D39D
:1026A0001968D960D96806F0A9FE10BD704738B521
:1026B0000546FFF73FFE95F8454064B201E0013C56
:1026C00064B2002C0ADD6B6A43B105F1240004F00A
:1026D0002FFB0028F3D004F0C1FBF0E7FF2385F8BF
:1026E0004530FFF749FEFFF725FE95F8444064B2F8
:1026F00001E0013C64B2002C0ADD2B6943B105F115
:10270000100004F015FB0028F3D004F0A7FBF0E75D
:10271000FF2385F84430FFF72FFE38BD38B5E0B110
:102720000D460446FFF706FE2368E26B216C01FBB1
:102730000230A0600020A0636360013A02FB013315
:10274000E360FF2384F8443084F84530FDB9236901
:1027500063B9FFF711FE012038BD4FF0500383F33A
:102760001188BFF36F8FBFF34F8FFEE704F11000A6
:1027700004F0DEFA0028ECD04FF0E0234FF0805256
:10278000C3F8042DBFF34F8FBFF36F8FE1E704F160
:102790001000FFF703FC04F12400FFF7FFFBD8E76C
:1027A00038B51D46049C0B4649B92460E063236498
:1027B00001212046FFF7B2FF84F84C5038BD22605B
:1027C000F4E740B94FF0500383F31188BFF36F8FE4
:1027D000BFF34F8FFEE710B584B01C46844653B15B
:1027E00092B189B94FF0500383F31188BFF36F8F13
:1027F000BFF34F8FFEE74FF0500383F31188BFF311
:102800006F8FBFF34F8FFEE76AB150230393039B93
:10281000502B13D04FF0500383F31188BFF36F8F09
:10282000BFF34F8FFEE70029EFD04FF0500383F343
:102830001188BFF36F8FBFF34F8FFEE7039B012318
:1028400084F8463000949DF818306046FFF7A8FFE2
:10285000204604B010BD40B94FF0500383F31188F7
:10286000BFF36F8FBFF34F8FFEE7F0B583B00D4618
:102870001446064601FB00F05030FFF73FF90746CB
:1028800050B1002380F846300090234600F15002FA
:1028900029463046FFF784FF384603B0F0BDF0B557
:1028A00085B0019288B10F461D460446B1B1022D94
:1028B00020D1E36B012B1DD04FF0500383F311881F
:1028C000BFF36F8FBFF34F8FFEE74FF0500383F3DB
:1028D0001188BFF36F8FBFF34F8FFEE7036C002BA0
:1028E000E5D04FF0500383F31188BFF36F8FBFF330
:1028F0004F8FFEE704F0B8FA064658B9019B002B4B
:1029000048D04FF0500383F31188BFF36F8FBFF3AC
:102910004F8FFEE700263DE02A4639462046FFF766
:1029200079FE636A7BB948B14FF0E0234FF08052E3
:10293000C3F8042DBFF34F8FBFF36F8FFFF71CFD5C
:10294000012005B0F0BD04F1240004F0F1F90028E5
:10295000F4D04FF0E0234FF08052C3F8042DBFF3C2
:102960004F8FBFF36F8FE9E7FFF706FD0020E8E721
:1029700002A804F023FA012619E0002384F8443069
:1029800021E0002384F8453023E02046FFF78FFE46
:1029900004F0ACF8FFF7CEFCA26BE36B9A42BBD31A
:1029A000022DB9D0019B002BDED0002EE0D0FFF726
:1029B000E3FC04F001F8FFF7BDFC94F8442052B2A8
:1029C000B2F1FF3FD9D094F8452052B2B2F1FF3FA7
:1029D000D7D0FFF7D1FC01A902A804F0FBF9D8B9C0
:1029E0002046FFF7FBFD0028CFD0019904F110002D
:1029F00004F06AF92046FFF75AFE04F077F8002841
:102A0000C8D14FF0E0234FF08052C3F8042DBFF33C
:102A10004F8FBFF36F8FBDE72046FFF748FE04F0EE
:102A200065F800208DE72DE9F84390B10F46164672
:102A30001C460546B1B1022C20D1EB6B012B1DD0F9
:102A40004FF0500383F31188BFF36F8FBFF34F8FA5
:102A5000FEE74FF0500383F31188BFF36F8FBFF38E
:102A60004F8FFEE7036C002BE5D04FF0500383F34C
:102A70001188BFF36F8FBFF34F8FFEE7FFF780FD25
:102A8000EFF311884FF0500383F31188BFF36F8F7A
:102A9000BFF34F8FAA6BEB6B9A4206D3022C04D084
:102AA000002088F31188BDE8F88395F845904FFA27
:102AB00089F9AB6B224639462846FFF7ABFDB9F1E1
:102AC000FF3F06D009F101035BB285F845300120D4
:102AD000E7E76B6A0BB90120E3E705F1240004F096
:102AE00027F918B126B101203060DAE70120D8E7D4
:102AF0000120D6E7F0B585B0019290B10F460446AB
:102B0000C1B104F0B1F9064600BB019B002B5ED0B9
:102B10004FF0500383F31188BFF36F8FBFF34F8FD4
:102B2000FEE74FF0500383F31188BFF36F8FBFF3BD
:102B30004F8FFEE7036C002BE3D04FF0500383F37D
:102B40001188BFF36F8FBFF34F8FFEE700263EE083
:102B500039462046FFF799FD013DA563236923B956
:102B6000FFF70AFC012005B0F0BD04F1100004F0ED
:102B7000DFF80028F4D04FF0E0234FF08052C3F884
:102B8000042DBFF34F8FBFF36F8FE9E7FFF7F4FB1F
:102B90000020E8E702A804F011F9012621E0002353
:102BA00084F8443029E0002384F845302BE02046A7
:102BB000FFF77DFD03F09AFF09E02046FFF777FD60
:102BC00003F094FF2046FFF718FD00283FD1FFF7E0
:102BD000B1FBA56B002DBBD1019B002BD6D0002EE5
:102BE000D8D0FFF7C9FB03F0E7FEFFF7A3FB94F88B
:102BF00044305BB2B3F1FF3FD1D094F845305BB2C3
:102C0000B3F1FF3FCFD0FFF7B7FB01A902A804F053
:102C1000E1F80028D1D12046FFF7EFFC0028C6D00C
:102C2000019904F1240004F04FF82046FFF73FFD1E
:102C300003F05CFF0028CAD14FF0E0234FF0805230
:102C4000C3F8042DBFF34F8FBFF36F8FBFE7002092
:102C500089E72DE9F843B0B10D4690460446D9B155
:102C6000FFF78EFCEFF311874FF0500383F31188C9
:102C7000BFF36F8FBFF34F8FA66BCEB9002087F3E2
:102C80001188BDE8F8834FF0500383F31188BFF338
:102C90006F8FBFF34F8FFEE7036C002BE0D04FF038
:102CA000500383F31188BFF36F8FBFF34F8FFEE79D
:102CB00094F844904FFA89F929462046FFF7E5FC3D
:102CC000731EA363B9F1FF3F06D009F101035BB2A4
:102CD00084F844300120D2E723690BB90120CEE704
:102CE00004F1100004F024F830B1B8F1000F05D061
:102CF0000120C8F80000C2E70120C0E70120BEE7BC
:102D00000023072B0CD8074A52F833200AB10133AD
:102D1000F7E7044A42F8331002EBC30250607047F1
:102D2000704700BFEC46002070B504460D461646BD
:102D3000FFF700FB94F844305BB2B3F1FF3F0DD0D6
:102D400094F845305BB2B3F1FF3F0BD0FFF714FBB3
:102D5000A36B5BB12046FFF7AAFC70BD002384F88B
:102D60004430EDE7002384F84530EFE7324629464A
:102D700004F1240003F0C0FFECE7000008B50B4BA2
:102D80001A6842F400721A601A6842F480621A608B
:102D90001A6842F480721A60032000F0FFFA0F20D4
:102DA00002F066FD00F03CFE002008BD003C024041
:102DB000034A1168034B1B780B441360704700BF34
:102DC0002C4700204C000020014B1868704700BFC2
:102DD0002C47002038B50446FFF7F6FF0546B4F14E
:102DE000FF3F02D0044B1B781C44FFF7EDFF401B54
:102DF000A042FAD338BD00BF4C0000204A4B5A68AD
:102E000022F440325A605A6841680A435A600268A4
:102E1000536823F48073536002685368016943EA7E
:102E2000012353600268536823F0407353600268C3
:102E3000536881680B4353600268936823F400630E
:102E4000936002689368C1680B439360826A374B52
:102E50009A4257D00268936823F0706393600268C7
:102E60009368816A0B4393600268936823F0405330
:102E7000936002689368C16A0B4393600268936829
:102E800023F00203936002689368017E43EA4103E2
:102E9000936090F82030002B3FD00268536843F4D1
:102EA000006353600268536823F460435360016811
:102EB0004B68426A013A43EA42334B600268D36A84
:102EC00023F47003D3620168CB6AC269013A43EA12
:102ED0000253CB620268936823F400739360026824
:102EE000936890F8301043EA412393600268936836
:102EF00023F48063936002689368416943EA812305
:102F0000936070470268936823F07063936002686F
:102F1000936823F040539360B0E70268536823F44A
:102F200000635360CAE700BF002301400100000FA7
:102F300038B310B50446036C43B1236C13F0100F83
:102F40000BD00120002384F83C3010BDFDF778FE43
:102F50000023636484F83C30EFE7236C23F4885348
:102F600023F0020343F0020323642046FFF746FFE9
:102F700000206064236C23F0030343F00103236407
:102F8000E0E701207047000010B582B01346002230
:102F9000019290F83C20012A00F09480044601221E
:102FA00080F83C200268906810F0010F13D19068FF
:102FB00040F001009060464A1068464AA2FB00209B
:102FC000800C00EB4000019002E001980138019074
:102FD00001980028F9D12268906810F4807F03D00E
:102FE000906820F4807090602268906810F0010F63
:102FF0005DD0206C20F4E06020F0010040F480708F
:103000002064526812F4806F05D0226C22F4405282
:1030100042F480522264226C12F4805F34D0626CDD
:1030200022F006026264002284F83C20A26B2A4847
:10303000D063A26B29481064A26B2948D06422682F
:103040006FF0220010602068426842F080624260A7
:103050002068826842F48072826020680A4600F12B
:103060004C01A06B00F0B2FA1E4B5B6813F01F0F0F
:103070000DD123689A6812F0405F25D19A6842F01A
:1030800080429A6000201BE000226264CBE7236844
:10309000154A934201D0002012E09A6812F0405F76
:1030A00014D19A6842F080429A60002008E0236CB4
:1030B00043F010032364636C43F001036364002056
:1030C00002B010BD0220FBE70020F9E70020F7E77F
:1030D0005400002083DE1B4311310008EF3000084C
:1030E000FB3000080023014000200140704708B574
:1030F000806BFFF7FBFF08BD704708B5806B40236E
:103100000364436C43F004034364FFF7F5FF08BD19
:1031100008B50346806B026C12F0500F25D1036C8A
:1031200043F40073036403689A6812F0405F19D196
:10313000027EBAB9DA6A12F4700F03D09A6812F4F8
:10314000806F0FD15A6822F020025A60036C23F47A
:1031500080730364036C13F4805F03D1036C43F04A
:1031600001030364FDF7ECFD08BD026C12F0100FC3
:1031700004D1826BD26C18469047F5E7FFF7BCFF8D
:10318000F2E7000030B482B00022019290F83C20B7
:10319000012A00F0B6800346012280F83C200A682C
:1031A000092A40D90468E06892B202EB42021E3A52
:1031B0004FF0070C0CFA02F220EA0202E2601C68EF
:1031C000E0680A8802EB42021E3A8D6805FA02F2B4
:1031D0000243E2604A68062A3CD81C68606B02EB36
:1031E0008202053A4FF01F0C0CFA02F220EA0202AA
:1031F00062631C68606B4A6802EB8202053AB1F8B0
:1032000000C00CFA02F20243626318683E4A904220
:1032100050D018683C4A904255D0002083F83C00BA
:1032200002B030BC70470468206992B202EB4202DF
:103230004FF0070C0CFA02F220EA020222611C682D
:1032400020690A8802EB42028D6805FA02F2024305
:103250002261BFE70C2A16D81D68286B02EB820298
:10326000233A1F2404FA02F220EA02022A631D68AC
:10327000286B4A6802EB8202233A0C8804FA02F2B5
:1032800002432A63C1E71D68E86A02EB8202413A01
:103290001F2404FA02F220EA0202EA621D68E86AC8
:1032A0004A6802EB8202413A0C8804FA02F20243B5
:1032B000EA62AAE70A68122AABD11448426842F4CB
:1032C00080024260A5E70A68103A012AA5D80F4893
:1032D000426842F4000242600A68102A9DD10C4AFA
:1032E00012680C49A1FB0212920C02EB82025200FE
:1032F000019202E0019A013A0192019A002AF9D161
:103300008BE702208CE700BF002001400023014032
:103310005400002083DE1B43002807DB00F01F025F
:10332000400901239340024A42F82030704700BF11
:1033300000E100E0002808DB0901C9B200F16040AB
:1033400000F5614080F80013704700F00F0009019C
:10335000C9B2014B1954704714ED00E000B500F0FC
:103360000700C0F1070CBCF1040F28BF4FF0040C9C
:10337000031D062B0FD9C31E4FF0FF3E0EFA0CF0B3
:1033800021EA000199400EFA03FE22EA0E0241EA08
:1033900002005DF804FB0023EEE70000074AD36853
:1033A00023F4E0631B041B0C000200F4E060034301
:1033B00043F0BF6343F40033D360704700ED00E097
:1033C00010B50446054BD868C0F30220FFF7C6FFCE
:1033D00001462046FFF7AEFF10BD00BF00ED00E044
:1033E00008B5FFF799FF08BD58B110B504464379F9
:1033F0001BB101236371002010BD0371FDF7C0FFF5
:10340000F7E70120704730B405682C6824F4802465
:103410002C60046863608368402B05D00368996062
:103420000368DA6030BC704703689A600368D9604B
:10343000F8E7000010B40368D9B210390A4AA2FBB9
:1034400001421209094CA25CC2655F2907D96FF3DA
:10345000090304338365806D5DF8044B70476FF397
:1034600009038365F7E700BFABAAAAAA64A2000814
:10347000836A826992B9012B0AD0022B02D00BB168
:1034800000207047C36A13F0807F28D10020704766
:10349000C36AB3F1C07F24D000207047B2F5005F4B
:1034A00009D0022B25D9032B25D1C36A13F0807FC5
:1034B00023D100207047032B03D8DFE803F0140466
:1034C000140A00207047C36A13F0807F0DD10020DA
:1034D0007047C36AB3F1C07F09D000207047012054
:1034E000704701207047012070470120704701207C
:1034F000704701207047002070470120704700008E
:1035000070B50446FFF760FC002C5BD00546022333
:1035100084F83530002384F834302268136823F0AF
:103520000103136023681A6812F0010F0AD0FFF735
:103530004BFC431B052BF5D920236365032084F83E
:10354000350070BD1A68204911406268A0680243C6
:10355000E06802432069024360690243A0690243B4
:10356000E0690243206A02430A43616A04291ED0CB
:103570001A602668756925F00705636A1D43042BE8
:1035800007D1A36A1D43E36A1BB12046FFF770FF12
:1035900090B975612046FFF74DFFE26D3F239340E0
:1035A000836000206065012384F83530C9E7E16A53
:1035B000206B01430A43DBE740236365012084F865
:1035C0003500BEE70120BCE73F8010F038B5044667
:1035D000856D90F8340001282AD0012084F8340049
:1035E00094F83500012804D0002384F834300220F8
:1035F00038BD022084F83500002060652046FFF7C2
:1036000002FFE26D3F239340AB602268136843F0F2
:1036100016031360236C23B12268136843F0080378
:1036200013602268136843F0010313600020DFE792
:103630000220DDE7F0B583B0044600230193724B0E
:103640001D68724BA3FB0535AD0A876D3E68C26DE0
:1036500008239340334210D003681A6812F0040F15
:103660000BD01A6822F004021A60C26D082393403E
:10367000BB60436D43F001034365E26D012393405A
:10368000334209D02268526912F0800F04D0BB6027
:10369000636D43F002036365E26D0423934033429C
:1036A00009D02268126812F0020F04D0BB60636D6B
:1036B00043F004036365E26D10239340334224D04A
:1036C0002268126812F0080F1FD0BB6023681A68C6
:1036D00012F4802F0DD01B6813F4002F04D1236C3B
:1036E0009BB12046984710E0A36C73B120469847E1
:1036F0000BE01A6812F4807F03D11A6822F00802E6
:103700001A60236C0BB120469847E26D202393404A
:10371000334254D02268126812F0100F4FD0BB60B1
:1037200094F83530052B0ED023681A6812F4802FD8
:1037300033D01B6813F4002F2AD1636C002B3ED0CA
:10374000204698473BE02268136823F01603136075
:103750002268536923F080035361236CA3B122686C
:10376000136823F008031360E26D3F239340BB60AE
:10377000012384F83530002384F83430236D002B86
:103780003FD0204698473CE0A36C002BE7D1EBE705
:10379000E36BA3B12046984711E01A6812F4807FCA
:1037A00009D11A6822F010021A60012384F835301A
:1037B000002384F83430E36B0BB120469847636DE7
:1037C000FBB1636D13F0010F17D0052384F835307A
:1037D0002268136823F001031360019B01330193F6
:1037E000AB4204D823681B6813F0010FF5D1012305
:1037F00084F83530002384F83430E36C0BB1204674
:10380000984703B0F0BD00BF54000020B5814E1BA7
:1038100000230F2B00F2D78070B582B065E0856879
:103820004FEA430E032404FA0EF425EA0405CC689B
:1038300004FA0EF42C438460446824EA02044A68C3
:10384000C2F300129A40224342605CE0DC08083474
:1038500050F8242003F00705AD004FF00F0E0EFACC
:1038600005FE22EA0E0E0A69AA4042EA0E0240F85C
:1038700024205CE0042200E0002202FA0EF22A4337
:103880000234514D45F82420504A94686FEA0C02E6
:1038900024EA0C054E6816F4801F01D04CEA04059A
:1038A0004A4CA560E46802EA04054E6816F4001F5D
:1038B00001D04CEA0405454CE560646802EA040561
:1038C0004E6816F4003F01D04CEA04053F4C656099
:1038D000246822404D6815F4803F01D04CEA040270
:1038E0003A4C226001330F2B6BD801229A400C68AE
:1038F00004EA020C32EA0404F4D14C6804F0030434
:10390000013C012C8BD94A6802F00302032A09D03A
:10391000C4685D000322AA4024EA02048A68AA401F
:103920002243C2604A6802F00302022A8ED0046871
:103930004FEA430E032202FA0EF224EA02044A6816
:1039400002F0030202FA0EF2224302604A6812F405
:10395000403FC7D0002201921D4A546C44F4804479
:103960005464526C02F480420192019A9C08A51C96
:10397000154A52F8255003F0030E4FEA8E0E0F221F
:1039800002FA0EF225EA0205124A90423FF474AFA1
:1039900002F5806290420ED002F5806290420CD017
:1039A00002F5806290420AD002F5806290423FF4B4
:1039B00061AF072261E701225FE702225DE7032290
:1039C0005BE702B070BD704700380140003C014029
:1039D00000380240000002400369194201D0012072
:1039E0007047002070470AB1816170470904816106
:1039F0007047436901EA030221EA030141EA0241F7
:103A00008161704708B5054B5B69034200D108BD71
:103A1000024B5861FEF707FBF9E700BF003C01408D
:103A200000B583B0002200920D4B596C41F48041E7
:103A30005964596C01F48041009100990192196C0C
:103A400041F0805119641B6C03F080530193019B7A
:103A50000F216FF00100FFF7B3FC03B05DF804FB2A
:103A6000003802402DE9F04383B0D0F8008001EB2C
:103A7000C10300EB83039A6A5B6A9A4254D80746F3
:103A80000C469B1A01EBC10200EB8202D2699A42FA
:103A900000D31A4602F103094FEA990915E006F12D
:103AA00003094FEA9909BB7904EBC40507EB8505C7
:103AB000296A0093B3B2E2B2404602F08AFA2B6A56
:103AC00033442B62AB6A3344AB6208EB441303F517
:103AD00010639B699BB24B4512D304EBC40307EB05
:103AE00083039A6A5B6A9A420AD24BB19B1A04EB2F
:103AF000C40207EB8202D6699E42D0D31E46CEE7AF
:103B000004EBC40307EB83077A6ABB6A9A420FD8B7
:103B100004F00F040122A240D8F8343823EA02034B
:103B2000C8F83438002000E0012003B0BDE8F0837D
:103B30000020FAE730B583B000287AD00446056843
:103B400090F89534C3B1032384F89534B5F1A04FB0
:103B500017D0206801F0EEFF237C8DF80030231D84
:103B60000ECB206801F025FF70B1022384F8953454
:103B70000125284603B030BD80F8943404F0D6FB0C
:103B8000E1E70023A371E4E70021206802F037FC9D
:103B90000246B8B903462079984218D903EBC3010D
:103BA00004EB8101012048750B75CB850020087658
:103BB000C861086203EBC30104EB81014862013371
:103BC000DBB2E8E7022384F895340125D1E790427F
:103BD00017D902EBC20304EB8303002183F85512CB
:103BE00083F8542283F85812C3F85C12C3F86012A9
:103BF00002EBC20304EB8303C3F864120132D2B2B6
:103C0000E5E7237C8DF80030231D0ECB206801F002
:103C1000E7FF054620B1022384F895340125A8E783
:103C200000236374012384F89534206802F0A6FB16
:103C30009FE701259DE7036890F89424012A1AD094
:103C400010B50446012280F89424DA6812F0400F7F
:103C500002D0427B012A09D0206801F065FF20686C
:103C600002F07EFB002084F8940410BD9A6B42F4AD
:103C700080329A63F0E702207047000070B5044676
:103C80000D460068066C00EB411303F530639A683B
:103C9000A179012911D038498E4256D03DB905EBA2
:103CA000C50304EB8303D3F86432002B5ED0E9B282
:103CB000204604F087FB002070BD12F0080F09D0E9
:103CC0002E498E42F7D912F4004FF4D04FF400423F
:103CD0009A60F0E712F0200F02D020229A60EAE703
:103CE00012F0280FE7D125498E4206D912F4004F71
:103CF00003D04FF400429A60DDE705EBC50204EB08
:103D00008202D2F874121B69C3F31203CB1AC2F8F1
:103D100068327DB905EBC50204EB8202D2F8642259
:103D20006AB105EBC50204EB8202D2F860121944B5
:103D3000C2F86012E9B2204604F044FBBBE704F28B
:103D40009C42012102F09AFBF4E712F4004F03D0E9
:103D50004FF400429A60AEE712F0200F01D020220B
:103D60009A60E9B2204604F02DFBA4E704F29C42DD
:103D7000002102F083FB9AE70A31544F0A30544F76
:103D800038B5044603681D6C03EB4113D3F8081BD8
:103D90000E4A954207D903F5306311F4004F02D063
:103DA0004FF400429A60204604F004FB074B9D420A
:103DB00002D9A379012B01D0002038BD04F29C4226
:103DC0000121206802F05AFBF6E700BF0A30544F89
:103DD00090F89434012B0CD010B50446012380F8E0
:103DE00094344174006802F0ABFA002084F8940423
:103DF00010BD0220704738B505468C4611F0800F83
:103E00002BD101F00F0E0EEBCE04A40004F51474B8
:103E10000444211D0EEBCE0E00EB8E0E00208EF81A
:103E200055020CF00F0C81F800C0C2F30A028A6040
:103E30000B714A780AB1A1F81AC0022B1CD095F870
:103E40009434012B1BD0012385F89434286801F0A9
:103E5000A4FF002085F8940438BD01F00F0000EBAA
:103E6000C001890010312944043100EBC00005EB8A
:103E7000800001244475D4E700234B71DFE7022062
:103E8000EAE710B504460A4611F0800F20D101F090
:103E90000F0000EBC0039B0003F514732344191DAE
:103EA00000EBC00004EB8000002380F8553202F0E4
:103EB0000F020A7094F89434012B18D0012384F86F
:103EC0009434206801F0B6FF002084F8940410BDFB
:103ED00001F00F0000EBC0039B0010332344191DB9
:103EE00000EBC00004EB800001234375DFE70220F4
:103EF000EDE710B5144601F00F0C0CEBCC01890076
:103F000001F51471014404310CEBCC0E00EB8E0E64
:103F1000CEF86022CEF864320023CEF868328EF8F4
:103F200055328EF854C28279012A04D0006802F01A
:103F300067F8002010BDCEF87042F7E701F00F01DE
:103F400001EBC10100EB8100D0F86802704710B5A9
:103F5000144601F00F0C0CEBCC0189001031014428
:103F600004310CEBCC0E00EB8E0ECEF82020CEF8F8
:103F700024300023CEF8283001238EF815308EF837
:103F800014C082799A4204D0006802F039F8002007
:103F900010BDCEF83040F7E738B501F00F050279D3
:103FA000AA4238D304460B4611F0800F1FD101EB13
:103FB000C101890001F514710144043103EBC3030D
:103FC00000EB8303002283F8552201238B700D70D0
:103FD00094F89434012B20D0012384F89434206881
:103FE00002F053F985B1002084F8940438BD05EB44
:103FF000C501890010310144043105EBC50300EB14
:10400000830301225A75E0E704F29C42A1792068FB
:1040100002F034FAE7E70120E8E70220E6E701F0E2
:104020000F0302799A4230D310B5044611F0800F85
:104030001ED103EBC301890001F514710144043161
:1040400003EBC30200EB8202002082F8550200223B
:104050008A700B7094F89434012B18D0012384F8E3
:104060009434206802F03EF9002084F8940410BDD6
:1040700003EBC301890010310144043103EBC30297
:1040800000EB820201205075E1E701207047022019
:10409000EDE708B511F0800F0CD101F00F0101EB35
:1040A000C101890001F5147101440431006801F077
:1040B00031FF08BD01F00F0101EBC1018900103192
:1040C00001440431F2E72DE9F04F83B0044605685E
:1040D000284602F090F910B103B0BDE8F08F064613
:1040E000206802F059F90028F6D005F50067BB6892
:1040F000C3F30D23C4F8D434206802F04DF910F056
:10410000020F04D02268536903F002035361206850
:1041100002F042F910F0100F15D02268936923F0D5
:1041200010039361D5F8208008F00F0908F4F0130C
:10413000B3F5802F4CD0B3F5402F6FD02268936930
:1041400043F010039361206802F026F910F4002F69
:1041500076D1206802F020F910F4802F40F0E08042
:10416000206802F019F90028C0F26181206802F08D
:1041700013F910F4006F09D0BB6813F0010F40F081
:104180006E812268536903F400635361206802F072
:1041900003F910F4805F40F06681206802F0FCF8BB
:1041A00010F4005F40F0B381206802F0F5F810F0E1
:1041B000080F40F0C481206802F0EEF810F0800F84
:1041C00000F0D781AB6923F08003AB610126C0E129
:1041D00047F6F07318EA030FB0D04FEA181A4FEA07
:1041E000C903019309EBC90B04EB8B0BC8F30A124B
:1041F000DBF86012284602F025F8DBF86032CAF3DB
:104200000A0A5344CBF86032DBF86832019A4A4418
:1042100004EB82025344C2F868328FE7082204F2AA
:104220009C41284602F00EF809EBC90304EB830316
:10423000D3F86822C8F30A184244C3F868227DE71D
:10424000206802F0ADF88046B14635E005EB491331
:104250000122C3F8082B49462046FFF70FFD3CE03A
:1042600005EB49130822C3F8082B49462046FFF7FF
:1042700087FD35E009EBC90304EB830393F857325C
:10428000012B41D005EB49130222C3F8082B1AF089
:10429000200F04D005EB49132022C3F8082B1AF491
:1042A000005F05D005EB49134FF40052C3F8082B0B
:1042B00009F101094FEA5808B8F1000F3FF449AF7E
:1042C00018F0010FF4D05FFA89FB5946206802F01C
:1042D00077F8824610F0010FB8D11AF0080FBFD15D
:1042E0001AF0100F04D005EB49131022C3F8082B65
:1042F0001AF0020FCBD06B6913F0800FBAD07B6835
:1043000043F480637B60B5E709EBC90304EB8303E7
:10431000002283F857225946204604F0A1F8B1E75D
:10432000206802F045F88046B14625E0594620460F
:1043300004F054F81AF0080F04D005EB49130822D2
:10434000C3F808291AF0100F04D005EB4913102206
:10435000C3F808291AF0400F04D005EB4913402296
:10436000C3F808291AF0020F40D11AF0800F59D172
:1043700009F101094FEA5808B8F1000F3FF4F0AE17
:1043800018F0010FF4D05FFA89FB5946206802F05B
:1043900020F8824610F0010FCCD009F00F02012165
:1043A00001FA02F27B6B23EA02037B6305EB4913FC
:1043B000C3F80819A3798B42B8D109EBC90304EB00
:1043C00083031A6AD9690A441A62B9F1000FADD1A0
:1043D00009EBC90304EB83035B6A002BA6D104F24B
:1043E0009C420121206802F049F89FE7494628468F
:1043F00001F0A6FB09EBC90304EB8303DB7D012B72
:1044000005D005EB49130222C3F80829ADE709EBF3
:10441000C90304EB83030022DA755946204604F0F1
:1044200025F8EEE749462046FFF71CFBA0E77B682E
:1044300023F001037B6094F8CC34012B08D0204694
:1044400004F008F82268536903F0004353618DE6D5
:10445000002184F8CC14204600F03FF9F2E7204612
:1044600003F0E0FF8DE67B6823F001037B60102101
:10447000206801F065FB1AE005EB46134FF67F312B
:10448000C3F80819D3F8002922F40012C3F8002950
:10449000C3F8081BD3F8002B22F40012C3F8002B3A
:1044A000D3F8002B42F00062C3F8002B01362379C9
:1044B000B342E1D8FB6943F00113FB61E37BDBB15D
:1044C000D7F8843043F00B03C7F884307B6C43F09B
:1044D0000B037B64D5F8003823F4FE63C5F800387D
:1044E00004F29C42A179206801F0C8FF2268536958
:1044F00003F48053536150E67B6943F4005343F067
:104500002B037B613B6943F00B033B61E2E72068CF
:1045100001F0A6FF206801F02FFCE071266800F092
:10452000DDFB0146E279304601F08CFA204603F0CB
:1045300066FF2268536903F40053536134E6204652
:1045400003F057FF2268536903F00803536132E612
:1045500001362379B3420CD906EBC60304EB83037F
:1045600093F85732012BF3D1F1B22046FFF791FDBA
:10457000EEE7206801F010FF10F4801F25D12068BD
:1045800001F00AFF10F4001F59D0012326E0013684
:104590002379B3421BD905EB4613D3F8002906EB68
:1045A000C60304EB83031B7E012BF0D1002AEEDA55
:1045B00006EBC60304EB83030122DA7566F07F0184
:1045C000C9B22046FFF765FDE1E70126E0E7226872
:1045D000536903F480135361D1E7013322799A427E
:1045E00028D905EB4312D2F8001B03EBC30204EBFE
:1045F000820292F85822012AEFD10029EDDA01F463
:104600008031D4F8D42402F001029142E5D103EBC9
:10461000C30204EB8202012182F85712AA6942F018
:104620008002AA616A6912F0800FD6D17B6843F4D8
:1046300000737B602268536903F4001353612068A0
:1046400001F0AAFE10F0804F10D1206801F0A4FE06
:1046500010F0040F3FF440AD23685D6815F0040FBF
:104660000DD1226853682B43536035E5204603F093
:1046700003FF2268536903F080435361E5E7204656
:1046800003F000FFEDE710B40468606A31B940EA56
:104690000240A06200205DF8044B70478C46A36A7C
:1046A00000EB1340002308E003F1400104EB81011B
:1046B000496800EB11400133DBB20CF1FF318B4252
:1046C000F2D340EA02400CF13F0104EB8104606048
:1046D000E0E703685962002070477047002800F047
:1046E000E08170B582B00446036813F0010F3BD03F
:1046F0009F4B9B6803F00C03042B2CD09C4B9B68B6
:1047000003F00C03082B21D06368B3F5803F4FD032
:10471000B3F5A02F52D0964B1A6822F480321A605B
:104720001A6822F480221A606368002B50D0FEF7CA
:104730004BFB05468E4B1B6813F4003F14D1FEF76C
:1047400043FB401B6428F5D90320B1E1884B5B682B
:1047500013F4800FD8D0864B1B6813F4003F03D0AE
:104760006368002B00F09F81236813F0020F54D080
:104770007F4B9B6813F00C0F3ED07D4B9B6803F082
:104780000C03082B33D0E368002B68D0794B01224F
:104790001A60FEF719FB0546754B1B6813F0020FF4
:1047A00054D1FEF711FB401B0228F5D903207FE10D
:1047B0006F4A136843F480331360B5E76C4B1A6893
:1047C00042F480221A601A6842F480321A60ABE721
:1047D000FEF7FAFA0546664B1B6813F4003FC3D098
:1047E000FEF7F2FA401B6428F5D9032060E1604B24
:1047F0005B6813F4800FC6D15D4B1B6813F0020F8A
:1048000003D0E368012B40F05081594A136823F02C
:10481000F803216943EAC1031360236813F0080F0A
:1048200042D063696BB3534B0122C3F8802EFEF76D
:10483000CBFA05464E4B5B6F13F0020F34D1FEF7F7
:10484000C3FA401B0228F5D9032031E1484A136816
:1048500023F0F803216943EAC1031360DDE7454B08
:1048600000221A60FEF7B0FA0546414B1B6813F0B0
:10487000020FD2D0FEF7A8FA401B0228F5D9032078
:1048800016E13C4B0022C3F8802EFEF79DFA054648
:10489000374B5B6F13F0020F06D0FEF795FA401B03
:1048A0000228F5D9032003E1236813F0040F77D021
:1048B0002F4B1B6C13F0805F33D1002301932C4BE3
:1048C0001A6C42F080521A641B6C03F080530193FF
:1048D000019B0125284B1B6813F4807F23D0A3681C
:1048E000012B34D0052B38D0214B1A6F22F0010256
:1048F0001A671A6F22F004021A67A368002B3DD0D2
:10490000FEF762FA06461A4B1B6F13F0020F46D1F0
:10491000FEF75AFA801B41F288339842F3D90320FC
:10492000C6E00025D6E7144A136843F48073136089
:10493000FEF74AFA0646104B1B6813F4807FCED16F
:10494000FEF742FA801B0228F5D90320B0E0084A9E
:10495000136F43F001031367CFE7054B1A6F42F063
:1049600004021A671A6F42F001021A67C5E700BF16
:10497000003802400000474200700040FEF724FA71
:104980000646524B1B6F13F0020F08D0FEF71CFABD
:10499000801B41F288339842F3D9032088E0EDB9B7
:1049A000A369002B00F08380484A926802F00C0251
:1049B000082A51D0022B17D0454B00221A66FEF769
:1049C00003FA0446414B1B6813F0007F42D0FEF708
:1049D000FBF9001B0228F5D9032069E03B4A136C60
:1049E00023F080531364DBE7394B00221A66FEF78D
:1049F000EBF90546354B1B6813F0007F06D0FEF738
:104A0000E3F9401B0228F5D9032051E0E369226A4B
:104A10001343626A43EA8213A26A5208013A43EAE4
:104A20000243E26A43EA0263284A5360284B0122A8
:104A30001A66FEF7C9F90446244B1B6813F0007F81
:104A400006D1FEF7C1F9001B0228F5D903202FE09B
:104A500000202DE000202BE0012B2BD01B4B5B68AE
:104A600003F48001E269914226D103F03F02216AFA
:104A70008A4223D1616A47F6C0721A40B2EB811FA5
:104A80001ED103F44031A26A5208013AB1EB024F41
:104A900018D103F07063E26AB3EB026F14D1002007
:104AA00006E001207047012002E0012000E0002024
:104AB00002B070BD0120FBE70120F9E70120F7E714
:104AC0000120F5E70120F3E70120F1E7003802407B
:104AD0000000474208B5264B9B6803F00C03042BEB
:104AE00041D0082B41D1224B5A6802F03F025B684B
:104AF00013F4800F12D01E4B5968C1F388111D4862
:104B00000023A1FB0001FBF791FF194B5B68C3F386
:104B1000014301335B00B0FBF3F008BD144B586850
:104B2000C0F388104FEA401CBCEB000C6EEB0E0E7D
:104B30004FEA8E1343EA9C634FEA8C11B1EB0C01F0
:104B400063EB0E03DB0043EA5173C90011EB000C69
:104B500043F10003990200234FEA8C2041EA9C5163
:104B6000FBF764FFD1E70348D7E70348D5E700BF69
:104B70000038024040787D010024F400002800F055
:104B80009B8070B50D4604464F4B1B6803F007032E
:104B90008B4208D2CBB24C4A1370136803F0070360
:104BA0008B4240F08B80236813F0020F17D013F074
:104BB000040F04D0454A936843F4E053936023689C
:104BC00013F0080F04D0414A936843F460439360A4
:104BD0003E4A936823F0F003A1680B439360236877
:104BE00013F0010F32D06368012B21D09A1E012AE5
:104BF00025D9364A126812F0020F61D033498A680B
:104C000022F0030213438B60FEF7DEF806462F4BBB
:104C10009B6803F00C036268B3EB820F16D0FEF7BB
:104C2000D3F8801B41F288339842F0D9032042E048
:104C3000264A126812F4003FE0D101203BE0234AEB
:104C4000126812F0007FD9D1012034E01E4B1B689E
:104C500003F00703AB4207D9EAB21B4B1A701B687B
:104C600003F00703AB422DD1236813F0040F06D0E5
:104C7000164A936823F4E053E1680B43936023687A
:104C800013F0080F07D0114A936823F46043216999
:104C900043EAC1039360FFF71DFF0C4B9B68C3F30E
:104CA00003130B4AD35CD8400A4B18600A4B1868B0
:104CB00000F0DEFD002070BD012070470120FAE702
:104CC0000120F8E70120F6E7003C024000380240EE
:104CD00074A200085400002050000020014B186806
:104CE000704700BF5400002008B5FFF7F7FF044BE2
:104CF0009B68C3F34233034AD35CD84008BD00BF6E
:104D0000003802406CA200080F2303600B4B9A6826
:104D100002F0030242609A6802F0F00282609A6830
:104D200002F4E052C2609B68DB0803F4E0530361C5
:104D3000034B1B6803F007030B6070470038024009
:104D4000003C024030B4026A036A23F001030362AC
:104D50004568836923F073030C681C4322F0020248
:104D60008B6813430B4A904206D0456084614A68C1
:104D70004263036230BC704723F00803CA681A43D9
:104D800022F0040325F440754A692A438D691543CE
:104D9000EBE700BF0000014030B4036A026A22F46E
:104DA000807202624468C26922F073020D68154382
:104DB00023F400738A6843EA02230D4A904206D026
:104DC0004460C5614A68C263036230BC704723F423
:104DD0000063CA6843EA022323F4806324F4405446
:104DE0004A6944EA02148A6944EA0214E8E700BF07
:104DF0000000014030B4036A026A22F48052026269
:104E00004468C26922F4E6420D6842EA052223F4AE
:104E100000538D6843EA0533074DA84206D044602D
:104E2000C2614A680264036230BC704724F4804463
:104E30004D6944EA8514F2E70000014010B4036AAA
:104E4000046A24F001040462846924F0F00C4CEA42
:104E5000021223F00A030B43826103625DF8044BE4
:104E6000704710B4036A046A24F010040462846971
:104E700024F4704C4CEA023223F0A00343EA0113FD
:104E8000826103625DF8044B7047836823F070030E
:104E90000B4343F0070383607047000090F83D30F8
:104EA000012B2AD1022380F83D300368154A934232
:104EB00018D0B3F1804F15D0A2F57C42934211D0A7
:104EC00002F5806293420DD002F58062934209D0D0
:104ED00002F59A32934205D01A6842F001021A6034
:104EE000002070479A6802F00702062A07D01A6865
:104EF00042F001021A600020704701207047002034
:104F0000704700BF0000014090F83D30012B2FD1C9
:104F1000022380F83D300268D36843F00103D36078
:104F20000368154A934218D0B3F1804F15D0A2F50B
:104F30007C42934211D002F5806293420DD002F57B
:104F40008062934209D002F59A32934205D01A68E2
:104F500042F001021A60002070479A6802F00702CE
:104F6000062A07D01A6842F001021A600020704732
:104F700001207047002070470000014070477047D3
:104F800070477047704770B504460368DE681D6956
:104F900015F0020F10D016F0020F0DD06FF00202C4
:104FA0001A610123037703689B6913F0030F5ED036
:104FB000FFF7E6FF0023237715F0040F12D016F059
:104FC000040F0FD023686FF004021A6102232377C5
:104FD00023689B6913F4407F4FD02046FFF7D0FF32
:104FE0000023237715F0080F12D016F0080F0FD00A
:104FF00023686FF008021A61042323772368DB69B2
:1050000013F0030F40D02046FFF7BAFF00232377A9
:1050100015F0100F12D016F0100F0FD023686FF09C
:1050200010021A61082323772368DB6913F4407F99
:1050300031D02046FFF7A4FF0023237715F0010F9E
:1050400002D016F0010F2DD115F0800F02D016F00E
:10505000800F2FD115F0400F02D016F0400F31D144
:1050600015F0200F02D016F0200F33D170BDFFF7DE
:1050700086FF2046FFF785FF9CE72046FFF77FFF6E
:105080002046FFF77EFFABE72046FFF778FF20467C
:10509000FFF777FFBAE72046FFF771FF2046FFF7DB
:1050A00070FFC9E723686FF001021A612046FCF720
:1050B000C3FFC9E723686FF080021A61204600F041
:1050C000D5FBC7E723686FF040021A612046FFF75F
:1050D00059FFC5E723686FF020021A61204600F0EF
:1050E000C4FBC3E70368294A90420ED0B0F1804F59
:1050F0000BD0A2F57C42904207D002F5806290422C
:1051000003D002F58062904203D123F070034A6815
:1051100013431E4A90421AD0B0F1804F17D0A2F527
:105120007C42904213D002F5806290420FD002F58B
:10513000806290420BD002F59A32904207D002F57D
:105140008062904203D002F58062904203D123F442
:105150004073CA68134323F080034A691343036012
:105160008B68C3620B688362084B98420AD00123A4
:105170004361036913F0010F03D0036923F00103B6
:10518000036170470B690363F1E700BF0000014052
:1051900040B310B5044690F83D30F3B1022384F8D3
:1051A0003D30214651F8040BFFF79CFF012384F8A2
:1051B000463084F83E3084F83F3084F8403084F83C
:1051C000413084F8423084F8433084F8443084F825
:1051D000453084F83D30002010BD80F83C3001F0AF
:1051E00021FFDBE70120704740B310B5044690F87B
:1051F0003D30F3B1022384F83D30214651F8040BD1
:10520000FFF770FF012384F8463084F83E3084F8BD
:105210003F3084F8403084F8413084F8423084F8DC
:10522000433084F8443084F8453084F83D30002021
:1052300010BD80F83C30FFF7A1FEDBE7012070478E
:1052400040B310B5044690F83D30F3B1022384F822
:105250003D30214651F8040BFFF744FF012384F849
:10526000463084F83E3084F83F3084F8403084F88B
:10527000413084F8423084F8433084F8443084F874
:10528000453084F83D30002010BD80F83C3001F0FE
:1052900095FEDBE70120704730B4036A026A22F012
:1052A000100202624468826922F4E6420D6842EA12
:1052B000052223F020038D6843EA05130C4DA84214
:1052C00006D0446082614A688263036230BC7047E2
:1052D00023F08003CD6843EA051323F0400324F450
:1052E00040644D6944EA85048D6944EA8504E8E731
:1052F0000000014090F83C30012B28D010B5044646
:10530000012380F83C300C2A1CD8DFE802F0071B90
:105310001B1B0C1B1B1B111B1B1B16000068FFF724
:1053200011FD00200FE00068FFF7B6FF00200AE043
:105330000068FFF731FD002005E00068FFF75AFD27
:10534000002000E00120002384F83C3010BD022042
:10535000704738B590F83C30012B66D004460D46B6
:10536000012380F83C300C2A5AD8DFE802F00759B4
:1053700059591B5959593059595944000068FFF778
:10538000E1FC2268936943F0080393612268936902
:1053900023F0040393612268936929690B439361A5
:1053A00000203EE00068FFF777FF2268936943F42E
:1053B000006393612268936923F480639361226898
:1053C0009369296943EA01239361002029E0006879
:1053D000FFF7E2FC2268D36943F00803D361226837
:1053E000D36923F00403D3612268D36929690B438D
:1053F000D361002015E00068FFF7FCFC2268D36948
:1054000043F40063D3612268D36923F48063D361DA
:105410002268D369296943EA0123D361002000E0AF
:105420000120002384F83C3038BD0220FCE710B492
:10543000846824F47F4C42EA03220A4342EA0C02C5
:1054400082605DF8044B704790F83C30012B78D0B7
:1054500010B50446012380F83C30022380F83D302B
:105460000268936823F47F4323F0770393600B680B
:10547000602B4CD023D8402B54D011D8202B03D0F4
:105480000AD80BB1102B05D119462068FFF7FDFC97
:10549000002028E0012026E0302BF5D0012022E07A
:1054A000502B0AD1CA6849680068FFF7C7FC502131
:1054B0002068FFF7EAFC002015E0012013E0B3F5B7
:1054C000805F3AD0B3F5005F14D0702B37D1CB6832
:1054D0004A6889680068FFF7AAFF2268936843F06A
:1054E000770393600020012384F83D30002384F883
:1054F0003C3010BDCB684A6889680068FFF797FFA9
:105500002268936843F4804393600020EBE7CA6805
:1055100049680068FFF7A5FC60212068FFF7B5FC2B
:105520000020E0E7CA6849680068FFF787FC40216F
:105530002068FFF7AAFC0020D5E70020D3E7012070
:10554000D1E70220704701F01F014FF0010C0CFA67
:1055500001FC036A23EA0C030362036A8A401343D3
:105560000362704710B504460846002937D194F805
:105570003E30013B18BF0123002B40F095800028EE
:1055800043D1022384F83E302268D36843F00203FB
:10559000D360012201462068FFF7D5FF2368454A02
:1055A000934271D02368434A934272D0B3F1804F43
:1055B0006FD0A2F57C4293426BD002F58062934299
:1055C00067D002F58062934263D002F59A3293422B
:1055D0005FD01A6842F001021A60002065E00429D9
:1055E00007D008290BD094F84130013B18BF0123A4
:1055F000C2E794F83F30013B18BF0123BCE794F8A1
:105600004030013B18BF0123B6E7042824D0082806
:105610002BD0022384F841300C2847D801A353F83B
:1056200020F000BF89550008AD560008AD560008AF
:10563000AD5600085F560008AD560008AD5600088C
:10564000AD56000871560008AD560008AD5600086A
:10565000AD5600087D560008022384F83F302268CA
:10566000D36843F00403D36093E7022384F8403007
:105670002268D36843F00803D3608AE72268D368BE
:1056800043F01003D36084E75A6C42F400425A643A
:1056900088E79A6802F00702062A09D01A6842F0E1
:1056A00001021A60002000E0012010BD0120FCE78B
:1056B0000020FAE70000014010B50446084689BB07
:1056C00094F83E30013B18BF0123002B60D1002825
:1056D0003ED1022384F83E30012201462068FFF7C4
:1056E00032FF23682C4A934242D023682A4A9342CD
:1056F00043D0B3F1804F40D0A2F57C4293423CD0DE
:1057000002F58062934238D002F58062934234D031
:1057100002F59A32934230D01A6842F001021A60C0
:10572000002034E0042907D008290BD094F8413038
:10573000013B18BF0123C8E794F83F30013B18BF75
:105740000123C2E794F84030013B18BF0123BCE7B6
:10575000042805D0082807D0022384F84130BBE78D
:10576000022384F83F30B7E7022384F84030B3E7E0
:105770005A6C42F400425A64B7E79A6802F0070292
:10578000062A07D01A6842F001021A60002010BDF4
:105790000120FCE70020FAE70000014090F83C20DF
:1057A000012A35D010B40346012280F83C200222A1
:1057B00080F83D2002685068946820F0700C0868FA
:1057C00040EA0C0050601A681248824212D0B2F1CE
:1057D000804F0FD0A0F57C4082420BD000F5806056
:1057E000824207D000F58060824203D000F59A30F3
:1057F000824204D124F0800449682143916001224F
:1058000083F83D20002083F83C005DF8044B70478E
:105810000220704700000140024690F83C30012B06
:1058200021D0012380F83C30CB6823F44073886892
:10583000034323F480634868034323F40063086848
:10584000034323F480530869034323F40053486956
:10585000034323F48043C9690B4311684B64002060
:1058600082F83C0070470220704770477047000084
:1058700030B589B00546002401941D4B5A6C42F4A2
:1058800080225A645B6C03F480230193019B02A97C
:1058900003A8FFF739FAFFF727FA164AA2FB0023FD
:1058A0009B0C013B1448154A026040F2E732C2608B
:1058B0004360046184608461FFF76AFC044610B1B0
:1058C000204609B030BD0C48FFF71EFB04460028F7
:1058D000F6D11A20FDF784FD0F2D01D90124EFE741
:1058E000002229461A20FDF76BFD054B1D60E7E7F6
:1058F0000038024083DE1B4330470020004801404F
:1059000050000020FEE7FEE7FEE7FEE7FEE77047F7
:1059100008B54FF40070FEF775F808BD08B50348E8
:10592000FFF731FB0248FFF72EFB08BD0C4D0020AE
:105930003047002008B501F0ABFF0248FFF723FB1A
:1059400008BD00BFC44C002008B50248FDF772FE38
:1059500008BD00BFB001002008B50248FEF7B3FB48
:1059600008BD00BF245D002082B000230193019B8D
:1059700001330193019BB3F1706F15D80369002BBC
:10598000F5DA00230193036943F001030361019BEE
:1059900001330193019BB3F1706F08D8036913F0D1
:1059A000010FF4D1002000E0032002B07047032073
:1059B000FBE784B010B5044603A880E80E009DF80C
:1059C0001130012B21D1A36B23F48033A363E3684F
:1059D00023F4840323F04003E360E36823F44013DB
:1059E000E3609DF81830012B0AD02046FFF7BCFF7A
:1059F0009DF80E30012B1CD0BDE8104004B070475C
:105A0000E36843F48013E360EFE7E36843F04003A7
:105A1000E3602046FFF7A8FF9DF8153023B9A36B7C
:105A200043F48033A363E3E7A36B23F48033A363DE
:105A3000DEE7A36843F00603A360A36843F02003F6
:105A4000A360D9E7022A0AD00922C36823F470535D
:105A5000C360C36843EA8223C36000207047234BBE
:105A60000B44234A93422FD9224B0B44224A9342A0
:105A70002CD9A1F57403A3F51053204A934227D9DA
:105A8000A1F18373A3F5E7431D4A934222D31D4B33
:105A90000B441D4A93421FD91C4B0B441C4A934292
:105AA0001CD31C4B0B441C4A934219D3A1F1B7736E
:105AB000A3F55853194A934214D3194B0B44194A6E
:105AC000934211D20722C0E70F22BEE70E22BCE7A5
:105AD0000D22BAE70C22B8E70B22B6E70A22B4E798
