:020000040800F2
:1000000000000120A1B200080D750008117500085C
:100010007575000877750008797500080000000004
:10002000000000000000000000000000B1330008E4
:100030007B7500080000000051340008F10D000835
:10004000F1B20008F1B20008F1B20008F1B2000804
:10005000F1B20008F1B20008F1B20008F1B20008F4
:10006000F1B20008F1B20008F1B20008F1B20008E4
:10007000F1B20008F1B20008F1B20008F1B20008D4
:10008000F1B20008F1B20008F1B20008000000006F
:100090000000000000000000000000007D75000866
:1000A000F1B20008F1B2000889750008F1B2000849
:1000B000A1750008F1B20008F1B20008F1B2000821
:1000C000F1B20008F1B20008F1B20008F1B2000884
:1000D000F1B20008F1B20008F1B20008000000001F
:1000E000F1B20008F1B20008F1B20008000000000F
:1000F000000000000000000000000000F1B2000855
:1001000000000000F1B20008F1B20008F1B20008EE
:1001100000000000000000000000000000000000DF
:10012000B5750008F1B20008F1B20008F1B200089C
:10013000F1B2000800000000000000000000000014
:10014000000000000000000000000000C57500086D
:10015000F1B20008F1B20008F1B20008F1B20008F3
:10016000F1B20008F1B20008000000000000000039
:10017000000000000000000000000000000000007F
:1001800000000000F1B200080000000000000000C4
:04019000F1B20008C0
:1001A000034613F8012B002AFBD1181A01387047B7
:1001B00001F0FF01102A2BDB10F0070F08D010F818
:1001C000013B013A8B422DD010F0070F42B3F6D11C
:1001D000F0B441EA012141EA014122F007047FF035
:1001E00000070023F0E80256083C85EA010586EA8C
:1001F000010685FA47F5A3FA87F586FA47F6A5FAC8
:1002000087F68EB9EED1F0BC01F0FF0102F00702D3
:1002100032B110F8013B013A83EA010313B1F8D17E
:100220000020704701387047002D06BF354603385F
:10023000073815F0010F07D1013015F4807F02BF98
:10024000013015F4C03F0130F0BC0138704700BFE9
:1002500081F0004102E000BF83F0004330B54FEA77
:1002600041044FEA430594EA050F08BF90EA020FE4
:100270001FBF54EA000C55EA020C7FEA645C7FEA77
:10028000655C00F0E2804FEA5454D4EB5555B8BF9A
:100290006D420CDD2C4480EA020281EA030382EA0B
:1002A000000083EA010180EA020281EA0303362D9D
:1002B00088BF30BD11F0004F4FEA01314FF4801C70
:1002C0004CEA113102D0404261EB410113F0004F82
:1002D0004FEA03334CEA133302D0524263EB430339
:1002E00094EA050F00F0A780A4F10104D5F1200ED7
:1002F0000DDB02FA0EFC22FA05F2801841F1000132
:1003000003FA0EF2801843FA05F359410EE0A5F105
:1003100020050EF1200E012A03FA0EFC28BF4CF036
:10032000020C43FA05F3C01851EBE37101F00045EC
:1003300007D54FF0000EDCF1000C7EEB00006EEBF9
:100340000101B1F5801F1BD3B1F5001F0CD3490883
:100350005FEA30004FEA3C0C04F101044FEA4452DA
:1003600012F5800F80F09A80BCF1004F08BF5FEA61
:10037000500C50F1000041EB045141EA050130BD41
:100380005FEA4C0C404141EB0101013C28BFB1F553
:10039000801FE9D291F0000F04BF01460020B1FA9E
:1003A00081F308BF2033A3F10B03B3F120020CDA71
:1003B0000C3208DD02F1140CC2F10C0201FA0CF04F
:1003C00021FA02F10CE002F11402D8BFC2F1200CB4
:1003D00001FA02F120FA0CFCDCBF41EA0C0190406A
:1003E000E41AA2BF01EB0451294330BD6FEA0404B3
:1003F0001F3C1CDA0C340EDC04F11404C4F120029E
:1004000020FA04F001FA02F340EA030021FA04F3AF
:1004100045EA030130BDC4F10C04C4F1200220FA06
:1004200002F001FA04F340EA0300294630BD21FA44
:1004300004F0294630BD94F0000F83F4801306BF0A
:1004400081F480110134013D4EE77FEA645C18BFFE
:100450007FEA655C29D094EA050F08BF90EA020F95
:1004600005D054EA000C04BF1946104630BD91EA8D
:10047000030F1EBF0021002030BD5FEA545C05D190
:100480004000494128BF41F0004130BD14F58004CF
:100490003CBF01F5801130BD01F0004545F0FE4143
:1004A00041F470014FF0000030BD7FEA645C1ABF78
:1004B000194610467FEA655C1CBF0B46024650EAAF
:1004C000013406BF52EA033591EA030F41F40021DB
:1004D00030BD00BF90F0000F04BF0021704730B561
:1004E0004FF4806404F132044FF000054FF0000136
:1004F00050E700BF90F0000F04BF0021704730B5F7
:100500004FF4806404F1320410F0004548BF4042CB
:100510004FF000013EE700BF42004FEAE2014FEA20
:1005200031014FEA02701FBF12F07F4393F07F4FFB
:1005300081F06051704732F07F4208BF704793F0FE
:100540007F4F04BF41F40021704730B54FF4607411
:1005500001F0004521F000411CE700BF50EA010214
:1005600008BF704730B54FF000050AE050EA0102BD
:1005700008BF704730B511F0004502D5404261EB2D
:1005800041014FF4806404F132045FEA915C3FF46E
:10059000D8AE4FF003025FEADC0C18BF03325FEA0B
:1005A000DC0C18BF033202EBDC02C2F1200300FABC
:1005B00003FC20FA02F001FA03FE40EA0E0021FAE1
:1005C00002F11444BDE600BF70B54FF0FF0C4CF4CF
:1005D000E06C1CEA11541DBF1CEA135594EA0C0F81
:1005E00095EA0C0F00F0DEF82C4481EA030621EABC
:1005F0004C5123EA4C5350EA013518BF52EA0335F7
:1006000041F4801143F4801338D0A0FB02CE4FF0A8
:100610000005E1FB02E506F00042E0FB03E54FF0D8
:100620000006E1FB03569CF0000F18BF4EF0010ED0
:10063000A4F1FF04B6F5007F64F5407404D25FEACC
:100640004E0E6D4146EB060642EAC62141EA55517F
:100650004FEAC52040EA5E504FEACE2EB4F1FD0CC1
:1006600088BFBCF5E06F1ED8BEF1004F08BF5FEA3F
:10067000500E50F1000041EB045170BD06F00046F1
:1006800046EA010140EA020081EA0301B4EB5C049E
:10069000C2BFD4EB0C0541EA045170BD41F4801196
:1006A0004FF0000E013C00F3AB8014F1360FDEBFBB
:1006B000002001F0004170BDC4F10004203C35DA97
:1006C0000C341BDC04F11404C4F1200500FA05F31A
:1006D00020FA04F001FA05F240EA020001F00042BB
:1006E00021F0004110EBD37021FA04F642EB060131
:1006F0005EEA430E08BF20EAD37070BDC4F10C045B
:10070000C4F1200500FA04F320FA05F001FA04F21E
:1007100040EA020001F0004110EBD37041F100010A
:100720005EEA430E08BF20EAD37070BDC4F1200515
:1007300000FA05F24EEA020E20FA04F301FA05F27D
:1007400043EA020321FA04F001F0004121FA04F225
:1007500020EA020000EBD3705EEA430E08BF20EAF5
:10076000D37070BD94F0000F0FD101F0004640002F
:1007700041EB010111F4801F08BF013CF7D041EAB1
:10078000060195F0000F18BF704703F000465200B5
:1007900043EB030313F4801F08BF013DF7D043EA86
:1007A0000603704794EA0C0F0CEA135518BF95EA3C
:1007B0000C0F0CD050EA410618BF52EA4306D1D1C3
:1007C00081EA030101F000414FF0000070BD50EAE2
:1007D000410606BF1046194652EA430619D094EA6C
:1007E0000C0F02D150EA013613D195EA0C0F05D156
:1007F00052EA03361CBF104619460AD181EA0301AA
:1008000001F0004141F0FE4141F470014FF0000061
:1008100070BD41F0FE4141F4780170BD70B54FF0FC
:10082000FF0C4CF4E06C1CEA11541DBF1CEA13557C
:1008300094EA0C0F95EA0C0F00F0A7F8A4EB05045E
:1008400081EA030E52EA03354FEA013100F0888055
:100850004FEA03334FF0805545EA131343EA12631E
:100860004FEA022245EA111545EA10654FEA0026D3
:100870000EF000419D4208BF964244F1FD0404F58C
:10088000407402D25B084FEA3202B61A65EB0305E8
:100890005B084FEA32024FF480104FF4002CB6EBA5
:1008A000020E75EB030E22BFB61A754640EA0C0025
:1008B0005B084FEA3202B6EB020E75EB030E22BF65
:1008C000B61A754640EA5C005B084FEA3202B6EBA6
:1008D000020E75EB030E22BFB61A754640EA9C0065
:1008E0005B084FEA3202B6EB020E75EB030E22BF35
:1008F000B61A754640EADC0055EA060E18D04FEAF3
:10090000051545EA16754FEA06164FEAC30343EA92
:1009100052734FEAC2025FEA1C1CC0D111F4801F5F
:100920000BD141EA00014FF000004FF0004CB6E758
:1009300011F4801F04BF01430020B4F1FD0C88BFF7
:10094000BCF5E06F3FF6AFAEB5EB030C04BFB6EB02
:10095000020C5FEA500C50F1000041EB045170BDF5
:100960000EF0004E4EEA113114EB5C04C2BFD4EB22
:100970000C0541EA045170BD41F480114FF0000EA6
:10098000013C90E645EA060E8DE60CEA135594EA22
:100990000C0F08BF95EA0C0F3FF43BAF94EA0C0F25
:1009A0000AD150EA01347FF434AF95EA0C0F7FF49A
:1009B00025AF104619462CE795EA0C0F06D152EAEE
:1009C00003353FF4FDAE1046194622E750EA4106D2
:1009D00018BF52EA43067FF4C5AE50EA41047FF4E3
:1009E0000DAF52EA43057FF4EBAE12E74A0011D295
:1009F00012F5001211D20DD56FF47873B3EB625279
:100A00000ED44FEAC12343F0004343EA505323FA84
:100A100002F070474FF00000704750EA013002D1F9
:100A20004FF0FF3070474FF00000704753B94AB99C
:100A3000002908BF00281CBF4FF0FF314FF0FF30E6
:100A400000F00CB8ADF1080C6DE904CE0CF07CF8A8
:100A5000DDF804E0DDE9022304B07047704700BF11
:100A600010B5054C237833B9044B13B10448AFF3E8
:100A700000800123237010BDB001002000000000A1
:100A800040CE000808B5034B1BB103490348AFF340
:100A9000008008BD00000000B401002040CE000826
:100AA00000B585B00023009301930293039364483B
:100AB000644A02604360836001220261037680F829
:100AC0002030C36260498162C3600D21C16180F83A
:100AD0003030426103F060FD002840F086800A2338
:100AE000009301230193042302936946544803F0C1
:100AF0007DFE00287CD10B23009302230193002369
:100B0000029369464E4803F071FE002873D10C230E
:100B10000093032301936946494803F067FE0028C8
:100B20006CD10D230093042301936946444803F0DC
:100B30005DFE002865D100230093052301936946DB
:100B40003F4803F053FE00285ED1012300930623A3
:100B5000019369463A4803F049FE002857D1022321
:100B60000093072301936946354803F03FFE0028B0
:100B700050D103230093082301936946304803F0C2
:100B800035FE002849D104230093092301936946C7
:100B90002B4803F02BFE002842D1052300930A23A3
:100BA00001936946264803F021FE00283BD1062325
:100BB00000930B2301936946214803F017FEA8BB5D
:100BC000072300930C23019369461D4803F00EFE92
:100BD00078BB0E2300930D2301936946184803F058
:100BE00005FE48BB05B05DF804FB02F091FA76E71C
:100BF00002F08EFA7FE702F08BFA88E702F088FABB
:100C00008FE702F085FA96E702F082FA9DE702F09C
:100C10007FFAA4E702F07CFAABE702F079FAB2E7D8
:100C200002F076FAB9E702F073FAC0E702F070FA60
:100C3000C6E702F06DFACCE702F06AFAD2E700BF2D
:100C40002C020020002001400100000FF0B589B007
:100C5000002303930493059306930793026803F11B
:100C6000804303F590339A4201D009B0F0BD0446A9
:100C70000025009503F58C335A6C42F480725A6457
:100C80005A6C02F480720092009A01951A6B42F03D
:100C900004021A631A6B02F004020192019A02958F
:100CA0001A6B42F001021A631B6B03F001030293FB
:100CB000029B1F2303930327049703AE3146144876
:100CC00004F0BCFAFF2303930497059531461148BD
:100CD00004F0B4FA1048114B036045608560C560AC
:100CE0004FF4806303614FF4006343614FF400539A
:100CF0008361C5614FF400330362456203F034FF42
:100D000018B9054BA3639C63AFE702F001FAF8E75B
:100D10000008024000000240CC01002010640240A4
:100D200008B5044B186818B16822034903F060FC49
:100D300008BD00BF4403002074020020704700007B
:100D400008B558B1074A106000231A460121064829
:100D500000F0F0F8012100F041F908BD034801F06E
:100D600069FBFAE744030020210D0008A0CE00082B
:100D700010B50C2802D8002319460FE00A4801F0EC
:100D800059FB00200EE003EB430203EB8202024416
:100D9000064C34F8122011FA82F10133072BF2D9F4
:100DA000C1F3CF0010BD00BFD0CE000874020020F8
:100DB00008B5FFF7DDFF07EE900AF8EE677AB1EEAF
:100DC000047A67EE877A9FED047A87EE870ADFED73
:100DD000037A30EE270A08BD00F07F4500000000CE
:100DE00008B508F094FC10B102684068904708BD4F
:100DF00008B54FF0E0231B6907F032FF012800D14E
:100E000008BD02F057FBFBE7EFF305832BB9064B58
:100E1000186828B901221A6070476FF00500704702
:100E20004FF0FF30704700BF000A0020EFF305834A
:100E300073B90A4B1B68012B0DD110B50024084B68
:100E4000DC77064B02221A6007F066FC204610BDD4
:100E50006FF0050070474FF0FF307047000A002028
:100E600000ED00E0F0B587B000240594EFF30584B1
:100E700004BBF8B1002A34D0156893692BB11E4623
:100E8000013B372B02D9002015E01826536813F0D8
:100E9000010F3FD1546984B14FEA940C93682BB190
:100EA000D7685B2F02D9176907B184B943B14FF0F6
:100EB000FF330BB3059807B0F0BD4FF0800CEDE7A2
:100EC000D368A3B91369ABB14FF0FF33F1E70293D5
:100ED000019700960B466246294607F0AFFB059046
:100EE000E8E71546002318264FF0800CE1E74FF0A5
:100EF000FF33DEE70023DCE705AB019300960B46EA
:100F00001FFA8CF2294607F0D4FB0128D2D0002327
:100F10000593CFE70020CEE708B5EFF3058333B99B
:100F200008B9002008BD07F059FD0020FAE76FF06E
:100F30000500F7E72DE9F04383B0EFF30587002FB5
:100F400043D10646894615461C4600283FD0082056
:100F500001F080FC804600283BD006604560B9F176
:100F6000000F00D0012704B32068A36813B1E26822
:100F70002B2A10D853B14FF0FF33DBB10024404689
:100F800001F0EAFC204603B0BDE8F083E3687BB1E2
:100F90004FF0FF33F1E701930F4B009343463A467E
:100FA000012108F0FFF904460CE020460023E4E7A5
:100FB0000023E2E7084B009343463A46012108F03C
:100FC000D5F90446002CDDD1D9E70024DAE7002466
:100FD000D8E70446D6E700BFE10D0008EFF305832C
:100FE0006BB90A4670B100B583B00093042108F0D4
:100FF00003FA012809D1002003B05DF804FB6FF06B
:10100000050070476FF0030070476FF00200F3E7D0
:1010100008B5EFF30583CBB9A0B1836813B1C268FB
:101020001F2A0BD82BB14FF0FF338BB901F063FAB5
:1010300008BDC36843B14FF0FF33F6E7184601F02F
:1010400035FAF5E70023F0E70023EEE70020EFE7AD
:101050000020EDE770B582B0EFF30583002B3AD1A5
:10106000144600283BD000293BD06AB393684BB1AB
:10107000D2684F2A06D9226922B101FB00F56669C0
:10108000AE421BD273B14FF0FF3363BB002202F0BC
:1010900032FC054605B304B124682146284602F017
:1010A0007FFE19E0E3688BB9236913B14FF0FF337A
:1010B000EBE763696BB14FF0FF33E6E7002500957E
:1010C00002F0CFFB0546E5E70023DEE74FF0FF33F4
:1010D000DBE70023D9E70025284602B070BD0025D4
:1010E000FAE70025F8E70025F6E710B582B01C46C0
:1010F000EFF30583C3B118B329B33CBB00230193BD
:1011000001AA02F0E0FC012823D1019850B14FF070
:10111000E0234FF08052C3F8042DBFF34F8FBFF38D
:101120006F8F002002B010BDB0B1C1B100232246C4
:1011300002F005FC012815D0B4B16FF00100F1E711
:101140006FF00300EEE76FF00300EBE76FF00300D2
:10115000E8E76FF00200E5E76FF00300E2E76FF009
:101160000300DFE70020DDE76FF00200DAE710B5EB
:1011700082B01C46EFF30583C3B110B321B334BB77
:101180000023019301AA02F0B4FD012822D10198A5
:1011900050B14FF0E0234FF08052C3F8042DBFF35D
:1011A0004F8FBFF36F8F002002B010BDA8B1B9B14F
:1011B000224602F0EFFC012815D0B4B16FF0010017
:1011C000F2E76FF00300EFE76FF00300ECE76FF07A
:1011D0000300E9E76FF00200E6E76FF00300E3E7E2
:1011E0006FF00300E0E70020DEE76FF00200DBE7CE
:1011F000034B0360034B0B6080231360704700BFF9
:10120000A4090020A4070020034B0360034B0B60DC
:101210004FF4807313607047480700204803002094
:101220002DE9F04383B00F4615468DF8070096B2BE
:1012300006F107081FFA88F8013676BA01220DF187
:10124000070100200AF010F82A4639460AF00CF887
:10125000040204F47F0444EA1064030A03F47F43A5
:101260001C4344EA0064DFF83090A9F800609DF860
:10127000073089F802302A46394609F103000AF09E
:10128000A3F8033549F805404146484609F002F8FD
:1012900003B0BDE8F08300BF240E002038B514462B
:1012A000012B07D04AB901224FF40051074804F03E
:1012B000B0F838BDFFF7B4FFF5E7054D28460AF052
:1012C00083F8A1B2284608F0E5FFECE700080240E9
:1012D000240E002010B58AB0002208210A20FFF752
:1012E000B9FE0B4B186001AC2422002120460AF005
:1012F00037F8084B01934FF4805306932823079344
:10130000224600210448FFF7ADFD0AB010BD00BF22
:1013100044120020F0CE00084D15000808B50378EF
:10132000433B102B32D8DFE803F021313109313152
:10133000293131313131313119311100002303228A
:1013400013491846FFF7AAFF012020E000231322CB
:1013500010491846FFF7A2FF012018E000231322CE
:101360000C491846FFF79AFF012010E000230122E4
:10137000FF211846FFF792FF012008E000231A46DC
:1013800019461846FFF78AFF012000E0002008BD3B
:10139000FCCE000800CF000801280CD808B58B1837
:1013A000B3F5965F00D908BD01230348014400202E
:1013B000FFF774FFF7E770474813002030B583B09C
:1013C00005460C46FFF7AAFF002840F0B280052C26
:1013D00021D8AB78423B352B00F2A680DFE803F042
:1013E0009B20A4A427A4A42EA4A4A4A4A452A435FE
:1013F000A43CA4A4A47BA4A4A4A4A4A4A4A4A4A43E
:10140000A4A4A4A443A4A4A4A461A4A4A4A4A4A440
:1014100059A4A4A4A48BA21FA91C09F025FFD8E7F6
:1014200001231A46FF210020FFF738FF81E0012346
:10143000032241490020FFF731FF7AE001231A46D9
:1014400000210846FFF72AFF73E0012313223B49DE
:101450000020FFF723FF6CE001231422374900200E
:10146000FFF71CFF65E002238DF800300423ADF880
:101470000130ADF803300123052269460020FFF753
:101480000DFF56E0012354222D490020FFF706FFEF
:101490004FE0B5F80520B5F803100020FFF77CFFFA
:1014A00047E04FF496522749002009F0DDFE0090F6
:1014B000030203F47F0343EA1063020A02F47F424B
:1014C000134343EA0063009301230422694600208A
:1014D000FFF7E4FE2DE0B5F80330B5F80520E91D6F
:1014E0001848184409F070FF0123002211461046E5
:1014F000FFF7D4FE1DE0B5F80330B5F80520E91D6F
:101500001048184409F060FF0123002211461046DC
:10151000FFF7C4FE0DE000F067FB01230022114637
:101520000420FFF7BBFE04E04FF40051064803F02F
:1015300076FF03B030BD00BFFCCE000800CF00082E
:10154000F0120020481300200008024000B583B0CC
:101550004FF0FF330022694605480068FFF707FE99
:101560000028F5D1BDF804100098FFF727FFEFE73A
:101570004412002008B508F013F9094BA3FB003012
:101580008009084BD86000F0C5FF4FF400510648B1
:1015900003F045FF4FF47A70FFF7BEFCEBE700BFA6
:1015A000D34D6210F01200200008024008B52DED66
:1015B000028B6420FFF7B0FC19E00120FFF7ACFCC0
:1015C000B0EE480A124800F055FEDFED127A38EE10
:1015D000278ADFED117AB4EEE78AF1EE10FAECD447
:1015E000B0EE678AB5EEC08AF1EE10FA02DC9FED2C
:1015F0000B8AEEE70120FFF78FFCB0EE480A0448A3
:1016000000F038FEDFED037A38EE678AEAE700BFC4
:10161000CC120020CDCCCC3D0000C8420000000020
:1016200008B50D4802F058FC0C4C84ED0A0A02F093
:1016300067FE84ED0E0A02F0C1FD84ED0F0A02F090
:1016400099FE84ED100A02F0B1FE84ED120A012029
:10165000FFF762FCE5E700BF5C000020F01200200D
:1016600008B56420FFF758FC084B094A02213C20CA
:1016700008F0AAFA9FED070A074B83ED000A08F06D
:10168000B7FA0120FFF748FCF4E700BF5012002032
:10169000019A00080000FA434812002010B52DED11
:1016A000028B002438E007EE901AB8EE677AF2EE6B
:1016B0000E7AC7EE276A9FEDB07A26EE077A27EEFC
:1016C000267AF3EE047A37EE277AAC4B01EB04125C
:1016D00003EB820080ED007A02F5907003EB80004E
:1016E00080ED007A68EE277AB2EE047A77EE877A98
:1016F00066EE876A77EEE67A02F5107003EB8000FB
:10170000C0ED007A02F5587203EB8203C3ED007A54
:1017100001310F29C7D901340F2C17D807EE904A91
:10172000B8EE677AF2EE0E7A87EE278A9FED940A7A
:1017300028EE000A0AF0C8FADFED927A20EE276A56
:10174000DFED917A36EE276A0021E2E7002222E0FF
:1017500041F2707302FB03F31B0907EE903AF8EEB7
:10176000677A864B02F5807103EB8101C1ED007A47
:1017700002F5087103EB8101C1ED007A02F55071A9
:1017800003EB8101C1ED007A02F58C6103EB81036B
:10179000C3ED007A01320F2ADAD9002325E007EEE3
:1017A000903AF8EE677A9FED797A67EE877A9FED47
:1017B000787A67EE877A714A03F5887102EB8101C6
:1017C000C1ED007A03F50C7102EB8101C1ED007AE5
:1017D00003F5547102EB8101C1ED007A03F58E61CE
:1017E00002EB8102C2ED007A01330F2BD7D9634996
:1017F00001F58053674AC3F800224FF08242C3F8D4
:1018000004226548C3F80802644AC3F80C22644AFB
:10181000C3F810224FF07C52C3F81422614CC3F875
:101820001842614CC3F81C42C3F820425F4CC3F815
:1018300024425F4CC3F82842C3F82C02C3F830227C
:101840005C4AC3F834225C48C3F838025B4CC3F8E6
:101850003C42C3F84022F3EE047AC3ED917A4FF094
:101860007E5EC3F848E20020C3F84C02C3F8500281
:10187000DFF858C1C3F854C2C3F85822C3ED977AB1
:10188000C3F860E2C3F86402C3F86802C3F86CC22C
:10189000C3F870224A4AC3F87422C3F87842494A0E
:1018A000C3F87C224848C3F88002C3F88442C3F8D6
:1018B00088224FF47A62A3F88C224FF41662A3F8C0
:1018C0008E2240F6B830A3F8900240F2A462A3F84A
:1018D0009222A3F89402A3F89622002283F8982279
:1018E00083F8992283F89A22012083F89B0283F8D7
:1018F0009C2283F89D2283F89E22042483F89F4231
:1019000083F8A022022483F8A14283F8A2220524AE
:1019100083F8A34283F8A42283F8A52283F8A622A1
:1019200083F8A72283F8A822032483F8A94283F826
:10193000AA2283F8AB2283F8AC2283F8AD0283F8A5
:10194000AE2283F8AF2283F8B02283F8B12283F865
:10195000B22283F8B32283F8B42283F8B52283F845
:10196000B62283F8B72201F596510022002341E9FF
:101970000223BDEC028B10BD00008C4248130020F6
:10198000D00F4940CDCC4C3FCDCC4C3E0000F04276
:101990000000803D0000C8430000204100002040BE
:1019A00000C05A450000704133336B410080BB4496
:1019B00000805444CDCCCC3D0000C8C20000C842D9
:1019C0000000DC420000BE420000B44200007F4341
:1019D00008B500F0AFFB08BD2DE9F047A6B05422D2
:1019E0000021634809F0BCFC624C4FF496552A462E
:1019F0000021204609F0B4FC2946204600F056FBA1
:101A000000287ED0FFF7E4FF5B4B53F8081C53F827
:101A1000043C5A4A202B08BF914278D1584807F01D
:101A200089FE5848FFF78CF9574C01230093032394
:101A300004F29B2294F89A12544807F07DFF94F820
:101A4000A612534802F0F4FB94F8A712514802F092
:101A500059FB94F8A812504802F0C8FA4F4801F018
:101A60007FF894F8AD32002B57D1FFF733FC1DAF50
:101A700024252A460021384609F072FC484B1D9364
:101A80004FF4806422943023239314AE2A4600211D
:101A9000304609F065FC434B149319944FF0180A33
:101AA000CDF868A00DF12C092A460021484609F01E
:101AB00057FC3D4B0B931094202311930DF1080814
:101AC0002A460021404609F04BFC384B029307940C
:101AD000CDF820A04A4600213548FFF7C3F9424619
:101AE00000213448FFF7BEF93A4600213248FFF79B
:101AF000B9F9324600213148FFF7B4F926B0BDE804
:101B0000F087FFF7CBFD2E4800F094FC7AE7FFF753
:101B1000C5FD2C4800F08EFC80E72B4C002584F896
:101B200020502A4F44F62063009308230C222849B2
:101B3000384600F048FA274E304601F059FB3B4644
:101B4000254A3146204600F03FFB9FED240A2046FF
:101B500000F090FB2B46224601212148FFF7EAF9CD
:101B6000204B1860002880D00121FFF737FA7CE76E
:101B7000F0120020481300200826002041F0B69BF8
:101B8000E46800202C02002048230020501200208E
:101B90009C120020841200207C12002000000020F3
:101BA00044CF000850CF00085CCF000868CF000881
:101BB000211600087515000861160008AD1500080B
:101BC00014CF00082CCF0008CC120020B412002043
:101BD0009C680020200000205C0000200000000025
:101BE000A12200084C12002008B5074B04A1D1E93E
:101BF000000143E9020100F0B1FA08BDAFF3008033
:101C000041F0B69B200000000826002008B50548DA
:101C1000054B036002F01CFF00B908BD01F078FA23
:101C2000FBE700BF08260020003002400268094B95
:101C30009A4200D0704782B000230193064B1A6B82
:101C400042F480521A631B6B03F480530193019B8F
:101C500002B070470030024000380240000000002F
:101C6000002800F03A812DE9F8430D461646044657
:101C70000768002F00F033811046FEF73BFC9AA363
:101C8000D3E90023FEF7CAFD804689463F68F86A1B
:101C9000FEF720FC42464B46FEF796FCFEF7A6FEFA
:101CA000FDB1012D7AD06368002B40F0D0807B63BA
:101CB000A368002B40F0D88023681B6800225A6379
:101CC000E368002B40F0E38023681B6800225A631E
:101CD0002369002B40F0EE8023681B6800225A63C2
:101CE0001BE0E3686BB122695AB1042B1AD0082BB0
:101CF0001BD000233B642369D3B923681B68DA6ACD
:101D00005A63A3683BBB23681B6800225A6363685D
:101D1000002B33D123681B68586366752575012035
:101D2000BDE8F8830023BB63E5E70023FB63E2E73C
:101D3000042B06D0082B09D023681B68DA6A1A64C2
:101D4000DFE723681B68DA6A9A63DAE723681B68AF
:101D5000DA6ADA63D5E7042B06D0082B09D02368AA
:101D60001B6800221A64D2E723681B6800229A636A
:101D7000CDE723681B680022DA63C8E7042B05D08F
:101D8000082B07D023681B681864C6E723681B6804
:101D90009863C2E723681B68D863BEE7E3686BB14A
:101DA00023695BB1042B16D0082B17D000233B64AA
:101DB000E368B3B923681B68DA6A5A6363681BBBBC
:101DC00023681B6800225A63A368002B2FD1236865
:101DD0001B685863A1E70023BB63E9E70023FB63AB
:101DE000E6E7042B06D0082B09D023681B68DA6AC3
:101DF0001A64E3E723681B68DA6A9A63DEE72368FC
:101E00001B68DA6ADA63D9E7042B06D0082B09D0FD
:101E100023681B6800221A64D6E723681B68002227
:101E20009A63D1E723681B680022DA63CCE7042BAE
:101E300005D0082B07D023681B6818646DE723685A
:101E40001B68986369E723681B68D86365E7042B00
:101E500004D0082B05D000233B6429E70023BB6393
:101E600026E70023FB6323E7042B06D0082B09D0C9
:101E700023681B6800221A6422E723681B6800227B
:101E80009A631DE723681B680022DA6318E7042BB6
:101E900006D0082B09D023681B6800221A6417E7B4
:101EA00023681B6800229A6312E723681B680022DC
:101EB000DA630DE7042B06D0082B09D023681B68D2
:101EC00000221A6429E723681B6800229A6324E72A
:101ED00023681B680022DA631FE700207047002098
:101EE0001EE700BFAFF300800000000000E06F407D
:101EF0000346002835D00268002A34D0416869B909
:101F0000126851639A68CAB91A681268002151634D
:101F100000225A7502229A7501207047042905D0C3
:101F2000082907D0126800211164EBE7126800212C
:101F30009163E7E712680021D163E3E7042A06D042
:101F4000082A09D01A68126800211164E0E71A68AB
:101F5000126800219163DBE71A6812680021D163DF
:101F6000D6E7002070470020704738B50546B9B164
:101F70000C46A1F57A739BB244F63822934201D9FC
:101F80004FF47A7404F09AFB002202FB0443B0FB86
:101F9000F3F3013BB3F5803F06D3013292B2F4E78D
:101FA000FFF7A6FF00200DE0296809688A622A6809
:101FB0001268D3622A68D3606A7D297D2846FFF7BC
:101FC0004FFE012038BD002851D010B5044600292D
:101FD0004FD00160426083600023C36003610375DA
:101FE0008375084604F05EFDBDF808102046FFF733
:101FF000BCFF6368ABB923681B6800225A63A368FF
:1020000013BB23681B6800225A636168206805F0CF
:1020100057F9A168206805F053F900236375012082
:1020200010BD042B06D0082B09D023681B680022A2
:102030001A64E4E723681B6800229A63DFE72368D9
:102040001B680022DA63DAE7042B06D0082B09D0DC
:1020500023681B6800221A64D7E723681B680022E4
:102060009A63D2E723681B680022DA63CDE7002079
:1020700070470020D4E7000000B583B00022019231
:10208000094B196B41F4800119631B6B03F4800346
:102090000193019B0521382002F0C6FC382002F094
:1020A000D3FC03B05DF804FB003802400246B8B12F
:1020B000C1B10D4B01205874052018744FF4003045
:1020C000986000F10060D860B1F5003F03D90020AE
:1020D000586018607047044B59601A6001207047BF
:1020E00000207047002070471026002010B586B0F1
:1020F00002F062FF002300930D4B1A7C0292012232
:1021000003925B7C01930223049305A9684603F0C4
:102110004BF828B9059BB3F1FF3F07D0002400E03E
:10212000002402F061FF204606B010BD0124F8E74C
:1021300010260020084B1A680AB1002306E07047F9
:102140000549C968C95C02F8011B013302494968A5
:102150009942F5D8704700BF1026002070B5194B82
:102160001C683CB3FFF7C2FF064620B302F024FF11
:102170000025144B5B68AB420CD9124BD9682288FE
:1021800000232944012002F069FF10B9023402350E
:10219000EFE700260B4B1A6800230A494968994269
:1021A00009D911780748C068C05C884207D101325C
:1021B0000133F2E7002602F017FF304670BD00261B
:1021C000F9E700BF1026002010B50446E8B1E2B1DF
:1021D000DBB18160C2604360002303611F4B4B6130
:1021E00083681F4A1A6183681E4ADA6183681E4A3F
:1021F0009A610123037090F8203023BB1B4A1368B7
:1022000043F48003136001200BE0194800F012F939
:1022100094F8203033B9154A136823F4800313600F
:10222000002010BD012B08D0104A136823F4800150
:10223000116023F440031360F2E70C4A136823F49F
:1022400000031360ECE7012B01D00120E9E7074A06
:10225000136843F4000313600120E2E700007F43AA
:1022600000007FC300007A4300007AC3F012002010
:1022700078CF0008B5EEC00AF1EE10FA0ADBDFED08
:10228000077AB4EEE70AF1EE10FA03D880ED040AFB
:102290000120704700230361002070470000C842FE
:1022A00030B52DED028B83B0044600284AD08368F8
:1022B000002B47D0C068002844D06368002B41D071
:1022C00001F00AFEB0EE408A84ED050A94ED040A9E
:1022D000A06800F096FFA56807F05AFA0146B0EE34
:1022E000480A284600F090FFB5EEC00AF1EE10FA59
:1022F000D4BF0121002194F82130002B6BD0DFEDF9
:10230000497A78EE677AF5EEC07AF1EE10FA39D4B0
:10231000B6EE007AF4EEC77AF1EE10FA4CBF012364
:102320000023002B3AD0B5EEC00AF1EE10FA33D4F8
:10233000D4ED077AF4EEC07AF1EE10FA2ED5B0EEB5
:10234000670A2BE094F820305BB9374A136823F40E
:1023500080031360354800F06DF803B0BDEC028BCC
:1023600030BD012B08D0304A136823F4800111607E
:1023700023F440031360EDE72B4A136823F40003B2
:102380001360E7E7BEEE007AF4EEC77AF1EE10FADA
:10239000CCBF01230023C4E79FED250AB5EEC08A18
:1023A000F1EE10FA26D4F6EE007AB4EEE78AF1EEFA
:1023B00010FA4CBF012300236BB1B5EEC00AF1EE59
:1023C00010FA21D4D4ED067AF4EEC07AF1EE10FAC8
:1023D00001D5B0EE670A6068B5EEC00AF1EE10FAFA
:1023E00016D4FCEEC07ACDED017A9DF80420FFF7FB
:1023F00037FCB2E7FEEE007AB4EEE78AF1EE10FAAF
:10240000CCBF01230023D7E760689FED090AE8E706
:10241000B1EE400AFCEEC07ACDED017A9DF80420C1
:10242000E5E700BF0000C842F012002098CF000886
:1024300000000000C0B170B59AB0064601AC64253A
:102440002A460021204608F08BFF3346074A2946DA
:10245000204608F04FFF2046FDF7A2FE81B220463D
:1024600007F018FF1AB070BD704700BFBCCF00085E
:10247000C0B170B59AB0064601AC64252A46002169
:10248000204608F06DFF3346074A2946204608F0EB
:1024900031FF2046FDF784FE81B2204607F0FAFEA8
:1024A0001AB070BD704700BFC8CF000880B110B52A
:1024B00082B0044620230193019B202B11D04FF0C2
:1024C000500383F31188BFF36F8FBFF34F8FFEE785
:1024D0004FF0500383F31188BFF36F8FBFF34F8F1B
:1024E000FEE7002340F8043B00F0B4FD012323770E
:1024F000204602B010BD38B5202000F0ABF90446EC
:1025000028B1002540F8045B00F0A4FD25772046A3
:1025100038BD000038B501F0F3FE274B93F8B13217
:102520004BB1254BD3ED9F7AF4EEC07AF1EE10FA61
:1025300010D5012200E000221F4B93F8B2325BB1AC
:102540001D4BD3EDA17AF4EEC07AF1EE10FA22D54C
:10255000012502E00022EFE70025184B5C8814F00B
:1025600001041AD1144622460421154802F051FFF5
:10257000ACB1124A136843F0400313602A464FF48B
:1025800080610F4802F045FF7DB10C4A136843F0AB
:102590008003136038BD0025DFE72546E3E7074ADF
:1025A000136823F040031360E8E7044A136823F03C
:1025B00080031360EEE700BF48230020F0120020E4
:1025C0000004024008B507F069FB6420FEF7A4FC94
:1025D0000120FEF7A1FCFBE708B5FFF7FDF9642039
:1025E000FEF79AFCFBE7000008B50A4A00210A48FA
:1025F000FEF738FC094B1860094A00210948FEF72C
:1026000031FC094B18600948FEF702FD084B1860C1
:1026100008BD00BF20D30008C52500084C260020B7
:10262000FCD20008D925000848260020ECD200087A
:10263000442600202DE9F0478AB005AD002405941A
:10264000069407940894099400944B4B1A6B42F03B
:1026500004021A631A6B02F004020092009A0194B9
:102660001A6B42F080021A631A6B02F08002019228
:10267000019A02941A6B42F001021A631A6B02F07B
:1026800001020292029A03941A6B42F002021A6348
:102690001A6B02F002020392039A04941A6B42F03E
:1026A00008021A631B6B03F008030493049BDFF812
:1026B000D0A022464FF47051504602F0AAFE2F4E91
:1026C00022464FF23F41304602F0A3FEDFF8B490BD
:1026D00022464FF40041484602F09BFEDFF8A880F6
:1026E00022460421404602F094FE4FF470530593B5
:1026F00001270697079408942946504602F09EFD4C
:102700004FF23F43059306970794089429463046B5
:1027100002F094FD4FF40043059306970794089444
:102720002946484602F08AFD04230593069707943C
:1027300008942946404602F081FD4FF480730593CA
:10274000069407942946304602F078FD4FF4007352
:1027500005934FF48813069307942946304602F0F8
:102760006DFD22460521172002F05EF9172002F0C8
:102770006BF90AB0BDE8F08700380240000402405F
:102780000008024000000240000C0240124A12F011
:10279000070F1ED0D11D21F00701C1F5705313445E
:1027A0000A460E480260002141601344083B23F0B2
:1027B00007030B48036059601960991A5160136050
:1027C000084B1960084B1960084B4FF000421A6023
:1027D00070474FF47053E4E770260020682600200D
:1027E000642600205C260020602600205026002061
:1027F000164B1A461B688342FBD3516802EB010C4F
:10280000844509D0416800EB010C634509D00360A1
:10281000904219D0106070474068014451601046E2
:10282000F0E710B40A4C2468A3420BD05B6819444B
:10283000416013681B680360904200D010605DF82F
:10284000044B70470460F7E7704700BF682600201C
:102850006426002038B5044605F0AAFF384B1B68F3
:10286000B3B1384B1B681C4250D1002C50D004F13E
:10287000080214F0070F02D022F007020832002AE3
:1028800055D0314B1B68934253D330490C6804E058
:10289000FFF77CFFE5E721461C466368934202D2BE
:1028A0002368002BF7D1264B1B68A34243D00D6849
:1028B000083523680B6063689B1A102B10D9A01889
:1028C00010F0070F08D04FF0500383F31188BFF3C7
:1028D0006F8FBFF34F8FFEE743606260FFF788FFA3
:1028E000626819490B689B1A0B60194909688B4289
:1028F00001D217490B60134B1B681343636000231D
:102900002360144A13680133136002E0002500E0DD
:10291000002505F0E7FF15F0070F0ED04FF050032C
:1029200083F31188BFF36F8FBFF34F8FFEE700254E
:10293000EFE70025EDE70025EBE7284638BD00BFAF
:1029400064260020502600206026002068260020F3
:102950005C26002058260020002834D038B50446D4
:10296000A0F1080550F8043C174A1268134208D138
:102970004FF0500383F31188BFF36F8FBFF34F8F76
:10298000FEE750F8081C41B14FF0500383F3118863
:10299000BFF36F8FBFF34F8FFEE723EA020340F8C8
:1029A000043C05F005FF54F8041C084A13680B4466
:1029B00013602846FFF71CFF054A136801331360B4
:1029C00005F090FF38BD704750260020602600209B
:1029D0005426002008B50B480B4B03600B4B43609B
:1029E00000238360C3604FF48042026143618361CE
:1029F000C361036202F02AFD00B908BD00F088FB44
:102A0000FBE700BF7062002000540040A086010078
:102A100030B589B00023039304930593069307937D
:102A20000268144B9A4201D009B030BD00250195CF
:102A3000114C236B43F002032363236B03F0020367
:102A40000193019BC0230393122304930323069352
:102A50000423079303A9094802F0F0FB0295236CB5
:102A600043F400132364236C03F400130293029BCA
:102A7000DAE700BF00540040003802400004024082
:102A800058B370B504464378032B02D80378032B60
:102A900008D9124A136843F4802313601048FFF7E3
:102AA000C9FC70BD0F4A0125D5544378D554007830
:102AB0000D4E336803EBC0012A46898853F8300075
:102AC00002F0A7FC6078336803EBC0012A468988CE
:102AD00053F8300002F09DFCE3E77047F01200204D
:102AE00000D00008D0620020D462002068B370B526
:102AF00004464378032B02D80378032B08D9134AE2
:102B0000136843F4802313601148FFF793FC70BDF2
:102B1000104A0025D5544378D55400780E4E3368BA
:102B200003EBC0012A46898853F8300002F071FC9B
:102B30006078336803EBC0012A46898853F8300077
:102B400002F067FC054B1D70E1E77047F0120020B2
:102B500000D00008D0620020D4620020C7620020AC
:102B600010B588B1614A1060614B93F89832ABB1EF
:102B7000012B50D05F4A136843F4802313605E48F2
:102B8000FFF758FC002010BD5A4A136843F4802315
:102B900013605A48FFF74EFC0020F4E7584B04221C
:102BA0001A70534B93F8A132022B18D0032B1ED06E
:102BB000012B26D1534B01221A705A709A70DA7089
:102BC0004F4B1B7807EE903AF8EE677ADFED4E6ACE
:102BD00086EEA77A474B83ED087A002462E0494BE2
:102BE00001221A70022159709970DA70E8E7454B9A
:102BF00001221A7003225A7004229A700222DA709B
:102C0000DEE73C4A136843F4802313603F48FFF734
:102C100011FC0020B7E73A4B06221A70344B93F8A8
:102C2000A132022B0CD0032B15D0012B24D1354B14
:102C300001221A705A709A70DA701A715A71BFE7CD
:102C4000304B01221A700221597003209870D870FD
:102C500019715A71B4E70222254B83F8A122294B3E
:102C6000012119705A7003209870D8701A71597127
:102C70002748FFF7FDFBA3E71E4A136843F48023B0
:102C800013602248FFF7D6FB00207CE7174B1B6838
:102C900003EBC402918853F8340002F0B3FB1D4BE0
:102CA00018550134032CF1D900240AE00F4B1B689E
:102CB00003EBC4010022898853F8340002F0A9FB19
:102CC0000134032CF2D90A4B93F8A2325BB1084BC2
:102CD00093F8A332082B01D8012054E70E48FFF7E0
:102CE000C7FB01204FE701204DE700BFD462002061
:102CF00048230020F0120020B4D0000818D00008AB
:102D0000C6620020C86200200000344440D00008A1
:102D100064D00008D0620020E0D0000808B52DED96
:102D2000028B0C4B93F85030032B05D00A4B93EDDC
:102D3000810ABDEC028B08BD06F056FEB0EE408A5B
:102D400001F086F9F0EE400AB0EE480A034805F0BB
:102D500029FAEEE7F012002048230020481C00204A
:102D6000AD4B93F8A132002B00F0548170B52DEDDE
:102D7000048B84B0F0EE408AB0EE608A0446A74B24
:102D8000D3ED087AF5EE407AF1EE10FA21D0A24B9D
:102D9000D3ED837AB6EE007AF4EEC77AF1EE10FA4C
:102DA00006DBB1EE007AF4EEC77AF1EE10FA2AD91A
:102DB000B6EE007AF4EEC77AF1EE10FA12D4B1EE64
:102DC000007AF4EEC77AF1EE10FA0DDDF0EE477AF4
:102DD0000AE01A461B6843F4802313609048FFF70B
:102DE00029FB0CE0F6EE007A8B4BC3ED837A8B4A1D
:102DF000136843F4802313608A48FFF71BFB04B079
:102E0000BDEC048B70BDFFF789FF844B83ED090A8D
:102E1000B5EEC00AF1EE10FA09D4DFED837AB4EE14
:102E2000E70AF1EE10FA04DDB0EE670A01E09FED6B
:102E30007F0A794BD3ED837A784BC3ED137A93ED08
:102E4000087AC8EE876AFCEEE66ACDED016A9DF865
:102E5000043006EE903AF8EEE66A66EE876A76EEA1
:102E6000C06A37EE267A8DED037A9DED037ADFEDA9
:102E7000706A67EEA67AB5EE408AF1EE10FA00F0BD
:102E8000AF80DFED6C6A68EE266ADFED6B5A86EE86
:102E9000A56A67EE867A77EE677ACDED027A6748A3
:102EA000C25C013AD2B266490A704A700233C35C0E
:102EB000013B4B70594B1B6813F0080F00F0A480C6
:102EC000DDED027A77EEE87AB2EE047AF4EEC77AB4
:102ED000F1EE10FA40F198805A4B1B78002B40F02D
:102EE0009380DDED027A77EEE87AF5EEC07AF1EEC6
:102EF00010FA40F38980DDED027A77EEE87AB5EEDC
:102F0000408AF1EE10FA6ED09FED4A7A28EE077AE9
:102F1000DFED496A86EE879ABCEEC99AB8EE499A07
:102F200067EE897AFCEEE77A17EE906A2644DDEDCB
:102F3000037A77EEE87A69EE277AFCEEE77A17EE05
:102F4000905A25443E4C22463F49304606F0B0FC9C
:102F500022463E49284606F0ABFC2F4B93F8A2329E
:102F6000002B43D001242C4B93F8A332A34245D924
:102F7000294BD3ED847AF4EEC87AF1EE10FA3DD401
:102F800007EE904AF8EE677A93ED857AD3ED836A7F
:102F900037EE267A67EE877A9FED257A67EE877A95
:102FA000FCEEE77AF8EE676A93ED867A29EE077A07
:102FB000F4EEC76AF1EE10FA20DA17EE903A1E44EA
:102FC0001D441F4A2149284606F072FC98B11C4A4C
:102FD0001D49304606F06CFC80B10134E4B2C2E712
:102FE0009FED126A55E79FED1A9A97E70B4B012266
:102FF00083F8522003E71248FFF778FD114B0122B6
:103000001A70064B83F85240044A136823F4802355
:103010001360F4E6704700BF48230020F012002040
:1030200014D1000830D10008000020420000000048
:1030300000007A440000B443C0E1644CC862002040
:10304000C4620020C7620020812A0008ED2A00081F
:103050000000000000F1080343604FF0FF3282607F
:10306000C36003610023036070470023036170475E
:1030700043684B609A688A60516099600861036890
:1030800001330360704730B40D68B5F1FF3F11D0D4
:1030900000F108031C465B681A68AA42FAD9636803
:1030A0004B6099608C606160086103680133036064
:1030B00030BC70470469F2E70369416882688A603E
:1030C000416851605A68824206D0002202611A6843
:1030D000013A1A601868704782685A60F5E7000084
:1030E00000BFB0F5007F00D0704708B5014806F07A
:1030F00087FC08BD5012002008B50268034B9A42B5
:1031000000D008BD01F088F9FBE700BF004801408E
:1031100072B6FEE710B594B008AC3022002120460C
:1031200008F01EF900230393049305930693079375
:1031300001931F4A116C41F080511164126C02F02E
:1031400080520192019A02931A490A6822F440427D
:1031500042F400420A600A6802F440420292029A73
:103160000222089201210B9110210C910E920F93D3
:1031700008231093C0221192062212921393204624
:1031800003F0A0F878B90F230393022104910023E0
:1031900005934FF480520692079303A803F0E2FAD6
:1031A00018B914B010BDFFF7B3FFFFF7B1FF00BFB0
:1031B000003802400070004008B501F013F9FFF735
:1031C000A9FFFFF737FAFEF757FF05F0AFFFFDF74E
:1031D00067FC05F025FF05F033FEFEF717FDFFF74E
:1031E000F9FBFDF711FEFFF7FFF9FDF71FFEFEE704
:1031F0000023036243628362C3620022026383632B
:10320000704780ED0D0A7047036BCB1A07EE903ABA
:10321000F8EE677A9FED397AC7EE876A90ED0D6A0E
:1032200036EE406AD0ED005A65EE865A90ED087A87
:10323000D0ED017AB6EE005A67EE857A67EEA67A8F
:1032400090ED0A5A35EE065A67EE857A77EE277AC0
:10325000C0ED087A90ED077AF4EEC77AF1EE10FA35
:1032600038DD80ED087AD0ED027A77EEA77A90ED1E
:103270000B7A30EE477A67EE877A90ED037A37EE75
:10328000077A37EE665AD0ED094A25EE245A77EED2
:10329000857AF1EE677A37EE267AC7EE876AC0ED57
:1032A000096AD0ED087A77EEA57A76EEA77AC0EDB6
:1032B0000E7A90ED057AF4EEC77AF1EE10FA13DD8E
:1032C00080ED0E7A80ED0A6A80ED0B0A016390EDC5
:1032D0000E0A704790ED067AF4EEC77AF1EE10FA16
:1032E000C1D580ED087ABEE790ED047AF4EEC77A96
:1032F000F1EE10FAE6D580ED0E7AE3E7002474498A
:1033000082B0002301930D4B1B68B3F1FF3F08D03F
:103310004FF0500383F31188BFF36F8FBFF34F8FCC
:10332000FEE74FF0500383F31188BFF36F8FBFF3B5
:103330004F8F019B002BFCD002B07047640000202F
:1033400008480068006880F308884FF0000080F3A8
:10335000148862B661B6BFF34F8FBFF36F8F00DF83
:1033600000BF000008ED00E0DFF80C00016841F448
:10337000700101607047000088ED00E04FF080733D
:1033800040F8043C21F0010140F8081C054B40F8CE
:103390000C3C40F8202C6FF0020340F8243C4438E9
:1033A000704700BF0133000800000000000000006B
:1033B000074B19680868B0E8F04F80F30988BFF33D
:1033C0006F8F4FF0000080F311887047AFF30080DB
:1033D000986800204FF0500383F31188BFF36F8F7C
:1033E000BFF34F8F0B4A136801331360012B00D0DA
:1033F00070474FF0E023D3F8043D13F0FF0FF7D0F0
:103400004FF0500383F31188BFF36F8FBFF34F8FDB
:10341000FEE700BF64000020094B1B6843B94FF072
:10342000500383F31188BFF36F8FBFF34F8FFEE715
:10343000013B034A13600BB983F31188704700BF47
:1034400064000020000000000000000000000000F8
:10345000EFF30980BFF36F8F154B1A681EF0100F42
:1034600008BF20ED108A20E9F04F10602DE9090017
:103470004FF0500080F31188BFF34F8FBFF36F8F71
:1034800005F0D2FA4FF0000080F3118809BC1968EA
:103490000868B0E8F04F1EF0100F08BFB0EC108ABB
:1034A00080F30988BFF36F8F704700BFAFF30080D0
:1034B0009868002008B54FF0500383F31188BFF3DC
:1034C0006F8FBFF34F8F05F081F928B14FF0E023E4
:1034D0004FF08052C3F8042D002383F3118808BDF8
:1034E0004FF0E022002313619361054B1B680549EF
:1034F000A1FB03139B09013B536107231361704731
:1035000070000020D34D62104FF0E023D3F8002D5F
:103510003D4B9A421CD04FF0E023D3F8002D3B4B9B
:103520009A421ED030B583B0394B1A78D2B201928C
:10353000FF221A701B78DBB28DF803309DF8033040
:1035400003F05003334A1370334B07221A601BE019
:103550004FF0500383F31188BFF36F8FBFF34F8F8A
:10356000FEE74FF0500383F31188BFF36F8FBFF373
:103570004F8FFEE7284A1368013B13609DF8033024
:103580005B00DBB28DF803309DF8033013F0800F41
:10359000F0D1214B1B68032B08D04FF0500383F36D
:1035A0001188BFF36F8FBFF34F8FFEE71B021A4ADC
:1035B000136003F4E0631360019BDBB2144A1370E1
:1035C0004FF0E024D4F8203D43F47003C4F8203DCC
:1035D000D4F8203D43F07043C4F8203DFFF780FF4E
:1035E00000250E4B1D60FFF7BFFED4F8343F43F0BB
:1035F0004043C4F8343FFFF7A3FE05F015FAFFF788
:103600007FFE284603B030BD71C20F4170C20F412A
:1036100000E400E0DC620020D862002064000020AA
:10362000EFF305830F2B0ED9114A9A5C114B1B78CF
:103630009A4208D24FF0500383F31188BFF36F8F83
:10364000BFF34F8FFEE74FF0E023D3F80C3D03F4B8
:10365000E063094A1268934208D94FF0500383F39C
:103660001188BFF36F8FBFF34F8FFEE7704700BF26
:10367000F0E300E0DC620020D862002010B50446D0
:10368000FFF7A8FEA26BE36B9A4204D00024FFF779
:10369000C3FE204610BD0124F9E710B50446FFF72C
:1036A00099FEA36B23B90124FFF7B6FE204610BD97
:1036B0000024F9E770B504461546866B026C5AB9CA
:1036C00003681BB100200136A66370BD806805F059
:1036D000D7FA0023A360F6E76DB9406807F074FEDF
:1036E0006368226C13446360A268934219D3236811
:1036F00063602846E7E7C06807F066FEE368226C6F
:1037000051429B1AE3602268934202D2A3680B44A1
:10371000E360022D01D00020D5E726B1013E002054
:10372000D1E72846CFE70020CDE70346026C6AB117
:1037300010B50846D9681144D9609C68A14201D3EC
:103740001968D960D96807F03FFE10BD704738B5D9
:103750000546FFF73FFE95F8454064B201E0013CA5
:1037600064B2002C0ADD6B6A43B105F1240005F058
:10377000DBF90028F3D005F06DFAF0E7FF2385F8B8
:103780004530FFF749FEFFF725FE95F8444064B247
:1037900001E0013C64B2002C0ADD2B6943B105F164
:1037A000100005F0C1F90028F3D005F053FAF0E756
:1037B000FF2385F84430FFF72FFE38BD38B5E0B160
:1037C0000D460446FFF706FE2368E26B216C01FB01
:1037D0000230A0600020A0636360013A02FB013365
:1037E000E360FF2384F8443084F84530FDB9236951
:1037F00063B9FFF711FE012038BD4FF0500383F38A
:103800001188BFF36F8FBFF34F8FFEE704F11000F5
:1038100005F08AF90028ECD04FF0E0234FF08052F9
:10382000C3F8042DBFF34F8FBFF36F8FE1E704F1AF
:103830001000FFF70FFC04F12400FFF70BFCD8E7A2
:1038400038B51D46049C0B4649B92460E0632364E7
:1038500001212046FFF7B2FF84F84C5038BD2260AA
:10386000F4E740B94FF0500383F31188BFF36F8F33
:10387000BFF34F8FFEE710B584B01C46844653B1AA
:1038800092B189B94FF0500383F31188BFF36F8F62
:10389000BFF34F8FFEE74FF0500383F31188BFF360
:1038A0006F8FBFF34F8FFEE76AB150230393039BE3
:1038B000502B13D04FF0500383F31188BFF36F8F59
:1038C000BFF34F8FFEE70029EFD04FF0500383F393
:1038D0001188BFF36F8FBFF34F8FFEE7039B012368
:1038E00084F8463000949DF818306046FFF7A8FF32
:1038F000204604B010BD40B94FF0500383F3118847
:10390000BFF36F8FBFF34F8FFEE7F0B583B00D4667
:103910001446064601FB00F05030FEF79BFF0746B9
:1039200050B1002380F846300090234600F1500249
:1039300029463046FFF784FF384603B0F0BDF0B5A6
:1039400085B0019288B10F461D460446B1B1022DE3
:1039500020D1E36B012B1DD04FF0500383F311886E
:10396000BFF36F8FBFF34F8FFEE74FF0500383F32A
:103970001188BFF36F8FBFF34F8FFEE7036C002BEF
:10398000E5D04FF0500383F31188BFF36F8FBFF37F
:103990004F8FFEE705F064F9064658B9019B002BEE
:1039A00048D04FF0500383F31188BFF36F8FBFF3FC
:1039B0004F8FFEE700263DE02A4639462046FFF7B6
:1039C00079FE636A7BB948B14FF0E0234FF0805233
:1039D000C3F8042DBFF34F8FBFF36F8FFFF71CFDAC
:1039E000012005B0F0BD04F1240005F09DF8002889
:1039F000F4D04FF0E0234FF08052C3F8042DBFF312
:103A00004F8FBFF36F8FE9E7FFF706FD0020E8E770
:103A100002A805F0CFF8012619E0002384F844300D
:103A200021E0002384F8453023E02046FFF78FFE95
:103A300004F058FFFFF7CEFCA26BE36B9A42BBD3B6
:103A4000022DB9D0019B002BDED0002EE0D0FFF775
:103A5000E3FC04F0ADFEFFF7BDFC94F8442052B245
:103A6000B2F1FF3FD9D094F8452052B2B2F1FF3FF6
:103A7000D7D0FFF7D1FC01A902A805F0A7F8D8B963
:103A80002046FFF7FBFD0028CFD0019904F110007C
:103A900005F016F82046FFF75AFE04F023FF002831
:103AA000C8D14FF0E0234FF08052C3F8042DBFF38C
:103AB0004F8FBFF36F8FBDE72046FFF748FE04F03E
:103AC00011FF00208DE72DE9F84390B10F4616460F
:103AD0001C460546B1B1022C20D1EB6B012B1DD049
:103AE0004FF0500383F31188BFF36F8FBFF34F8FF5
:103AF000FEE74FF0500383F31188BFF36F8FBFF3DE
:103B00004F8FFEE7036C002BE5D04FF0500383F39B
:103B10001188BFF36F8FBFF34F8FFEE7FFF780FD74
:103B2000EFF311884FF0500383F31188BFF36F8FC9
:103B3000BFF34F8FAA6BEB6B9A4206D3022C04D0D3
:103B4000002088F31188BDE8F88395F845904FFA76
:103B500089F9AB6B224639462846FFF7ABFDB9F130
:103B6000FF3F06D009F101035BB285F84530012023
:103B7000E7E76B6A0BB90120E3E705F1240004F0E5
:103B8000D3FF18B126B101203060DAE70120D8E771
:103B90000120D6E7F0B585B0019290B10F460446FA
:103BA000C1B105F05DF8064600BB019B002B5ED05D
:103BB0004FF0500383F31188BFF36F8FBFF34F8F24
:103BC000FEE74FF0500383F31188BFF36F8FBFF30D
:103BD0004F8FFEE7036C002BE3D04FF0500383F3CD
:103BE0001188BFF36F8FBFF34F8FFEE700263EE0D3
:103BF00039462046FFF799FD013DA563236923B9A6
:103C0000FFF70AFC012005B0F0BD04F1100004F03C
:103C10008BFF0028F4D04FF0E0234FF08052C3F820
:103C2000042DBFF34F8FBFF36F8FE9E7FFF7F4FB6E
:103C30000020E8E702A804F0BDFF012621E00023F0
:103C400084F8443029E0002384F845302BE02046F6
:103C5000FFF77DFD04F046FE09E02046FFF777FD03
:103C600004F040FE2046FFF718FD00283FD1FFF783
:103C7000B1FBA56B002DBBD1019B002BD6D0002E34
:103C8000D8D0FFF7C9FB04F093FDFFF7A3FB94F82E
:103C900044305BB2B3F1FF3FD1D094F845305BB212
:103CA000B3F1FF3FCFD0FFF7B7FB01A902A804F0A3
:103CB0008DFF0028D1D12046FFF7EFFC0028C6D0A9
:103CC000019904F1240004F0FBFE2046FFF73FFDBC
:103CD00004F008FE0028CAD14FF0E0234FF08052D4
:103CE000C3F8042DBFF34F8FBFF36F8FBFE70020E2
:103CF00089E72DE9F843B0B10D4690460446D9B1A5
:103D0000FFF78EFCEFF311874FF0500383F3118818
:103D1000BFF36F8FBFF34F8FA66BCEB9002087F331
:103D20001188BDE8F8834FF0500383F31188BFF387
:103D30006F8FBFF34F8FFEE7036C002BE0D04FF087
:103D4000500383F31188BFF36F8FBFF34F8FFEE7EC
:103D500094F844904FFA89F929462046FFF7E5FC8C
:103D6000731EA363B9F1FF3F06D009F101035BB2F3
:103D700084F844300120D2E723690BB90120CEE753
:103D800004F1100004F0D0FE30B1B8F1000F05D0FE
:103D90000120C8F80000C2E70120C0E70120BEE70B
:103DA0000023072B0CD8074A52F833200AB10133FD
:103DB000F7E7044A42F8331002EBC3025060704741
:103DC000704700BFE062002070B504460D461646FD
:103DD000FFF700FB94F844305BB2B3F1FF3F0DD026
:103DE00094F845305BB2B3F1FF3F0BD0FFF714FB03
:103DF000A36B5BB12046FFF7AAFC70BD002384F8DB
:103E00004430EDE7002384F84530EFE73246294699
:103E100004F1240004F06CFEECE7000008B520B1CA
:103E200080ED010A0170027208BD0248FEF702FB34
:103E3000FAE700BF50D1000810B582B00446007AFE
:103E4000FCF7B6FF8DED010A9DED017AF5EE007AE3
:103E5000B4EEE77AF1EE10FA2FDB9DED017AF1EE88
:103E6000037AB4EEE77AF1EE10FA2AD82378ABB1F0
:103E7000DDED017AF5EE407AF1EE10FA24D09DEDF9
:103E8000017AF1EE047A77EEC77A94ED017A67EE63
:103E9000877A9DED017A87EE870A10E094ED017A2A
:103EA000DDED017A27EE277ADDED016AF1EE047A85
:103EB00077EEE67A87EE270A01E09FED050A02B069
:103EC00010BD9FED030AFAE79FED020AF7E700BF76
:103ED0000000C07F0000807F10B5002843D004465A
:103EE000038813B94388002B43D02079FCF740FFA7
:103EF00007EE900AA379002B48D0F8EE677A228863
:103F000007EE102AF8EE476A638807EE103AB8EE1B
:103F1000477A9A4257D077EEE67A9FED2F6A67EE9E
:103F2000867A37EE667A87EE870ADFED2C7A30EEF6
:103F3000270AB5EEC00AF1EE10FA4AD4DFED267A70
:103F4000B4EEE70AF1EE10FA01DDB0EE670A63792C
:103F50001F2B07D822480268012101FA03F322EA45
:103F60000302026010BD1F48FEF764FA9FED1E0AAF
:103F7000F8E743791F2B06D819480268012101FA96
:103F800003F31A4302609FED180AEBE7F8EE677A35
:103F9000628807EE102AF8EE476A238807EE103A87
:103FA000B8EE477A9A4211D077EEE67A9FED0A6A28
:103FB00067EE867A37EE667A87EE870ADFED077A54
:103FC00030EE270AB5E79FED050AB7E79FED030A34
:103FD000B4E79FED020ABAE70000C8420000000003
:103FE000F012002068D100080000C07F08B590B131
:103FF0000346A1B101291FD16422028040F6B832E4
:104000004280052202710F490A6822F400420A60C8
:104010000D4A136008BD0D48FEF70CFAFAE70022BE
:10402000028040F6FF7242800522027105490A684B
:1040300022F400420A60EBE702490A6842F40042B7
:104040000A60E5E7F01200202863002074D1000820
:1040500008B5274B1B681A880AB95A88A2B3187981
:10406000FCF786FE07EE900AF8EE677A204B1B6895
:104070001A8807EE102AF8EE476A5B8807EE103AB6
:10408000B8EE477A9A4227D077EEE67A9FED196A22
:1040900067EE867A37EE667A87EE870ADFED167A64
:1040A00030EE270AB4EEE70AF1EE10FA17DBDFED87
:1040B000137AB4EEE70AF1EE10FA10D8104A13683A
:1040C00023F40043136008BD0D4A136843F4004312
:1040D00013609FED090AF6E79FED070AE7E7084A34
:1040E000136843F4004313609FED030AEBE700BF3E
:1040F000286300200000C842000000000000F042D9
:10410000F012002070B58AB0044611B3012942D1E3
:10411000062200219FED230AFFF780FE04AD224E08
:104120000FCE0FC596E8030085E803000AAB13E93C
:1041300007008DE8070004AB0ECB204604F0E8FD35
:104140001A4B1C601A4A136823F4003313600AB038
:1041500070BD062200219FED170AFFF75FFE0DF1EB
:10416000100C154D0FCDACE80F0095E803008CE85E
:1041700003000AAB13E907008DE8070004AB0ECB80
:10418000204604F0C5FD094B1C60094A136823F45E
:1041900000331360DBE7064A136843F4003313600F
:1041A000D5E700BF00401C4658CE0008246300201D
:1041B000F012002000E0924570CE000808B5164BC2
:1041C0001868A8B104F018FEDFED147AB4EEE70A1F
:1041D000F1EE10FA17DBDFED127AB4EEE70AF1EE3A
:1041E00010FA10D80F4A136823F40033136011E05B
:1041F0000D48FEF71FF90B4A136843F400331360B0
:104200009FED0A0A06E0074A136843F4003313607F
:104210009FED060A08BD00BF24630020000048C2CD
:1042200000007A43F012002088D1000800002042EC
:1042300070B58AB020B3044659B301294BD1072287
:1042400000219FED280AFFF7E9FD04AD264E0FCEB1
:104250000FC596E8030085E803000AAB13E90700E1
:104260008DE8070004AB0ECB204604F051FD1F4B38
:104270001C601F4A136823F4803313600AB070BDBA
:104280001C48FEF7D7F81A4A136843F480331360CA
:10429000F4E7072200219FED180AFFF7BFFD0DF19B
:1042A000100C164D0FCDACE80F0095E803008CE81C
:1042B00003000AAB13E907008DE8070004AB0ECB3F
:1042C000204604F025FD094B1C60094A136823F4BD
:1042D00080331360D2E7064A136843F480331360D7
:1042E000CCE700BF00401C4688CE000820630020B9
:1042F000F01200209CD1000800E0924570CE00082A
:1043000008B5164B1868A8B104F076FDDFED147AF5
:10431000B4EEE70AF1EE10FA17DBDFED127AB4EE35
:10432000E70AF1EE10FA10D80F4A136823F480332D
:10433000136011E00C4A136843F4803313600B4898
:10434000FEF778F89FED0A0A06E0074A136843F47F
:10435000803313609FED060A08BD00BF2063002074
:10436000000048C200007A43F01200209CD10008EF
:104370000000704208B50020FCF7FAFC07EE900A36
:10438000F8EE677A9FED067A67EE877A9FED057AF9
:1043900087EE870ADFED047A80EE270A08BD00BFAA
:1043A0003333534000F07F456AF72B3808B50920B6
:1043B000FCF7DEFC07EE900AF8EE677A9FED067ACE
:1043C00067EE877A9FED057A87EE870ADFED047A3C
:1043D00020EE270A08BD00BF3333534000F07F456D
:1043E0006666264108B50B4B1A6842F400721A60E3
:1043F0001A6842F480621A601A6842F480721A6085
:10440000032000F0FFFA0F2003F036F801F0FCF86B
:10441000002008BD003C0240034A1168034B1B7892
:104420000B441360704700BF2C630020680000201D
:10443000014B1868704700BF2C63002038B5044654
:10444000FFF7F6FF0546B4F1FF3F02D0044B1B789F
:104450001C44FFF7EDFF401BA042FAD338BD00BF5C
:10446000680000204A4B5A6822F440325A605A6869
:1044700041680A435A600268536823F480735360AA
:1044800002685368016943EA012353600268536874
:1044900023F0407353600268536881680B43536094
:1044A0000268936823F40063936002689368C168AC
:1044B0000B439360826A374B9A4257D002689368E5
:1044C00023F07063936002689368816A0B43936082
:1044D0000268936823F04053936002689368C16A4E
:1044E0000B4393600268936823F0020393600268B1
:1044F0009368017E43EA4103936090F82030002BDB
:104500003FD00268536843F4006353600268536805
:1045100023F46043536001684B68426A013A43EAFE
:1045200042334B600268D36A23F47003D36201689C
:10453000CB6AC269013A43EA0253CB6202689368CC
:1045400023F4007393600268936890F8301043EA94
:10455000412393600268936823F480639360026848
:104560009368416943EA81239360704702689368C6
:1045700023F0706393600268936823F04053936064
:10458000B0E70268536823F400635360CAE700BFD2
:10459000002301400100000F38B310B50446036C3E
:1045A00043B1236C13F0100F0BD00120002384F8CB
:1045B0003C3010BDFCF74AFB0023636484F83C30B8
:1045C000EFE7236C23F4885323F0020343F0020344
:1045D00023642046FFF746FF00206064236C23F02D
:1045E000030343F001032364E0E701207047000068
:1045F00010B582B013460022019290F83C20012AA7
:1046000000F094800446012280F83C200268906803
:1046100010F0010F13D1906840F001009060464AFD
:104620001068464AA2FB0020800C00EB400001907D
:1046300002E001980138019001980028F9D1226820
:10464000906810F4807F03D0906820F480709060B0
:104650002268906810F0010F5DD0206C20F4E060BB
:1046600020F0010040F480702064526812F4806FE2
:1046700005D0226C22F4405242F480522264226C13
:1046800012F4805F34D0626C22F006026264002271
:1046900084F83C20A26B2A48D063A26B294810649E
:1046A000A26B2948D06422686FF022001060206855
:1046B000426842F0806242602068826842F4807200
:1046C000826020680A4600F14C01A06B00F0B2FA4B
:1046D0001E4B5B6813F01F0F0DD123689A6812F010
:1046E000405F25D19A6842F080429A6000201BE02A
:1046F00000226264CBE72368154A934201D0002070
:1047000012E09A6812F0405F14D19A6842F0804239
:104710009A60002008E0236C43F010032364636C6C
:1047200043F001036364002002B010BD0220FBE7E8
:104730000020F9E70020F7E77000002083DE1B432C
:1047400079470008574700086347000800230140E5
:1047500000200140704708B5806BFFF7FBFF08BDE4
:10476000704708B5806B40230364436C43F0040337
:104770004364FFF7F5FF08BD08B50346806B026C84
:1047800012F0500F25D1036C43F4007303640368E7
:104790009A6812F0405F19D1027EBAB9DA6A12F44F
:1047A000700F03D09A6812F4806F0FD15A6822F00C
:1047B00020025A60036C23F480730364036C13F4C7
:1047C000805F03D1036C43F001030364FCF7B6FA86
:1047D00008BD026C12F0100F04D1826BD26C184627
:1047E0009047F5E7FFF7BCFFF2E7000030B482B076
:1047F0000022019290F83C20012A00F0B680034686
:10480000012280F83C200A68092A40D90468E0683F
:1048100092B202EB42021E3A4FF0070C0CFA02F27F
:1048200020EA0202E2601C68E0680A8802EB4202A9
:104830001E3A8D6805FA02F20243E2604A68062ACF
:104840003CD81C68606B02EB8202053A4FF01F0CEB
:104850000CFA02F220EA020262631C68606B4A688A
:1048600002EB8202053AB1F800C00CFA02F20243F0
:10487000626318683E4A904250D018683C4A9042A1
:1048800055D0002083F83C0002B030BC704704686B
:10489000206992B202EB42024FF0070C0CFA02F2CE
:1048A00020EA020222611C6820690A8802EB4202A7
:1048B0008D6805FA02F202432261BFE70C2A16D87E
:1048C0001D68286B02EB8202233A1F2404FA02F2CD
:1048D00020EA02022A631D68286B4A6802EB820202
:1048E000233A0C8804FA02F202432A63C1E71D68E6
:1048F000E86A02EB8202413A1F2404FA02F220EA3B
:104900000202EA621D68E86A4A6802EB8202413AE2
:104910000C8804FA02F20243EA62AAE70A68122A41
:10492000ABD11448426842F480024260A5E70A68AD
:10493000103A012AA5D80F48426842F400024260AA
:104940000A68102A9DD10C4A12680C49A1FB021278
:10495000920C02EB82025200019202E0019A013AAB
:104960000192019A002AF9D18BE702208CE700BF5F
:1049700000200140002301407000002083DE1B4323
:10498000002807DB00F01F02400901239340024A80
:1049900042F82030704700BF00E100E0002808DB4B
:1049A0000901C9B200F1604000F5614080F80013D0
:1049B000704700F00F000901C9B2014B195470474C
:1049C00014ED00E000B500F00700C0F1070CBCF1E9
:1049D000040F28BF4FF0040C031D062B0FD9C31E74
:1049E0004FF0FF3E0EFA0CF021EA000199400EFA5A
:1049F00003FE22EA0E0241EA02005DF804FB0023F6
:104A0000EEE70000074AD36823F4E0631B041B0CA5
:104A1000000200F4E060034343F0BF6343F400335B
:104A2000D360704700ED00E010B50446054BD86830
:104A3000C0F30220FFF7C6FF01462046FFF7AEFF96
:104A400010BD00BF00ED00E008B5FFF799FF08BDFD
:104A500058B110B5044643791BB10123637100209E
:104A600010BD0371FDF7E2F8F7E70120704730B49D
:104A700005682C6824F480242C60046863608368D3
:104A8000402B05D0036899600368DA6030BC70473A
:104A900003689A600368D960F8E7000010B40368FF
:104AA000D9B210390A4AA2FB01421209094CA25C90
:104AB000C2655F2907D96FF3090304338365806DED
:104AC0005DF8044B70476FF309038365F7E700BF98
:104AD000ABAAAAAA44D30008836A826992B9012BBF
:104AE0000AD0022B02D00BB100207047C36A13F02A
:104AF000807F28D100207047C36AB3F1C07F24D0E3
:104B000000207047B2F5005F09D0022B25D9032B96
:104B100025D1C36A13F0807F23D100207047032B77
:104B200003D8DFE803F01404140A00207047C36AB6
:104B300013F0807F0DD100207047C36AB3F1C07FAE
:104B400009D00020704701207047012070470120E4
:104B500070470120704701207047012070470020F6
:104B6000704701207047000070B50446FFF760FCF5
:104B7000002C5BD00546022384F83530002384F8EE
:104B800034302268136823F00103136023681A6825
:104B900012F0010F0AD0FFF74BFC431B052BF5D990
:104BA00020236365032084F8350070BD1A6820490E
:104BB00011406268A0680243E06802432069024332
:104BC00060690243A0690243E0690243206A02432C
:104BD0000A43616A04291ED01A602668756925F0A7
:104BE0000705636A1D43042B07D1A36A1D43E36ACB
:104BF0001BB12046FFF770FF90B975612046FFF7A3
:104C00004DFFE26D3F2393408360002060650123E8
:104C100084F83530C9E7E16A206B01430A43DBE7DA
:104C200040236365012084F83500BEE70120BCE71E
:104C30003F8010F038B50446856D90F834000128A7
:104C40002AD0012084F8340094F83500012804D0DB
:104C5000002384F83430022038BD022084F8350067
:104C6000002060652046FFF702FFE26D3F2393407E
:104C7000AB602268136843F016031360236C23B102
:104C80002268136843F0080313602268136843F036
:104C9000010313600020DFE70220DDE7F0B583B0F9
:104CA000044600230193724B1D68724BA3FB05352C
:104CB000AD0A876D3E68C26D08239340334210D021
:104CC00003681A6812F0040F0BD01A6822F004026D
:104CD0001A60C26D08239340BB60436D43F001032B
:104CE0004365E26D01239340334209D02268526943
:104CF00012F0800F04D0BB60636D43F00203636564
:104D0000E26D04239340334209D02268126812F006
:104D1000020F04D0BB60636D43F004036365E26D72
:104D200010239340334224D02268126812F0080FF7
:104D30001FD0BB6023681A6812F4802F0DD01B6847
:104D400013F4002F04D1236C9BB12046984710E048
:104D5000A36C73B1204698470BE01A6812F4807F69
:104D600003D11A6822F008021A60236C0BB12046A6
:104D70009847E26D20239340334254D02268126852
:104D800012F0100F4FD0BB6094F83530052B0ED0C9
:104D900023681A6812F4802F33D01B6813F4002F95
:104DA0002AD1636C002B3ED0204698473BE0226816
:104DB000136823F0160313602268536923F08003FD
:104DC0005361236CA3B12268136823F008031360B6
:104DD000E26D3F239340BB60012384F8353000230C
:104DE00084F83430236D002B3FD0204698473CE0B8
:104DF000A36C002BE7D1EBE7E36BA3B12046984708
:104E000011E01A6812F4807F09D11A6822F01002AA
:104E10001A60012384F83530002384F83430E36BC2
:104E20000BB120469847636DFBB1636D13F0010F22
:104E300017D0052384F835302268136823F0010366
:104E40001360019B01330193AB4204D823681B68B4
:104E500013F0010FF5D1012384F83530002384F8D5
:104E60003430E36C0BB12046984703B0F0BD00BF6F
:104E700070000020B5814E1B10B40A490C6924F45F
:104E800040740C610C6944F440740C610C6944F08A
:104E900001040C610260BFF36F8F43605DF8044B47
:104EA000704700BF003C0240074B1A6922F4407271
:104EB0001A611A6942F400721A611A6942F0010219
:104EC0001A610160704700BF003C0240074B1A693D
:104ED00022F440721A611A6942F480721A611A69E6
:104EE00042F001021A610180704700BF003C02409D
:104EF000064B1A6922F440721A611A691A611A691A
:104F000042F001021A610170704700BF003C02408C
:104F1000274BDB6813F0100F07D0264AD36943F004
:104F20001003D361224B1022DA60214BDB6813F0AF
:104F3000200F07D01F4AD36943F00803D3611C4BED
:104F40002022DA601A4BDB6813F0400F07D0194AB1
:104F5000D36943F00403D361154B4022DA60144B4C
:104F6000DB6813F0800F07D0124AD36943F00203C5
:104F7000D3610F4B8022DA600D4BDB6813F4807F26
:104F800008D00C4AD36943F00103D361084B4FF4B6
:104F90008072DA60064BDB6813F0020F07D0054A17
:104FA000D36943F02003D361014B0222DA607047DA
:104FB000003C024030630020094B1B69002B01DBE1
:104FC00000207047064B074A5A6002F188325A6047
:104FD0001B69002B01DB002070470120704700BFD8
:104FE000003C024023016745034A136943F0004334
:104FF00013610020704700BF003C024038B50446F2
:10500000144B0022DA61FFF713FA0546124BDB68F6
:1050100013F4803F0AD0B4F1FF3FF7D024B1FFF77B
:1050200007FA401BA042F1D903200DE00A4BDB68D0
:1050300013F0010F02D0084B0122DA60064BDB6847
:1050400013F4F97F01D1002038BDFFF761FF012083
:10505000FAE700BF30630020003C0240F8B5164676
:105060001B4A127E012A30D004460D461F46184BBB
:1050700001221A764CF25030FFF7C0FF90B9ACB164
:10508000012C18D0022C1BD032463B462846FFF795
:10509000F3FE4CF25030FFF7B1FF0E4A136923F0D4
:1050A000010313610A4B00221A76F8BDF1B22846BB
:1050B000FFF71EFFEDE7B1B22846FFF707FFE8E76D
:1050C00031462846FFF7F0FEE3E70220EDE700BF98
:1050D00030630020003C0240074B1A6922F4407202
:1050E0001A611A6942F004021A611A6942EA00223E
:1050F00042F480321A617047003C0240012905D019
:10510000022906D039B14FF4407104E04FF48071A8
:1051100001E04FF400710B4B1A6922F440721A61DE
:105120001A690A431A611A6922F0F8021A611A69A7
:1051300042EAC00040F0020018611A6942F480326D
:105140001A617047003C0240164B1B6813F4007F45
:1051500010D0144B1A6822F400721A601A6842F4D4
:1051600000621A601A6822F400621A601A6842F437
:1051700000721A600B4B1B6813F4806F10D0094B40
:105180001A6822F480621A601A6842F480521A6027
:105190001A6822F480521A601A6842F480621A6017
:1051A000704700BF003C0240F8B5224B1B7E012B2C
:1051B0003ED004460E461F4B01221A764CF2503068
:1051C000FFF71CFF074670BB4FF0FF3333602368C7
:1051D000012B16D0A568E368A2681344AB4220D91E
:1051E000217C2846FFF78AFF4CF25030FFF706FF7C
:1051F000114A136923F0FA031361074680B9013598
:10520000E9E76168207CFFF767FF4CF25030FFF759
:10521000F5FE0746084A136923F00403136100E012
:105220003560FFF791FF034B00221A763846F8BD30
:105230000227FBE730630020003C024000230F2BD5
:1052400000F2D78070B582B065E085684FEA430E02
:10525000032404FA0EF425EA0405CC6804FA0EF4DB
:105260002C438460446824EA02044A68C2F30012B2
:105270009A40224342605CE0DC08083450F8242065
:1052800003F00705AD004FF00F0E0EFA05FE22EAFF
:105290000E0E0A69AA4042EA0E0240F824205CE0A1
:1052A000042200E0002202FA0EF22A430234514D99
:1052B00045F82420504A94686FEA0C0224EA0C0551
:1052C0004E6816F4801F01D04CEA04054A4CA560D4
:1052D000E46802EA04054E6816F4001F01D04CEAA7
:1052E0000405454CE560646802EA04054E6816F45E
:1052F000003F01D04CEA04053F4C65602468224021
:105300004D6815F4803F01D04CEA04023A4C22600B
:1053100001330F2B6BD801229A400C6804EA020C6F
:1053200032EA0404F4D14C6804F00304013C012C7B
:105330008BD94A6802F00302032A09D0C4685D00D1
:105340000322AA4024EA02048A68AA402243C260D7
:105350004A6802F00302022A8ED004684FEA430E24
:10536000032202FA0EF224EA02044A6802F003025F
:1053700002FA0EF2224302604A6812F4403FC7D09C
:10538000002201921D4A546C44F480445464526CCF
:1053900002F480420192019A9C08A51C154A52F819
:1053A000255003F0030E4FEA8E0E0F2202FA0EF282
:1053B00025EA0205124A90423FF474AF02F580627A
:1053C00090420ED002F5806290420CD002F58062CD
:1053D00090420AD002F5806290423FF461AF07220A
:1053E00061E701225FE702225DE703225BE702B08B
:1053F00070BD704700380140003C01400038024059
:10540000000002400369194201D0012070470020CA
:1054100070470AB18161704709048161704743692F
:1054200001EA030221EA030141EA02418161704776
:1054300008B5054B5B69034200D108BD024B5861BA
:10544000FDF74EFEF9E700BF003C0140002800F0E8
:10545000CC8070B5044690F83D30002B77D02423E3
:1054600084F83D302268136823F00103136022683A
:10547000136843F4004313602268136823F4004365
:10548000136001F025FA62685A4B9A4264D85A4B6D
:1054900098428CBF00230123002B40F0A88057497D
:1054A000A1FB00318B0C25686A6822F03F0242EABA
:1054B00091426A6021680A6A22F03F0266684D4D97
:1054C000AE424FD8013313430B622168CA6922F4FC
:1054D0004F4222F0FF026568464B9D424CD8431E66
:1054E0006D00B3FBF5F3013340F6FC70034278D056
:1054F000C3F30B031A43CA6121680B6823F0C0038E
:10550000E269206A024313430B6021688B6823F42D
:10551000034323F0FF032269E068024313438B60D7
:105520002168CB6823F0FF036269A069024313433B
:10553000CB602268136843F00103136000202064ED
:10554000202384F83D30206384F83E0070BD80F84D
:105550003C30FDF75DFA82E7294B98428CBF00236F
:10556000012399E74FF4967505FB03F3254DA5FB41
:1055700003539B090133A6E7A668BEB9431E05EB9A
:10558000450CB3FBFCF30133C3F30B03B3FA83F312
:105590005B0943BBC6B9431E05EB4505B3FBF5F3F9
:1055A0000133C3F30B0343F40043A3E7431E05EBAE
:1055B000850C0CEB8C0CB3FBFCF30133C3F30B0336
:1055C000B3FA83F35B09E4E7431E05EB850505EBBE
:1055D0008505B3FBF5F30133C3F30B0343F44043F9
:1055E00088E7042386E7012384E701207047012030
:1055F000ACE700BFA08601007F841E0083DE1B4352
:10560000FF083D00D34D621000B583B00022009228
:105610000D4B596C41F480415964596C01F480413F
:10562000009100990192196C41F0805119641B6C32
:1056300003F080530193019B0F216FF00100FFF7EE
:10564000F3F903B05DF804FB003802402DE9F043A4
:1056500083B0D0F8008001EBC10300EB83039A6AAA
:105660005B6A9A4254D807460C469B1A01EBC1026A
:1056700000EB8202D2699A4200D31A4602F1030972
:105680004FEA990915E006F103094FEA9909BB7938
:1056900004EBC40507EB8505296A0093B3B2E2B2B7
:1056A000404602F0CCFA2B6A33442B62AB6A334497
:1056B000AB6208EB441303F510639B699BB24B4547
:1056C00012D304EBC40307EB83039A6A5B6A9A4222
:1056D0000AD24BB19B1A04EBC40207EB8202D669D3
:1056E0009E42D0D31E46CEE704EBC40307EB8307EC
:1056F0007A6ABB6A9A420FD804F00F040122A240D2
:10570000D8F8343823EA0203C8F83438002000E01F
:10571000012003B0BDE8F0830020FAE730B583B084
:1057200000287AD00446056890F89534C3B1032365
:1057300084F89534B5F1A04F17D0206802F030F806
:10574000237C8DF80030231D0ECB206801F067FF0D
:1057500070B1022384F895340125284603B030BD8A
:1057600080F8943404F0ACFDE1E70023A371E4E792
:105770000021206802F079FC0246B8B9034620797E
:10578000984218D903EBC30104EB8101012048754D
:105790000B75CB8500200876C861086203EBC30156
:1057A00004EB810148620133DBB2E8E7022384F8AD
:1057B00095340125D1E7904217D902EBC20304EBDF
:1057C0008303002183F8551283F8542283F858127A
:1057D000C3F85C12C3F8601202EBC20304EB83034C
:1057E000C3F864120132D2B2E5E7237C8DF80030B1
:1057F000231D0ECB206802F029F8054620B10223B4
:1058000084F895340125A8E700236374012384F804
:105810009534206802F0E8FB9FE701259DE70368C7
:1058200090F89424012A1AD010B50446012280F879
:105830009424DA6812F0400F02D0427B012A09D08A
:10584000206801F0A7FF206802F0C0FB002084F868
:10585000940410BD9A6B42F480329A63F0E7022000
:105860007047000070B504460D460068066C00EBFA
:10587000411303F530639A68A179012911D03849A1
:105880008E4256D03DB905EBC50304EB8303D3F834
:105890006432002B5ED0E9B2204604F05DFD0020AA
:1058A00070BD12F0080F09D02E498E42F7D912F4BC
:1058B000004FF4D04FF400429A60F0E712F0200F4E
:1058C00002D020229A60EAE712F0280FE7D125499A
:1058D0008E4206D912F4004F03D04FF400429A6072
:1058E000DDE705EBC50204EB8202D2F874121B69F6
:1058F000C3F31203CB1AC2F868327DB905EBC502B7
:1059000004EB8202D2F864226AB105EBC50204EB13
:105910008202D2F860121944C2F86012E9B220463D
:1059200004F01AFDBBE704F29C42012102F0DCFB0B
:10593000F4E712F4004F03D04FF400429A60AEE750
:1059400012F0200F01D020229A60E9B2204604F024
:1059500003FDA4E704F29C42002102F0C5FB9AE794
:105960000A31544F0A30544F38B5044603681D6C51
:1059700003EB4113D3F8081B0E4A954207D903F5F0
:10598000306311F4004F02D04FF400429A60204679
:1059900004F0DAFC074B9D4202D9A379012B01D018
:1059A000002038BD04F29C420121206802F09CFBDB
:1059B000F6E700BF0A30544F90F89434012B0CD016
:1059C00010B50446012380F894344174006802F055
:1059D000EDFA002084F8940410BD0220704738B519
:1059E00005468C4611F0800F2BD101F00F0E0EEB07
:1059F000CE04A40004F514740444211D0EEBCE0E55
:105A000000EB8E0E00208EF855020CF00F0C81F882
:105A100000C0C2F30A028A600B714A780AB1A1F889
:105A20001AC0022B1CD095F89434012B1BD00123F3
:105A300085F89434286801F0E6FF002085F8940486
:105A400038BD01F00F0000EBC0018900103129447E
:105A5000043100EBC00005EB800001244475D4E75D
:105A600000234B71DFE70220EAE710B504460A463F
:105A700011F0800F20D101F00F0000EBC0039B005C
:105A800003F514732344191D00EBC00004EB8000E0
:105A9000002380F8553202F00F020A7094F8943413
:105AA000012B18D0012384F89434206801F0F8FF0A
:105AB000002084F8940410BD01F00F0000EBC00337
:105AC0009B0010332344191D00EBC00004EB800041
:105AD00001234375DFE70220EDE710B5144601F01E
