:020000040800F2
:10000000000001202DB00008D1720008D572000850
:10001000397300083B7300083D73000800000000BE
:10002000000000000000000000000000B1300008E7
:100030003F73000800000000513100084D0E000819
:100040007DB000087DB000087DB000087DB00008DC
:100050007DB000087DB000087DB000087DB00008CC
:100060007DB000087DB000087DB000087DB00008BC
:100070007DB000087DB000087DB000087DB00008AC
:100080007DB000087DB000087DB0000800000000D1
:1000900000000000000000000000000041730008A4
:1000A0007DB000087DB000084D7300087DB00008E9
:1000B000657300087DB000087DB000087DB00008C1
:1000C0007DB000087DB000087DB000087DB000085C
:1000D0007DB000087DB000087DB000080000000081
:1000E0007DB000087DB000087DB000080000000071
:1000F0000000000000000000000000007DB00008CB
:10010000000000007DB000087DB000087DB0000850
:1001100000000000000000000000000000000000DF
:10012000797300087DB000087DB000087DB000083C
:100130007DB000080000000000000000000000008A
:1001400000000000000000000000000089730008AB
:100150007DB000087DB000087DB000087DB00008CB
:100160007DB000087DB00008000000000000000025
:10017000000000000000000000000000000000007F
:10018000000000007DB0000800000000000000003A
:040190007DB0000836
:1001A000034613F8012B002AFBD1181A01387047B7
:1001B00001F0FF01102A2BDB10F0070F08D010F818
:1001C000013B013A8B422DD010F0070F42B3F6D11C
:1001D000F0B441EA012141EA014122F007047FF035
:1001E00000070023F0E80256083C85EA010586EA8C
:1001F000010685FA47F5A3FA87F586FA47F6A5FAC8
:1002000087F68EB9EED1F0BC01F0FF0102F00702D3
:1002100032B110F8013B013A83EA010313B1F8D17E
:100220000020704701387047002D06BF354603385F
:10023000073815F0010F07D1013015F4807F02BF98
:10024000013015F4C03F0130F0BC0138704700BFE9
:1002500081F0004102E000BF83F0004330B54FEA77
:1002600041044FEA430594EA050F08BF90EA020FE4
:100270001FBF54EA000C55EA020C7FEA645C7FEA77
:10028000655C00F0E2804FEA5454D4EB5555B8BF9A
:100290006D420CDD2C4480EA020281EA030382EA0B
:1002A000000083EA010180EA020281EA0303362D9D
:1002B00088BF30BD11F0004F4FEA01314FF4801C70
:1002C0004CEA113102D0404261EB410113F0004F82
:1002D0004FEA03334CEA133302D0524263EB430339
:1002E00094EA050F00F0A780A4F10104D5F1200ED7
:1002F0000DDB02FA0EFC22FA05F2801841F1000132
:1003000003FA0EF2801843FA05F359410EE0A5F105
:1003100020050EF1200E012A03FA0EFC28BF4CF036
:10032000020C43FA05F3C01851EBE37101F00045EC
:1003300007D54FF0000EDCF1000C7EEB00006EEBF9
:100340000101B1F5801F1BD3B1F5001F0CD3490883
:100350005FEA30004FEA3C0C04F101044FEA4452DA
:1003600012F5800F80F09A80BCF1004F08BF5FEA61
:10037000500C50F1000041EB045141EA050130BD41
:100380005FEA4C0C404141EB0101013C28BFB1F553
:10039000801FE9D291F0000F04BF01460020B1FA9E
:1003A00081F308BF2033A3F10B03B3F120020CDA71
:1003B0000C3208DD02F1140CC2F10C0201FA0CF04F
:1003C00021FA02F10CE002F11402D8BFC2F1200CB4
:1003D00001FA02F120FA0CFCDCBF41EA0C0190406A
:1003E000E41AA2BF01EB0451294330BD6FEA0404B3
:1003F0001F3C1CDA0C340EDC04F11404C4F120029E
:1004000020FA04F001FA02F340EA030021FA04F3AF
:1004100045EA030130BDC4F10C04C4F1200220FA06
:1004200002F001FA04F340EA0300294630BD21FA44
:1004300004F0294630BD94F0000F83F4801306BF0A
:1004400081F480110134013D4EE77FEA645C18BFFE
:100450007FEA655C29D094EA050F08BF90EA020F95
:1004600005D054EA000C04BF1946104630BD91EA8D
:10047000030F1EBF0021002030BD5FEA545C05D190
:100480004000494128BF41F0004130BD14F58004CF
:100490003CBF01F5801130BD01F0004545F0FE4143
:1004A00041F470014FF0000030BD7FEA645C1ABF78
:1004B000194610467FEA655C1CBF0B46024650EAAF
:1004C000013406BF52EA033591EA030F41F40021DB
:1004D00030BD00BF90F0000F04BF0021704730B561
:1004E0004FF4806404F132044FF000054FF0000136
:1004F00050E700BF90F0000F04BF0021704730B5F7
:100500004FF4806404F1320410F0004548BF4042CB
:100510004FF000013EE700BF42004FEAE2014FEA20
:1005200031014FEA02701FBF12F07F4393F07F4FFB
:1005300081F06051704732F07F4208BF704793F0FE
:100540007F4F04BF41F40021704730B54FF4607411
:1005500001F0004521F000411CE700BF50EA010214
:1005600008BF704730B54FF000050AE050EA0102BD
:1005700008BF704730B511F0004502D5404261EB2D
:1005800041014FF4806404F132045FEA915C3FF46E
:10059000D8AE4FF003025FEADC0C18BF03325FEA0B
:1005A000DC0C18BF033202EBDC02C2F1200300FABC
:1005B00003FC20FA02F001FA03FE40EA0E0021FAE1
:1005C00002F11444BDE600BF70B54FF0FF0C4CF4CF
:1005D000E06C1CEA11541DBF1CEA135594EA0C0F81
:1005E00095EA0C0F00F0DEF82C4481EA030621EABC
:1005F0004C5123EA4C5350EA013518BF52EA0335F7
:1006000041F4801143F4801338D0A0FB02CE4FF0A8
:100610000005E1FB02E506F00042E0FB03E54FF0D8
:100620000006E1FB03569CF0000F18BF4EF0010ED0
:10063000A4F1FF04B6F5007F64F5407404D25FEACC
:100640004E0E6D4146EB060642EAC62141EA55517F
:100650004FEAC52040EA5E504FEACE2EB4F1FD0CC1
:1006600088BFBCF5E06F1ED8BEF1004F08BF5FEA3F
:10067000500E50F1000041EB045170BD06F00046F1
:1006800046EA010140EA020081EA0301B4EB5C049E
:10069000C2BFD4EB0C0541EA045170BD41F4801196
:1006A0004FF0000E013C00F3AB8014F1360FDEBFBB
:1006B000002001F0004170BDC4F10004203C35DA97
:1006C0000C341BDC04F11404C4F1200500FA05F31A
:1006D00020FA04F001FA05F240EA020001F00042BB
:1006E00021F0004110EBD37021FA04F642EB060131
:1006F0005EEA430E08BF20EAD37070BDC4F10C045B
:10070000C4F1200500FA04F320FA05F001FA04F21E
:1007100040EA020001F0004110EBD37041F100010A
:100720005EEA430E08BF20EAD37070BDC4F1200515
:1007300000FA05F24EEA020E20FA04F301FA05F27D
:1007400043EA020321FA04F001F0004121FA04F225
:1007500020EA020000EBD3705EEA430E08BF20EAF5
:10076000D37070BD94F0000F0FD101F0004640002F
:1007700041EB010111F4801F08BF013CF7D041EAB1
:10078000060195F0000F18BF704703F000465200B5
:1007900043EB030313F4801F08BF013DF7D043EA86
:1007A0000603704794EA0C0F0CEA135518BF95EA3C
:1007B0000C0F0CD050EA410618BF52EA4306D1D1C3
:1007C00081EA030101F000414FF0000070BD50EAE2
:1007D000410606BF1046194652EA430619D094EA6C
:1007E0000C0F02D150EA013613D195EA0C0F05D156
:1007F00052EA03361CBF104619460AD181EA0301AA
:1008000001F0004141F0FE4141F470014FF0000061
:1008100070BD41F0FE4141F4780170BD70B54FF0FC
:10082000FF0C4CF4E06C1CEA11541DBF1CEA13557C
:1008300094EA0C0F95EA0C0F00F0A7F8A4EB05045E
:1008400081EA030E52EA03354FEA013100F0888055
:100850004FEA03334FF0805545EA131343EA12631E
:100860004FEA022245EA111545EA10654FEA0026D3
:100870000EF000419D4208BF964244F1FD0404F58C
:10088000407402D25B084FEA3202B61A65EB0305E8
:100890005B084FEA32024FF480104FF4002CB6EBA5
:1008A000020E75EB030E22BFB61A754640EA0C0025
:1008B0005B084FEA3202B6EB020E75EB030E22BF65
:1008C000B61A754640EA5C005B084FEA3202B6EBA6
:1008D000020E75EB030E22BFB61A754640EA9C0065
:1008E0005B084FEA3202B6EB020E75EB030E22BF35
:1008F000B61A754640EADC0055EA060E18D04FEAF3
:10090000051545EA16754FEA06164FEAC30343EA92
:1009100052734FEAC2025FEA1C1CC0D111F4801F5F
:100920000BD141EA00014FF000004FF0004CB6E758
:1009300011F4801F04BF01430020B4F1FD0C88BFF7
:10094000BCF5E06F3FF6AFAEB5EB030C04BFB6EB02
:10095000020C5FEA500C50F1000041EB045170BDF5
:100960000EF0004E4EEA113114EB5C04C2BFD4EB22
:100970000C0541EA045170BD41F480114FF0000EA6
:10098000013C90E645EA060E8DE60CEA135594EA22
:100990000C0F08BF95EA0C0F3FF43BAF94EA0C0F25
:1009A0000AD150EA01347FF434AF95EA0C0F7FF49A
:1009B00025AF104619462CE795EA0C0F06D152EAEE
:1009C00003353FF4FDAE1046194622E750EA4106D2
:1009D00018BF52EA43067FF4C5AE50EA41047FF4E3
:1009E0000DAF52EA43057FF4EBAE12E74A0011D295
:1009F00012F5001211D20DD56FF47873B3EB625279
:100A00000ED44FEAC12343F0004343EA505323FA84
:100A100002F070474FF00000704750EA013002D1F9
:100A20004FF0FF3070474FF00000704753B94AB99C
:100A3000002908BF00281CBF4FF0FF314FF0FF30E6
:100A400000F00CB8ADF1080C6DE904CE0BF042FFDC
:100A5000DDF804E0DDE9022304B07047704700BF11
:100A600010B5054C237833B9044B13B10448AFF3E8
:100A700000800123237010BDB001002000000000A1
:100A8000CCCB000808B5034B1BB103490348AFF3B7
:100A9000008008BD00000000B4010020CCCB00089D
:100AA00010B58CB00024089409940A940B94202269
:100AB000214668460AF01AFB8348844B03604FF4D2
:100AC00080334360846001230361047680F8204012
:100AD000C4627F4A8262C4600D22C26180F83040E5
:100AE000436103F03BFB002840F0B88000230893EB
:100AF000012209920A9308A9734803F059FC0028BF
:100B000040F0AF80012308930223099308A96E489F
:100B100003F04EFC002840F0A78002230893032333
:100B2000099308A9684803F043FC002840F09F801F
:100B3000032308930423099308A9634803F038FCAE
:100B4000002840F09780042308930523099308A9FF
:100B50005D4803F02DFC002840F08F8005230893AA
:100B60000623099308A9584803F022FC002840F006
:100B70008780062308930723099308A9524803F0A6
:100B800017FC00287FD1072308930823099308A99D
:100B90004D4803F00DFC002878D10E23089309235B
:100BA000099308A9484803F003FC002871D10A23DF
:100BB0000893099308A9444803F0FAFB00286BD175
:100BC0000B230893099308A93F4803F0F1FB002881
:100BD00065D10C230893099308A93B4803F0E8FB6F
:100BE00000285FD10D230893099308A9364803F024
:100BF000DFFB002859D10023009301220192042237
:100C0000049202930793334A06928DF815308DF8BB
:100C10001430039369462C4803F094FC002847D114
:100C200001230093022301936946274803F08AFCBD
:100C3000002840D1022300930323019369462248F0
:100C400003F080FCD0BB0323009304230193694687
:100C50001D4803F077FCA0BB0CB010BD02F0DCF81F
:100C600044E702F0D9F84DE702F0D6F855E702F074
:100C7000D3F85DE702F0D0F865E702F0CDF86DE754
:100C800002F0CAF875E702F0C7F87CE702F0C4F892
:100C900083E702F0C1F88AE702F0BEF890E702F0BD
:100CA000BBF896E702F0B8F89CE702F0B5F8A2E7C7
:100CB00002F0B2F8B4E702F0AFF8BBE702F0ACF82C
:100CC000C1E702F0A9F8C7E72C020020002001408C
:100CD0000100000F01000F00F0B589B0002303935D
:100CE0000493059306930793026803F1804303F589
:100CF00090339A4201D009B0F0BD0446002500951A
:100D000003F58C335A6C42F480725A645A6C02F4C4
:100D100080720092009A01951A6B42F004021A63E5
:100D20001A6B02F004020192019A02951A6B42F0CA
:100D300001021A631B6B03F001030293029B1F2342
:100D400003930327049703AE3146144804F058F97F
:100D5000FF230393049705953146114804F050F999
:100D60001048114B036045608560C5604FF4806397
:100D700003614FF4006343614FF400538361C56125
:100D80004FF400330362456203F0D0FD18B9054B00
:100D9000A3639C63AFE702F03FF8F8E70008024066
:100DA00000000240CC0100201064024008B5044B52
:100DB000186818B16822034903F0FCF908BD00BFA8
:100DC00044030020740200207047000008B558B1A9
:100DD000074A106000231A460121064800F0D8F89F
:100DE000012100F029F908BD034801F04BFAFAE7A8
:100DF00044030020AD0D00082CCC000810B50C28D1
:100E000002D8002319460FE00A4801F03BFA0020FF
:100E10000EE003EB430203EB82020244064C34F87B
:100E2000122011FA82F10133072BF2D9C1F3CF005E
:100E300010BD00BF5CCC00087402002008B508F0AB
:100E40006AFB10B102684068904708BD08B54FF0D2
:100E5000E0231B6907F0E6FD012800D108BD02F080
:100E6000A9F9FBE7EFF305832BB9064B186828B9FE
:100E700001221A6070476FF0050070474FF0FF3095
:100E8000704700BF000A0020EFF3058373B90A4BD7
:100E90001B68012B0DD110B50024084BDC77064BE5
:100EA00002221A6007F01AFB204610BD6FF0050001
:100EB00070474FF0FF307047000A002000ED00E05F
:100EC000F0B587B000240594EFF3058404BBF8B1B6
:100ED000002A34D0156893692BB11E46013B372B8D
:100EE00002D9002015E01826536813F0010F3FD1F6
:100EF000546984B14FEA940C93682BB1D7685B2F87
:100F000002D9176907B184B943B14FF0FF330BB36E
:100F1000059807B0F0BD4FF0800CEDE7D368A3B99A
:100F20001369ABB14FF0FF33F1E7029301970096DD
:100F30000B466246294607F063FA0590E8E7154636
:100F4000002318264FF0800CE1E74FF0FF33DEE777
:100F50000023DCE705AB019300960B461FFA8CF2E9
:100F6000294607F088FA0128D2D000230593CFE75D
:100F70000020CEE708B5EFF3058333B908B90020A8
:100F800008BD07F00DFC0020FAE76FF00500F7E759
:100F90002DE9F04383B0EFF30587002F43D10646D8
:100FA000894615461C4600283FD0082001F016FB54
:100FB000804600283BD006604560B9F1000F00D0A4
:100FC000012704B32068A36813B1E2682B2A10D864
:100FD00053B14FF0FF33DBB10024404601F080FBFA
:100FE000204603B0BDE8F083E3687BB14FF0FF33E8
:100FF000F1E701930F4B009343463A46012108F075
:10100000D5F804460CE020460023E4E70023E2E79D
:10101000084B009343463A46012108F0ABF80446DA
:10102000002CDDD1D9E70024DAE70024D8E7044614
:10103000D6E700BF3D0E0008EFF305836BB90A4603
:1010400070B100B583B00093042108F0D9F80128ED
:1010500009D1002003B05DF804FB6FF00500704774
:101060006FF0030070476FF00200F3E708B5EFF38D
:101070000583CBB9A0B1836813B1C2681F2A0BD80E
:101080002BB14FF0FF338BB901F05DF908BDC36898
:1010900043B14FF0FF33F6E7184601F02FF9F5E7BB
:1010A0000023F0E70023EEE70020EFE70020EDE764
:1010B00070B582B0EFF30583002B3AD114460028B7
:1010C0003BD000293BD06AB393684BB1D2684F2A1A
:1010D00006D9226922B101FB00F56669AE421BD236
:1010E00073B14FF0FF3363BB002202F084FA054670
:1010F00005B304B124682146284602F0D1FC19E06A
:10110000E3688BB9236913B14FF0FF33EBE76369F1
:101110006BB14FF0FF33E6E70025009502F021FAAE
:101120000546E5E70023DEE74FF0FF33DBE700236A
:10113000D9E70025284602B070BD0025FAE7002552
:10114000F8E70025F6E710B582B01C46EFF30583FB
:10115000C3B110B321B334BB0023019301AA02F041
:1011600048FC012822D1019850B14FF0E0234FF004
:101170008052C3F8042DBFF34F8FBFF36F8F002051
:1011800002B010BDA8B1B9B1224602F083FB01281C
:1011900015D0B4B16FF00100F2E76FF00300EFE794
:1011A0006FF00300ECE76FF00300E9E76FF0020077
:1011B000E6E76FF00300E3E76FF00300E0E70020ED
:1011C000DEE76FF00200DBE7034B0360034B0B60CD
:1011D00080231360704700BFA4090020A4070020EB
:1011E000034B0360034B0B604FF480731360704735
:1011F00048070020480300202DE9F04383B00F4644
:1012000015468DF8070096B206F107081FFA88F810
:10121000013676BA01220DF10701002009F0EAFE3D
:101220002A46394609F0E6FE040204F47F0444EA43
:101230001064030A03F47F431C4344EA0064DFF8AC
:101240003090A9F800609DF8073089F802302A46EE
:10125000394609F1030009F07DFF033549F80540DF
:101260004146484608F0DCFE03B0BDE8F08300BF0D
:10127000040A002038B51446012B07D04AB90122D0
:101280004FF40051074803F0A6FF38BDFFF7B4FF45
:10129000F5E7054D284609F05DFFA1B2284608F0A4
:1012A000BFFEECE700080240040A002010B58AB037
:1012B000002208210A20FFF7FBFE0B4B186001AC4F
:1012C00024220021204609F011FF084B01934FF41E
:1012D0008053069328230793224600210448FFF7F2
:1012E000EFFD0AB010BD00BF240E00207CCC00082A
:1012F0002515000808B50378433B102B32D8DFE8EA
:1013000003F021313109313129313131313131317C
:10131000193111000023032213491846FFF7AAFFD1
:10132000012020E00023132210491846FFF7A2FFF6
:10133000012018E0002313220C491846FFF79AFFFA
:10134000012010E000230122FF211846FFF792FF41
:10135000012008E000231A4619461846FFF78AFFC5
:10136000012000E0002008BD88CC00088CCC0008DB
:1013700001280CD808B58B18B3F5965F00D908BDC5
:101380000123034801440020FFF774FFF7E770478B
:10139000280F002030B583B005460C46FFF7AAFFA2
:1013A000002840F0B380052C21D8AB78423B352B88
:1013B00000F2A780DFE803F09B20A5A527A5A52EB6
:1013C000A5A5A5A5A552A535A53CA5A5A57BA5A523
:1013D000A5A5A5A5A5A5A5A5A5A5A5A543A5A5A51F
:1013E000A561A5A5A5A5A5A559A5A5A5A58BA21FE0
:1013F000A91C09F0FFFDD8E701231A46FF210020B0
:10140000FFF738FF82E00123032241490020FFF764
:1014100031FF7BE001231A4600210846FFF72AFF2F
:1014200074E0012313223B490020FFF723FF6DE006
:101430000123142237490020FFF71CFF66E0022336
:101440008DF800300423ADF80130ADF803300123EE
:10145000052269460020FFF70DFF57E001235422C3
:101460002D490020FFF706FF50E0B5F80520B5F83C
:1014700003100020FFF77CFF48E04FF49652274905
:10148000002009F0B7FD0090030203F47F0343EA54
:101490001063020A02F47F42134343EA006300939D
:1014A0000123042269460020FFF7E4FE2EE0B5F890
:1014B0000330B5F80520E91D1848184409F04AFE24
:1014C0000123002211461046FFF7D4FE1EE0B5F8B6
:1014D0000330B5F80520E91D1048184409F03AFE1C
:1014E0000123002211461046FFF7C4FE0EE000F073
:1014F0000BFB58B10123002211460420FFF7BAFE6E
:1015000004E04FF40051064803F06BFE03B030BD19
:1015100088CC00088CCC0008D00E0020280F0020BA
:101520000008024000B583B04FF0FF330022694647
:1015300005480068FFF707FE0028F5D1BDF8041044
:101540000098FFF727FFEFE7240E002008B508F00A
:101550002BF8084BA3FB00308009074BD8604FF4F1
:101560000051064803F03DFE4FF47A70FFF702FD8C
:10157000EDE700BFD34D6210D00E002000080240FE
:1015800008B5094802F022FB084C84ED0A0A02F073
:10159000DFFC84ED0E0A02F057FC84ED0F0A0120F7
:1015A000FFF7E8FCEDE700BF5C000020D00E002054
:1015B00008B56420FFF7DEFC084B094A02213C20F5
:1015C00008F0F6F99FED070A074B83ED000A08F0D3
:1015D00003FA0120FFF7CEFCF4E700BF300E002035
:1015E000F99700080000FA43280E002010B52DEDF1
:1015F000028B002438E007EE901AB8EE677AF2EE1C
:101600000E7AC7EE276A9FEDB17A26EE077A27EEAB
:10161000267AF3EE047A37EE277AAD4B01EB04120B
:1016200003EB820080ED007A02F5907003EB8000FE
:1016300080ED007A68EE277AB2EE047A77EE877A48
:1016400066EE876A77EEE67A02F5107003EB8000AB
:10165000C0ED007A02F5587203EB8203C3ED007A05
:1016600001310F29C7D901340F2C17D807EE904A42
:10167000B8EE677AF2EE0E7A87EE278A9FED950A2A
:1016800028EE000A0AF0E6F9DFED937A20EE276AE9
:10169000DFED927A36EE276A0021E2E7002222E0AF
:1016A00041F2707302FB03F31B0907EE903AF8EE68
:1016B000677A874B02F5807103EB8101C1ED007AF7
:1016C00002F5087103EB8101C1ED007A02F550715A
:1016D00003EB8101C1ED007A02F58C6103EB81031C
:1016E000C3ED007A01320F2ADAD9002325E007EE94
:1016F000903AF8EE677A9FED7A7A67EE877A9FEDF7
:10170000797A67EE877A724A03F5887102EB810174
:10171000C1ED007A03F50C7102EB8101C1ED007A95
:1017200003F5547102EB8101C1ED007A03F58E617E
:1017300002EB8102C2ED007A01330F2BD7D9644945
:1017400001F58053684AC3F800224FF08242C3F883
:101750000422664AC3F808224FF08040C3F80C0206
:101760006348C3F810024FF07E5CC3F814C26148AE
:10177000C3F818026048C3F81C02C3F820025F488F
:10178000C3F824025E48C3F82802C3F82C224FF0A5
:101790007C52C3F830225B4AC3F834225A48C3F85B
:1017A00038025A4CC3F83C42C3F84022F3EE047AA4
:1017B000C3ED917AC3F848C20020C3F84C02C3F8C5
:1017C0005002DFF858E1C3F854E2C3F85822C3EDE1
:1017D000977AC3F860C2C3F86402C3F86802C3F81A
:1017E0006CE2C3F870224A4AC3F87422C3F8784204
:1017F000484AC3F87C224848C3F88002C3F88442B0
:10180000C3F888224FF47A62A3F88C224FF4166250
:10181000A3F88E2240F6B830A3F8900240F2A462FA
:10182000A3F89222A3F89402A3F89622002283F848
:10183000982283F8992283F89A22012083F89B0248
:1018400083F89C2283F89D2283F89E22042483F847
:101850009F4283F8A022022483F8A14283F8A222A7
:10186000052483F8A34283F8A42283F8A52283F8F1
:10187000A62283F8A72283F8A822032483F8A9428A
:1018800083F8AA2283F8AB2283F8AC2283F8AD0256
:1018900083F8AE2283F8AF2283F8B02283F8B12216
:1018A00083F8B22283F8B32283F8B42283F8B522F6
:1018B00083F8B62283F8B72201F59651002200235F
:1018C00041E90223BDEC028B10BD00BF00008C4239
:1018D000280F0020D00F4940CDCC4C3FCDCC4C3E02
:1018E0000000F0420000803D0000C843000020419D
:1018F00000C05A450000704133336B410080BB4447
:1019000000805444CDCCCC3D0000C8C20000C84289
:101910000000DC420000BE420000B44200007F43F1
:1019200008B500F07DFB08BDF0B59FB05422002142
:10193000584809F0DBFB584C4FF496552A460021D5
:10194000204609F0D3FB2946204600F025FB00285D
:101950006BD0FFF7E5FF514B53F8081C53F8043CDC
:101960004F4A202B08BF914265D14E4807F0E6FD53
:101970004D48FFF72BFA4D4C01230093032304F24B
:101980009B2294F89A124A4807F0DAFE94F8A612BD
:10199000484802F087FA94F8A712474802F004FA80
:1019A00094F8A812454802F087F9454800F090FFE6
:1019B00094F8AD32002B44D1FFF778FC15AD242408
:1019C00022460021284609F091FB3E4B15934FF427
:1019D00080661A9630231B930DEB030722460021E5
:1019E000384609F083FB384B0C9311962023129351
:1019F00003AE22460021304609F078FB334B0393B7
:101A000080230893182309933A4600213048FFF7B2
:101A100057FA324600212F48FFF752FA2A46002192
:101A20002D48FFF74DFA1FB0F0BDFFF7DFFD2B4843
:101A300000F028FC8DE7FFF7D9FD294800F022FCD3
:101A400093E7284E46F2A813009304230022264968
:101A5000304600F033FA254D284601F04DFA244C6B
:101A60003346244A2946204600F024FB9FED220AF3
:101A7000204600F045FB0023224601211F48FFF7C6
:101A800087FA1F4B1860002896D00121FFF7D4FA7F
:101A900092E700BFD00E0020280F0020E821002090
:101AA00041F0B69BC46400202C020020281F0020B7
:101AB000300E00207C0E0020640E00205C0E002002
:101AC00000000020D0CC0008DCCC0008E8CC0008E6
:101AD000811500084D150008B1150008A0CC0008BC
:101AE000B8CC0008940E00207C6400202000002068
:101AF000AC0E00205C00002000000000292100083E
:101B00002C0E00200000000008B5074B04A1D1E90D
:101B1000000143E9020100F097FA08BDAFF300802D
:101B200041F0B69B20000000E821002008B50548E0
:101B3000054B036002F06EFE00B908BD01F06CF9C0
:101B4000FBE700BFE8210020003002400268094B9B
:101B50009A4200D0704782B000230193064B1A6B63
:101B600042F480521A631B6B03F480530193019B70
:101B700002B0704700300240003802400000000010
:101B8000002800F038812DE9F8430D46164604463A
:101B90000768002F52D01046FEF7ACFC96A3D3E99D
:101BA0000023FEF73BFE804689463F68F86AFEF751
:101BB00091FC42464B46FEF707FDFEF717FFFDB1CD
:101BC000012D79D06368002B40F0CF807B63A36840
:101BD000002B40F0D78023681B6800225A63E3681B
:101BE000002B40F0E28023681B6800225A632369BF
:101BF000002B40F0ED8023681B6800225A631BE035
:101C0000E3686BB122695AB1042B19D0082B1AD0A2
:101C100000233B642369CBB923681B68DA6A5A63E3
:101C2000A36833BB23681B6800225A636368002BD8
:101C300032D123681B68586366752575BDE8F88343
:101C40000023BB63E6E70023FB63E3E7042B06D036
:101C5000082B09D023681B68DA6A1A64E0E7236856
:101C60001B68DA6A9A63DBE723681B68DA6ADA635F
:101C7000D6E7042B06D0082B09D023681B68002266
:101C80001A64D3E723681B6800229A63CEE72368AF
:101C90001B680022DA63C9E7042B05D0082B07D0A4
:101CA00023681B681864C7E723681B689863C3E749
:101CB00023681B68D863BFE7E3686BB123695BB136
:101CC000042B16D0082B17D000233B64E368B3B96C
:101CD00023681B68DA6A5A6363681BBB23681B6846
:101CE00000225A63A368002B2FD123681B68586316
:101CF000A2E70023BB63E9E70023FB63E6E7042BCD
:101D000006D0082B09D023681B68DA6A1A64E3E757
:101D100023681B68DA6A9A63DEE723681B68DA6A5D
:101D2000DA63D9E7042B06D0082B09D023681B6897
:101D300000221A64D6E723681B6800229A63D1E761
:101D400023681B680022DA63CCE7042B05D0082B3C
:101D500007D023681B6818646EE723681B689863C4
:101D60006AE723681B68D86366E7042B04D0082B56
:101D700005D000233B642AE70023BB6327E7002349
:101D8000FB6324E7042B06D0082B09D023681B68CB
:101D900000221A6423E723681B6800229A631EE767
:101DA00023681B680022DA6319E7042B06D0082B8E
:101DB00009D023681B6800221A6418E723681B688F
:101DC00000229A6313E723681B680022DA630EE798
:101DD000042B06D0082B09D023681B6800221A6444
:101DE0002AE723681B6800229A6325E723681B689B
:101DF0000022DA6320E770470000000000E06F4037
:101E0000034678B102686AB1416861B912685163EA
:101E10009A68C2B91A6812680021516300225A7583
:101E200002229A757047042905D0082907D0126844
:101E300000211164ECE7126800219163E8E7126861
:101E40000021D163E4E7042A06D0082A09D01A68E1
:101E5000126800211164E1E71A6812680021916399
:101E6000DCE71A6812680021D163D7E738B5054668
:101E700099B10C4644F62063994200D91C4604F0FF
:101E8000FFFA002202FB0443B0FBF3F3013BB3F57E
:101E9000803F05D3013292B2F4E7FFF7B1FF0CE0C7
:101EA000296809688A622A681268D3622A68D3603E
:101EB0006A7D297D2846FFF763FE38BD00284FD094
:101EC00010B5044629B30160426083600023C360FB
:101ED000036103758375084604F0C6FCBDF808105D
:101EE0002046FFF7C3FF6368A3B923681B6800227D
:101EF0005A63A3680BBB23681B6800225A6361689E
:101F0000206805F0BFF8A168206805F0BBF8002341
:101F1000637510BD042B06D0082B09D023681B68FD
:101F200000221A64E5E723681B6800229A63E0E751
:101F300023681B680022DA63DBE7042B06D0082B3A
:101F400009D023681B6800221A64D8E723681B683D
:101F500000229A63D3E723681B680022DA63CEE786
:101F60007047000000B583B000220192094B196B45
:101F700041F4800119631B6B03F480030193019BFF
:101F80000521382002F032FC382002F03FFC03B07B
:101F90005DF804FB003802400246B8B1C1B10D4BF8
:101FA00001205874052018744FF40030986000F137
:101FB0000060D860B1F5003F03D900205860186078
:101FC0007047044B59601A60012070470020704729
:101FD00000207047F021002010B586B002F0CEFE40
:101FE000002300930D4B1A7C0292012203925B7C2A
:101FF00001930223049305A9684602F0B7FF28B9AC
:10200000059BB3F1FF3F07D0002400E0002402F05D
:10201000CDFE204606B010BD0124F8E7F0210020D7
:10202000084B1A680AB1002306E070470549C968E1
:10203000C95C02F8011B0133024949689942F5D88D
:10204000704700BFF021002070B5194B1C683CB3ED
:10205000FFF7C2FF064620B302F090FE0025144BA6
:102060005B68AB420CD9124BD96822880023294403
:10207000012002F0D5FE10B902340235EFE7002648
:102080000B4B1A6800230A494968994209D911780B
:102090000748C068C05C884207D101320133F2E7CB
:1020A000002602F083FE304670BD0026F9E700BF2F
:1020B000F021002008B5A0B19AB193B18160C2604F
:1020C000436000230361094B4B618368084A1A612E
:1020D0008368084ADA618368074A9A6101230370BA
:1020E00008BD064800F0CEF8FAE700BF00007F43C5
:1020F00000007FC300007A4300007AC3F8CC0008D8
:10210000B5EEC00AF1EE10FA06DBDFED067AB4EEAA
:10211000E70AF1EE10FA01D90023036180ED040A09
:10212000704700BF0000C84230B52DED028B83B070
:1021300000284AD004468368002B46D0C068002897
:1021400043D06368002B40D001F040FDB0EE408AE0
:1021500084ED050A94ED040AA06800F0D6FEA56897
:1021600007F01AFA0146B0EE480A284600F0D0FE01
:10217000B5EEC00AF1EE10FAD4BF0121002194F8A7
:102180002030002B51D0DFED3C7A78EE677AF5EE07
:10219000C07AF1EE10FA1FD4B6EE007AF4EEC77AE8
:1021A000F1EE10FA4CBF012300230BB3B5EEC00AC9
:1021B000F1EE10FA1AD4D4ED077AF4EEC07AF1EE0B
:1021C00010FA15D5B0EE670A12E02C4800F05AF864
:1021D00003B0BDEC028B30BDBEEE007AF4EEC77AE0
:1021E000F1EE10FACCBF01230023DEE79FED240AB5
:1021F000B5EEC08AF1EE10FA26D4F6EE007AB4EE0F
:10220000E78AF1EE10FA4CBF012300236BB1B5EE63
:10221000C00AF1EE10FA21D4D4ED067AF4EEC07AB9
:10222000F1EE10FA01D5B0EE670A6068B5EEC00AAB
:10223000F1EE10FA16D4FCEEC07ACDED017A9DF8DD
:102240000420FFF79DFCC3E7FEEE007AB4EEE78AB8
:10225000F1EE10FACCBF01230023D7E760689FEDB1
:10226000080AE8E7B1EE400AFCEEC07ACDED017A4B
:102270009DF80420E5E700BF0000C84218CD000823
:1022800000000000C0B170B59AB0064601AC6425EC
:102290002A460021204608F029FF3346074A2946EE
:1022A000204608F0EDFE2046FDF77AFF81B2204679
:1022B00007F0B6FE1AB070BD704700BF3CCD0008F5
:1022C000C0B170B59AB0064601AC64252A4600211B
:1022D000204608F00BFF3346074A2946204608F0FF
:1022E000CFFE2046FDF75CFF81B2204607F098FE46
:1022F0001AB070BD704700BF48CD000880B110B55E
:1023000082B0044620230193019B202B11D04FF073
:10231000500383F31188BFF36F8FBFF34F8FFEE736
:102320004FF0500383F31188BFF36F8FBFF34F8FCC
:10233000FEE7002340F8043B00F010FD0123237763
:10234000204602B010BD38B5202000F047F9044601
:1023500028B1002540F8045B00F000FD25772046F9
:1023600038BD08B507F08EFB6420FEF703FE0120A0
:10237000FEF700FEFBE708B5FFF7D6FA6420FEF78C
:10238000F9FDFBE708B50A4A00210A48FEF798FD67
:10239000094B1860094A00210948FEF791FD094BD5
:1023A00018600948FEF762FE084B186008BD00BFC0
:1023B000B8D10008632300082C22002094D1000823
:1023C000772300082822002084D10008242200203E
:1023D0002DE9F0478AB005AD0024059406940794D2
:1023E000089409940194464B1A6B42F004021A6354
:1023F0001A6B02F004020192019A02941A6B42F0E5
:1024000001021A631A6B02F001020292029A03940B
:102410001A6B42F002021A631A6B02F00202039274
:10242000039A04941A6B42F008021A631B6B03F0C0
:1024300008030493049BDFF8D0A022464FF47051A8
:10244000504602F0C8FE2F4E22464FF23F41304622
:1024500002F0C1FEDFF8B49022464FF40041484636
:1024600002F0B9FEDFF8A88022460421404602F0BF
:10247000B2FE4FF470530593012706970794089412
:102480002946504602F0BCFD4FF23F4305930697A4
:10249000079408942946304602F0B2FD4FF40043F9
:1024A00005930697079408942946484602F0A8FD2C
:1024B000042305930697079408942946404602F0A2
:1024C0009FFD4FF480730593069407942946304688
:1024D00002F096FD4FF4007305934FF488130693B2
:1024E00007942946304602F08BFD2246052117202D
:1024F00002F07CF9172002F089F90AB0BDE8F087F4
:10250000003802400004024000080240000002407F
:10251000000C0240124A12F0070F1ED0D11D21F00C
:102520000701C1F5705313440A460E4802600021AA
:1025300041601344083B23F007030B4803605960D4
:102540001960991A51601360084B1960084B1960A3
:10255000084B4FF000421A6070474FF47053E4E7A5
:102560005022002048220020442200203C2200204B
:102570004022002030220020164B1A461B6883425E
:10258000FBD3516802EB010C844509D0416800EB94
:10259000010C634509D00360904219D01060704768
:1025A0004068014451601046F0E710B40A4C2468BA
:1025B000A3420BD05B681944416013681B68036039
:1025C000904200D010605DF8044B70470460F7E75C
:1025D000704700BF482200204422002038B504463E
:1025E00005F0C8FF384B1B68B3B1384B1B681C4261
:1025F00050D1002C50D004F1080214F0070F02D083
:1026000022F007020832002A55D0314B1B68934252
:1026100053D330490C6804E0FFF77CFFE5E721461F
:102620001C466368934202D22368002BF7D1264BE5
:102630001B68A34243D00D68083523680B606368AC
:102640009B1A102B10D9A01810F0070F08D04FF0CC
:10265000500383F31188BFF36F8FBFF34F8FFEE7F3
:1026600043606260FFF788FF626819490B689B1A34
:102670000B60194909688B4201D217490B60134B53
:102680001B681343636000232360144A13680133FB
:10269000136002E0002500E0002506F005F815F0C3
:1026A000070F0ED04FF0500383F31188BFF36F8FE5
:1026B000BFF34F8FFEE70025EFE70025EDE700258C
:1026C000EBE7284638BD00BF44220020302200201E
:1026D00040220020482200203C22002038220020F6
:1026E000002834D038B50446A0F1080550F8043C61
:1026F000174A1268134208D14FF0500383F3118830
:10270000BFF36F8FBFF34F8FFEE750F8081C41B146
:102710004FF0500383F31188BFF36F8FBFF34F8FD8
:10272000FEE723EA020340F8043C05F023FF54F8D7
:10273000041C084A13680B4413602846FFF71CFF6B
:10274000054A13680133136005F0AEFF38BD7047CA
:1027500030220020402200203422002008B50B48FF
:102760000B4B03600B4B436000238360C3604FF44B
:102770008042026143618361C361036202F048FDEC
:1027800000B908BD00F048FBFBE700BF505E002029
:1027900000540040A086010030B589B000230393A7
:1027A00004930593069307930268144B9A4201D051
:1027B00009B030BD00250195114C236B43F0020395
:1027C0002363236B03F002030193019BC023039354
:1027D00012230493032306930423079303A90948B0
:1027E00002F00EFC0295236C43F400132364236C67
:1027F00003F400130293029BDAE700BF0054004089
:10280000003802400004024030B370B504464378FB
:10281000032B02D80378032B03D91048FFF732FDAE
:1028200070BD0F4A0125D5544378D55400780D4E1C
:10283000336803EBC0012A46898853F8300002F060
:10284000CAFC6078336803EBC0012A46898853F8D4
:10285000300002F0C0FCE3E7704700BF80CD000805
:10286000B05E0020B45E002040B370B504464378EB
:10287000032B02D80378032B03D91148FFF702FD7D
:1028800070BD104A0025D5544378D55400780E4EBB
:10289000336803EBC0012A46898853F8300002F000
:1028A0009AFC6078336803EBC0012A46898853F8A4
:1028B000300002F090FC054B1D70E1E7704700BF4F
:1028C00080CD0008B05E0020B45E0020A75E00202E
:1028D00010B558B14F4A10604F4B93F898324BB136
:1028E000012B34D04D48FFF7CDFC10BD4C48FFF70D
:1028F000C9FCFAE74B4B04221A70474B93F8A132FC
:10290000022B16D0032B0CD0012B1CD1464B0122DD
:102910001A705A709A70DA70444B454A1A62002451
:1029200056E0414B01221A70022159709970DA70F9
:10293000F2E73D4B01221A7003225A7004229A706A
:102940000222DA70E8E73B48FFF79CFCCDE7354B05
:1029500006221A70304B93F8A132022B17D0032BAA
:102960000AD0012B24D1304B01221A705A709A7070
:10297000DA701A715A71B5E72B4B01221A700221D5
:10298000597003209870D87019715A71AAE7032200
:10299000214B83F8A122244B012119700220587089
:1029A0009A70DA70187159712348FFF789FC99E71A
:1029B0002048FFF767FC98E7164B1B6803EBC4023F
:1029C000918853F8340002F0FFFB1C4B185501347A
:1029D000032CF1D900240AE00E4B1B6803EBC40161
:1029E0000022898853F8340002F0F5FB0134032CEF
:1029F000F2D9094B93F8A232002B3FF476AF064B85
:102A000093F8A332082B7FF670AF0D48FFF758FC00
:102A10006BE700BFB45E0020281F002034CE000802
:102A200098CD0008A65E0020A85E0020D00E0020F1
:102A300000003443C0CD0008E4CD0008B05E0020A3
:102A400060CE000808B52DED028B0E4B93F8503088
:102A5000032B05D00C4B93ED810ABDEC028B08BD16
:102A600006F0BEFEB0EE408A01F04CF9F0EE400AEE
:102A7000B0EE480A054805F077FAF2EE047A30EE37
:102A8000270AEAE7D00E0020281F0020281800207F
:102A9000A34B93F8A132002B00F0418170B52DEDCE
:102AA000048B84B0F0EE408AB0EE608A04469D4B01
:102AB000D3ED087AF5EE407AF1EE10FA21D0984B7A
:102AC000D3ED837AB6EE007AF4EEC77AF1EE10FA1F
:102AD00006DBB1EE007AF4EEC77AF1EE10FA20D9F7
:102AE000B6EE007AF4EEC77AF1EE10FA0DD4B1EE3C
:102AF000007AF4EEC77AF1EE10FA08DDF0EE477ACC
:102B000005E08948FFF7BEFB07E0F6EE007A844B4C
:102B1000C3ED837A8548FFF7B5FB04B0BDEC048BA9
:102B200070BDFFF78FFF7F4B83ED090AB5EEC00A3A
:102B3000F1EE10FA09D4DFED7E7AB4EEE70AF1EE99
:102B400010FA04DDB0EE670A01E09FED7A0A744BDB
:102B5000D3ED837A734BC3ED137A93ED087AC8EE05
:102B6000876AFCEEE66ACDED016A9DF8043006EE58
:102B7000903AF8EEE66A66EE876A76EEC06A37EE5D
:102B8000267A8DED037A9DED037ADFED6B6A67EEB1
:102B9000A67AB5EE408AF1EE10FA00F0AB80DFEDD8
:102BA000676A68EE266ADFED665A86EEA56A67EE0A
:102BB000867A77EE677ACDED027A6248C25C013A96
:102BC000D2B261490A704A700233C35C013B4B7058
:102BD000544B1B6813F0080F9FD0DDED027A77EE9F
:102BE000E87AB2EE047AF4EEC77AF1EE10FA94D5F0
:102BF000564B1B78002B90D1DDED027A77EEE87A08
:102C0000F5EEC07AF1EE10FA87DDDDED027A77EEAF
:102C1000E87AB5EE408AF1EE10FA6ED09FED477A71
:102C200028EE077ADFED466A86EE879ABCEEC99AEF
:102C3000B8EE499A67EE897AFCEEE77A17EE906A69
:102C40002644DDED037A77EEE87A69EE277AFCEE2A
:102C5000E77A17EE905A25443B4C22463C493046D1
:102C600006F02AFD22463B49284606F025FD2C4B5E
:102C700093F8A232002B43D00124294B93F8A332BE
:102C8000A34245D9264BD3ED847AF4EEC87AF1EE0F
:102C900010FA3DD407EE904AF8EE677A93ED857A04
:102CA000D3ED836A37EE267A67EE877A9FED227A34
:102CB00067EE877AFCEEE77AF8EE676A93ED867A3C
:102CC00029EE077AF4EEC76AF1EE10FA20DA17EE71
:102CD000903A1E441D441C4A1E49284606F0ECFC4E
:102CE00098B1194A1A49304606F0E6FC80B1013421
:102CF000E4B2C2E79FED0F6A59E79FED179A97E795
:102D0000084B012283F8522007E70F48FFF7ACFD7C
:102D10000E4B01221A70034B83F85240FDE67047B8
:102D2000281F0020D00E002094CE0008B0CE00084E
:102D3000000020420000000000007A440000B4437C
:102D4000C0E1644CA85E0020A45E0020A75E0020C5
:102D500009280008692800080000000000F10803A5
:102D600043604FF0FF328260C36003610023036061
:102D7000704700230361704743684B609A688A601C
:102D8000516099600861036801330360704730B493
:102D90000D68B5F1FF3F11D000F108031C465B68D8
:102DA0001A68AA42FAD963684B6099608C606160C6
:102DB000086103680133036030BC70470469F2E7BF
:102DC0000369416882688A60416851605A6882423A
:102DD00006D0002202611A68013A1A60186870472A
:102DE00082685A60F5E7000000BFB0F5007F00D0B0
:102DF000704708B5014806F0FFFC08BD300E002002
:102E000008B50268034B9A4200D008BD01F0E6F80D
:102E1000FBE700BF0048014072B6FEE710B594B072
:102E200008AC30220021204608F060F9002303930B
:102E3000049305930693079301931F4A116C41F085
:102E400080511164126C02F080520192019A029337
:102E50001A490A6822F4404242F400420A600A68B1
:102E600002F440420292029A0222089201210B913E
:102E700010210C910E920F9310925A231193082354
:102E800012930F231393204603F0FEF878B90F2313
:102E9000039302210491002305934FF4805206927C
:102EA000079303A803F040FB18B914B010BDFFF757
:102EB000B3FFFFF7B1FF00BF0038024000700040D1
:102EC00008B501F071F8FFF7A9FFFFF781FAFFF7E6
:102ED00049F806F02FF8FDF7E3FD05F0A5FF05F032
:102EE000B3FEFEF723FEFFF739FCFDF7BBFFFFF74C
:102EF00049FAFDF7C9FFFEE70023036243628362DC
:102F0000C362002202638363704780ED0D0A70473D
:102F1000036BCB1A07EE903AF8EE677A9FED397A99
:102F2000C7EE876A90ED0D6A36EE406AD0ED005A22
:102F300065EE865A90ED087AD0ED017AB6EE005A29
:102F400067EE857A67EEA67A90ED0A5A35EE065A54
:102F500067EE857A77EE277AC0ED087A90ED077AEA
:102F6000F4EEC77AF1EE10FA38DD80ED087AD0ED94
:102F7000027A77EEA77A90ED0B7A30EE477A67EE19
:102F8000877A90ED037A37EE077A37EE665AD0EDFE
:102F9000094A25EE245A77EE857AF1EE677A37EE04
:102FA000267AC7EE876AC0ED096AD0ED087A77EE17
:102FB000A57A76EEA77AC0ED0E7A90ED057AF4EE5A
:102FC000C77AF1EE10FA13DD80ED0E7A80ED0A6A11
:102FD00080ED0B0A016390ED0E0A704790ED067AC2
:102FE000F4EEC77AF1EE10FAC1D580ED087ABEE7AB
:102FF00090ED047AF4EEC77AF1EE10FAE6D580EDA2
:103000000E7AE3E70024744982B0002301930D4B4C
:103010001B68B3F1FF3F08D04FF0500383F31188D2
:10302000BFF36F8FBFF34F8FFEE74FF0500383F373
:103030001188BFF36F8FBFF34F8F019B002BFCD024
:1030400002B070476400002008480068006880F300
:1030500008884FF0000080F3148862B661B6BFF3B1
:103060004F8FBFF36F8F00DF00BF000008ED00E05F
:10307000DFF80C00016841F4700101607047000046
:1030800088ED00E04FF0807340F8043C21F001012E
:1030900040F8081C054B40F80C3C40F8202C6FF021
:1030A000020340F8243C4438704700BF0930000850
:1030B000074B19680868B0E8F04F80F30988BFF340
:1030C0006F8F4FF0000080F311887047AFF30080DE
:1030D000786400204FF0500383F31188BFF36F8FA3
:1030E000BFF34F8F0B4A136801331360012B00D0DD
:1030F00070474FF0E023D3F8043D13F0FF0FF7D0F3
:103100004FF0500383F31188BFF36F8FBFF34F8FDE
:10311000FEE700BF64000020094B1B6843B94FF075
:10312000500383F31188BFF36F8FBFF34F8FFEE718
:10313000013B034A13600BB983F31188704700BF4A
:1031400064000020000000000000000000000000FB
:10315000EFF30980BFF36F8F154B1A681EF0100F45
:1031600008BF20ED108A20E9F04F10602DE909001A
:103170004FF0500080F31188BFF34F8FBFF36F8F74
:1031800005F034FB4FF0000080F3118809BC19688A
:103190000868B0E8F04F1EF0100F08BFB0EC108ABE
:1031A00080F30988BFF36F8F704700BFAFF30080D3
:1031B0007864002008B54FF0500383F31188BFF303
:1031C0006F8FBFF34F8F05F0E3F928B14FF0E02385
:1031D0004FF08052C3F8042D002383F3118808BDFB
:1031E0004FF0E022002313619361054B1B680549F2
:1031F000A1FB03139B09013B536107231361704734
:1032000070000020D34D62104FF0E023D3F8002D62
:103210003D4B9A421CD04FF0E023D3F8002D3B4B9E
:103220009A421ED030B583B0394B1A78D2B201928F
:10323000FF221A701B78DBB28DF803309DF8033043
:1032400003F05003334A1370334B07221A601BE01C
:103250004FF0500383F31188BFF36F8FBFF34F8F8D
:10326000FEE74FF0500383F31188BFF36F8FBFF376
:103270004F8FFEE7284A1368013B13609DF8033027
:103280005B00DBB28DF803309DF8033013F0800F44
:10329000F0D1214B1B68032B08D04FF0500383F370
:1032A0001188BFF36F8FBFF34F8FFEE71B021A4ADF
:1032B000136003F4E0631360019BDBB2144A1370E4
:1032C0004FF0E024D4F8203D43F47003C4F8203DCF
:1032D000D4F8203D43F07043C4F8203DFFF780FF51
:1032E00000250E4B1D60FFF7C3FED4F8343F43F0BA
:1032F0004043C4F8343FFFF7A7FE05F077FAFFF725
:1033000083FE284603B030BD71C20F4170C20F4129
:1033100000E400E0BC5E0020B85E002064000020F5
:10332000EFF305830F2B0ED9114A9A5C114B1B78D2
:103330009A4208D24FF0500383F31188BFF36F8F86
:10334000BFF34F8FFEE74FF0E023D3F80C3D03F4BB
:10335000E063094A1268934208D94FF0500383F39F
:103360001188BFF36F8FBFF34F8FFEE7704700BF29
:10337000F0E300E0BC5E0020B85E002010B504461B
:10338000FFF7A8FEA26BE36B9A4204D00024FFF77C
:10339000C3FE204610BD0124F9E710B50446FFF72F
:1033A00099FEA36B23B90124FFF7B6FE204610BD9A
:1033B0000024F9E770B504461546866B026C5AB9CD
:1033C00003681BB100200136A66370BD806805F05C
:1033D00039FB0023A360F6E76DB9406807F0BAFE39
:1033E0006368226C13446360A268934219D3236814
:1033F00063602846E7E7C06807F0ACFEE368226C2C
:1034000051429B1AE3602268934202D2A3680B44A4
:10341000E360022D01D00020D5E726B1013E002057
:10342000D1E72846CFE70020CDE70346026C6AB11A
:1034300010B50846D9681144D9609C68A14201D3EF
:103440001968D960D96807F085FE10BD704738B596
:103450000546FFF73FFE95F8454064B201E0013CA8
:1034600064B2002C0ADD6B6A43B105F1240005F05B
:103470003DFA0028F3D005F0CFFAF0E7FF2385F8F6
:103480004530FFF749FEFFF725FE95F8444064B24A
:1034900001E0013C64B2002C0ADD2B6943B105F167
:1034A000100005F023FA0028F3D005F0B5FAF0E794
:1034B000FF2385F84430FFF72FFE38BD38B5E0B163
:1034C0000D460446FFF706FE2368E26B216C01FB04
:1034D0000230A0600020A0636360013A02FB013368
:1034E000E360FF2384F8443084F84530FDB9236954
:1034F00063B9FFF711FE012038BD4FF0500383F38D
:103500001188BFF36F8FBFF34F8FFEE704F11000F8
:1035100005F0ECF90028ECD04FF0E0234FF080529A
:10352000C3F8042DBFF34F8FBFF36F8FE1E704F1B2
:103530001000FFF713FC04F12400FFF70FFCD8E79D
:1035400038B51D46049C0B4649B92460E0632364EA
:1035500001212046FFF7B2FF84F84C5038BD2260AD
:10356000F4E740B94FF0500383F31188BFF36F8F36
:10357000BFF34F8FFEE710B584B01C46844653B1AD
:1035800092B189B94FF0500383F31188BFF36F8F65
:10359000BFF34F8FFEE74FF0500383F31188BFF363
:1035A0006F8FBFF34F8FFEE76AB150230393039BE6
:1035B000502B13D04FF0500383F31188BFF36F8F5C
:1035C000BFF34F8FFEE70029EFD04FF0500383F396
:1035D0001188BFF36F8FBFF34F8FFEE7039B01236B
:1035E00084F8463000949DF818306046FFF7A8FF35
:1035F000204604B010BD40B94FF0500383F311884A
:10360000BFF36F8FBFF34F8FFEE7F0B583B00D466A
:103610001446064601FB00F05030FEF7DFFF074678
:1036200050B1002380F846300090234600F150024C
:1036300029463046FFF784FF384603B0F0BDF0B5A9
:1036400085B0019288B10F461D460446B1B1022DE6
:1036500020D1E36B012B1DD04FF0500383F3118871
:10366000BFF36F8FBFF34F8FFEE74FF0500383F32D
:103670001188BFF36F8FBFF34F8FFEE7036C002BF2
:10368000E5D04FF0500383F31188BFF36F8FBFF382
:103690004F8FFEE705F0C6F9064658B9019B002B8F
:1036A00048D04FF0500383F31188BFF36F8FBFF3FF
:1036B0004F8FFEE700263DE02A4639462046FFF7B9
:1036C00079FE636A7BB948B14FF0E0234FF0805236
:1036D000C3F8042DBFF34F8FBFF36F8FFFF71CFDAF
:1036E000012005B0F0BD04F1240005F0FFF800282A
:1036F000F4D04FF0E0234FF08052C3F8042DBFF315
:103700004F8FBFF36F8FE9E7FFF706FD0020E8E773
:1037100002A805F031F9012619E0002384F84430AD
:1037200021E0002384F8453023E02046FFF78FFE98
:1037300004F0BAFFFFF7CEFCA26BE36B9A42BBD357
:10374000022DB9D0019B002BDED0002EE0D0FFF778
:10375000E3FC04F00FFFFFF7BDFC94F8442052B2E5
:10376000B2F1FF3FD9D094F8452052B2B2F1FF3FF9
:10377000D7D0FFF7D1FC01A902A805F009F9D8B903
:103780002046FFF7FBFD0028CFD0019904F110007F
:1037900005F078F82046FFF75AFE04F085FF002870
:1037A000C8D14FF0E0234FF08052C3F8042DBFF38F
:1037B0004F8FBFF36F8FBDE72046FFF748FE04F041
:1037C00073FF00208DE72DE9F84390B10F461646B0
:1037D0001C460546B1B1022C20D1EB6B012B1DD04C
:1037E0004FF0500383F31188BFF36F8FBFF34F8FF8
:1037F000FEE74FF0500383F31188BFF36F8FBFF3E1
:103800004F8FFEE7036C002BE5D04FF0500383F39E
:103810001188BFF36F8FBFF34F8FFEE7FFF780FD77
:10382000EFF311884FF0500383F31188BFF36F8FCC
:10383000BFF34F8FAA6BEB6B9A4206D3022C04D0D6
:10384000002088F31188BDE8F88395F845904FFA79
:1038500089F9AB6B224639462846FFF7ABFDB9F133
:10386000FF3F06D009F101035BB285F84530012026
:10387000E7E76B6A0BB90120E3E705F1240005F0E7
:1038800035F818B126B101203060DAE70120D8E719
:103890000120D6E7F0B585B0019290B10F460446FD
:1038A000C1B105F0BFF8064600BB019B002B5ED0FE
:1038B0004FF0500383F31188BFF36F8FBFF34F8F27
:1038C000FEE74FF0500383F31188BFF36F8FBFF310
:1038D0004F8FFEE7036C002BE3D04FF0500383F3D0
:1038E0001188BFF36F8FBFF34F8FFEE700263EE0D6
:1038F00039462046FFF799FD013DA563236923B9A9
:10390000FFF70AFC012005B0F0BD04F1100004F03F
:10391000EDFF0028F4D04FF0E0234FF08052C3F8C1
:10392000042DBFF34F8FBFF36F8FE9E7FFF7F4FB71
:103930000020E8E702A805F01FF8012621E0002397
:1039400084F8443029E0002384F845302BE02046F9
:10395000FFF77DFD04F0A8FE09E02046FFF777FDA4
:1039600004F0A2FE2046FFF718FD00283FD1FFF724
:10397000B1FBA56B002DBBD1019B002BD6D0002E37
:10398000D8D0FFF7C9FB04F0F5FDFFF7A3FB94F8CF
:1039900044305BB2B3F1FF3FD1D094F845305BB215
:1039A000B3F1FF3FCFD0FFF7B7FB01A902A804F0A6
:1039B000EFFF0028D1D12046FFF7EFFC0028C6D04A
:1039C000019904F1240004F05DFF2046FFF73FFD5C
:1039D00004F06AFE0028CAD14FF0E0234FF0805275
:1039E000C3F8042DBFF34F8FBFF36F8FBFE70020E5
:1039F00089E72DE9F843B0B10D4690460446D9B1A8
:103A0000FFF78EFCEFF311874FF0500383F311881B
:103A1000BFF36F8FBFF34F8FA66BCEB9002087F334
:103A20001188BDE8F8834FF0500383F31188BFF38A
:103A30006F8FBFF34F8FFEE7036C002BE0D04FF08A
:103A4000500383F31188BFF36F8FBFF34F8FFEE7EF
:103A500094F844904FFA89F929462046FFF7E5FC8F
:103A6000731EA363B9F1FF3F06D009F101035BB2F6
:103A700084F844300120D2E723690BB90120CEE756
:103A800004F1100004F032FF30B1B8F1000F05D09E
:103A90000120C8F80000C2E70120C0E70120BEE70E
:103AA0000023072B0CD8074A52F833200AB1013300
:103AB000F7E7044A42F8331002EBC3025060704744
:103AC000704700BFC05E002070B504460D46164624
:103AD000FFF700FB94F844305BB2B3F1FF3F0DD029
:103AE00094F845305BB2B3F1FF3F0BD0FFF714FB06
:103AF000A36B5BB12046FFF7AAFC70BD002384F8DE
:103B00004430EDE7002384F84530EFE7324629469C
:103B100004F1240004F0CEFEECE7000008B520B16B
:103B200080ED010A0170027208BD0248FEF7AAFB8F
:103B3000FAE700BFD0CE000810B50446007AFDF7C2
:103B40005DF907EE100AB8EE477ADFED1A6AC7EEA4
:103B5000267A9FED197A67EE877A9FED187AF4EE50
:103B6000C77AF1EE10FA13DB9FED157AF4EEC77AFF
:103B7000F1EE10FA0CD8237883B9D4ED016A66EE21
:103B8000A76A9FED0D7A77EE677A86EEA70A04E0C2
:103B90000C48FEF777FB9FED0C0A10BD9FED067AEF
:103BA00037EE677AD4ED016A27EE267A87EE270A88
:103BB000F3E700BF00F07F4533335340C3F5283EA1
:103BC000D7A34840E8CE00080000C07F10B5B0B3CE
:103BD000044603880BB94388BBB32079FDF70EF97F
:103BE00007EE900A6379B3B3F8EE677A228807EE9E
:103BF000102AF8EE476A638807EE103AB8EE477A63
:103C00009A4245D077EEE67A9FED266A67EE867A8D
:103C100037EE667A87EE870ADFED237A30EE270AE1
:103C2000B5EEC00AF1EE10FA38D4DFED1E7AB4EE2C
:103C3000E70AF1EE10FA01DDB0EE670A10BD1B488D
:103C4000FEF720FB9FED1A0AF8E71A48FEF71AFB69
:103C50009FED170AF2E7F8EE677A628807EE102AFE
:103C6000F8EE476A238807EE103AB8EE477A9A4290
:103C700011D077EEE67A9FED0B6A67EE867A37EE23
:103C8000667A87EE870ADFED087A30EE270AC7E703
:103C90009FED050AC9E79FED040AC6E79FED020AFA
:103CA000CCE700BF0000C8420000000000CF0008C1
:103CB0000000C07F0CCF000810B568B1044679B190
:103CC000012915D16423038040F6B83343800523CE
:103CD0000371094B1C6010BD0848FEF7D3FAFAE7E0
:103CE0000023038040F6FF73438005230371F0E750
:103CF0000348FEF7C7FAECE7085F002024CF00086E
:103D000038CF000808B5224B1B681A880AB95A88B0
:103D10007AB31879FDF772F807EE900AF8EE677A31
:103D20001B4B1B681A8807EE102AF8EE476A5B885F
:103D300007EE103AB8EE477A9A4220D077EEE67A4C
:103D40009FED146A67EE867A37EE667A87EE870A09
:103D5000DFED117A30EE270AB4EEE70AF1EE10FA41
:103D600010DBDFED0E7AB4EEE70AF1EE10FA09D8B7
:103D700008BD0B48FEF786FA9FED070AF8E79FEDAE
:103D8000060AEEE70748FEF77DFA9FED030AEFE724
:103D9000085F00200000C842000000000000F04260
:103DA00058CF00086CCF000870B58AB00446E9B15E
:103DB000012938D1062200219FED1D0AFFF7AEFE32
:103DC00004AD1C4E0FCE0FC596E8030085E8030036
:103DD0000AAB13E907008DE8070004AB0ECB2046C1
:103DE00004F078FE144B1C600AB070BD062200215E
:103DF0009FED120AFFF792FE0DF1100C104D0FCD42
:103E0000ACE80F0095E803008CE803000AAB13E967
:103E100007008DE8070004AB0ECB204604F05AFEE5
:103E2000054B1C60E0E70748FEF72CFADCE700BF13
:103E300000401C46E4CB0008045F002000E09245EF
:103E4000FCCB000888CF000808B5104B186880B17B
:103E500004F0B4FEDFED0E7AB4EEE70AF1EE10FAEC
:103E60000DDBDFED0C7AB4EEE70AF1EE10FA06D8BE
:103E700008BD0948FEF706FA9FED080AF8E708486A
:103E8000FEF700FA9FED050AF2E700BF045F00208D
:103E9000000048C200001643A8CF000800002042DE
:103EA000BCCF000870B58AB0F8B1044609B3012947
:103EB0003CD1072200219FED1F0AFFF72FFE04AD22
:103EC0001D4E0FCE0FC596E8030085E803000AAB30
:103ED00013E907008DE8070004AB0ECB204604F081
:103EE000F9FD164B1C600AB070BD1548FEF7CAF903
:103EF000F9E7072200219FED130AFFF70FFE0DF1EE
:103F0000100C114D0FCDACE80F0095E803008CE8C4
:103F100003000AAB13E907008DE8070004AB0ECBE2
:103F2000204604F0D7FD054B1C60DCE70748FEF790
:103F3000A9F9D8E700401C4614CC0008005F002017
:103F4000D8CF000800E09245FCCB0008ECCF000879
:103F500008B5104B186880B104F030FEDFED0E7A22
:103F6000B4EEE70AF1EE10FA0DDBDFED0C7AB4EEF9
:103F7000E70AF1EE10FA06D808BD0948FEF782F903
:103F8000B3EE0E0AF8E70748FEF77CF9B3EE0E0A27
:103F9000F2E700BF005F0020000048C200001643A7
:103FA000D8CF00080CD0000808B50B4B1A6842F4B3
:103FB00000721A601A6842F480621A601A6842F449
:103FC00080721A60032000F0FFFB0F2003F036F927
:103FD00001F0FCF9002008BD003C0240034A1168D2
:103FE000034B1B780B441360704700BF0C5F00202D
:103FF00068000020014B1868704700BF0C5F00206C
:1040000038B50446FFF7F6FF0546B4F1FF3F02D08E
:10401000044B1B781C44FFF7EDFF401BA042FAD372
:1040200038BD00BF680000204A4B5A6822F4403275
:104030005A605A6841680A435A600268536823F418
:104040008073536002685368016943EA0123536037
:104050000268536823F040735360026853688168B4
:104060000B4353600268936823F400639360026813
:104070009368C1680B439360826A374B9A4257D06A
:104080000268936823F07063936002689368816AA2
:104090000B4393600268936823F040539360026877
:1040A0009368C16A0B4393600268936823F002032C
:1040B000936002689368017E43EA4103936090F83D
:1040C0002030002B3FD00268536843F400635360F4
:1040D0000268536823F46043536001684B68426A86
:1040E000013A43EA42334B600268D36A23F4700317
:1040F000D3620168CB6AC269013A43EA0253CB62D8
:104100000268936823F4007393600268936890F8E0
:10411000301043EA412393600268936823F480637C
:10412000936002689368416943EA81239360704712
:104130000268936823F0706393600268936823F0C9
:1041400040539360B0E70268536823F40063536000
:10415000CAE700BF002301400100000F38B310B5CB
:104160000446036C43B1236C13F0100F0BD00120F5
:10417000002384F83C3010BDFCF7AEFD00236364DF
:1041800084F83C30EFE7236C23F4885323F00203D8
:1041900043F0020323642046FFF746FF00206064DB
:1041A000236C23F0030343F001032364E0E70120C1
:1041B0007047000010B582B013460022019290F8BB
:1041C0003C20012A00F094800446012280F83C2023
:1041D0000268906810F0010F13D1906840F0010060
:1041E0009060464A1068464AA2FB0020800C00EB13
:1041F0004000019002E001980138019001980028E8
:10420000F9D12268906810F4807F03D0906820F480
:10421000807090602268906810F0010F5DD0206C73
:1042200020F4E06020F0010040F4807020645268C7
:1042300012F4806F05D0226C22F4405242F4805276
:104240002264226C12F4805F34D0626C22F0060289
:104250006264002284F83C20A26B2A48D063A26BDF
:1042600029481064A26B2948D06422686FF02200AC
:1042700010602068426842F0806242602068826874
:1042800042F48072826020680A4600F14C01A06B03
:1042900000F0B2FB1E4B5B6813F01F0F0DD12368BB
:1042A0009A6812F0405F25D19A6842F080429A6085
:1042B00000201BE000226264CBE72368154A93428A
:1042C00001D0002012E09A6812F0405F14D19A6881
:1042D00042F080429A60002008E0236C43F0100313
:1042E0002364636C43F001036364002002B010BDDB
:1042F0000220FBE70020F9E70020F7E7700000202C
:1043000083DE1B433D4300081B430008274300088E
:104310000023014000200140704708B5806BFFF783
:10432000FBFF08BD704708B5806B40230364436CF6
:1043300043F004034364FFF7F5FF08BD08B50346E7
:10434000806B026C12F0500F25D1036C43F40073A4
:10435000036403689A6812F0405F19D1027EBAB90B
:10436000DA6A12F4700F03D09A6812F4806F0FD1DA
:104370005A6822F020025A60036C23F480730364AD
:10438000036C13F4805F03D1036C43F001030364F7
:10439000FCF71AFD08BD026C12F0100F04D1826BFD
:1043A000D26C18469047F5E7FFF7BCFFF2E7000034
:1043B00030B482B00022019290F83C20012A00F033
:1043C000B6800346012280F83C200A68092A40D9B9
:1043D0000468E06892B202EB42021E3A4FF0070C0A
:1043E0000CFA02F220EA0202E2601C68E0680A8825
:1043F00002EB42021E3A8D6805FA02F20243E260C5
:104400004A68062A3CD81C68606B02EB8202053AB7
:104410004FF01F0C0CFA02F220EA020262631C68E1
:10442000606B4A6802EB8202053AB1F800C00CFAF0
:1044300002F20243626318683E4A904250D0186804
:104440003C4A904255D0002083F83C0002B030BC7A
:1044500070470468206992B202EB42024FF0070CE9
:104460000CFA02F220EA020222611C6820690A8822
:1044700002EB42028D6805FA02F202432261BFE7B5
:104480000C2A16D81D68286B02EB8202233A1F24DF
:1044900004FA02F220EA02022A631D68286B4A68C5
:1044A00002EB8202233A0C8804FA02F202432A63E6
:1044B000C1E71D68E86A02EB8202413A1F2404FA50
:1044C00002F220EA0202EA621D68E86A4A6802EB28
:1044D0008202413A0C8804FA02F20243EA62AAE735
:1044E0000A68122AABD11448426842F48002426042
:1044F000A5E70A68103A012AA5D80F48426842F495
:10450000000242600A68102A9DD10C4A12680C49C8
:10451000A1FB0212920C02EB82025200019202E015
:10452000019A013A0192019A002AF9D18BE70220FF
:104530008CE700BF002001400023014070000020F4
:1045400083DE1B4390F83C20012A00F0F28030B457
:104550000346012280F83C200A68092A40F289803B
:104560000568E86892B202EB42021E3A072404FA98
:1045700002F220EA0202EA601D68E8688C680A8894
:1045800002EB42021E3A94402043E8601868826BB6
:1045900022F4401282631C68A26B0869013842EA67
:1045A0000052A2631C68A06B4A680D69521BD2B20C
:1045B0000332D2B202EB82024FF01F0C0CFA02F26D
:1045C00020EA0202A2631C68A06B4A680D69521BB4
:1045D000D2B20332D2B202EB8202B1F800C00CFABE
:1045E00002F20243A2638869534A904256D0186887
:1045F000826822F470228260186882688C69224383
:1046000082601868826822F44012826018688268AA
:10461000CC69224382604A7D002A4AD018684268E9
:1046200042F4806242600A7D002A48D018684268DD
:1046300042F4805242604A68022A46D0032A4FD090
:10464000012A58D1186842696FF30B024261186859
:104650004269CC68224342611868384A904255D07A
:104660001868364A90425AD0002083F83C0030BC8B
:1046700070470568286992B202EB4202072404FAE7
:1046800002F220EA02022A611D6828698C680A8801
:1046900002EB420294402043286177E71868826861
:1046A00022F4702282601868826822F440128260CC
:1046B000B1E71868426822F480624260B3E7186884
:1046C000426822F480524260B5E7186882696FF34D
:1046D0000B02826118688269CC6822438261BBE761
:1046E0001868C2696FF30B02C2611868C269CC68AE
:1046F0002243C261B0E71868026A6FF30B020262DC
:104700001868026ACC6822430262A5E70A68122A86
:10471000A6D10B48426842F480024260A0E70A68D2
:10472000103A012AA0D806494A6842F400024A60B9
:104730009AE70220704700BF01000F0000200140EF
:1047400000230140002807DB00F01F02400901237D
:104750009340024A42F82030704700BF00E100E079
:10476000002808DB0901C9B200F1604000F5614092
:1047700080F80013704700F00F000901C9B2014B27
:104780001954704714ED00E000B500F00700C0F1C7
:10479000070CBCF1040F28BF4FF0040C031D062BBF
:1047A0000FD9C31E4FF0FF3E0EFA0CF021EA0001B4
:1047B00099400EFA03FE22EA0E0241EA02005DF879
:1047C00004FB0023EEE70000074AD36823F4E0630C
:1047D0001B041B0C000200F4E060034343F0BF63C2
:1047E00043F40033D360704700ED00E010B5044699
:1047F000054BD868C0F30220FFF7C6FF01462046EC
:10480000FFF7AEFF10BD00BF00ED00E008B5FFF7F9
:1048100099FF08BD58B110B5044643791BB1012377
:104820006371002010BD0371FDF790F9F7E70120D7
:10483000704730B405682C6824F480242C60046828
:1048400063608368402B05D0036899600368DA6071
:1048500030BC704703689A600368D960F8E70000CD
:1048600010B40368D9B210390A4AA2FB01421209F6
:10487000094CA25CC2655F2907D96FF309030433B1
:104880008365806D5DF8044B70476FF309038365A2
:10489000F7E700BFABAAAAAADCD10008836A826945
:1048A00092B9012B0AD0022B02D00BB10020704725
:1048B000C36A13F0807F28D100207047C36AB3F128
:1048C000C07F24D000207047B2F5005F09D0022BD2
:1048D00025D9032B25D1C36A13F0807F23D1002073
:1048E0007047032B03D8DFE803F01404140A0020F8
:1048F0007047C36A13F0807F0DD100207047C36AF0
:10490000B3F1C07F09D0002070470120704701201B
:104910007047012070470120704701207047012037
:1049200070470020704701207047000070B50446B2
:10493000FFF760FB002C5BD00546022384F835307E
:10494000002384F834302268136823F001031360D5
:1049500023681A6812F0010F0AD0FFF74BFB431BC4
:10496000052BF5D920236365032084F8350070BD3D
:104970001A68204911406268A0680243E068024357
:104980002069024360690243A0690243E06902436F
:10499000206A02430A43616A04291ED01A6026680D
:1049A000756925F00705636A1D43042B07D1A36AC7
:1049B0001D43E36A1BB12046FFF770FF90B9756194
:1049C0002046FFF74DFFE26D3F23934083600020B8
:1049D0006065012384F83530C9E7E16A206B014343
:1049E0000A43DBE740236365012084F83500BEE716
:1049F0000120BCE73F8010F038B50446856D90F883
:104A0000340001282AD0012084F8340094F83500BD
:104A1000012804D0002384F83430022038BD02205D
:104A200084F83500002060652046FFF702FFE26D44
:104A30003F239340AB602268136843F01603136072
:104A4000236C23B12268136843F0080313602268C3
:104A5000136843F0010313600020DFE70220DDE765
:104A6000F0B583B0044600230193724B1D68724B6E
:104A7000A3FB0535AD0A876D3E68C26D08239340E0
:104A8000334210D003681A6812F0040F0BD01A6872
:104A900022F004021A60C26D08239340BB60436D8C
:104AA00043F001034365E26D01239340334209D093
:104AB0002268526912F0800F04D0BB60636D43F02E
:104AC00002036365E26D04239340334209D02268F8
:104AD000126812F0020F04D0BB60636D43F0040350
:104AE0006365E26D10239340334224D0226812683C
:104AF00012F0080F1FD0BB6023681A6812F4802FD1
:104B00000DD01B6813F4002F04D1236C9BB12046F9
:104B1000984710E0A36C73B1204698470BE01A68E1
:104B200012F4807F03D11A6822F008021A60236C05
:104B30000BB120469847E26D20239340334254D076
:104B40002268126812F0100F4FD0BB6094F8353015
:104B5000052B0ED023681A6812F4802F33D01B68FF
:104B600013F4002F2AD1636C002B3ED020469847C7
:104B70003BE02268136823F0160313602268536930
:104B800023F080035361236CA3B12268136823F0E0
:104B900008031360E26D3F239340BB60012384F858
:104BA0003530002384F83430236D002B3FD020466D
:104BB00098473CE0A36C002BE7D1EBE7E36BA3B194
:104BC0002046984711E01A6812F4807F09D11A68CC
:104BD00022F010021A60012384F83530002384F893
:104BE0003430E36B0BB120469847636DFBB1636DC6
:104BF00013F0010F17D0052384F8353022681368AD
:104C000023F001031360019B01330193AB4204D8ED
:104C100023681B6813F0010FF5D1012384F83530A8
:104C2000002384F83430E36C0BB12046984703B07E
:104C3000F0BD00BF70000020B5814E1B10B40A49C2
:104C40000C6924F440740C610C6944F440740C61E8
:104C50000C6944F001040C610260BFF36F8F436084
:104C60005DF8044B704700BF003C0240074B1A69D7
:104C700022F440721A611A6942F400721A611A69C8
:104C800042F001021A610160704700BF003C02401F
:104C9000074B1A6922F440721A611A6942F4807251
:104CA0001A611A6942F001021A610180704700BF5F
:104CB000003C0240064B1A6922F440721A611A69DC
:104CC0001A611A6942F001021A610170704700BF4F
:104CD000003C0240274BDB6813F0100F07D0264A38
:104CE000D36943F01003D361224B1022DA60214BC9
:104CF000DB6813F0200F07D01F4AD36943F0080385
:104D0000D3611C4B2022DA601A4BDB6813F0400F92
:104D100007D0194AD36943F00403D361154B4022ED
:104D2000DA60144BDB6813F0800F07D0124AD369A6
:104D300043F00203D3610F4B8022DA600D4BDB6836
:104D400013F4807F08D00C4AD36943F00103D36188
:104D5000084B4FF48072DA60064BDB6813F0020FE9
:104D600007D0054AD36943F02003D361014B0222E7
:104D7000DA607047003C0240105F0020094B1B695D
:104D8000002B01DB00207047064B074A5A6002F1F6
:104D900088325A601B69002B01DB0020704701201C
:104DA000704700BF003C024023016745034A136976
:104DB00043F0004313610020704700BF003C0240F5
:104DC00038B50446144B0022DA61FFF713F90546A3
:104DD000124BDB6813F4803F0AD0B4F1FF3FF7D0E9
:104DE00024B1FFF707F9401BA042F1D903200DE0E1
:104DF0000A4BDB6813F0010F02D0084B0122DA6086
:104E0000064BDB6813F4F97F01D1002038BDFFF7B2
:104E100061FF0120FAE700BF105F0020003C024064
:104E2000F8B516461B4A127E012A30D004460D46BC
:104E30001F46184B01221A764CF25030FFF7C0FF84
:104E400090B9ACB1012C18D0022C1BD032463B4695
:104E50002846FFF7F3FE4CF25030FFF7B1FF0E4A41
:104E6000136923F0010313610A4B00221A76F8BD7F
:104E7000F1B22846FFF71EFFEDE7B1B22846FFF773
:104E800007FFE8E731462846FFF7F0FEE3E7022098
:104E9000EDE700BF105F0020003C0240074B1A699D
:104EA00022F440721A611A6942F004021A611A6906
:104EB00042EA002242F480321A617047003C02400C
:104EC000012905D0022906D039B14FF4407104E020
:104ED0004FF4807101E04FF400710B4B1A6922F41A
:104EE00040721A611A690A431A611A6922F0F802BB
:104EF0001A611A6942EAC00040F0020018611A699A
:104F000042F480321A617047003C0240164B1B6825
:104F100013F4007F10D0144B1A6822F400721A6048
:104F20001A6842F400621A601A6822F400621A6079
:104F30001A6842F400721A600B4B1B6813F4806FFE
:104F400010D0094B1A6822F480621A601A6842F481
:104F500080521A601A6822F480521A601A6842F469
:104F600080621A60704700BF003C0240F8B5224BD7
:104F70001B7E012B3ED004460E461F4B01221A76A3
:104F80004CF25030FFF71CFF074670BB4FF0FF3369
:104F900033602368012B16D0A568E368A268134428
:104FA000AB4220D9217C2846FFF78AFF4CF25030D3
:104FB000FFF706FF114A136923F0FA03136107464E
:104FC00080B90135E9E76168207CFFF767FF4CF2A3
:104FD0005030FFF7F5FE0746084A136923F0040333
:104FE000136100E03560FFF791FF034B00221A7652
:104FF0003846F8BD0227FBE7105F0020003C024066
:1050000000230F2B00F2D78070B582B065E0856871
:105010004FEA430E032404FA0EF425EA0405CC6893
:1050200004FA0EF42C438460446824EA02044A68BB
:10503000C2F300129A40224342605CE0DC0808346C
:1050400050F8242003F00705AD004FF00F0E0EFAC4
:1050500005FE22EA0E0E0A69AA4042EA0E0240F854
:1050600024205CE0042200E0002202FA0EF22A432F
:105070000234514D45F82420504A94686FEA0C02DE
:1050800024EA0C054E6816F4801F01D04CEA040592
:105090004A4CA560E46802EA04054E6816F4001F55
:1050A00001D04CEA0405454CE560646802EA040559
:1050B0004E6816F4003F01D04CEA04053F4C656091
:1050C000246822404D6815F4803F01D04CEA040268
:1050D0003A4C226001330F2B6BD801229A400C68A6
:1050E00004EA020C32EA0404F4D14C6804F003042C
:1050F000013C012C8BD94A6802F00302032A09D033
:10510000C4685D000322AA4024EA02048A68AA4017
:105110002243C2604A6802F00302022A8ED0046869
:105120004FEA430E032202FA0EF224EA02044A680E
:1051300002F0030202FA0EF2224302604A6812F4FD
:10514000403FC7D0002201921D4A546C44F4804471
:105150005464526C02F480420192019A9C08A51C8E
:10516000154A52F8255003F0030E4FEA8E0E0F2217
:1051700002FA0EF225EA0205124A90423FF474AF99
:1051800002F5806290420ED002F5806290420CD00F
:1051900002F5806290420AD002F5806290423FF4AC
:1051A00061AF072261E701225FE702225DE7032288
:1051B0005BE702B070BD704700380140003C014021
:1051C00000380240000002400369194201D001206A
:1051D0007047002070470AB18161704709048161FE
:1051E0007047436901EA030221EA030141EA0241EF
:1051F0008161704708B5054B5B69034200D108BD6A
:10520000024B5861FDF7F0FDF9E700BF003C01409B
:10521000002800F0CC8070B5044690F83D30002B9B
:1052200077D0242384F83D302268136823F00103EB
:1052300013602268136843F4004313602268136804
:1052400023F40043136001F025FA62685A4B9A4236
:1052500064D85A4B98428CBF00230123002B40F0A6
:10526000A8805749A1FB00318B0C25686A6822F0A1
:105270003F0242EA91426A6021680A6A22F03F02D4
:1052800066684D4DAE424FD8013313430B6221681F
:10529000CA6922F44F4222F0FF026568464B9D42E4
:1052A0004CD8431E6D00B3FBF5F3013340F6FC70A0
:1052B000034278D0C3F30B031A43CA6121680B6819
:1052C00023F0C003E269206A024313430B602168A4
:1052D0008B6823F4034323F0FF032269E068024351
:1052E00013438B602168CB6823F0FF036269A069D8
:1052F00002431343CB602268136843F00103136039
:1053000000202064202384F83D30206384F83E0090
:1053100070BD80F83C30FDF73FFA82E7294B984298
:105320008CBF0023012399E74FF4967505FB03F327
:10533000254DA5FB03539B090133A6E7A668BEB91B
:10534000431E05EB450CB3FBFCF30133C3F30B0326
:10535000B3FA83F35B0943BBC6B9431E05EB4505AE
:10536000B3FBF5F30133C3F30B0343F40043A3E7AB
:10537000431E05EB850C0CEB8C0CB3FBFCF30133EB
:10538000C3F30B03B3FA83F35B09E4E7431E05EBB6
:10539000850505EB8505B3FBF5F30133C3F30B037B
:1053A00043F4404388E7042386E7012384E7012090
:1053B00070470120ACE700BFA08601007F841E007B
:1053C00083DE1B43FF083D00D34D621000B583B060
:1053D000002200920D4B596C41F480415964596C84
:1053E00001F48041009100990192196C41F08051C3
:1053F00019641B6C03F080530193019B0F216FF024
:105400000100FFF7F3F903B05DF804FB0038024038
:105410002DE9F04383B0D0F8008001EBC10300EB2D
:1054200083039A6A5B6A9A4254D807460C469B1AD1
:1054300001EBC10200EB8202D2699A4200D31A4604
:1054400002F103094FEA990915E006F103094FEA51
:105450009909BB7904EBC40507EB8505296A00931C
:10546000B3B2E2B2404602F0CCFA2B6A33442B626C
:10547000AB6A3344AB6208EB441303F510639B69DA
:105480009BB24B4512D304EBC40307EB83039A6A28
:105490005B6A9A420AD24BB19B1A04EBC40207EB37
:1054A0008202D6699E42D0D31E46CEE704EBC403E7
:1054B00007EB83077A6ABB6A9A420FD804F00F049D
:1054C0000122A240D8F8343823EA0203C8F834385D
:1054D000002000E0012003B0BDE8F0830020FAE7DF
:1054E00030B583B000287AD00446056890F895342A
:1054F000C3B1032384F89534B5F1A04F17D02068C9
:1055000002F030F8237C8DF80030231D0ECB20688C
:1055100001F067FF70B1022384F895340125284615
:1055200003B030BD80F8943404F090FDE1E700232F
:10553000A371E4E70021206802F079FC0246B8B9C3
:1055400003462079984218D903EBC30104EB81018B
:10555000012048750B75CB8500200876C86108626C
:1055600003EBC30104EB810148620133DBB2E8E7DE
:10557000022384F895340125D1E7904217D902EB34
:10558000C20304EB8303002183F8551283F85422ED
:1055900083F85812C3F85C12C3F8601202EBC2031E
:1055A00004EB8303C3F864120132D2B2E5E7237C33
:1055B0008DF80030231D0ECB206802F029F8054637
:1055C00020B1022384F895340125A8E700236374F1
:1055D000012384F89534206802F0E8FB9FE7012559
:1055E0009DE7036890F89424012A1AD010B5044668
:1055F000012280F89424DA6812F0400F02D0427B36
:10560000012A09D0206801F0A7FF206802F0C0FB42
:10561000002084F8940410BD9A6B42F480329A639F
:10562000F0E702207047000070B504460D460068A0
:10563000066C00EB411303F530639A68A1790129E8
:1056400011D038498E4256D03DB905EBC50304EB65
:105650008303D3F86432002B5ED0E9B2204604F015
:1056600041FD002070BD12F0080F09D02E498E4276
:10567000F7D912F4004FF4D04FF400429A60F0E7EB
:1056800012F0200F02D020229A60EAE712F0280FD1
:10569000E7D125498E4206D912F4004F03D04FF4CA
:1056A00000429A60DDE705EBC50204EB8202D2F806
:1056B00074121B69C3F31203CB1AC2F868327DB9A6
:1056C00005EBC50204EB8202D2F864226AB105EB55
:1056D000C50204EB8202D2F860121944C2F86012CB
:1056E000E9B2204604F0FEFCBBE704F29C42012133
:1056F00002F0DCFBF4E712F4004F03D04FF4004259
:105700009A60AEE712F0200F01D020229A60E9B231
:10571000204604F0E7FCA4E704F29C42002102F0DA
:10572000C5FB9AE70A31544F0A30544F38B5044646
:1057300003681D6C03EB4113D3F8081B0E4A954216
:1057400007D903F5306311F4004F02D04FF4004243
:105750009A60204604F0BEFC074B9D4202D9A37913
:10576000012B01D0002038BD04F29C4201212068A9
:1057700002F09CFBF6E700BF0A30544F90F89434D7
:10578000012B0CD010B50446012380F894344174E9
:10579000006802F0EDFA002084F8940410BD0220A5
:1057A000704738B505468C4611F0800F2BD101F0BB
:1057B0000F0E0EEBCE04A40004F514740444211D56
:1057C0000EEBCE0E00EB8E0E00208EF855020CF084
:1057D0000F0C81F800C0C2F30A028A600B714A788C
:1057E0000AB1A1F81AC0022B1CD095F89434012BF1
:1057F0001BD0012385F89434286801F0E6FF0020CF
:1058000085F8940438BD01F00F0000EBC001890059
:1058100010312944043100EBC00005EB8000012465
:105820004475D4E700234B71DFE70220EAE710B5A7
:1058300004460A4611F0800F20D101F00F0000EB62
:10584000C0039B0003F514732344191D00EBC00033
:1058500004EB8000002380F8553202F00F020A703A
:1058600094F89434012B18D0012384F894342068E0
:1058700001F0F8FF002084F8940410BD01F00F003F
:1058800000EBC0039B0010332344191D00EBC00044
:1058900004EB800001234375DFE70220EDE710B53C
:1058A000144601F00F0C0CEBCC01890001F51471CA
:1058B000014404310CEBCC0E00EB8E0ECEF86022CE
:1058C000CEF864320023CEF868328EF855328EF866
:1058D00054C28279012A04D0006802F0A9F800209D
:1058E00010BDCEF87042F7E701F00F0101EBC101E6
:1058F00000EB8100D0F86802704710B5144601F043
:105900000F0C0CEBCC0189001031014404310CEB7D
:10591000CC0E00EB8E0ECEF82020CEF824300023E3
:10592000CEF8283001238EF815308EF814C0827915
:105930009A4204D0006802F07BF8002010BDCEF837
:105940003040F7E738B501F00F050279AA4238D3A5
:1059500004460B4611F0800F1FD101EBC1018900F5
:1059600001F514710144043103EBC30300EB83031D
:10597000002283F8552201238B700D7094F8943423
:10598000012B20D0012384F89434206802F095F98B
:1059900085B1002084F8940438BD05EBC501890069
:1059A00010310144043105EBC50300EB83030122F0
:1059B0005A75E0E704F29C42A179206802F076FA79
:1059C000E7E70120E8E70220E6E701F00F030279AC
:1059D0009A4230D310B5044611F0800F1ED103EB6C
:1059E000C301890001F514710144043103EBC302C2
:1059F00000EB8202002082F8550200228A700B70B0
:105A000094F89434012B18D0012384F8943420683E
:105A100002F080F9002084F8940410BD03EBC30168
:105A2000890010310144043103EBC30200EB820210
:105A300001205075E1E7012070470220EDE708B52D
:105A400011F0800F0CD101F00F0101EBC1018900B1
:105A500001F5147101440431006801F073FF08BDC1
:105A600001F00F0101EBC101890010310144043143
:105A7000F2E72DE9F04F83B004460568284602F0AE
:105A8000D2F910B103B0BDE8F08F0646206802F0ED
:105A90009BF90028F6D005F50067BB68C3F30D231A
:105AA000C4F8D434206802F08FF910F0020F04D04B
:105AB0002268536903F002035361206802F084F9FD
:105AC00010F0100F15D02268936923F01003936132
:105AD000D5F8208008F00F0908F4F013B3F5802FF3
