:020000040800F2
:1000000000000120B5230008E11F0008E31F0008DD
:10001000E51F0008E71F0008E91F000800000000B6
:10002000000000000000000000000000EB1F0008BE
:10003000ED1F000800000000EF1F0008F11F00087E
:1000400005240008052400080524000805240008EC
:1000500005240008052400080524000805240008DC
:1000600005240008052400080524000805240008CC
:1000700005240008052400080524000805240008BC
:1000800005240008052400080524000800000000DD
:10009000000000000000000000000000052400082F
:1000A000052400080524000805240008052400088C
:1000B000052400080524000805240008052400087C
:1000C000052400080524000805240008052400086C
:1000D000052400080524000805240008000000008D
:1000E000F91F00080524000805240008000000008E
:1000F00000000000000000000000000005240008CF
:10010000000000000524000805240008052400085C
:1001100000000000000000000000000000000000DF
:10012000052400080524000805240008052400080B
:10013000052400080000000000000000000000008E
:10014000000000000000000000000000052400087E
:1001500005240008052400080524000805240008DB
:10016000052400080524000800000000000000002D
:10017000000000000000000000000000000000007F
:10018000000000000524000800000000000000003E
:04019000052400083A
:1001980081F0004102E000BF83F0004330B54FEA30
:1001A80041044FEA430594EA050F08BF90EA020F9D
:1001B8001FBF54EA000C55EA020C7FEA645C7FEA30
:1001C800655C00F0E2804FEA5454D4EB5555B8BF53
:1001D8006D420CDD2C4480EA020281EA030382EAC4
:1001E800000083EA010180EA020281EA0303362D56
:1001F80088BF30BD11F0004F4FEA01314FF4801C29
:100208004CEA113102D0404261EB410113F0004F3A
:100218004FEA03334CEA133302D0524263EB4303F1
:1002280094EA050F00F0A780A4F10104D5F1200E8F
:100238000DDB02FA0EFC22FA05F2801841F10001EA
:1002480003FA0EF2801843FA05F359410EE0A5F1BE
:1002580020050EF1200E012A03FA0EFC28BF4CF0EF
:10026800020C43FA05F3C01851EBE37101F00045A5
:1002780007D54FF0000EDCF1000C7EEB00006EEBB2
:100288000101B1F5801F1BD3B1F5001F0CD349083C
:100298005FEA30004FEA3C0C04F101044FEA445293
:1002A80012F5800F80F09A80BCF1004F08BF5FEA1A
:1002B800500C50F1000041EB045141EA050130BDFA
:1002C8005FEA4C0C404141EB0101013C28BFB1F50C
:1002D800801FE9D291F0000F04BF01460020B1FA57
:1002E80081F308BF2033A3F10B03B3F120020CDA2A
:1002F8000C3208DD02F1140CC2F10C0201FA0CF008
:1003080021FA02F10CE002F11402D8BFC2F1200C6C
:1003180001FA02F120FA0CFCDCBF41EA0C01904022
:10032800E41AA2BF01EB0451294330BD6FEA04046B
:100338001F3C1CDA0C340EDC04F11404C4F1200256
:1003480020FA04F001FA02F340EA030021FA04F368
:1003580045EA030130BDC4F10C04C4F1200220FABF
:1003680002F001FA04F340EA0300294630BD21FAFD
:1003780004F0294630BD94F0000F83F4801306BFC3
:1003880081F480110134013D4EE77FEA645C18BFB7
:100398007FEA655C29D094EA050F08BF90EA020F4E
:1003A80005D054EA000C04BF1946104630BD91EA46
:1003B800030F1EBF0021002030BD5FEA545C05D149
:1003C8004000494128BF41F0004130BD14F5800488
:1003D8003CBF01F5801130BD01F0004545F0FE41FC
:1003E80041F470014FF0000030BD7FEA645C1ABF31
:1003F800194610467FEA655C1CBF0B46024650EA68
:10040800013406BF52EA033591EA030F41F4002193
:1004180030BD00BF90F0000F04BF0021704730B519
:100428004FF4806404F132044FF000054FF00001EE
:1004380050E700BF90F0000F04BF0021704730B5AF
:100448004FF4806404F1320410F0004548BF404284
:100458004FF000013EE700BF42004FEAE2014FEAD9
:1004680031014FEA02701FBF12F07F4393F07F4FB4
:1004780081F06051704732F07F4208BF704793F0B7
:100488007F4F04BF41F40021704730B54FF46074CA
:1004980001F0004521F000411CE700BF50EA0102CD
:1004A80008BF704730B54FF000050AE050EA010276
:1004B80008BF704730B511F0004502D5404261EBE6
:1004C80041014FF4806404F132045FEA915C3FF427
:1004D800D8AE4FF003025FEADC0C18BF03325FEAC4
:1004E800DC0C18BF033202EBDC02C2F1200300FA75
:1004F80003FC20FA02F001FA03FE40EA0E0021FA9A
:1005080002F11444BDE600BF70B54FF0FF0C4CF487
:10051800E06C1CEA11541DBF1CEA135594EA0C0F39
:1005280095EA0C0F00F0DEF82C4481EA030621EA74
:100538004C5123EA4C5350EA013518BF52EA0335AF
:1005480041F4801143F4801338D0A0FB02CE4FF061
:100558000005E1FB02E506F00042E0FB03E54FF091
:100568000006E1FB03569CF0000F18BF4EF0010E89
:10057800A4F1FF04B6F5007F64F5407404D25FEA85
:100588004E0E6D4146EB060642EAC62141EA555138
:100598004FEAC52040EA5E504FEACE2EB4F1FD0C7A
:1005A80088BFBCF5E06F1ED8BEF1004F08BF5FEAF8
:1005B800500E50F1000041EB045170BD06F00046AA
:1005C80046EA010140EA020081EA0301B4EB5C0457
:1005D800C2BFD4EB0C0541EA045170BD41F480114F
:1005E8004FF0000E013C00F3AB8014F1360FDEBF74
:1005F800002001F0004170BDC4F10004203C35DA50
:100608000C341BDC04F11404C4F1200500FA05F3D2
:1006180020FA04F001FA05F240EA020001F0004273
:1006280021F0004110EBD37021FA04F642EB0601E9
:100638005EEA430E08BF20EAD37070BDC4F10C0413
:10064800C4F1200500FA04F320FA05F001FA04F2D7
:1006580040EA020001F0004110EBD37041F10001C3
:100668005EEA430E08BF20EAD37070BDC4F12005CE
:1006780000FA05F24EEA020E20FA04F301FA05F236
:1006880043EA020321FA04F001F0004121FA04F2DE
:1006980020EA020000EBD3705EEA430E08BF20EAAE
:1006A800D37070BD94F0000F0FD101F000464000E8
:1006B80041EB010111F4801F08BF013CF7D041EA6A
:1006C800060195F0000F18BF704703F0004652006E
:1006D80043EB030313F4801F08BF013DF7D043EA3F
:1006E8000603704794EA0C0F0CEA135518BF95EAF5
:1006F8000C0F0CD050EA410618BF52EA4306D1D17C
:1007080081EA030101F000414FF0000070BD50EA9A
:10071800410606BF1046194652EA430619D094EA24
:100728000C0F02D150EA013613D195EA0C0F05D10E
:1007380052EA03361CBF104619460AD181EA030162
:1007480001F0004141F0FE4141F470014FF000001A
:1007580070BD41F0FE4141F4780170BD70B54FF0B5
:10076800FF0C4CF4E06C1CEA11541DBF1CEA135535
:1007780094EA0C0F95EA0C0F00F0A7F8A4EB050417
:1007880081EA030E52EA03354FEA013100F088800E
:100798004FEA03334FF0805545EA131343EA1263D7
:1007A8004FEA022245EA111545EA10654FEA00268C
:1007B8000EF000419D4208BF964244F1FD0404F545
:1007C800407402D25B084FEA3202B61A65EB0305A1
:1007D8005B084FEA32024FF480104FF4002CB6EB5E
:1007E800020E75EB030E22BFB61A754640EA0C00DE
:1007F8005B084FEA3202B6EB020E75EB030E22BF1E
:10080800B61A754640EA5C005B084FEA3202B6EB5E
:10081800020E75EB030E22BFB61A754640EA9C001D
:100828005B084FEA3202B6EB020E75EB030E22BFED
:10083800B61A754640EADC0055EA060E18D04FEAAB
:10084800051545EA16754FEA06164FEAC30343EA4B
:1008580052734FEAC2025FEA1C1CC0D111F4801F18
:100868000BD141EA00014FF000004FF0004CB6E711
:1008780011F4801F04BF01430020B4F1FD0C88BFB0
:10088800BCF5E06F3FF6AFAEB5EB030C04BFB6EBBB
:10089800020C5FEA500C50F1000041EB045170BDAE
:1008A8000EF0004E4EEA113114EB5C04C2BFD4EBDB
:1008B8000C0541EA045170BD41F480114FF0000E5F
:1008C800013C90E645EA060E8DE60CEA135594EADB
:1008D8000C0F08BF95EA0C0F3FF43BAF94EA0C0FDE
:1008E8000AD150EA01347FF434AF95EA0C0F7FF453
:1008F80025AF104619462CE795EA0C0F06D152EAA7
:1009080003353FF4FDAE1046194622E750EA41068A
:1009180018BF52EA43067FF4C5AE50EA41047FF49B
:100928000DAF52EA43057FF4EBAE12E74A0011D24D
:1009380012F5001211D20DD56FF47873B3EB625231
:100948000ED44FEAC12343F0004343EA505323FA3D
:1009580002F070474FF00000704750EA013002D1B2
:100968004FF0FF3070474FF00000704753B94AB955
:10097800002908BF00281CBF4FF0FF314FF0FF309F
:1009880000F00CB8ADF1080C6DE904CE01F064FD7F
:10099800DDF804E0DDE9022304B07047704700BFCA
:1009A80010B5054C237833B9044B13B10448AFF3A1
:1009B80000800123237010BD0C00002000000000FF
:1009C8005827000808B5034B1BB103490348AFF388
:1009D800008008BD00000000100000205827000813
:1009E80078B110B5074C206000F078FE0346206807
:1009F8000168054AA2FB03239B0C8B6201F01EF8D9
:100A080010BD70472800002083DE1B43024B1B6883
:100A18001B68586A704700BF2800002000000000CB
:100A2800002800F0A9802DE9F8430E461546044633
:100A38000768002F30D01046FFF7FCFC50A3D3E91D
:100A48000023FFF78BFE804689463B68D86AFFF78C
:100A5800E1FC42464B46FFF757FDFFF767FF206171
:100A68007EB1012E3AD06368002B62D13B68002228
:100A78005A63A368002B6CD123681B6800225A6351
:100A880009E0636853B93B685863A3689BB9236856
:100A98001B6800225A636573BDE8F883042B04D0F1
:100AA800082B05D03B681864EFE73B689863ECE7D0
:100AB8003B68D863E9E7042B06D0082B09D02368E4
:100AC8001B6800221A64E6E723681B6800229A6301
:100AD800E1E723681B680022DA63DCE7636843B94F
:100AE8003B6800225A63A3689BB923681B68586354
:100AF800D1E7042B05D0082B07D03B6800221A64E5
:100B0800F1E73B6800229A63EDE73B680022DA636D
:100B1800E9E7042B05D0082B07D023681B68186465
:100B2800B9E723681B689863B5E723681B68D8632F
:100B3800B1E7042B05D0082B07D03B6800221A64C4
:100B480097E73B6800229A6393E73B680022DA63E1
:100B58008FE7042B06D0082B09D023681B680022D6
:100B68001A6498E723681B6800229A6393E723684E
:100B78001B680022DA638EE7704700BFAFF300807E
:100B88000000000000E06F40034678B102686AB1D7
:100B9800416861B9126851639A68C2B91A681268E3
:100BA8000021516300225A7302229A737047042964
:100BB80005D0082907D0126800211164ECE71268F3
:100BC80000219163E8E712680021D163E4E7042A71
:100BD80006D0082A09D01A68126800211164E1E7D2
:100BE8001A68126800219163DCE71A68126800210C
:100BF800D163D7E738B5054699B10C4642F2107370
:100C0800994200D91C4600F069FD002202FB04430A
:100C1800B0FBF3F3013BB3F5803F05D3013292B249
:100C2800F4E7FFF7B1FF0CE0296809688A622A68CF
:100C38001268D3622A68D3606A7B297B2846FFF74B
:100C4800EFFE38BD00284CD010B5044611B3016042
:100C58004260836000230373084600F0EFFEBDF88E
:100C680008102046FFF7C6FF6368A3B923681B680E
:100C780000225A63A3680BBB23681B6800225A63CF
:100C88006168206801F0F8F8A168206801F0F4F8BC
:100C98000023637310BD042B06D0082B09D02368EA
:100CA8001B6800221A64E5E723681B6800229A6320
:100CB800E0E723681B680022DA63DBE7042B06D031
:100CC800082B09D023681B6800221A64D8E7236818
:100CD8001B6800229A63D3E723681B680022DA6343
:100CE800CEE7704710B58AB005A9002405944C607A
:100CF8008C60CC600C6101941E4B1A6B42F00402AC
:100D08001A631A6B02F004020192019A02941A6B98
:100D180042F080021A631A6B02F080020292029A71
:100D280003941A6B42F001021A631A6B02F0010273
:100D38000392039A04941A6B42F002021A631B6B23
:100D480003F002030493049B4FF4805305934FF47C
:100D58008813069302230793074800F0B5F9224643
:100D68002146282000F088F9282000F095F90AB0DB
:100D780010BD00BF0038024000040240B0F5805F9B
:100D880000D0704708B5024801F064FA08BD00BFFA
:100D98004000002072B6FEE710B594B008AC3022CF
:100DA8000021204601F02BFB0023039304930593B5
:100DB800069307930193204A116C41F08051116406
:100DC800126C02F080520192019A02931B4A136836
:100DD80023F4404343F400431360136803F440438F
:100DE8000293029B012308934FF480330993022353
:100DF8000E934FF480020F9219221092A82211929A
:100E0800129304231393204600F06CFA78B90F2349
:100E1800039302210491002305934FF48052069214
:100E2800079303A800F0AEFC18B914B010BDFFF783
:100E3800B1FFFFF7AFFF00BF00380240007000406D
:100E480010B588B000F084F8FFF7A6FFFFF74AFF57
:100E580001F0DEF801F068F92748FFF7C1FD2748DF
:100E680001F0DCF903A80022039242608260C260AC
:100E7800026142F21073009304232149FFF7E2FE56
:100E880037E02246002103A8FFF7CAFD022000F040
:100E98008BF80134E4B2FF2CF3D100240AE0E243DA
:100EA800D2B2002103A8FFF7BBFD022000F07CF8B6
:100EB8000134E4B2FF2CF2D1002409E022460121DA
:100EC80003A8FFF7ADFD022000F06EF80134E4B28C
:100ED800FF2CF3D100240AE0E243D2B2012103A897
:100EE800FFF79EFD022000F05FF80134E4B2FF2C0A
:100EF800F2D10024CFE700BF70000020400000209E
:100F0800B800002010B504460E4B1A784FF47A73D7
:100F1800B3FBF2F30C4A1068B0FBF3F000F0C0F832
:100F280068B90F2C01D901200AE0002221464FF0B0
:100F3800FF3000F0A1F8054B1C60002000E0012004
:100F480010BD00BF000000200800002004000020A1
:100F580008B50B4B1A6842F400721A601A6842F41A
:100F680080621A601A6842F480721A60032000F0E6
:100F780071F80F20FFF7C6FF00F098F9002008BDB0
:100F8800003C0240034A1168034B1B780B44136072
:100F9800704700BF6C00002000000020014B18685B
:100FA800704700BF6C00002038B50446FFF7F6FF15
:100FB8000546B4F1FF3F02D0044B1B781C44FFF7F1
:100FC800EDFF401BA042FAD338BD00BF000000204F
:100FD800002807DB00F01F02400901239340024A62
:100FE80042F82030704700BF00E100E0002808DB2D
:100FF8000901C9B200F1604000F5614080F80013B2
:10100800704700F00F000901C9B2014B195470472D
:1010180014ED00E000B500F00700C0F1070CBCF1CA
:10102800040F28BF4FF0040C031D062B0FD9C31E55
:101038004FF0FF3E0EFA0CF021EA000199400EFA3B
:1010480003FE22EA0E0241EA02005DF804FB0023D7
:10105800EEE70000074AD36823F4E0631B041B0C87
:10106800000200F4E060034343F0BF6343F400333D
:10107800D360704700ED00E010B50446054BD86812
:10108800C0F30220FFF7C6FF01462046FFF7AEFF78
:1010980010BD00BF00ED00E008B5FFF799FF08BDDF
:1010A8000138B0F1807F0BD24FF0E0235861054A38
:1010B800F02182F823100020986107221A617047F6
:1010C8000120704700ED00E000230F2B00F2D780CD
:1010D80070B582B065E085684FEA430E032404FAD0
:1010E8000EF425EA0405CC6804FA0EF42C43846057
:1010F800446824EA02044A68C2F300129A40224370
:1011080042605CE0DC08083450F8242003F007054E
:10111800AD004FF00F0E0EFA05FE22EA0E0E0A6918
:10112800AA4042EA0E0240F824205CE0042200E0D3
:10113800002202FA0EF22A430234514D45F82420C7
:10114800504A94686FEA0C0224EA0C054E6816F4BB
:10115800801F01D04CEA04054A4CA560E46802EA05
:1011680004054E6816F4001F01D04CEA0405454CEE
:10117800E560646802EA04054E6816F4003F01D091
:101188004CEA04053F4C6560246822404D6815F41C
:10119800803F01D04CEA04023A4C226001330F2B05
:1011A8006BD801229A400C6804EA020C32EA040463
:1011B800F4D14C6804F00304013C012C8BD94A6833
:1011C80002F00302032A09D0C4685D000322AA4082
:1011D80024EA02048A68AA402243C2604A6802F0EC
:1011E8000302022A8ED004684FEA430E032202FA51
:1011F8000EF224EA02044A6802F0030202FA0EF22E
:10120800224302604A6812F4403FC7D0002201928C
:101218001D4A546C44F480445464526C02F4804275
:101228000192019A9C08A51C154A52F8255003F012
:10123800030E4FEA8E0E0F2202FA0EF225EA02057D
:10124800124A90423FF474AF02F5806290420ED089
:1012580002F5806290420CD002F5806290420AD07A
:1012680002F5806290423FF461AF072261E70122F4
:101278005FE702225DE703225BE702B070BD7047BB
:1012880000380140003C01400038024000000240A4
:1012980008B5054B5B69034200D108BD024B586194
:1012A800FFF76CFDF9E700BF003C014082B0002168
:1012B80000910B4B5A6C42F480425A645A6C02F407
:1012C80080420092009A01911A6C42F080521A648E
:1012D8001B6C03F080530193019B02B0704700BF61
:1012E80000380240002800F0E08170B582B0044662
:1012F800036813F0010F3BD09F4B9B6803F00C036E
:10130800042B2CD09C4B9B6803F00C03082B21D09A
:101318006368B3F5803F4FD0B3F5A02F52D0964BFA
:101328001A6822F480321A601A6822F480221A603D
:101338006368002B50D0FFF731FE05468E4B1B68C3
:1013480013F4003F14D1FFF729FE401B6428F5D998
:101358000320B1E1884B5B6813F4800FD8D0864B2B
:101368001B6813F4003F03D06368002B00F09F81D3
:10137800236813F0020F54D07F4B9B6813F00C0FB7
:101388003ED07D4B9B6803F00C03082B33D0E368F9
:10139800002B68D0794B01221A60FFF7FFFD054644
:1013A800754B1B6813F0020F54D1FFF7F7FD401B74
:1013B8000228F5D903207FE16F4A136843F480338C
:1013C8001360B5E76C4B1A6842F480221A601A68F9
:1013D80042F480321A60ABE7FFF7E0FD0546664B42
:1013E8001B6813F4003FC3D0FFF7D8FD401B6428E7
:1013F800F5D9032060E1604B5B6813F4800FC6D118
:101408005D4B1B6813F0020F03D0E368012B40F01B
:101418005081594A136823F0F803216943EAC1034C
:101428001360236813F0080F42D063696BB3534B02
:101438000122C3F8802EFFF7B1FD05464E4B5B6FC6
:1014480013F0020F34D1FFF7A9FD401B0228F5D98C
:10145800032031E1484A136823F0F803216943EA7D
:10146800C1031360DDE7454B00221A60FFF796FDC4
:101478000546414B1B6813F0020FD2D0FFF78EFDD3
:10148800401B0228F5D9032016E13C4B0022C3F883
:10149800802EFFF783FD0546374B5B6F13F0020F75
:1014A80006D0FFF77BFD401B0228F5D9032003E196
:1014B800236813F0040F77D02F4B1B6C13F0805F59
:1014C80033D1002301932C4B1A6C42F080521A64DA
:1014D8001B6C03F080530193019B0125284B1B686B
:1014E80013F4807F23D0A368012B34D0052B38D088
:1014F800214B1A6F22F001021A671A6F22F00402B8
:101508001A67A368002B3DD0FFF748FD06461A4B23
:101518001B6F13F0020F46D1FFF740FD801B41F20D
:1015280088339842F3D90320C6E00025D6E7144A49
:10153800136843F480731360FFF730FD0646104BC1
:101548001B6813F4807FCED1FFF728FD801B02288B
:10155800F5D90320B0E0084A136F43F0010313677D
:10156800CFE7054B1A6F42F004021A671A6F42F070
:1015780001021A67C5E700BF003802400000474271
:1015880000700040FFF70AFD0646524B1B6F13F030
:10159800020F08D0FFF702FD801B41F28833984202
:1015A800F3D9032088E0EDB9A369002B00F083800C
:1015B800484A926802F00C02082A51D0022B17D030
:1015C800454B00221A66FFF7E9FC0446414B1B68AD
:1015D80013F0007F42D0FFF7E1FC001B0228F5D989
:1015E800032069E03B4A136C23F080531364DBE764
:1015F800394B00221A66FFF7D1FC0546354B1B68AC
:1016080013F0007F06D0FFF7C9FC401B0228F5D96C
:10161800032051E0E369226A1343626A43EA8213B2
:10162800A26A5208013A43EA0243E26A43EA0263C1
:10163800284A5360284B01221A66FFF7AFFC04467C
:10164800244B1B6813F0007F06D1FFF7A7FC001B93
:101658000228F5D903202FE000202DE000202BE000
:10166800012B2BD01B4B5B6803F48001E26991428C
:1016780026D103F03F02216A8A4223D1616A47F6E4
:10168800C0721A40B2EB811F1ED103F44031A26A26
:101698005208013AB1EB024F18D103F07063E26AC5
:1016A800B3EB026F14D1002006E00120704701203F
:1016B80002E0012000E0002002B070BD0120FBE73D
:1016C8000120F9E70120F7E70120F5E70120F3E71A
:1016D8000120F1E7003802400000474208B5264BD8
:1016E8009B6803F00C03042B41D0082B41D1224BFB
:1016F8005A6802F03F025B6813F4800F12D01E4B49
:101708005968C1F388111D480023A1FB0001FFF7A8
:101718002DF9194B5B68C3F3014301335B00B0FB40
:10172800F3F008BD144B5868C0F388104FEA401C0A
:10173800BCEB000C6EEB0E0E4FEA8E1343EA9C6373
:101748004FEA8C11B1EB0C0163EB0E03DB0043EAAB
:101758005173C90011EB000C43F1000399020023F7
:101768004FEA8C2041EA9C51FFF700F9D1E7034882
:10177800D7E70348D5E700BF0038024040787D012D
:101788000024F400002800F09B8070B50D46044644
:101798004F4B1B6803F007038B4208D2CBB24C4A6D
:1017A8001370136803F007038B4240F08B802368A3
:1017B80013F0020F17D013F0040F04D0454A9368B2
:1017C80043F4E0539360236813F0080F04D0414AB0
:1017D800936843F4604393603E4A936823F0F003B0
:1017E800A1680B439360236813F0010F32D063683C
:1017F800012B21D09A1E012A25D9364A126812F0E7
:10180800020F61D033498A6822F0030213438B60C8
:10181800FFF7C4FB06462F4B9B6803F00C03626876
:10182800B3EB820F16D0FFF7B9FB801B41F2883368
:101838009842F0D9032042E0264A126812F4003F89
:10184800E0D101203BE0234A126812F0007FD9D191
:10185800012034E01E4B1B6803F00703AB4207D995
:10186800EAB21B4B1A701B6803F00703AB422DD179
:10187800236813F0040F06D0164A936823F4E05344
:10188800E1680B439360236813F0080F07D0114AEF
:10189800936823F46043216943EAC1039360FFF727
:1018A8001DFF0C4B9B68C3F303130B4AD35CD84052
:1018B8000A4B18600A4B1868FFF724FB002070BD1C
:1018C800012070470120FAE70120F8E70120F6E738
:1018D800003C024000380240702700080800002041
:1018E8000400002030B4026A036A23F00103036293
:1018F8004568836923F073030C681C4322F00202D5
:101908008B6813430B4A904206D0456084614A684D
:101918004263036230BC704723F00803CA681A4365
:1019280022F0040325F440754A692A438D6915435A
:10193800EBE700BF0000014030B4036A026A22F4FA
:10194800807202624468C26922F073020D6815430E
:1019580023F400738A6843EA02230D4A904206D0B2
:101968004460C5614A68C263036230BC704723F4AF
:101978000063CA6843EA022323F4806324F44054D2
:101988004A6944EA02148A6944EA0214E8E700BF93
:101998000000014030B4036A026A22F480520262F5
:1019A8004468C26922F4E6420D6842EA052223F43B
:1019B80000538D6843EA0533074DA84206D04460BA
:1019C800C2614A680264036230BC704724F48044F0
:1019D8004D6944EA8514F2E70000014010B4036A37
:1019E800046A24F001040462846924F0F00C4CEACF
:1019F800021223F00A030B43826103625DF8044B71
:101A0800704710B4036A046A24F0100404628469FD
:101A180024F4704C4CEA023223F0A00343EA011389
:101A2800826103625DF8044B7047836823F070039A
:101A38000B4343F0070383607047000090F83D3084
:101A4800012B2AD1022380F83D300368154A9342BE
:101A580018D0B3F1804F15D0A2F57C42934211D033
:101A680002F5806293420DD002F58062934209D05C
:101A780002F59A32934205D01A6842F001021A60C0
:101A8800002070479A6802F00702062A07D01A68F1
:101A980042F001021A6000207047012070470020C0
:101AA800704700BF00000140704700000368294AE2
:101AB80090420ED0B0F1804F0BD0A2F57C429042FC
:101AC80007D002F58062904203D002F5806290420E
:101AD80003D123F070034A6813431E4A90421AD078
:101AE800B0F1804F17D0A2F57C42904213D002F596
:101AF800806290420FD002F5806290420BD002F5CE
:101B08009A32904207D002F58062904203D002F5E3
:101B18008062904203D123F44073CA68134323F0D0
:101B280080034A69134303608B68C3620B6883624E
:101B3800084B98420AD001234361036913F0010F4F
:101B480003D0036923F00103036170470B69036342
:101B5800F1E700BF0000014040B310B5044690F81B
:101B68003D30F3B1022384F83D30214651F8040B8F
:101B7800FFF79CFF012384F8463084F83E3084F850
:101B88003F3084F8403084F8413084F8423084F89B
:101B9800433084F8443084F8453084F83D300020E0
:101BA80010BD80F83C3000F069FADBE7012070478F
:101BB80040B310B5044690F83D30F3B1022384F8E1
:101BC8003D30214651F8040BFFF770FF012384F8DC
:101BD800463084F83E3084F83F3084F8403084F84A
:101BE800413084F8423084F8433084F8443084F833
:101BF800453084F83D30002010BD80F83C30FFF7B8
:101C080053FFDBE70120704730B4036A026A22F011
:101C1800100202624468826922F4E6420D6842EAD0
:101C2800052223F020038D6843EA05130C4DA842D2
:101C380006D0446082614A688263036230BC7047A0
:101C480023F08003CD6843EA051323F0400324F40E
:101C580040644D6944EA85048D6944EA8504E8E7EF
:101C68000000014038B590F83C30012B66D004469E
:101C78000D46012380F83C300C2A5AD8DFE802F0E0
:101C8800075959591B59595930595959440000682D
:101C9800FFF728FE2268936943F0080393612268DE
:101CA800936923F0040393612268936929690B43BC
:101CB800936100203EE00068FFF7A6FF2268936961
:101CC80043F4006393612268936923F4806393610A
:101CD80022689369296943EA01239361002029E076
:101CE8000068FFF729FE2268D36943F00803D3612F
:101CF8002268D36923F00403D3612268D369296970
:101D08000B43D361002015E00068FFF743FE22680B
:101D1800D36943F40063D3612268D36923F48063F1
:101D2800D3612268D369296943EA0123D36100207A
:101D380000E00120002384F83C3038BD0220FCE795
:101D480010B4846824F47F4C42EA03220A4342EA2E
:101D58000C0282605DF8044B704790F83C30012B10
:101D680078D010B50446012380F83C30022380F86F
:101D78003D300268936823F47F4323F07703936030
:101D88000B68602B4CD023D8402B54D011D8202B73
:101D980003D00AD80BB1102B05D119462068FFF7DC
:101DA80044FE002028E0012026E0302BF5D0012059
:101DB80022E0502B0AD1CA6849680068FFF70EFE76
:101DC80050212068FFF731FE002015E0012013E0C4
:101DD800B3F5805F3AD0B3F5005F14D0702B37D1DC
:101DE800CB684A6889680068FFF7AAFF2268936889
:101DF80043F0770393600020012384F83D300023EB
:101E080084F83C3010BDCB684A6889680068FFF7E1
:101E180097FF2268936843F4804393600020EBE7C0
:101E2800CA6849680068FFF7ECFD60212068FFF781
:101E3800FCFD0020E0E7CA6849680068FFF7CEFDAE
:101E480040212068FFF7F1FD0020D5E70020D3E707
:101E58000120D1E70220704701F01F014FF0010C6B
:101E68000CFA01FC036A23EA0C030362036A8A4042
:101E7800134303627047000010B50446084689BB47
:101E880094F83E30013B18BF0123002B60D1002895
:101E98003ED1022384F83E30012201462068FFF734
:101EA800DBFF23682C4A934242D023682A4A934294
:101EB80043D0B3F1804F40D0A2F57C4293423CD04E
:101EC80002F58062934238D002F58062934234D0A2
:101ED80002F59A32934230D01A6842F001021A6031
:101EE800002034E0042907D008290BD094F84130A9
:101EF800013B18BF0123C8E794F83F30013B18BFE6
:101F08000123C2E794F84030013B18BF0123BCE726
:101F1800042805D0082807D0022384F84130BBE7FD
:101F2800022384F83F30B7E7022384F84030B3E750
:101F38005A6C42F400425A64B7E79A6802F0070202
:101F4800062A07D01A6842F001021A60002010BD64
:101F58000120FCE70020FAE70000014090F83C204F
:101F6800012A35D010B40346012280F83C20022211
:101F780080F83D2002685068946820F0700C08686A
:101F880040EA0C0050601A681248824212D0B2F13E
:101F9800804F0FD0A0F57C4082420BD000F58060C6
:101FA800824207D000F58060824203D000F59A3063
:101FB800824204D124F080044968214391600122BF
:101FC80083F83D20002083F83C005DF8044B7047FF
:101FD8000220704700000140FEE7FEE7FEE7FEE74B
:101FE800FEE770477047704708B5FEF7CBFF08BD9E
:101FF80008B54FF48050FFF74BF908BD034AD2F8F3
:10200800883043F47003C2F88830704700ED00E070
:1020180000B587B0002302930393049305930093BC
:1020280001931448144A0260436083604FF0FF3202
:10203800C26003618361FFF78FFD90B94FF480534D
:10204800029302A90B48FFF788FE68B900230093A2
:10205800019369460748FFF781FF40B907B05DF86B
:1020680004FBFEF797FEE9E7FEF794FEEEE7FEF7BE
:1020780091FEF3E770000020000C004082B0036876
:10208800104A934204D0104A93420ED002B07047CF
:10209800002300930D4B1A6C42F002021A641B6C69
:1020A80003F002030093009BF0E700230193074B22
:1020B8001A6C42F008021A641B6C03F008030193BF
:1020C800019BE3E700040040000C00400038024098
:1020D80000B587B0002301930293039304930593FB
:1020E80002680E4B9A4202D007B05DF804FB002349
:1020F80000930B4B1A6B42F001021A631B6B03F03F
:1021080001030093009BC0230193022302930593CC
:1021180001A90448FEF7D8FFE6E700BF0004004025
:10212800003802400000024000B58FB000230A9337
:102138000B930C930D9308930993019302930393C4
:1021480004930593069307932548264A0260436043
:1021580083604FF6FF72C26003618361FFF7FCFC86
:1021680058BB4FF480530A930AA91D48FFF7F5FDA1
:1021780030BB1B48FFF71CFD28BB002308930993BD
:1021880008A91748FFF7EAFE00BB60230193002265
:1021980002920392059201A91148FFF763FDC0B9A5
:1021A80004220DEB02010E48FFF75CFDA0B90C48B4
:1021B800FFF78EFF0FB05DF804FBFEF7EBFDD0E7ED
:1021C800FEF7E8FDD5E7FEF7E5FDD6E7FEF7E2FD09
:1021D800DBE7FEF7DFFDE3E7FEF7DCFDE7E700BF3F
:1021E800B8000020000400400379032B13D8DFE86F
:1021F80003F00205090C0023C3607047C3699B08FC
:10220800C3607047C369C3607047C36903EB430386
:102218009B08C36070470023C3607047B0B110B516
:102228000B4C2060002242702068FFF7DDFF236816
:102238005A799979501A83F82A0012B121B10122EA
:1022480000E000221A7010BD0022FBE7704700BFB3
:102258000001002038B5514B1C68257805B938BDF8
:10226800FEF7D4FB20614D4B1B681A695869121A96
:10227800DA61D9688A42F2D3198D013189B2198598
:102288009C69001B824256D918629879012854D05B
:102298001C6A00FB04F45C62586A824203D893F813
:1022A8002A2091425AD993F82A2091424BD20022EF
:1022B8005A703A490868438801334380384B1A609A
:1022C8000020D8600B681A85344B1868437907EEEC
:1022D800103AB8EE477ADFED336AC6EE877A038D97
:1022E80007EE103AB8EE477A67EE877A2C4AC2EDC5
:1022F800017A016A2C4BB3FBF1F34179B3FBF1F39B
:1023080007EE903AF8EE677AC2ED037A4378012B2C
:1023180026D04378012B2ED04378002B36D1204B82
:1023280001221A74002D35D01C4B1B685A699A611A
:102338001A695A6193E71A62A7E7186A00EB400026
:1023480040085862A8E701225A70154A13680133F9
:102358001360124B1B6800221A85B5E70025B3E706
:1023680090ED027AF4EEC77AF1EE10FAD1DB13465B
:1023780003221A74CDE790ED027AF4EEC77AF1EEF3
:1023880010FAC9D5064B02221A74C5E7044B00227D
:102398001A74C7E7FFF728FFC6E700BF000100204F
:1023A8002C0000200000B44300879303DFF834D0EA
:1023B800FFF724FE0C480D490D4A002302E0D458CB
:1023C800C4500433C4188C42F9D30A4A0A4C002377
:1023D80001E013600432A242FBD300F019F8FEF7C3
:1023E8002FFD704700000120000000200C00002095
:1023F800902700080C00002004010020FEE702449A
:102408000346934200D1704703F8011BF9E7000027
:1024180070B50D4B0D4D5B1B9C100026A64209D1D3
:1024280000F096F90A4D0B4B5B1B9C100026A64248
:1024380005D170BD55F8043B98470136EEE755F8CD
:10244800043B98470136F2E78827000888270008E8
:10245800882700088C2700082DE9F047089D0F46BB
:1024680004468C46002B48D18A42164661D9B2FAF6
:1024780082F34BB1C3F1200201FA03FC20FA02F205
:102488009E4042EA0C0C9C404FEA164EB7B2BCFB89
:10249800FEF1220C0EFB11CC42EA0C4201FB07F0C4
:1024A800904209D9B21801F1FF3C80F0EE809042C9
:1024B80040F2EB8002393244121AA4B2B2FBFEF0A9
:1024C8000EFB102244EA024400FB07F7A74209D991
:1024D800341900F1FF3280F0DA80A74240F2D78049
:1024E8003444023840EA0140E41B00211DB1DC40BD
:1024F8000023C5E90043BDE8F0878B4206D90DB13A
:10250800C5E9000100210846BDE8F087B3FA83F168
:10251800002948D1BB4202D3824200F20781841AC3
:1025280067EB030201209446002DE4D0C5E9004C76
:10253800E1E7002A00F09280B2FA82F3002B40F023
:10254800A8808A1A4FEA164E1FFA86FC0121200C31
:10255800B2FBFEF70EFB172240EA02420CFB07F023
:10256800904207D9B21807F1FF3802D2904200F220
:10257800E2804746121AA4B2B2FBFEF00EFB10220C
:1025880044EA02440CFB00FCA44507D9341900F1C5
:10259800FF3202D2A44500F2CB801046A4EB0C0413
:1025A80040EA0740A2E7C1F120068B4022FA06FC68
:1025B8004CEA030C07FA01F420FA06F3F7404FEA55
:1025C8001C49234300FA01F81FFA8CFEB7FBF9F007
:1025D8001C0C09FB107744EA074400FB0EF7A742DE
:1025E80002FA01F20AD91CEB040400F1FF3A80F068
:1025F8009B80A74240F2988002386444E41B9FB253
:10260800B4FBF9F309FB134447EA044403FB0EFE49
:10261800A64509D91CEB040403F1FF3780F082803A
:10262800A6457FD9023B644443EA0040A4EB0E046C
:10263800A0FB02E7BC427346B94663D360D05DB1E4
:10264800B8EB030264EB090404FA06F622FA01F374
:102658001E43CC40C5E9006400214CE762084808E5
:1026680042EAC1710B0C43EA00438AB242EA0342D0
:10267800B3FBF6F1E407B4463746B6461F23B0FB72
:10268800F6F0D21B41EA004161E7614614E71046C3
:1026980028E7C3F1200120FA01F29E4027FA01F150
:1026A8009F403A434FEA164E1FFA86FCB1FBFEF7ED
:1026B8000EFB1710110C41EA004107FB0CF8884586
:1026C80004FA03F43AD9711807F1FF3001D28845AA
:1026D8001FD8A1EB0801B1FBFEF808FB0CF70EFBB5
:1026E800181192B242EA0142BA422FD2B21808F146
:1026F800FF31C6D2BA42C4D2A8F102013244C0E7BF
:10270800F0459CD2BEEB020367EB0C070138B946D3
:1027180095E7A6EB08084144B81EB1FBFEF808FB94
:102728000CF7DCE73B467FE7504667E70846FBE6E1
:102738003444023832E7023F32441BE7A1EB080178
:102748003846B1FBFEF808FB0CF7C8E7414698E7A6
:10275800F8B500BFF8BC08BC9E467047F8B500BF86
:08276800F8BC08BC9E46704756
:102770000000000000000000010203040607080931
:08278000E0FCFF7F01000000F6
:04278800CD0900086F
:04278C00A90900088F
:0C27900001000000100000000024F40014
:04000005080023B517
:00000001FF
