:020000040800F2
:1000000000000120198E000885540008875400085C
:10001000895400088B5400088D540008000000002B
:10002000000000000000000000000000D11F0008D8
:100030008F5400080000000071200008C90D00085E
:10004000698E0008698E0008698E0008698E0008B4
:10005000698E0008698E0008698E0008698E0008A4
:10006000698E0008698E0008698E0008698E000894
:10007000698E0008698E0008698E0008698E000884
:10008000698E0008698E0008698E00080000000073
:10009000000000000000000000000000698E000861
:1000A000698E0008698E000891540008698E000866
:1000B000A9540008698E0008698E0008698E00083E
:1000C000698E0008698E0008698E0008698E000834
:1000D000698E0008698E0008698E00080000000023
:1000E000698E0008698E0008698E00080000000013
:1000F000000000000000000000000000698E000801
:1001000000000000698E0008698E0008698E0008F2
:1001100000000000000000000000000000000000DF
:10012000BD540008698E0008698E0008698E0008B9
:10013000698E0008000000000000000000000000C0
:10014000000000000000000000000000CD54000886
:10015000698E0008698E0008698E0008698E0008A3
:10016000698E0008698E0008000000000000000091
:10017000000000000000000000000000000000007F
:1001800000000000698E0008000000000000000070
:04019000698E00086C
:1001A000034613F8012B002AFBD1181A01387047B7
:1001B00001F0FF01102A2BDB10F0070F08D010F818
:1001C000013B013A8B422DD010F0070F42B3F6D11C
:1001D000F0B441EA012141EA014122F007047FF035
:1001E00000070023F0E80256083C85EA010586EA8C
:1001F000010685FA47F5A3FA87F586FA47F6A5FAC8
:1002000087F68EB9EED1F0BC01F0FF0102F00702D3
:1002100032B110F8013B013A83EA010313B1F8D17E
:100220000020704701387047002D06BF354603385F
:10023000073815F0010F07D1013015F4807F02BF98
:10024000013015F4C03F0130F0BC0138704700BFE9
:1002500081F0004102E000BF83F0004330B54FEA77
:1002600041044FEA430594EA050F08BF90EA020FE4
:100270001FBF54EA000C55EA020C7FEA645C7FEA77
:10028000655C00F0E2804FEA5454D4EB5555B8BF9A
:100290006D420CDD2C4480EA020281EA030382EA0B
:1002A000000083EA010180EA020281EA0303362D9D
:1002B00088BF30BD11F0004F4FEA01314FF4801C70
:1002C0004CEA113102D0404261EB410113F0004F82
:1002D0004FEA03334CEA133302D0524263EB430339
:1002E00094EA050F00F0A780A4F10104D5F1200ED7
:1002F0000DDB02FA0EFC22FA05F2801841F1000132
:1003000003FA0EF2801843FA05F359410EE0A5F105
:1003100020050EF1200E012A03FA0EFC28BF4CF036
:10032000020C43FA05F3C01851EBE37101F00045EC
:1003300007D54FF0000EDCF1000C7EEB00006EEBF9
:100340000101B1F5801F1BD3B1F5001F0CD3490883
:100350005FEA30004FEA3C0C04F101044FEA4452DA
:1003600012F5800F80F09A80BCF1004F08BF5FEA61
:10037000500C50F1000041EB045141EA050130BD41
:100380005FEA4C0C404141EB0101013C28BFB1F553
:10039000801FE9D291F0000F04BF01460020B1FA9E
:1003A00081F308BF2033A3F10B03B3F120020CDA71
:1003B0000C3208DD02F1140CC2F10C0201FA0CF04F
:1003C00021FA02F10CE002F11402D8BFC2F1200CB4
:1003D00001FA02F120FA0CFCDCBF41EA0C0190406A
:1003E000E41AA2BF01EB0451294330BD6FEA0404B3
:1003F0001F3C1CDA0C340EDC04F11404C4F120029E
:1004000020FA04F001FA02F340EA030021FA04F3AF
:1004100045EA030130BDC4F10C04C4F1200220FA06
:1004200002F001FA04F340EA0300294630BD21FA44
:1004300004F0294630BD94F0000F83F4801306BF0A
:1004400081F480110134013D4EE77FEA645C18BFFE
:100450007FEA655C29D094EA050F08BF90EA020F95
:1004600005D054EA000C04BF1946104630BD91EA8D
:10047000030F1EBF0021002030BD5FEA545C05D190
:100480004000494128BF41F0004130BD14F58004CF
:100490003CBF01F5801130BD01F0004545F0FE4143
:1004A00041F470014FF0000030BD7FEA645C1ABF78
:1004B000194610467FEA655C1CBF0B46024650EAAF
:1004C000013406BF52EA033591EA030F41F40021DB
:1004D00030BD00BF90F0000F04BF0021704730B561
:1004E0004FF4806404F132044FF000054FF0000136
:1004F00050E700BF90F0000F04BF0021704730B5F7
:100500004FF4806404F1320410F0004548BF4042CB
:100510004FF000013EE700BF42004FEAE2014FEA20
:1005200031014FEA02701FBF12F07F4393F07F4FFB
:1005300081F06051704732F07F4208BF704793F0FE
:100540007F4F04BF41F40021704730B54FF4607411
:1005500001F0004521F000411CE700BF50EA010214
:1005600008BF704730B54FF000050AE050EA0102BD
:1005700008BF704730B511F0004502D5404261EB2D
:1005800041014FF4806404F132045FEA915C3FF46E
:10059000D8AE4FF003025FEADC0C18BF03325FEA0B
:1005A000DC0C18BF033202EBDC02C2F1200300FABC
:1005B00003FC20FA02F001FA03FE40EA0E0021FAE1
:1005C00002F11444BDE600BF70B54FF0FF0C4CF4CF
:1005D000E06C1CEA11541DBF1CEA135594EA0C0F81
:1005E00095EA0C0F00F0DEF82C4481EA030621EABC
:1005F0004C5123EA4C5350EA013518BF52EA0335F7
:1006000041F4801143F4801338D0A0FB02CE4FF0A8
:100610000005E1FB02E506F00042E0FB03E54FF0D8
:100620000006E1FB03569CF0000F18BF4EF0010ED0
:10063000A4F1FF04B6F5007F64F5407404D25FEACC
:100640004E0E6D4146EB060642EAC62141EA55517F
:100650004FEAC52040EA5E504FEACE2EB4F1FD0CC1
:1006600088BFBCF5E06F1ED8BEF1004F08BF5FEA3F
:10067000500E50F1000041EB045170BD06F00046F1
:1006800046EA010140EA020081EA0301B4EB5C049E
:10069000C2BFD4EB0C0541EA045170BD41F4801196
:1006A0004FF0000E013C00F3AB8014F1360FDEBFBB
:1006B000002001F0004170BDC4F10004203C35DA97
:1006C0000C341BDC04F11404C4F1200500FA05F31A
:1006D00020FA04F001FA05F240EA020001F00042BB
:1006E00021F0004110EBD37021FA04F642EB060131
:1006F0005EEA430E08BF20EAD37070BDC4F10C045B
:10070000C4F1200500FA04F320FA05F001FA04F21E
:1007100040EA020001F0004110EBD37041F100010A
:100720005EEA430E08BF20EAD37070BDC4F1200515
:1007300000FA05F24EEA020E20FA04F301FA05F27D
:1007400043EA020321FA04F001F0004121FA04F225
:1007500020EA020000EBD3705EEA430E08BF20EAF5
:10076000D37070BD94F0000F0FD101F0004640002F
:1007700041EB010111F4801F08BF013CF7D041EAB1
:10078000060195F0000F18BF704703F000465200B5
:1007900043EB030313F4801F08BF013DF7D043EA86
:1007A0000603704794EA0C0F0CEA135518BF95EA3C
:1007B0000C0F0CD050EA410618BF52EA4306D1D1C3
:1007C00081EA030101F000414FF0000070BD50EAE2
:1007D000410606BF1046194652EA430619D094EA6C
:1007E0000C0F02D150EA013613D195EA0C0F05D156
:1007F00052EA03361CBF104619460AD181EA0301AA
:1008000001F0004141F0FE4141F470014FF0000061
:1008100070BD41F0FE4141F4780170BD70B54FF0FC
:10082000FF0C4CF4E06C1CEA11541DBF1CEA13557C
:1008300094EA0C0F95EA0C0F00F0A7F8A4EB05045E
:1008400081EA030E52EA03354FEA013100F0888055
:100850004FEA03334FF0805545EA131343EA12631E
:100860004FEA022245EA111545EA10654FEA0026D3
:100870000EF000419D4208BF964244F1FD0404F58C
:10088000407402D25B084FEA3202B61A65EB0305E8
:100890005B084FEA32024FF480104FF4002CB6EBA5
:1008A000020E75EB030E22BFB61A754640EA0C0025
:1008B0005B084FEA3202B6EB020E75EB030E22BF65
:1008C000B61A754640EA5C005B084FEA3202B6EBA6
:1008D000020E75EB030E22BFB61A754640EA9C0065
:1008E0005B084FEA3202B6EB020E75EB030E22BF35
:1008F000B61A754640EADC0055EA060E18D04FEAF3
:10090000051545EA16754FEA06164FEAC30343EA92
:1009100052734FEAC2025FEA1C1CC0D111F4801F5F
:100920000BD141EA00014FF000004FF0004CB6E758
:1009300011F4801F04BF01430020B4F1FD0C88BFF7
:10094000BCF5E06F3FF6AFAEB5EB030C04BFB6EB02
:10095000020C5FEA500C50F1000041EB045170BDF5
:100960000EF0004E4EEA113114EB5C04C2BFD4EB22
:100970000C0541EA045170BD41F480114FF0000EA6
:10098000013C90E645EA060E8DE60CEA135594EA22
:100990000C0F08BF95EA0C0F3FF43BAF94EA0C0F25
:1009A0000AD150EA01347FF434AF95EA0C0F7FF49A
:1009B00025AF104619462CE795EA0C0F06D152EAEE
:1009C00003353FF4FDAE1046194622E750EA4106D2
:1009D00018BF52EA43067FF4C5AE50EA41047FF4E3
:1009E0000DAF52EA43057FF4EBAE12E74A0011D295
:1009F00012F5001211D20DD56FF47873B3EB625279
:100A00000ED44FEAC12343F0004343EA505323FA84
:100A100002F070474FF00000704750EA013002D1F9
:100A20004FF0FF3070474FF00000704753B94AB99C
:100A3000002908BF00281CBF4FF0FF314FF0FF30E6
:100A400000F00CB8ADF1080C6DE904CE08F0C8FE5A
:100A5000DDF804E0DDE9022304B07047704700BF11
:100A600010B5054C237833B9044B13B10448AFF3E8
:100A700000800123237010BD9401002000000000BD
:100A8000D89A000808B5034B1BB103490348AFF3DC
:100A9000008008BD0000000098010020D89A0008DE
:100AA00000B585B00023009301930293039361483E
:100AB000614A02604FF48032426083600122026129
:100AC000037680F82030C3625C498162C3600D21E7
:100AD000C16180F83030426102F010F800287ED108
:100AE000002300930122019202936946514802F0CB
:100AF0002FF9002876D10123009302230193694640
:100B00004C4802F025F900286FD1022300930323FB
:100B100001936946474802F01BF9002868D1032376
:100B20000093042301936946424802F011F900281A
:100B300061D1042300930523019369463D4802F0E7
:100B400007F900285AD1052300930623019369462B
:100B5000384802F0FDF8002853D1062300930723FC
:100B600001936946334802F0F3F800284CD107237B
:100B700000930823019369462E4802F0E9F8002803
:100B800045D10E230093092301936946294802F0B9
:100B9000DFF800283ED10A230093019369462548D7
:100BA00002F0D6F8002838D10B2300930193694650
:100BB000204802F0CDF898BB0C23009301936946BE
:100BC0001C4802F0C5F870BB0D23009301936946E1
:100BD000184802F0BDF848BB05B05DF804FB01F011
:100BE0009BF87DE701F098F885E701F095F88CE730
:100BF00001F092F893E701F08FF89AE701F08CF892
:100C0000A1E701F089F8A8E701F086F8AFE701F065
:100C100083F8B6E701F080F8BDE701F07DF8C3E79F
:100C200001F07AF8C8E701F077F8CDE701F074F841
:100C3000D2E700BF10020020002001400100000F99
:100C4000F0B589B0002303930493059306930793AB
:100C5000026803F1804303F590339A4201D009B052
:100C6000F0BD04460025009503F58C335A6C42F420
:100C700080725A645A6C02F480720092009A019554
:100C80001A6B42F004021A631A6B02F0040201921A
:100C9000019A02951A6B42F001021A631B6B03F072
:100CA00001030293029B1F2303930327049703AEC0
:100CB0003146144802F082FBFF2303930497059505
:100CC0003146114802F07AFB1048114B0360456031
:100CD0008560C5604FF4806303614FF40063436136
:100CE0004FF400538361C5614FF480330362456262
:100CF00002F0DCF918B9054BA3639C63AFE701F080
:100D00000BF8F8E70008024000000240B0010020A4
:100D10001064024008B5074B186810B1064B1B78E9
:100D200003B108BD044B01221A700D22034901F0E2
:100D300011FFF6E778020020580200205C02002034
:100D4000014B00221A7070475802002010B590B174
:100D50000B4A106001240B4A14700D220A4901F05D
:100D6000F9FE00231A462146084800F0CFF8214634
:100D700000F020F910BD064800F0AEFBFAE700BF16
:100D800078020020580200205C020020150D0008A7
:100D9000109B000808B50C2804D8054B33F8100048
:100DA00080B208BD034800F097FB0020F9E700BFC0
:100DB0005C020020409B000808B506F0ACFA10B1B8
:100DC00002684068904708BD08B54FF0E0231B69F2
:100DD00005F004FE012800D108BD01F07BF9FBE716
:100DE000EFF305832BB9064B186828B901221A6066
:100DF00070476FF0050070474FF0FF30704700BF3D
:100E000034090020EFF3058373B90A4B1B68012BEB
:100E10000DD110B50024084BDC77064B02221A6076
:100E200005F038FB204610BD6FF0050070474FF00D
:100E3000FF3070473409002000ED00E0F0B587B0C6
:100E400000240594EFF3058404BBF8B1002A34D0E4
:100E5000156893692BB11E46013B372B02D9002040
:100E600015E01826536813F0010F3FD1546984B17F
:100E70004FEA940C93682BB1D7685B2F02D917699E
:100E800007B184B943B14FF0FF330BB3059807B0F6
:100E9000F0BD4FF0800CEDE7D368A3B91369ABB197
:100EA0004FF0FF33F1E70293019700960B4662463D
:100EB000294605F081FA0590E8E715460023182633
:100EC0004FF0800CE1E74FF0FF33DEE70023DCE773
:100ED00005AB019300960B461FFA8CF2294605F0EC
:100EE000A6FA0128D2D000230593CFE70020CEE751
:100EF00008B5EFF3058333B908B9002008BD05F044
:100F00002BFC0020FAE76FF00500F7E72DE9F0432E
:100F100083B0EFF30587002F43D106468946154677
:100F20001C4600283FD0082000F07CFC80460028AA
:100F30003BD006604560B9F1000F00D0012704B333
:100F40002068A36813B1E2682B2A10D853B14FF080
:100F5000FF33DBB10024404600F0E6FC204603B03E
:100F6000BDE8F083E3687BB14FF0FF33F1E7019315
:100F70000F4B009343463A46012106F017F804460A
:100F80000CE020460023E4E70023E2E7084B00934F
:100F900043463A46012105F0EDFF0446002CDDD121
:100FA000D9E70024DAE70024D8E70446D6E700BFF3
:100FB000B90D0008EFF305836BB90A4670B100B5AF
:100FC00083B00093042106F01BF8012809D100200A
:100FD00003B05DF804FB6FF0050070476FF003008D
:100FE00070476FF00200F3E7034B0360034B0B60A5
:100FF00080231360704700BFD8080020D806002067
:10100000034B0360034B0B604FF480731360704716
:101010007C0600207C0200202DE9F0418AB0294E98
:101020000027376000237360B360F3604FF004085B
:1010300086F810807774244B7361244D244BEB6148
:1010400003232B76AF713C23EB7102232B72214BD0
:10105000EB600DF1080C204C0FCCACE80F0094E8CD
:101060000F008CE80F004FF07E53EB671B4B6B615A
:101070001B4BEB651B4806F061F91B48FFF766FE4A
:1010800006F1180006F0C6FA02A800F0C9FC174DD8
:10109000284600F0B1FE164E4FF47A730093434693
:1010A0003A461449304600F02DF9134C3346134AA2
:1010B0002946204600F0D4F9204600F0C5FA0AB0CF
:1010C000BDE8F0815C090020000034439C09002049
:1010D000000040400000C843F09A00080000204192
:1010E00000007A44AC4C00201002002008000020D0
:1010F00038090020F44C002048090020000000209E
:10110000002800F09B802DE9F8430D461646044662
:101110000768002F2DD01046FFF7ECF948A3D3E95C
:101120000023FFF77BFB804689463F68F86AFFF79C
:10113000D1F942464B46FFF747FAFFF757FC6DB12E
:10114000012D35D06368002B58D17B63A368002B39
:1011500061D123681B6800225A6308E0636853B9B1
:101160007863A3688BB923681B6800225A6366738F
:101170002573BDE8F883042B03D0082B03D0386413
:10118000EFE7B863EDE7F863EBE7042B06D0082B35
:1011900009D023681B6800221A64E8E723681B68EB
:1011A00000229A63E3E723681B680022DA63DEE724
:1011B000636833B97B63A36883B923681B6858638A
:1011C000D5E7042B04D0082B05D000233B64F2E7BD
:1011D0000023BB63EFE70023FB63ECE7042B05D0A0
:1011E000082B07D023681B681864C0E723681B68B6
:1011F0009863BCE723681B68D863B8E7042B04D066
:10120000082B05D000233B64A0E70023BB639DE7C8
:101210000023FB639AE7042B06D0082B09D0236830
:101220001B6800221A64A2E723681B6800229A63E5
:101230009DE723681B680022DA6398E7704700BFC8
:101240000000000000E06F40034678B102686AB118
:10125000416861B9126851639A68C2B91A68126824
:101260000021516300225A7302229A7370470429A5
:1012700005D0082907D0126800211164ECE7126834
:1012800000219163E8E712680021D163E4E7042AB2
:1012900006D0082A09D01A68126800211164E1E713
:1012A0001A68126800219163DCE71A68126800214D
:1012B000D163D7E738B5054699B10C4642F21073B1
:1012C000994200D91C4603F0C5F9002202FB0443F1
:1012D000B0FBF3F3013BB3F5803F05D3013292B28B
:1012E000F4E7FFF7B1FF0CE0296809688A622A6811
:1012F0001268D3622A68D3606A7B297B2846FFF78D
:10130000FFFE38BD00284DD010B5044619B301606A
:1013100042608360002303738373084603F07EFBFF
:10132000BDF808102046FFF7C5FF6368A3B923681E
:101330001B6800225A63A3680BBB23681B6800224A
:101340005A636168206803F077FFA168206803F0A2
:1013500073FF0023637310BD042B06D0082B09D044
:1013600023681B6800221A64E5E723681B680022D3
:101370009A63E0E723681B680022DA63DBE7042B4B
:1013800006D0082B09D023681B6800221A64D8E70E
:1013900023681B6800229A63D3E723681B68002236
:1013A000DA63CEE77047000000B583B000220192F7
:1013B000094B196B41F4800119631B6B03F4800323
:1013C0000193019B0521382001F0E0FD382001F058
:1013D000EDFD03B05DF804FB0038024030B52DEDA3
:1013E000028B83B050B3044683683BB3C06828B314
:1013F00063681BB306F07AF8B0EE408A94ED040AF5
:10140000A06800F002FDA56805F0C6FF0146B0EE39
:10141000480A284600F0FCFCB5EEC00AF1EE10FACE
:10142000D4BF0121002160680FD4FCEEC07ACDED5D
:10143000017A9DF80420FFF763FE02E0074800F000
:101440004BF803B0BDEC028B30BDB1EE400AFCEEB0
:10145000C07ACDED017A9DF80420ECE7609B00088E
:1014600010B5C0B10446B2B1ABB18160C260436097
:10147000002303610A4B4B6183680A4A1A61002307
:10148000024601210848FFF741FD0121FFF792FDC7
:101490000123237010BD054800F01EF8FAE700BFD5
:1014A00000007F4300007FC3DD130008849B000819
:1014B000B5EEC00AF1EE10FA06DBDFED067AB4EE07
:1014C000E70AF1EE10FA01D90023036180ED040A66
:1014D000704700BF0000C842C0B170B59AB0064660
:1014E00001AC64252A460021204607F0F5FC33466E
:1014F000074A2946204607F0B9FC2046FEF750FE71
:1015000081B2204606F09EFC1AB070BD704700BF45
:10151000A49B0008C0B170B59AB0064601AC642522
:101520002A460021204607F0D7FC3346074A2946C1
:10153000204607F09BFC2046FEF732FE81B2204693
:1015400006F080FC1AB070BD704700BFB09B000869
:1015500008B506F0A9F9FFF75FFD6420FFF7C8FCA6
:101560000120FFF7C5FCFBE708B5074A02213C2034
:1015700006F03CF9054B93ED000A06F045F9012011
:10158000FFF7B6FCF6E700BF6976000844000020CC
:1015900008B5074A00210748FFF750FC064B1860C2
:1015A000064A00210648FFF749FC064B186008BDB3
:1015B000709D0008511500083C0A00204C9D000851
:1015C00069150008380A002010B52DED028B194B63
:1015D000186878B1184B5B7C032B0FD0164B002298
:1015E00083F83C20154B93ED050AFFF761FFBDEC36
:1015F000028B10BD1248FFF76FFFF8E70E4B022277
:1016000083F83C200F4C0D4B93ED170A204600F059
:10161000FCFB06F01DF8B0EE408A05F0BDFE014669
:10162000B0EE480A204600F0F3FB024B1868FFF7C3
:101630003FFFDCE77C0A00205C0900209C090020B9
:10164000D89B0008400A002010B5B8B10D4A1060C0
:101650000D4C204600F0D0FB0C4B6361002323614E
:101660000B49204600F050FC00231A46012109488E
:10167000FFF74CFC0121FFF79DFC10BD0648FFF76A
:101680002BFFFAE77C0A0020400A00200000C84235
:10169000180A0020C9150008EC9B00082DE9F0414C
:1016A0008AB005AD00240594069407940894099423
:1016B0000194274B1A6B42F004021A631A6B02F072
:1016C00004020192019A02941A6B42F080021A639A
:1016D0001A6B02F080020292029A03941A6B42F093
:1016E00001021A631A6B02F001020392039A049436
:1016F0001A6B42F002021A631B6B03F0020304939D
:10170000049BDFF8548022464FF40051404601F01C
:1017100040FF104E22464FF47041304601F039FF31
:101720004FF4005305930127069707940894294620
:10173000404601F043FE4FF470430593069707942B
:1017400008942946304601F039FE0AB0BDE8F08120
:10175000003802400004024000080240124A12F021
:10176000070F1ED0D11D21F00701C1F5705313449E
:101770000A460E480260002141601344083B23F0F2
:1017800007030B48036059601960991A5160136090
:10179000084B1960084B1960084B4FF000421A6063
:1017A00070474FF47053E4E7A00A0020980A002025
:1017B000940A00208C0A0020900A0020800A002051
:1017C000164B1A461B688342FBD3516802EB010C8F
:1017D000844509D0416800EB010C634509D00360E2
:1017E000904219D010607047406801445160104623
:1017F000F0E710B40A4C2468A3420BD05B6819448C
:10180000416013681B680360904200D010605DF86F
:10181000044B70470460F7E7704700BF980A002048
:10182000940A002038B5044604F080FE384B1B684B
:10183000B3B1384B1B681C4250D1002C50D004F17E
:10184000080214F0070F02D022F007020832002A23
:1018500055D0314B1B68934253D330490C6804E098
:10186000FFF77CFFE5E721461C466368934202D2FE
:101870002368002BF7D1264B1B68A34243D00D6889
:10188000083523680B6063689B1A102B10D9A018C9
:1018900010F0070F08D04FF0500383F31188BFF307
:1018A0006F8FBFF34F8FFEE743606260FFF788FFE3
:1018B000626819490B689B1A0B60194909688B42C9
:1018C00001D217490B60134B1B681343636000235D
:1018D0002360144A13680133136002E0002500E01E
:1018E000002504F0BDFE15F0070F0ED04FF0500399
:1018F00083F31188BFF36F8FBFF34F8FFEE700258F
:10190000EFE70025EDE70025EBE7284638BD00BFEF
:10191000940A0020800A0020900A0020980A0020E3
:101920008C0A0020880A0020002834D038B50446EC
:10193000A0F1080550F8043C174A1268134208D178
:101940004FF0500383F31188BFF36F8FBFF34F8FB6
:10195000FEE750F8081C41B14FF0500383F31188A3
:10196000BFF36F8FBFF34F8FFEE723EA020340F808
:10197000043C04F0DBFD54F8041C084A13680B44D3
:1019800013602846FFF71CFF054A136801331360F4
:1019900004F066FE38BD7047800A0020900A0020DF
:1019A000840A002098B108B50378032B0BD80122D4
:1019B0000749CA54074800EBC301898850F833002F
:1019C00001F0E7FD08BD0448FFF786FDFAE7704720
:1019D000A8460020AC460020049C0008B0B110B519
:1019E0000378032B0ED80024094AD454094800EB8D
:1019F000C3012246898850F8330001F0CAFD064B26
:101A00001C7010BD0548FFF767FDFAE7704700BF7F
:101A1000A8460020AC460020A1460020049C0008F7
:101A200010B590B10146274B1B7993B9264A042083
:101A30001074264B01241C7003245C7098700220E3
:101A4000D870234B5361002313E02248FFF744FD75
:101A500002E02148FFF740FD10BD51F833001F4A56
:101A600042F8330001EBC300406802EBC302506050
:101A70000133032BF1D9002408E0184B998853F85F
:101A8000340001F07FFD164B18550134032CF4D9B6
:101A9000002407E0114B0022998853F8340001F02C
:101AA00078FD0134032CF5D9064B93F82030002B38
:101AB000D2D0044B93F82130082BCDD90948FFF739
:101AC00029FDC9E79C0900205C090020A4460020EC
:101AD000000034431C9C0008449C0008AC460020D5
:101AE000A8460020709C0008554B1B7E002B00F080
:101AF000A58030B585B0524BD3ED077AB6EE007AAB
:101B0000F4EEC77AF1EE10FAC0F28D80B1EE007AF1
:101B1000F4EEC77AF1EE10FA00F28580494B93EDAE
:101B2000057AC0EE076AFCEEE66ACDED016A9DF823
:101B3000043006EE903AF8EEE66A66EE876AB3EE97
:101B40000E6A76EEC66A37EE267A8DED037A9DED43
:101B5000037ADFED3D6A67EEA67AF5EE400AF1EE14
:101B600010FA65D0DFED396A60EEA66ADFED385A0B
:101B700086EEA56A67EE867A77EE677ACDED027A11
:101B8000344AD35C013B344A1370DDED027A77EEC0
:101B9000C07AB2EE047AF4EEC77AF1EE10FA45D5C7
:101BA0002E4B1B78002B41D1DDED027A77EEC07A07
:101BB000F5EEC07AF1EE10FA38DD284B01221A70EA
:101BC0009DED027A37EE407AF5EE400AF1EE10FA1A
:101BD00031D0DFED1E7A60EEA70ADFED1D6AC6EE9A
:101BE000A07AFCEEE77AF8EE677A27EE277ABCEE69
:101BF000C77ADDED036A76EEC06A67EEA67AFCEE80
:101C0000E77A17EE904A0444134D2A46144917EE1A
:101C1000103A0344184605F041FC2A461149204673
:101C200005F03CFC02E01048FFF756FC05B030BD63
:101C30009FED0E6A9EE7DFED0E7AD4E7704700BF96
:101C40009C0900205C09002000007A440000B44395
:101C5000C0E1644CA4460020A0460020A14600201C
:101C6000A5190008DD190008A49C00080000000068
:101C70000000000000F1080343604FF0FF32826073
:101C8000C360036100230360704700230361704752
:101C900043684B609A688A60516099600861036884
:101CA00001330360704730B40D68B5F1FF3F11D0C8
:101CB00000F108031C465B681A68AA42FAD96368F7
:101CC0004B6099608C606160086103680133036058
:101CD00030BC70470469F2E70369416882688A6032
:101CE000416851605A68824206D0002202611A6837
:101CF000013A1A601868704782685A60F5E7000078
:101D000008B50268034B9A4200D008BD00F036FEC9
:101D1000FBE700BF0048014072B6FEE710B594B083
:101D200008AC30220021204607F0D6F800230393A8
:101D300004930593069307930193214A116C41F094
:101D400080511164126C02F080520192019A029348
:101D50001C4A136823F4404343F4004313601368A0
:101D600003F440430293029B012308934FF4803312
:101D7000099302230E934FF480030F9319231093BA
:101D80004FF4A8731193042312930723139320464F
:101D900002F064FA78B90F2303930221049100231F
:101DA00005934FF480520692079303A802F0A6FC15
:101DB00018B914B010BDFFF7AFFFFFF7ADFF00BFBC
:101DC000003802400070004008B500F0BDFDFFF78C
:101DD000A5FFFFF763FCFFF7E7FA04F0ABFFFEF7A0
:101DE0005FFE04F043FF04F051FEFEF7F9FFFFF73A
:101DF000CFFBFFF707F8FEE700230362436283622D
:101E0000C362002202638363704780ED0D0A70474E
:101E1000036BCB1A07EE903AF8EE677A9FED397AAA
:101E2000C7EE876A90ED0D6A36EE406AD0ED005A33
:101E300065EE865A90ED087AD0ED017AB6EE005A3A
:101E400067EE857A67EEA67A90ED0A5A35EE065A65
:101E500067EE857A77EE277AC0ED087A90ED077AFB
:101E6000F4EEC77AF1EE10FA38DD80ED087AD0EDA5
:101E7000027A77EEA77A90ED0B7A30EE477A67EE2A
:101E8000877A90ED037A37EE077A37EE665AD0ED0F
:101E9000094A25EE245A77EE857AF1EE677A37EE15
:101EA000267AC7EE876AC0ED096AD0ED087A77EE28
:101EB000A57A76EEA77AC0ED0E7A90ED057AF4EE6B
:101EC000C77AF1EE10FA13DD80ED0E7A80ED0A6A22
:101ED00080ED0B0A016390ED0E0A704790ED067AD3
:101EE000F4EEC77AF1EE10FAC1D580ED087ABEE7BC
:101EF00090ED047AF4EEC77AF1EE10FAE6D580EDB3
:101F00000E7AE3E70024744958B10A6802604A680F
:101F100042608A688260CA6882610A69C2614A69ED
:101F2000C260704782B0002301930D4B1B68B3F170
:101F3000FF3F08D04FF0500383F31188BFF36F8F3A
:101F4000BFF34F8FFEE74FF0500383F31188BFF3C9
:101F50006F8FBFF34F8F019B002BFCD002B07047F7
:101F60004800002008480068006880F308884FF0A7
:101F7000000080F3148862B661B6BFF34F8FBFF3E1
:101F80006F8F00DF00BF000008ED00E0DFF80C00FD
:101F9000016841F4700101607047000088ED00E0C5
:101FA0004FF0807340F8043C21F0010140F8081C18
:101FB000054B40F80C3C40F8202C6FF0020340F831
:101FC000243C4438704700BF251F00080000000073
:101FD000074B19680868B0E8F04F80F30988BFF331
:101FE0006F8F4FF0000080F311887047AFF30080CF
:101FF000604C00204FF0500383F31188BFF36F8FC4
:10200000BFF34F8F0B4A136801331360012B00D0CD
:1020100070474FF0E023D3F8043D13F0FF0FF7D0E3
:102020004FF0500383F31188BFF36F8FBFF34F8FCF
:10203000FEE700BF48000020094B1B6843B94FF082
:10204000500383F31188BFF36F8FBFF34F8FFEE709
:10205000013B034A13600BB983F31188704700BF3B
:102060004800002000000000000000000000000008
:10207000EFF30980BFF36F8F154B1A681EF0100F36
:1020800008BF20ED108A20E9F04F10602DE909000B
:102090004FF0500080F31188BFF34F8FBFF36F8F65
:1020A00004F080FB4FF0000080F3118809BC196830
:1020B0000868B0E8F04F1EF0100F08BFB0EC108AAF
:1020C00080F30988BFF36F8F704700BFAFF30080C4
:1020D000604C002008B54FF0500383F31188BFF324
:1020E0006F8FBFF34F8F04F02FFA28B14FF0E0232A
:1020F0004FF08052C3F8042D002383F3118808BDEC
:102100004FF0E022002313619361054B1B680549E2
:10211000A1FB03139B09013B536107231361704724
:1021200054000020D34D62104FF0E023D3F8002D6F
:102130003D4B9A421CD04FF0E023D3F8002D3B4B8F
:102140009A421ED030B583B0394B1A78D2B2019280
:10215000FF221A701B78DBB28DF803309DF8033034
:1021600003F05003334A1370334B07221A601BE00D
:102170004FF0500383F31188BFF36F8FBFF34F8F7E
:10218000FEE74FF0500383F31188BFF36F8FBFF367
:102190004F8FFEE7284A1368013B13609DF8033018
:1021A0005B00DBB28DF803309DF8033013F0800F35
:1021B000F0D1214B1B68032B08D04FF0500383F361
:1021C0001188BFF36F8FBFF34F8FFEE71B021A4AD0
:1021D000136003F4E0631360019BDBB2144A1370D5
:1021E0004FF0E024D4F8203D43F47003C4F8203DC0
:1021F000D4F8203D43F07043C4F8203DFFF780FF42
:1022000000250E4B1D60FFF7C1FED4F8343F43F0AC
:102210004043C4F8343FFFF7A5FE04F0C3FAFFF7CC
:1022200081FE284603B030BD71C20F4170C20F411C
:1022300000E400E0D0460020CC460020480000200A
:10224000EFF305830F2B0ED9114A9A5C114B1B78C3
:102250009A4208D24FF0500383F31188BFF36F8F77
:10226000BFF34F8FFEE74FF0E023D3F80C3D03F4AC
:10227000E063094A1268934208D94FF0500383F390
:102280001188BFF36F8FBFF34F8FFEE7704700BF1A
:10229000F0E300E0D0460020CC46002010B5044614
:1022A000FFF7A8FEA26BE36B9A4204D00024FFF76D
:1022B000C3FE204610BD0124F9E710B50446FFF720
:1022C00099FEA36B23B90124FFF7B6FE204610BD8B
:1022D0000024F9E770B504461546866B026C5AB9BE
:1022E00003681BB100200136A66370BD806804F04E
:1022F00085FB0023A360F6E76DB9406806F020FE79
:102300006368226C13446360A268934219D3236804
:1023100063602846E7E7C06806F012FEE368226CB7
:1023200051429B1AE3602268934202D2A3680B4495
:10233000E360022D01D00020D5E726B1013E002048
:10234000D1E72846CFE70020CDE70346026C6AB10B
:1023500010B50846D9681144D9609C68A14201D3E0
:102360001968D960D96806F0EBFD10BD704738B523
:102370000546FFF73FFE95F8454064B201E0013C99
:1023800064B2002C0ADD6B6A43B105F1240004F04D
:1023900089FA0028F3D004F01BFBF0E7FF2385F84F
:1023A0004530FFF749FEFFF725FE95F8444064B23B
:1023B00001E0013C64B2002C0ADD2B6943B105F158
:1023C000100004F06FFA0028F3D004F001FBF0E7EE
:1023D000FF2385F84430FFF72FFE38BD38B5E0B154
:1023E0000D460446FFF706FE2368E26B216C01FBF5
:1023F0000230A0600020A0636360013A02FB013359
:10240000E360FF2384F8443084F84530FDB9236944
:1024100063B9FFF711FE012038BD4FF0500383F37D
:102420001188BFF36F8FBFF34F8FFEE704F11000E9
:1024300004F038FA0028ECD04FF0E0234FF080523F
:10244000C3F8042DBFF34F8FBFF36F8FE1E704F1A3
:102450001000FFF70FFC04F12400FFF70BFCD8E796
:1024600038B51D46049C0B4649B92460E0632364DB
:1024700001212046FFF7B2FF84F84C5038BD22609E
:10248000F4E740B94FF0500383F31188BFF36F8F27
:10249000BFF34F8FFEE710B584B01C46844653B19E
:1024A00092B189B94FF0500383F31188BFF36F8F56
:1024B000BFF34F8FFEE74FF0500383F31188BFF354
:1024C0006F8FBFF34F8FFEE76AB150230393039BD7
:1024D000502B13D04FF0500383F31188BFF36F8F4D
:1024E000BFF34F8FFEE70029EFD04FF0500383F387
:1024F0001188BFF36F8FBFF34F8FFEE7039B01235C
:1025000084F8463000949DF818306046FFF7A8FF25
:10251000204604B010BDF0B585B0019288B10F46D9
:102520001D460446B1B1022D20D1E36B012B1DD015
:102530004FF0500383F31188BFF36F8FBFF34F8FBA
:10254000FEE74FF0500383F31188BFF36F8FBFF3A3
:102550004F8FFEE7036C002BE5D04FF0500383F361
:102560001188BFF36F8FBFF34F8FFEE704F036FA89
:10257000064658B9019B002B48D04FF0500383F317
:102580001188BFF36F8FBFF34F8FFEE700263DE04A
:102590002A4639462046FFF79DFE636A7BB948B15B
:1025A0004FF0E0234FF08052C3F8042DBFF34F8F5C
:1025B000BFF36F8FFFF740FD012005B0F0BD04F1C0
:1025C000240004F06FF90028F4D04FF0E0234FF01E
:1025D0008052C3F8042DBFF34F8FBFF36F8FE9E72D
:1025E000FFF72AFD0020E8E702A804F0A1F9012680
:1025F00019E0002384F8443021E0002384F84530BA
:1026000023E02046FFF7B3FE04F02AF8FFF7F2FCC0
:10261000A26BE36B9A42BBD3022DB9D0019B002B76
:10262000DED0002EE0D0FFF707FD03F07FFFFFF7BD
:10263000E1FC94F8442052B2B2F1FF3FD9D094F8B3
:10264000452052B2B2F1FF3FD7D0FFF7F5FC01A908
:1026500002A804F079F9D8B92046FFF71FFE002838
:10266000CFD0019904F1100004F0E8F82046FFF7FC
:102670007EFE03F0F5FF0028C8D14FF0E0234FF0B5
:102680008052C3F8042DBFF34F8FBFF36F8FBDE7A8
:102690002046FFF76CFE03F0E3FF00208DE72DE9F5
:1026A000F84390B10F4616461C460546B1B1022CC0
:1026B00020D1EB6B012B1DD04FF0500383F3118819
:1026C000BFF36F8FBFF34F8FFEE74FF0500383F3DD
:1026D0001188BFF36F8FBFF34F8FFEE7036C002BA2
:1026E000E5D04FF0500383F31188BFF36F8FBFF332
:1026F0004F8FFEE7FFF7A4FDEFF311884FF0500373
:1027000083F31188BFF36F8FBFF34F8FAA6BEB6B0F
:102710009A4206D3022C04D0002088F31188BDE829
:10272000F88395F845904FFA89F9AB6B2246394604
:102730002846FFF7CFFDB9F1FF3F06D009F10103AD
:102740005BB285F845300120E7E76B6A0BB90120E1
:10275000E3E705F1240004F0A5F818B126B1012043
:102760003060DAE70120D8E70120D6E7F0B585B080
:10277000019290B10F460446C1B104F02FF906460C
:1027800000BB019B002B5ED04FF0500383F31188F8
:10279000BFF36F8FBFF34F8FFEE74FF0500383F30C
:1027A0001188BFF36F8FBFF34F8FFEE7036C002BD1
:1027B000E3D04FF0500383F31188BFF36F8FBFF363
:1027C0004F8FFEE700263EE039462046FFF7BDFD6D
:1027D000013DA563236923B9FFF72EFC012005B055
:1027E000F0BD04F1100004F05DF80028F4D04FF0C3
:1027F000E0234FF08052C3F8042DBFF34F8FBFF397
:102800006F8FE9E7FFF718FC0020E8E702A804F063
:102810008FF8012621E0002384F8443029E00023CA
:1028200084F845302BE02046FFF7A1FD03F018FFA8
:1028300009E02046FFF79BFD03F012FF2046FFF75B
:102840003CFD00283FD1FFF7D5FBA56B002DBBD188
:10285000019B002BD6D0002ED8D0FFF7EDFB03F064
:1028600065FEFFF7C7FB94F844305BB2B3F1FF3F5E
:10287000D1D094F845305BB2B3F1FF3FCFD0FFF732
:10288000DBFB01A902A804F05FF80028D1D12046A3
:10289000FFF713FD0028C6D0019904F1240003F0CE
:1028A000CDFF2046FFF763FD03F0DAFE0028CAD112
:1028B0004FF0E0234FF08052C3F8042DBFF34F8F49
:1028C000BFF36F8FBFE7002089E700000023072BCD
:1028D0000CD8074A52F833200AB10133F7E7044A0B
:1028E00042F8331002EBC30250607047704700BFDC
:1028F000D446002070B504460D461646FFF77AFB15
:1029000094F844305BB2B3F1FF3F0DD094F84530FA
:102910005BB2B3F1FF3F0BD0FFF78EFBA36B5BB154
:102920002046FFF724FD70BD002384F84430EDE716
:10293000002384F84530EFE73246294604F12400AD
:1029400003F094FFECE7000008B50B4B1A6842F463
:1029500000721A601A6842F480621A601A6842F4BF
:1029600080721A60032000F0FFFA0F2002F040FD91
:1029700000F016FE002008BD003C0240034A11682A
:10298000034B1B780B441360704700BF14470020B3
:102990004C000020014B1868704700BF144700200E
:1029A00038B50446FFF7F6FF0546B4F1FF3F02D005
:1029B000044B1B781C44FFF7EDFF401BA042FAD3E9
:1029C00038BD00BF4C0000204A4B5A6822F4403208
:1029D0005A605A6841680A435A600268536823F48F
:1029E0008073536002685368016943EA01235360AE
:1029F0000268536823F0407353600268536881682B
:102A00000B4353600268936823F400639360026889
:102A10009368C1680B439360826A374B9A4257D0E0
:102A20000268936823F07063936002689368816A18
:102A30000B4393600268936823F0405393600268ED
:102A40009368C16A0B4393600268936823F00203A2
:102A5000936002689368017E43EA4103936090F8B3
:102A60002030002B3FD00268536843F4006353606A
:102A70000268536823F46043536001684B68426AFC
:102A8000013A43EA42334B600268D36A23F470038D
:102A9000D3620168CB6AC269013A43EA0253CB624E
:102AA0000268936823F4007393600268936890F857
:102AB000301043EA412393600268936823F48063F3
:102AC000936002689368416943EA81239360704789
:102AD0000268936823F0706393600268936823F040
:102AE00040539360B0E70268536823F40063536077
:102AF000CAE700BF002301400100000F38B310B542
:102B00000446036C43B1236C13F0100F0BD001206B
:102B1000002384F83C3010BDFEF792F80023636474
:102B200084F83C30EFE7236C23F4885323F002034E
:102B300043F0020323642046FFF746FF0020606451
:102B4000236C23F0030343F001032364E0E7012037
:102B50007047000010B582B013460022019290F831
:102B60003C20012A00F094800446012280F83C2099
:102B70000268906810F0010F13D1906840F00100D6
:102B80009060464A1068464AA2FB0020800C00EB89
:102B90004000019002E0019801380190019800285E
:102BA000F9D12268906810F4807F03D0906820F4F7
:102BB000807090602268906810F0010F5DD0206CEA
:102BC00020F4E06020F0010040F48070206452683E
:102BD00012F4806F05D0226C22F4405242F48052ED
:102BE0002264226C12F4805F34D0626C22F0060200
:102BF0006264002284F83C20A26B2A48D063A26B56
:102C000029481064A26B2948D06422686FF0220022
:102C100010602068426842F08062426020688268EA
:102C200042F48072826020680A4600F14C01A06B79
:102C300000F0A2FA1E4B5B6813F01F0F0DD1236842
:102C40009A6812F0405F25D19A6842F080429A60FB
:102C500000201BE000226264CBE72368154A934200
:102C600001D0002012E09A6812F0405F14D19A68F7
:102C700042F080429A60002008E0236C43F0100389
:102C80002364636C43F001036364002002B010BD51
:102C90000220FBE70020F9E70020F7E754000020BE
:102CA00083DE1B43DD2C0008BB2C0008C72C00086A
:102CB0000023014000200140704708B5806BFFF7FA
:102CC000FBFF08BD704708B5806B40230364436C6D
:102CD00043F004034364FFF7F5FF08BD08B503465E
:102CE000806B026C12F0500F25D1036C43F400731B
:102CF000036403689A6812F0405F19D1027EBAB982
:102D0000DA6A12F4700F03D09A6812F4806F0FD150
:102D10005A6822F020025A60036C23F48073036423
:102D2000036C13F4805F03D1036C43F0010303646D
:102D3000FEF706F808BD026C12F0100F04D1826B8A
:102D4000D26C18469047F5E7FFF7BCFFF2E70000AA
:102D500030B482B00022019290F83C20012A00F0A9
:102D6000B6800346012280F83C200A68092A40D92F
:102D70000468E06892B202EB42021E3A4FF0070C80
:102D80000CFA02F220EA0202E2601C68E0680A889B
:102D900002EB42021E3A8D6805FA02F20243E2603B
:102DA0004A68062A3CD81C68606B02EB8202053A2E
:102DB0004FF01F0C0CFA02F220EA020262631C6858
:102DC000606B4A6802EB8202053AB1F800C00CFA67
:102DD00002F20243626318683E4A904250D018687B
:102DE0003C4A904255D0002083F83C0002B030BCF1
:102DF00070470468206992B202EB42024FF0070C60
:102E00000CFA02F220EA020222611C6820690A8898
:102E100002EB42028D6805FA02F202432261BFE72B
:102E20000C2A16D81D68286B02EB8202233A1F2455
:102E300004FA02F220EA02022A631D68286B4A683B
:102E400002EB8202233A0C8804FA02F202432A635C
:102E5000C1E71D68E86A02EB8202413A1F2404FAC6
:102E600002F220EA0202EA621D68E86A4A6802EB9E
:102E70008202413A0C8804FA02F20243EA62AAE7AB
:102E80000A68122AABD11448426842F480024260B8
:102E9000A5E70A68103A012AA5D80F48426842F40B
:102EA000000242600A68102A9DD10C4A12680C493F
:102EB000A1FB0212920C02EB82025200019202E08C
:102EC000019A013A0192019A002AF9D18BE7022076
:102ED0008CE700BF00200140002301405400002087
:102EE00083DE1B43002807DB00F01F02400901239B
:102EF0009340024A42F82030704700BF00E100E0F2
:102F0000002808DB0901C9B200F1604000F561400A
:102F100080F80013704700F00F000901C9B2014B9F
:102F20001954704714ED00E000B500F00700C0F13F
:102F3000070CBCF1040F28BF4FF0040C031D062B37
:102F40000FD9C31E4FF0FF3E0EFA0CF021EA00012C
:102F500099400EFA03FE22EA0E0241EA02005DF8F1
:102F600004FB0023EEE70000074AD36823F4E06384
:102F70001B041B0C000200F4E060034343F0BF633A
:102F800043F40033D360704700ED00E010B5044611
:102F9000054BD868C0F30220FFF7C6FF0146204664
:102FA000FFF7AEFF10BD00BF00ED00E008B5FFF772
:102FB00099FF08BD30B405682C6824F480242C6087
:102FC000046863608368402B05D0036899600368D8
:102FD000DA6030BC704703689A600368D960F8E72C
:102FE00010B40368D9B210390A4AA2FB014212098F
:102FF000094CA25CC2655F2907D96FF3090304334A
:103000008365806D5DF8044B70476FF3090383653A
:10301000F7E700BFABAAAAAA949D0008836A826959
:1030200092B9012B0AD0022B02D00BB100207047BD
:10303000C36A13F0807F28D100207047C36AB3F1C0
:10304000C07F24D000207047B2F5005F09D0022B6A
:1030500025D9032B25D1C36A13F0807F23D100200B
:103060007047032B03D8DFE803F01404140A002090
:103070007047C36A13F0807F0DD100207047C36A88
:10308000B3F1C07F09D000207047012070470120B4
:1030900070470120704701207047012070470120D0
:1030A00070470020704701207047000070B504464B
:1030B000FFF770FC002C5BD00546022384F8353006
:1030C000002384F834302268136823F0010313606E
:1030D00023681A6812F0010F0AD0FFF75BFC431B4C
:1030E000052BF5D920236365032084F8350070BDD6
:1030F0001A68204911406268A0680243E0680243F0
:103100002069024360690243A0690243E069024307
:10311000206A02430A43616A04291ED01A602668A5
:10312000756925F00705636A1D43042B07D1A36A5F
:103130001D43E36A1BB12046FFF770FF90B975612C
:103140002046FFF74DFFE26D3F2393408360002050
:103150006065012384F83530C9E7E16A206B0143DB
:103160000A43DBE740236365012084F83500BEE7AE
:103170000120BCE73F8010F038B50446856D90F81B
:10318000340001282AD0012084F8340094F8350056
:10319000012804D0002384F83430022038BD0220F6
:1031A00084F83500002060652046FFF703FFE26DDC
:1031B0003F239340AB602268136843F0160313600B
:1031C000236C23B12268136843F00803136022685C
:1031D000136843F0010313600020DFE70220DDE7FE
:1031E000F0B583B0044600230193724B1D68724B07
:1031F000A3FB0535AD0A876D3E68C26D0823934079
:10320000334210D003681A6812F0040F0BD01A680A
:1032100022F004021A60C26D08239340BB60436D24
:1032200043F001034365E26D01239340334209D02B
:103230002268526912F0800F04D0BB60636D43F0C6
:1032400002036365E26D04239340334209D0226890
:10325000126812F0020F04D0BB60636D43F00403E8
:103260006365E26D10239340334224D022681268D4
:1032700012F0080F1FD0BB6023681A6812F4802F69
:103280000DD01B6813F4002F04D1236C9BB1204692
:10329000984710E0A36C73B1204698470BE01A687A
:1032A00012F4807F03D11A6822F008021A60236C9E
:1032B0000BB120469847E26D20239340334254D00F
:1032C0002268126812F0100F4FD0BB6094F83530AE
:1032D000052B0ED023681A6812F4802F33D01B6898
:1032E00013F4002F2AD1636C002B3ED02046984760
:1032F0003BE02268136823F01603136022685369C9
:1033000023F080035361236CA3B12268136823F078
:1033100008031360E26D3F239340BB60012384F8F0
:103320003530002384F83430236D002B3FD0204605
:1033300098473CE0A36C002BE7D1EBE7E36BA3B12C
:103340002046984711E01A6812F4807F09D11A6864
:1033500022F010021A60012384F83530002384F82B
:103360003430E36B0BB120469847636DFBB1636D5E
:1033700013F0010F17D0052384F835302268136845
:1033800023F001031360019B01330193AB4204D886
:1033900023681B6813F0010FF5D1012384F8353041
:1033A000002384F83430E36C0BB12046984703B017
:1033B000F0BD00BF54000020B5814E1B00230F2B31
:1033C00000F2D78070B582B065E085684FEA430EA1
:1033D000032404FA0EF425EA0405CC6804FA0EF47A
:1033E0002C438460446824EA02044A68C2F3001251
:1033F0009A40224342605CE0DC08083450F8242004
:1034000003F00705AD004FF00F0E0EFA05FE22EA9D
:103410000E0E0A69AA4042EA0E0240F824205CE03F
:10342000042200E0002202FA0EF22A430234514D37
:1034300045F82420504A94686FEA0C0224EA0C05EF
:103440004E6816F4801F01D04CEA04054A4CA56072
:10345000E46802EA04054E6816F4001F01D04CEA45
:103460000405454CE560646802EA04054E6816F4FC
:10347000003F01D04CEA04053F4C656024682240BF
:103480004D6815F4803F01D04CEA04023A4C2260AA
:1034900001330F2B6BD801229A400C6804EA020C0E
:1034A00032EA0404F4D14C6804F00304013C012C1A
:1034B0008BD94A6802F00302032A09D0C4685D0070
:1034C0000322AA4024EA02048A68AA402243C26076
:1034D0004A6802F00302022A8ED004684FEA430EC3
:1034E000032202FA0EF224EA02044A6802F00302FE
:1034F00002FA0EF2224302604A6812F4403FC7D03B
:10350000002201921D4A546C44F480445464526C6D
:1035100002F480420192019A9C08A51C154A52F8B7
:10352000255003F0030E4FEA8E0E0F2202FA0EF220
:1035300025EA0205124A90423FF474AF02F5806218
:1035400090420ED002F5806290420CD002F580626B
:1035500090420AD002F5806290423FF461AF0722A8
:1035600061E701225FE702225DE703225BE702B029
:1035700070BD704700380140003C014000380240F7
:10358000000002400369194201D001207047002069
:1035900070470AB18161704709048161704700007A
:1035A00000B583B0002200920D4B596C41F480416C
:1035B0005964596C01F48041009100990192196C91
:1035C00041F0805119641B6C03F080530193019BFF
:1035D0000F216FF00100FFF7D9FC03B05DF804FB89
:1035E000003802402DE9F04383B0D0F8008001EBB1
:1035F000C10300EB83039A6A5B6A9A4254D8074678
:103600000C469B1A01EBC10200EB8202D2699A427E
:1036100000D31A4602F103094FEA990915E006F1B1
:1036200003094FEA9909BB7904EBC40507EB85054B
:10363000296A0093B3B2E2B2404602F084FA2B6AE0
:1036400033442B62AB6A3344AB6208EB441303F59B
:1036500010639B699BB24B4512D304EBC40307EB89
:1036600083039A6A5B6A9A420AD24BB19B1A04EBB3
:10367000C40207EB8202D6699E42D0D31E46CEE733
:1036800004EBC40307EB83077A6ABB6A9A420FD83C
:1036900004F00F040122A240D8F8343823EA0203D0
:1036A000C8F83438002000E0012003B0BDE8F08302
:1036B0000020FAE730B583B000287AD004460568C8
:1036C00090F89534C3B1032384F89534B5F1A04F35
:1036D00017D0206801F0E8FF237C8DF80030231D0F
:1036E0000ECB206801F01FFF70B1022384F89534DF
:1036F0000125284603B030BD80F8943404F0B8FBAF
:10370000E1E70023A371E4E70021206802F031FC27
:103710000246B8B903462079984218D903EBC30191
:1037200004EB8101012048750B75CB8500200876DC
:10373000C861086203EBC30104EB810148620133F5
:10374000DBB2E8E7022384F895340125D1E7904203
:1037500017D902EBC20304EB8303002183F855124F
:1037600083F8542283F85812C3F85C12C3F860122D
:1037700002EBC20304EB8303C3F864120132D2B23A
:10378000E5E7237C8DF80030231D0ECB206801F087
:10379000E1FF054620B1022384F895340125A8E70E
:1037A00000236374012384F89534206802F0A0FBA1
:1037B0009FE701259DE7036890F89424012A1AD019
:1037C00010B50446012280F89424DA6812F0400F04
:1037D00002D0427B012A09D0206801F05FFF2068F7
:1037E00002F078FB002084F8940410BD9A6B42F438
:1037F00080329A63F0E702207047000070B50446FB
:103800000D460068066C00EB411303F530639A68BF
:10381000A179012911D038498E4256D03DB905EB26
:10382000C50304EB8303D3F86432002B5ED0E9B206
:10383000204604F069FB002070BD12F0080F09D08B
:103840002E498E42F7D912F4004FF4D04FF40042C3
:103850009A60F0E712F0200F02D020229A60EAE787
:1038600012F0280FE7D125498E4206D912F4004FF5
:1038700003D04FF400429A60DDE705EBC50204EB8C
:103880008202D2F874121B69C3F31203CB1AC2F876
:1038900068327DB905EBC50204EB8202D2F86422DE
:1038A0006AB105EBC50204EB8202D2F8601219443A
:1038B000C2F86012E9B2204604F026FBBBE704F22E
:1038C0009C42012102F094FBF4E712F4004F03D074
:1038D0004FF400429A60AEE712F0200F01D0202290
:1038E0009A60E9B2204604F00FFBA4E704F29C4280
:1038F000002102F07DFB9AE70A31544F0A30544F01
:1039000038B5044603681D6C03EB4113D3F8081B5C
:103910000E4A954207D903F5306311F4004F02D0E7
:103920004FF400429A60204604F0E6FA074B9D42AD
:1039300002D9A379012B01D0002038BD04F29C42AA
:103940000121206802F054FBF6E700BF0A30544F13
:1039500090F89434012B0CD010B50446012380F864
:1039600094344174006802F0A5FA002084F89404AD
:1039700010BD0220704738B505468C4611F0800F07
:103980002BD101F00F0E0EEBCE04A40004F514743D
:103990000444211D0EEBCE0E00EB8E0E00208EF89F
:1039A00055020CF00F0C81F800C0C2F30A028A60C5
:1039B0000B714A780AB1A1F81AC0022B1CD095F8F5
:1039C0009434012B1BD0012385F89434286801F02E
:1039D0009EFF002085F8940438BD01F00F0000EB35
:1039E000C001890010312944043100EBC00005EB0F
:1039F000800001244475D4E700234B71DFE70220E7
:103A0000EAE710B504460A4611F0800F20D101F014
:103A10000F0000EBC0039B0003F514732344191D32
:103A200000EBC00004EB8000002380F8553202F068
:103A30000F020A7094F89434012B18D0012384F8F3
:103A40009434206801F0B0FF002084F8940410BD85
:103A500001F00F0000EBC0039B0010332344191D3D
:103A600000EBC00004EB800001234375DFE7022078
:103A7000EDE710B5144601F00F0C0CEBCC018900FA
:103A800001F51471014404310CEBCC0E00EB8E0EE9
:103A9000CEF86022CEF864320023CEF868328EF879
:103AA00055328EF854C28279012A04D0006802F09F
:103AB00061F8002010BDCEF87042F7E701F00F0169
:103AC00001EBC10100EB8100D0F86802704710B52E
:103AD000144601F00F0C0CEBCC01890010310144AD
:103AE00004310CEBCC0E00EB8E0ECEF82020CEF87D
:103AF00024300023CEF8283001238EF815308EF8BC
:103B000014C082799A4204D0006802F033F8002091
:103B100010BDCEF83040F7E738B501F00F05027957
:103B2000AA4238D304460B4611F0800F1FD101EB97
:103B3000C101890001F514710144043103EBC30391
:103B400000EB8303002283F8552201238B700D7054
:103B500094F89434012B20D0012384F89434206805
:103B600002F04DF985B1002084F8940438BD05EBCE
:103B7000C501890010310144043105EBC50300EB98
:103B8000830301225A75E0E704F29C42A179206880
:103B900002F02EFAE7E70120E8E70220E6E701F06D
:103BA0000F0302799A4230D310B5044611F0800F0A
:103BB0001ED103EBC301890001F5147101440431E6
:103BC00003EBC30200EB8202002082F855020022C0
:103BD0008A700B7094F89434012B18D0012384F868
:103BE0009434206802F038F9002084F8940410BD61
:103BF00003EBC301890010310144043103EBC3021C
:103C000000EB820201205075E1E70120704702209D
:103C1000EDE708B511F0800F0CD101F00F0101EBB9
:103C2000C101890001F5147101440431006801F0FB
:103C30002BFF08BD01F00F0101EBC101890010311C
:103C400001440431F2E72DE9F04F83B004460568E2
:103C5000284602F08AF910B103B0BDE8F08F06469D
:103C6000206802F053F90028F6D005F50067BB681C
:103C7000C3F30D23C4F8D434206802F047F910F0E0
:103C8000020F04D02268536903F0020353612068D5
:103C900002F03CF910F0100F15D02268936923F060
:103CA00010039361D5F8208008F00F0908F4F01391
:103CB000B3F5802F4CD0B3F5402F6FD022689369B5
:103CC00043F010039361206802F020F910F4002FF4
:103CD00076D1206802F01AF910F4802F40F0E080CD
:103CE000206802F013F90028C0F26181206802F018
:103CF0000DF910F4006F09D0BB6813F0010F40F00C
:103D00006E812268536903F400635361206802F0F6
:103D1000FDF810F4805F40F06681206802F0F6F84C
:103D200010F4005F40F0B381206802F0EFF810F06B
:103D3000080F40F0C481206802F0E8F810F0800F0E
:103D400000F0D781AB6923F08003AB610126C0E1AD
:103D500047F6F07318EA030FB0D04FEA181A4FEA8B
:103D6000C903019309EBC90B04EB8B0BC8F30A12CF
:103D7000DBF86012284602F01FF8DBF86032CAF365
:103D80000A0A5344CBF86032DBF86832019A4A449D
:103D900004EB82025344C2F868328FE7082204F22F
:103DA0009C41284602F008F809EBC90304EB8303A1
:103DB000D3F86822C8F30A184244C3F868227DE7A2
:103DC000206802F0A7F88046B14635E005EB4913BC
:103DD0000122C3F8082B49462046FFF70FFD3CE0BF
:103DE00005EB49130822C3F8082B49462046FFF784
:103DF00087FD35E009EBC90304EB830393F85732E1
:103E0000012B41D005EB49130222C3F8082B1AF00D
:103E1000200F04D005EB49132022C3F8082B1AF415
:103E2000005F05D005EB49134FF40052C3F8082B8F
:103E300009F101094FEA5808B8F1000F3FF449AF02
:103E400018F0010FF4D05FFA89FB5946206802F0A0
:103E500071F8824610F0010FB8D11AF0080FBFD1E7
:103E60001AF0100F04D005EB49131022C3F8082BE9
:103E70001AF0020FCBD06B6913F0800FBAD07B68B9
:103E800043F480637B60B5E709EBC90304EB83036C
:103E9000002283F857225946204604F083F8B1E700
:103EA000206802F03FF88046B14625E0594620469A
:103EB00004F036F81AF0080F04D005EB4913082275
:103EC000C3F808291AF0100F04D005EB491310228B
:103ED000C3F808291AF0400F04D005EB491340221B
:103EE000C3F808291AF0020F40D11AF0800F59D1F7
:103EF00009F101094FEA5808B8F1000F3FF4F0AE9C
:103F000018F0010FF4D05FFA89FB5946206802F0DF
:103F10001AF8824610F0010FCCD009F00F020121EF
:103F200001FA02F27B6B23EA02037B6305EB491380
:103F3000C3F80819A3798B42B8D109EBC90304EB84
:103F400083031A6AD9690A441A62B9F1000FADD124
:103F500009EBC90304EB83035B6A002BA6D104F2CF
:103F60009C420121206802F043F89FE74946284619
:103F700001F0A0FB09EBC90304EB8303DB7D012BFC
:103F800005D005EB49130222C3F80829ADE709EB78
:103F9000C90304EB83030022DA755946204604F076
:103FA00007F8EEE749462046FFF71CFBA0E77B68D1
:103FB00023F001037B6094F8CC34012B08D0204619
:103FC00003F0EAFF2268536903F0004353618DE672
:103FD000002184F8CC14204600F03FF9F2E7204697
:103FE00003F0C2FF8DE67B6823F001037B601021A4
:103FF000206801F05FFB1AE005EB46134FF67F31B6
:10400000C3F80819D3F8002922F40012C3F80029D4
:10401000C3F8081BD3F8002B22F40012C3F8002BBE
:10402000D3F8002B42F00062C3F8002B013623794D
:10403000B342E1D8FB6943F00113FB61E37BDBB1E1
:10404000D7F8843043F00B03C7F884307B6C43F01F
:104050000B037B64D5F8003823F4FE63C5F8003801
:1040600004F29C42A179206801F0C2FF22685369E2
:1040700003F48053536150E67B6943F4005343F0EB
:104080002B037B613B6943F00B033B61E2E7206854
:1040900001F0A0FF206801F029FCE071266800F023
:1040A000DDFB0146E279304601F086FA204603F056
:1040B00048FF2268536903F40053536134E62046F5
:1040C00003F039FF2268536903F00803536132E6B5
:1040D00001362379B3420CD906EBC60304EB830304
:1040E00093F85732012BF3D1F1B22046FFF791FD3F
:1040F000EEE7206801F00AFF10F4801F25D1206848
:1041000001F004FF10F4001F59D0012326E001360E
:104110002379B3421BD905EB4613D3F8002906EBEC
:10412000C60304EB83031B7E012BF0D1002AEEDAD9
:1041300006EBC60304EB83030122DA7566F07F0108
:10414000C9B22046FFF765FDE1E70126E0E72268F6
:10415000536903F480135361D1E7013322799A4202
:1041600028D905EB4312D2F8001B03EBC30204EB82
:10417000820292F85822012AEFD10029EDDA01F4E7
:104180008031D4F8D42402F001029142E5D103EB4E
:10419000C30204EB8202012182F85712AA6942F09D
:1041A0008002AA616A6912F0800FD6D17B6843F45D
:1041B00000737B602268536903F400135361206825
:1041C00001F0A4FE10F0804F10D1206801F09EFE97
:1041D00010F0040F3FF440AD23685D6815F0040F44
:1041E0000DD1226853682B43536035E5204603F018
:1041F000E5FE2268536903F080435361E5E72046FA
:1042000003F0E2FEEDE710B40468606A31B940EAF9
:104210000240A06200205DF8044B70478C46A36A00
:1042200000EB1340002308E003F1400104EB81019F
:10423000496800EB11400133DBB20CF1FF318B42D6
:10424000F2D340EA02400CF13F0104EB81046060CC
:10425000E0E703685962002070477047002800F0CB
:10426000E08170B582B00446036813F0010F3BD0C3
:104270009F4B9B6803F00C03042B2CD09C4B9B683A
:1042800003F00C03082B21D06368B3F5803F4FD0B7
:10429000B3F5A02F52D0964B1A6822F480321A60E0
:1042A0001A6822F480221A606368002B50D0FEF74F
:1042B00071FB05468E4B1B6813F4003F14D1FEF7CB
:1042C00069FB401B6428F5D90320B1E1884B5B688A
:1042D00013F4800FD8D0864B1B6813F4003F03D033
:1042E0006368002B00F09F81236813F0020F54D005
:1042F0007F4B9B6813F00C0F3ED07D4B9B6803F007
:104300000C03082B33D0E368002B68D0794B0122D3
:104310001A60FEF73FFB0546754B1B6813F0020F52
:1043200054D1FEF737FB401B0228F5D903207FE16B
:104330006F4A136843F480331360B5E76C4B1A6817
:1043400042F480221A601A6842F480321A60ABE7A5
:10435000FEF720FB0546664B1B6813F4003FC3D0F5
:10436000FEF718FB401B6428F5D9032060E1604B81
:104370005B6813F4800FC6D15D4B1B6813F0020F0E
:1043800003D0E368012B40F05081594A136823F0B1
:10439000F803216943EAC1031360236813F0080F8F
:1043A00042D063696BB3534B0122C3F8802EFEF7F2
:1043B000F1FA05464E4B5B6F13F0020F34D1FEF756
:1043C000E9FA401B0228F5D9032031E1484A136875
:1043D00023F0F803216943EAC1031360DDE7454B8D
:1043E00000221A60FEF7D6FA0546414B1B6813F00F
:1043F000020FD2D0FEF7CEFA401B0228F5D90320D7
:1044000016E13C4B0022C3F8802EFEF7C3FA0546A6
:10441000374B5B6F13F0020F06D0FEF7BBFA401B61
:104420000228F5D9032003E1236813F0040F77D0A5
:104430002F4B1B6C13F0805F33D1002301932C4B67
:104440001A6C42F080521A641B6C03F08053019383
:10445000019B0125284B1B6813F4807F23D0A368A0
:10446000012B34D0052B38D0214B1A6F22F00102DA
:104470001A671A6F22F004021A67A368002B3DD056
:10448000FEF788FA06461A4B1B6F13F0020F46D14F
:10449000FEF780FA801B41F288339842F3D903205B
:1044A000C6E00025D6E7144A136843F4807313600E
:1044B000FEF770FA0646104B1B6813F4807FCED1CE
:1044C000FEF768FA801B0228F5D90320B0E0084AFD
:1044D000136F43F001031367CFE7054B1A6F42F0E8
:1044E00004021A671A6F42F001021A67C5E700BF9B
:1044F000003802400000474200700040FEF74AFAD0
:104500000646524B1B6F13F0020F08D0FEF742FA1B
:10451000801B41F288339842F3D9032088E0EDB93B
:10452000A369002B00F08380484A926802F00C02D5
:10453000082A51D0022B17D0454B00221A66FEF7ED
:1045400029FA0446414B1B6813F0007F42D0FEF766
:1045500021FA001B0228F5D9032069E03B4A136CBD
:1045600023F080531364DBE7394B00221A66FEF711
:1045700011FA0546354B1B6813F0007F06D0FEF795
:1045800009FA401B0228F5D9032051E0E369226AA9
:104590001343626A43EA8213A26A5208013A43EA69
:1045A0000243E26A43EA0263284A5360284B01222D
:1045B0001A66FEF7EFF90446244B1B6813F0007FE0
:1045C00006D1FEF7E7F9001B0228F5D903202FE0FA
:1045D00000202DE000202BE0012B2BD01B4B5B6833
:1045E00003F48001E269914226D103F03F02216A7F
:1045F0008A4223D1616A47F6C0721A40B2EB811F2A
:104600001ED103F44031A26A5208013AB1EB024FC5
:1046100018D103F07063E26AB3EB026F14D100208B
:1046200006E001207047012002E0012000E00020A8
:1046300002B070BD0120FBE70120F9E70120F7E798
:104640000120F5E70120F3E70120F1E700380240FF
:104650000000474208B5264B9B6803F00C03042B6F
:1046600041D0082B41D1224B5A6802F03F025B68CF
:1046700013F4800F12D01E4B5968C1F388111D48E6
:104680000023A1FB0001FCF7D1F9194B5B68C3F3D0
:10469000014301335B00B0FBF3F008BD144B5868D5
:1046A000C0F388104FEA401CBCEB000C6EEB0E0E02
:1046B0004FEA8E1343EA9C634FEA8C11B1EB0C0175
:1046C00063EB0E03DB0043EA5173C90011EB000CEE
:1046D00043F10003990200234FEA8C2041EA9C51E8
:1046E000FCF7A4F9D1E70348D7E70348D5E700BFB3
:1046F0000038024040787D010024F400002800F0DA
:104700009B8070B50D4604464F4B1B6803F00703B2
:104710008B4208D2CBB24C4A1370136803F00703E4
:104720008B4240F08B80236813F0020F17D013F0F8
:10473000040F04D0454A936843F4E0539360236820
:1047400013F0080F04D0414A936843F46043936028
:104750003E4A936823F0F003A1680B4393602368FB
:1047600013F0010F32D06368012B21D09A1E012A69
:1047700025D9364A126812F0020F61D033498A688F
:1047800022F0030213438B60FEF704F906462F4B19
:104790009B6803F00C036268B3EB820F16D0FEF740
:1047A000F9F8801B41F288339842F0D9032042E0A7
:1047B000264A126812F4003FE0D101203BE0234A70
:1047C000126812F0007FD9D1012034E01E4B1B6823
:1047D00003F00703AB4207D9EAB21B4B1A701B6800
:1047E00003F00703AB422DD1236813F0040F06D06A
:1047F000164A936823F4E053E1680B4393602368FF
:1048000013F0080F07D0114A936823F4604321691D
:1048100043EAC1039360FFF71DFF0C4B9B68C3F392
:1048200003130B4AD35CD8400A4B18600A4B186834
:1048300000F0DEFD002070BD012070470120FAE786
:104840000120F8E70120F6E7003C02400038024072
:10485000A49D00085400002050000020014B18685F
:10486000704700BF5400002008B5FFF7F7FF044B66
:104870009B68C3F34233034AD35CD84008BD00BFF2
:10488000003802409C9D00080F2303600B4B9A6880
:1048900002F0030242609A6802F0F00282609A68B5
:1048A00002F4E052C2609B68DB0803F4E05303614A
:1048B000034B1B6803F007030B607047003802408E
:1048C000003C024030B4026A036A23F00103036231
:1048D0004568836923F073030C681C4322F00202CD
:1048E0008B6813430B4A904206D0456084614A6846
:1048F0004263036230BC704723F00803CA681A435E
:1049000022F0040325F440754A692A438D69154352
:10491000EBE700BF0000014030B4036A026A22F4F2
:10492000807202624468C26922F073020D68154306
:1049300023F400738A6843EA02230D4A904206D0AA
:104940004460C5614A68C263036230BC704723F4A7
:104950000063CA6843EA022323F4806324F44054CA
:104960004A6944EA02148A6944EA0214E8E700BF8B
:104970000000014030B4036A026A22F480520262ED
:104980004468C26922F4E6420D6842EA052223F433
:1049900000538D6843EA0533074DA84206D04460B2
:1049A000C2614A680264036230BC704724F48044E8
:1049B0004D6944EA8514F2E70000014010B4036A2F
:1049C000046A24F001040462846924F0F00C4CEAC7
:1049D000021223F00A030B43826103625DF8044B69
:1049E000704710B4036A046A24F0100404628469F6
:1049F00024F4704C4CEA023223F0A00343EA011382
:104A0000826103625DF8044B7047836823F0700392
:104A10000B4343F0070383607047000090F83D307C
:104A2000012B2AD1022380F83D300368154A9342B6
:104A300018D0B3F1804F15D0A2F57C42934211D02B
:104A400002F5806293420DD002F58062934209D054
:104A500002F59A32934205D01A6842F001021A60B8
:104A6000002070479A6802F00702062A07D01A68E9
:104A700042F001021A6000207047012070470020B8
:104A8000704700BF0000014090F83D30012B2FD14E
:104A9000022380F83D300268D36843F00103D360FD
:104AA0000368154A934218D0B3F1804F15D0A2F590
:104AB0007C42934211D002F5806293420DD002F500
:104AC0008062934209D002F59A32934205D01A6867
:104AD00042F001021A60002070479A6802F0070253
:104AE000062A07D01A6842F001021A6000207047B7
:104AF0000120704700207047000001407047704758
:104B000070477047704770B504460368DE681D69DA
:104B100015F0020F10D016F0020F0DD06FF0020248
:104B20001A610123037703689B6913F0030F5ED0BA
:104B3000FFF7E6FF0023237715F0040F12D016F0DD
:104B4000040F0FD023686FF004021A610223237749
:104B500023689B6913F4407F4FD02046FFF7D0FFB6
:104B60000023237715F0080F12D016F0080F0FD08E
:104B700023686FF008021A61042323772368DB6936
:104B800013F0030F40D02046FFF7BAFF002323772E
:104B900015F0100F12D016F0100F0FD023686FF021
:104BA00010021A61082323772368DB6913F4407F1E
:104BB00031D02046FFF7A4FF0023237715F0010F23
:104BC00002D016F0010F2DD115F0800F02D016F093
:104BD000800F2FD115F0400F02D016F0400F31D1C9
:104BE00015F0200F02D016F0200F33D170BDFFF763
:104BF00086FF2046FFF785FF9CE72046FFF77FFFF3
:104C00002046FFF77EFFABE72046FFF778FF204600
:104C1000FFF777FFBAE72046FFF771FF2046FFF75F
:104C200070FFC9E723686FF001021A612046FDF7A3
:104C300067F8C9E723686FF080021A61204600F028
:104C4000D5FBC7E723686FF040021A612046FFF7E3
:104C500059FFC5E723686FF020021A61204600F073
:104C6000C4FBC3E70368294A90420ED0B0F1804FDD
:104C70000BD0A2F57C42904207D002F580629042B0
:104C800003D002F58062904203D123F070034A689A
:104C900013431E4A90421AD0B0F1804F17D0A2F5AC
:104CA0007C42904213D002F5806290420FD002F510
:104CB000806290420BD002F59A32904207D002F502
:104CC0008062904203D002F58062904203D123F4C7
:104CD0004073CA68134323F080034A691343036097
:104CE0008B68C3620B688362084B98420AD0012329
:104CF0004361036913F0010F03D0036923F001033B
:104D0000036170470B690363F1E700BF00000140D6
:104D100040B310B5044690F83D30F3B1022384F857
:104D20003D30214651F8040BFFF79CFF012384F826
:104D3000463084F83E3084F83F3084F8403084F8C0
:104D4000413084F8423084F8433084F8443084F8A9
:104D5000453084F83D30002010BD80F83C3001F033
:104D60001BFFDBE70120704740B310B5044690F805
:104D70003D30F3B1022384F83D30214651F8040B55
:104D8000FFF770FF012384F8463084F83E3084F842
:104D90003F3084F8403084F8413084F8423084F861
:104DA000433084F8443084F8453084F83D300020A6
:104DB00010BD80F83C30FFF7A1FEDBE70120704713
:104DC00040B310B5044690F83D30F3B1022384F8A7
:104DD0003D30214651F8040BFFF744FF012384F8CE
:104DE000463084F83E3084F83F3084F8403084F810
:104DF000413084F8423084F8433084F8443084F8F9
:104E0000453084F83D30002010BD80F83C3001F082
:104E10008FFEDBE70120704730B4036A026A22F09C
:104E2000100202624468826922F4E6420D6842EA96
:104E3000052223F020038D6843EA05130C4DA84298
:104E400006D0446082614A688263036230BC704766
:104E500023F08003CD6843EA051323F0400324F4D4
:104E600040644D6944EA85048D6944EA8504E8E7B5
:104E70000000014090F83C30012B28D010B50446CA
:104E8000012380F83C300C2A1CD8DFE802F0071B15
:104E90001B1B0C1B1B1B111B1B1B16000068FFF7A9
:104EA00011FD00200FE00068FFF7B6FF00200AE0C8
:104EB0000068FFF731FD002005E00068FFF75AFDAC
:104EC000002000E00120002384F83C3010BD0220C7
:104ED000704738B590F83C30012B66D004460D463B
:104EE000012380F83C300C2A5AD8DFE802F0075939
:104EF00059591B5959593059595944000068FFF7FD
:104F0000E1FC2268936943F0080393612268936986
:104F100023F0040393612268936929690B43936129
:104F200000203EE00068FFF777FF2268936943F4B2
:104F3000006393612268936923F48063936122681C
:104F40009369296943EA01239361002029E00068FD
:104F5000FFF7E2FC2268D36943F00803D3612268BB
:104F6000D36923F00403D3612268D36929690B4311
:104F7000D361002015E00068FFF7FCFC2268D369CC
:104F800043F40063D3612268D36923F48063D3615F
:104F90002268D369296943EA0123D361002000E034
:104FA0000120002384F83C3038BD0220FCE710B417
:104FB000846824F47F4C42EA03220A4342EA0C024A
:104FC00082605DF8044B704790F83C30012B78D03C
:104FD00010B50446012380F83C30022380F83D30B0
:104FE0000268936823F47F4323F0770393600B6890
:104FF000602B4CD023D8402B54D011D8202B03D079
:105000000AD80BB1102B05D119462068FFF7FDFC1B
:10501000002028E0012026E0302BF5D0012022E0FE
:10502000502B0AD1CA6849680068FFF7C7FC5021B5
:105030002068FFF7EAFC002015E0012013E0B3F53B
:10504000805F3AD0B3F5005F14D0702B37D1CB68B6
:105050004A6889680068FFF7AAFF2268936843F0EE
:10506000770393600020012384F83D30002384F807
:105070003C3010BDCB684A6889680068FFF797FF2D
:105080002268936843F4804393600020EBE7CA688A
:1050900049680068FFF7A5FC60212068FFF7B5FCB0
:1050A0000020E0E7CA6849680068FFF787FC4021F4
:1050B0002068FFF7AAFC0020D5E70020D3E70120F5
:1050C000D1E70220704701F01F014FF0010C0CFAEC
:1050D00001FC036A23EA0C030362036A8A40134358
:1050E0000362704710B504460846002937D194F88A
:1050F0003E30013B18BF0123002B40F09580002873
:1051000043D1022384F83E302268D36843F002037F
:10511000D360012201462068FFF7D5FF2368454A86
:10512000934271D02368434A934272D0B3F1804FC7
:105130006FD0A2F57C4293426BD002F5806293421D
:1051400067D002F58062934263D002F59A329342AF
:105150005FD01A6842F001021A60002065E004295D
:1051600007D008290BD094F84130013B18BF012328
:10517000C2E794F83F30013B18BF0123BCE794F825
:105180004030013B18BF0123B6E7042824D008288B
:105190002BD0022384F841300C2847D801A353F8C0
:1051A00020F000BF095100082D5200082D520008C0
:1051B0002D520008DF5100082D5200082D52000822
:1051C0002D520008F15100082D5200082D52000800
:1051D0002D520008FD510008022384F83F30226858
:1051E000D36843F00403D36093E7022384F840308C
:1051F0002268D36843F00803D3608AE72268D36843
:1052000043F01003D36084E75A6C42F400425A64BE
:1052100088E79A6802F00702062A09D01A6842F065
:1052200001021A60002000E0012010BD0120FCE70F
:105230000020FAE70000014010B50446084689BB8B
:1052400094F83E30013B18BF0123002B60D10028A9
:105250003ED1022384F83E30012201462068FFF748
:1052600032FF23682C4A934242D023682A4A934251
:1052700043D0B3F1804F40D0A2F57C4293423CD062
:1052800002F58062934238D002F58062934234D0B6
:1052900002F59A32934230D01A6842F001021A6045
:1052A000002034E0042907D008290BD094F84130BD
:1052B000013B18BF0123C8E794F83F30013B18BFFA
:1052C0000123C2E794F84030013B18BF0123BCE73B
:1052D000042805D0082807D0022384F84130BBE712
:1052E000022384F83F30B7E7022384F84030B3E765
:1052F0005A6C42F400425A64B7E79A6802F0070217
:10530000062A07D01A6842F001021A60002010BD78
:105310000120FCE70020FAE70000014090F83C2063
:10532000012A35D010B40346012280F83C20022225
:1053300080F83D2002685068946820F0700C08687E
:1053400040EA0C0050601A681248824212D0B2F152
:10535000804F0FD0A0F57C4082420BD000F58060DA
:10536000824207D000F58060824203D000F59A3077
:10537000824204D124F080044968214391600122D3
:1053800083F83D20002083F83C005DF8044B704713
:105390000220704700000140024690F83C30012B8B
:1053A00021D0012380F83C30CB6823F44073886817
:1053B000034323F480634868034323F400630868CD
:1053C000034323F480530869034323F400534869DB
:1053D000034323F48043C9690B4311684B640020E5
:1053E00082F83C0070470220704770477047000009
:1053F00030B589B00546002401941D4B5A6C42F427
:1054000080225A645B6C03F480230193019B02A900
:1054100003A8FFF739FAFFF727FA164AA2FB002381
:105420009B0C013B1448154A026040F2E732C2600F
:105430004360046184608461FFF76AFC044610B134
:10544000204609B030BD0C48FFF71EFB044600287B
:10545000F6D11A20FDF7AAFD0F2D01D90124EFE79F
:10546000002229461A20FDF791FD054B1D60E7E754
:105470000038024083DE1B431847002000480140EB
:1054800050000020FEE7FEE7FEE7FEE7FEE770477C
:1054900008B50348FFF737FB0248FFF734FB08BDA8
:1054A000F44C00201847002008B501F0ABFF02487B
:1054B000FFF729FB08BD00BFAC4C002008B502482F
:1054C000FDF78EFE08BD00BFB001002008B5024800
:1054D000FEF7B9FB08BD00BF0C5D002082B00023C1
:1054E0000193019B01330193019BB3F1706F15D8B8
:1054F0000369002BF5DA00230193036943F00103EC
:105500000361019B01330193019BB3F1706F08D8D4
:10551000036913F0010FF4D1002000E0032002B072
:1055200070470320FBE784B010B5044603A880E869
:105530000E009DF81130012B21D1A36B23F4803391
:10554000A363E36823F4840323F04003E360E36888
:1055500023F44013E3609DF81830012B0AD0204655
:10556000FFF7BCFF9DF80E30012B1CD0BDE81040AA
:1055700004B07047E36843F48013E360EFE7E36847
:1055800043F04003E3602046FFF7A8FF9DF8153085
:1055900023B9A36B43F48033A363E3E7A36B23F442
:1055A0008033A363DEE7A36843F00603A360A36828
:1055B00043F02003A360D9E7022A0AD00922C36876
:1055C00023F47053C360C36843EA8223C36000209E
:1055D0007047234B0B44234A93422FD9224B0B4451
:1055E000224A93422CD9A1F57403A3F51053204A03
:1055F000934227D9A1F18373A3F5E7431D4A934250
:1056000022D31D4B0B441D4A93421FD91C4B0B4404
:105610001C4A93421CD31C4B0B441C4A934219D383
:10562000A1F1B773A3F55853194A934214D3194BF8
:105630000B44194A934211D20722C0E70F22BEE75A
:105640000E22BCE70D22BAE70C22B8E70B22B6E720
:105650000A22B4E70922B2E70822B0E70622AEE741
:10566000405327FFFF340C00401E1BFF3F420F003A
:105670007F4F120020D6130060B6E5FE5FE31600F0
:1056800000D3CEFE40771B00C05BB3FEC09121006B
:1056900020753800E05459FEE09C4100836843F0D7
:1056A0000103836000207047836823F00103836057
:1056B0000020704782B000230193019B01330193C6
:1056C000019BB3F1706F15D80369002BF5DA002345
:1056D0000193890141F020010161019B0133019394
:1056E000019BB3F1706F08D8036913F0200FF4D158
:1056F000002000E0032002B070470320FBE782B0E7
:1057000000230193019B01330193019BB3F1706F5F
:1057100013D80369002BF5DA0023019310230361EA
:10572000019B01330193019BB3F1706F08D80369AA
:1057300013F0100FF4D1002000E0032002B07047F6
:105740000320FBE7D0F800381943C0F80018002008
:105750007047000084B0F8B5044607A880E80E0042
:10576000002306E003F1400204EB820200215160B5
:1057700001330E2BF6D99DF8266006BBD4F8043809
:1057800043F00203C4F80438A36B43F40013A3638B
:10579000A36B23F40023A363A36B23F48023A363ED
:1057A0000023C4F8003E9DF82130012B15D19DF84F
:1057B0001F306BB900212046FFF7C4FF11E0A36B37
:1057C00023F40013A363A36B43F40023A363E7E76D
:1057D00001212046FFF7B6FF03E003212046FFF733
:1057E000B1FF10212046FFF765FF054600B10125F6
:1057F0002046FFF784FF00B1012504F5006C00236B
:10580000CCF81030CCF81430CCF81C300DE04FF050
:105810009040C2F8000902E00020C2F8000900220E
:105820000A614FF67F328A6001339DF81C1099425D
:105830000ED904EB431202F51061D2F800090028DA
:10584000EADA002BE3D14FF00060C2F80009E6E786
:1058500000230AE0BBB14FF09047C2F8007B002262
:1058600002614FF67F3282600133994210D904EB16
:10587000431202F53060D2F8007B002FEADB0027EC
:10588000C2F8007BEBE74FF00067C2F8007BE6E769
:10589000DCF8103023F48073CCF810300023A361BF
:1058A0006FF0804363619DF81E301BB9A36943F01C
:1058B0001003A361A2690C4B1343A3619DF822302E
:1058C0001BB1A36943F00803A361012E04D028464D
:1058D000BDE8F84004B07047A36943F0804343F04B
:1058E0000403A361F3E700BF00383C80D0F8083818
:1058F00003F00603022B04D0062B04D02BB90020A2
:10590000704702207047022070470F20704710B583
:1059100091F800C04B78012B23D000F5006ED0F831
:105920001C380CF00F040122A24043EA0243C0F8E5
:105930001C3800EB4C10D0F8003B13F4004F0ED194
:10594000D0F8003B8A68C2F30A02097942EA814230
:10595000134343F0805343F40043C0F8003B00205E
:1059600010BDD0F81C280CF00F0E03FA0EF39BB2FA
:105970001343C0F81C3800EB4C10D0F8003913F476
:10598000004FECD1D0F800398A68C2F30A020979D5
:1059900042EA814242EA8C52134343F0805343F47B
:1059A0000043C0F80039DAE730B40B784A78012AAE
:1059B00026D000EB4313D3F8002B002A52DBD0F89B
:1059C0003C480A7802F00F024FF0010C0CFA02F288
:1059D00024EA0242C0F83C28D0F81C28097801F0DB
:1059E0000F010CFA01FC22EA0C42C0F81C28D3F883
:1059F000001B234A0A40C3F8002B002030BC70472C
:105A000000EB4313D3F80029002A1EDBD0F83C58E2
:105A10000A7802F00F02012404FA02F292B225EA97
:105A20000202C0F83C28D0F81C28097801F00F01C8
:105A30008C40A4B222EA0402C0F81C28D3F8001952
:105A4000104A0A40C3F80029D7E7D3F8002942F0EA
:105A50000062C3F80029D3F8002942F08042C3F85D
:105A60000029D3E7D3F8002B42F00062C3F8002BE3
:105A7000D3F8002B42F08042C3F8002B9FE700BF11
:105A80000078F3EF007833EC10B483B002460023C3
:105A90000193487801280BD00B7802EB4313D3F81D
:105AA000000B00282DDB002003B05DF8044B70478D
:105AB0000B7802EB4313D3F80049002C01DB0020E4
:105AC000F2E7D3F8004944F00064C3F800490B78CA
:105AD00002EB4313D3F8004944F08044C3F8004973
