:020000040800F2
:100000000000012099E30008E9A00008EDA0000825
:1000100051A1000853A1000855A1000800000000EC
:10002000000000000000000000000000F15800087F
:1000300057A100080000000091590008CD0E0008EB
:10004000E9E30008E9E30008E9E30008E9E3000860
:10005000E9E30008E9E30008E9E30008E9E3000850
:10006000E9E30008E9E30008E9E30008E9E3000840
:10007000E9E30008E9E30008E9E30008E9E3000830
:10008000E9E30008E9E30008E9E3000800000000F4
:1000900000000000000000000000000059A100085E
:1000A000E9E30008E9E300086DA10008E9E30008BE
:1000B0007DA10008E9E30008E9E30008E9E300089E
:1000C000E9E30008E9E30008E9E30008E9E30008E0
:1000D000E9E30008E9E30008E9E3000800000000A4
:1000E000E9E30008E9E30008E9E300080000000094
:1000F000000000000000000000000000E9E300082C
:1001000000000000E9E30008E9E30008E9E3000873
:1001100000000000000000000000000000000000DF
:1001200091A10008E9E30008E9E30008E9E3000819
:10013000E9E30008000000000000000000000000EB
:10014000000000000000000000000000A1A1000865
:10015000E9E30008E9E30008E9E30008E9E300084F
:10016000E9E30008E9E300080000000000000000E7
:10017000000000000000000000000000000000007F
:1001800000000000E9E3000800000000000000009B
:04019000E9E3000897
:1001A000034613F8012B002AFBD1181A01387047B7
:1001B00001F0FF01102A2BDB10F0070F08D010F818
:1001C000013B013A8B422DD010F0070F42B3F6D11C
:1001D000F0B441EA012141EA014122F007047FF035
:1001E00000070023F0E80256083C85EA010586EA8C
:1001F000010685FA47F5A3FA87F586FA47F6A5FAC8
:1002000087F68EB9EED1F0BC01F0FF0102F00702D3
:1002100032B110F8013B013A83EA010313B1F8D17E
:100220000020704701387047002D06BF354603385F
:10023000073815F0010F07D1013015F4807F02BF98
:10024000013015F4C03F0130F0BC0138704700BFE9
:1002500081F0004102E000BF83F0004330B54FEA77
:1002600041044FEA430594EA050F08BF90EA020FE4
:100270001FBF54EA000C55EA020C7FEA645C7FEA77
:10028000655C00F0E2804FEA5454D4EB5555B8BF9A
:100290006D420CDD2C4480EA020281EA030382EA0B
:1002A000000083EA010180EA020281EA0303362D9D
:1002B00088BF30BD11F0004F4FEA01314FF4801C70
:1002C0004CEA113102D0404261EB410113F0004F82
:1002D0004FEA03334CEA133302D0524263EB430339
:1002E00094EA050F00F0A780A4F10104D5F1200ED7
:1002F0000DDB02FA0EFC22FA05F2801841F1000132
:1003000003FA0EF2801843FA05F359410EE0A5F105
:1003100020050EF1200E012A03FA0EFC28BF4CF036
:10032000020C43FA05F3C01851EBE37101F00045EC
:1003300007D54FF0000EDCF1000C7EEB00006EEBF9
:100340000101B1F5801F1BD3B1F5001F0CD3490883
:100350005FEA30004FEA3C0C04F101044FEA4452DA
:1003600012F5800F80F09A80BCF1004F08BF5FEA61
:10037000500C50F1000041EB045141EA050130BD41
:100380005FEA4C0C404141EB0101013C28BFB1F553
:10039000801FE9D291F0000F04BF01460020B1FA9E
:1003A00081F308BF2033A3F10B03B3F120020CDA71
:1003B0000C3208DD02F1140CC2F10C0201FA0CF04F
:1003C00021FA02F10CE002F11402D8BFC2F1200CB4
:1003D00001FA02F120FA0CFCDCBF41EA0C0190406A
:1003E000E41AA2BF01EB0451294330BD6FEA0404B3
:1003F0001F3C1CDA0C340EDC04F11404C4F120029E
:1004000020FA04F001FA02F340EA030021FA04F3AF
:1004100045EA030130BDC4F10C04C4F1200220FA06
:1004200002F001FA04F340EA0300294630BD21FA44
:1004300004F0294630BD94F0000F83F4801306BF0A
:1004400081F480110134013D4EE77FEA645C18BFFE
:100450007FEA655C29D094EA050F08BF90EA020F95
:1004600005D054EA000C04BF1946104630BD91EA8D
:10047000030F1EBF0021002030BD5FEA545C05D190
:100480004000494128BF41F0004130BD14F58004CF
:100490003CBF01F5801130BD01F0004545F0FE4143
:1004A00041F470014FF0000030BD7FEA645C1ABF78
:1004B000194610467FEA655C1CBF0B46024650EAAF
:1004C000013406BF52EA033591EA030F41F40021DB
:1004D00030BD00BF90F0000F04BF0021704730B561
:1004E0004FF4806404F132044FF000054FF0000136
:1004F00050E700BF90F0000F04BF0021704730B5F7
:100500004FF4806404F1320410F0004548BF4042CB
:100510004FF000013EE700BF42004FEAE2014FEA20
:1005200031014FEA02701FBF12F07F4393F07F4FFB
:1005300081F06051704732F07F4208BF704793F0FE
:100540007F4F04BF41F40021704730B54FF4607411
:1005500001F0004521F000411CE700BF50EA010214
:1005600008BF704730B54FF000050AE050EA0102BD
:1005700008BF704730B511F0004502D5404261EB2D
:1005800041014FF4806404F132045FEA915C3FF46E
:10059000D8AE4FF003025FEADC0C18BF03325FEA0B
:1005A000DC0C18BF033202EBDC02C2F1200300FABC
:1005B00003FC20FA02F001FA03FE40EA0E0021FAE1
:1005C00002F11444BDE600BF70B54FF0FF0C4CF4CF
:1005D000E06C1CEA11541DBF1CEA135594EA0C0F81
:1005E00095EA0C0F00F0DEF82C4481EA030621EABC
:1005F0004C5123EA4C5350EA013518BF52EA0335F7
:1006000041F4801143F4801338D0A0FB02CE4FF0A8
:100610000005E1FB02E506F00042E0FB03E54FF0D8
:100620000006E1FB03569CF0000F18BF4EF0010ED0
:10063000A4F1FF04B6F5007F64F5407404D25FEACC
:100640004E0E6D4146EB060642EAC62141EA55517F
:100650004FEAC52040EA5E504FEACE2EB4F1FD0CC1
:1006600088BFBCF5E06F1ED8BEF1004F08BF5FEA3F
:10067000500E50F1000041EB045170BD06F00046F1
:1006800046EA010140EA020081EA0301B4EB5C049E
:10069000C2BFD4EB0C0541EA045170BD41F4801196
:1006A0004FF0000E013C00F3AB8014F1360FDEBFBB
:1006B000002001F0004170BDC4F10004203C35DA97
:1006C0000C341BDC04F11404C4F1200500FA05F31A
:1006D00020FA04F001FA05F240EA020001F00042BB
:1006E00021F0004110EBD37021FA04F642EB060131
:1006F0005EEA430E08BF20EAD37070BDC4F10C045B
:10070000C4F1200500FA04F320FA05F001FA04F21E
:1007100040EA020001F0004110EBD37041F100010A
:100720005EEA430E08BF20EAD37070BDC4F1200515
:1007300000FA05F24EEA020E20FA04F301FA05F27D
:1007400043EA020321FA04F001F0004121FA04F225
:1007500020EA020000EBD3705EEA430E08BF20EAF5
:10076000D37070BD94F0000F0FD101F0004640002F
:1007700041EB010111F4801F08BF013CF7D041EAB1
:10078000060195F0000F18BF704703F000465200B5
:1007900043EB030313F4801F08BF013DF7D043EA86
:1007A0000603704794EA0C0F0CEA135518BF95EA3C
:1007B0000C0F0CD050EA410618BF52EA4306D1D1C3
:1007C00081EA030101F000414FF0000070BD50EAE2
:1007D000410606BF1046194652EA430619D094EA6C
:1007E0000C0F02D150EA013613D195EA0C0F05D156
:1007F00052EA03361CBF104619460AD181EA0301AA
:1008000001F0004141F0FE4141F470014FF0000061
:1008100070BD41F0FE4141F4780170BD70B54FF0FC
:10082000FF0C4CF4E06C1CEA11541DBF1CEA13557C
:1008300094EA0C0F95EA0C0F00F0A7F8A4EB05045E
:1008400081EA030E52EA03354FEA013100F0888055
:100850004FEA03334FF0805545EA131343EA12631E
:100860004FEA022245EA111545EA10654FEA0026D3
:100870000EF000419D4208BF964244F1FD0404F58C
:10088000407402D25B084FEA3202B61A65EB0305E8
:100890005B084FEA32024FF480104FF4002CB6EBA5
:1008A000020E75EB030E22BFB61A754640EA0C0025
:1008B0005B084FEA3202B6EB020E75EB030E22BF65
:1008C000B61A754640EA5C005B084FEA3202B6EBA6
:1008D000020E75EB030E22BFB61A754640EA9C0065
:1008E0005B084FEA3202B6EB020E75EB030E22BF35
:1008F000B61A754640EADC0055EA060E18D04FEAF3
:10090000051545EA16754FEA06164FEAC30343EA92
:1009100052734FEAC2025FEA1C1CC0D111F4801F5F
:100920000BD141EA00014FF000004FF0004CB6E758
:1009300011F4801F04BF01430020B4F1FD0C88BFF7
:10094000BCF5E06F3FF6AFAEB5EB030C04BFB6EB02
:10095000020C5FEA500C50F1000041EB045170BDF5
:100960000EF0004E4EEA113114EB5C04C2BFD4EB22
:100970000C0541EA045170BD41F480114FF0000EA6
:10098000013C90E645EA060E8DE60CEA135594EA22
:100990000C0F08BF95EA0C0F3FF43BAF94EA0C0F25
:1009A0000AD150EA01347FF434AF95EA0C0F7FF49A
:1009B00025AF104619462CE795EA0C0F06D152EAEE
:1009C00003353FF4FDAE1046194622E750EA4106D2
:1009D00018BF52EA43067FF4C5AE50EA41047FF4E3
:1009E0000DAF52EA43057FF4EBAE12E74A0011D295
:1009F00012F5001211D20DD56FF47873B3EB625279
:100A00000ED44FEAC12343F0004343EA505323FA84
:100A100002F070474FF00000704750EA013002D1F9
:100A20004FF0FF3070474FF00000704753B94AB99C
:100A3000002908BF00281CBF4FF0FF314FF0FF30E6
:100A400000F00CB8ADF1080C6DE904CE0EF0EAFB35
:100A5000DDF804E0DDE9022304B07047704700BF11
:100A600010B5054C237833B9044B13B10448AFF3E8
:100A700000800123237010BD1C0200200000000034
:100A80001CF5000808B5034B1BB103490348AFF33D
:100A9000008008BD00000000200200201CF50008B6
:100AA00010B58CB00024089409940A940B94202269
:100AB000214668460DF0D0FC8848894B03604460AD
:100AC000846001230361047680F820404FF0805257
:100AD000C2624FF020628262C4600D22C26180F85F
:100AE0003030446106F0FCF9002840F0C1800A2350
:100AF00008930123099304230A9308A9774806F071
:100B000019FB002840F0B7800B23089302230993B8
:100B100000230A9308A9714806F00CFB002840F056
:100B2000AD800C2308930323099308A96B4806F0B2
:100B300001FB002840F0A5800D23089304230993AE
:100B400008A9664806F0F6FA002840F09D800023C8
:100B500008930523099308A9604806F0EBFA0028DA
:100B600040F09580012308930623099308A95B4868
:100B700006F0E0FA002840F08D8002230893072356
:100B8000099308A9554806F0D5FA002840F0858059
:100B9000032308930823099308A9504806F0CAFACA
:100BA00000287DD1042308930923099308A94B4801
:100BB00006F0C0FA002876D1052308930A2309938A
:100BC00008A9464806F0B6FA00286FD10623089314
:100BD0000B23099308A9414806F0ACFA002868D114
:100BE000072308930C23099308A93C4806F0A2FAAE
:100BF000002861D10E2308930D23099308A93748D3
:100C000006F098FA00285AD10B2300930122019292
:100C100004230493002302930793324906918DF82D
:100C200015208DF81430039369462C4806F04CFBD0
:100C3000002847D10C2300930223019369462748DB
:100C400006F042FB002840D10D23009303230193BB
:100C50006946224806F038FBD0BB002300930423EA
:100C6000019369461D4806F02FFBA0BB0CB010BDD8
:100C700004F07AFC3BE704F077FC45E704F074FCF1
:100C80004FE704F071FC57E704F06EFC5FE704F0F7
:100C90006BFC67E704F068FC6FE704F065FC77E73E
:100CA00004F062FC7EE704F05FFC85E704F05CFC86
:100CB0008CE704F059FC93E704F056FC9AE704F043
:100CC00053FCA1E704F050FCB4E704F04DFCBBE793
:100CD00004F04AFCC1E704F047FCC7E79802002093
:100CE0000020014001000F00F0B589B000230393FC
:100CF0000493059306930793026803F1804303F579
:100D000090339A4201D009B0F0BD04460025009509
:100D100003F58C335A6C42F480725A645A6C02F4B4
:100D200080720092009A01951A6B42F004021A63D5
:100D30001A6B02F004020192019A02951A6B42F0BA
:100D400001021A631B6B03F001030293029B1F2332
:100D500003930327049703AE3146154807F012F8B2
:100D6000FF230393049705953146124807F00AF8CC
:100D70001148124B036045608560C5604FF4806385
:100D800003614FF4006343614FF4005383614FF4F8
:100D90008073C3614FF400330362456206F088FC40
:100DA00018B9054BA3639C63ADE704F0DDFBF8E7DE
:100DB0000008024000000240380200201064024097
:100DC00008B501F01DFA08BD38B598B10C4689B1D7
:100DD000154A106008F020FB00224FF47A7302FBE2
:100DE0000333B0FBF3F3013BB3F5803F06D301328D
:100DF00092B2F2E70D4802F0EDFB14E021688A623E
:100E00002268D362E360236800255D636822084995
:100E1000054B186806F090F8204608F0E7FB2946D5
:100E2000204608F049FF38BDB003002094F50008C3
:100E3000E002002038B50C2805D80546092807D15E
:100E40000023194618E00F4802F0C4FB002017E009
:100E50000920FFF7EFFF40F206339842F0D8002058
:100E60000EE003EB430203EB82022A44064C34F803
:100E7000122011FA82F10133072BF2D9C1F3CF000E
:100E800038BD00BFCCF50008E002002008B5FFF730
:100E9000D1FF07EE900AF8EE677AB1EE047A67EEBA
:100EA000877A9FED047A87EE870ADFED037A30EECA
:100EB000270A08BD00F07F450000000008B50BF0D0
:100EC00066FA10B102684068904708BD08B54FF057
:100ED000E0231B690AF03AFD012800D108BD04F0A7
:100EE00089FDFBE7EFF305832BB9064B186828B99A
:100EF00001221A6070476FF0050070474FF0FF3015
:100F0000704700BF6C0A0020EFF3058373B90A4BEA
:100F10001B68012B0DD110B50024084BDC77064B64
:100F200002221A600AF0FEF9204610BD6FF005009B
:100F300070474FF0FF3070476C0A002000ED00E072
:100F4000F0B587B000240594EFF3058404BBF8B135
:100F5000002A34D0156893692BB11E46013B372B0C
:100F600002D9002015E01826536813F0010F3FD175
:100F7000546984B14FEA940C93682BB1D7685B2F06
:100F800002D9176907B184B943B14FF0FF330BB3EE
:100F9000059807B0F0BD4FF0800CEDE7D368A3B91A
:100FA0001369ABB14FF0FF33F1E70293019700965D
:100FB0000B46624629460AF047F90590E8E71546D0
:100FC000002318264FF0800CE1E74FF0FF33DEE7F7
:100FD0000023DCE705AB019300960B461FFA8CF269
:100FE00029460AF06CF90128D2D000230593CFE7F7
:100FF0000020CEE708B5EFF3058333B908B9002028
:1010000008BD0AF0F1FA0020FAE76FF00500F7E7F3
:101010002DE9F04383B0EFF30587002F43D1064657
:10102000894615461C4600283FD0082003F060F989
:10103000804600283BD006604560B9F1000F00D023
:10104000012704B32068A36813B1E2682B2A10D8E3
:1010500053B14FF0FF33DBB10024404603F0CAF92F
:10106000204603B0BDE8F083E3687BB14FF0FF3367
:10107000F1E701930F4B009343463A4601210AF0F2
:10108000D1FF04460CE020460023E4E70023E2E71A
:10109000084B009343463A4601210AF0A7FF044655
:1010A000002CDDD1D9E70024DAE70024D8E7044694
:1010B000D6E700BFBD0E0008EFF305836BB90A4603
:1010C00070B100B583B0009304210AF0D5FF012868
:1010D00009D1002003B05DF804FB6FF005007047F4
:1010E0006FF0030070476FF00200F3E708B5EFF30D
:1010F0000583CBB9A0B1836813B1C2681F2A0BD88E
:101100002BB14FF0FF338BB902F0D2FA08BDC368A0
:1011100043B14FF0FF33F6E7184602F0A4FAF5E7C3
:101120000023F0E70023EEE70020EFE70020EDE7E3
:10113000F8B110B582B00C46B1F1807F1CD2EFF34C
:1011400005829AB10022019201AA02F0CFFBB8B148
:10115000019BC3B14FF0E0234FF08052C3F8042D40
:10116000BFF34F8FBFF36F8F204607E002F072FB93
:1011700004E06FF0030070476FF0030002B010BD91
:101180006FF00200FAE72046F8E770B5B0B10C4600
:101190000646B1F1807F14D2EFF3058353B102F01C
:1011A0004BFB05462146304602F03CFB58B96FF038
:1011B000020508E002F00FFB054604E06FF00305AE
:1011C00001E06FF00305284670BD40B370B582B0F2
:1011D0000C461D468446B1F1807F23D2EFF3058390
:1011E00023BB12F0010610D0012312F0020F0ED023
:1011F000002200952146604602F068FA4EB1844311
:1012000012D0B5B16FF001000EE00023EDE701222E
:10121000EFE7044208D17DB16FF0010004E06FF008
:10122000030070476FF0030002B070BD6FF005005F
:10123000FAE76FF00200F7E76FF00200F4E770B52D
:1012400082B0EFF30583002B3AD1144600283BD03F
:1012500000293BD06AB393684BB1D2684F2A06D9B4
:10126000226922B101FB00F56669AE421BD273B15F
:101270004FF0FF3363BB002204F05BFE054605B36D
:1012800004B124682146284605F0A8F819E0E3686F
:101290008BB9236913B14FF0FF33EBE763696BB18F
:1012A0004FF0FF33E6E70025009504F0F8FD054612
:1012B000E5E70023DEE74FF0FF33DBE70023D9E764
:1012C0000025284602B070BD0025FAE70025F8E7A2
:1012D0000025F6E710B582B01C46EFF30583C3B1D5
:1012E00018B329B33CBB0023019301AA04F009FF02
:1012F000012823D1019850B14FF0E0234FF08052E4
:10130000C3F8042DBFF34F8FBFF36F8F002002B0DF
:1013100010BDB0B1C1B10023224604F02EFE012859
:1013200015D0B4B16FF00100F1E76FF00300EEE704
:101330006FF00300EBE76FF00300E8E76FF00200E7
:10134000E5E76FF00300E2E76FF00300DFE700205E
:10135000DDE76FF00200DAE710B582B01C46EFF36C
:101360000583C3B110B321B334BB0023019301AA99
:1013700004F0DDFF012822D1019850B14FF0E023A5
:101380004FF08052C3F8042DBFF34F8FBFF36F8F20
:10139000002002B010BDA8B1B9B1224604F018FF78
:1013A000012815D0B4B16FF00100F2E76FF003002F
:1013B000EFE76FF00300ECE76FF00300E9E76FF091
:1013C0000200E6E76FF00300E3E76FF00300E0E7F9
:1013D0000020DEE76FF00200DBE70000034B036054
:1013E000034B0B6080231360704700BF100A00207E
:1013F00010080020034B0360034B0B604FF4807315
:1014000013607047B4070020B40300202DE9F043B7
:1014100083B00F4615468DF8070096B206F107080F
:101420001FFA88F8013676BA01220DF10701002073
:101430000CF04AFF2A4639460CF046FF040204F439
:101440007F0444EA1064030A03F47F431C4344EA24
:101450000064DFF83090A9F800609DF8073089F843
:1014600002302A46394609F103000DF029F8033508
:1014700049F80540414648460BF016FF03B0BDE869
:10148000F08300BF4C19002038B51446012B07D05B
:101490004AB901224FF40051074806F05EFD38BDFD
:1014A000FFF7B4FFF5E7054D28460DF009F8A1B2A6
:1014B00028460BF0F9FEECE7000802404C1900202A
:1014C00008B5002208210A20FFF7B9FE084B186072
:1014D000084A00210848FFF733FD0020FFF706FE09
:1014E000064B1860064A00210648FFF729FD08BD93
:1014F0006C1D0020B8FA0008851700082815002088
:1015000094FA00088D22000808B50378433B102B9D
:1015100032D8DFE803F0213131093131293131315D
:10152000313131311931110000230322134918469A
:10153000FFF7AAFF012020E000230F2210491846E0
:10154000FFF7A2FF012018E000230F220C491846E4
:10155000FFF79AFF012010E000230122FF21184627
:10156000FFF792FF012008E000231A4619461846AB
:10157000FFF78AFF012000E0002008BDECF500081D
:10158000F0F5000801280DD808B5881841F6ED23BC
:10159000984200D908BD0123034801440020FFF709
:1015A00073FFF7E7704700BF303E002030B583B0CF
:1015B00004460D46FFF7A8FF002840F0C380052D24
:1015C00021D8A378423B352B00F2B780DFE803F047
:1015D0009B20B5AD27B5B52EB5B5B5B5B552B5356A
:1015E000B53CB5B5B57BB5B5B5B5B5B5B5B5B5B55E
:1015F000B5B5B5B543B5B5B5B561A4B5B5B5B5B572
:1016000059B5B5B5B58BAA1FA11C0CF05DFED8E786
:1016100001231A46FF210020FFF736FF92E0012345
:10162000032252490020FFF72FFF8BE001231A46C7
:1016300000210846FFF728FF84E001230F224C49D0
:101640000020FFF721FF7DE0012310224849002000
:10165000FFF71AFF76E002238DF800300423ADF87F
:101660000130ADF803300123052269460020FFF761
:101670000BFF67E001237C223E490020FFF704FFB7
:1016800060E0B4F80520B4F803100020FFF77AFFFB
:1016900058E041F6ED22384900200CF015FE00908C
:1016A000030203F47F0343EA1063020A02F47F4259
:1016B000134343EA00630093012304226946002098
:1016C000FFF7E2FE3EE0B4F80330B4F80520E11D78
:1016D000294818440CF0F4FE01230022114610465C
:1016E000FFF7D2FE2EE0B4F80330B4F80520E11D78
:1016F000214818440CF0E4FE012300221146104654
:10170000FFF7C2FE1EE000F077FD01230022114624
:101710000420FFF7B9FE15E0E378022B14D0032B69
:1017200015D0012B01D10BF031FAB4F8031049BAEE
:1017300089B2124B1868FFF7FBFC4FF400511048B8
:1017400006F011FC03B030BD0BF030FAEDE70BF002
:1017500013FA0BF009FA05460BF00AFA02460123C8
:1017600029460020FFF790FEDFE700BFECF50008F8
:10177000F0F50008B43D0020303E00202815002080
:101780000008024000B583B04FF0FF3300226946E5
:1017900005480068FFF7E0FD0028F5D1BDF804100A
:1017A0000098FFF703FFEFE76C1D0020BFF34F8F9A
:1017B0000549CA6802F4E062044B1343CB60BFF3EF
:1017C0004F8F00BFFDE700BF00ED00E00400FA0509
:1017D00008B50AF0BDFE094BA3FB00308009084B99
:1017E000D86002F08DF84FF40051064806F0BBFBBC
:1017F0004FF47A70FFF7FEFBEBE700BFD34D6210AA
:10180000B43D00200008024070B518E05B7D07EE93
:10181000903AF8EE677A79E05B7D07EE903AF8EE61
:10182000677A85E04A4A136823F4806313600BF0FB
:1018300063F9484B187002F043FC474B1870474C53
:101840004FF0FF33002203212068FFF7BEFC022186
:101850002068FFF79AFC0AF071FE0446404D0146ED
:10186000284604F0FBFE3F4E2146304604F0F6FECB
:10187000204604F0D5FF05F0DDF805F099F9204683
:1018800005F0EEF905F02CFA284604F0D3FE304CB2
:1018900084ED0A0A304604F0CDFE84ED0B0A28469A
:1018A00004F0D2FE84ED0C0A2F4805F04DF884EDCB
:1018B0000E0A4FF07E53E36403F018F884ED1C0A1F
:1018C00005F0B2F984ED100A05F0F0F884ED110A84
:1018D00005F020F884ED0D0A05F0FCF984ED120AFC
:1018E00005F01EFA84ED150A03F04AF884ED090AA2
:1018F0001E4B5A69A2655B681A7D002A86D05B7D03
:1019000007EE903AF8EE677AF1EE677A104AC2ED88
:10191000187A174B5969D1655B681A7D002A3FF424
:101920007BAF5B7D07EE903AF8EE677AF1EE677A6F
:10193000074BC3ED197A0F4803F086FE00283FF4E9
:1019400071AF034A136843F4806313606FE700BF0D
:10195000B43D0020AD3D0020AC3D0020D43C002033
:101960001C00002000000020701D0020901E0020A0
:10197000F81D0020B400002008B56420FFF73AFBF2
:10198000034B196800200BF017F90BF029F9FCE75D
:10199000A83D002010B50AF0D1FD044602F056FB28
:1019A000204602F0A3FA2146064801F01FF921461D
:1019B000054801F01BF9204604F022F90120FFF749
:1019C00019FBE8E7901E0020F81D002010B52DED52
:1019D000028B82B011E003238DF8053000238DF8CF
:1019E00004300AF0ABFD009011E000980BF08AF88B
:1019F0001A4B1B6813F0080F1AD1322300226946D4
:101A000017480068FFF7A8FC10F1020FE3D09DF81B
:101A100004304BB1012BEBD19DF80530002BE4D104
:101A200068460AF0A7FEE0E768460AF0A3FEDFE793
:101A30000BF050F8B0EE408A0BF052F8F0EE408A0E
:101A4000009C2046F0EE480A03F016F82046F0EE1F
:101A5000480AB0EE680A03F0DDFBCEE7B43D002093
:101A6000A83D002010B5002228E041F2707302FB6F
:101A700003F31B0907EE903AF8EE677A554B02F52F
:101A8000807103EB8101C1ED007A02F5087103EB6F
:101A90008101C1ED007A02F5507103EB8101C1EDC6
:101AA000007A02F58C6103EB8101C1ED007A02F549
:101AB000B06103EB8103C3ED007A01320F2AD4D960
:101AC00000232BE007EE903AF8EE677A9FED427A1A
:101AD00067EE877A9FED417A67EE877A3D4A03F594
:101AE000887102EB8101C1ED007A03F50C7102EB04
:101AF0008101C1ED007A03F5547102EB8101C1ED62
:101B0000007A03F58E6102EB8101C1ED007A03F5E5
:101B1000B26102EB8102C2ED007A01330F2BD1D901
:101B20004FF0000E27E02B4B01EB0E1203EB82006F
:101B3000DFF8B4C0C0F800C002F5907003EB80007D
:101B4000C0F800C002F5107003EB8000DFF894C00D
:101B5000C0F800C002F5587003EB8000C0F800C068
:101B600002F5906203EB82031D4A1A6001310F29CE
:101B7000D9D90EF1010EBEF10F0F01D80021F6E701
:101B8000002223E0134902F5C26301EB8303002026
:101B90001860A2F10803DB084FF4FA6C0CFB03F3A6
:101BA00007EE903AF8EE677A02F5C46301EB83031F
:101BB000C3ED007A02F5C66301EB8303186002F5FA
:101BC000C86301EB8301C1ED007A01320F2AD9D934
:101BD00000233FE0303E00200000F0420000803D46
:101BE0000000C8420000C8410000A042AA4A03F514
:101BF000CA6102EB81010020086003F5CE6102EBAF
:101C00008101086003F5D26102EB8101086007EEF3
:101C1000903AB8EE677ADFEDA17A27EE277AF2EEF6
:101C20000E6AC7EE267A9FED9E7A77EEC77A03F5A5
:101C3000CC6102EB8101C1ED007A03F5D06102EBCA
:101C40008101C1ED007A03F5D46102EB8102C2ED9E
:101C5000007A01330F2BC9D98F4A02F5805302F560
:101C6000B4519048086003F284618F48086003F51E
:101C7000D1608E49016003F28C608D4C046003F5E5
:101C8000D2604FF08144046003F29460894C046098
:101C900003F5D360884C046003F29C60874C0460B9
:101CA00002F5B550016003F2A4618548086003F5B0
:101CB000D5618448086003F2AC618348086003F58D
:101CC000D6604FF08041016003F2B460016003F51B
:101CD000D7617E48086003F2BC61F1EE047AC1ED81
:101CE000007A02F5B6517A48086003F2C461794877
:101CF000086003F5D9617848086003F2CC61774841
:101D0000086003F5DA607649016003F2D460754C2F
:101D1000046003F5DB60744C046002F5B750DFF833
:101D2000E4C1C0F800C003F2DC60DFF8DCE1C0F819
:101D300000E003F2E460016003F5ED60B1EE0E7ABD
:101D400080ED007A03F26C70C0ED007A03F5EE606E
:101D5000016003F27470C0F800E003F5EF60C0F8B2
:101D600000C003F27C70016002F5BC545F48206043
:101D700003F28474206003F6080484ED007A03F60D
:101D80000C04C4ED007A03F50164216003F6140429
:101D9000C4F800E003F6180ECEF800C003F61C0CE1
:101DA000CCF8001002F5C152106003F62402106056
:101DB00003F628024E491160692283F8E42A03F5EC
:101DC00003614C4A0A6003F634014B48086003F68D
:101DD00038014A48086003F63C010A6040F6C41224
:101DE000A3F8C02A4FF4FA72A3F8C22A4FF416627D
:101DF000A3F8C42A40F6E961A3F8C61A40F2A1127A
:101E0000A3F8C82AA3F8CA1AA3F8CC2A002283F898
:101E1000CE2A83F8CF2A83F8D02A83F8D12A83F8F0
:101E2000D22A83F8D32A83F8D42A83F8D52A022128
:101E300083F8D61A83F8D72A83F8D82A032083F8A0
:101E4000D90A83F8DA2A83F8DB2A012183F8DC1A1D
:101E500083F8DD1A83F8DE1A83F8DF1A83F8E01AB4
:101E600083F8E10A83F8E22A83F8E32A83F8E42A74
:101E700083F8E51A83F8E61A83F8E72A83F8E82A54
:101E800083F8E92A83F8EA2A83F8EB1A83F8EC1A34
:101E90001B4B1A705A7010BD303E002000004843A2
:101EA000000048420000C84300002041000070418B
:101EB0000000E4420000C8410000FA44CDCC4C3E92
:101EC00000004041000060419A9909410000A04192
:101ED0000000344300007A430080BB440080544437
:101EE0000AD7233C0AD7A33B6F12833A00008C42E7
:101EF0000000DC420000A8420000A0420000B04206
:101F0000B03D00200000C8420000C8C208B500F083
:101F100083FD08BD70B582B07C22002191480CF091
:101F20009BFA914C41F6ED252A46002120460CF003
:101F300093FA2946204600F02BFD002800F0D280BD
:101F4000FFF7E4FF89480AF0B7FA8948FFF7CEF8AF
:101F5000884B1860002800F0CB8087498748FEF73F
:101F600033FF874B93F8D43A002B40F0C380844C66
:101F700094F8D00A0AF0AEFB824A08211020FFF73D
:101F80005EF9814B1860814A00218148FEF7D8FF35
:101F9000804D0D21284604F0BDFA0E217E4804F044
:101FA000B9FA94F8DE1A7D4804F09CFD94F8DF1A23
:101FB0007B4804F0E3FC7B4E94F8E01A304604F0D2
:101FC000FBFB3146284601F02DFD02F013FB03F028
:101FD0001FF84FF4FA70FFF70DF894F8E53A002B6C
:101FE0002FD094F8E73A002B00F08C8044F6206361
:101FF000009308230C226C496C4800F023FC6C4CC5
:102000006C4D2146284603F089FB16230193803C42
:102010000094664B5F4A2946674800F057FDA4F5D7
:10202000DD6393F8E93A002B76D1554C04F5D16382
:1020300093ED000A604800F0A1FD94F8E53A002B0A
:1020400075D14F4B93F8E63A63B34D4B93F8E83AAA
:10205000002B72D044F620630093002304225249DF
:10206000564800F0EFFB564C564D2146284603F0EB
:1020700055FB17230193803C0094504B464A294658
:10208000514800F023FDA4F5F16393F8EA3A002BE0
:102090005DD14D4C9FED4D0A204600F06FFD20466E
:1020A00001F016FF444803F089FDFFF709FA484A9A
:1020B00000214848FEF744FF474A00214748FEF701
:1020C0003FFF474A00214748FEF73AFF464A0021B2
:1020D0004648FEF735FF0121264B1868FFF728F820
:1020E00002B070BDFFF7BEFC414801F073FA27E76C
:1020F00000BF32E73F49A1F6D32393F8D20A0AF092
:102100001FFB34E744F6206300930C230822264982
:10211000264800F097FB72E7134B03F5BC52D2ED53
:10212000000A92ED010A244801F032FA7DE704F535
:10213000DA61214801F070FF83E744F620630093E1
:102140000423002218491D4800F07CFB8BE7064B56
:1021500003F5C152D2ED000A92ED010A1A4801F0CE
:1021600017FA96E7B43D0020303E0020089E00207C
:1021700090FB0008D43C0020789D002098020020AD
:10218000304E0020A0FB0008A83D00206CFB00089A
:10219000CD1900081C00002000000020A01D002018
:1021A000881D0020701D0020C09D0020781E00208A
:1021B00098550020501E0020901E0020E01D002099
:1021C00038560020B81D0020F81D00200000000037
:1021D000DCFA00089519000848FB00087919000886
:1021E00024FB00080918000800FB0008D1170008AC
:1021F0001CF600080359002008B500F021FC08BDBA
:1022000008B50221024B1868FEF792FF08BD00BF17
:10221000D43C0020F0B583B0044600230093019322
:102220000AF08CF90090174E4FF48071304605F09B
:102230008DFE0546071E18BF01274FF4007130467A
:1022400005F084FE003818BF0120B4F5807F0BD064
:10225000B4F5007F10D000231A4669460A4800688A
:10226000FFF738F803B0F0BD002DF1D101238DF850
:1022700004308DF80570EEE702238DF804308DF8F8
:102280000500E8E700040240A83D002008B522E070
:10229000FFF78CFA714B93F8E53AB3B1704800F050
:1022A00015FF12E06D4B93F8E63A73B16D4800F0FC
:1022B0000DFF0AE06C4A518A684BA3F8C81A118ACC
:1022C000A3F8C61A127E83F8DA2A4FF6FF71674B1D
:1022D0001868FEF75AFF4FF0FF3300224FF6FF71E8
:1022E00062480068FEF771FF01381D28EDD801A390
:1022F00053F820F091220008552400089522000888
:10230000A5220008B52200086D23000885230008D7
:102310008B230008952300089F230008A9230008A9
:10232000B1230008B9230008C1230008C92300080D
:10233000D1230008D9230008E1230008E92300087D
:10234000F3230008FB230008052400080D240008DF
:10235000172400081F24000829240008312400083D
:102360003D240008452400084D240008404A518AB5
:102370003A4BA3F8CC1A118AA3F8CA1A127E83F832
:10238000DB2AA2E70AF08EFC9FE79FED3A0A0AF0EB
:1023900083FC9AE79FED380A0AF07EFC95E79FEDF3
:1023A000370A0AF079FC90E7354803F093F98CE797
:1023B000344803F08FF988E7334803F08BF984E75A
:1023C000324803F087F980E7314803F095F97CE75C
:1023D000304803F091F978E72F4803F08DF974E75E
:1023E0002E4803F089F970E701212D4803F046F9E2
:1023F0006BE72B4803F059F967E70121294803F0FF
:102400003DF962E7274803F050F95EE701212648CD
:1024100003F034F959E7244803F047F955E701215F
:10242000224803F02BF950E7204803F03EF94CE72F
:102430001F4B01221A700AF0A9FB46E71C4B002231
:102440001A7042E71A4B01225A703EE7184B0022DD
:102450005A703AE7FFF706FB37E700BF304E00201F
:10246000901E0020F81D00201C00002028150020D0
:10247000000000200000C84200007A430000FA4338
:102480003C00002048000020540000206000002094
:102490006C000020780000208400002090000020C4
:1024A000A80000209C000020C0000020B4000020F4
:1024B000B03D002008B50548054B036005F06CF8F9
:1024C00000B908BD03F050F8FBE700BF2059002019
:1024D000003002400268094B9A4200D0704782B037
:1024E00000230193064B1A6B42F480521A631B6B54
:1024F00003F480530193019B02B070470030024007
:102500000038024000000000002800F038812DE96A
:10251000F8430D46164604460768002F52D0104671
:10252000FDF7E8FF96A3D3E90023FEF777F980468D
:1025300089463F68F86AFDF7CDFF42464B46FEF7F5
:1025400043F8FEF753FAFDB1012D79D06368002BF3
:1025500040F0CF807B63A368002B40F0D7802368D6
:102560001B6800225A63E368002B40F0E280236876
:102570001B6800225A632369002B40F0ED8023681A
:102580001B6800225A631BE0E3686BB122695AB1F1
:10259000042B19D0082B1AD000233B642369CBB934
:1025A00023681B68DA6A5A63A36833BB23681B6815
:1025B00000225A636368002B32D123681B6858637A
:1025C00066752575BDE8F8830023BB63E6E7002345
:1025D000FB63E3E7042B06D0082B09D023681B68B4
:1025E000DA6A1A64E0E723681B68DA6A9A63DBE751
:1025F00023681B68DA6ADA63D6E7042B06D0082B57
:1026000009D023681B6800221A64D3E723681B687B
:1026100000229A63CEE723681B680022DA63C9E7C9
:10262000042B05D0082B07D023681B681864C7E764
:1026300023681B689863C3E723681B68D863BFE7F8
:10264000E3686BB123695BB1042B16D0082B17D05C
:1026500000233B64E368B3B923681B68DA6A5A63F2
:1026600063681BBB23681B6800225A63A368002BA6
:102670002FD123681B685863A2E70023BB63E9E7F7
:102680000023FB63E6E7042B06D0082B09D0236860
:102690001B68DA6A1A64E3E723681B68DA6A9A63DC
:1026A000DEE723681B68DA6ADA63D9E7042B06D011
:1026B000082B09D023681B6800221A64D6E7236818
:1026C0001B6800229A63D1E723681B680022DA6343
:1026D000CCE7042B05D0082B07D023681B681864AF
:1026E0006EE723681B6898636AE723681B68D863F2
:1026F00066E7042B04D0082B05D000233B642AE7AF
:102700000023BB6327E70023FB6324E7042B06D0E9
:10271000082B09D023681B6800221A6423E723686A
:102720001B6800229A631EE723681B680022DA6395
:1027300019E7042B06D0082B09D023681B68002258
:102740001A6418E723681B6800229A6313E723685A
:102750001B680022DA630EE7042B06D0082B09D091
:1027600023681B6800221A642AE723681B6800227A
:102770009A6325E723681B680022DA6320E7704725
:102780000000000000E06F40034678B102686AB1C3
:10279000416861B9126851639A68C2B91A681268CF
:1027A0000021516300225A7502229A75704704294C
:1027B00005D0082907D0126800211164ECE71268DF
:1027C00000219163E8E712680021D163E4E7042A5D
:1027D00006D0082A09D01A68126800211164E1E7BE
:1027E0001A68126800219163DCE71A6812680021F8
:1027F000D163D7E738B5054699B10C4644F6206356
:10280000994200D91C4606F0FDFC002202FB04435D
:10281000B0FBF3F3013BB3F5803F05D3013292B235
:10282000F4E7FFF7B1FF0CE0296809688A622A68BB
:102830001268D3622A68D3606A7D297D2846FFF733
:1028400063FE38BD00284FD010B5044629B301609F
:10285000426083600023C36003610375837508468B
:1028600006F0C4FEBDF808102046FFF7C3FF6368FA
:10287000A3B923681B6800225A63A3680BBB2368B3
:102880001B6800225A636168206807F031FBA16869
:10289000206807F02DFB0023637510BD042B06D0C4
:1028A000082B09D023681B6800221A64E5E7236817
:1028B0001B6800229A63E0E723681B680022DA6342
:1028C000DBE7042B06D0082B09D023681B68002205
:1028D0001A64D8E723681B6800229A63D3E7236849
:1028E0001B680022DA63CEE77047034688B10268AE
:1028F0007AB1817D01290CD9416859B912685163B7
:102900009A68BAB91A6812680021516300225A7590
:102910009A757047042905D0082907D0126800214C
:102920001164EDE7126800219163E9E71268002164
:10293000D163E5E7042A06D0082A09D01A6812688C
:1029400000211164E2E71A68126800219163DDE753
:102950001A6812680021D163D8E7000000B583B07F
:1029600000220192094B196B41F4800119631B6B22
:1029700003F480030193019B0721382004F0F8FD44
:10298000382004F005FE03B05DF804FB0038024077
:102990000246B8B1C1B10D4B01205874052018741E
:1029A0004FF40030986000F10060D860B1F5003F4E
:1029B00003D90020586018607047044B59601A60B2
:1029C00001207047002070470020704728590020E0
:1029D00010B586B005F094F8002300930D4B1A7CD7
:1029E0000292012203925B7C01930223049305A9C6
:1029F000684605F07DF928B9059BB3F1FF3F07D084
:102A0000002400E0002405F093F8204606B010BD35
:102A10000124F8E728590020084B1A680AB100235E
:102A200006E070470549C968C95C02F8011B01331B
:102A3000024949689942F5D8704700BF28590020DB
:102A400070B5194B1C683CB3FFF7C2FF064620B3B4
:102A500005F056F80025144B5B68AB420CD9124BBD
:102A6000D968228800232944012005F09BF810B979
:102A700002340235EFE700260B4B1A6800230A499F
:102A80004968994209D911780748C068C05C8842F2
:102A900007D101320133F2E7002605F049F830464C
:102AA00070BD0026F9E700BF2859002050B1037817
:102AB0001F2B07D804480268012101FA03F322EA18
:102AC00003020260704700BFB43D002070B584B0BF
:102AD000089E9DF8245000283CD00446002A39D096
:102AE000002B37D0002E35D08160C26043600023B8
:102AF000436106611A4B8B6083681A4A5A60836887
:102B00001B68194A1A6183681B68184ADA606B46A9
:102B10000021009101910291039100F1280202929B
:102B20002C22039202461248FEF772FA60624FF4BA
:102B3000FA61FEF7C1FA25701F2D05D80D490B6803
:102B40000122AA4013430B60002384F8553084F817
:102B5000563002E0084800F03DFD04B070BD00BFF3
:102B600000007F4300007FC300007A4300007AC367
:102B7000AD2A0008B43D00209CF6000890F85630BD
:102B800093B9B5EEC00AF1EE10FA09D4DFED077A79
:102B9000B4EEE70AF1EE10FA04DDB0EE670A01E0E8
:102BA0009FED030A80ED050A704700BF0000C84290
:102BB00000000000012380F85630B5EEC00AF1EEA7
:102BC00010FA09D4DFED077AB4EEE70AF1EE10FA55
:102BD00004DDB0EE670A01E09FED030A80ED050A0F
:102BE000704700BF0000C84200000000002800F04D
:102BF000F88170B52DED028B84B00D4604468368D4
:102C000033B1C06820B1636813B194F855601EB148
:102C100004B0BDEC028B70BD03F00CFDF0EE408AF9
:102C2000B4EE400AF1EE10FA1ED684ED060A94EDD9
:102C3000050AA06802F07FFD94ED050A206908F0FE
:102C400065F9B0EE408ADFEDC17AB4EEE70AF1EE45
:102C500010FA19DBDFEDBE7AB4EEE70AF1EE10FAF6
:102C600049D99FEDBC8A11E021781F2906D8BA48BE
:102C7000036801228A4023EA02030360002211460E
:102C80006068FFF741FCC3E79FEDB28AB0EE680AC7
:102C90002946A06802F052FD70EE087A9FEDAB7AEB
:102CA000F4EEC77AF1EE10FA27D59FEDA88AB5EEBB
:102CB000C08AF1EE10FAD4BF01250025A368D3ED38
:102CC000057AF5EEC07AF1EE10FA31D4B1EE047A5D
:102CD000F4EEC77AF1EE10FA3CDCB5EEC08AF1EE04
:102CE00010FA2ED4DFED9D7AB4EEE78AF1EE10FAF9
:102CF0006BDC00232FE00126C8E7B0EE680A294606
:102D0000A06802F01BFD30EE080ADFED917AB4EE08
:102D1000E70AF1EE10FA02DD9FED8D8AC7E7B0EE0B
:102D2000680A2946A06802F009FD30EE088ABEE76D
:102D3000B9EE047AF4EEC77AF1EE10FACDD501239C
:102D400009E0DFED877AB4EEE78AF1EE10FA3AD4C3
:102D5000002300E001238DF80F309DF80F30B3B34E
:102D600094F85430002B38D0002E4FD0DFED7D7A10
:102D700078EEE77AF5EEC07AF1EE10FA00F1C18054
:102D80009FED797AF4EEC77AF1EE10FA4CBF012389
:102D90000023002B00F0EE80DFED6C7AB4EEE78AC2
:102DA000F1EE10FA40F1B7806068B0EE678AB1EEDC
:102DB000488AFCEEC87ACDED017A9DF804202946B8
:102DC000FFF7A2FB24E70123C5E70123C3E74FF484
:102DD000FA61606AFEF770F9C2E76068B5EEC08A12
:102DE000F1EE10FA09D4FCEEC87ACDED017A9DF827
:102DF00004202946FFF788FB0AE7B1EE488AFCEE7B
:102E0000C87ACDED017A9DF80420F2E7DFED557A1E
:102E100078EEE77AF5EEC07AF1EE10FA1FD49FED66
:102E2000527AF4EEC77AF1EE10FA4CBF0123002378
:102E30009BB3DFED467AB4EEE78AF1EE10FA18D5CF
:102E40006068B0EE678AB1EE488AFCEEC87ACDEDD4
:102E5000017A9DF804202946FFF756FBD8E69FED3E
:102E6000447AF4EEC77AF1EE10FACCBF01230023C6
:102E7000DEE7D4ED087AF4EEC87AF1EE10FA3AD42F
:102E80006068B5EEC08AF1EE10FADCD4FCEEC87AC8
:102E9000CDED017A9DF80420DDE7F5EEC08AF1EE74
:102EA00010FA1ED4DFED307AF4EEE78AF1EE10FA74
:102EB0004CBF01230023002BE2D0D4ED077AF1EEC2
:102EC000677AF4EEC87AF1EE10FA17DCDFED207ABB
:102ED000B4EEE78AF1EE10FAD2DD6068B0EE678AF0
:102EE000D4E7DFED237AF4EEE78AF1EE10FACCBFF7
:102EF00001230023DFE7B0EE678AC1E7B0EE678AFF
:102F0000BEE79FED1B7AF4EEC77AF1EE10FACCBF64
:102F1000012300233DE72369D3ED0F7AB1EE047A54
:102F200077EE877AF4EEC87AF1EE10FA53D460683F
:102F3000B5EEC08AF1EE10FA3FF539AFFCEEC87A73
:102F4000CDED017A9DF8042039E700BF00007FC372
:102F500000007F4300000000B43D002000007A43E1
:102F600000007AC30000C842CDCC4C3F00007F4334
:102F7000CDCC4CBFF5EEC08AF1EE10FA21D45FED56
:102F8000067AF4EEE78AF1EE10FA4CBF0123002333
:102F9000002BCCD02369D3ED007AB1EE047A77EE22
:102FA000C77AF4EEC87AF1EE10FA17DC5FED117A09
:102FB000B4EEE78AF1EE10FAB9DD6068B0EE678A28
:102FC000BCE75FED157AF4EEE78AF1EE10FACCBFBC
:102FD00001230023DCE7B0EE678AA8E7B0EE678A3A
:102FE000A5E77047002380F85530704738B5044690
:102FF000002510E0642200216068FFF785FA0320B5
:10300000FDF7F8FF002201216068FFF77DFA032039
:10301000FDF7F0FF0135202DECD9002510E06422EA
:1030200000216068FFF770FA0220FDF7E3FF32220B
:1030300001216068FFF768FA0220FDF7DBFF013528
:10304000312DECD9002510E0642200216068FFF7E3
:103050005BFA0120FDF7CEFF322201216068FFF705
:1030600053FA0120FDF7C6FF0135632DECD900228C
:1030700011466068FFF748FA38BD70B5054600266E
:1030800016E0642200216868FFF73EFA0120FDF790
:10309000B1FF322201216868FFF736FA0120FDF7FF
:1030A000A9FF0134C72CECD96420FDF7A3FF01363A
:1030B000012E01D80024F5E7002211466868FFF7C9
:1030C00023FA002385F8553070BD00002DE9F04F3C
:1030D0002DED028B87B0B0B104466420FDF78AFF66
:1030E00003F01EFEF2EE067AB4EEE70AF1EE10FAF5
:1030F0000DD4AB4B93F87830009363B107B0BDECBF
:10310000028BBDE8F08FA74800F064FAF6E7A64806
:1031100000F060FAF2E7012384F8553003F000FE76
:103120009FEDA27AC7EE007A9FEDA17A27EE877A0B
:10313000BCEEC77A8DED017A9DF804709FED9D7A03
:1031400067EE877AFCEEE77A17EE906A5FFA86F907
:103150000025ADF81650ADF81450ADF8125000230C
:103160000393C6F34606DDF80080AA46AB4607E0A7
:10317000187DFDF75FFE18E0B2460AF10A06054623
:10318000B14524D9F2B201216068FFF7BDF996205C
:10319000FDF730FFE3681A7E002AE9D0187DFDF7BD
:1031A00049FEC0F57F600F3080B22D1A0135022D27
:1031B000E2D808F101085FFA88F88344B8F1180FE3
:1031C000DBD9BBFBF8FB1FFA8BFBADF816B06068D0
:1031D000FFF7DAFA4FF49670FDF70CFFE3681A7EFA
:1031E000AAB1187DFDF726FEC0F57F600F3080B2D2
:1031F000ADF812006068FFF778FB7E08DDF800A0EC
:103200004FF00008C346CDF80480454611E0187D14
:10321000FDF710FEECE7187DFDF70CFE1EE0B04652
:10322000A7F10A03434501D80123019308F10A06D7
:103230000546B74224D9F2B200216068FFF764F96D
:103240009620FDF7D7FEE3681A7E002AE3D0187DAA
:10325000FDF7F0FDC0F57F600F3080B22D1A01350B
:10326000022DDCD80AF1010A5FFA8AFA8344BAF126
:10327000180FD5D9BBFBFAFB1FFA8BFBADF814B0C6
:10328000002211466068FFF73FF940F2DC50FDF77D
:10329000B1FE019B9BB9E368BDF816205A82E36832
:1032A000BDF814201A822046FFF7A0FEE06803F064
:1032B000C1F9F1EE047A30EE270A002315E020462A
:1032C000FFF7DBFE1AE707EE903AF8EE677AB4EE06
:1032D000007A67EE877A226967EE807A03F110013F
:1032E00002EB8102C2ED007A01330F2B1BD8082BB1
:1032F000E9D9A3F1080207EE102AB8EE477AF1EEF9
:103300000C6AC7EE267A9FED2C7A37EE407A67EE8C
:10331000877A226977EE807A03F1100102EB81024D
:10332000C2ED007AE0E72369D3ED107AB6EE007AB9
:1033300077EE877AC3ED107A2369D3ED1F7A77EEA3
:10334000C77AC3ED1F7A009E0025DFED1C8AA846D0
:10335000AA4650E0002DCCBF00210121606815F184
:10336000310F0ADA164B83FB0523EA17A2EB23126F
:10337000D2B2FFF7C9F8009E47E0114B83FB05234B
:10338000EA17C2EB2312D2B2F3E7BEEE007AB4EE34
:10339000C70AF1EE10FACCBF0123002359E000BFA9
:1033A000B43D0020BCF60008E0F600089A994941B7
:1033B00000002043000034430000C8420000000029
:1033C0001F85EB514FF00008C2466F4981FB053164
:1033D000EB17C3EB21139A4408F101089AFBF8F3A9
:1033E00007EE103AB8EEC77A02EB800282ED007A5F
:1033F000F0EE678A013D6FF0310303FB09F3AB4246
:1034000031DA312EA6D80136F6B20120FDF7F2FDF1
:10341000E06803F00FF9B0EE408A206910214030D7
:103420000AF06EFF226900F1100302EB8303D3ED73
:10343000007A38EE670AB5EEC00AF1EE10FAA4D4AD
:10344000B6EE007AB4EEC70AF1EE10FA4CBF0123D3
:103450000023002BCED0F4EE678AF1EE10FAB1D142
:10346000F0EE687AB1E7009E0025DFED488AA846B5
:10347000A9463AE0002DCCBF00210121606815F17A
:10348000310F0ADA404B83FB0523EA17A2EB231224
:10349000D2B2FFF739F8009E30E03B4B83FB0523A7
:1034A000EA17C2EB2312D2B2F3E7BEEE007AB4EE13
:1034B000C70AF1EE10FACCBF0123002342E03249E3
:1034C00081FB0531EB17C3EB2113994408F1010887
:1034D000072809D999FBF8F307EE903AF8EEE77A56
:1034E00002EB8002C2ED007A0135322307FB03F3C1
:1034F000AB4234DD312EBDD80136F6B20120FDF7E6
:1035000079FDE06803F096F8B0EE408A206910215A
:1035100040300AF0F5FE226900F1100302EB83034C
:10352000D3ED007A38EE670AB5EEC00AF1EE10FA74
:10353000BBD4B6EE007AB4EEC70AF1EE10FA4CBF77
:1035400001230023002BCFD0F4EE678AF1EE10FAAE
:10355000B5D0F0EE678A4FF00008C146AFE7002211
:1035600011466068FEF7D0FF4FF47A70FDF742FD18
:103570002046FFF73BFD2046FFF734FD4FF47A70FD
:10358000FDF738FDBAE500BF1F85EB5100000000D4
:10359000C0B1012280F854209FED0B6A20EE060A8C
:1035A000DFED0A6AC0EE267A9FED097A77EE877A18
:1035B000C0ED077A60EE860AC0EEA67A77EE877ACB
:1035C000C0ED087A704700BF00007F430000C8428A
:1035D00000000000C0B170B59AB0064601AC642589
:1035E0002A46002120460AF037FF3346074A29467B
:1035F00020460AF0FBFE2046FCF7D2FD81B22046B1
:1036000009F052FE1AB070BD704700BF04F7000801
:10361000C0B170B59AB0064601AC64252A460021B7
:1036200020460AF019FF3346074A294620460AF089
:10363000DDFE2046FCF7B4FD81B2204609F034FEE1
:103640001AB070BD704700BF10F700081AB90842E1
:1036500005D110467047814303D0002070470120F8
:1036600070470120704780B110B582B00446202316
:103670000193019B202B11D04FF0500383F311884D
:10368000BFF36F8FBFF34F8FFEE74FF0500383F30D
:103690001188BFF36F8FBFF34F8FFEE7002340F811
:1036A000043B01F00FFF01232377204602B010BD39
:1036B00038B5202000F01CFE044628B1002540F853
:1036C000045B01F0FFFE2577204638BD88B12DE967
:1036D000F0410C4616461D460746B1F1807F11D3D6
:1036E0004FF0500383F31188BFF36F8FBFF34F8FF9
:1036F000FEE74FF0500383F31188BFF36F8FBFF3E2
:103700004F8FFEE741B94FF0500383F31188BFF3A9
:103710006F8FBFF34F8FFEE708F018F950B9069B83
:1037200043B14FF0500383F31188BFF36F8FBFF3A2
:103730004F8FFEE707F042FED7F800802A46214669
:103740004046FFF783FFF8B18EB328EA04033B60DD
:103750000023069307F0CCFE069B93B148B94FF0C7
:10376000E0234FF08052C3F8042DBFF34F8FBFF317
:103770006F8F08F043F9804610F0007F1AD028F0D0
:103780007F484046BDE8F081069B002BE2D05EB941
:1037900000210DB141F08061069A2143381D07F0E8
:1037A000ADFF4FF00008D5E74FF08071F1E700233F
:1037B0000693CFE702F0AEF8D7F800802A462146FC
:1037C0004046FFF743FF18B116B128EA04043C60F5
:1037D00002F0C2F8D3E770B170B50C460546B1F1FE
:1037E000807F11D34FF0500383F31188BFF36F8FA5
:1037F000BFF34F8FFEE74FF0500383F31188BFF301
:103800006F8FBFF34F8FFEE702F084F82E6826EA31
:1038100004042C6002F0A0F8304670BD08B5FFF734
:10382000DAFF08BD08B50A4600230146014808F042
:10383000C1FD08BD1D380008EFF311834FF05002A1
:1038400082F31188BFF36F8FBFF34F8F006883F34C
:1038500011887047F8B568B10D460446B1F1807F14
:1038600011D34FF0500383F31188BFF36F8FBFF371
:103870004F8FFEE74FF0500383F31188BFF36F8F34
:10388000BFF34F8FFEE700F10C0607F097FD2069AC
:1038900023682B43236000270AE0216832EA0101F4
:1038A00005D111E0216841F0007107F0B5FF28460D
:1038B000B0420ED04568036823F07F4213F0806F5A
:1038C000EBD121681142F2D013F0807FEAD0174388
:1038D000E8E7236823EA0703236007F009FE20686E
:1038E000F8BD08B5FFF7B6FF08BD000008B51346E0
:1038F0000A460146014808F05DFD08BDE3380008AE
:1039000038B503F091F9274B93F8EB1A51B1D3F87E
:10391000303807EE903AF4EEC07AF1EE10FA11D595
:10392000012500E000251F4B93F8EC2A62B1D3F883
:10393000383807EE903AF4EEC07AF1EE10FA23D55B
:10394000012402E00025EEE70024174B5B8813F00A
:10395000010301D001B11D460BB102B11C4629463D
:10396000124801F07DFE8DB10F4A136843F0400309
:10397000136021460E4801F073FE6CB10A4A1368C9
:1039800043F08003136038BD0024DEE7064A136865
:1039900023F040031360ECE7034A136823F080032D
:1039A0001360F0E7304E0020B43D0020A800002056
:1039B0009C00002008B509F07BF96420FDF71AFB94
:1039C0000120FDF717FBFBE708B5FEF7A3FA64201B
:1039D000FDF710FBFBE7000008B50A4A00210A4882
:1039E000FDF7AEFA094B1860094A00210948FDF7B6
:1039F000A7FA094B18600948FDF778FB084B1860D7
:103A000008BD00BFECFB0008B53900086459002070
:103A1000C8FB0008C939000860590020B8FB00083D
:103A20005C59002020B119B1024A1060024B1960A4
:103A3000704700BF6C5900206859002010B52DED6B
:103A4000068B09F047F8B0EE409A02F063FFF0EE03
:103A5000409A03F02BF8B0EE408A404B93F8CF3AEF
:103A6000012B35D0022B3DD0002B6BD1F0EE690A33
:103A7000B0EE490A3A4807F083F9B0EE407A374B86
:103A8000B3F8C43A07EE903AF8EE677A67EEA97A8F
:103A900067EE897ADFED336A27EE260A67EE807AD1
:103AA0009FED317A67EE877A9FED307A67EE877AFD
:103AB0009FED2F7A38EE078A9FED2E7A28EE078A3F
:103AC00087EE880A2C4B83ED1A0ABDEC068B10BDDD
:103AD000F0EE690AB0EE490A284807F051F9B0EE55
:103AE000407ACCE708F0F6FFF0EE408A02F012FFD1
:103AF000F0EE400A224CB0EE680A204607F040F98A
:103B0000B0EE40AAA4F59054F0EE690AB0EE490A6E
:103B1000204607F035F9DFED137A2AEE27AA60EE8A
:103B20000A8AF0EE690AB0EE490A04F5906007F0DF
:103B300027F9F7EE007A77EECA7A20EE270A38EEF8
:103B4000807A9CE70F48FFF763FD0B4A136843F048
:103B5000010313609FED0C7A91E700BF304E002007
:103B6000303E00200AD7233CB5B7E7416F12833AB5
:103B700033938843136F7944B43D0020B042002052
:103B80003050002048F700080000000010B52DED6F
:103B9000028BFFF753FFB0EE408A4D4B93F8CF3ABC
:103BA000012B0ED0022B26D0002B43D04948FFF723
:103BB0002FFD494A136843F001031360DFED478A84
:103BC00006E0434BD3F8A83607EE903AC0EE278ABA
:103BD000414B1B6813F4005F2FD1414B186800283C
:103BE00072D002F031FD3F4807F090F9DFED3B7AEB
:103BF00030EE278A23E008F06DFFF0EE408A02F0F5
:103C000089FEF0EE400A384CB0EE680A204607F014
:103C1000B7F8D4F8A83407EE903AC8EE278ADFED5B
:103C2000337A20EE270AF7EE007A77EEC07A68EE54
:103C3000A78ACDE7DFED298ACAE79FED288A264BC0
:103C40001B6813F4004F09D1294B186830B102F0FA
:103C50007BFE284807F05AF938EE008ADFED267A15
:103C6000B4EEE78AF1EE10FA0EDBDFED247AB4EE63
:103C7000E78AF1EE10FA07D828EE888A9FED207ABD
:103C8000C8EE077A78EEA78A02F0CEFF1D4807F04B
:103C90003DF9DFED1D7AB4EEE70AF1EE10FA0EDB26
:103CA000DFED1A7AB4EEE70AF1EE10FA07D89FEDCD
:103CB000147AC0EE077A67EEA87A78EEA78AB0EE9B
:103CC000680ABDEC028B10BD9FED048AB7E700BF08
:103CD000304E002048F70008B43D002000000000EE
:103CE0006C59002070560020305000200AD7233C29
:103CF00068590020F0560020000048C400004844E5
:103D00000000C842705800200000FAC30000FA43C7
:103D100008B52DED028BFFF739FFB0EE408A08F0B1
:103D2000D9FE9FED047AC0EE077A88EE270ABDEC33
:103D3000028B08BD0000F04210B52DED028BFFF79D
:103D40007DFE534B93F8CF3A012B44D0B0EE408A1E
:103D5000022B1AD0A3BB4E4BD3F8A43607EE903AF1
:103D6000C0EE278A4B4B1B6813F4005F36D14A4BD9
:103D7000186800285ED002F067FC484807F0C6F8D3
:103D8000DFED477A30EE278A2AE008F0A3FEF0EE56
:103D9000408A02F0BFFDF0EE400A424CB0EE680AE5
:103DA000204606F0EDFFD4F8A43407EE903AC8EEB2
:103DB000278ADFED3D7A20EE270A68EE808AD1E778
:103DC0003A48FFF725FC334A136843F001031360B8
:103DD000DFED338AC6E7DFED328AC3E79FED308A35
:103DE0002C4B1B6813F4004F09D1314B186830B1CC
:103DF00002F0AAFD2F4807F089F838EE008ADFEDBF
:103E00002E7AB4EEE78AF1EE10FA16DBDFED2B7AAC
:103E1000B4EEE78AF1EE10FA36D868EE886A9FEDC4
:103E2000287AC6EE877A78EEA78ADFED1D7A38EE1B
:103E3000278A04E09FED1A8AD2E79FED198A02F0E3
:103E4000F3FE204807F062F8DFED1F7AB4EEE70AD0
:103E5000F1EE10FA10DBDFED1D7AB4EEE70AF1EEB9
:103E600010FA09D89FED167AC0EE077A67EEA87AA5
:103E700078EEA78A38EE008A064B83ED1B8AB0EEF7
:103E8000680ABDEC028B10BD9FED058AD7E700BF25
:103E9000304E0020B43D00206C59002070560020A8
:103EA00000000000305000200AD7233C48F70008EB
:103EB00068590020F0560020000048C40000484423
:103EC0000000C842F05700200000FAC30000FA4387
:103ED00008B510B1034A106008BD0348FFF77AFB2C
:103EE000FAE700BF705900205CF70008414B1B68DF
:103EF000002B7ED010B52DED028B0446FFF71CFF82
:103F0000B0EE408A3C4BD3F8B43607EE903A9FEDC2
:103F10003B7A67EE877AFCEEE77A17EE903AA34297
:103F20002BD8DFED377AB4EEE78AF1EE10FA52DDE6
:103F3000344B1B6813F0080F4DD02F4BD3F8AC2631
:103F400007EE902A88EE270AD3F8B03607EE903AAB
:103F500020EE270AF6EE007A20EE270AB5EEC00A18
:103F6000F1EE10FA16D4F7EE007AB4EEE70AF1EEAD
:103F700010FA11DDB0EE670A0EE008F0BDFD002872
:103F8000CFD11D4BD3F8B83608EE103A012001F01E
:103F900099FB25E09FED1C0A0AF0E2FEDFED1B7A9B
:103FA00080EE278ADFED1A7A28EE278AB5EEC08ADE
:103FB000F1EE10FA09D4DFED177AB4EEE78AF1EEEC
:103FC00010FA04DDB0EE678A01E09FED0F8A012050
:103FD00001F078FB04E0002001F074FB9FED0A8AF9
:103FE000B0EE480A034B1868FEF7C8FDBDEC028B23
:103FF00010BD704770590020304E002000247449D5
:10400000CDCCCC3DB43D002000000000DB0F49408A
:10401000000048430000C84210B558B151B1074AEA
:104020001060074C204601F079FB064BA36000238B
:10403000636010BD0448FFF7CDFAFAE79C590020F1
:10404000745900200000C84278F70008F8B5184BF2
:104050001B68ABB10446174B93F87830032B10D094
:10406000154AD2F8883600EE103A124B002183F838
:104070007910D2F8CC26DA610D4B1868FEF77EFD78
:10408000F8BD0C4D022385F879300B4ED6F8C836B2
:1040900000EE103A094F384601F04DFB08F01AFDCA
:1040A0002146384601F04AFBD6F8C836EB61E3E713
:1040B0009C590020B43D0020304E0020745900204F
:1040C000014B93F879007047B43D00202DE9F0478B
:1040D0008AB005AD002405940694079408940994C9
:1040E00000944C4B1A6B42F004021A631A6B02F0F4
:1040F00004020092009A01941A6B42F080021A6343
:104100001A6B02F080020192019A02941A6B42F03B
:1041100001021A631A6B02F001020292029A0394DE
:104120001A6B42F002021A631A6B02F00202039247
:10413000039A04941A6B42F008021A631B6B03F093
:1041400008030493049BDFF8D4A022464FF4705177
:10415000504603F002FF304F22464FF23F413846AF
:1041600003F0FBFEDFF8B88022464FF407414046DB
:1041700003F0F3FEDFF8AC9022460421484603F03A
:10418000ECFE4FF4705305930126069607940894AD
:104190002946504603F0F6FD4FF23F43059306963D
:1041A000079408942946384603F0ECFD4FF4E06389
:1041B00005930696079408942946404603F0E2FDCD
:1041C0004FF4004305930696079408962946404607
:1041D00003F0D8FD04230593069607940894294616
:1041E000484603F0CFFD4FF4407305934FF444135A
:1041F000069307942946384603F0C4FD224605215C
:10420000172003F0B5F9172003F0C2F90AB0BDE892
:10421000F08700BF0038024000040240000802405E
:1042200000000240000C0240124A12F0070F1ED09C
:10423000D11D21F00701C1F5705313440A460E4801
:104240000260002141601344083B23F007030B4840
:10425000036059601960991A51601360084B196026
:10426000084B1960084B4FF000421A6070474FF43A
:104270007053E4E7C0590020B8590020B459002019
:10428000AC590020B0590020A0590020164B1A4606
:104290001B688342FBD3516802EB010C844509D0B3
:1042A000416800EB010C634509D00360904219D0CE
:1042B000106070474068014451601046F0E710B448
:1042C0000A4C2468A3420BD05B6819444160136810
:1042D0001B680360904200D010605DF8044B70478B
:1042E0000460F7E7704700BFB8590020B4590020B8
:1042F00038B5044607F062F8384B1B68B3B1384B49
:104300001B681C4250D1002C50D004F1080214F05C
:10431000070F02D022F007020832002A55D0314B95
:104320001B68934253D330490C6804E0FFF77CFFCD
:10433000E5E721461C466368934202D22368002BBE
:10434000F7D1264B1B68A34243D00D68083523687C
:104350000B6063689B1A102B10D9A01810F0070F80
:1043600008D04FF0500383F31188BFF36F8FBFF372
:104370004F8FFEE743606260FFF788FF626819496C
:104380000B689B1A0B60194909688B4201D21749C7
:104390000B60134B1B681343636000232360144AB4
:1043A00013680133136002E0002500E0002507F0E8
:1043B0009FF815F0070F0ED04FF0500383F31188CC
:1043C000BFF36F8FBFF34F8FFEE70025EFE70025A8
:1043D000EDE70025EBE7284638BD00BFB4590020C3
:1043E000A0590020B0590020B8590020AC59002035
:1043F000A8590020002834D038B50446A0F108059B
:1044000050F8043C174A1268134208D14FF0500389
:1044100083F31188BFF36F8FBFF34F8FFEE750F820
:10442000081C41B14FF0500383F31188BFF36F8F25
:10443000BFF34F8FFEE723EA020340F8043C06F087
:10444000BDFF54F8041C084A13680B441360284647
:10445000FFF71CFF054A13680133136007F048F8A3
:1044600038BD7047A0590020B0590020A459002041
:1044700008B50B480B4B03600B4B43600023836074
:10448000C3604FF48042026143618361C361036290
:1044900003F080FD00B908BD01F066F8FBE700BF3E
:1044A000C095002000540040A086010030B589B0BE
:1044B0000023039304930593069307930268144B18
:1044C0009A4201D009B030BD00250195114C236BF3
:1044D00043F002032363236B03F002030193019B68
:1044E000C023039312230493032306930423079307
:1044F00003A9094803F046FC0295236C43F400131A
:104500002364236C03F400130293029BDAE700BFD9
:1045100000540040003802400004024080B110B551
:104520000446806820B1012101F09AF80223237526
:10453000E06820B1012101F093F80223237510BD3A
:1045400070470000D8B110B50446806820B1002142
:1045500001F086F803232375E06820B1002101F003
:104560007FF803232375064B1B781BB1A268054B0C
:104570009A4200D010BD044808F09AF8FAE7704754
:10458000B03D00203C0000209000002038B5002401
:104590000BE02846FFF7D6FF124A136843F4802346
:1045A00013601148FFF716F80134104B1B78A34233
:1045B00017D904EB44030E4D05EBC3052B7D022BED
:1045C000F2D107F0BBFF6B68C01A07EE900AF8EE55
:1045D000E77AB7EE007AF4EEC77AF1EE10FAE3DD8F
:1045E000D7E738BDB43D002090F70008D5960020ED
:1045F0001496002008B5754B93F8CE3A9BB1012B69
:1046000061D07348FEF7E6FF724B1B78002B40F039
:10461000C480714A136843F48023136043F001039C
:104620001360002008BD6B4B04221A70674B93F88F
:10463000D63A013B032BE7D8DFE803F0020E1B2E2E
:10464000664B674A9A601A6200221A61654A9A624A
:10465000654B02221A70D7E7604B00221A61614A4B
:104660009A625F4A9A600C321A625F4B02221A7099
:10467000CAE75A4B00221A615A4A9A62584A9A600B
:1046800002F12401D96002F10C01196218325A6258
:10469000554B02221A70B7E7504B00221A61514A5B
:1046A0001A64524A9A65524A9A624D4A9A6002F1D5
:1046B0000C01196202F11801996324321A654A4B00
:1046C00004221A70A0E7434B06221A703F4B93F85E
:1046D000D63A013B032B97D8DFE803F002114123C0
:1046E0003E4B00221A61434A9A62434A1A643C4A8A
:1046F0009A601A629A633C4B03221A7084E7374B24
:1047000000221A613B4A9A623B4A1A64344A9A6010
:1047100002F10C01196218329A63334B03221A70AA
:1047200072E72A4B022283F8D62A2B4A136843F4F5
:1047300080231360294B00221A612E4A9A622E4A66
:104740001A64274A9A6002F10C01196218329A63BE
:10475000254B03221A702948FEF73CFF54E71B4BF8
:10476000022283F8D62A1C4A136843F4802313607C
:104770001A4B00221A611F4A9A621F4A1A64184A89
:104780009A6002F10C01196218329A63164B0322E7
:104790001A701A48FEF71EFF36E707EE903AF8EE59
:1047A000677ADFED176A86EEA77A0B4B83ED087AFE
:1047B00000231A4601211348FCF72AFC10B10121FD
:1047C000FCF77AFC0120104B18702BE7304E0020CC
:1047D000F4F70008D6960020B43D0020149600207F
:1047E0003C00002000003443D59600200000B44374
:1047F000000007440000F04200007043ACF70008DE
:10480000000034448D450008D796002008B5134BAE
:1048100000221A70124B93F8CE3A2BB1012B1BD009
:104820001048FEF7D7FE17E00F4B00221A610F4A1F
:104830001A640F4A9A650F4A9A620F4A9A6002F107
:104840000C01196202F11801996324321A650423DC
:104850000A4A13700A4A137008BD00BFD49600209C
:10486000304E0020F4F70008149600200000344376
:104870000000B443000007443C000020D59600200F
:10488000D696002008B5114B01221A70104B93F8F0
:10489000CE3A2BB1934218D00E48FEF79BFE14E09F
:1048A0000D4B00221A610D4A9A620D4A9A6002F17C
:1048B0002401D96002F10C01196218325A62094BC5
:1048C00002221A70084B04221A7008BDD4960020E8
:1048D000304E0020F4F70008149600200000344306
:1048E0003C000020D5960020D696002008B502F0A6
:1048F00017FAB2EE0C7AC7EE007A0F4BD3F8903667
:1049000000EE103A20EE270AF6EE007AB4EEE70A3F
:10491000F1EE10FA09D4F1EE007AB4EEE70AF1EE06
:1049200010FA04DDB0EE670A01E0B6EE000A034BB0
:1049300083ED1C0A08BD00BF304E0020B43D0020AE
:10494000C0B110B5044607F0F9FD03462268121AFB
:10495000002A0EDB6068C31A002B0ADB01232375D3
:104960002246054907F03AFE22460449206807F02E
:1049700035FE10BD704700BF454500081D450008C5
:1049800008B52DED028B08F0A5F8B0EE408A01F0D5
:10499000C1FF344B93F8D73A002B4BD0314BD3F8AF
:1049A000943608EE903A02F03FF92F4806F0AEFA3E
:1049B000FAEE0E7AB4EEE70AF1EE10FA08DBF2EE48
:1049C0000E7AB4EEE70AF1EE10FA01D878EE808A9A
:1049D000244BB3F8C03A07EE903AF8EE677AF4EE5B
:1049E000C87AF1EE10FA20D81E4BB3F8C23A07EE9F
:1049F000103AB8EE477A37EE877AB4EEC87AF1EE1D
:104A000010FA12DBF4EE477AF1EE10FA27D038EE06
:104A1000678ADFED166A76EEE86A28EE268A37EEB8
:104A2000677AC8EE077A78EEA78AB0EE680ABDEC1E
:104A3000028B08BD0E4B93F87830032B05D0094B41
:104A4000D3F8843608EE903AADE7F0EE400AB0EEC7
:104A5000480A084806F094F9F0EE408AA3E7DFED33
:104A6000038AE2E7304E002070570020000000006B
:104A7000B43D0020304700202DE9F8432DED088B90
:104A8000BC4B93F8D63A002B00F0D981F0EE409A57
:104A9000B0EE609A0646B84B1B78002B00F0CF8131
:104AA000B64B1B68C3F3C00713F0080F00F0C781B3
:104AB000B04AD2F8902607EE902AB6EE007AF4EECD
:104AC000C77AF1EE10FA06DBB1EE007AF4EEC77A9F
:104AD000F1EE10FA1BD9B6EE007AF4EEC77AF1EED9
:104AE00010FA09D4B1EE007AF4EEC77AF1EE10FABA
:104AF00004DDF0EE477A01E0F6EE007A17EE902A38
:104B00009C49C1F8902643F480239C4A1360FFF728
:104B100037FFF0EE40AAB5EEC00AF1EE10FA09D464
:104B2000DFED977AB4EEE70AF1EE10FA04DDF0EE6D
:104B300067AA01E0DFED9AAA904CC4ED09AAFFF73D
:104B4000D5FEB0EE40AA2368C3F30014894A92F858
:104B5000D62A042A0BD0002400BF864B93F8D63AFD
:104B6000042B15D0F0EE69BA0027002424E04CB9DC
:104B700043F00403814A13608248FEF72BFDFFF7E0
:104B800081FEE9E7FFF742FE07F09EFF0446E3E7F8
:104B90007D4B1B7853B907EE904AF8EE67BADFED0C
:104BA0007B7A6BEEA7BA7BEEA9BADEE7F0EE69BAC4
:104BB0000027DAE787B10134754B1B78A34240F236
:104BC0003E8104EB4403734D05EBC3052B7D002BA5
:104BD000F0D0032BEED0EEE707F088FF04EB4402A1
:104BE0006C4B03EBC203D3ED048A78EEEA8A03E050
:104BF000DFED667A78EEA78AF5EEC08AF1EE10FA5C
:104C0000F6D403E0DFED617A78EEE78ADFED5F7AD4
:104C1000F4EEE78AF1EE10FAF4DAB5EE409AF1EE2E
:104C200010FA0AD069EE277A9FED5B7A87EE87BA91
:104C30002AEE0B8A38EEC88A06E09FED59BAF7E7EC
:104C4000DFED527A38EE278AB5EEC08AF1EE10FA1F
:104C5000F6D403E0DFED4D7A38EE678ADFED4B7A6C
:104C6000B4EEE78AF1EE10FAF4DAB0EE481AF0EE9C
:104C7000690A09F003FB00289DD178EEEB8AF5EE76
:104C8000C08AF1EE10FA62D4B5EEC09AF1EE10FAD5
:104C900062D9F5EEC08AF1EE10FA5FD99FED3B7A4A
:104CA00029EE077ADFED3D6AC6EE877A67EEA87ACD
:104CB000FCEEE77A17EE903A334404EB4401354AB0
:104CC00002EBC102536038EE6B8AB5EEC08AF1EE9A
:104CD00010FA45D4B5EEC09AF1EE10FA45D9B5EE0A
:104CE000C08AF1EE10FA42D99FED287A29EE077AB0
:104CF000DFED2A6AC6EE877A67EE887AFCEEE77AFD
:104D000017EE903A334404EB4402224941F8323022
:104D10002846FFF715FE174B93F8D83A002B42D0E0
:104D2000144BD3F8983607EE903AF4EEC97AF1EEC8
:104D300010FA37DD0F4B93F8D63A012B77D00D4B95
:104D400093F8D93A012B74D9013BDBB22BE0DFEDAC
:104D50000F7A78EEA78A97E70023ADE70023ABE749
:104D6000DFED0A7A38EE278AB4E70023CAE700238A
:104D7000C8E700BF304E0020D7960020B43D002089
:104D80000000204220F80008D49600200000B44320
:104D9000D59600201496002000606A47C0E1644C5C
:104DA000000000000023022B28BF022398464FF08A
:104DB00001091FED058AB8F1000F3CD0224BD3F852
:104DC0009C2607EE902A37EE8A7A27EE0B7A38EE89
:104DD000078AD3F8A03607EE103AB4EEC87AF1EE9F
:104DE00010FA28D4194904EB440001EBC0025368BF
:104DF0009FED177A67EE877AFCEEE77A17EE90CA96
:104E0000634441F830302AEE077ABCEEC77A17EED9
:104E1000101A0B44536009F101095FFA89F9284619
:104E2000FFF78EFD08F1FF385FFA88F8C3E700232B
:104E3000B9E70023B7E7074B83F87A90BBE6BDECF0
:104E4000088BBDE8F88300BF304E00201496002088
:104E500000007A44B43D002008B5104B01221A70BE
:104E60000F4B93F8CE3A2BB1934215D00D48FEF775
:104E7000B1FB11E00C4B00221A610C4A9A620C4AF9
:104E80009A6002F12401D96002F10C011962183212
:104E90005A62084B02221A7008BD00BFD896002043
:104EA000304E002050F80008DC960020000034430B
:104EB0006C000020DB96002008B5124B00221A700F
:104EC000114B93F8CE3A2BB1012B19D00F48FEF7B6
:104ED00081FB15E00E4B0F4A1A610F4A1A6400223B
:104EE0009A650E4A9A620E4A9A6002F10C011962A2
:104EF00002F11801996324321A650A4B04221A70D0
:104F000008BD00BFD8960020304E002050F80008A1
:104F1000DC9600200000B443000007440000344346
:104F20006C000020DB96002080B110B5044680683C
:104F300020B1002100F094FB03232375E06820B129
:104F4000002100F08DFB0323237510BD7047000086
:104F500038B5002400E001340F4B1B78A34219D967
:104F600004EB44030D4D05EBC3052B7D022BF2D161
:104F700007F0E4FA6B68C01A0028ECDD2846FFF75A
:104F8000D3FF074A136843F4002313600548FEF774
:104F900021FBE0E738BD00BFDB960020DC96002057
:104FA000B43D00207CF8000880B110B5044680684C
:104FB00020B1012100F054FB02232375E06820B1E9
:104FC000012100F04DFB0223237510BD7047000046
:104FD000C0B110B5044607F0B1FA03462268121AB0
:104FE000002A0EDB6068C31A002B0ADB012323753D
:104FF0002246054907F0F2FA22460449206807F0E4
:10500000EDFA10BD704700BF294F0008A94F0008F6
:1050100008B55A4B93F8D53A002B00F0AD80574AAB
:1050200092F8CE2A9AB1012A50D05548FEF7D2FA0A
:10503000544B1B78002B40F09180534A136843F483
:105040008023136043F001031360002095E04F4A72
:1050500004211170022B0FD0032B20D0012BE7D19C
:105060004B4B4C4A9A601A6200221A614A4A9A6271
:10507000444B02221A70DBE7454B00221A61464A74
:105080009A62444A9A6002F12401D96002F10C014B
:10509000196218325A623B4B02221A70C8E73C4B25
:1050A0003E4A1A613E4A1A6400229A653A4A9A6256
:1050B000384A9A6002F10C01196202F118019963F1
:1050C00024321A652F4B04221A70B1E72F4A0621A9
:1050D0001170022B12D0032B22D0012BA8D12C4B04
:1050E00000221A612F4A9A622F4A1A64294A9A604A
:1050F0001A629A63234B03221A7099E7244B002209
:105100001A61284A9A62284A1A64224A9A6002F16D
:105110000C01196218329A631A4B03221A7087E73E
:10512000164B022283F8D52A174A136843F400234A
:105130001360174B00221A611A4A9A621A4A1A64BB
:10514000144A9A6002F10C01196218329A630D4BED
:1051500003221A701548FEF73DFA69E700231A4644
:1051600001211348FBF754FF10B10121FBF7A4FF05
:105170000120104B187000E0012008BD304E0020C7
:1051800050F80008DB960020B43D0020DA9600209D
:10519000DC9600206C000020000034430000B44383
:1051A000000007440000F0420000704398F8000837
:1051B000514F0008D996002008B5FEF7A9FDDFED94
:1051C0000F7A80EE277A0E4BD3F8C43607EE903A6A
:1051D000C7EE277A9FED0B7A67EE877A9FED0A7A02
:1051E00067EE877A094B1B7807EE103AB8EE477ADC
:1051F00087EE870A064B83ED1D0A08BDCDCC2C3FF8
:10520000304E00200000704200007A44DA96002000
:10521000B43D0020F8B52DED088B9A4B93F8D53AA4
:10522000002B00F02C81B0EE409AF0EE608A05462B
:10523000954A1278002A00F02281944A1278002AB6
:1052400000F01D81924A1268C2F3C00612F0080FE6
:1052500000F015818B49D1F8C0160AEE101AB5EE90
:10526000C0AAF1EE10FA09D4DFED8A7AB4EEE7AA0B
:10527000F1EE10FA04DDB0EE67AA01E09FED86AA18
:10528000C2F30014032B0BD0002400BF7D4B93F816
:10529000D53A032B15D0F0EE499A0026002424E0DD
:1052A0004CB942F004027A4B1A607C48FEF792F93E
:1052B000FFF7D2FDE9E7FFF7FFFD07F005FC044625
:1052C000E3E7774B1B7853B907EE904AF8EE679AFD
:1052D000DFED747A69EEA79A79EE899ADEE7F0EE4F
:1052E000499A0026DAE786B101346F4B1B78A34256
:1052F00040F2C58004EB44036C4F07EBC3073B7DD2
:10530000032BF0D0002BEED0EEE707F0EFFBB0EE72
:1053100040BA04EB4402654B03EBC203D3ED047ABD
:1053200077EECAAA03E0DFED5F7A7AEEA7AAF5EE80
:10533000C0AAF1EE10FAF6D403E0DFED5A7A7AEE65
:10534000E7AADFED587AF4EEE7AAF1EE10FAF4DA04
:10535000F5EE408AF1EE10FA0CD068EEA77A9FEDD8
:10536000547A87EE878AFFF727FF20EE088A3AEE05
:10537000C88A06E09FED488AF5E7DFED4A7A38EE05
:10538000278AB5EEC08AF1EE10FAF6D403E0DFED1D
:10539000457A38EE678ADFED437AB4EEE78AF1EEBC
:1053A00010FAF4DAB0EE481AF0EE490AB0EE4B0A01
:1053B00008F064FF002897D17AEEE97AF5EEC07A1A
:1053C000F1EE10FA49D4F5EEC08AF1EE10FA49D99F
:1053D000F5EEC07AF1EE10FA46D9DFED326A68EEEA
:1053E000A66A9FED346A86EE267A67EE277AFCEE8F
:1053F000E77A17EE903AE81838EE698AB5EEC08A77
:10540000F1EE10FA32D4F5EEC08AF1EE10FA32D98C
:10541000B5EEC08AF1EE10FA2FD99FED227A28EE70
:10542000877ADFED246AC6EE877A67EE887AFCEE2B
:10543000E77A17EE902AA9189B1A312B7FF654AF02
:105440001A4B04EB440203EBC20CCCF8040043F803
:1054500032103846FFF7BCFD46E79FED127A77EE33
:10546000877AB0E70023C6E70023C4E7DFED0D7AB3
:1054700038EE278AC7E70022DDE70022DBE7BDEC34
:10548000088BF8BD304E0020D9960020380000204F
:10549000B43D00200000344300000000E8F800089C
:1054A000D89600200000B443DB960020DC96002054
:1054B00000606A47C0E1644C014B00221A707047DB
:1054C0003800002000F1080343604FF0FF32826093
:1054D000C3600361002303607047002303617047CA
:1054E00043684B609A688A605160996008610368FC
:1054F00001330360704730B40D68B5F1FF3F11D040
:1055000000F108031C465B681A68AA42FAD963686E
:105510004B6099608C6061600861036801330360CF
:1055200030BC70470469F2E70369416882688A60A9
:10553000416851605A68824206D0002202611A68AE
:10554000013A1A601868704782685A60F5E70000EF
:1055500008B50268034B9A4200D008BD01F000FC78
:10556000FBE700BF0048014072B6FEE710B594B0FB
:1055700008AC30220021204608F06EFF0023039380
:10558000049305930693079301931F4A116C41F00E
:1055900080511164126C02F080520192019A0293C0
:1055A0001A490A6822F4404242F400420A600A683A
:1055B00002F440420292029A0222089201210B91C7
:1055C00010210C910E920F9308231093C022119278
:1055D000062212921393204603F018FC78B90F2389
:1055E000039302210491002305934FF48052069205
:1055F000079303A803F05AFE18B914B010BDFFF7C3
:10560000B3FFFFF7B1FF00BF003802400070004059
:1056100008B501F08BFBFFF7A9FFFEF757FDFDF77B
:105620009DF906F0ABFBFBF73BFA06F08BFAFCF7B3
:1056300041FFFEF71DFF06F0D7FAFBF753FCFEF71C
:10564000CBF9FBF761FCFEE740B108B58188006843
:1056500002F07CFC003818BF012008BD0120704713
:1056600058B108B572B6027A0AB162B608BD0A46E8
:105670008188006802F071FCF7E77047A0B138B587
:105680000D46044672B68188006802F05FFC00385F
:1056900018BF01206072012323722A46A188206866
:1056A00002F05BFC62B638BD704750B108B572B607
:1056B00000220272427A8188006802F04EFC62B6D3
:1056C00008BD704708B501460148FFF7C9FF08BD8E
:1056D000B400002078B110B504460121FFF7CEFFD9
:1056E0000320FBF787FC2046FFF7DFFF0021204661
:1056F000FFF7B6FF10BD704778B110B50446012121
:10570000FFF7BCFF0A20FBF775FC2046FFF7CDFF33
:1057100000212046FFF7A4FF10BD7047034648B1A3
:1057200041B10022C2600261426182610020D86101
:105730005A621960704780ED080A70470368002BB1
:1057400079D0C2698A1A07EE902AF8EE677A9FED3F
:105750003B7AC7EE876A90ED086A36EE406AD3ED71
:10576000005A65EE865A90ED037AD3ED017AB6EED3
:10577000005A67EE857A67EEA67A90ED055A35EE07
:10578000065A67EE857A77EE277AC0ED037A93EDB5
:10579000047AF4EEC77AF1EE10FA38DD80ED037A80
:1057A000D3ED027A77EEA77A90ED067A30EE477A5B
:1057B00067EE877A93ED057A37EE077A37EE665A09
:1057C000D0ED044A25EE245A77EE857AF1EE677A19
:1057D00037EE267AC7EE876AC0ED046AD0ED037A09
:1057E00077EEA57A76EEA77AC0ED097A90ED027A87
:1057F000F4EEC77AF1EE10FA13DD80ED097A80ED50
:10580000056A80ED060AC16190ED090A704793EDC3
:10581000037AF4EEC77AF1EE10FAC1D580ED037A7F
:10582000BEE790ED017AF4EEC77AF1EE10FAE6D514
:1058300080ED097AE3E79FED020A7047002474497E
:105840000000000082B0002301930D4B1B68B3F1F0
:10585000FF3F08D04FF0500383F31188BFF36F8FE1
:10586000BFF34F8FFEE74FF0500383F31188BFF370
:105870006F8FBFF34F8F019B002BFCD002B070479E
:10588000CC00002008480068006880F308884FF0CA
:10589000000080F3148862B661B6BFF34F8FBFF388
:1058A0006F8F00DF00BF000008ED00E0DFF80C00A4
:1058B000016841F4700101607047000088ED00E06C
:1058C0004FF0807340F8043C21F0010140F8081CBF
:1058D000054B40F80C3C40F8202C6FF0020340F8D8
:1058E000243C4438704700BF4558000800000000C1
:1058F000074B19680868B0E8F04F80F30988BFF3D8
:105900006F8F4FF0000080F311887047AFF3008075
:10591000749D00204FF0500383F31188BFF36F8F05
:10592000BFF34F8F0B4A136801331360012B00D074
:1059300070474FF0E023D3F8043D13F0FF0FF7D08A
:105940004FF0500383F31188BFF36F8FBFF34F8F76
:10595000FEE700BFCC000020094B1B6843B94FF0A5
:10596000500383F31188BFF36F8FBFF34F8FFEE7B0
:10597000013B034A13600BB983F31188704700BFE2
:10598000CC0000200000000000000000000000002B
:10599000EFF30980BFF36F8F154B1A681EF0100FDD
:1059A00008BF20ED108A20E9F04F10602DE90900B2
:1059B0004FF0500080F31188BFF34F8FBFF36F8F0C
:1059C00005F038FE4FF0000080F3118809BC19681B
:1059D0000868B0E8F04F1EF0100F08BFB0EC108A56
:1059E00080F30988BFF36F8F704700BFAFF300806B
:1059F000749D002008B54FF0500383F31188BFF366
:105A00006F8FBFF34F8F05F0E7FC28B14FF0E02315
:105A10004FF08052C3F8042D002383F3118808BD92
:105A20004FF0E022002313619361054B1B68054989
:105A3000A1FB03139B09013B5361072313617047CB
:105A4000D8000020D34D62104FF0E023D3F8002D92
:105A50003D4B9A421CD04FF0E023D3F8002D3B4B36
:105A60009A421ED030B583B0394B1A78D2B2019227
:105A7000FF221A701B78DBB28DF803309DF80330DB
:105A800003F05003334A1370334B07221A601BE0B4
:105A90004FF0500383F31188BFF36F8FBFF34F8F25
:105AA000FEE74FF0500383F31188BFF36F8FBFF30E
:105AB0004F8FFEE7284A1368013B13609DF80330BF
:105AC0005B00DBB28DF803309DF8033013F0800FDC
:105AD000F0D1214B1B68032B08D04FF0500383F308
