:020000040800F2
:100000000000012099D90008619600086596000853
:10001000C9960008CB960008CD96000800000000A5
:100020000000000000000000000000000152000875
:10003000CF96000800000000A1520008C90E000879
:10004000E9D90008E9D90008E9D90008E9D9000888
:10005000E9D90008E9D90008E9D90008E9D9000878
:10006000E9D90008E9D90008E9D90008E9D9000868
:10007000E9D90008E9D90008E9D90008E9D9000858
:10008000E9D90008E9D90008E9D900080000000012
:10009000000000000000000000000000D1960008F1
:1000A000E9D90008E9D90008E5960008E9D900086F
:1000B000FD960008E9D90008E9D90008E9D9000847
:1000C000E9D90008E9D90008E9D90008E9D9000808
:1000D000E9D90008E9D90008E9D9000800000000C2
:1000E000E9D90008E9D90008E9D9000800000000B2
:1000F000000000000000000000000000E9D9000836
:1001000000000000E9D90008E9D90008E9D9000891
:1001100000000000000000000000000000000000DF
:1001200011970008E9D90008E9D90008E9D90008C1
:10013000E9D90008000000000000000000000000F5
:1001400000000000000000000000000021970008EF
:10015000E9D90008E9D90008E9D90008E9D9000877
:10016000E9D90008E9D900080000000000000000FB
:10017000000000000000000000000000000000007F
:1001800000000000E9D900080000000000000000A5
:04019000E9D90008A1
:1001A000034613F8012B002AFBD1181A01387047B7
:1001B00001F0FF01102A2BDB10F0070F08D010F818
:1001C000013B013A8B422DD010F0070F42B3F6D11C
:1001D000F0B441EA012141EA014122F007047FF035
:1001E00000070023F0E80256083C85EA010586EA8C
:1001F000010685FA47F5A3FA87F586FA47F6A5FAC8
:1002000087F68EB9EED1F0BC01F0FF0102F00702D3
:1002100032B110F8013B013A83EA010313B1F8D17E
:100220000020704701387047002D06BF354603385F
:10023000073815F0010F07D1013015F4807F02BF98
:10024000013015F4C03F0130F0BC0138704700BFE9
:1002500081F0004102E000BF83F0004330B54FEA77
:1002600041044FEA430594EA050F08BF90EA020FE4
:100270001FBF54EA000C55EA020C7FEA645C7FEA77
:10028000655C00F0E2804FEA5454D4EB5555B8BF9A
:100290006D420CDD2C4480EA020281EA030382EA0B
:1002A000000083EA010180EA020281EA0303362D9D
:1002B00088BF30BD11F0004F4FEA01314FF4801C70
:1002C0004CEA113102D0404261EB410113F0004F82
:1002D0004FEA03334CEA133302D0524263EB430339
:1002E00094EA050F00F0A780A4F10104D5F1200ED7
:1002F0000DDB02FA0EFC22FA05F2801841F1000132
:1003000003FA0EF2801843FA05F359410EE0A5F105
:1003100020050EF1200E012A03FA0EFC28BF4CF036
:10032000020C43FA05F3C01851EBE37101F00045EC
:1003300007D54FF0000EDCF1000C7EEB00006EEBF9
:100340000101B1F5801F1BD3B1F5001F0CD3490883
:100350005FEA30004FEA3C0C04F101044FEA4452DA
:1003600012F5800F80F09A80BCF1004F08BF5FEA61
:10037000500C50F1000041EB045141EA050130BD41
:100380005FEA4C0C404141EB0101013C28BFB1F553
:10039000801FE9D291F0000F04BF01460020B1FA9E
:1003A00081F308BF2033A3F10B03B3F120020CDA71
:1003B0000C3208DD02F1140CC2F10C0201FA0CF04F
:1003C00021FA02F10CE002F11402D8BFC2F1200CB4
:1003D00001FA02F120FA0CFCDCBF41EA0C0190406A
:1003E000E41AA2BF01EB0451294330BD6FEA0404B3
:1003F0001F3C1CDA0C340EDC04F11404C4F120029E
:1004000020FA04F001FA02F340EA030021FA04F3AF
:1004100045EA030130BDC4F10C04C4F1200220FA06
:1004200002F001FA04F340EA0300294630BD21FA44
:1004300004F0294630BD94F0000F83F4801306BF0A
:1004400081F480110134013D4EE77FEA645C18BFFE
:100450007FEA655C29D094EA050F08BF90EA020F95
:1004600005D054EA000C04BF1946104630BD91EA8D
:10047000030F1EBF0021002030BD5FEA545C05D190
:100480004000494128BF41F0004130BD14F58004CF
:100490003CBF01F5801130BD01F0004545F0FE4143
:1004A00041F470014FF0000030BD7FEA645C1ABF78
:1004B000194610467FEA655C1CBF0B46024650EAAF
:1004C000013406BF52EA033591EA030F41F40021DB
:1004D00030BD00BF90F0000F04BF0021704730B561
:1004E0004FF4806404F132044FF000054FF0000136
:1004F00050E700BF90F0000F04BF0021704730B5F7
:100500004FF4806404F1320410F0004548BF4042CB
:100510004FF000013EE700BF42004FEAE2014FEA20
:1005200031014FEA02701FBF12F07F4393F07F4FFB
:1005300081F06051704732F07F4208BF704793F0FE
:100540007F4F04BF41F40021704730B54FF4607411
:1005500001F0004521F000411CE700BF50EA010214
:1005600008BF704730B54FF000050AE050EA0102BD
:1005700008BF704730B511F0004502D5404261EB2D
:1005800041014FF4806404F132045FEA915C3FF46E
:10059000D8AE4FF003025FEADC0C18BF03325FEA0B
:1005A000DC0C18BF033202EBDC02C2F1200300FABC
:1005B00003FC20FA02F001FA03FE40EA0E0021FAE1
:1005C00002F11444BDE600BF70B54FF0FF0C4CF4CF
:1005D000E06C1CEA11541DBF1CEA135594EA0C0F81
:1005E00095EA0C0F00F0DEF82C4481EA030621EABC
:1005F0004C5123EA4C5350EA013518BF52EA0335F7
:1006000041F4801143F4801338D0A0FB02CE4FF0A8
:100610000005E1FB02E506F00042E0FB03E54FF0D8
:100620000006E1FB03569CF0000F18BF4EF0010ED0
:10063000A4F1FF04B6F5007F64F5407404D25FEACC
:100640004E0E6D4146EB060642EAC62141EA55517F
:100650004FEAC52040EA5E504FEACE2EB4F1FD0CC1
:1006600088BFBCF5E06F1ED8BEF1004F08BF5FEA3F
:10067000500E50F1000041EB045170BD06F00046F1
:1006800046EA010140EA020081EA0301B4EB5C049E
:10069000C2BFD4EB0C0541EA045170BD41F4801196
:1006A0004FF0000E013C00F3AB8014F1360FDEBFBB
:1006B000002001F0004170BDC4F10004203C35DA97
:1006C0000C341BDC04F11404C4F1200500FA05F31A
:1006D00020FA04F001FA05F240EA020001F00042BB
:1006E00021F0004110EBD37021FA04F642EB060131
:1006F0005EEA430E08BF20EAD37070BDC4F10C045B
:10070000C4F1200500FA04F320FA05F001FA04F21E
:1007100040EA020001F0004110EBD37041F100010A
:100720005EEA430E08BF20EAD37070BDC4F1200515
:1007300000FA05F24EEA020E20FA04F301FA05F27D
:1007400043EA020321FA04F001F0004121FA04F225
:1007500020EA020000EBD3705EEA430E08BF20EAF5
:10076000D37070BD94F0000F0FD101F0004640002F
:1007700041EB010111F4801F08BF013CF7D041EAB1
:10078000060195F0000F18BF704703F000465200B5
:1007900043EB030313F4801F08BF013DF7D043EA86
:1007A0000603704794EA0C0F0CEA135518BF95EA3C
:1007B0000C0F0CD050EA410618BF52EA4306D1D1C3
:1007C00081EA030101F000414FF0000070BD50EAE2
:1007D000410606BF1046194652EA430619D094EA6C
:1007E0000C0F02D150EA013613D195EA0C0F05D156
:1007F00052EA03361CBF104619460AD181EA0301AA
:1008000001F0004141F0FE4141F470014FF0000061
:1008100070BD41F0FE4141F4780170BD70B54FF0FC
:10082000FF0C4CF4E06C1CEA11541DBF1CEA13557C
:1008300094EA0C0F95EA0C0F00F0A7F8A4EB05045E
:1008400081EA030E52EA03354FEA013100F0888055
:100850004FEA03334FF0805545EA131343EA12631E
:100860004FEA022245EA111545EA10654FEA0026D3
:100870000EF000419D4208BF964244F1FD0404F58C
:10088000407402D25B084FEA3202B61A65EB0305E8
:100890005B084FEA32024FF480104FF4002CB6EBA5
:1008A000020E75EB030E22BFB61A754640EA0C0025
:1008B0005B084FEA3202B6EB020E75EB030E22BF65
:1008C000B61A754640EA5C005B084FEA3202B6EBA6
:1008D000020E75EB030E22BFB61A754640EA9C0065
:1008E0005B084FEA3202B6EB020E75EB030E22BF35
:1008F000B61A754640EADC0055EA060E18D04FEAF3
:10090000051545EA16754FEA06164FEAC30343EA92
:1009100052734FEAC2025FEA1C1CC0D111F4801F5F
:100920000BD141EA00014FF000004FF0004CB6E758
:1009300011F4801F04BF01430020B4F1FD0C88BFF7
:10094000BCF5E06F3FF6AFAEB5EB030C04BFB6EB02
:10095000020C5FEA500C50F1000041EB045170BDF5
:100960000EF0004E4EEA113114EB5C04C2BFD4EB22
:100970000C0541EA045170BD41F480114FF0000EA6
:10098000013C90E645EA060E8DE60CEA135594EA22
:100990000C0F08BF95EA0C0F3FF43BAF94EA0C0F25
:1009A0000AD150EA01347FF434AF95EA0C0F7FF49A
:1009B00025AF104619462CE795EA0C0F06D152EAEE
:1009C00003353FF4FDAE1046194622E750EA4106D2
:1009D00018BF52EA43067FF4C5AE50EA41047FF4E3
:1009E0000DAF52EA43057FF4EBAE12E74A0011D295
:1009F00012F5001211D20DD56FF47873B3EB625279
:100A00000ED44FEAC12343F0004343EA505323FA84
:100A100002F070474FF00000704750EA013002D1F9
:100A20004FF0FF3070474FF00000704753B94AB99C
:100A3000002908BF00281CBF4FF0FF314FF0FF30E6
:100A400000F00CB8ADF1080C6DE904CE0EF022FDFB
:100A5000DDF804E0DDE9022304B07047704700BF11
:100A600010B5054C237833B9044B13B10448AFF3E8
:100A700000800123237010BDF00100200000000061
:100A80008CF7000808B5034B1BB103490348AFF3CB
:100A9000008008BD00000000F40100208CF7000871
:100AA00010B58CB00024089409940A940B94202269
:100AB000214668460CF0D0FF8848894B03604460AB
:100AC000846001230361047680F820404FF0805257
:100AD000C2624FF020628262C4600D22C26180F85F
:100AE0003030446105F08EFC002840F0C1800A23BC
:100AF00008930123099304230A9308A9774805F072
:100B0000ABFD002840F0B7800B2308930223099324
:100B100000230A9308A9714805F09EFD002840F0C3
:100B2000AD800C2308930323099308A96B4805F0B3
:100B300093FD002840F0A5800D230893042309931A
:100B400008A9664805F088FD002840F09D80002334
:100B500008930523099308A9604805F07DFD002846
:100B600040F09580012308930623099308A95B4868
:100B700005F072FD002840F08D80022308930723C2
:100B8000099308A9554805F067FD002840F08580C5
:100B9000032308930823099308A9504805F05CFD36
:100BA00000287DD1042308930923099308A94B4801
:100BB00005F052FD002876D1052308930A230993F6
:100BC00008A9464805F048FD00286FD10623089380
:100BD0000B23099308A9414805F03EFD002868D180
:100BE000072308930C23099308A93C4805F034FD1A
:100BF000002861D10E2308930D23099308A93748D3
:100C000005F02AFD00285AD10B23009301220192FE
:100C100004230493002302930793324906918DF82D
:100C200015208DF81430039369462C4805F0DEFD3D
:100C3000002847D10C2300930223019369462748DB
:100C400005F0D4FD002840D10D2300930323019328
:100C50006946224805F0CAFDD0BB00230093042357
:100C6000019369461D4805F0C1FDA0BB0CB010BD45
:100C700004F06AF93BE704F067F945E704F064F92A
:100C80004FE704F061F957E704F05EF95FE704F01D
:100C90005BF967E704F058F96FE704F055F977E777
:100CA00004F052F97EE704F04FF985E704F04CF9BF
:100CB0008CE704F049F993E704F046F99AE704F069
:100CC00043F9A1E704F040F9B4E704F03DF9BBE7CC
:100CD00004F03AF9C1E704F037F9C7E76C020020E5
:100CE0000020014001000F00F0B589B000230393FC
:100CF0000493059306930793026803F1804303F579
:100D000090339A4201D009B0F0BD04460025009509
:100D100003F58C335A6C42F480725A645A6C02F4B4
:100D200080720092009A01951A6B42F004021A63D5
:100D30001A6B02F004020192019A02951A6B42F0BA
:100D400001021A631B6B03F001030293029B1F2332
:100D500003930327049703AE3146154806F0A4FA1F
:100D6000FF230393049705953146124806F09CFA39
:100D70001148124B036045608560C5604FF4806385
:100D800003614FF4006343614FF4005383614FF4F8
:100D90008073C3614FF400330362456205F01AFFAC
:100DA00018B9054BA3639C63ADE704F0CDF8F8E7F1
:100DB00000080240000002400C02002010640240C3
:100DC0007047000038B598B10C4689B1154A1060DB
:100DD00007F0B4FD00224FF47A7302FB0333B0FB3B
:100DE000F3F3013BB3F5803F06D3013292B2F2E751
:100DF0000D4802F0A5F914E021688A622268D362E6
:100E0000E360236800255D6368220849054B186884
:100E100005F024FB204607F07BFE2946204608F01B
:100E2000DDF938BD84030020ECF70008B40200208F
:100E300038B50C2805D80546092807D100231946DE
:100E400018E00F4802F07CF9002017E00920FFF7B6
:100E5000EFFF40F206339842F0D800200EE003EB9B
:100E6000430203EB82022A44064C34F8122011FAA2
:100E700082F10133072BF2D9C1F3CF0038BD00BF97
:100E800024F80008B402002008B5FFF7D1FF07EEF0
:100E9000900AF8EE677AB1EE047A67EE877A9FEDF2
:100EA000047A87EE870ADFED037A30EE270A08BD61
:100EB00000F07F450000000008B50AF0E8FD10B121
:100EC00002684068904708BD08B54FF0E0231B69F1
:100ED00009F0FCFF012800D108BD04F013FAFBE77C
:100EE000EFF305832BB9064B186828B901221A6065
:100EF00070476FF0050070474FF0FF30704700BF3C
:100F0000400A0020EFF3058373B90A4B1B68012BDD
:100F10000DD110B50024084BDC77064B02221A6075
:100F200009F0C0FC204610BD6FF0050070474FF07F
:100F3000FF307047400A002000ED00E0F0B587B0B8
:100F400000240594EFF3058404BBF8B1002A34D0E3
:100F5000156893692BB11E46013B372B02D900203F
:100F600015E01826536813F0010F3FD1546984B17E
:100F70004FEA940C93682BB1D7685B2F02D917699D
:100F800007B184B943B14FF0FF330BB3059807B0F5
:100F9000F0BD4FF0800CEDE7D368A3B91369ABB196
:100FA0004FF0FF33F1E70293019700960B4662463C
:100FB000294609F009FC0590E8E7154600231826A4
:100FC0004FF0800CE1E74FF0FF33DEE70023DCE772
:100FD00005AB019300960B461FFA8CF2294609F0E7
:100FE0002EFC0128D2D000230593CFE70020CEE7C6
:100FF00008B5EFF3058333B908B9002008BD09F03F
:10100000B3FD0020FAE76FF00500F7E72DE9F043A4
:1010100083B0EFF30587002F43D106468946154676
:101020001C4600283FD0082002F05CFE80460028C5
:101030003BD006604560B9F1000F00D0012704B332
:101040002068A36813B1E2682B2A10D853B14FF07F
:10105000FF33DBB10024404602F0C6FE204603B059
:10106000BDE8F083E3687BB14FF0FF33F1E7019314
:101070000F4B009343463A4601210AF053FB0446C6
:101080000CE020460023E4E70023E2E7084B00934E
:1010900043463A4601210AF029FB0446002CDDD1E3
:1010A000D9E70024DAE70024D8E70446D6E700BFF2
:1010B000B90E0008EFF305836BB90A4670B100B5AD
:1010C00083B0009304210AF057FB012809D10020C6
:1010D00003B05DF804FB6FF0050070476FF003008C
:1010E00070476FF00200F3E708B5EFF30583CBB963
:1010F000A0B1836813B1C2681F2A0BD82BB14FF07F
:10110000FF338BB902F08AF808BDC36843B14FF0D2
:10111000FF33F6E7184602F05CF8F5E70023F0E746
:101120000023EEE70020EFE70020EDE7F8B110B56F
:1011300082B00C46B1F1807F1CD2EFF305829AB1E8
:101140000022019201AA02F087F9B8B1019BC3B154
:101150004FF0E0234FF08052C3F8042DBFF34F8FC0
:10116000BFF36F8F204607E002F02AF904E06FF02A
:10117000030070476FF0030002B010BD6FF0020073
:10118000FAE72046F8E770B5B0B10C460646B1F173
:10119000807F14D2EFF3058353B102F003F90546C3
:1011A0002146304602F0F4F858B96FF0020508E025
:1011B00002F0C7F8054604E06FF0030501E06FF0A8
:1011C0000305284670BD40B370B582B00C461D467D
:1011D0008446B1F1807F23D2EFF3058323BB12F065
:1011E000010610D0012312F0020F0ED0002200954C
:1011F0002146604602F020F84EB1844312D0B5B1CA
:101200006FF001000EE00023EDE70122EFE704425A
:1012100008D17DB16FF0010004E06FF0030070476A
:101220006FF0030002B070BD6FF00500FAE76FF0D9
:101230000200F7E76FF00200F4E770B582B0EFF359
:101240000583002B3AD1144600283BD000293BD01F
:101250006AB393684BB1D2684F2A06D9226922B18A
:1012600001FB00F56669AE421BD273B14FF0FF334C
:1012700063BB002204F067FA054605B304B1246895
:101280002146284604F0B4FC19E0E3688BB92369D1
:1012900013B14FF0FF33EBE763696BB14FF0FF33EE
:1012A000E6E70025009504F004FA0546E5E700238B
:1012B000DEE74FF0FF33DBE70023D9E700252846C0
:1012C00002B070BD0025FAE70025F8E70025F6E733
:1012D00010B582B01C46EFF30583C3B118B329B330
:1012E0003CBB0023019301AA04F015FB012823D184
:1012F000019850B14FF0E0234FF08052C3F8042D15
:10130000BFF34F8FBFF36F8F002002B010BDB0B19D
:10131000C1B10023224604F03AFA012815D0B4B135
:101320006FF00100F1E76FF00300EEE76FF00300EC
:10133000EBE76FF00300E8E76FF00200E5E76FF01E
:101340000300E2E76FF00300DFE70020DDE76FF066
:101350000200DAE710B582B01C46EFF30583C3B193
:1013600010B321B334BB0023019301AA04F0E9FBBD
:10137000012822D1019850B14FF0E0234FF0805264
:10138000C3F8042DBFF34F8FBFF36F8F002002B05F
:1013900010BDA8B1B9B1224604F024FB012815D034
:1013A000B4B16FF00100F2E76FF00300EFE76FF008
:1013B0000300ECE76FF00300E9E76FF00200E6E7F7
:1013C0006FF00300E3E76FF00300E0E70020DEE7E3
:1013D0006FF00200DBE70000034B0360034B0B6080
:1013E00080231360704700BFE4090020E407002059
:1013F000034B0360034B0B604FF480731360704723
:10140000880700208803002008B5074C4FF0FF3301
:10141000002201212068FFF7D6FE00F02FFE0121F7
:101420002068FFF7B0FEF0E7440A00202DE9F04302
:1014300083B00F4615468DF8070096B206F10708EF
:101440001FFA88F8013676BA01220DF10701002053
:101450000CF060FA2A4639460CF05CFA040204F4F7
:101460007F0444EA1064030A03F47F431C4344EA04
:101470000064DFF83090A9F800609DF8073089F823
:1014800002302A46394609F103000CF019FB0335F6
:1014900049F80540414648460BF02CFA03B0BDE838
:1014A000F08300BF6C0E002038B51446012B07D026
:1014B0004AB901224FF40051074805F0E0FF38BD5A
:1014C000FFF7B4FFF5E7054D28460CF0F9FAA1B295
:1014D00028460BF00FFAECE7000802406C0E0020E3
:1014E00070B59CB0002208210A20FFF7A6FE244B0D
:1014F000186013AD24242246002128460CF0ACFAD3
:10150000204B13934FF480531893282319932A46A2
:1015100000211D48FFF712FD0AAE22460021304689
:101520000CF09AFA194B0A934FF400630F931823A7
:10153000109301AD2246002128460CF08DFA144B81
:1015400001934FF4A05306932023079300240094A3
:10155000324621460F48FFF7F1FC2A4621460E4845
:10156000FFF7ECFC00902046FFF7BEFD0B4B186028
:101570002046FFF7B9FD0A4B18601CB070BD00BFD4
:101580008C12002044F800082518000850F80008C4
:1015900060F80008F520000809140008480A002037
:1015A000440A002008B50378433B102B32D8DFE80B
:1015B00003F02131310931312931313131313131CA
:1015C000193111000023032213491846FFF76CFF5D
:1015D000012020E00023132210491846FFF764FF82
:1015E000012018E0002313220C491846FFF75CFF86
:1015F000012010E000230122FF211846FFF754FFCD
:10160000012008E000231A4619461846FFF74CFF50
:10161000012000E0002008BD74F8000878F80008F8
:1016200001280DD808B5881841F6E923984200D959
:1016300008BD0123034801440020FFF735FFF7E709
:10164000704700BF1813002030B583B004460D4624
:10165000FFF7A8FF002840F0C680052D21D8A37809
:10166000423B352B00F2BA80DFE803F09B20B8B094
:1016700027B8B82EB8B8B8B8B852B835B83CB8B86A
:10168000B87BB8B8B8B8B8B8B8B8B8B8B8B8B8B817
:1016900043B8B8B8B861A7B8B8B8B8B859B8B8B806
:1016A000B88BAA1FA11C0CF035F9D8E701231A4604
:1016B000FF210020FFF7F8FE95E0012303225249A5
:1016C0000020FFF7F1FE8EE001231A4600210846B4
:1016D000FFF7EAFE87E0012313224C490020FFF7C1
:1016E000E3FE80E00123142248490020FFF7DCFEDE
:1016F00079E002238DF800300423ADF80130ADF815
:1017000003300123052269460020FFF7CDFE6AE081
:1017100001237C223E490020FFF7C6FE63E0B4F8B7
:101720000520B4F803100020FFF77AFF5BE041F6D4
:10173000E922384900200CF0EDF80090030203F490
:101740007F0343EA1063020A02F47F42134343EA31
:10175000006300930123042269460020FFF7A4FEE2
:1017600041E0B4F80330B4F80520E11D29481844DD
:101770000CF0A6F90123002211461046FFF794FE53
:1017800031E0B4F80330B4F80520E11D21481844D5
:101790000CF096F90123002211461046FFF784FE53
:1017A00021E001211C4B1868FFF7C0FC0123002237
:1017B00011460420FFF778FE15E0E378022B14D0E1
:1017C000032B15D0012B01D10AF07EFDB4F80310D4
:1017D00049BA89B2114B1868FFF7A8FC4FF40051C1
:1017E0000F4805F052FE03B030BD0AF079FDEDE779
:1017F0000AF080FD014601234FF4FE720020FFF73E
:1018000053FE0AF061FDE1E774F8000878F800087B
:101810009C12002018130020440A0020480A0020CF
:101820000008024000B583B04FF0FF330022694644
:1018300005480068FFF78EFD0028F5D1BDF80410BB
:101840000098FFF701FFEFE78C120020BFF34F8FE6
:101850000549CA6802F4E062044B1343CB60BFF34E
:101860004F8F00BFFDE700BF00ED00E00400FA0568
:1018700008B50AF0EDF9094BA3FB00308009084BCD
:10188000D86001F0F3FD4FF40051064805F0FDFD6E
:101890004FF47A70FFF7ACFBEBE700BFD34D62105B
:1018A0009C1200200008024008B516E02F4A136879
:1018B00023F0805313602FE05B7D07EE903AF8EE43
:1018C000677A40E05B7D07EE903AF8EE677A274B47
:1018D000C3ED197A0120FFF78BFB254804F024FAA9
:1018E000224C84ED0A0A234804F01EFA84ED0B0A08
:1018F00004F018FC84ED100A04F072FB84ED110A68
:1019000004F0B8FA84ED0D0A04F046FC0028CDD0AE
:10191000236843F08053236004F062FC134C84ED91
:10192000120A04F079FC84ED150A134B5A69A2657A
:101930005B681A7D002ABFD05B7D07EE903AF8EE17
:10194000677AF1EE677A094AC2ED187A0B4B59694A
:10195000D1655B681A7D002AB4D05B7D07EE903AB2
:10196000F8EE677AF1EE677AB1E700BF9C120020CB
:10197000900000207C000020D02E0020902E00201F
:1019800038B52DED028B002438E007EE901AB8EE42
:10199000677AF2EE0E7AC7EE276A9FEDE07A26EEBE
:1019A000077A27EE267AF3EE047A37EE277ADC4BB5
:1019B00001EB041203EB820080ED007A02F59070D7
:1019C00003EB800080ED007A68EE277AB2EE047AAD
:1019D00077EE877A66EE876A77EEE67A02F5107020
:1019E00003EB8000C0ED007A02F5587203EB82032E
:1019F000C3ED007A01310F29C7D901340F2C17D854
:101A000007EE904AB8EE677AF2EE0E7A87EE278AF2
:101A10009FEDC40A28EE000A0CF006FDDFEDC27A45
:101A200020EE276ADFEDC17A36EE276A0021E2E771
:101A3000002222E041F2707302FB03F31B0907EE60
:101A4000903AF8EE677AB64B02F5807103EB8101AC
:101A5000C1ED007A02F5087103EB8101C1ED007A56
:101A600002F5507103EB8101C1ED007A02F58C6142
:101A700003EB8103C3ED007A01320F2ADAD9002388
:101A800025E007EE903AF8EE677A9FEDA97A67EEC7
:101A9000877A9FEDA87A67EE877AA14A03F5887165
:101AA00002EB8101C1ED007A03F50C7102EB8101BB
:101AB000C1ED007A03F5547102EB8101C1ED007AAA
:101AC00003F58E6102EB8102C2ED007A01330F2B28
:101AD000D7D9934A02F5805302F5B451964808606D
:101AE00003F284614FF08240086003F5D161934CAA
:101AF0000C6003F28C619248086002F5B65191487F
:101B0000086003F2BC61DFF870C2C1F800C003F5E1
:101B1000D2618D480860012183F8D31A03F29460E2
:101B2000C0F800C003F5D360884D056003F29C65E2
:101B30004FF07C50286002F5B555DFF840E2C5F85B
:101B400000E003F2A465DFF838E2C5F800E003F531
:101B5000D565DFF830E2C5F800E003F2C465DFF8D0
:101B600028E2C5F800E003F5D965DFF820E2C5F802
:101B700000E003F2CC652C6003F5DA64206003F228
:101B8000D4647348206003F5DB64724D256003F272
:101B9000DC64DFF8FCE1C4F800E002F5B754206033
:101BA00003F26474C4F800C003F5ED64F7EE006A54
:101BB000C4ED006A03F26C7500242C6003F5EE6539
:101BC0002C6003F274759FED647A85ED007A03F55D
:101BD000EF65286003F27C75DFED607AC5ED007A71
:101BE00002F5BC55DFED5E7AC5ED007A03F604051B
:101BF000C5F800C003F6080CCCED006A03F60C0C27
:101C0000CCF8004003F5016CCCF8004003F6140456
:101C100084ED007A03F61804206003F61C00C0ED82
:101C2000007A02F5C1524F48106003F624024E4874
:101C3000106003F62802C2F800E003F62C004B4ABD
:101C4000026003F503604A4C046003F63400C0F8F8
:101C500000E003F63800026040F6B832A3F8BC2A70
:101C60004FF4FA70A3F8BE0A4FF41660A3F8C00A46
:101C7000A3F8C22A40F2A460A3F8C40AA3F8C62AB3
:101C8000A3F8C80A002283F8CA2A83F8CB1A83F87B
:101C9000CC2A83F8CD1A83F8CE2A83F8CF2A83F88A
:101CA000D01A022083F8D10A83F8D20A83F8D42A02
:101CB000032083F8D50A83F8D62A83F8D72A83F835
:101CC000DA2A83F8DB2A83F8DC2A83F8DD0A83F832
:101CD000DE2A83F8DF2A83F8E02A83F8E11A83F802
:101CE000E22A83F8E31A83F8E42A83F8E51A83F8F2
:101CF000E61A83F8E72A83F8E82A83F8D82A83F8D3
:101D0000D92A03F2AC621B49116003F5D6634FF088
:101D100080421A60BDEC028B38BD00BF00008C42CF
:101D200018130020D00F4940CDCC4C3FCDCC4C3EB9
:101D30000000F0420000803D0000C8430000204148
:101D40000000E4420000AF430000204000C05A45BC
:101D5000CDCCCC3D0000C8C200007F43000034421F
:101D600000004842000070420000DC420000BE4219
:101D70000000B4429A9909410000A0410000F041DE
:101D800000004041333363410080BB440080544431
:101D90000000C84208B500F0B3FC08BDF0B595B02E
:101DA0007C22002193480BF057FE934C41F6E92525
:101DB0002A46002120460BF04FFE2946204600F01F
:101DC0005BFC002800F0D680FFF7E4FF8B4809F0A9
:101DD000F3FE8B498B48FEF7F5FF8B4B93F8D03A17
:101DE000002B40F0CD80884C94F8CC0A09F0DAFF43
:101DF00094F8DA1A854804F02DF994F8DB1A84482F
:101E000004F092F894F8DC1A824804F001F8824851
:101E100002F0E0F8814802F0EFFD94F8E13A002B7F
:101E200031D094F8E33A002B00F0B28044F62063FE
:101E3000009308230C227A497A4800F077FB7A4C09
:101E4000204603F0F3F8794B0093764B784A21460D
:101E5000784800F09FFC6C4B93F8E53A002B40F07B
:101E6000A180744CB2EE040A204600F0BFFC0023AF
:101E7000224601217048FFF7C9F8704B186010B175
:101E80000121FFF717F9604B93F8E23A2BB95E4B4B
:101E900093F8CB3A0BB1022B40D15B4B93F8E43A69
:101EA000002B00F08C8044F6206300930023042272
:101EB0005B49634800F03AFB624C204603F0B6F8F9
:101EC000614B00935E4B614A2146614800F062FC21
:101ED0004D4B93F8E63A002B7BD15D4C9FED5D0AAC
:101EE000204600F083FC0023224601215248FFF7E0
:101EF0008DF8594B186010B10121FFF7DBF84D4800
:101F000001F0E4FC00231A4601215448FFF77EF853
:101F1000534B186010B10121FFF7CCF83A4B93F8FE
:101F2000E13A002B62D1FFF7DBFA0BAD24273A46EA
:101F3000002128460BF090FD4A4B0B934FF480662E
:101F400010962023119302AC3A46002120460BF054
:101F500083FD454B02930796182308932A460021D8
:101F60004248FEF7EBFF224600214148FEF7E6FF1C
:101F700015B0F0BDFFF704FD3E4801F0E1F823E79E
:101F80003D49A1F6CF2393F8CE0A09F041FF2AE795
:101F900044F6206300930C2308222149214800F0D5
:101FA000C5FA4CE7144B03F5BB5203F5BC53D2ED15
:101FB000070A93ED000A1F4801F0A0F851E744F624
:101FC000206300930423002215491D4800F0AEFA57
:101FD00072E7094B03F5C05203F5C153D2ED070A6E
:101FE00093ED000A1A4801F089F876E7114801F0EC
:101FF00029FD98E79C12002018130020E8730020A8
:10200000587300206C02002018230020242E00208A
:102010000C2E0020042E00200000002020000020B4
:10202000A0730020B82E002040000020FC290020D2
:1020300090000020D02E00201D28000898120020BB
:10204000782E00203C2E00209C2A00207C000020BE
:10205000902E00200000000094120020E9380008B3
:1020600090120020A4F80008B0F80008A918000891
:10207000711800088CF80008E72D002008B500F062
:1020800053FB08BD10B52DED028B09F067FFB0EED4
:10209000408A09F05DFFF0EE408A09F0CFFD04466A
:1020A000F0EE680AB0EE480A02F0AAF92046F0EE17
:1020B000680AB0EE480A02F0A9FDBDEC028B10BD23
:1020C00008B500BFB0F5807F03D0B0F5007F03D026
:1020D00008BD09F04FFFFBE74FF40071044805F01D
:1020E000C7F9003818BF012009F0ACFEF0E700BFC7
:1020F0000004024008B522E0FFF7A8FB224B93F84A
:10210000E13AB3B1214800F09FFD12E01E4B93F875
:10211000E23A73B11E4800F097FD0AE01D4A51896A
:10212000194BA3F8C41A1189A3F8C21A127C83F8B8
:10213000D62A4FF6FF71184B1868FFF724F84FF0B6
:10214000FF3300224FF6FF7113480068FFF73BF89A
:1021500001380428EDD801A353F820F0F920000835
:10216000FD2000080D2100081D2100087121000834
:102170000A4A5189044BA3F8C81A1189A3F8C61A50
:10218000127C83F8D72AD4E718230020D02E002011
:10219000902E002090000020480A00207C000020A3
:1021A00008B50548054B036004F088FC00B908BD7C
:1021B00002F0CAFEFBE700BFF82E0020003002400C
:1021C0000268094B9A4200D0704782B00023019305
:1021D000064B1A6B42F480521A631B6B03F4805354
:1021E0000193019B02B0704700300240003802406A
:1021F000002800F038812DE9F8430D4616460446C4
:102200000768002F52D01046FEF774F996A3D3E961
:102210000023FEF703FB804689463F68F86AFEF715
:1022200059F942464B46FEF7CFF9FEF7DFFBFDB109
:10223000012D79D06368002B40F0CF807B63A368C9
:10224000002B40F0D78023681B6800225A63E368A4
:10225000002B40F0E28023681B6800225A63236948
:10226000002B40F0ED8023681B6800225A631BE0BE
:10227000E3686BB122695AB1042B19D0082B1AD02C
:1022800000233B642369CBB923681B68DA6A5A636D
:10229000A36833BB23681B6800225A636368002B62
:1022A00032D123681B68586366752575BDE8F883CD
:1022B0000023BB63E6E70023FB63E3E7042B06D0C0
:1022C000082B09D023681B68DA6A1A64E0E72368E0
:1022D0001B68DA6A9A63DBE723681B68DA6ADA63E9
:1022E000D6E7042B06D0082B09D023681B680022F0
:1022F0001A64D3E723681B6800229A63CEE7236839
:102300001B680022DA63C9E7042B05D0082B07D02D
:1023100023681B681864C7E723681B689863C3E7D2
:1023200023681B68D863BFE7E3686BB123695BB1BF
:10233000042B16D0082B17D000233B64E368B3B9F5
:1023400023681B68DA6A5A6363681BBB23681B68CF
:1023500000225A63A368002B2FD123681B6858639F
:10236000A2E70023BB63E9E70023FB63E6E7042B56
:1023700006D0082B09D023681B68DA6A1A64E3E7E1
:1023800023681B68DA6A9A63DEE723681B68DA6AE7
:10239000DA63D9E7042B06D0082B09D023681B6821
:1023A00000221A64D6E723681B6800229A63D1E7EB
:1023B00023681B680022DA63CCE7042B05D0082BC6
:1023C00007D023681B6818646EE723681B6898634E
:1023D0006AE723681B68D86366E7042B04D0082BE0
:1023E00005D000233B642AE70023BB6327E70023D3
:1023F000FB6324E7042B06D0082B09D023681B6855
:1024000000221A6423E723681B6800229A631EE7F0
:1024100023681B680022DA6319E7042B06D0082B17
:1024200009D023681B6800221A6418E723681B6818
:1024300000229A6313E723681B680022DA630EE721
:10244000042B06D0082B09D023681B6800221A64CD
:102450002AE723681B6800229A6325E723681B6824
:102460000022DA6320E770470000000000E06F40C0
:10247000034678B102686AB1416861B91268516374
:102480009A68C2B91A6812680021516300225A750D
:1024900002229A757047042905D0082907D01268CE
:1024A00000211164ECE7126800219163E8E71268EB
:1024B0000021D163E4E7042A06D0082A09D01A686B
:1024C000126800211164E1E71A6812680021916323
:1024D000DCE71A6812680021D163D7E738B50546F2
:1024E00099B10C4644F62063994200D91C4606F087
:1024F0001BF9002202FB0443B0FBF3F3013BB3F5ED
:10250000803F05D3013292B2F4E7FFF7B1FF0CE050
:10251000296809688A622A681268D3622A68D360C7
:102520006A7D297D2846FFF763FE38BD00284FD01D
:1025300010B5044629B30160426083600023C36084
:10254000036103758375084606F0E2FABDF80810CA
:102550002046FFF7C3FF6368A3B923681B68002206
:102560005A63A3680BBB23681B6800225A63616827
:10257000206806F04FFFA168206806F04BFF00239B
:10258000637510BD042B06D0082B09D023681B6887
:1025900000221A64E5E723681B6800229A63E0E7DB
:1025A00023681B680022DA63DBE7042B06D0082BC4
:1025B00009D023681B6800221A64D8E723681B68C7
:1025C00000229A63D3E723681B680022DA63CEE710
:1025D0007047034688B102687AB1817D01290CD920
:1025E000416859B9126851639A68BAB91A68126891
:1025F0000021516300225A759A757047042905D04D
:10260000082907D0126800211164EDE71268002143
:102610009163E9E712680021D163E5E7042A06D057
:10262000082A09D01A68126800211164E2E71A68C2
:10263000126800219163DDE71A6812680021D163F6
:10264000D8E7000000B583B000220192094B196B56
:1026500041F4800119631B6B03F480030193019B18
:102660000721382004F016FA382004F023FA03B0CA
:102670005DF804FB003802400246B8B1C1B10D4B11
:1026800001205874052018744FF40030986000F150
:102690000060D860B1F5003F03D900205860186091
:1026A0007047044B59601A60012070470020704742
:1026B00000207047002F002010B586B004F0B2FC57
:1026C000002300930D4B1A7C0292012203925B7C43
:1026D00001930223049305A9684604F09BFD28B9E1
:1026E000059BB3F1FF3F07D0002400E0002404F075
:1026F000B1FC204606B010BD0124F8E7002F0020F1
:10270000084B1A680AB1002306E070470549C968FA
:10271000C95C02F8011B0133024949689942F5D8A6
:10272000704700BF002F002070B5194B1C683CB3E8
:10273000FFF7C2FF064620B304F074FC0025144BDB
:102740005B68AB420CD9124BD9682288002329441C
:10275000012004F0B9FC10B902340235EFE700267D
:102760000B4B1A6800230A494968994209D9117824
:102770000748C068C05C884207D101320133F2E7E4
:10278000002604F067FC304670BD0026F9E700BF64
:10279000002F002010B5029CC8B1C2B1BBB1B4B1CA
:1027A0008160C26043600023436104610A4B4B6156
:1027B00083680A4A1A618368094ADA618368094AA8
:1027C0009A6101230370002380F8253002E0064857
:1027D00000F0B6FC10BD00BF00007F4300007FC3C7
:1027E00000007A4300007AC3C0F80008B5EEC00AC2
:1027F000F1EE10FA09D4DFED077AB4EEE70AF1EE54
:1028000010FA04DDB0EE670A01E09FED030A80EDE7
:10281000050A70470000C8420000000070B52DEDA9
:10282000028B82B060B3044683684BB3C06838B390
:1028300063682BB394F825502DBB03F075FAB0EE06
:10284000408A84ED060A94ED050AA06802F0F7FBC1
:1028500094ED050A206907F019FEF0EE408ADFEDDD
:10286000BB7AB4EEE70AF1EE10FA10DBDFEDB87ACE
:10287000B4EEE70AF1EE10FA58D9DFEDB68A08E0B7
:10288000B54800F05DFC02B0BDEC028B70BDDFED21
:10289000B18AA66809F0D2F90146B0EE480A30467E
:1028A00002F0D0FB30EE280ADFEDA87AB4EEE70A9A
:1028B000F1EE10FA3CD5DFEDA57AF5EEC07AF1EE37
:1028C00010FAD4BF0121002194F82430002B50D0FD
:1028D000002D66D09FEDA17A38EE477AB5EEC07A2A
:1028E000F1EE10FA00F1D780DFED9D6AB4EEE67AE2
:1028F000F1EE10FA4CBF01230023002B00F0EF8013
:102900009FED927AF4EEC77AF1EE10FA40F1CD80A5
:102910006068F0EE477AF1EE677AFCEEE77ACDED8B
:10292000017A9DF80420FFF763FCACE70125B0E7CE
:10293000A66809F083F90146B0EE480A304602F075
:1029400081FB30EE280ADFED827AB4EEE70AF1EE81
:1029500010FA02DDDFED7E7AAFE7A66809F06EF9C6
:102960000146B0EE480A304602F06CFB70EE287A61
:10297000A3E76068F5EEC07AF1EE10FA08D4FCEE39
:10298000E77ACDED017A9DF80420FFF731FC7AE774
:10299000F1EE677AFCEEE77ACDED017A9DF804203E
:1029A000F3E79FED6E7A38EE477AB5EEC07AF1EE36
:1029B00010FA1ED4DFED6A6AB4EEE67AF1EE10FA90
:1029C0004CBF0123002393B39FED607AF4EEC77AE6
:1029D000F1EE10FA17D56068F0EE477AF1EE677AFB
:1029E000FCEEE77ACDED017A9DF80420FFF700FCBC
:1029F00049E7DFED5C6AB4EEE67AF1EE10FACCBF9F
:102A000001230023DFE794ED087AB4EEE77AF1EED4
:102A100010FA3AD46068F5EEC07AF1EE10FADDD41F
:102A2000FCEEE77ACDED017A9DF80420DEE7B5EE05
:102A3000C08AF1EE10FA1ED49FED497AB4EEC78A2F
:102A4000F1EE10FA4CBF01230023002BE2D094EDED
:102A5000077AB1EE477AB4EEE77AF1EE10FA17DCB6
:102A60009FED3B7AF4EEC77AF1EE10FAD2DD6068A2
:102A7000F0EE477AD4E79FED3B7AB4EEC78AF1EEE9
:102A800010FACCBF01230023DFE7F0EE477AC1E75D
:102A9000F0EE477ABEE7DFED336AB4EEE67AF1EEA8
:102AA00010FACCBF0123002327E7236993ED0F7AA7
:102AB000F1EE046A37EE267AB4EEE77AF1EE10FA18
:102AC0003ED46068F5EEC07AF1EE10FA3FF523AF20
:102AD000FCEEE77ACDED017A9DF8042023E7B5EE10
:102AE000C08AF1EE10FA21D49FED1D7AB4EEC78AA8
:102AF000F1EE10FA4CBF01230023002BE1D0236933
:102B000093ED007AF1EE046A37EE667AB4EEE77A76
:102B1000F1EE10FA17DC9FED0E7AF4EEC77AF1EEC3
:102B200010FACEDD6068F0EE477AD1E79FED0D7ABE
:102B3000B4EEC78AF1EE10FACCBF01230023DCE724
:102B4000F0EE477ABDE7F0EE477ABAE700007FC3C0
:102B500000007F4300000000E0F800080000C842C9
:102B6000CDCC4C3FCDCC4CBF38B50446002510E051
:102B7000642200216068FFF73BFB0320FEF738FA70
:102B8000002201216068FFF733FB0320FEF730FAD3
:102B90000135202DECD9002510E064220021606869
:102BA000FFF726FB0220FEF723FA3222012160689C
:102BB000FFF71EFB0220FEF71BFA0135312DECD981
:102BC000002510E0642200216068FFF711FB01205E
:102BD000FEF70EFA322201216068FFF709FB01209F
:102BE000FEF706FA0135632DECD900221146606824
:102BF000FFF7FEFA38BD70B50546002616E06422E0
:102C000000216868FFF7F4FA0120FEF7F1F932229B
:102C100001216868FFF7ECFA0120FEF7E9F90134B9
:102C2000C72CECD96420FEF7E3F90136012E01D858
:102C30000024F5E7002211466868FFF7D9FA00235F
:102C400085F8253070BD00002DE9F04F2DED028B89
:102C500087B0B0B104466420FEF7CAF903F0DCFA8D
:102C6000F2EE067AB4EEE70AF1EE10FA0DD4A94BB3
:102C700093F87830009363B107B0BDEC028BBDE8E8
:102C8000F08FA54800F05CFAF6E7A44800F058FA87
:102C9000F2E7012384F8253003F0BEFA9FEDA07A15
:102CA000C7EE007A9FED9F7A27EE877ABCEEC77A4F
:102CB0008DED017A9DF804709FED9B7A67EE877A1F
:102CC000FCEEE77A17EE906A5FFA86F90025ADF818
:102CD0001650ADF81450ADF8125000230393C6F30C
:102CE0004606DDF80080AA46AB4607E0187BFEF7F3
:102CF0009FF818E0B2460AF10A060546B14524D904
:102D0000F2B201216068FFF773FA9620FEF770F9BE
:102D1000E3681A7C002AE9D0187BFEF789F8C0F531
:102D20007F600F3080B22D1A0135022DE2D808F1F4
:102D300001085FFA88F88344B8F1180FDBD9BBFBB0
:102D4000F8FB1FFA8BFBADF816B06068FFF790FB3D
:102D50004FF49670FEF74CF9E3681A7CAAB1187B21
:102D6000FEF766F8C0F57F600F3080B2ADF8120054
:102D70006068FFF72EFC7E08DDF800A04FF0000829
:102D8000C346CDF80480454611E0187BFEF750F8A5
:102D9000ECE7187BFEF74CF81EE0B046A7F10A03FB
:102DA000434501D80123019308F10A060546B742BD
:102DB00024D9F2B200216068FFF71AFA9620FEF7D4
:102DC00017F9E3681A7C002AE3D0187BFEF730F885
:102DD000C0F57F600F3080B22D1A0135022DDCD88E
:102DE0000AF1010A5FFA8AFA8344BAF1180FD5D9B9
:102DF000BBFBFAFB1FFA8BFBADF814B000221146A7
:102E00006068FFF7F5F940F2DC50FEF7F1F8019B3E
:102E10007BB9E368BDF816205A81E368BDF8142039
:102E20001A812046FFF7A0FEE06802F07DFF002334
:102E300015E02046FFF7DFFE1EE707EE903AF8EEBA
:102E4000677AB4EE007A67EE877A226967EE807A55
:102E500003F1100102EB8102C2ED007A01330F2B66
:102E60001BD8082BE9D9A3F1080207EE102AB8EE07
:102E7000477AF1EE0C6AC7EE267A9FED2C7A37EE90
:102E8000407A67EE877A226977EE807A03F1100143
:102E900002EB8102C2ED007AE0E72369D3ED107AFC
:102EA000B6EE007A77EE877AC3ED107A2369D3ED18
:102EB0001F7A77EEC77AC3ED1F7A009E0025DFEDFB
:102EC0001C8AA846AA4650E0002DCCBF0021012153
:102ED000606815F1310F0ADA164B83FB0523EA17F8
:102EE000A2EB2312D2B2FFF783F9009E47E0114B09
:102EF00083FB0523EA17C2EB2312D2B2F3E7BEEE3F
:102F0000007AB4EEC70AF1EE10FACCBF0123002319
:102F100059E000BF9C12002004F9000828F90008BD
:102F20009A99494100002043000034430000C84200
:102F3000000000001F85EB514FF00008C2466D49AC
:102F400081FB0531EB17C3EB21139A4408F101080B
:102F50009AFBF8F307EE103AB8EEC77A02EB80025C
:102F600082ED007AF0EE678A013D6FF0310303FBDA
:102F700009F3AB4231DA312EA6D80136F6B2012080
:102F8000FEF736F8E06802F0CFFEB0EE408A206926
:102F9000102140300AF0DAFC226900F1100302EB44
:102FA0008303D3ED007A38EE670AB5EEC00AF1EE7E
:102FB00010FAA4D4B6EE007AB4EEC70AF1EE10FA15
:102FC0004CBF01230023002BCED0F4EE678AF1EE34
:102FD00010FAB1D1F0EE687AB1E7009E0025DFED7E
:102FE000468AA846A9463AE0002DCCBF002101211F
:102FF000606815F1310F0ADA3E4B83FB0523EA17AF
:10300000A2EB2312D2B2FFF7F3F8009E30E0394B67
:1030100083FB0523EA17C2EB2312D2B2F3E7BEEE1D
:10302000007AB4EEC70AF1EE10FACCBF01230023F8
:1030300042E0304981FB0531EB17C3EB2113994482
:1030400008F10108072809D999FBF8F307EE903A2F
:10305000F8EEE77A02EB8002C2ED007A0135322306
:1030600007FB03F3AB4234DD312EBDD80136F6B297
:103070000120FDF7BDFFE06802F056FEB0EE408A89
:103080002069102140300AF061FC226900F1100330
:1030900002EB8303D3ED007A38EE670AB5EEC00A7F
:1030A000F1EE10FABBD4B6EE007AB4EEC70AF1EE38
:1030B00010FA4CBF01230023002BCFD0F4EE678A17
:1030C000F1EE10FAB5D0F0EE678A4FF00008C14675
:1030D000AFE7002211466068FFF78AF84FF47A7074
:1030E000FDF786FF2046FFF73FFD4FF47A70FDF7AE
:1030F0007FFFC1E51F85EB5100000000C0B1012238
:1031000080F824209FED0B6A20EE060ADFED0A6AA4
:10311000C0EE267A9FED097A77EE877AC0ED077ABE
:1031200060EE860AC0EEA67A77EE877AC0ED087A5E
:10313000704700BF00007F430000C842000000004D
:10314000C0B170B59AB0064601AC64252A4600218C
:1031500020460AF081FC3346074A294620460AF0F9
:1031600045FC2046FDF71CF881B2204609F0C2FB61
:103170001AB070BD704700BF4CF90008C0B170B5FF
:103180009AB0064601AC64252A46002120460AF082
:1031900063FC3346074A294620460AF027FC2046AE
:1031A000FCF7FEFF81B2204609F0A4FB1AB070BD07
:1031B000704700BF58F900081AB9084205D11046F7
:1031C0007047814303D000207047012070470120E1
:1031D000704780B110B582B0044620230193019B53
:1031E000202B11D04FF0500383F31188BFF36F8F62
:1031F000BFF34F8FFEE74FF0500383F31188BFF307
:103200006F8FBFF34F8FFEE7002340F8043B01F0C0
:1032100049FE01232377204602B010BD38B5202097
:1032200000F060FD044628B1002540F8045B01F081
:1032300039FE2577204638BD88B12DE9F0410C468E
:1032400016461D460746B1F1807F11D34FF050035B
:1032500083F31188BFF36F8FBFF34F8FFEE74FF0FB
:10326000500383F31188BFF36F8FBFF34F8FFEE7D7
:1032700041B94FF0500383F31188BFF36F8FBFF351
:103280004F8FFEE707F022FE50B9069B43B14FF087
:10329000500383F31188BFF36F8FBFF34F8FFEE7A7
:1032A00007F04CFBD7F800802A4621464046FFF73E
:1032B00083FFF8B18EB328EA04033B600023069332
:1032C00007F0D6FB069B93B148B94FF0E0234FF0CF
:1032D0008052C3F8042DBFF34F8FBFF36F8F07F0F9
:1032E0004DFE804610F0007F1AD028F07F484046FF
:1032F000BDE8F081069B002BE2D05EB900210DB144
:1033000041F08061069A2143381D07F0B7FC4FF069
:103310000008D5E74FF08071F1E700230693CFE76F
:1033200001F080FFD7F800802A4621464046FFF78B
:1033300043FF18B116B128EA04043C6001F094FF81
:10334000D3E770B170B50C460546B1F1807F11D35B
:103350004FF0500383F31188BFF36F8FBFF34F8F8C
:10336000FEE74FF0500383F31188BFF36F8FBFF375
:103370004F8FFEE701F056FF2E6826EA04042C600A
:1033800001F072FF304670BD08B5FFF7DAFF08BDE7
:1033900008B50A4600230146014808F08BFB08BD2A
:1033A00089330008EFF311834FF0500282F3118844
:1033B000BFF36F8FBFF34F8F006883F3118870479F
:1033C000F8B568B10D460446B1F1807F11D34FF0D6
:1033D000500383F31188BFF36F8FBFF34F8FFEE766
:1033E0004FF0500383F31188BFF36F8FBFF34F8FFC
:1033F000FEE700F10C0607F0A1FA206923682B43D1
:10340000236000270AE0216832EA010105D111E0BA
:10341000216841F0007107F0BFFC2846B0420ED091
:103420004568036823F07F4213F0806FEBD1216879
:103430001142F2D013F0807FEAD01743E8E7236807
:1034400023EA0703236007F013FB2068F8BD08B5E3
:10345000FFF7B6FF08BD000008B513460A4601464F
:10346000014808F027FB08BD4F34000838B502F0CA
:1034700059FE254B93F8E73A5BB1234BD3F82C3830
:1034800007EE903AF4EEC07AF1EE10FA12D501256B
:1034900000E000251C4B93F8E83A6BB11A4BD3F8C7
:1034A000343807EE903AF4EEC07AF1EE10FA1CD5FB
:1034B000012402E00025EDE700242A4604211348F8
:1034C00003F0DDFF9DB1124A136843F0400313601F
:1034D00022464FF480610D4803F0D1FF6CB10C4AD5
:1034E000136843F08003136038BD0024E5E7084A01
:1034F000136823F040031360EAE7054A136823F0DA
:1035000080031360F0E700BF18230020000402408E
:103510009C12002008B508F0F1FE6420FDF768FD5C
:103520000120FDF765FDFBE708B5FEF737FC6420D9
:10353000FDF75EFDFBE7000008B50A4A00210A48D6
:10354000FDF7FCFC094B1860094A00210948FDF70A
:10355000F5FC094B18600948FDF7C6FD084B1860DB
:1035600008BD00BF6CFD0008153500083C2F002089
:1035700048FD000829350008382F002038FD0008D4
:10358000342F002010B52DED068B08F0E1FCB0EED5
:10359000409A02F06FFCF0EE409A02F021FDB0EE8E
:1035A000408A3E4B93F8CB3A012B32D0022B3AD0D3
:1035B000002B68D1F0EE690AB0EE490A384806F0EF
:1035C0009FFEB0EE407A354BB3F8C03A07EE903A22
:1035D000F8EE677A67EEA97A67EE897ADFED316AED
:1035E00027EE260A67EE807A9FED2F7A67EE877ABC
:1035F0009FED2E7A67EE877A9FED2D7A38EE070AD7
:103600009FED2C7A20EE070A87EE800ABDEC068B30
:1036100010BDF0EE690AB0EE490A274806F070FEC8
:10362000B0EE407ACFE708F093FCF0EE408A02F06B
:1036300021FCF0EE400A214CB0EE680A204606F06C
:103640005FFEB0EE40AAA4F59054F0EE690AB0EE29
:10365000490A204606F054FEDFED127A2AEE27AA28
:1036600060EE0A8AF0EE690AB0EE490A04F590604D
:1036700006F046FEF7EE007A77EECA7A20EE270AC9
:1036800038EE807A9FE70E48FFF778FD0D4A136801
:1036900043F0010313609FED0C7A94E71823002098
:1036A000181300200AD7233CB5B7E7416F12833ABD
:1036B00033938843136F794498170020182500200E
:1036C00090F900089C1200200000000010B52DEDBC
:1036D000028BFFF757FFB0EE408A2E4B93F8CB3AA0
:1036E000012B0ED0022B33D0002B50D02A48FFF7ED
:1036F00045FD2A4A136843F001031360DFED288A71
:1037000006E0244BD3F8A83607EE903AC0EE278A9D
:1037100002F008FD234806F0B9FEDFED237AB4EE8F
:10372000E70AF1EE10FA0EDBDFED207AB4EEE70ADD
:10373000F1EE10FA07D89FED1E7AC0EE077A67EE19
:10374000A87A78EEA78AB0EE680ABDEC028B10BDAD
:1037500008F0FEFBF0EE408A02F08CFBF0EE400A2F
:10376000144CB0EE680A204606F0CAFDD4F8A8341E
:1037700007EE903AC8EE278ADFED0F7A20EE270A8F
:10378000F7EE007A77EEC07A68EEA78AC0E7DFED41
:10379000048ABDE71823002090F900089C1200203D
:1037A00000000000542D00200000FAC30000FA437E
:1037B0000000C842182500200AD7233C08B52DED8B
:1037C000028BFFF783FFB0EE408A08F0C1FB9FED4C
:1037D000047AC0EE077A88EE270ABDEC028B08BD9A
:1037E0000000F04210B52DED028BFFF7CBFE2D4B04
:1037F00093F8CB3A012B52D0B0EE408A022B28D05E
:10380000002B41D1274BD3F8A43607EE903AC0EEF7
:10381000278A02F087FC244806F038FEDFED237A81
:10382000B4EEE70AF1EE10FA0EDBDFED217AB4EE2A
:10383000E70AF1EE10FA07D89FED1E7AC0EE077A7C
:1038400067EEA87A78EEA78AB0EE680ABDEC028B24
:1038500010BD08F07DFBF0EE408A02F00BFBF0EEAD
:10386000400A154CB0EE680A204606F049FDD4F82F
:10387000A43407EE903AC8EE278ADFED107A20EEE6
:10388000270A68EE808AC4E70D48FFF777FC0D4AE7
:10389000136843F001031360DFED0B8AB9E7DFED36
:1038A0000A8AB6E718230020D42C00200000FAC3AF
:1038B0000000FA430000C842182500200AD7233C24
:1038C00090F900089C1200200000000008B510B11B
:1038D000034A106008BD0348FFF732FCFAE700BF57
:1038E000402F0020A4F9000808B5244B1B68002BCA
:1038F00042D0FFF777FF224BD3F8AC2607EE902A91
:10390000C0EE277AD3F8B03607EE103A27EE870AD2
:10391000F6EE007A20EE270AB5EEC00AF1EE10FAB4
:1039200009D4F7EE007AB4EEE70AF1EE10FA04DDFE
:10393000B0EE670A01E09FED130A0AF011FD9FED5A
:10394000127AC0EE077A9FED117A27EE870AB5EE5C
:10395000C00AF1EE10FA09D4DFED0D7AB4EEE70AF1
:10396000F1EE10FA04DDB0EE670A01E09FED050A02
:10397000024B1868FEF73AFF08BD00BF402F002039
:103980001823002000000000DB0F494000004843DE
:103990000000C84210B52DED028B254B1B6843B3C8
:1039A000244AD2F8CC16244B1960D2F8D0165960AC
:1039B000D2F8D4169960D2F8D8169961D2F8DC16EC
:1039C000D961D2F8E026DA601C4B93F87830032BEB
:1039D00013D0184BD3F8883600EE103A174B00225C
:1039E00083F87920124B1868FEF700FFBDEC028BBC
:1039F00010BD1348FFF7A4FBF8E7104B022283F831
:103A000079200C4BD3F8C43600EE103A0A4C20460D
:103A100001F015FB08F09CFAB0EE408A08F00EF9B0
:103A20000146B0EE480A204601F00CFBDAE700BF81
:103A3000802F002018230020442F00209C120020FB
:103A4000C0F9000830B587B0002832D01B4A10609A
:103A50001B4D284601F0EAFA1A4B6B6100232B61DB
:103A600069460024009401940294039404940594FC
:103A7000154BD3F8CC260092D3F8D0260192D3F878
:103A8000D4260292D3F8D8260392D3F8DC260492E7
:103A9000D3F8E0360593284601F050FB2346224632
:103AA00001210A48FDF7B2FA0121FDF703FB07B037
:103AB00030BD0748FFF744FBF9E700BF802F002027
:103AC000442F00200000C842182300209539000828
:103AD000D4F900082DE9F0478AB005AD002405941B
:103AE00006940794089409940094474B1A6B42F08B
:103AF00004021A631A6B02F004020092009A019405
:103B00001A6B42F080021A631A6B02F08002019273
:103B1000019A02941A6B42F001021A631A6B02F0C6
:103B200001020292029A03941A6B42F002021A6393
:103B30001A6B02F002020392039A04941A6B42F089
:103B400008021A631B6B03F008030493049BDFF85D
:103B5000C0A022464FF47051504603F090FC2B4F0A
:103B600022464FF23F41384603F089FCDFF8A4902B
:103B700022464FF40041484603F081FCDFF898806C
:103B800022460421404603F07AFC4FF4705305931B
:103B900001260696079408942946504603F084FBB4
:103BA0004FF23F43059306960794089429463846FA
:103BB00003F07AFB4FF400430593069607940896AA
:103BC0002946484603F070FB0423059306960794A4
:103BD00008942946404603F067FB4FF44073059371
:103BE0004FF48813069307942946384603F05CFB8C
:103BF00022460521172002F04DFF172002F05AFF40
:103C00000AB0BDE8F08700BF00380240000402405F
:103C10000008024000000240000C0240124A12F06C
:103C2000070F1ED0D11D21F00701C1F570531344B9
:103C30000A460E480260002141601344083B23F00D
:103C400007030B48036059601960991A51601360AB
:103C5000084B1960084B1960084B4FF000421A607E
:103C600070474FF47053E4E7A42F00209C2F0020EE
:103C7000982F0020902F0020942F0020842F0020C8
:103C8000164B1A461B688342FBD3516802EB010CAA
:103C9000844509D0416800EB010C634509D00360FD
:103CA000904219D01060704740680144516010463E
:103CB000F0E710B40A4C2468A3420BD05B681944A7
:103CC000416013681B680360904200D010605DF88B
:103CD000044B70470460F7E7704700BF9C2F00203B
:103CE000982F002038B5044606F028FE384B1B6894
:103CF000B3B1384B1B681C4250D1002C50D004F19A
:103D0000080214F0070F02D022F007020832002A3E
:103D100055D0314B1B68934253D330490C6804E0B3
:103D2000FFF77CFFE5E721461C466368934202D219
:103D30002368002BF7D1264B1B68A34243D00D68A4
:103D4000083523680B6063689B1A102B10D9A018E4
:103D500010F0070F08D04FF0500383F31188BFF322
:103D60006F8FBFF34F8FFEE743606260FFF788FFFE
:103D7000626819490B689B1A0B60194909688B42E4
:103D800001D217490B60134B1B6813436360002378
:103D90002360144A13680133136002E0002500E039
:103DA000002506F065FE15F0070F0ED04FF050030A
:103DB00083F31188BFF36F8FBFF34F8FFEE70025AA
:103DC000EFE70025EDE70025EBE7284638BD00BF0B
:103DD000982F0020842F0020942F00209C2F00205B
:103DE000902F00208C2F0020002834D038B50446B6
:103DF000A0F1080550F8043C174A1268134208D194
:103E00004FF0500383F31188BFF36F8FBFF34F8FD1
:103E1000FEE750F8081C41B14FF0500383F31188BE
:103E2000BFF36F8FBFF34F8FFEE723EA020340F823
:103E3000043C06F083FD54F8041C084A13680B4444
:103E400013602846FFF71CFF054A1368013313600F
:103E500006F00EFE38BD7047842F0020942F0020FE
:103E6000882F002008B50B480B4B03600B4B4360B9
:103E700000238360C3604FF4804202614361836129
:103E8000C361036203F018FB00B908BD01F05CF8E0
:103E9000FBE700BFA46B002000540040A086010097
:103EA00030B589B0002303930493059306930793D9
:103EB0000268144B9A4201D009B030BD002501952B
:103EC000114C236B43F002032363236B03F00203C3
:103ED0000193019BC02303931223049303230693AE
:103EE0000423079303A9094803F0DEF90295236C24
:103EF00043F400132364236C03F400130293029B26
:103F0000DAE700BF005400400038024000040240DD
:103F1000A0B110B50446836833B1012299881868AE
:103F200003F0ADFA02232375E36833B101229988C7
:103F3000186803F0A4FA0223237510BD7047A0B1DE
:103F400010B50446836833B100229988186803F0DD
:103F500096FA03232375E36833B100229988186821
:103F600003F08DFA0323237510BD704738B5002484
:103F70000BE02846FFF7E3FF124A136843F480235F
:103F800013601148FFF7DCF80134104B1B78A34293
:103F900017D904EB44030E4D05EBC3052B7D022B13
:103FA000F2D107F04BFE6B68C01A07EE900AF8EEEC
:103FB000E77AB7EE007AF4EEC77AF1EE10FAE3DDB5
:103FC000D7E738BD9C120020ECF90008B96C00203E
:103FD000F86B002008B5D0B10346714A1060714AF1
:103FE00092F8CA2A02B3012A72D06F48FFF7A8F8E4
:103FF0006E4B1B78002B40F0BA806D4A136843F477
:104000008023136043F001031360002008BD684A59
:10401000136843F48023136043F001031360654881
:10402000FFF78EF80020F1E75E4A92F8D22A013AB3
:10403000032ADDD8DFE802F002101F345E4A9060E8
:104040001062002313615D4B93625D4B02221A7074
:10405000564B04221A70CBE7574A00211161574989
:104060009162906008331362554B02221A704F4BD5
:1040700004221A70BCE7504A002111614F49916235
:10408000906000F11801D16000F108011162103355
:1040900053624B4B02221A70444B04221A70A7E75A
:1040A000454A0021116145491164464991654649D7
:1040B0009162906000F10801116200F110019163BA
:1040C0001833136504233E4A1370384A13708FE780
:1040D000344A92F8D22A013A032A89D8DFE802F05A
:1040E00002133727344A0021116138499162384957
:1040F0001164906010629063314B03221A702B4B55
:1041000006221A7074E72C4A002111612F4991622E
:104110002F491164906000F108011162103393631C
:10412000274B03221A70214B06221A7060E71D4AA2
:10413000022182F8D21A1E490A6842F480220A60DB
:10414000FFF748FF2348FEF7FBFF00205EE7154A14
:10415000022182F8D21A16490A6842F480220A60C3
:10416000FFF738FF1B48FEF7EBFF00204EE707EE96
:10417000903AF8EE677ADFED186A86EEA77A0C4B74
:1041800083ED087A00231A4601211448FCF73EFF0C
:1041900010B10121FCF78EFF0120114B187035E79B
:1041A000BC6C00201823002078FA0008BA6C0020AC
:1041B0009C12002008FA0008F86B0020000034432D
:1041C000B96C00200000B443000007440000F04236
:1041D0000000704330FA0008000034446D3F0008CE
:1041E000BB6C002008B5134B1B68134A00211170EB
:1041F000124A92F8CA2A2AB1012A1AD01048FEF7A8
:104200009FFF16E00F4A002111610F4911640F4909
:1042100091650F499162936003F10801116203F106
:10422000100191631833136504230A4A13700A4A74
:10423000137008BDBC6C0020B86C0020182300204F
:1042400078FA0008F86B0020000034430000B44303
:1042500000000744B96C0020BA6C002008B5124B6E
:104260001B68124A01211170114A92F8CA2A2AB118
:104270008A4217D00F48FEF763FF13E00E4A002171
:1042800011610E499162936003F11801D16003F14D
:104290000801116210335362094B02221A70094B54
:1042A00004221A7008BD00BFBC6C0020B86C00204E
:1042B0001823002078FA0008F86B0020000034432F
:1042C000B96C0020BA6C0020C0B110B5044607F0EC
:1042D000B5FC03462268121A002A0EDB6068C31A76
:1042E000002B0ADB012323752246054907F0F6FC63
:1042F00022460449206807F0F1FC10BD704700BF5A
:104300003F3F0008113F000808B52DED028B07F074
:104310001FFEB0EE408A01F0ADFD344B93F8D33A66
:10432000002B4BD0314BD3F8943608EE903A01F085
:10433000F9FE2F4806F0AAF8FAEE0E7AB4EEE70A74
:10434000F1EE10FA08DBF2EE0E7AB4EEE70AF1EEC7
:1043500010FA01D878EE808A244BB3F8BC3A07EE05
:10436000903AF8EE677AF4EEC87AF1EE10FA20D8B7
:104370001E4BB3F8BE3A07EE103AB8EE477A37EE66
:10438000877AB4EEC87AF1EE10FA12DBF4EE477ACF
:10439000F1EE10FA27D038EE678ADFED166A76EE76
:1043A000E86A28EE268A37EE677AC8EE077A78EE52
:1043B000A78AB0EE680ABDEC028B08BD0E4B93F8DD
:1043C0007830032B05D0094BD3F8843608EE903AA9
:1043D000ADE7F0EE400AB0EE480A084805F090FF5D
:1043E000F0EE408AA3E7DFED038AE2E7182300201E
:1043F000542C0020000000009C120020181C0020FB
:104400002DE9F8432DED088B864B93F8D23A002B1B
:1044100040D0B0EE409AF0EE608A0646824B1B78A0
:10442000C3B3824B1B68C3F3C00713F0080F31D02E
:104430007C4AD2F8902607EE902AB6EE007AF4EE87
:10444000C77AF1EE10FA06DBB1EE007AF4EEC77A25
:10445000F1EE10FA22D9B6EE007AF4EEC77AF1EE58
:1044600010FA09D4B1EE007AF4EEC77AF1EE10FA40
:1044700004DDF0EE477A01E0F6EE007A17EE902ABE
:104480006849C1F8902643F48023684A136068485D
:10449000FEF756FEBDEC088BBDE8F883FFF734FF4E
:1044A000F0EE409AB5EEC00AF1EE10FA09D4DFED55
:1044B000617AB4EEE70AF1EE10FA04DDF0EE679AE5
:1044C00001E0DFED5D9A594BC3ED099A01F0A4FEBE
:1044D000F2EE0C7A87EE807A524BD3F8903607EEE4
:1044E000903A67EE877AB6EE007AF4EEC77AF1EE8C
:1044F00010FA09D4B1EE007AF4EEC77AF1EE10FAB0
:1045000004DDF0EE477A01E0F6EE007A474BC3EDAA
:104510001C7A1B68C3F30014424A92F8D22A042A78
:104520000BD0002400BF3F4B93F8D23A042B15D098
:10453000B0EE49AA0027002424E04CB943F004035C
:104540003A4A13603D48FEF7FBFDFFF787FEE9E7B7
:10455000FFF748FE07F0F6FC0446E3E7384B1B780C
:1045600053B907EE904AB8EE67AADFED397A2AEE22
:1045700027AA3AEE09AADEE7B0EE49AA0027DAE751
:104580007FB101342F4B1B78A34283D904EB440342
:104590002D4D05EBC3052B7D002BF1D0032BEFD068
:1045A000EFE707F0E1FC04EB4402274B03EBC20307
:1045B000D3ED047A37EEE9BA03E0DFED257A3BEE7E
:1045C00027BAB5EEC0BAF1EE10FAF6D403E0DFED8B
:1045D000207A3BEE67BADFED1E7AB4EEE7BAF1EE71
:1045E00010FAF4DAF5EE408AF1EE10FA0DD068EE2A
:1045F000A77A9FED167AC7EE87AA0C4B93ED1C8A1B
:1046000028EE2A8A3BEE488A06E0DFED0BAAF4E7A3
:10461000DFED0F7A38EE278AB5EEC08AF1EE10FA98
:10462000F6D41DE018230020BB6C00209C12002053
:10463000A4FA00080000204200000000C4FA0008AC
:10464000B86C0020B96C0020F86B002000606A474D
:104650000000B443C0E1644C5FED037A38EE678A32
:104660005FED057AB4EEE78AF1EE10FAF4DAB0EE17
:10467000481AF0EE490A09F027F9002881D17BEEAB
:104680004A7AF5EEC07AF1EE10FA61D4F5EEC08AFE
:10469000F1EE10FA61D9F5EEC07AF1EE10FA5ED9BA
:1046A0005FED156A68EEA66A1FED166A86EE267A39
:1046B00067EE277AFCEEE77A17EE903A334404EB84
:1046C0004401544A02EBC102536038EE4A8AB5EE07
:1046D000C08AF1EE10FA44D4F5EEC08AF1EE10FA79
:1046E00044D9B5EEC08AF1EE10FA41D99FED4A7A6D
:1046F00028EE877ADFED496AC6EE877A67EE887A18
:10470000FCEEE77A17EE903A334404EB4402414959
:1047100041F832302846FFF7D7FD414B93F8D43AA1
:104720004BB33F4BD3F8983607EE903AF4EEE87A65
:10473000F1EE10FA1EDD3A4B93F8D23A012B23D05A
:10474000374B93F8D53A012B20D9013BDBB212E06D
:104750009FED317A77EE877A98E70023AEE7002362
:10476000ACE7DFED2D7A38EE278AB5E70023CBE7FB
:104770000023C9E70023022B28BF022398464FF0ED
:1047800001099FED288A27E00023F4E70023F2E7E0
:10479000204904EB440001EBC0025368DFED226ABC
:1047A00027EE267ABCEEC77A17EE10CA634441F8AA
:1047B000303067EEA67AFCEEE77A17EE901A0B44DB
:1047C000536009F101095FFA89F92846FFF77CFD7A
:1047D00008F1FF385FFA88F8B8F1000F16D0104BD7
:1047E000D3F89C2607EE102A104AD2ED1C7A77EEF9
:1047F000276A66EEAA6A38EE268AD3F8A03606EE55
:10480000903AF4EEC86AF1EE10FAC1D5074B83F87E
:104810007A90B6E6F86B00200000B443C0E1644C27
:10482000182300200000000000007A449C120020A1
:1048300008B5104B1B68104A012111700F4A92F8FD
:10484000CA2A2AB18A4214D00D48FEF779FC10E03A
:104850000C4A002111610C499162936003F1180127
:10486000D16003F10801116210335362074B022239
:104870001A7008BD846D0020C06C00201823002031
:10488000F4FA0008C46C002000003443C36C00201C
:1048900008B5124B1B68124A00211170114A92F898
:1048A000CA2A2AB1012A18D00F48FEF749FC14E0A1
:1048B0000E4A0F4911610F491164002191650E499B
:1048C0009162936003F10801116203F11001916399
:1048D00018331365094B04221A7008BD846D00203B
:1048E000C06C002018230020F4FA0008C46C0020DB
:1048F0000000B4430000074400003443C36C0020B0
:10490000A0B110B50446836833B1002299881868B5
:1049100002F0B5FD03232375E36833B100229988C3
:10492000186802F0ACFD0323237510BD704700002A
:1049300038B5002400E001340F4B1B78A34219D98D
:1049400004EB44030D4D05EBC3052B7D022BF2D187
:1049500007F074F96B68C01A0028ECDD2846FFF7F1
:10496000CFFF074A136843F4002313600548FEF79E
:10497000E7FBE0E738BD00BFC36C0020C46C00203B
:104980009C12002020FB0008A0B110B504468368EB
:1049900033B101229988186802F071FD0223237552
:1049A000E36833B101229988186802F068FD022398
:1049B000237510BD70470000C0B110B5044607F064
:1049C0003DF903462268121A002A0EDB6068C31AFA
:1049D000002B0ADB012323752246054907F07EF9E7
:1049E00022460449206807F079F910BD704700BFDE
:1049F000014900088949000808B500B303465C4A2C
:104A000010605C4A92F8D12A002A00F0AF80594920
:104A100091F8CA1A01B301295FD05748FEF790FBFD
:104A2000564B1B78002B40F09380554A136843F493
:104A30008023136043F001031360002097E0504A85
:104A4000136843F40023136043F0010313604D48DF
:104A5000FEF776FB00208AE0022A11D0032A24D038
:104A6000012ADDD1484A9060106200231361474B50
:104A70009362474B04221A70404B02221A70CFE710
:104A8000414A0021116141499162906000F1180191
:104A9000D16000F108011162103353623C4B0422D3
:104AA0001A70364B02221A70BAE7374A3949116137
:104AB000394911640021916534499162906000F197
:104AC0000801116200F1100191631833136504238A
:104AD0002F4A1370294A1370A2E7022A14D0032A1E
:104AE00026D0012A9CD1284A002111612B499162CC
:104AF0002B491164906010629063254B06221A7056
:104B00001E4B03221A708BE71F4A002111612349B3
:104B1000916223491164906000F108011162103321
:104B200093631B4B06221A70144B03221A7077E70B
:104B3000104A022182F8D11A11490A6842F400226F
:104B40000A60FFF759FF1748FEF7FAFA00200EE057
:104B500000231A4601211448FCF758FA10B101212C
:104B6000FCF7A8FA0120114B187000E0012008BDE5
:104B7000846D002018230020F4FA0008C36C002084
:104B80009C1200203CFB0008C46C00200000344351
:104B9000C26C00200000B443000007440000F04253
:104BA0000000704364FB000831490008C16C00201C
:104BB00008B5FEF703FEDFED0F7A80EE277A0E4B85
:104BC000D3F8C03607EE903AC7EE277A9FED0B7AFE
:104BD00067EE877A9FED0A7A67EE877A094B1B7832
:104BE00007EE103AB8EE477A87EE870A064B83ED58
:104BF0001D0A08BDCDCC2C3F1823002000007042B8
:104C000000007A44C26C00209C120020F8B52DED03
:104C1000088B984B93F8D13A002B00F02781B0EE27
:104C2000409AF0EE608A0546934A1278002A00F016
:104C30001D81924A1268C2F3C00612F0080F00F0FC
:104C400015818C49D1F8BC160AEE101AB5EEC0AA2F
:104C5000F1EE10FA09D4DFED8A7AB4EEE7AAF1EEAC
:104C600010FA04DDB0EE67AA01E09FED86AAC2F358
:104C70000014032B0BD0002400BF7E4B93F8D13AD5
:104C8000032B15D0F0EE499A0026002424E04CB9FD
:104C900042F00402794B1A607B48FEF751FAFFF7A5
:104CA000C7FDE9E7FFF7F4FD07F04CF90446E3E739
:104CB000764B1B7853B907EE904AF8EE679ADFED12
:104CC000747A69EEA79A79EE899ADEE7F0EE499A4E
:104CD0000026DAE786B101346E4B1B78A34240F21E
:104CE000C58004EB44036C4F07EBC3073B7D032BEC
:104CF000F0D0002BEED0EEE707F036F9B0EE40BA78
:104D000004EB4402644B03EBC203D3ED047A77EE69
:104D1000CAAAF5EEC0AAF1EE10FA04D5DFED5C7A6E
:104D20007AEEA7AAF5E7DFED5A7AF4EEE7AAF1EEFC
:104D300010FA04DBDFED567A7AEEE7AAF3E7F5EE38
:104D4000408AF1EE10FA15D068EEA77A9FED537AFB
:104D500087EE878AFFF72CFF20EE088A3AEEC88A92
:104D6000B5EEC08AF1EE10FA07D5DFED497A38EEDC
:104D7000278AF5E79FED438AECE7DFED457AB4EE4D
:104D8000E78AF1EE10FA04DBDFED417A38EE678A4C
:104D9000F3E7B0EE481AF0EE490AB0EE4B0A08F01D
:104DA00093FD002897D17AEEE97AF5EEC07AF1EE1C
:104DB00010FA49D4F5EEC08AF1EE10FA49D9F5EEB1
:104DC000C07AF1EE10FA46D9DFED316A68EEA66AD4
:104DD0009FED336A86EE267A67EE277AFCEEE77A55
:104DE00017EE903AE81838EE698AB5EEC08AF1EE0F
:104DF00010FA32D4F5EEC08AF1EE10FA32D9B5EEDF
:104E0000C08AF1EE10FA2FD99FED217A28EE877A29
:104E1000DFED236AC6EE877A67EE887AFCEEE77AE2
:104E200017EE902AA9189B1A312B7FF654AF1A4B14
:104E300004EB440203EBC20CCCF8040043F832103C
:104E40003846FFF7B9FD46E79FED117A77EE877A8E
:104E5000B0E70023C6E70023C4E7DFED0D7A38EEA4
:104E6000278AC7E70022DDE70022DBE7BDEC088BDD
:104E7000F8BD00BF18230020C16C00209C12002048
:104E80000000344300000000B4FB0008C06C0020A8
:104E90000000B443C36C0020C46C002000606A476B
:104EA000C0E1644C00F1080343604FF0FF328260C0
:104EB000C3600361002303607047002303617047F0
:104EC00043684B609A688A60516099600861036822
:104ED00001330360704730B40D68B5F1FF3F11D066
:104EE00000F108031C465B681A68AA42FAD9636895
:104EF0004B6099608C6061600861036801330360F6
:104F000030BC70470469F2E70369416882688A60CF
:104F1000416851605A68824206D0002202611A68D4
:104F2000013A1A601868704782685A60F5E7000015
:104F300008B50268034B9A4200D008BD01F0A2F9FF
:104F4000FBE700BF0048014072B6FEE710B594B021
:104F500008AC30220021204608F07EFD0023039398
:104F6000049305930693079301931F4A116C41F034
:104F700080511164126C02F080520192019A0293E6
:104F80001A490A6822F4404242F400420A600A6860
:104F900002F440420292029A0222089201210B91ED
:104FA00010210C910E920F9308231093C02211929E
:104FB000062212921393204603F0BAF978B90F2310
:104FC000039302210491002305934FF4805206922B
:104FD000079303A803F0FCFB18B914B010BDFFF74A
:104FE000B3FFFFF7B1FF00BF003802400070004080
:104FF00008B501F02DF9FFF7A9FFFEF76BFDFDF7EE
:1050000021FB06F03BFAFBF74BFD06F0B1F906F089
:1050100059F8FDF7C5F8FEF725FF06F0A5F8FBF7F0
:105020005FFFFEF789FAFBF76DFFFEE700230362DF
:1050300043628362C362002202638363704780ED30
:105040000D0A7047036BCB1A07EE903AF8EE677AB9
:105050009FED397AC7EE876A90ED0D6A36EE406AA9
:10506000D0ED005A65EE865A90ED087AD0ED017ABF
:10507000B6EE005A67EE857A67EEA67A90ED0A5A88
:1050800035EE065A67EE857A77EE277AC0ED087A14
:1050900090ED077AF4EEC77AF1EE10FA38DD80ED84
:1050A000087AD0ED027A77EEA77A90ED0B7A30EE9F
:1050B000477A67EE877A90ED037A37EE077A37EE14
:1050C000665AD0ED094A25EE245A77EE857AF1EE3C
:1050D000677A37EE267AC7EE876AC0ED096AD0EDA7
:1050E000087A77EEA57A76EEA77AC0ED0E7A90ED83
:1050F000057AF4EEC77AF1EE10FA13DD80ED0E7A40
:1051000080ED0A6A80ED0B0A016390ED0E0A70478C
:1051100090ED067AF4EEC77AF1EE10FAC1D580ED83
:10512000087ABEE790ED047AF4EEC77AF1EE10FA51
:10513000E6D580ED0E7AE3E70024744958B10A6899
:1051400002604A6842608A688260CA6882610A694D
:10515000C2614A69C260704782B0002301930D4B5F
:105160001B68B3F1FF3F08D04FF0500383F3118861
:10517000BFF36F8FBFF34F8FFEE74FF0500383F302
:105180001188BFF36F8FBFF34F8F019B002BFCD0B3
:1051900002B07047A400002008480068006880F34F
:1051A00008884FF0000080F3148862B661B6BFF340
:1051B0004F8FBFF36F8F00DF00BF000008ED00E0EE
:1051C000DFF80C00016841F47001016070470000D5
:1051D00088ED00E04FF0807340F8043C21F00101BD
:1051E00040F8081C054B40F80C3C40F8202C6FF0B0
:1051F000020340F8243C4438704700BF595100086E
:10520000074B19680868B0E8F04F80F30988BFF3CE
:105210006F8F4FF0000080F311887047AFF300806C
:10522000547300204FF0500383F31188BFF36F8F46
:10523000BFF34F8F0B4A136801331360012B00D06B
:1052400070474FF0E023D3F8043D13F0FF0FF7D081
:105250004FF0500383F31188BFF36F8FBFF34F8F6D
:10526000FEE700BFA4000020094B1B6843B94FF0C4
:10527000500383F31188BFF36F8FBFF34F8FFEE7A7
:10528000013B034A13600BB983F31188704700BFD9
:10529000A40000200000000000000000000000004A
:1052A000EFF30980BFF36F8F154B1A681EF0100FD4
:1052B00008BF20ED108A20E9F04F10602DE90900A9
:1052C0004FF0500080F31188BFF34F8FBFF36F8F03
:1052D00005F070FC4FF0000080F3118809BC1968DC
:1052E0000868B0E8F04F1EF0100F08BFB0EC108A4D
:1052F00080F30988BFF36F8F704700BFAFF3008062
:105300005473002008B54FF0500383F31188BFF3A6
:105310006F8FBFF34F8F05F01FFB28B14FF0E023D5
:105320004FF08052C3F8042D002383F3118808BD89
:105330004FF0E022002313619361054B1B68054980
:10534000A1FB03139B09013B5361072313617047C2
:10535000B0000020D34D62104FF0E023D3F8002DB1
:105360003D4B9A421CD04FF0E023D3F8002D3B4B2D
:105370009A421ED030B583B0394B1A78D2B201921E
:10538000FF221A701B78DBB28DF803309DF80330D2
:1053900003F05003334A1370334B07221A601BE0AB
:1053A0004FF0500383F31188BFF36F8FBFF34F8F1C
:1053B000FEE74FF0500383F31188BFF36F8FBFF305
:1053C0004F8FFEE7284A1368013B13609DF80330B6
:1053D0005B00DBB28DF803309DF8033013F0800FD3
:1053E000F0D1214B1B68032B08D04FF0500383F3FF
:1053F0001188BFF36F8FBFF34F8FFEE71B021A4A6E
:10540000136003F4E0631360019BDBB2144A137072
:105410004FF0E024D4F8203D43F47003C4F8203D5D
:10542000D4F8203D43F07043C4F8203DFFF780FFDF
:1054300000250E4B1D60FFF7C3FED4F8343F43F048
:105440004043C4F8343FFFF7A7FE05F0B3FBFFF776
:1054500083FE284603B030BD71C20F4170C20F41B8
:1054600000E400E08C6D0020886D0020A400002086
:10547000EFF305830F2B0ED9114A9A5C114B1B7861
:105480009A4208D24FF0500383F31188BFF36F8F15
:10549000BFF34F8FFEE74FF0E023D3F80C3D03F44A
:1054A000E063094A1268934208D94FF0500383F32E
:1054B0001188BFF36F8FBFF34F8FFEE7704700BFB8
:1054C000F0E300E08C6D0020886D002010B50446EC
:1054D000FFF7A8FEA26BE36B9A4204D00024FFF70B
:1054E000C3FE204610BD0124F9E710B50446FFF7BE
:1054F00099FEA36B23B90124FFF7B6FE204610BD29
:105500000024F9E770B504461546866B026C5AB95B
:1055100003681BB100200136A66370BD806805F0EA
:10552000E5FC0023A360F6E76DB9406808F0C8FA0F
:105530006368226C13446360A268934219D32368A2
:1055400063602846E7E7C06808F0BAFAE368226CAF
:1055500051429B1AE3602268934202D2A3680B4433
:10556000E360022D01D00020D5E726B1013E0020E6
:10557000D1E72846CFE70020CDE70346026C6AB1A9
:1055800010B50846D9681144D9609C68A14201D37E
:105590001968D960D96808F093FA10BD704738B51A
:1055A0000546FFF73FFE95F8454064B201E0013C37
:1055B00064B2002C0ADD6B6A43B105F1240005F0EA
:1055C000A5FB0028F3D005F07BFCF0E7FF2385F86E
:1055D0004530FFF749FEFFF725FE95F8444064B2D9
:1055E00001E0013C64B2002C0ADD2B6943B105F1F6
:1055F000100005F08BFB0028F3D005F061FCF0E70C
:10560000FF2385F84430FFF72FFE38BD38B5E0B1F1
:105610000D460446FFF706FE2368E26B216C01FB92
:105620000230A0600020A0636360013A02FB0133F6
:10563000E360FF2384F8443084F84530FDB92369E2
:1056400063B9FFF711FE012038BD4FF0500383F31B
:105650001188BFF36F8FBFF34F8FFEE704F1100087
:1056600005F054FB0028ECD04FF0E0234FF08052BF
:10567000C3F8042DBFF34F8FBFF36F8FE1E704F141
:105680001000FFF70FFC04F12400FFF70BFCD8E734
:1056900038B51D46049C0B4649B92460E063236479
:1056A00001212046FFF7B2FF84F84C5038BD22603C
:1056B000F4E740B94FF0500383F31188BFF36F8FC5
:1056C000BFF34F8FFEE710B584B01C46844653B13C
:1056D00092B189B94FF0500383F31188BFF36F8FF4
:1056E000BFF34F8FFEE74FF0500383F31188BFF3F2
:1056F0006F8FBFF34F8FFEE76AB150230393039B75
:10570000502B13D04FF0500383F31188BFF36F8FEA
:10571000BFF34F8FFEE70029EFD04FF0500383F324
:105720001188BFF36F8FBFF34F8FFEE7039B0123F9
:1057300084F8463000949DF818306046FFF7A8FFC3
:10574000204604B010BD40B94FF0500383F31188D8
:10575000BFF36F8FBFF34F8FFEE7F0B583B00D46F9
:105760001446064601FB00F05030FEF7BBFA074630
:1057700050B1002380F846300090234600F15002DB
:1057800029463046FFF784FF384603B0F0BDF0B538
:1057900085B0019288B10F461D460446B1B1022D75
:1057A00020D1E36B012B1DD04FF0500383F3118800
:1057B000BFF36F8FBFF34F8FFEE74FF0500383F3BC
:1057C0001188BFF36F8FBFF34F8FFEE7036C002B81
:1057D000E5D04FF0500383F31188BFF36F8FBFF311
:1057E0004F8FFEE705F072FB064658B9019B002B70
:1057F00048D04FF0500383F31188BFF36F8FBFF38E
:105800004F8FFEE700263DE02A4639462046FFF747
:1058100079FE636A7BB948B14FF0E0234FF08052C4
:10582000C3F8042DBFF34F8FBFF36F8FFFF71CFD3D
:10583000012005B0F0BD04F1240005F067FA00284E
:10584000F4D04FF0E0234FF08052C3F8042DBFF3A3
:105850004F8FBFF36F8FE9E7FFF706FD0020E8E702
:1058600002A805F0DDFA012619E0002384F844308F
:1058700021E0002384F8453023E02046FFF78FFE27
:1058800005F0F6F8FFF7CEFCA26BE36B9A42BBD3B0
:10589000022DB9D0019B002BDED0002EE0D0FFF707
:1058A000E3FC05F04BF8FFF7BDFC94F8442052B23E
:1058B000B2F1FF3FD9D094F8452052B2B2F1FF3F88
:1058C000D7D0FFF7D1FC01A902A805F0B5FAD8B9E5
:1058D0002046FFF7FBFD0028CFD0019904F110000E
:1058E00005F0B4F92046FFF75AFE05F0C1F800288C
:1058F000C8D14FF0E0234FF08052C3F8042DBFF31E
:105900004F8FBFF36F8FBDE72046FFF748FE05F0CE
:10591000AFF800208DE72DE9F84390B10F46164609
:105920001C460546B1B1022C20D1EB6B012B1DD0DA
:105930004FF0500383F31188BFF36F8FBFF34F8F86
:10594000FEE74FF0500383F31188BFF36F8FBFF36F
:105950004F8FFEE7036C002BE5D04FF0500383F32D
:105960001188BFF36F8FBFF34F8FFEE7FFF780FD06
:10597000EFF311884FF0500383F31188BFF36F8F5B
:10598000BFF34F8FAA6BEB6B9A4206D3022C04D065
:10599000002088F31188BDE8F88395F845904FFA08
:1059A00089F9AB6B224639462846FFF7ABFDB9F1C2
:1059B000FF3F06D009F101035BB285F845300120B5
:1059C000E7E76B6A0BB90120E3E705F1240005F076
:1059D0009DF918B126B101203060DAE70120D8E73F
:1059E0000120D6E7F0B585B0019290B10F4604468C
:1059F000C1B105F06BFA064600BB019B002B5ED0DF
:105A00004FF0500383F31188BFF36F8FBFF34F8FB5
:105A1000FEE74FF0500383F31188BFF36F8FBFF39E
:105A20004F8FFEE7036C002BE3D04FF0500383F35E
:105A30001188BFF36F8FBFF34F8FFEE700263EE064
:105A400039462046FFF799FD013DA563236923B937
:105A5000FFF70AFC012005B0F0BD04F1100005F0CD
:105A600055F90028F4D04FF0E0234FF08052C3F8EE
:105A7000042DBFF34F8FBFF36F8FE9E7FFF7F4FB00
:105A80000020E8E702A805F0CBF9012621E0002379
:105A900084F8443029E0002384F845302BE0204688
:105AA000FFF77DFD04F0E4FF09E02046FFF777FDF6
:105AB00004F0DEFF2046FFF718FD00283FD1FFF776
:105AC000B1FBA56B002DBBD1019B002BD6D0002EC6
:105AD000D8D0FFF7C9FB04F031FFFFF7A3FB94F820
