:020000040800F2
:10000000000001208DAC0008FD6D0008FF6D0008A8
:10001000016E0008036E0008056E00080000000075
:10002000000000000000000000000000312D00086A
:10003000076E000800000000D12D00084D0E0008DA
:10004000DDAC0008DDAC0008DDAC0008DDAC00086C
:10005000DDAC0008DDAC0008DDAC0008DDAC00085C
:10006000DDAC0008DDAC0008DDAC0008DDAC00084C
:10007000DDAC0008DDAC0008DDAC0008DDAC00083C
:10008000DDAC0008DDAC0008DDAC000800000000BD
:10009000000000000000000000000000096E0008E1
:1000A000DDAC0008DDAC0008156E0008DDAC000812
:1000B0002D6E0008DDAC0008DDAC0008DDAC0008EA
:1000C000DDAC0008DDAC0008DDAC0008DDAC0008EC
:1000D000DDAC0008DDAC0008DDAC0008000000006D
:1000E000DDAC0008DDAC0008DDAC0008000000005D
:1000F000000000000000000000000000DDAC00086F
:1001000000000000DDAC0008DDAC0008DDAC00083C
:1001100000000000000000000000000000000000DF
:10012000416E0008DDAC0008DDAC0008DDAC000865
:10013000DDAC00080000000000000000000000002E
:10014000000000000000000000000000516E0008E8
:10015000DDAC0008DDAC0008DDAC0008DDAC00085B
:10016000DDAC0008DDAC000800000000000000006D
:10017000000000000000000000000000000000007F
:1001800000000000DDAC00080000000000000000DE
:04019000DDAC0008DA
:1001A000034613F8012B002AFBD1181A01387047B7
:1001B00001F0FF01102A2BDB10F0070F08D010F818
:1001C000013B013A8B422DD010F0070F42B3F6D11C
:1001D000F0B441EA012141EA014122F007047FF035
:1001E00000070023F0E80256083C85EA010586EA8C
:1001F000010685FA47F5A3FA87F586FA47F6A5FAC8
:1002000087F68EB9EED1F0BC01F0FF0102F00702D3
:1002100032B110F8013B013A83EA010313B1F8D17E
:100220000020704701387047002D06BF354603385F
:10023000073815F0010F07D1013015F4807F02BF98
:10024000013015F4C03F0130F0BC0138704700BFE9
:1002500081F0004102E000BF83F0004330B54FEA77
:1002600041044FEA430594EA050F08BF90EA020FE4
:100270001FBF54EA000C55EA020C7FEA645C7FEA77
:10028000655C00F0E2804FEA5454D4EB5555B8BF9A
:100290006D420CDD2C4480EA020281EA030382EA0B
:1002A000000083EA010180EA020281EA0303362D9D
:1002B00088BF30BD11F0004F4FEA01314FF4801C70
:1002C0004CEA113102D0404261EB410113F0004F82
:1002D0004FEA03334CEA133302D0524263EB430339
:1002E00094EA050F00F0A780A4F10104D5F1200ED7
:1002F0000DDB02FA0EFC22FA05F2801841F1000132
:1003000003FA0EF2801843FA05F359410EE0A5F105
:1003100020050EF1200E012A03FA0EFC28BF4CF036
:10032000020C43FA05F3C01851EBE37101F00045EC
:1003300007D54FF0000EDCF1000C7EEB00006EEBF9
:100340000101B1F5801F1BD3B1F5001F0CD3490883
:100350005FEA30004FEA3C0C04F101044FEA4452DA
:1003600012F5800F80F09A80BCF1004F08BF5FEA61
:10037000500C50F1000041EB045141EA050130BD41
:100380005FEA4C0C404141EB0101013C28BFB1F553
:10039000801FE9D291F0000F04BF01460020B1FA9E
:1003A00081F308BF2033A3F10B03B3F120020CDA71
:1003B0000C3208DD02F1140CC2F10C0201FA0CF04F
:1003C00021FA02F10CE002F11402D8BFC2F1200CB4
:1003D00001FA02F120FA0CFCDCBF41EA0C0190406A
:1003E000E41AA2BF01EB0451294330BD6FEA0404B3
:1003F0001F3C1CDA0C340EDC04F11404C4F120029E
:1004000020FA04F001FA02F340EA030021FA04F3AF
:1004100045EA030130BDC4F10C04C4F1200220FA06
:1004200002F001FA04F340EA0300294630BD21FA44
:1004300004F0294630BD94F0000F83F4801306BF0A
:1004400081F480110134013D4EE77FEA645C18BFFE
:100450007FEA655C29D094EA050F08BF90EA020F95
:1004600005D054EA000C04BF1946104630BD91EA8D
:10047000030F1EBF0021002030BD5FEA545C05D190
:100480004000494128BF41F0004130BD14F58004CF
:100490003CBF01F5801130BD01F0004545F0FE4143
:1004A00041F470014FF0000030BD7FEA645C1ABF78
:1004B000194610467FEA655C1CBF0B46024650EAAF
:1004C000013406BF52EA033591EA030F41F40021DB
:1004D00030BD00BF90F0000F04BF0021704730B561
:1004E0004FF4806404F132044FF000054FF0000136
:1004F00050E700BF90F0000F04BF0021704730B5F7
:100500004FF4806404F1320410F0004548BF4042CB
:100510004FF000013EE700BF42004FEAE2014FEA20
:1005200031014FEA02701FBF12F07F4393F07F4FFB
:1005300081F06051704732F07F4208BF704793F0FE
:100540007F4F04BF41F40021704730B54FF4607411
:1005500001F0004521F000411CE700BF50EA010214
:1005600008BF704730B54FF000050AE050EA0102BD
:1005700008BF704730B511F0004502D5404261EB2D
:1005800041014FF4806404F132045FEA915C3FF46E
:10059000D8AE4FF003025FEADC0C18BF03325FEA0B
:1005A000DC0C18BF033202EBDC02C2F1200300FABC
:1005B00003FC20FA02F001FA03FE40EA0E0021FAE1
:1005C00002F11444BDE600BF70B54FF0FF0C4CF4CF
:1005D000E06C1CEA11541DBF1CEA135594EA0C0F81
:1005E00095EA0C0F00F0DEF82C4481EA030621EABC
:1005F0004C5123EA4C5350EA013518BF52EA0335F7
:1006000041F4801143F4801338D0A0FB02CE4FF0A8
:100610000005E1FB02E506F00042E0FB03E54FF0D8
:100620000006E1FB03569CF0000F18BF4EF0010ED0
:10063000A4F1FF04B6F5007F64F5407404D25FEACC
:100640004E0E6D4146EB060642EAC62141EA55517F
:100650004FEAC52040EA5E504FEACE2EB4F1FD0CC1
:1006600088BFBCF5E06F1ED8BEF1004F08BF5FEA3F
:10067000500E50F1000041EB045170BD06F00046F1
:1006800046EA010140EA020081EA0301B4EB5C049E
:10069000C2BFD4EB0C0541EA045170BD41F4801196
:1006A0004FF0000E013C00F3AB8014F1360FDEBFBB
:1006B000002001F0004170BDC4F10004203C35DA97
:1006C0000C341BDC04F11404C4F1200500FA05F31A
:1006D00020FA04F001FA05F240EA020001F00042BB
:1006E00021F0004110EBD37021FA04F642EB060131
:1006F0005EEA430E08BF20EAD37070BDC4F10C045B
:10070000C4F1200500FA04F320FA05F001FA04F21E
:1007100040EA020001F0004110EBD37041F100010A
:100720005EEA430E08BF20EAD37070BDC4F1200515
:1007300000FA05F24EEA020E20FA04F301FA05F27D
:1007400043EA020321FA04F001F0004121FA04F225
:1007500020EA020000EBD3705EEA430E08BF20EAF5
:10076000D37070BD94F0000F0FD101F0004640002F
:1007700041EB010111F4801F08BF013CF7D041EAB1
:10078000060195F0000F18BF704703F000465200B5
:1007900043EB030313F4801F08BF013DF7D043EA86
:1007A0000603704794EA0C0F0CEA135518BF95EA3C
:1007B0000C0F0CD050EA410618BF52EA4306D1D1C3
:1007C00081EA030101F000414FF0000070BD50EAE2
:1007D000410606BF1046194652EA430619D094EA6C
:1007E0000C0F02D150EA013613D195EA0C0F05D156
:1007F00052EA03361CBF104619460AD181EA0301AA
:1008000001F0004141F0FE4141F470014FF0000061
:1008100070BD41F0FE4141F4780170BD70B54FF0FC
:10082000FF0C4CF4E06C1CEA11541DBF1CEA13557C
:1008300094EA0C0F95EA0C0F00F0A7F8A4EB05045E
:1008400081EA030E52EA03354FEA013100F0888055
:100850004FEA03334FF0805545EA131343EA12631E
:100860004FEA022245EA111545EA10654FEA0026D3
:100870000EF000419D4208BF964244F1FD0404F58C
:10088000407402D25B084FEA3202B61A65EB0305E8
:100890005B084FEA32024FF480104FF4002CB6EBA5
:1008A000020E75EB030E22BFB61A754640EA0C0025
:1008B0005B084FEA3202B6EB020E75EB030E22BF65
:1008C000B61A754640EA5C005B084FEA3202B6EBA6
:1008D000020E75EB030E22BFB61A754640EA9C0065
:1008E0005B084FEA3202B6EB020E75EB030E22BF35
:1008F000B61A754640EADC0055EA060E18D04FEAF3
:10090000051545EA16754FEA06164FEAC30343EA92
:1009100052734FEAC2025FEA1C1CC0D111F4801F5F
:100920000BD141EA00014FF000004FF0004CB6E758
:1009300011F4801F04BF01430020B4F1FD0C88BFF7
:10094000BCF5E06F3FF6AFAEB5EB030C04BFB6EB02
:10095000020C5FEA500C50F1000041EB045170BDF5
:100960000EF0004E4EEA113114EB5C04C2BFD4EB22
:100970000C0541EA045170BD41F480114FF0000EA6
:10098000013C90E645EA060E8DE60CEA135594EA22
:100990000C0F08BF95EA0C0F3FF43BAF94EA0C0F25
:1009A0000AD150EA01347FF434AF95EA0C0F7FF49A
:1009B00025AF104619462CE795EA0C0F06D152EAEE
:1009C00003353FF4FDAE1046194622E750EA4106D2
:1009D00018BF52EA43067FF4C5AE50EA41047FF4E3
:1009E0000DAF52EA43057FF4EBAE12E74A0011D295
:1009F00012F5001211D20DD56FF47873B3EB625279
:100A00000ED44FEAC12343F0004343EA505323FA84
:100A100002F070474FF00000704750EA013002D1F9
:100A20004FF0FF3070474FF00000704753B94AB99C
:100A3000002908BF00281CBF4FF0FF314FF0FF30E6
:100A400000F00CB8ADF1080C6DE904CE0AF032FFED
:100A5000DDF804E0DDE9022304B07047704700BF11
:100A600010B5054C237833B9044B13B10448AFF3E8
:100A700000800123237010BD9C05002000000000B1
:100A8000ACBB000808B5034B1BB103490348AFF3E7
:100A9000008008BD00000000A0050020ACBB0008DD
:100AA00010B58CB00024089409940A940B94202269
:100AB000214668460AF04AF98348844B03604FF4A4
:100AC00080334360846001230361047680F8204012
:100AD000C4627F4A8262C4600D22C26180F83040E5
:100AE000436103F0B3FA002840F0B8800023089374
:100AF000012209920A9308A9734803F0D1FB002848
:100B000040F0AF80012308930223099308A96E489F
:100B100003F0C6FB002840F0A780022308930323BC
:100B2000099308A9684803F0BBFB002840F09F80A8
:100B3000032308930423099308A9634803F0B0FB37
:100B4000002840F09780042308930523099308A9FF
:100B50005D4803F0A5FB002840F08F800523089333
:100B60000623099308A9584803F09AFB002840F08F
:100B70008780062308930723099308A9524803F0A6
:100B80008FFB00287FD1072308930823099308A926
:100B90004D4803F085FB002878D10E2308930923E4
:100BA000099308A9484803F07BFB002871D10A2368
:100BB0000893099308A9444803F072FB00286BD1FD
:100BC0000B230893099308A93F4803F069FB002809
:100BD00065D10C230893099308A93B4803F060FBF7
:100BE00000285FD10D230893099308A9364803F024
:100BF00057FB002859D100230093012201920422BF
:100C0000049202930793334A06928DF815308DF8BB
:100C10001430039369462C4803F00CFC002847D19C
:100C200001230093022301936946274803F002FC45
:100C3000002840D1022300930323019369462248F0
:100C400003F0F8FBD0BB0323009304230193694610
:100C50001D4803F0EFFBA0BB0CB010BD01F018FF66
:100C600044E701F015FF4DE701F012FF55E701F0F1
:100C70000FFF5DE701F00CFF65E701F009FF6DE78D
:100C800001F006FF75E701F003FF7CE701F000FFCC
:100C900083E701F0FDFE8AE701F0FAFE90E701F03C
:100CA000F7FE96E701F0F4FE9CE701F0F1FEA2E703
:100CB00001F0EEFEB4E701F0EBFEBBE701F0E8FE69
:100CC000C1E701F0E5FEC7E718060020002001405B
:100CD0000100000F01000F00F0B589B0002303935D
:100CE0000493059306930793026803F1804303F589
:100CF00090339A4201D009B0F0BD0446002500951A
:100D000003F58C335A6C42F480725A645A6C02F4C4
:100D100080720092009A01951A6B42F004021A63E5
:100D20001A6B02F004020192019A02951A6B42F0CA
:100D300001021A631B6B03F001030293029B1F2342
:100D400003930327049703AE3146144803F0EEFEE5
:100D5000FF230393049705953146114803F0E6FEFF
:100D60001048114B036045608560C5604FF4806397
:100D700003614FF4006343614FF400538361C56125
:100D80004FF400330362456203F048FD18B9054B88
:100D9000A3639C63AFE701F07BFEF8E70008024025
:100DA00000000240B80500201064024008B5044B62
:100DB000186818B16822034903F074F908BD00BF30
:100DC00030070020600600207047000008B558B1C9
:100DD000074A106000231A460121064800F0D8F89F
:100DE000012100F029F908BD034801F097F8FAE75E
:100DF00030070020AD0D00082CBC000810B50C28F1
:100E000002D8002319460FE00A4801F087F80020B5
:100E10000EE003EB430203EB82020244064C34F87B
:100E2000122011FA82F10133072BF2D9C1F3CF005E
:100E300010BD00BF5CBC00086006002008B508F0CB
:100E40009EF910B102684068904708BD08B54FF0A0
:100E5000E0231B6907F094FB012800D108BD01F0D5
:100E6000E9FFFBE7EFF305832BB9064B186828B9B8
:100E700001221A6070476FF0050070474FF0FF3095
:100E8000704700BFEC0D0020EFF3058373B90A4BE8
:100E90001B68012B0DD110B50024084BDC77064BE5
:100EA00002221A6007F07EF8204610BD6FF00500A0
:100EB00070474FF0FF307047EC0D002000ED00E070
:100EC000F0B587B000240594EFF3058404BBF8B1B6
:100ED000002A34D0156893692BB11E46013B372B8D
:100EE00002D9002015E01826536813F0010F3FD1F6
:100EF000546984B14FEA940C93682BB1D7685B2F87
:100F000002D9176907B184B943B14FF0FF330BB36E
:100F1000059807B0F0BD4FF0800CEDE7D368A3B99A
:100F20001369ABB14FF0FF33F1E7029301970096DD
:100F30000B466246294606F0C7FF0590E8E71546CE
:100F4000002318264FF0800CE1E74FF0FF33DEE777
:100F50000023DCE705AB019300960B461FFA8CF2E9
:100F6000294606F0ECFF0128D2D000230593CFE7F5
:100F70000020CEE708B5EFF3058333B908B90020A8
:100F800008BD07F071F90020FAE76FF00500F7E7F8
:100F90002DE9F04383B0EFF30587002F43D10646D8
:100FA000894615461C4600283FD0082001F066FA05
:100FB000804600283BD006604560B9F1000F00D0A4
:100FC000012704B32068A36813B1E2682B2A10D864
:100FD00053B14FF0FF33DBB10024404601F0D0FAAB
:100FE000204603B0BDE8F083E3687BB14FF0FF33E8
:100FF000F1E701930F4B009343463A46012107F076
:1010000009FF04460CE020460023E4E70023E2E762
:10101000084B009343463A46012107F0DFFE0446A1
:10102000002CDDD1D9E70024DAE70024D8E7044614
:10103000D6E700BF3D0E0008EFF305836BB90A4603
:1010400070B100B583B00093042107F00DFF0128B3
:1010500009D1002003B05DF804FB6FF00500704774
:101060006FF0030070476FF00200F3E708B5EFF38D
:101070000583CBB9A0B1836813B1C2681F2A0BD80E
:101080002BB14FF0FF338BB900F0A9FF08BDC36847
:1010900043B14FF0FF33F6E7184600F07BFFF5E76A
:1010A0000023F0E70023EEE70020EFE70020EDE764
:1010B000F8B110B582B00C46B1F1807F1CD2EFF3CD
:1010C00005829AB10022019201AA00F0E1FFB8B1B5
:1010D000019BC3B14FF0E0234FF08052C3F8042DC1
:1010E000BFF34F8FBFF36F8F204607E000F085FFFF
:1010F00004E06FF0030070476FF0030002B010BD12
:101100006FF00200FAE72046F8E770B5EFF30586C6
:10111000002E3ED1044608B3436813F0010600D008
:10112000012613F0080F37D154B3A16811B1E36859
:101130004F2B1AD8A1B14FF0FF337BBB26B304204D
:1011400002F095F905462DB304B1246821462846DE
:1011500002F028FCF6B145F001051BE03346E0E75C
:10116000E3687BB14FF0FF33E7E726B1042002F0DC
:1011700089F90546E7E7012002F084F90546E2E730
:101180000023DAE70023D8E7012002F070F90546D2
:10119000D9E70025284670BD0025FBE70025F9E7C3
:1011A000EFF30582DAB910B503460C4620F00100D2
:1011B00003F00101012B15D941B1214602F07AFB60
:1011C000012812D09CB16FF001000FE0214602F01F
:1011D0009EFA01280ED07CB16FF0010006E06FF09E
:1011E000050070476FF0030000E0002010BD6FF0B5
:1011F0000200FBE70020F9E76FF00200F6E7EFF3EB
:101200000582BAB908B5034620F0010003F00101D8
:10121000012B12D929B102F044F9012810D1002084
:1012200008BD00231A46194602F051F801280AD1D8
:101230000020F5E76FF0050070476FF00300EFE75F
:101240006FF00200ECE76FF00200E9E770B582B0E2
:10125000EFF30583002B3AD1144600283BD0002938
:101260003BD06AB393684BB1D2684F2A06D9226942
:1012700022B101FB00F56669AE421BD273B14FF09B
:10128000FF3363BB002201F0FEFF054605B304B146
:1012900024682146284602F085FB19E0E3688BB9F3
:1012A000236913B14FF0FF33EBE763696BB14FF084
:1012B000FF33E6E70025009501F09BFF0546E5E7D3
:1012C0000023DEE74FF0FF33DBE70023D9E70025FB
:1012D000284602B070BD0025FAE70025F8E7002592
:1012E000F6E710B582B01C46EFF30583C3B118B31F
:1012F00029B33CBB0023019301AA02F0F2F80128B4
:1013000023D1019850B14FF0E0234FF08052C3F841
:10131000042DBFF34F8FBFF36F8F002002B010BDBD
:10132000B0B1C1B10023224601F0D1FF012815D090
:10133000B4B16FF00100F1E76FF00300EEE76FF07A
:101340000300EBE76FF00300E8E76FF00200E5E76A
:101350006FF00300E2E76FF00300DFE70020DDE756
:101360006FF00200DAE710B582B01C46EFF3058398
:10137000C3B110B321B334BB0023019301AA02F01F
:10138000B9FA012822D1019850B14FF0E0234FF073
:101390008052C3F8042DBFF34F8FBFF36F8F00202F
:1013A00002B010BDA8B1B9B1224602F001F901287E
:1013B00015D0B4B16FF00100F2E76FF00300EFE772
:1013C0006FF00300ECE76FF00300E9E76FF0020055
:1013D000E6E76FF00300E3E76FF00300E0E70020CB
:1013E000DEE76FF00200DBE7034B0360034B0B60AB
:1013F00080231360704700BF900D0020900B0020E9
:10140000034B0360034B0B604FF480731360704712
:10141000340B0020340700202DE9F047064615461E
:10142000884671B3EF1D1FFA87F97FBA0122314652
:10143000002009F00FFC04462A46414609F00AFC48
:101440002044040204F47F0444EA1064030A03F411
:101450007F431C4344EA0064DFF82CA0AAF8007024
:101460008AF802602A4641460AF1030009F0A2FC0C
:1014700003354AF805404946504608F001FCBDE8EE
:10148000F0870025CEE700BFF00D002008B5012A47
:1014900006D059B94FF40051064803F038FC08BD96
:1014A0000A4601460020FFF7B7FFF3E789B208F0CC
:1014B000E7FBEFE70008024010B58EB000224221A2
:1014C0001020FFF7C3FE1D4B18600AAC00230A93DF
:1014D0000B930C930D931A4B0A9303230B93204603
:1014E000FFF713FE174B18602046FFF70EFE164B52
:1014F00018604FF0FF31FFF753FE98B101AC242282
:101500000021204609F022FC104B01934FF4805338
:10151000069318230793224600210D48FFF7D0FCBD
:101520000EB010BD0B484FF4806250F8051B09F057
:1015300041FC054B1868FFF762FEDFE75C120020F4
:101540007CBC0008581200205412002088BC0008FF
:10155000A11600080000002000B583B00378463BC8
:101560001D2B3CD8DFE803F00F3B3B323B3B3B3BC2
:101570003B3B3B1C3B163B3B3B3B3B3B3B3B3B3BFF
:101580003B3B3B3B3B22002203211748FFF77EFFFA
:10159000012025E0002214211448FFF777FFF7E728
:1015A000002214211148FFF771FFF1E707F044FE14
:1015B0000F4BA3FB0023C3F38F13ADF806300022BB
:1015C00002210DF10600FFF761FFE1E700228DF82F
:1015D000062001210DF10600FFF758FFD8E7002093
:1015E00003B05DF804FB00BF94BC000898BC000881
:1015F000D34D621010B582B00446FFF7ADFF40BB7B
:10160000A378463B1D2B1FD8DFE803F0251E1E2BB9
:101610001E1E1E1E1E1E1E351E3B1E1E1E1E1E1EB6
:101620001E1E1E1E1E1E1E1E1E0F07F005FE184B40
:10163000A3FB0023C3F38F13ADF806300122022170
:101640000DF10600FFF722FF4FF40051114803F09F
:101650005EFB02B010BD012203210F48FFF716FF09
:10166000F2E700238DF80630012211460DF1060045
:10167000FFF70CFFE8E7012214210848FFF706FFF7
:10168000E2E7012214210548FFF700FFDCE700BF75
:10169000D34D62100008024094BC000898BC0008BA
:1016A00008B54FF0FF330022064907480068FFF7EE
:1016B0005AFE0028F5D10348B0F84010FFF79AFF12
:1016C000EFE700BF101200205C12002008B50348AD
:1016D00002F0FEF9024B83ED130A08BD440400201A
:1016E000DC1200202DE9F0438DB04148FFF7BEFC2D
:1016F000404EB0640025356000277760B760F76022
:101700004FF0040986F81090757406F81C5F3A488B
:1017100007F05CFD3948FFF759FB394C394B236022
:1017200025716571384BE360384B23616361032396
:101730002376374BE36184F8205084F821506762A8
:10174000A762A5713C23E37102232372A11D3046D9
:1017500007F042FEDFF8E88046F2A81302930C235C
:101760000193082300934B462A462A49404600F03D
:1017700031FA294F384601F0FFF9284E4346284AEE
:101780003946304600F084FB9FED260A304600F0D3
:10179000B1FB84F840592946234802F0B3FA84F893
:1017A00041592946214802F02FFA84F84259294626
:1017B0001F4802F003FA1F4802F026FB04AC1E4E3D
:1017C0000FCE0FC496E80F0084E80F0004A800F0C5
:1017D000C7FF2B462A4601211848FFF7D9FB0A21EB
:1017E000FFF72AFCFFF768FE0DB0BDE8F08300BFED
:1017F000C8C00008DC120020206400201806002069
:101800003C1300209A9919400000C8430000204171
:1018100000004040D863002008040020B8120020D7
:101820004404002000008C42881200207012002026
:101830006812002060120020C4BB0008CD1600080A
:10184000A012002008B50548054B036002F05AFFBE
:1018500000B908BD01F01CF9FBE700BFD81C00204F
:10186000003002400268094B9A4200D0704782B0B3
:1018700000230193064B1A6B42F480521A631B6BD0
:1018800003F480530193019B02B070470030024083
:101890000038024000000000002800F038812DE9E7
:1018A000F8430D46164604460768002F52D01046EE
:1018B000FEF720FE96A3D3E90023FEF7AFFF804694
:1018C00089463F68F86AFEF705FE42464B46FEF73A
:1018D0007BFEFFF78BF8FDB1012D79D06368002BFB
:1018E00040F0CF807B63A368002B40F0D780236853
:1018F0001B6800225A63E368002B40F0E2802368F3
:101900001B6800225A632369002B40F0ED80236896
:101910001B6800225A631BE0E3686BB122695AB16D
:10192000042B19D0082B1AD000233B642369CBB9B0
:1019300023681B68DA6A5A63A36833BB23681B6891
:1019400000225A636368002B32D123681B685863F6
:1019500066752575BDE8F8830023BB63E6E70023C1
:10196000FB63E3E7042B06D0082B09D023681B6830
:10197000DA6A1A64E0E723681B68DA6A9A63DBE7CD
:1019800023681B68DA6ADA63D6E7042B06D0082BD3
:1019900009D023681B6800221A64D3E723681B68F8
:1019A00000229A63CEE723681B680022DA63C9E746
:1019B000042B05D0082B07D023681B681864C7E7E1
:1019C00023681B689863C3E723681B68D863BFE775
:1019D000E3686BB123695BB1042B16D0082B17D0D9
:1019E00000233B64E368B3B923681B68DA6A5A636F
:1019F00063681BBB23681B6800225A63A368002B23
:101A00002FD123681B685863A2E70023BB63E9E773
:101A10000023FB63E6E7042B06D0082B09D02368DC
:101A20001B68DA6A1A64E3E723681B68DA6A9A6358
:101A3000DEE723681B68DA6ADA63D9E7042B06D08D
:101A4000082B09D023681B6800221A64D6E7236894
:101A50001B6800229A63D1E723681B680022DA63BF
:101A6000CCE7042B05D0082B07D023681B6818642B
:101A70006EE723681B6898636AE723681B68D8636E
:101A800066E7042B04D0082B05D000233B642AE72B
:101A90000023BB6327E70023FB6324E7042B06D066
:101AA000082B09D023681B6800221A6423E72368E7
:101AB0001B6800229A631EE723681B680022DA6312
:101AC00019E7042B06D0082B09D023681B680022D5
:101AD0001A6418E723681B6800229A6313E72368D7
:101AE0001B680022DA630EE7042B06D0082B09D00E
:101AF00023681B6800221A642AE723681B680022F7
:101B00009A6325E723681B680022DA6320E77047A1
:101B10000000000000E06F40034678B102686AB13F
:101B2000416861B9126851639A68C2B91A6812684B
:101B30000021516300225A7502229A7570470429C8
:101B400005D0082907D0126800211164ECE712685B
:101B500000219163E8E712680021D163E4E7042AD9
:101B600006D0082A09D01A68126800211164E1E73A
:101B70001A68126800219163DCE71A681268002174
:101B8000D163D7E738B5054699B10C4644F62063D2
:101B9000994200D91C4604F009FA002202FB0443D2
:101BA000B0FBF3F3013BB3F5803F05D3013292B2B2
:101BB000F4E7FFF7B1FF0CE0296809688A622A6838
:101BC0001268D3622A68D3606A7D297D2846FFF7B0
:101BD00063FE38BD002800F0918010B5044600294E
:101BE0003FD0016042608360029BC360039B03613E
:101BF000002303758375084604F0CCFBBDF8101074
:101C00002046FFF7BFFF6368002B2BD123681B68BA
:101C100000225A63A368002B37D123681B68002277
:101C20005A63E368002B43D123681B6800225A6380
:101C30002369002B4FD123681B6800225A63616817
:101C4000206804F0B5FFA168206804F0B1FFE168E6
:101C5000206804F0ADFF2169206804F0A9FF00238B
:101C6000637510BD042B06D0082B09D023681B68B0
:101C700000221A64CEE723681B6800229A63C9E732
:101C800023681B680022DA63C4E7042B06D0082B04
:101C900009D023681B6800221A64C2E723681B6806
:101CA00000229A63BDE723681B680022DA63B8E765
:101CB000042B06D0082B09D023681B6800221A6465
:101CC000B6E723681B6800229A63B1E723681B68A4
:101CD0000022DA63ACE7042B06D0082B09D0236876
:101CE0001B6800221A64AAE723681B6800229A6313
:101CF000A5E723681B680022DA63A0E770470000AD
:101D000000B583B000220192094B196B41F48001A8
:101D100019631B6B03F480030193019B0521382099
:101D200002F0DCFC382002F0E9FC03B05DF804FBB3
:101D30000038024030B52DED028B83B000284AD028
:101D400004468368002B46D0C068002843D06368EF
:101D5000002B40D001F0BCFEB0EE408A84ED050AB5
:101D600094ED040AA06800F010FFA56807F05CFA83
:101D70000146B0EE480A284600F00AFFB5EEC00A58
:101D8000F1EE10FAD4BF0121002194F82030002B8D
:101D900051D0DFED3C7A78EE677AF5EEC07AF1EE5D
:101DA00010FA1FD4B6EE007AF4EEC77AF1EE10FA0C
:101DB0004CBF012300230BB3B5EEC00AF1EE10FABD
:101DC0001AD4D4ED077AF4EEC07AF1EE10FA15D5F4
:101DD000B0EE670A12E02C4800F0A0F803B0BDECAA
:101DE000028B30BDBEEE007AF4EEC77AF1EE10FA47
:101DF000CCBF01230023DEE79FED240AB5EEC08AA5
:101E0000F1EE10FA26D4F6EE007AB4EEE78AF1EE9F
:101E100010FA4CBF012300236BB1B5EEC00AF1EEFE
:101E200010FA21D4D4ED067AF4EEC07AF1EE10FA6D
:101E300001D5B0EE670A6068B5EEC00AF1EE10FA9F
:101E400016D4FCEEC07ACDED017A9DF80420FFF7A0
:101E500023FDC3E7FEEE007AB4EEE78AF1EE10FA56
:101E6000CCBF01230023D7E760689FED080AE8E7AD
:101E7000B1EE400AFCEEC07ACDED017A9DF8042067
:101E8000E5E700BF0000C842C0BC00080000000039
:101E900010B5F0B10446E2B1DBB18160C2604360CD
:101EA000002303610D4B4B6183680D4A1A618368FF
:101EB0000C4ADA6183680C4A9A61002302460121C8
:101EC0000A48FFF765F80121FFF7B6F801232370F0
:101ED00010BD074800F022F8FAE700BF00007F437A
:101EE00000007FC300007A4300007AC3351D00085C
:101EF000E4BC0008B5EEC00AF1EE10FA06DBDFED37
:101F0000067AB4EEE70AF1EE10FA01D90023036174
:101F100080ED040A704700BF0000C842C0B170B530
:101F20009AB0064601AC64252A460021204608F0F6
:101F30000DFF3346074A2946204608F0D1FE2046C9
:101F4000FEF72EF981B2204607F09AFE1AB070BD56
:101F5000704700BF04BD0008C0B170B59AB0064616
:101F600001AC64252A460021204608F0EFFE3346E6
:101F7000074A2946204608F0B3FE2046FEF710F92E
:101F800081B2204607F07CFE1AB070BD704700BFDA
:101F900010BD000880B110B582B004462023019323
:101FA000019B202B11D04FF0500383F31188BFF316
:101FB0006F8FBFF34F8FFEE74FF0500383F311880D
:101FC000BFF36F8FBFF34F8FFEE7002340F8043B52
:101FD00000F004FD01232377204602B010BD38B580
:101FE000202000F04BFA044628B1002540F8045B9D
:101FF00000F0F4FC2577204638BDF8B568B10D46F1
:102000000446B1F1807F11D34FF0500383F3118860
:10201000BFF36F8FBFF34F8FFEE74FF0500383F393
:102020001188BFF36F8FBFF34F8FFEE700F10C06EF
:1020300006F004F8206923682B43236000270AE098
:10204000216832EA010105D111E0216841F00071F7
:1020500006F0F6F92846B0420ED04568036823F032
:102060007F4213F0806FEBD121681142F2D013F060
:10207000807FEAD01743E8E7236823EA0703236059
:1020800006F076F82068F8BD08B5FFF7B6FF08BD82
:1020900008B513460A460146014807F083F808BD13
:1020A0008920000808B507F005FB6420FEF762FFF1
:1020B0000120FEF75FFFFBE708B50120FEF75AFF9E
:1020C000FBE7000008B56420FEF754FF104A022128
:1020D0003C2007F091FA0320FEF790FE07EE900AED
:1020E000F8EE677A9FED0B7A67EE877A9FED0A7AB2
:1020F00087EE870AF2EE047A30EE270A074B83ED6B
:10210000000A07F087FA0120FEF734FFE3E700BF7B
:10211000559400080080774400F07F454C0400206F
:1021200008B5FFF7DFFA00220EE0642302FB03F399
:1021300002F580702D4901EB800107EE903AF8EE30
:10214000677AC1ED007A01320F2AEED900230EE042
:1021500003EB8302520003F58870244901EB8001F0
:1021600007EE902AF8EE677AC1ED007A01330F2B63
:10217000EED9002011E05A1C00FB022107EE901A54
:1021800003EB0013194901EB8303F8EE677AC3ED03
:10219000007A13460F2BEED901300F280CD80023FC
:1021A000F8E7DFED130A134B93ED000A0F4805F033
:1021B0003FFC114B83ED000A6420FEF7DBFE0D4B64
:1021C000D3ED007AB2EE047A77EE877AC3ED007A27
:1021D0000A4B0B4A1A609FED0B7AF4EEC77AF1EEC8
:1021E00010FADEDD034B084A1A60DAE7041D00200E
:1021F00000003441E41C0020001D0020E01C0020F1
:102200000000344100409C4500007AC408B501201C
:10221000FEF7B0FE01F0CCFD054C84ED150A01F08F
:1022200043FD84ED160A01F003FE84F85C00EEE73E
:10223000DC12002008B5144A00211448FEF740FEC5
:10224000134B1860134A00211348FEF739FE134B55
:102250001860134A00211348FEF732FE124B186033
:10226000124A00211248FEF72BFE124B1860124A48
:1022700000211248FEF724FE114B18601148FEF7AA
:10228000F5FE114B186008BD78C10008A5200008B4
:10229000FC1C002054C10008C5200008F81C0020C8
:1022A00030C10008B9200008F41C00200CC100084F
:1022B00021210008F01C0020E8C000080D220008C1
:1022C000EC1C0020D8C00008E81C00202DE9F041DB
:1022D0008AB005AD002405940694079408940994E7
:1022E0000194314B1A6B42F004021A631A6B02F02C
:1022F00004020192019A02941A6B42F080021A635E
:102300001A6B02F080020292029A03941A6B42F056
:1023100001021A631A6B02F001020392039A0494F9
:102320001A6B42F002021A631B6B03F00203049360
:10233000049BDFF87C8022464FF40051404602F0B7
:10234000E0FC1A4E22464FF20441304602F0D9FC1E
:102350004FF40053059301270697079408942946E4
:10236000404602F0E3FB4FF20443059306970794BF
:1023700008942946304602F0D9FB4FF400730593C8
:102380004FF48813069307942946304602F0CEFB9B
:1023900022460521172002F0A1F9172002F0AEF91C
:1023A0000AB0BDE8F08100BF0038024000040240DE
:1023B00000080240124A12F0070F1ED0D11D21F072
:1023C0000701C1F5705313440A460E48026000210C
:1023D00041601344083B23F007030B480360596036
:1023E0001960991A51601360084B1960084B196005
:1023F000084B4FF000421A6070474FF47053E4E707
:10240000A42100209C210020982100209021002060
:102410009421002084210020164B1A461B68834219
:10242000FBD3516802EB010C844509D0416800EBF5
:10243000010C634509D00360904219D010607047C9
:102440004068014451601046F0E710B40A4C24681B
:10245000A3420BD05B681944416013681B6803609A
:10246000904200D010605DF8044B70470460F7E7BD
:10247000704700BF9C2100209821002038B50446F9
:1024800005F0DCFD384B1B68B3B1384B1B681C42B0
:1024900050D1002C50D004F1080214F0070F02D0E4
:1024A00022F007020832002A55D0314B1B689342B4
:1024B00053D330490C6804E0FFF77CFFE5E7214681
:1024C0001C466368934202D22368002BF7D1264B47
:1024D0001B68A34243D00D68083523680B6063680E
:1024E0009B1A102B10D9A01810F0070F08D04FF02E
:1024F000500383F31188BFF36F8FBFF34F8FFEE755
:1025000043606260FFF788FF626819490B689B1A95
:102510000B60194909688B4201D217490B60134BB4
:102520001B681343636000232360144A136801335C
:10253000136002E0002500E0002505F019FE15F00B
:10254000070F0ED04FF0500383F31188BFF36F8F46
:10255000BFF34F8FFEE70025EFE70025EDE70025ED
:10256000EBE7284638BD00BF9821002084210020D9
:10257000942100209C210020902100208C2100200B
:10258000002834D038B50446A0F1080550F8043CC2
:10259000174A1268134208D14FF0500383F3118891
:1025A000BFF36F8FBFF34F8FFEE750F8081C41B1A8
:1025B0004FF0500383F31188BFF36F8FBFF34F8F3A
:1025C000FEE723EA020340F8043C05F037FD54F827
:1025D000041C084A13680B4413602846FFF71CFFCD
:1025E000054A13680133136005F0C2FD38BD70471A
:1025F00084210020942100208821002008B50B4868
:102600000B4B03600B4B436000238360C3604FF4AC
:102610008042026143618361C361036202F08EFB09
:1026200000B908BD00F034FAFBE700BFA45D00204C
:1026300000540040A086010030B589B00023039308
:1026400004930593069307930268144B9A4201D0B2
:1026500009B030BD00250195114C236B43F00203F6
:102660002363236B03F002030193019BC0230393B5
:1026700012230493032306930423079303A9094811
:1026800002F054FA0295236C43F400132364236C84
:1026900003F400130293029BDAE700BF00540040EA
:1026A000003802400004024010B370B5044643787D
:1026B000032B19D802780F4B01269E5442789E5462
:1026C00003780D4D05EBC3013246898855F8330078
:1026D00002F017FB637805EBC3013246898855F891
:1026E000330002F00EFB70BD0448FFF717FCFAE759
:1026F000704700BF005E0020045E00205CBD000843
:1027000020B370B504464378032B1BD80278104BD6
:1027100000259D5442789D5403780E4E06EBC3016C
:102720002A46898856F8330002F0EBFA637806EB04
:10273000C3012A46898856F8330002F0E2FA064BB4
:102740001D7070BD0548FFF7E9FBFAE7704700BF51
:10275000005E0020045E0020FA5D00205CBD0008E1
:1027600010B590B10146274B1B7993B9264A042036
:102770001074264B01241C7003245C709870022096
:10278000D870234B5361002313E02248FFF7C6FBA8
:1027900002E02148FFF7C2FB10BD51F833001F4A89
:1027A00042F8330001EBC300406802EBC302506003
:1027B0000133032BF1D9002408E0184B998853F812
:1027C000340002F097FA164B18550134032CF4D953
:1027D000002407E0114B0022998853F8340002F0DE
:1027E00090FA0134032CF5D9064B93F82030002BD6
:1027F000D2D0044B93F82130082BCDD90948FFF7EC
:10280000ABFBC9E73C130020DC120020FC5D00207C
:102810000000344374BD00089CBD0008045E002025
:10282000005E0020C8BD000830B585B05D4BD3ED1B
:10283000057AF5EE407AF1EE10FA00F0A4805A4BDA
:102840001B7E002B00F0A680574B93ED077AF6EE27
:10285000006AB4EEE67AF1EE10FAC0F29880F1EE7A
:10286000006AB4EEE67AF1EE10FA00F29080C0EE63
:10287000276AFCEEE66ACDED016A9DF8043006EEAB
:10288000903AF8EEE66A66EEA76AB3EE0E6A76EE66
:10289000C66A77EEA67ACDED037ADDED037ADFED39
:1028A000436A27EE267AF5EE400AF1EE10FA73D06D
:1028B000DFED3F6A60EEA66ADFED3E5A86EEA56A5E
:1028C00027EE067A77EEC77ACDED027A3A4CE25CD3
:1028D000013AD2B239490A704A700233E35C013BD3
:1028E0004B70304B5B7F012B54D1DDED027A77EEDC
:1028F000C07AB2EE047AF4EEC77AF1EE10FA49D556
:102900002F4B1B78002B45D1DDED027A77EEC07A94
:10291000F5EEC07AF1EE10FA3CDD294B01221A7077
:102920009DED027A37EE407AF5EE400AF1EE10FAAC
:1029300035D0DFED1F7A60EEA70ADFED1E6AC6EE26
:10294000A07AFCEEE77AF8EE677A27EE277ABCEEFB
:10295000C77ADDED036A76EEC06A67EEA67AFCEE12
:10296000E77A17EE904A0444144D2A46154917EEAB
:10297000103A0344184606F0E7FC2A46124920465E
:1029800006F0E2FC06E01148FFF7C8FA02E0104842
:10299000FFF7C4FA05B030BD9FED0E6A90E7DFED9A
:1029A0000E7AD0E7DC1200203C13002000007A44AD
:1029B0000000B443C0E1644CFC5D0020F85D0020E1
:1029C000FA5D0020A926000801270008FCBD0008C8
:1029D00018BE0008000000000000000000F108031D
:1029E00043604FF0FF328260C360036100230360E5
:1029F000704700230361704743684B609A688A60A0
:102A0000516099600861036801330360704730B416
:102A10000D68B5F1FF3F11D000F108031C465B685B
:102A20001A68AA42FAD963684B6099608C60616049
:102A3000086103680133036030BC70470469F2E742
:102A40000369416882688A60416851605A688242BD
:102A500006D0002202611A68013A1A6018687047AD
:102A600082685A60F5E700BFB0F5007F00D070477C
:102A700008B506F0EFFC08BD08B50268034B9A42A2
:102A800000D008BD01F022FAFBE700BF004801407A
:102A900072B6FEE710B594B008AC30220021204693
:102AA00008F054F9002303930493059306930793C6
:102AB0000193214A116C41F080511164126C02F0B3
:102AC00080520192019A02931C4A136823F44043F6
:102AD00043F400431360136803F440430293029BE2
:102AE000012308934FF48033099302230E934FF48C
:102AF00080030F93192310934FF4A87311930423A9
:102B0000129307231393204603F054F878B90F2348
:102B1000039302210491002305934FF480520692FF
:102B2000079303A803F096FA18B914B010BDFFF785
:102B3000AFFFFFF7ADFF00BF00380240007000405C
:102B400008B501F0A9F9FFF7A5FFFFF7BFFBFFF7F5
:102B5000D7F806F023F8FDF7A3FF05F0BBFF05F05B
:102B6000CBFEFEF76FFEFFF749FDFEF77BF9FFF79F
:102B700061FBFEF789F9FEE700230362436283628B
:102B8000C362002202638363704780ED0D0A7047C1
:102B9000036BCB1A07EE903AF8EE677A9FED397A1D
:102BA000C7EE876A90ED0D6A36EE406AD0ED005AA6
:102BB00065EE865A90ED087AD0ED017AB6EE005AAD
:102BC00067EE857A67EEA67A90ED0A5A35EE065AD8
:102BD00067EE857A77EE277AC0ED087A90ED077A6E
:102BE000F4EEC77AF1EE10FA38DD80ED087AD0ED18
:102BF000027A77EEA77A90ED0B7A30EE477A67EE9D
:102C0000877A90ED037A37EE077A37EE665AD0ED81
:102C1000094A25EE245A77EE857AF1EE677A37EE87
:102C2000267AC7EE876AC0ED096AD0ED087A77EE9A
:102C3000A57A76EEA77AC0ED0E7A90ED057AF4EEDD
:102C4000C77AF1EE10FA13DD80ED0E7A80ED0A6A94
:102C500080ED0B0A016390ED0E0A704790ED067A45
:102C6000F4EEC77AF1EE10FAC1D580ED087ABEE72E
:102C700090ED047AF4EEC77AF1EE10FAE6D580ED25
:102C80000E7AE3E70024744982B0002301930D4BD0
:102C90001B68B3F1FF3F08D04FF0500383F3118856
:102CA000BFF36F8FBFF34F8FFEE74FF0500383F3F7
:102CB0001188BFF36F8FBFF34F8F019B002BFCD0A8
:102CC00002B070475004002008480068006880F394
:102CD00008884FF0000080F3148862B661B6BFF335
:102CE0004F8FBFF36F8F00DF00BF000008ED00E0E3
:102CF000DFF80C00016841F47001016070470000CA
:102D000088ED00E04FF0807340F8043C21F00101B1
:102D100040F8081C054B40F80C3C40F8202C6FF0A4
:102D2000020340F8243C4438704700BF892C000857
:102D3000074B19680868B0E8F04F80F30988BFF3C3
:102D40006F8F4FF0000080F311887047AFF3008061
:102D5000D46300204FF0500383F31188BFF36F8FCB
:102D6000BFF34F8F0B4A136801331360012B00D060
:102D700070474FF0E023D3F8043D13F0FF0FF7D076
:102D80004FF0500383F31188BFF36F8FBFF34F8F62
:102D9000FEE700BF50040020094B1B6843B94FF009
:102DA000500383F31188BFF36F8FBFF34F8FFEE79C
:102DB000013B034A13600BB983F31188704700BFCE
:102DC000500400200000000000000000000000008F
:102DD000EFF30980BFF36F8F154B1A681EF0100FC9
:102DE00008BF20ED108A20E9F04F10602DE909009E
:102DF0004FF0500080F31188BFF34F8FBFF36F8FF8
:102E000005F058FA4FF0000080F3118809BC1968EA
:102E10000868B0E8F04F1EF0100F08BFB0EC108A41
:102E200080F30988BFF36F8F704700BFAFF3008056
:102E3000D463002008B54FF0500383F31188BFF32B
:102E40006F8FBFF34F8F05F007F928B14FF0E023E4
:102E50004FF08052C3F8042D002383F3118808BD7E
:102E60004FF0E022002313619361054B1B68054975
:102E7000A1FB03139B09013B5361072313617047B7
:102E80005C040020D34D62104FF0E023D3F8002DF6
:102E90003D4B9A421CD04FF0E023D3F8002D3B4B22
:102EA0009A421ED030B583B0394B1A78D2B2019213
:102EB000FF221A701B78DBB28DF803309DF80330C7
:102EC00003F05003334A1370334B07221A601BE0A0
:102ED0004FF0500383F31188BFF36F8FBFF34F8F11
:102EE000FEE74FF0500383F31188BFF36F8FBFF3FA
:102EF0004F8FFEE7284A1368013B13609DF80330AB
:102F00005B00DBB28DF803309DF8033013F0800FC7
:102F1000F0D1214B1B68032B08D04FF0500383F3F3
:102F20001188BFF36F8FBFF34F8FFEE71B021A4A62
:102F3000136003F4E0631360019BDBB2144A137067
:102F40004FF0E024D4F8203D43F47003C4F8203D52
:102F5000D4F8203D43F07043C4F8203DFFF780FFD4
:102F600000250E4B1D60FFF7C3FED4F8343F43F03D
:102F70004043C4F8343FFFF7A7FE05F09BF9FFF785
:102F800083FE284603B030BD71C20F4170C20F41AD
:102F900000E400E0285E0020245E002050040020B1
:102FA000EFF305830F2B0ED9114A9A5C114B1B7856
:102FB0009A4208D24FF0500383F31188BFF36F8F0A
:102FC000BFF34F8FFEE74FF0E023D3F80C3D03F43F
:102FD000E063094A1268934208D94FF0500383F323
:102FE0001188BFF36F8FBFF34F8FFEE7704700BFAD
:102FF000F0E300E0285E0020245E00200346406AE3
:1030000018B11B6B1868C0F13800704710B5044642
:10301000FFF7A0FEA26BE36B9A4204D00024FFF7F7
:10302000BBFE204610BD0124F9E710B50446FFF7AA
:1030300091FEA36B23B90124FFF7AEFE204610BD1D
:103040000024F9E770B504461546866B026C5AB940
:1030500003681BB100200136A66370BD806805F0CF
:10306000EBFA0023A360F6E76DB9406807F0A2FE13
:103070006368226C13446360A268934219D3236887
:1030800063602846E7E7C06807F094FEE368226CB7
:1030900051429B1AE3602268934202D2A3680B4418
:1030A000E360022D01D00020D5E726B1013E0020CB
:1030B000D1E72846CFE70020CDE70346026C6AB18E
:1030C00010B50846D9681144D9609C68A14201D363
:1030D0001968D960D96807F06DFE10BD704738B522
:1030E0000546FFF737FE95F8454064B201E0013C24
:1030F00064B2002C0ADD6B6A43B105F1240005F0CF
:1031000059F90028F3D005F02FFAF0E7FF2385F8EE
:103110004530FFF741FEFFF71DFE95F8444064B2CD
:1031200001E0013C64B2002C0ADD2B6943B105F1DA
:10313000100005F03FF90028F3D005F015FAF0E78C
:10314000FF2385F84430FFF727FE38BD38B5E0B1DE
:103150000D460446FFF7FEFD2368E26B216C01FB80
:103160000230A0600020A0636360013A02FB0133DB
:10317000E360FF2384F8443084F84530FDB92369C7
:1031800063B9FFF709FE012038BD4FF0500383F308
:103190001188BFF36F8FBFF34F8FFEE704F110006C
:1031A00005F008F90028ECD04FF0E0234FF08052F2
:1031B000C3F8042DBFF34F8FBFF36F8FE1E704F126
:1031C0001000FFF70BFC04F12400FFF707FCD8E721
:1031D00038B51D46049C0B4649B92460E06323645E
:1031E00001212046FFF7B2FF84F84C5038BD226021
:1031F000F4E740B94FF0500383F31188BFF36F8FAA
:10320000BFF34F8FFEE710B584B01C46844653B120
:1032100092B189B94FF0500383F31188BFF36F8FD8
:10322000BFF34F8FFEE74FF0500383F31188BFF3D6
:103230006F8FBFF34F8FFEE76AB150230393039B59
:10324000502B13D04FF0500383F31188BFF36F8FCF
:10325000BFF34F8FFEE70029EFD04FF0500383F309
:103260001188BFF36F8FBFF34F8FFEE7039B0123DE
:1032700084F8463000949DF818306046FFF7A8FFA8
:10328000204604B010BD40B94FF0500383F31188BD
:10329000BFF36F8FBFF34F8FFEE7F0B583B00D46DE
:1032A0001446064601FB00F05030FFF7E7F80746EA
:1032B00050B1002380F846300090234600F15002C0
:1032C00029463046FFF784FF384603B0F0BDF0B51D
:1032D00085B0019288B10F461D460446B1B1022D5A
:1032E00020D1E36B012B1DD04FF0500383F31188E5
:1032F000BFF36F8FBFF34F8FFEE74FF0500383F3A1
:103300001188BFF36F8FBFF34F8FFEE7036C002B65
:10331000E5D04FF0500383F31188BFF36F8FBFF3F5
:103320004F8FFEE705F02CF9064658B9019B002B9C
:1033300048D04FF0500383F31188BFF36F8FBFF372
:103340004F8FFEE700263DE02A4639462046FFF72C
:1033500079FE636A7BB948B14FF0E0234FF08052A9
:10336000C3F8042DBFF34F8FBFF36F8FFFF714FD2A
:10337000012005B0F0BD04F1240005F01BF8002881
:10338000F4D04FF0E0234FF08052C3F8042DBFF388
:103390004F8FBFF36F8FE9E7FFF7FEFC0020E8E7F0
:1033A00002A805F091F8012619E0002384F84430C2
:1033B00021E0002384F8453023E02046FFF78FFE0C
:1033C00004F0D6FEFFF7C6FCA26BE36B9A42BBD3B8
:1033D000022DB9D0019B002BDED0002EE0D0FFF7EC
:1033E000DBFC04F02BFEFFF7B5FC94F8442052B24E
:1033F000B2F1FF3FD9D094F8452052B2B2F1FF3F6D
:10340000D7D0FFF7C9FC01A902A805F069F8D8B91F
:103410002046FFF7FBFD0028CFD0019904F11000F2
:1034200004F094FF2046FFF75AFE04F0A1FE0028A6
:10343000C8D14FF0E0234FF08052C3F8042DBFF302
:103440004F8FBFF36F8FBDE72046FFF748FE04F0B4
:103450008FFE00208DE748B108B500218160016032
:10346000C1600B460A46FFF732FF08BD704710B532
:10347000024600210120FFF706FF0446FFF7EBFF9D
:10348000204610BD10B582B00B46009000221146B8
:103490000120FFF7AEFE0446FFF7DDFF204602B035
:1034A00010BD38B538B10446856805F063F885422B
:1034B0000AD0002038BD4FF0500383F31188BFF3CA
:1034C0006F8FBFF34F8FFEE7E368013BE3600BB103
:1034D0000120EFE71A4619462046FFF7F8FE0120C3
:1034E000E8E72DE9F84390B10F4616461C4605461D
:1034F000B1B1022C20D1EB6B012B1DD04FF050034A
:1035000083F31188BFF36F8FBFF34F8FFEE74FF048
:10351000500383F31188BFF36F8FBFF34F8FFEE724
:10352000036C002BE5D04FF0500383F31188BFF3F9
:103530006F8FBFF34F8FFEE7FFF732FDEFF3118878
:103540004FF0500383F31188BFF36F8FBFF34F8F9A
:10355000AA6BEB6B9A4206D3022C04D0002088F3AE
:103560001188BDE8F88395F845904FFA89F9AB6B5F
:10357000224639462846FFF765FDB9F1FF3F06D0E0
:1035800009F101035BB285F845300120E7E76B6A7A
:103590000BB90120E3E705F1240004F00BFF18B19B
:1035A00026B101203060DAE70120D8E70120D6E714
:1035B000F0B585B0019290B10F460446C1B104F058
:1035C000DFFF064600BB019B002B5ED04FF050038F
:1035D00083F31188BFF36F8FBFF34F8FFEE74FF078
:1035E000500383F31188BFF36F8FBFF34F8FFEE754
:1035F000036C002BE3D04FF0500383F31188BFF32B
:103600006F8FBFF34F8FFEE700263EE0394620461E
:10361000FFF753FD013DA563236923B9FFF7BCFB09
:10362000012005B0F0BD04F1100004F0C3FE002835
:10363000F4D04FF0E0234FF08052C3F8042DBFF3D5
:103640004F8FBFF36F8FE9E7FFF7A6FB0020E8E796
:1036500002A804F039FF012621E0002384F8443059
:1036600029E0002384F845302BE02046FFF737FDA2
:1036700004F07EFD09E02046FFF731FD04F078FDFF
:103680002046FFF7D2FC00283FD1FFF763FBA56B74
:10369000002DBBD1019B002BD6D0002ED8D0FFF738
:1036A0007BFB04F0CBFCFFF755FB94F844305BB296
:1036B000B3F1FF3FD1D094F845305BB2B3F1FF3F97
:1036C000CFD0FFF769FB01A902A804F009FF002889
:1036D000D1D12046FFF7A9FC0028C6D0019904F1FA
:1036E000240004F033FE2046FFF7F9FC04F040FD0F
:1036F0000028CAD14FF0E0234FF08052C3F8042DC8
:10370000BFF34F8FBFF36F8FBFE7002089E770B51E
:1037100084B0019158B10446036C8BB14FF0500353
:1037200083F31188BFF36F8FBFF34F8FFEE74FF026
:10373000500383F31188BFF36F8FBFF34F8FFEE702
:1037400004F01EFF054650B9019B5BB14FF05003DA
:1037500083F31188BFF36F8FBFF34F8FFEE700260F
:10376000354655E0064653E0013BA36323683BB171
:1037700023694BB9FFF710FB0126304604B070BD3A
:1037800004F0F2FFA060F3E704F1100004F012FE71
:103790000028EFD04FF0E0234FF08052C3F8042D03
:1037A000BFF34F8FBFF36F8FE4E746B14FF0500385
:1037B00083F31188BFF36F8FBFF34F8FFEE7FFF7DF
:1037C000EBFADAE702A804F07FFE01252AE00023E5
:1037D00084F8443032E0002384F8453034E0FFF7C9
:1037E000B9FAA06804F0DCFE0646FFF7D5FA3BE024
:1037F0002046FFF774FC04F0BBFC09E02046FFF70D
:103800006EFC04F0B5FC2046FFF70FFC002842D107
:10381000FFF7A0FAA36B002BA6D1019B002BC4D00D
:10382000002DCFD0FFF7B8FA04F008FCFFF792FAAA
:1038300094F844305BB2B3F1FF3FC8D094F8453000
:103840005BB2B3F1FF3FC6D0FFF7A6FA01A902A809
:1038500004F046FE0028D1D12046FFF7E6FB002801
:10386000C6D02368002BBAD0019904F1240004F0DB
:103870006DFD2046FFF733FC04F07AFC0028C7D129
:103880004FF0E0234FF08052C3F8042DBFF34F8F69
:10389000BFF36F8FBCE70EB900266EE7FFF75AFA49
:1038A0002046FFF7ABFB0146A06804F00DFFFFF7D1
:1038B00073FAF1E780B170B50C460546866804F0EE
:1038C00059FE864211D021462846FFF720FF80B1DD
:1038D000EB680133EB600CE04FF0500383F3118889
:1038E000BFF36F8FBFF34F8FFEE7EB680133EB60E1
:1038F000012070BD2DE9F843B0B10D469046044655
:10390000D9B1FFF74DFBEFF311874FF0500383F36D
:103910001188BFF36F8FBFF34F8FA66BCEB9002016
:1039200087F31188BDE8F8834FF0500383F31188C3
:10393000BFF36F8FBFF34F8FFEE7036C002BE0D018
:103940004FF0500383F31188BFF36F8FBFF34F8F96
:10395000FEE794F844904FFA89F929462046FFF78C
:10396000ACFB731EA363B9F1FF3F06D009F101035D
:103970005BB284F844300120D2E723690BB90120FF
:10398000CEE704F1100004F015FD30B1B8F1000FDE
:1039900005D00120C8F80000C2E70120C0E70120DF
:1039A000BEE700000023072B0CD8074A52F833204B
:1039B0000AB10133F7E7044A42F8331002EBC302BD
:1039C00050607047704700BF2C5E002070B5044601
:1039D0000D461646FFF7BEF994F844305BB2B3F1DA
:1039E000FF3F0DD094F845305BB2B3F1FF3F0BD0F1
:1039F000FFF7D2F9A36B5BB12046FFF770FB70BDF8
:103A0000002384F84430EDE7002384F84530EFE7E5
:103A10003246294604F1240004F0B0FCECE7000033
:103A200008B520B180ED010A0170027208BD02489C
:103A3000FEF774FAFAE700BF38BE000810B5044676
:103A4000007AFDF7DBF907EE100AB8EE477ADFEDF2
:103A50001A6AC7EE267A9FED197A67EE877A9FED8C
:103A6000187AF4EEC77AF1EE10FA13DB9FED157AAF
:103A7000F4EEC77AF1EE10FA0CD8237883B9D4EDBE
:103A8000016A66EEA76A9FED0D7A77EE677A86EE99
:103A9000A70A04E00C48FEF741FA9FED0C0A10BD9E
:103AA0009FED067A37EE677AD4ED016A27EE267A23
:103AB00087EE270AF3E700BF00F07F45333353401A
:103AC000C3F5283ED7A3484050BE00080000C07F81
:103AD00010B5B0B3044603880BB94388BBB3207953
:103AE000FDF78CF907EE900A6379B3B3F8EE677AC5
:103AF000228807EE102AF8EE476A638807EE103A2C
:103B0000B8EE477A9A4245D077EEE67A9FED266A7C
:103B100067EE867A37EE667A87EE870ADFED237ADC
:103B200030EE270AB5EEC00AF1EE10FA38D4DFED18
:103B30001E7AB4EEE70AF1EE10FA01DDB0EE670A84
:103B400010BD1B48FEF7EAF99FED1A0AF8E71A487C
:103B5000FEF7E4F99FED170AF2E7F8EE677A62885C
:103B600007EE102AF8EE476A238807EE103AB8EEFF
:103B7000477A9A4211D077EEE67A9FED0B6A67EEAC
:103B8000867A37EE667A87EE870ADFED087A30EEBE
:103B9000270AC7E79FED050AC9E79FED040AC6E7B4
:103BA0009FED020ACCE700BF0000C8420000000001
:103BB00068BE00080000C07F74BE000810B568B180
:103BC000044679B1012915D16423038040F6B83346
:103BD000438004230371094B1C6010BD0848FEF7A5
:103BE0009DF9FAE76423038040F6B8334380042349
:103BF0000371F0E70348FEF791F9ECE7845E0020DB
:103C00008CBE0008A0BE000870B58AB00446E9B1B9
:103C1000012938D1052200219FED1D0AFFF700FF81
:103C200004AD1C4E0FCE0FC596E8030085E80300D7
:103C30000AAB13E907008DE8070004AB0ECB204662
:103C400004F0A0FD144B1C600AB070BD05220021D9
:103C50009FED120AFFF7E4FE0DF1100C104D0FCD91
:103C6000ACE80F0095E803008CE803000AAB13E909
:103C700007008DE8070004AB0ECB204604F082FD60
:103C8000054B1C60E0E70748FEF748F9DCE700BF9A
:103C900000401C46E4BB0008805E002000E0924526
:103CA000FCBB0008C0BE000808B5104B186880B106
:103CB00004F0DCFDDFED0E7AB4EEE70AF1EE10FA67
:103CC0000DDBDFED0C7AB4EEE70AF1EE10FA06D860
:103CD00008BD0948FEF722F99FED080AF8E70848F1
:103CE000FEF71CF99FED050AF2E700BF805E002099
:103CF000000048C200001643E0BE00080000204259
:103D0000F4BE000870B58AB0F8B1044609B30129C1
:103D10003CD1062200219FED1F0AFFF781FE04AD72
:103D20001D4E0FCE0FC596E8030085E803000AABD1
:103D300013E907008DE8070004AB0ECB204604F022
:103D400021FD164B1C600AB070BD1548FEF7E6F861
:103D5000F9E7062200219FED130AFFF761FE0DF13E
:103D6000100C114D0FCDACE80F0095E803008CE866
:103D700003000AAB13E907008DE8070004AB0ECB84
:103D8000204604F0FFFC054B1C60DCE70748FEF70B
:103D9000C5F8D8E700401C4614BC00087C5E002033
:103DA00010BF000800E09245FCBB000824BF0008DB
:103DB00008B5104B186880B104F058FDDFED0E7A9D
:103DC000B4EEE70AF1EE10FA0DDBDFED0C7AB4EE9B
:103DD000E70AF1EE10FA06D808BD0948FEF79EF88A
:103DE000B3EE0E0AF8E70748FEF798F8B3EE0E0AAE
:103DF000F2E700BF7C5E0020000048C200001643CE
:103E000010BF000844BF000808B548B140F2FF7277
:103E10000280C822428007220271034A106008BD56
:103E20000248FEF77BF8FAE7785E002060BF0008E2
:103E300010B5144B1B6803B31879FCF7DFFF114B67
:103E40001B681C8884422CBF0024012405F0F4F96F
:103E50000D4B1B78A34203D00C4B18600A4B1C700F
:103E60000A4B1B68C01A074B1B685B88984201D33A
:103E7000074B1C70064B187810BD0648FEF74EF82D
:103E80000020F9E7785E0020745E0020705E00205C
:103E90006C5E002060BF000808B50B4B1A6842F446
:103EA00000721A601A6842F480621A601A6842F45A
:103EB00080721A60032000F0FFFB0F2002F054FF15
:103EC00001F01AF8002008BD003C0240034A1168C6
:103ED000034B1B780B441360704700BF885E0020C3
:103EE00054040020014B1868704700BF885E002012
:103EF00038B50446FFF7F6FF0546B4F1FF3F02D0A0
:103F0000044B1B781C44FFF7EDFF401BA042FAD383
:103F100038BD00BF540400204A4B5A6822F4403296
:103F20005A605A6841680A435A600268536823F429
:103F30008073536002685368016943EA0123536048
:103F40000268536823F040735360026853688168C5
:103F50000B4353600268936823F400639360026824
:103F60009368C1680B439360826A374B9A4257D07B
:103F70000268936823F07063936002689368816AB3
:103F80000B4393600268936823F040539360026888
:103F90009368C16A0B4393600268936823F002033D
:103FA000936002689368017E43EA4103936090F84E
:103FB0002030002B3FD00268536843F40063536005
:103FC0000268536823F46043536001684B68426A97
:103FD000013A43EA42334B600268D36A23F4700328
:103FE000D3620168CB6AC269013A43EA0253CB62E9
:103FF0000268936823F4007393600268936890F8F2
:10400000301043EA412393600268936823F480638D
:10401000936002689368416943EA81239360704723
:104020000268936823F0706393600268936823F0DA
:1040300040539360B0E70268536823F40063536011
:10404000CAE700BF002301400100000F38B310B5DC
:104050000446036C43B1236C13F0100F0BD0012006
:10406000002384F83C3010BDFCF736FE0023636467
:1040700084F83C30EFE7236C23F4885323F00203E9
:1040800043F0020323642046FFF746FF00206064EC
:10409000236C23F0030343F001032364E0E70120D2
:1040A0007047000010B582B013460022019290F8CC
:1040B0003C20012A00F094800446012280F83C2034
:1040C0000268906810F0010F13D1906840F0010071
:1040D0009060464A1068464AA2FB0020800C00EB24
:1040E0004000019002E001980138019001980028F9
:1040F000F9D12268906810F4807F03D0906820F492
:10410000807090602268906810F0010F5DD0206C84
:1041100020F4E06020F0010040F4807020645268D8
:1041200012F4806F05D0226C22F4405242F4805287
:104130002264226C12F4805F34D0626C22F006029A
:104140006264002284F83C20A26B2A48D063A26BF0
:1041500029481064A26B2948D06422686FF02200BD
:1041600010602068426842F0806242602068826885
:1041700042F48072826020680A4600F14C01A06B14
:1041800000F0B2FB1E4B5B6813F01F0F0DD12368CC
:104190009A6812F0405F25D19A6842F080429A6096
:1041A00000201BE000226264CBE72368154A93429B
:1041B00001D0002012E09A6812F0405F14D19A6892
:1041C00042F080429A60002008E0236C43F0100324
:1041D0002364636C43F001036364002002B010BDEC
:1041E0000220FBE70020F9E70020F7E75C0400204D
:1041F00083DE1B432D4200080B42000817420008D3
:104200000023014000200140704708B5806BFFF794
:10421000FBFF08BD704708B5806B40230364436C07
:1042200043F004034364FFF7F5FF08BD08B50346F8
:10423000806B026C12F0500F25D1036C43F40073B5
:10424000036403689A6812F0405F19D1027EBAB91C
:10425000DA6A12F4700F03D09A6812F4806F0FD1EB
:104260005A6822F020025A60036C23F480730364BE
:10427000036C13F4805F03D1036C43F00103036408
:10428000FCF7A2FD08BD026C12F0100F04D1826B86
:10429000D26C18469047F5E7FFF7BCFFF2E7000045
:1042A00030B482B00022019290F83C20012A00F044
:1042B000B6800346012280F83C200A68092A40D9CA
:1042C0000468E06892B202EB42021E3A4FF0070C1B
:1042D0000CFA02F220EA0202E2601C68E0680A8836
:1042E00002EB42021E3A8D6805FA02F20243E260D6
:1042F0004A68062A3CD81C68606B02EB8202053AC9
:104300004FF01F0C0CFA02F220EA020262631C68F2
:10431000606B4A6802EB8202053AB1F800C00CFA01
:1043200002F20243626318683E4A904250D0186815
:104330003C4A904255D0002083F83C0002B030BC8B
:1043400070470468206992B202EB42024FF0070CFA
:104350000CFA02F220EA020222611C6820690A8833
:1043600002EB42028D6805FA02F202432261BFE7C6
:104370000C2A16D81D68286B02EB8202233A1F24F0
:1043800004FA02F220EA02022A631D68286B4A68D6
:1043900002EB8202233A0C8804FA02F202432A63F7
:1043A000C1E71D68E86A02EB8202413A1F2404FA61
:1043B00002F220EA0202EA621D68E86A4A6802EB39
:1043C0008202413A0C8804FA02F20243EA62AAE746
:1043D0000A68122AABD11448426842F48002426053
:1043E000A5E70A68103A012AA5D80F48426842F4A6
:1043F000000242600A68102A9DD10C4A12680C49DA
:10440000A1FB0212920C02EB82025200019202E026
:10441000019A013A0192019A002AF9D18BE7022010
:104420008CE700BF00200140002301405C04002015
:1044300083DE1B4390F83C20012A00F0F28030B468
:104440000346012280F83C200A68092A40F289804C
:104450000568E86892B202EB42021E3A072404FAA9
:1044600002F220EA0202EA601D68E8688C680A88A5
:1044700002EB42021E3A94402043E8601868826BC7
:1044800022F4401282631C68A26B0869013842EA78
:104490000052A2631C68A06B4A680D69521BD2B21D
:1044A0000332D2B202EB82024FF01F0C0CFA02F27E
:1044B00020EA0202A2631C68A06B4A680D69521BC5
:1044C000D2B20332D2B202EB8202B1F800C00CFACF
:1044D00002F20243A2638869534A904256D0186898
:1044E000826822F470228260186882688C69224394
:1044F00082601868826822F44012826018688268BC
:10450000CC69224382604A7D002A4AD018684268FA
:1045100042F4806242600A7D002A48D018684268EE
:1045200042F4805242604A68022A46D0032A4FD0A1
:10453000012A58D1186842696FF30B02426118686A
:104540004269CC68224342611868384A904255D08B
:104550001868364A90425AD0002083F83C0030BC9C
:1045600070470568286992B202EB4202072404FAF8
:1045700002F220EA02022A611D6828698C680A8812
:1045800002EB420294402043286177E71868826872
:1045900022F4702282601868826822F440128260DD
:1045A000B1E71868426822F480624260B3E7186895
:1045B000426822F480524260B5E7186882696FF35E
:1045C0000B02826118688269CC6822438261BBE772
:1045D0001868C2696FF30B02C2611868C269CC68BF
:1045E0002243C261B0E71868026A6FF30B020262ED
:1045F0001868026ACC6822430262A5E70A68122A98
:10460000A6D10B48426842F480024260A0E70A68E3
:10461000103A012AA0D806494A6842F400024A60CA
:104620009AE70220704700BF01000F000020014000
:1046300000230140002807DB00F01F02400901238E
:104640009340024A42F82030704700BF00E100E08A
:10465000002808DB0901C9B200F1604000F56140A3
:1046600080F80013704700F00F000901C9B2014B38
:104670001954704714ED00E000B500F00700C0F1D8
:10468000070CBCF1040F28BF4FF0040C031D062BD0
:104690000FD9C31E4FF0FF3E0EFA0CF021EA0001C5
:1046A00099400EFA03FE22EA0E0241EA02005DF88A
:1046B00004FB0023EEE70000074AD36823F4E0631D
:1046C0001B041B0C000200F4E060034343F0BF63D3
:1046D00043F40033D360704700ED00E010B50446AA
:1046E000054BD868C0F30220FFF7C6FF01462046FD
:1046F000FFF7AEFF10BD00BF00ED00E008B5FFF70B
:1047000099FF08BD58B110B5044643791BB1012388
:104710006371002010BD0371FDF7A4F8F7E70120D5
:10472000704730B405682C6824F480242C60046839
:1047300063608368402B05D0036899600368DA6082
:1047400030BC704703689A600368D960F8E70000DE
:1047500010B40368D9B210390A4AA2FB0142120907
:10476000094CA25CC2655F2907D96FF309030433C2
:104770008365806D5DF8044B70476FF309038365B3
:10478000F7E700BFABAAAAAA9CC10008836A8269A6
:1047900092B9012B0AD0022B02D00BB10020704736
:1047A000C36A13F0807F28D100207047C36AB3F139
:1047B000C07F24D000207047B2F5005F09D0022BE3
:1047C00025D9032B25D1C36A13F0807F23D1002084
:1047D0007047032B03D8DFE803F01404140A002009
:1047E0007047C36A13F0807F0DD100207047C36A01
:1047F000B3F1C07F09D0002070470120704701202D
:104800007047012070470120704701207047012048
:1048100070470020704701207047000070B50446C3
:10482000FFF760FB002C5BD00546022384F835308F
:10483000002384F834302268136823F001031360E6
:1048400023681A6812F0010F0AD0FFF74BFB431BD5
:10485000052BF5D920236365032084F8350070BD4E
:104860001A68204911406268A0680243E068024368
:104870002069024360690243A0690243E069024380
:10488000206A02430A43616A04291ED01A6026681E
:10489000756925F00705636A1D43042B07D1A36AD8
:1048A0001D43E36A1BB12046FFF770FF90B97561A5
:1048B0002046FFF74DFFE26D3F23934083600020C9
:1048C0006065012384F83530C9E7E16A206B014354
:1048D0000A43DBE740236365012084F83500BEE727
:1048E0000120BCE73F8010F038B50446856D90F894
:1048F000340001282AD0012084F8340094F83500CF
:10490000012804D0002384F83430022038BD02206E
:1049100084F83500002060652046FFF702FFE26D55
:104920003F239340AB602268136843F01603136083
:10493000236C23B12268136843F0080313602268D4
:10494000136843F0010313600020DFE70220DDE776
:10495000F0B583B0044600230193724B1D68724B7F
:10496000A3FB0535AD0A876D3E68C26D08239340F1
:10497000334210D003681A6812F0040F0BD01A6883
:1049800022F004021A60C26D08239340BB60436D9D
:1049900043F001034365E26D01239340334209D0A4
:1049A0002268526912F0800F04D0BB60636D43F03F
:1049B00002036365E26D04239340334209D0226809
:1049C000126812F0020F04D0BB60636D43F0040361
:1049D0006365E26D10239340334224D0226812684D
:1049E00012F0080F1FD0BB6023681A6812F4802FE2
:1049F0000DD01B6813F4002F04D1236C9BB120460B
:104A0000984710E0A36C73B1204698470BE01A68F2
:104A100012F4807F03D11A6822F008021A60236C16
:104A20000BB120469847E26D20239340334254D087
:104A30002268126812F0100F4FD0BB6094F8353026
:104A4000052B0ED023681A6812F4802F33D01B6810
:104A500013F4002F2AD1636C002B3ED020469847D8
:104A60003BE02268136823F0160313602268536941
:104A700023F080035361236CA3B12268136823F0F1
:104A800008031360E26D3F239340BB60012384F869
:104A90003530002384F83430236D002B3FD020467E
:104AA00098473CE0A36C002BE7D1EBE7E36BA3B1A5
:104AB0002046984711E01A6812F4807F09D11A68DD
:104AC00022F010021A60012384F83530002384F8A4
:104AD0003430E36B0BB120469847636DFBB1636DD7
:104AE00013F0010F17D0052384F8353022681368BE
:104AF00023F001031360019B01330193AB4204D8FF
:104B000023681B6813F0010FF5D1012384F83530B9
:104B1000002384F83430E36C0BB12046984703B08F
:104B2000F0BD00BF5C040020B5814E1B00230F2B9D
:104B300000F2D78070B582B065E085684FEA430E19
:104B4000032404FA0EF425EA0405CC6804FA0EF4F2
:104B50002C438460446824EA02044A68C2F30012C9
:104B60009A40224342605CE0DC08083450F824207C
:104B700003F00705AD004FF00F0E0EFA05FE22EA16
:104B80000E0E0A69AA4042EA0E0240F824205CE0B8
:104B9000042200E0002202FA0EF22A430234514DB0
:104BA00045F82420504A94686FEA0C0224EA0C0568
:104BB0004E6816F4801F01D04CEA04054A4CA560EB
:104BC000E46802EA04054E6816F4001F01D04CEABE
:104BD0000405454CE560646802EA04054E6816F475
:104BE000003F01D04CEA04053F4C65602468224038
:104BF0004D6815F4803F01D04CEA04023A4C226023
:104C000001330F2B6BD801229A400C6804EA020C86
:104C100032EA0404F4D14C6804F00304013C012C92
:104C20008BD94A6802F00302032A09D0C4685D00E8
:104C30000322AA4024EA02048A68AA402243C260EE
:104C40004A6802F00302022A8ED004684FEA430E3B
:104C5000032202FA0EF224EA02044A6802F0030276
:104C600002FA0EF2224302604A6812F4403FC7D0B3
:104C7000002201921D4A546C44F480445464526CE6
:104C800002F480420192019A9C08A51C154A52F830
:104C9000255003F0030E4FEA8E0E0F2202FA0EF299
:104CA00025EA0205124A90423FF474AF02F5806291
:104CB00090420ED002F5806290420CD002F58062E4
:104CC00090420AD002F5806290423FF461AF072221
:104CD00061E701225FE702225DE703225BE702B0A2
:104CE00070BD704700380140003C01400038024070
:104CF000000002400369194201D0012070470020E2
:104D000070470AB181617047090481617047436946
:104D100001EA030221EA030141EA0241816170478D
:104D200008B5054B5B69034200D108BD024B5861D1
:104D3000FDF799FEF9E700BF003C0140002800F0B4
:104D4000CC8070B5044690F83D30002B77D02423FA
:104D500084F83D302268136823F001031360226851
:104D6000136843F4004313602268136823F400437C
:104D7000136001F025FA62685A4B9A4264D85A4B84
:104D800098428CBF00230123002B40F0A880574994
:104D9000A1FB00318B0C25686A6822F03F0242EAD1
:104DA00091426A6021680A6A22F03F0266684D4DAE
:104DB000AE424FD8013313430B622168CA6922F413
:104DC0004F4222F0FF026568464B9D424CD8431E7D
:104DD0006D00B3FBF5F3013340F6FC70034278D06D
:104DE000C3F30B031A43CA6121680B6823F0C003A5
:104DF000E269206A024313430B6021688B6823F445
:104E0000034323F0FF032269E068024313438B60EE
:104E10002168CB6823F0FF036269A0690243134352
:104E2000CB602268136843F0010313600020206404
:104E3000202384F83D30206384F83E0070BD80F864
:104E40003C30FDF7F9FB82E7294B98428CBF0023E9
:104E5000012399E74FF4967505FB03F3254DA5FB58
:104E600003539B090133A6E7A668BEB9431E05EBB1
:104E7000450CB3FBFCF30133C3F30B03B3FA83F329
:104E80005B0943BBC6B9431E05EB4505B3FBF5F310
:104E90000133C3F30B0343F40043A3E7431E05EBC5
:104EA000850C0CEB8C0CB3FBFCF30133C3F30B034D
:104EB000B3FA83F35B09E4E7431E05EB850505EBD5
:104EC0008505B3FBF5F30133C3F30B0343F4404310
:104ED00088E7042386E7012384E701207047012047
:104EE000ACE700BFA08601007F841E0083DE1B4369
:104EF000FF083D00D34D621000B583B00022009240
:104F00000D4B596C41F480415964596C01F4804156
:104F1000009100990192196C41F0805119641B6C49
:104F200003F080530193019B0F216FF00100FFF705
:104F3000D5FB03B05DF804FB003802402DE9F043D7
:104F400083B0D0F8008001EBC10300EB83039A6AC1
:104F50005B6A9A4254D807460C469B1A01EBC10281
:104F600000EB8202D2699A4200D31A4602F1030989
:104F70004FEA990915E006F103094FEA9909BB794F
:104F800004EBC40507EB8505296A0093B3B2E2B2CE
:104F9000404602F09AFA2B6A33442B62AB6A3344E0
:104FA000AB6208EB441303F510639B699BB24B455E
:104FB00012D304EBC40307EB83039A6A5B6A9A4239
:104FC0000AD24BB19B1A04EBC40207EB8202D669EA
:104FD0009E42D0D31E46CEE704EBC40307EB830703
:104FE0007A6ABB6A9A420FD804F00F040122A240E9
:104FF000D8F8343823EA0203C8F83438002000E037
:10500000012003B0BDE8F0830020FAE730B583B09B
:1050100000287AD00446056890F89534C3B103237C
:1050200084F89534B5F1A04F17D0206801F0FEFF49
:10503000237C8DF80030231D0ECB206801F035FF56
:1050400070B1022384F895340125284603B030BDA1
:1050500080F8943404F02AFEE1E70023A371E4E72A
:105060000021206802F047FC0246B8B903462079C7
:10507000984218D903EBC30104EB81010120487564
:105080000B75CB8500200876C861086203EBC3016D
:1050900004EB810148620133DBB2E8E7022384F8C4
:1050A00095340125D1E7904217D902EBC20304EBF6
:1050B0008303002183F8551283F8542283F8581291
:1050C000C3F85C12C3F8601202EBC20304EB830363
:1050D000C3F864120132D2B2E5E7237C8DF80030C8
:1050E000231D0ECB206801F0F7FF054620B10223F7
:1050F00084F895340125A8E700236374012384F81C
:105100009534206802F0B6FB9FE701259DE7036810
:1051100090F89424012A1AD010B50446012280F890
:105120009424DA6812F0400F02D0427B012A09D0A1
:10513000206801F075FF206802F08EFB002084F8E3
:10514000940410BD9A6B42F480329A63F0E7022017
:105150007047000070B504460D460068066C00EB11
:10516000411303F530639A68A179012911D03849B8
:105170008E4256D03DB905EBC50304EB8303D3F84B
:105180006432002B5ED0E9B2204604F0DBFD002043
:1051900070BD12F0080F09D02E498E42F7D912F4D3
:1051A000004FF4D04FF400429A60F0E712F0200F65
:1051B00002D020229A60EAE712F0280FE7D12549B1
:1051C0008E4206D912F4004F03D04FF400429A6089
:1051D000DDE705EBC50204EB8202D2F874121B690D
:1051E000C3F31203CB1AC2F868327DB905EBC502CE
:1051F00004EB8202D2F864226AB105EBC50204EB2B
:105200008202D2F860121944C2F86012E9B2204654
:1052100004F098FDBBE704F29C42012102F0AAFBD6
:10522000F4E712F4004F03D04FF400429A60AEE767
:1052300012F0200F01D020229A60E9B2204604F03B
:1052400081FDA4E704F29C42002102F093FB9AE75F
:105250000A31544F0A30544F38B5044603681D6C68
:1052600003EB4113D3F8081B0E4A954207D903F507
:10527000306311F4004F02D04FF400429A60204690
:1052800004F058FD074B9D4202D9A379012B01D0B0
:10529000002038BD04F29C420121206802F06AFB24
:1052A000F6E700BF0A30544F90F89434012B0CD02D
:1052B00010B50446012380F894344174006802F06C
:1052C000BBFA002084F8940410BD0220704738B562
:1052D00005468C4611F0800F2BD101F00F0E0EEB1E
:1052E000CE04A40004F514740444211D0EEBCE0E6C
:1052F00000EB8E0E00208EF855020CF00F0C81F89A
:1053000000C0C2F30A028A600B714A780AB1A1F8A0
:105310001AC0022B1CD095F89434012B1BD001230A
:1053200085F89434286801F0B4FF002085F89404CF
:1053300038BD01F00F0000EBC00189001031294495
:10534000043100EBC00005EB800001244475D4E774
:1053500000234B71DFE70220EAE710B504460A4656
:1053600011F0800F20D101F00F0000EBC0039B0073
:1053700003F514732344191D00EBC00004EB8000F7
:10538000002380F8553202F00F020A7094F894342A
:10539000012B18D0012384F89434206801F0C6FF53
:1053A000002084F8940410BD01F00F0000EBC0034E
:1053B0009B0010332344191D00EBC00004EB800058
:1053C00001234375DFE70220EDE710B5144601F035
:1053D0000F0C0CEBCC01890001F514710144043170
:1053E0000CEBCC0E00EB8E0ECEF86022CEF86432C1
:1053F0000023CEF868328EF855328EF854C2827986
:10540000012A04D0006802F077F8002010BDCEF821
:105410007042F7E701F00F0101EBC10100EB8100E1
:10542000D0F86802704710B5144601F00F0C0CEB71
:10543000CC0189001031014404310CEBCC0E00EB9F
:105440008E0ECEF82020CEF824300023CEF828305F
:1054500001238EF815308EF814C082799A4204D058
:10546000006802F049F8002010BDCEF83040F7E7A0
:1054700038B501F00F050279AA4238D304460B462D
:1054800011F0800F1FD101EBC101890001F51471EA
:105490000144043103EBC30300EB8303002283F8D0
:1054A000552201238B700D7094F89434012B20D079
:1054B000012384F89434206802F063F985B1002058
:1054C00084F8940438BD05EBC5018900103101440E
:1054D000043105EBC50300EB830301225A75E0E7B5
:1054E00004F29C42A179206802F044FAE7E7012027
:1054F000E8E70220E6E701F00F0302799A4230D391
:1055000010B5044611F0800F1ED103EBC3018900D2
:1055100001F514710144043103EBC30200EB820274
:10552000002082F8550200228A700B7094F894349F
:10553000012B18D0012384F89434206802F04EF92E
:10554000002084F8940410BD03EBC30189001031DE
:105550000144043103EBC30200EB820201205075C9
:10556000E1E7012070470220EDE708B511F0800F58
:105570000CD101F00F0101EBC101890001F514719B
:1055800001440431006801F041FF08BD01F00F0142
:1055900001EBC1018900103101440431F2E72DE92A
:1055A000F04F83B004460568284602F0A0F910B118
:1055B00003B0BDE8F08F0646206802F069F90028C4
:1055C000F6D005F50067BB68C3F30D23C4F8D434E7
:1055D000206802F05DF910F0020F04D022685369D0
:1055E00003F002035361206802F052F910F0100F2B
:1055F00015D02268936923F010039361D5F82080B9
:1056000008F00F0908F4F013B3F5802F4CD0B3F570
:10561000402F6FD02268936943F010039361206894
:1056200002F036F910F4002F76D1206802F030F93C
:1056300010F4802F40F0E080206802F029F9002863
:10564000C0F26181206802F023F910F4006F09D0E4
:10565000BB6813F0010F40F06E812268536903F4B8
:1056600000635361206802F013F910F4805F40F08A
:105670006681206802F00CF910F4005F40F0B381FD
:10568000206802F005F910F0080F40F0C48120688E
:1056900002F0FEF810F0800F00F0D781AB6923F024
:1056A0008003AB610126C0E147F6F07318EA030FEF
:1056B000B0D04FEA181A4FEAC903019309EBC90B9E
:1056C00004EB8B0BC8F30A12DBF86012284602F0D9
:1056D00035F8DBF86032CAF30A0A5344CBF860327B
:1056E000DBF86832019A4A4404EB82025344C2F860
:1056F00068328FE7082204F29C41284602F01EF827
:1057000009EBC90304EB8303D3F86822C8F30A1832
:105710004244C3F868227DE7206802F0BDF8804665
:10572000B14635E005EB49130122C3F8082B494681
:105730002046FFF70FFD3CE005EB49130822C3F8B4
:10574000082B49462046FFF787FD35E009EBC903E2
:1057500004EB830393F85732012B41D005EB491337
:105760000222C3F8082B1AF0200F04D005EB4913CE
:105770002022C3F8082B1AF4005F05D005EB49136B
:105780004FF40052C3F8082B09F101094FEA5808F9
:10579000B8F1000F3FF449AF18F0010FF4D05FFAF1
:1057A00089FB5946206802F087F8824610F0010F05
:1057B000B8D11AF0080FBFD11AF0100F04D005EBC2
:1057C00049131022C3F8082B1AF0020FCBD06B69D3
:1057D00013F0800FBAD07B6843F480637B60B5E739
:1057E00009EBC90304EB8303002283F857225946CF
:1057F000204604F0F5FAB1E7206802F055F880463B
:10580000B14625E05946204604F0A8FA1AF0080FE0
:1058100004D005EB49130822C3F808291AF0100F29
:1058200004D005EB49131022C3F808291AF0400FE1
:1058300004D005EB49134022C3F808291AF0020FDF
:1058400040D11AF0800F59D109F101094FEA5808E7
:10585000B8F1000F3FF4F0AE18F0010FF4D05FFA8A
:1058600089FB5946206802F030F8824610F0010F9B
:10587000CCD009F00F02012101FA02F27B6B23EA7E
:1058800002037B6305EB4913C3F80819A3798B4224
:10589000B8D109EBC90304EB83031A6AD9690A4436
:1058A0001A62B9F1000FADD109EBC90304EB830310
:1058B0005B6A002BA6D104F29C420121206802F011
:1058C00059F89FE74946284601F0B6FB09EBC903A2
:1058D00004EB8303DB7D012B05D005EB491302228A
:1058E000C3F80829ADE709EBC90304EB83030022E1
:1058F000DA755946204604F079FAEEE74946204623
:10590000FFF71CFBA0E77B6823F001037B6094F8A2
:10591000CC34012B08D0204604F05CFA226853698D
:1059200003F0004353618DE6002184F8CC14204637
:1059300000F03FF9F2E7204604F034FA8DE67B6888
:1059400023F001037B601021206801F075FB1AE051
:1059500005EB46134FF67F31C3F80819D3F8002939
:1059600022F40012C3F80029C3F8081BD3F8002B57
:1059700022F40012C3F8002BD3F8002B42F000628F
:10598000C3F8002B01362379B342E1D8FB6943F019
:105990000113FB61E37BDBB1D7F8843043F00B03E9
:1059A000C7F884307B6C43F00B037B64D5F8003878
:1059B00023F4FE63C5F8003804F29C42A179206804
:1059C00001F0D8FF2268536903F48053536150E615
:1059D0007B6943F4005343F02B037B613B6943F045
:1059E0000B033B61E2E7206801F0B6FF206801F09D
:1059F0003FFCE071266800F0DDFB0146E2793046AD
:105A000001F09CFA204604F0BAF92268536903F4C5
:105A10000053536134E6204604F0ABF92268536921
:105A200003F00803536132E601362379B3420CD9FF
:105A300006EBC60304EB830393F85732012BF3D133
:105A4000F1B22046FFF791FDEEE7206801F020FF5C
:105A500010F4801F25D1206801F01AFF10F4001FF8
:105A600059D0012326E001362379B3421BD905EB37
:105A70004613D3F8002906EBC60304EB83031B7E11
:105A8000012BF0D1002AEEDA06EBC60304EB830308
:105A90000122DA7566F07F01C9B22046FFF765FD85
:105AA000E1E70126E0E72268536903F480135361BC
:105AB000D1E7013322799A4228D905EB4312D2F873
:105AC000001B03EBC30204EB820292F85822012A66
:105AD000EFD10029EDDA01F48031D4F8D42402F0BA
