:020000040800F2
:10000000000001209DA90008196C00081B6C000865
:100010001D6C00081F6C0008216C00080000000027
:10002000000000000000000000000000D12D0008CA
:10003000236C000800000000712E00084D0E00081F
:10004000EDA90008EDA90008EDA90008EDA9000838
:10005000EDA90008EDA90008EDA90008EDA9000828
:10006000EDA90008EDA90008EDA90008EDA9000818
:10007000EDA90008EDA90008EDA90008EDA9000808
:10008000EDA90008EDA90008EDA900080000000096
:10009000000000000000000000000000256C0008C7
:1000A000EDA90008EDA90008316C0008EDA90008D1
:1000B000496C0008EDA90008EDA90008EDA90008A9
:1000C000EDA90008EDA90008EDA90008EDA90008B8
:1000D000EDA90008EDA90008EDA900080000000046
:1000E000EDA90008EDA90008EDA900080000000036
:1000F000000000000000000000000000EDA9000862
:1001000000000000EDA90008EDA90008EDA9000815
:1001100000000000000000000000000000000000DF
:100120005D6C0008EDA90008EDA90008EDA9000824
:10013000EDA9000800000000000000000000000021
:100140000000000000000000000000006D6C0008CE
:10015000EDA90008EDA90008EDA90008EDA9000827
:10016000EDA90008EDA90008000000000000000053
:10017000000000000000000000000000000000007F
:1001800000000000EDA900080000000000000000D1
:04019000EDA90008CD
:1001A000034613F8012B002AFBD1181A01387047B7
:1001B00001F0FF01102A2BDB10F0070F08D010F818
:1001C000013B013A8B422DD010F0070F42B3F6D11C
:1001D000F0B441EA012141EA014122F007047FF035
:1001E00000070023F0E80256083C85EA010586EA8C
:1001F000010685FA47F5A3FA87F586FA47F6A5FAC8
:1002000087F68EB9EED1F0BC01F0FF0102F00702D3
:1002100032B110F8013B013A83EA010313B1F8D17E
:100220000020704701387047002D06BF354603385F
:10023000073815F0010F07D1013015F4807F02BF98
:10024000013015F4C03F0130F0BC0138704700BFE9
:1002500081F0004102E000BF83F0004330B54FEA77
:1002600041044FEA430594EA050F08BF90EA020FE4
:100270001FBF54EA000C55EA020C7FEA645C7FEA77
:10028000655C00F0E2804FEA5454D4EB5555B8BF9A
:100290006D420CDD2C4480EA020281EA030382EA0B
:1002A000000083EA010180EA020281EA0303362D9D
:1002B00088BF30BD11F0004F4FEA01314FF4801C70
:1002C0004CEA113102D0404261EB410113F0004F82
:1002D0004FEA03334CEA133302D0524263EB430339
:1002E00094EA050F00F0A780A4F10104D5F1200ED7
:1002F0000DDB02FA0EFC22FA05F2801841F1000132
:1003000003FA0EF2801843FA05F359410EE0A5F105
:1003100020050EF1200E012A03FA0EFC28BF4CF036
:10032000020C43FA05F3C01851EBE37101F00045EC
:1003300007D54FF0000EDCF1000C7EEB00006EEBF9
:100340000101B1F5801F1BD3B1F5001F0CD3490883
:100350005FEA30004FEA3C0C04F101044FEA4452DA
:1003600012F5800F80F09A80BCF1004F08BF5FEA61
:10037000500C50F1000041EB045141EA050130BD41
:100380005FEA4C0C404141EB0101013C28BFB1F553
:10039000801FE9D291F0000F04BF01460020B1FA9E
:1003A00081F308BF2033A3F10B03B3F120020CDA71
:1003B0000C3208DD02F1140CC2F10C0201FA0CF04F
:1003C00021FA02F10CE002F11402D8BFC2F1200CB4
:1003D00001FA02F120FA0CFCDCBF41EA0C0190406A
:1003E000E41AA2BF01EB0451294330BD6FEA0404B3
:1003F0001F3C1CDA0C340EDC04F11404C4F120029E
:1004000020FA04F001FA02F340EA030021FA04F3AF
:1004100045EA030130BDC4F10C04C4F1200220FA06
:1004200002F001FA04F340EA0300294630BD21FA44
:1004300004F0294630BD94F0000F83F4801306BF0A
:1004400081F480110134013D4EE77FEA645C18BFFE
:100450007FEA655C29D094EA050F08BF90EA020F95
:1004600005D054EA000C04BF1946104630BD91EA8D
:10047000030F1EBF0021002030BD5FEA545C05D190
:100480004000494128BF41F0004130BD14F58004CF
:100490003CBF01F5801130BD01F0004545F0FE4143
:1004A00041F470014FF0000030BD7FEA645C1ABF78
:1004B000194610467FEA655C1CBF0B46024650EAAF
:1004C000013406BF52EA033591EA030F41F40021DB
:1004D00030BD00BF90F0000F04BF0021704730B561
:1004E0004FF4806404F132044FF000054FF0000136
:1004F00050E700BF90F0000F04BF0021704730B5F7
:100500004FF4806404F1320410F0004548BF4042CB
:100510004FF000013EE700BF42004FEAE2014FEA20
:1005200031014FEA02701FBF12F07F4393F07F4FFB
:1005300081F06051704732F07F4208BF704793F0FE
:100540007F4F04BF41F40021704730B54FF4607411
:1005500001F0004521F000411CE700BF50EA010214
:1005600008BF704730B54FF000050AE050EA0102BD
:1005700008BF704730B511F0004502D5404261EB2D
:1005800041014FF4806404F132045FEA915C3FF46E
:10059000D8AE4FF003025FEADC0C18BF03325FEA0B
:1005A000DC0C18BF033202EBDC02C2F1200300FABC
:1005B00003FC20FA02F001FA03FE40EA0E0021FAE1
:1005C00002F11444BDE600BF70B54FF0FF0C4CF4CF
:1005D000E06C1CEA11541DBF1CEA135594EA0C0F81
:1005E00095EA0C0F00F0DEF82C4481EA030621EABC
:1005F0004C5123EA4C5350EA013518BF52EA0335F7
:1006000041F4801143F4801338D0A0FB02CE4FF0A8
:100610000005E1FB02E506F00042E0FB03E54FF0D8
:100620000006E1FB03569CF0000F18BF4EF0010ED0
:10063000A4F1FF04B6F5007F64F5407404D25FEACC
:100640004E0E6D4146EB060642EAC62141EA55517F
:100650004FEAC52040EA5E504FEACE2EB4F1FD0CC1
:1006600088BFBCF5E06F1ED8BEF1004F08BF5FEA3F
:10067000500E50F1000041EB045170BD06F00046F1
:1006800046EA010140EA020081EA0301B4EB5C049E
:10069000C2BFD4EB0C0541EA045170BD41F4801196
:1006A0004FF0000E013C00F3AB8014F1360FDEBFBB
:1006B000002001F0004170BDC4F10004203C35DA97
:1006C0000C341BDC04F11404C4F1200500FA05F31A
:1006D00020FA04F001FA05F240EA020001F00042BB
:1006E00021F0004110EBD37021FA04F642EB060131
:1006F0005EEA430E08BF20EAD37070BDC4F10C045B
:10070000C4F1200500FA04F320FA05F001FA04F21E
:1007100040EA020001F0004110EBD37041F100010A
:100720005EEA430E08BF20EAD37070BDC4F1200515
:1007300000FA05F24EEA020E20FA04F301FA05F27D
:1007400043EA020321FA04F001F0004121FA04F225
:1007500020EA020000EBD3705EEA430E08BF20EAF5
:10076000D37070BD94F0000F0FD101F0004640002F
:1007700041EB010111F4801F08BF013CF7D041EAB1
:10078000060195F0000F18BF704703F000465200B5
:1007900043EB030313F4801F08BF013DF7D043EA86
:1007A0000603704794EA0C0F0CEA135518BF95EA3C
:1007B0000C0F0CD050EA410618BF52EA4306D1D1C3
:1007C00081EA030101F000414FF0000070BD50EAE2
:1007D000410606BF1046194652EA430619D094EA6C
:1007E0000C0F02D150EA013613D195EA0C0F05D156
:1007F00052EA03361CBF104619460AD181EA0301AA
:1008000001F0004141F0FE4141F470014FF0000061
:1008100070BD41F0FE4141F4780170BD70B54FF0FC
:10082000FF0C4CF4E06C1CEA11541DBF1CEA13557C
:1008300094EA0C0F95EA0C0F00F0A7F8A4EB05045E
:1008400081EA030E52EA03354FEA013100F0888055
:100850004FEA03334FF0805545EA131343EA12631E
:100860004FEA022245EA111545EA10654FEA0026D3
:100870000EF000419D4208BF964244F1FD0404F58C
:10088000407402D25B084FEA3202B61A65EB0305E8
:100890005B084FEA32024FF480104FF4002CB6EBA5
:1008A000020E75EB030E22BFB61A754640EA0C0025
:1008B0005B084FEA3202B6EB020E75EB030E22BF65
:1008C000B61A754640EA5C005B084FEA3202B6EBA6
:1008D000020E75EB030E22BFB61A754640EA9C0065
:1008E0005B084FEA3202B6EB020E75EB030E22BF35
:1008F000B61A754640EADC0055EA060E18D04FEAF3
:10090000051545EA16754FEA06164FEAC30343EA92
:1009100052734FEAC2025FEA1C1CC0D111F4801F5F
:100920000BD141EA00014FF000004FF0004CB6E758
:1009300011F4801F04BF01430020B4F1FD0C88BFF7
:10094000BCF5E06F3FF6AFAEB5EB030C04BFB6EB02
:10095000020C5FEA500C50F1000041EB045170BDF5
:100960000EF0004E4EEA113114EB5C04C2BFD4EB22
:100970000C0541EA045170BD41F480114FF0000EA6
:10098000013C90E645EA060E8DE60CEA135594EA22
:100990000C0F08BF95EA0C0F3FF43BAF94EA0C0F25
:1009A0000AD150EA01347FF434AF95EA0C0F7FF49A
:1009B00025AF104619462CE795EA0C0F06D152EAEE
:1009C00003353FF4FDAE1046194622E750EA4106D2
:1009D00018BF52EA43067FF4C5AE50EA41047FF4E3
:1009E0000DAF52EA43057FF4EBAE12E74A0011D295
:1009F00012F5001211D20DD56FF47873B3EB625279
:100A00000ED44FEAC12343F0004343EA505323FA84
:100A100002F070474FF00000704750EA013002D1F9
:100A20004FF0FF3070474FF00000704753B94AB99C
:100A3000002908BF00281CBF4FF0FF314FF0FF30E6
:100A400000F00CB8ADF1080C6DE904CE0AF0BAFD67
:100A5000DDF804E0DDE9022304B07047704700BF11
:100A600010B5054C237833B9044B13B10448AFF3E8
:100A700000800123237010BD9401002000000000BD
:100A8000BCB8000808B5034B1BB103490348AFF3DA
:100A9000008008BD0000000098010020BCB80008DC
:100AA00010B58CB00024089409940A940B94202269
:100AB0002146684609F0D2FF8348844B03604FF417
:100AC00080334360846001230361047680F8204012
:100AD000C4627F4A8262C4600D22C26180F83040E5
:100AE000436103F0C1F9002840F0B8800023089367
:100AF000012209920A9308A9734803F0DFFA00283B
:100B000040F0AF80012308930223099308A96E489F
:100B100003F0D4FA002840F0A780022308930323AF
:100B2000099308A9684803F0C9FA002840F09F809B
:100B3000032308930423099308A9634803F0BEFA2A
:100B4000002840F09780042308930523099308A9FF
:100B50005D4803F0B3FA002840F08F800523089326
:100B60000623099308A9584803F0A8FA002840F082
:100B70008780062308930723099308A9524803F0A6
:100B80009DFA00287FD1072308930823099308A919
:100B90004D4803F093FA002878D10E2308930923D7
:100BA000099308A9484803F089FA002871D10A235B
:100BB0000893099308A9444803F080FA00286BD1F0
:100BC0000B230893099308A93F4803F077FA0028FC
:100BD00065D10C230893099308A93B4803F06EFAEA
:100BE00000285FD10D230893099308A9364803F024
:100BF00065FA002859D100230093012201920422B2
:100C0000049202930793334A06928DF815308DF8BB
:100C10001430039369462C4803F01AFB002847D18F
:100C200001230093022301936946274803F010FB38
:100C3000002840D1022300930323019369462248F0
:100C400003F006FBD0BB0323009304230193694602
:100C50001D4803F0FDFAA0BB0CB010BD01F064FF0D
:100C600044E701F061FF4DE701F05EFF55E701F059
:100C70005BFF5DE701F058FF65E701F055FF6DE7A9
:100C800001F052FF75E701F04FFF7CE701F04CFFE8
:100C900083E701F049FF8AE701F046FF90E701F0A2
:100CA00043FF96E701F040FF9CE701F03DFFA2E71C
:100CB00001F03AFFB4E701F037FFBBE701F034FF82
:100CC000C1E701F031FFC7E710020020002001401A
:100CD0000100000F01000F00F0B589B0002303935D
:100CE0000493059306930793026803F1804303F589
:100CF00090339A4201D009B0F0BD0446002500951A
:100D000003F58C335A6C42F480725A645A6C02F4C4
:100D100080720092009A01951A6B42F004021A63E5
:100D20001A6B02F004020192019A02951A6B42F0CA
:100D300001021A631B6B03F001030293029B1F2342
:100D400003930327049703AE3146144803F0FCFDD8
:100D5000FF230393049705953146114803F0F4FDF2
:100D60001048114B036045608560C5604FF4806397
:100D700003614FF4006343614FF400538361C56125
:100D80004FF400330362456203F056FC18B9054B7B
:100D9000A3639C63AFE701F0C7FEF8E700080240D9
:100DA00000000240B00100201064024008B5044B6E
:100DB000186818B16822034903F082F808BD00BF23
:100DC00028030020580200207047000008B558B1E1
:100DD000074A106000231A460121064800F0D8F89F
:100DE000012100F029F908BD034801F0E3F8FAE712
:100DF00028030020AD0D00083CB9000810B50C28F0
:100E000002D8002319460FE00A4801F0D3F8002069
:100E10000EE003EB430203EB82020244064C34F87B
:100E2000122011FA82F10133072BF2D9C1F3CF005E
:100E300010BD00BF6CB900085802002008B507F0CB
:100E4000FCFF10B102684068904708BD08B54FF03C
:100E5000E0231B6907F09CFA012800D108BD02F0CD
:100E600039F8FBE7EFF305832BB9064B186828B96F
:100E700001221A6070476FF0050070474FF0FF3095
:100E8000704700BFE4090020EFF3058373B90A4BF4
:100E90001B68012B0DD110B50024084BDC77064BE5
:100EA00002221A6006F08CFF204610BD6FF005008C
:100EB00070474FF0FF307047E409002000ED00E07C
:100EC000F0B587B000240594EFF3058404BBF8B1B6
:100ED000002A34D0156893692BB11E46013B372B8D
:100EE00002D9002015E01826536813F0010F3FD1F6
:100EF000546984B14FEA940C93682BB1D7685B2F87
:100F000002D9176907B184B943B14FF0FF330BB36E
:100F1000059807B0F0BD4FF0800CEDE7D368A3B99A
:100F20001369ABB14FF0FF33F1E7029301970096DD
:100F30000B466246294606F0D5FE0590E8E71546C1
:100F4000002318264FF0800CE1E74FF0FF33DEE777
:100F50000023DCE705AB019300960B461FFA8CF2E9
:100F6000294606F0FAFE0128D2D000230593CFE7E8
:100F70000020CEE708B5EFF3058333B908B90020A8
:100F800008BD07F07FF80020FAE76FF00500F7E7EB
:100F90002DE9F04383B0EFF30587002F43D10646D8
:100FA000894615461C4600283FD0082001F0B2FAB9
:100FB000804600283BD006604560B9F1000F00D0A4
:100FC000012704B32068A36813B1E2682B2A10D864
:100FD00053B14FF0FF33DBB10024404601F01CFB5E
:100FE000204603B0BDE8F083E3687BB14FF0FF33E8
:100FF000F1E701930F4B009343463A46012107F076
:1010000067FD04460CE020460023E4E70023E2E706
:10101000084B009343463A46012107F03DFD044644
:10102000002CDDD1D9E70024DAE70024D8E7044614
:10103000D6E700BF3D0E0008EFF305836BB90A4603
:1010400070B100B583B00093042107F06BFD012857
:1010500009D1002003B05DF804FB6FF00500704774
:101060006FF0030070476FF00200F3E708B5EFF38D
:101070000583CBB9A0B1836813B1C2681F2A0BD80E
:101080002BB14FF0FF338BB900F0F5FF08BDC368FB
:1010900043B14FF0FF33F6E7184600F0C7FFF5E71E
:1010A0000023F0E70023EEE70020EFE70020EDE764
:1010B000F8B110B582B00C46B1F1807F1CD2EFF3CD
:1010C00005829AB10022019201AA01F02DF8B8B16F
:1010D000019BC3B14FF0E0234FF08052C3F8042DC1
:1010E000BFF34F8FBFF36F8F204607E000F0D1FFB3
:1010F00004E06FF0030070476FF0030002B010BD12
:101100006FF00200FAE72046F8E770B582B0EFF31F
:101110000583002B3AD1144600283BD000293BD050
:101120006AB393684BB1D2684F2A06D9226922B1BB
:1011300001FB00F56669AE421BD273B14FF0FF337D
:1011400063BB002202F0E7F8054605B304B124684A
:101150002146284602F034FB19E0E3688BB9236985
:1011600013B14FF0FF33EBE763696BB14FF0FF331F
:10117000E6E70025009502F084F80546E5E7002340
:10118000DEE74FF0FF33DBE70023D9E700252846F1
:1011900002B070BD0025FAE70025F8E70025F6E764
:1011A00010B582B01C46EFF30583C3B118B329B361
:1011B0003CBB0023019301AA02F095F9012823D139
:1011C000019850B14FF0E0234FF08052C3F8042D46
:1011D000BFF34F8FBFF36F8F002002B010BDB0B1CF
:1011E000C1B10023224602F0BAF8012815D0B4B1EB
:1011F0006FF00100F1E76FF00300EEE76FF003001E
:10120000EBE76FF00300E8E76FF00200E5E76FF04F
:101210000300E2E76FF00300DFE70020DDE76FF097
:101220000200DAE710B582B01C46EFF30583C3B1C4
:1012300010B321B334BB0023019301AA02F069FA71
:10124000012822D1019850B14FF0E0234FF0805295
:10125000C3F8042DBFF34F8FBFF36F8F002002B090
:1012600010BDA8B1B9B1224602F0A4F9012815D0E9
:10127000B4B16FF00100F2E76FF00300EFE76FF039
:101280000300ECE76FF00300E9E76FF00200E6E728
:101290006FF00300E3E76FF00300E0E70020DEE714
:1012A0006FF00200DBE70000034B0360034B0B60B1
:1012B00080231360704700BF880900208807002042
:1012C000034B0360034B0B604FF480731360704754
:1012D0002C0700202C03002008B51F4DEB8B1F4C62
:1012E000A3846A7F012A14BF002201221A2120460A
:1012F00009F040FBEA8BB2F57A7F94BF002201220D
:101300000D21204609F036FB6A7C022A14BF002218
:1013100001221821204609F02DFB6A7C032A14BF04
:10132000002201221921204609F024FBEB686360AA
:101330002B6DA360EB6CE3604FF07E532361AB69D0
:101340006361074BDB69A361064BE3616B6D23624D
:101350000A20FFF70FFEC0E7481C0020601B00209A
:10136000A81C0020000020412DE9F04383B00F4667
:1013700015468DF8070096B206F107081FFA88F89F
:10138000013676BA01220DF10701002009F0D6FAE4
:101390002A46394609F0D2FA040204F47F0444EAEA
:1013A0001064030A03F47F431C4344EA0064DFF83B
:1013B0003090A9F800609DF8073089F802302A467D
:1013C000394609F1030009F07DFB033549F8054072
:1013D0004146484608F0C8FA03B0BDE8F08300BFB4
:1013E000080E002038B51446012B07D04AB9012257
:1013F0004FF40051074803F092FB38BDFFF7B4FFEC
:10140000F5E7054D284609F05DFBA1B2284608F036
:10141000ABFAECE700080240080E002070B592B06D
:10142000002208210A20FFF770FE134B186009AC58
:10143000242632460021204609F010FB0F4B099369
:101440004FF480530E9318250F95224600210C4827
:10145000FFF736FD32460021684609F0FFFA094BD6
:1014600000934FF48063059306956A460021064871
:10147000FFF726FD12B070BDC81B00208CB9000814
:10148000A516000898B90008D912000808B5037815
:10149000433B102B32D8DFE803F0213131093131E1
:1014A0002931313131313131193111000023032219
:1014B00013491846FFF796FF012020E0002313226E
:1014C00010491846FFF78EFF012018E00023132271
:1014D0000C491846FFF786FF012010E00023012287
:1014E000FF211846FFF77EFF012008E000231A467F
:1014F00019461846FFF776FF012000E0002008BDDE
:10150000A4B90008A8B9000801280DD808B58818A2
:1015100040F63813984200DD08BD0123034801441A
:101520000020FFF75FFFF7E7704700BF2812002099
:1015300030B583B005460C46FFF7A8FF002840F001
:10154000A480052C21D8AB78423B352B00F2988043
:10155000DFE803F08F2096962796962E969696961D
:1015600096529635963C9696966F96969696969641
:101570009696969696969696439696969661969693
:101580009696969659969696967FA21FA91C09F054
:10159000D5F9D8E701231A46FF210020FFF722FFE3
:1015A00073E0012303223A490020FFF71BFF6CE0A0
:1015B00001231A4600210846FFF714FF65E00123C6
:1015C000132234490020FFF70DFF5EE001231422AF
:1015D00030490020FFF706FF57E002238DF8003066
:1015E0000423ADF80130ADF803300123052269462C
:1015F0000020FFF7F7FE48E001236522264900207E
:10160000FFF7F0FE41E0B5F80520B5F80310002023
:10161000FFF77AFF39E040F638122049002009F040
:101620008DF900900123042269460020FFF7DAFEBD
:101630002BE0B5F80330B5F80520E91D174818442C
:1016400009F040FA0123002211461046FFF7CAFEB6
:101650001BE0B5F80330B5F80520E91D0F48184424
:1016600009F030FA0123002211461046FFF7BAFEB6
:101670000BE00123002211460420FFF7B3FE04E033
:101680004FF40051064803F050FA03B030BD00BFDC
:10169000A4B90008A8B90008601B00202812002087
:1016A0000008024000B583B04FF0FF3300226946C6
:1016B00005480068FFF7B6FD0028F5D1BDF8041015
:1016C0000098FFF735FFEFE7C81B002008B5034877
:1016D00002F00CF9024B83ED130A08BD3C00002018
:1016E000481C002008B52DED028B1BE00120FFF700
:1016F00041FCB0EE480A134800F048FCDFED127AD6
:1017000038EE278ADFED117AB4EEE78AF1EE10FAAF
:10171000ECD4B0EE678AF3EE047AB4EEE78AF1EE29
:1017200010FA02DCB3EE048AECE70120FFF722FC9A
:10173000B0EE480A034800F029FCDFED037A38EEEA
:10174000678AE8E7241C00200AD7A33C0000A042D7
:101750002DE9F04397B04A48FFF788FC494EB06442
:101760000024346000277760B760F7604FF0040909
:1017700086F81090747406F81C4F434807F084FBF9
:101780004248FFF723FB424D424B2B602C716C719A
:10179000414BEB60414B2B616B6103232B76404B3C
:1017A000EB6185F8204085F821406F62AF62AC7133
:1017B0003C23EB7102232B72A91D304607F06AFC13
:1017C000DFF8148146F2A81302930C230193082337
:1017D00000934B4622463349404600F047FA324FC9
:1017E000384601F015FA314E4346314A3946304603
:1017F00000F09AFB9FED2F0A304600F0C7FB85F8FA
:10180000404921462C4802F08BF985F84149214690
:101810002A4802F007F985F842492146284802F093
:10182000DBF8284802F0FEF90EAD274E0FCE0FC5AB
:1018300096E80F0085E80F000EA800F0DDFF2346B4
:10184000224601212148FFF7A3FB0A21FFF7F4FB01
:10185000FFF7E4FD05AD24222146284609F0FEF8F5
:101860001B4B05934FF480630A9318230B932A466E
:1018700021461848FFF724FB17B0BDE8F08300BFEE
:10188000E0BD0008481C00208C6D002010020020E4
:10189000A81C00209A9919400000C843000020416C
:1018A00000004040446D002000000020241C002067
:1018B0003C00002000008C42F41B0020DC1B0020B8
:1018C000D41B0020CC1B0020D4B80008CD16000883
:1018D000BCB90008E51600080C1C002008B5054836
:1018E000054B036002F01CFE00B908BD01F01CF9B5
:1018F000FBE700BF44260020003002400268094B8D
:101900009A4200D0704782B000230193064B1A6BB5
:1019100042F480521A631B6B03F480530193019BC2
:1019200002B0704700300240003802400000000062
:10193000002800F038812DE9F8430D46164604468C
:101940000768002F52D01046FEF7D4FD96A3D3E9C6
:101950000023FEF763FF804689463F68F86AFEF77A
:10196000B9FD42464B46FEF72FFEFFF73FF8FDB1AB
:10197000012D79D06368002B40F0CF807B63A36892
:10198000002B40F0D78023681B6800225A63E3686D
:10199000002B40F0E28023681B6800225A63236911
:1019A000002B40F0ED8023681B6800225A631BE087
:1019B000E3686BB122695AB1042B19D0082B1AD0F5
:1019C00000233B642369CBB923681B68DA6A5A6336
:1019D000A36833BB23681B6800225A636368002B2B
:1019E00032D123681B68586366752575BDE8F88396
:1019F0000023BB63E6E70023FB63E3E7042B06D089
:101A0000082B09D023681B68DA6A1A64E0E72368A8
:101A10001B68DA6A9A63DBE723681B68DA6ADA63B1
:101A2000D6E7042B06D0082B09D023681B680022B8
:101A30001A64D3E723681B6800229A63CEE7236801
:101A40001B680022DA63C9E7042B05D0082B07D0F6
:101A500023681B681864C7E723681B689863C3E79B
:101A600023681B68D863BFE7E3686BB123695BB188
:101A7000042B16D0082B17D000233B64E368B3B9BE
:101A800023681B68DA6A5A6363681BBB23681B6898
:101A900000225A63A368002B2FD123681B68586368
:101AA000A2E70023BB63E9E70023FB63E6E7042B1F
:101AB00006D0082B09D023681B68DA6A1A64E3E7AA
:101AC00023681B68DA6A9A63DEE723681B68DA6AB0
:101AD000DA63D9E7042B06D0082B09D023681B68EA
:101AE00000221A64D6E723681B6800229A63D1E7B4
:101AF00023681B680022DA63CCE7042B05D0082B8F
:101B000007D023681B6818646EE723681B68986316
:101B10006AE723681B68D86366E7042B04D0082BA8
:101B200005D000233B642AE70023BB6327E700239B
:101B3000FB6324E7042B06D0082B09D023681B681D
:101B400000221A6423E723681B6800229A631EE7B9
:101B500023681B680022DA6319E7042B06D0082BE0
:101B600009D023681B6800221A6418E723681B68E1
:101B700000229A6313E723681B680022DA630EE7EA
:101B8000042B06D0082B09D023681B6800221A6496
:101B90002AE723681B6800229A6325E723681B68ED
:101BA0000022DA6320E770470000000000E06F4089
:101BB000034678B102686AB1416861B9126851633D
:101BC0009A68C2B91A6812680021516300225A75D6
:101BD00002229A757047042905D0082907D0126897
:101BE00000211164ECE7126800219163E8E71268B4
:101BF0000021D163E4E7042A06D0082A09D01A6834
:101C0000126800211164E1E71A68126800219163EB
:101C1000DCE71A6812680021D163D7E738B50546BA
:101C200099B10C4644F62063994200D91C4604F051
:101C3000CBF8002202FB0443B0FBF3F3013BB3F506
:101C4000803F05D3013292B2F4E7FFF7B1FF0CE019
:101C5000296809688A622A681268D3622A68D36090
:101C60006A7D297D2846FFF763FE38BD002800F015
:101C7000918010B5044600293FD001604260836026
:101C8000029BC360039B03610023037583750846B1
:101C900004F08EFABDF810102046FFF7BFFF63680E
:101CA000002B2BD123681B6800225A63A368002BEA
:101CB00037D123681B6800225A63E368002B43D1A5
:101CC00023681B6800225A632369002B4FD12368C5
:101CD0001B6800225A636168206804F077FEA168DF
:101CE000206804F073FEE168206804F06FFE21694B
:101CF000206804F06BFE0023637510BD042B06D032
:101D0000082B09D023681B6800221A64CEE72368D9
:101D10001B6800229A63C9E723681B680022DA6304
:101D2000C4E7042B06D0082B09D023681B680022C7
:101D30001A64C2E723681B6800229A63BDE7236820
:101D40001B680022DA63B8E7042B06D0082B09D001
:101D500023681B6800221A64B6E723681B68002208
:101D60009A63B1E723681B680022DA63ACE7042BAF
:101D700006D0082B09D023681B6800221A64AAE742
:101D800023681B6800229A63A5E723681B6800226A
:101D9000DA63A0E77047000000B583B0002201922B
:101DA000094B196B41F4800119631B6B03F4800329
:101DB0000193019B0521382002F09EFB382002F0A0
:101DC000ABFB03B05DF804FB0038024030B52DEDED
:101DD000028B83B000284AD004468368002B46D08B
:101DE000C068002843D06368002B40D001F07EFD1E
:101DF000B0EE408A84ED050A94ED040AA06800F074
:101E000010FFA56807F06EF80146B0EE480A2846B4
:101E100000F00AFFB5EEC00AF1EE10FAD4BF0121BE
:101E2000002194F82030002B51D0DFED3C7A78EE81
:101E3000677AF5EEC07AF1EE10FA1FD4B6EE007AAA
:101E4000F4EEC77AF1EE10FA4CBF012300230BB376
:101E5000B5EEC00AF1EE10FA1AD4D4ED077AF4EE1A
:101E6000C07AF1EE10FA15D5B0EE670A12E02C48F0
:101E700000F0A0F803B0BDEC028B30BDBEEE007ADE
:101E8000F4EEC77AF1EE10FACCBF01230023DEE7AF
:101E90009FED240AB5EEC08AF1EE10FA26D4F6EED4
:101EA000007AB4EEE78AF1EE10FA4CBF012300236A
:101EB0006BB1B5EEC00AF1EE10FA21D4D4ED067A7A
:101EC000F4EEC07AF1EE10FA01D5B0EE670A606860
:101ED000B5EEC00AF1EE10FA16D4FCEEC07ACDEDE4
:101EE000017A9DF80420FFF723FDC3E7FEEE007A98
:101EF000B4EEE78AF1EE10FACCBF01230023D7E756
:101F000060689FED080AE8E7B1EE400AFCEEC07A8F
:101F1000CDED017A9DF80420E5E700BF0000C8423E
:101F2000D8B900080000000010B5F0B10446E2B1D5
:101F3000DBB18160C2604360002303610D4B4B61E4
:101F400083680D4A1A6183680C4ADA6183680C4A17
:101F50009A610023024601210A48FFF719F801217E
:101F6000FFF76AF80123237010BD074800F022F83C
:101F7000FAE700BF00007F4300007FC300007A4300
:101F800000007AC3CD1D0008FCB90008B5EEC00AF8
:101F9000F1EE10FA06DBDFED067AB4EEE70AF1EEB9
:101FA00010FA01D90023036180ED040A704700BFD5
:101FB0000000C842C0B170B59AB0064601AC6425B5
:101FC0002A460021204608F049FD3346074A2946A3
:101FD000204608F00DFD2046FEF7E2F881B22046CB
:101FE00007F0C2FC1AB070BD704700BF1CBA0008F1
:101FF000C0B170B59AB0064601AC64252A460021EE
:10200000204608F02BFD3346074A2946204608F0B3
:10201000EFFC2046FEF7C4F881B2204607F0A4FC8E
:102020001AB070BD704700BF28BA000880B110B563
:1020300082B0044620230193019B202B11D04FF046
:10204000500383F31188BFF36F8FBFF34F8FFEE709
:102050004FF0500383F31188BFF36F8FBFF34F8F9F
:10206000FEE7002340F8043B00F004FD0123237742
:10207000204602B010BD38B5202000F04BFA0446CF
:1020800028B1002540F8045B00F0F4FC25772046D9
:1020900038BDF8B568B10D460446B1F1807F11D363
:1020A0004FF0500383F31188BFF36F8FBFF34F8F4F
:1020B000FEE74FF0500383F31188BFF36F8FBFF338
:1020C0004F8FFEE700F10C0605F0C6FE206923687D
:1020D0002B43236000270AE0216832EA010105D181
:1020E00011E0216841F0007106F0B8F82846B042CE
:1020F0000ED04568036823F07F4213F0806FEBD168
:1021000021681142F2D013F0807FEAD01743E8E74C
:10211000236823EA0703236005F038FF2068F8BD31
:1021200008B5FFF7B6FF08BD08B513460A460146D5
:10213000014806F095FE08BD2121000808B507F00A
:1021400017F96420FEF716FF0120FEF713FFFBE7E7
:1021500008B50120FEF70EFFFBE7000008B564207C
:10216000FEF708FF104A02213C2007F0A3F80320E5
:10217000FEF744FE07EE900AF8EE677A9FED0B7AC1
:1021800067EE877A9FED0A7A87EE870AF2EE047A85
:1021900030EE270A074B83ED000A07F099F801207B
:1021A000FEF7E8FEE3E700BF1191000800807744E6
:1021B00000F07F454400002008B5FFF7C9FA00226F
:1021C0000EE0642302FB03F302F580702D4901EB5E
:1021D000800107EE903AF8EE677AC1ED007A01329D
:1021E0000F2AEED900230EE003EB8302520003F521
:1021F0008870244901EB800107EE902AF8EE677A97
:10220000C1ED007A01330F2BEED9002011E05A1CEA
:1022100000FB022107EE901A03EB0013194901EBB2
:102220008303F8EE677AC3ED007A13460F2BEED9DD
:1022300001300F280CD80023F8E7DFED130A134B09
:1022400093ED000A0F4805F001FB114B83ED000AE6
:102250000120FEF78FFE0D4BD3ED007AB2EE047A2B
:1022600077EE877AC3ED007A0A4B0B4A1A609FED2E
:102270000B7AF4EEC77AF1EE10FADEDD034B084A72
:102280001A60DAE770260020000034415026002052
:102290006C2600204C2600200000344100409C4564
:1022A00000007AC408B50120FEF764FE01F08EFC40
:1022B000054C84ED150A01F005FC84ED160A01F0C9
:1022C000C5FC84F85C00EEE7481C002008B5144A01
:1022D00000211448FEF7F4FD134B1860134A002147
:1022E0001348FEF7EDFD134B1860134A0021134805
:1022F000FEF7E6FD124B1860124A00211248FEF765
:10230000DFFD124B1860124A00211248FEF7D8FD7B
:10231000114B18601148FEF7A9FE114B186008BD5B
:1023200090BE00083D210008682600206CBE000811
:102330005D2100086426002048BE000851210008E5
:102340006026002024BE0008B92100085C26002079
:1023500000BE0008A522000858260020F0BD000895
:10236000542600202DE9F0418AB005AD00240594E3
:1023700006940794089409940194314B1A6B42F027
:1023800004021A631A6B02F004020192019A029489
:102390001A6B42F080021A631A6B02F080020292FA
:1023A000029A03941A6B42F001021A631A6B02F04C
:1023B00001020392039A04941A6B42F002021A6318
:1023C0001B6B03F002030493049BDFF87C8022461E
:1023D0004FF40051404602F0A2FB1A4E22464FF243
:1023E0000441304602F09BFB4FF400530593012754
:1023F0000697079408942946404602F0A5FA4FF242
:10240000044305930697079408942946304602F042
:102410009BFA4FF4007305934FF4881306930794C7
:102420002946304602F090FA22460521172002F094
:1024300063F8172002F070F80AB0BDE8F08100BF21
:10244000003802400004024000080240124A12F024
:10245000070F1ED0D11D21F00701C1F570531344A1
:102460000A460E480260002141601344083B23F0F5
:1024700007030B48036059601960991A5160136093
:10248000084B1960084B1960084B4FF000421A6066
:1024900070474FF47053E4E7102B0020082B002006
:1024A000042B0020FC2A0020002B0020F02A002012
:1024B000164B1A461B688342FBD3516802EB010C92
:1024C000844509D0416800EB010C634509D00360E5
:1024D000904219D010607047406801445160104626
:1024E000F0E710B40A4C2468A3420BD05B6819448F
:1024F000416013681B680360904200D010605DF873
:10250000044B70470460F7E7704700BF082B0020BA
:10251000042B002038B5044605F09EFC384B1B68A0
:10252000B3B1384B1B681C4250D1002C50D004F181
:10253000080214F0070F02D022F007020832002A26
:1025400055D0314B1B68934253D330490C6804E09B
:10255000FFF77CFFE5E721461C466368934202D201
:102560002368002BF7D1264B1B68A34243D00D688C
:10257000083523680B6063689B1A102B10D9A018CC
:1025800010F0070F08D04FF0500383F31188BFF30A
:102590006F8FBFF34F8FFEE743606260FFF788FFE6
:1025A000626819490B689B1A0B60194909688B42CC
:1025B00001D217490B60134B1B6813436360002360
:1025C0002360144A13680133136002E0002500E021
:1025D000002505F0DBFC15F0070F0ED04FF050037F
:1025E00083F31188BFF36F8FBFF34F8FFEE7002592
:1025F000EFE70025EDE70025EBE7284638BD00BFF3
:10260000042B0020F02A0020002B0020082B0020A3
:10261000FC2A0020F82A0020002834D038B50446CF
:10262000A0F1080550F8043C174A1268134208D17B
:102630004FF0500383F31188BFF36F8FBFF34F8FB9
:10264000FEE750F8081C41B14FF0500383F31188A6
:10265000BFF36F8FBFF34F8FFEE723EA020340F80B
:10266000043C05F0F9FB54F8041C084A13680B44B9
:1026700013602846FFF71CFF054A136801331360F7
:1026800005F084FC38BD7047F02A0020002B0020A4
:10269000F42A002008B50B480B4B03600B4B43603A
:1026A00000238360C3604FF4804202614361836111
:1026B000C361036202F050FA00B908BD00F034FAB9
:1026C000FBE700BF1067002000540040A086010017
:1026D00030B589B0002303930493059306930793C1
:1026E0000268144B9A4201D009B030BD0025019513
:1026F000114C236B43F002032363236B03F00203AB
:102700000193019BC0230393122304930323069395
:102710000423079303A9094802F016F90295236CD4
:1027200043F400132364236C03F400130293029B0D
:10273000DAE700BF005400400038024000040240C5
:1027400010B370B504464378032B19D802780F4BA9
:1027500001269E5442789E5403780D4D05EBC3012B
:102760003246898855F8330002F0D9F9637805EBD1
:10277000C3013246898855F8330002F0D0F970BDA4
:102780000448FFF717FCFAE7704700BF6C670020AA
:102790007067002074BA000820B370B5044643780F
:1027A000032B1BD80278104B00259D5442789D5472
:1027B00003780E4E06EBC3012A46898856F833008B
:1027C00002F0ADF9637806EBC3012A46898856F812
:1027D000330002F0A4F9064B1D7070BD0548FFF7E9
:1027E000E9FBFAE7704700BF6C67002070670020C4
:1027F0006667002074BA000810B590B10146274BF7
:102800001B7993B9264A04201074264B01241C70AE
:1028100003245C7098700220D870234B536100230E
:1028200013E02248FFF7C6FB02E02148FFF7C2FB96
:1028300010BD51F833001F4A42F8330001EBC300CA
:10284000406802EBC30250600133032BF1D900242E
:1028500008E0184B998853F8340002F059F9164BE8
:1028600018550134032CF4D9002407E0114B002241
:10287000998853F8340002F052F90134032CF5D949
:10288000064B93F82030002BD2D0044B93F8213024
:10289000082BCDD90948FFF7ABFBC9E7A81C0020DE
:1028A000481C002068670020000034438CBA0008F0
:1028B000B4BA0008706700206C670020E0BA000816
:1028C00030B585B05D4BD3ED057AF5EE407AF1EE8B
:1028D00010FA00F0A4805A4B1B7E002B00F0A6805B
:1028E000574B93ED077AF6EE006AB4EEE67AF1EE16
:1028F00010FAC0F29880F1EE006AB4EEE67AF1EEDA
:1029000010FA00F29080C0EE276AFCEEE66ACDED88
:10291000016A9DF8043006EE903AF8EEE66A66EE3B
:10292000A76AB3EE0E6A76EEC66A77EEA67ACDEDAA
:10293000037ADDED037ADFED436A27EE267AF5EEC2
:10294000400AF1EE10FA73D0DFED3F6A60EEA66A3E
:10295000DFED3E5A86EEA56A27EE067A77EEC77A55
:10296000CDED027A3A4CE25C013AD2B239490A70B2
:102970004A700233E35C013B4B70304B5B7F012BB1
:1029800054D1DDED027A77EEC07AB2EE047AF4EE3D
:10299000C77AF1EE10FA49D52F4B1B78002B45D1A1
:1029A000DDED027A77EEC07AF5EEC07AF1EE10FA3C
:1029B0003CDD294B01221A709DED027A37EE407AF8
:1029C000F5EE400AF1EE10FA35D0DFED1F7A60EE39
:1029D000A70ADFED1E6AC6EEA07AFCEEE77AF8EEF3
:1029E000677A27EE277ABCEEC77ADDED036A76EECA
:1029F000C06A67EEA67AFCEEE77A17EE904A0444C6
:102A0000144D2A46154917EE103A0344184606F0AD
:102A1000F9FA2A461249204606F0F4FA06E011486F
:102A2000FFF7C8FA02E01048FFF7C4FA05B030BD5E
:102A30009FED0E6A90E7DFED0E7AD0E7481C00208C
:102A4000A81C002000007A440000B443C0E1644C9C
:102A5000686700206467002066670020412700083F
:102A60009927000814BB000830BB000800000000D4
:102A70000000000000F1080343604FF0FF32826065
:102A8000C360036100230360704700230361704744
:102A900043684B609A688A60516099600861036876
:102AA00001330360704730B40D68B5F1FF3F11D0BA
:102AB00000F108031C465B681A68AA42FAD96368E9
:102AC0004B6099608C60616008610368013303604A
:102AD00030BC70470469F2E70369416882688A6024
:102AE000416851605A68824206D0002202611A6829
:102AF000013A1A601868704782685A60F5E700BFAB
:102B0000B0F5007F00D0704708B506F001FB08BDA6
:102B100008B50268034B9A4200D008BD01F0E4F802
:102B2000FBE700BF0048014072B6FEE710B594B065
:102B300008AC30220021204607F090FF00230393C9
:102B400004930593069307930193214A116C41F076
:102B500080511164126C02F080520192019A02932A
:102B60001C4A136823F4404343F400431360136882
:102B700003F440430293029B012308934FF48033F4
:102B8000099302230E934FF480030F93192310939C
:102B90004FF4A87311930423129307231393204631
:102BA00002F016FF78B90F2303930221049100234A
:102BB00005934FF480520692079303A803F058F947
:102BC00018B914B010BDFFF7AFFFFFF7ADFF00BF9E
:102BD000003802400070004008B501F06BF8FFF7C4
:102BE000A5FFFFF7BFFBFFF7D7F805F035FEFDF7B0
:102BF00057FF05F0CDFD05F0DDFCFEF76FFEFFF79A
:102C000049FDFEF72FF9FFF761FBFEF73DF9FEE7FF
:102C10000023036243628362C36200220263836310
:102C2000704780ED0D0A7047036BCB1A07EE903AA0
:102C3000F8EE677A9FED397AC7EE876A90ED0D6AF4
:102C400036EE406AD0ED005A65EE865A90ED087A6D
:102C5000D0ED017AB6EE005A67EE857A67EEA67A75
:102C600090ED0A5A35EE065A67EE857A77EE277AA6
:102C7000C0ED087A90ED077AF4EEC77AF1EE10FA1B
:102C800038DD80ED087AD0ED027A77EEA77A90ED04
:102C90000B7A30EE477A67EE877A90ED037A37EE5B
:102CA000077A37EE665AD0ED094A25EE245A77EEB8
:102CB000857AF1EE677A37EE267AC7EE876AC0ED3D
:102CC000096AD0ED087A77EEA57A76EEA77AC0ED9C
:102CD0000E7A90ED057AF4EEC77AF1EE10FA13DD74
:102CE00080ED0E7A80ED0A6A80ED0B0A016390EDAB
:102CF0000E0A704790ED067AF4EEC77AF1EE10FAFC
:102D0000C1D580ED087ABEE790ED047AF4EEC77A7B
:102D1000F1EE10FAE6D580ED0E7AE3E7002474496F
:102D200082B0002301930D4B1B68B3F1FF3F08D025
:102D30004FF0500383F31188BFF36F8FBFF34F8FB2
:102D4000FEE74FF0500383F31188BFF36F8FBFF39B
:102D50004F8F019B002BFCD002B070474800002031
:102D600008480068006880F308884FF0000080F38E
:102D7000148862B661B6BFF34F8FBFF36F8F00DF69
:102D800000BF000008ED00E0DFF80C00016841F42E
:102D9000700101607047000088ED00E04FF0807323
:102DA00040F8043C21F0010140F8081C054B40F8B4
:102DB0000C3C40F8202C6FF0020340F8243C4438CF
:102DC000704700BF212D0008000000000000000037
:102DD000074B19680868B0E8F04F80F30988BFF323
:102DE0006F8F4FF0000080F311887047AFF30080C1
:102DF000406D00204FF0500383F31188BFF36F8FB5
:102E0000BFF34F8F0B4A136801331360012B00D0BF
:102E100070474FF0E023D3F8043D13F0FF0FF7D0D5
:102E20004FF0500383F31188BFF36F8FBFF34F8FC1
:102E3000FEE700BF48000020094B1B6843B94FF074
:102E4000500383F31188BFF36F8FBFF34F8FFEE7FB
:102E5000013B034A13600BB983F31188704700BF2D
:102E600048000020000000000000000000000000FA
:102E7000EFF30980BFF36F8F154B1A681EF0100F28
:102E800008BF20ED108A20E9F04F10602DE90900FD
:102E90004FF0500080F31188BFF34F8FBFF36F8F57
:102EA00005F016F94FF0000080F3118809BC19688D
:102EB0000868B0E8F04F1EF0100F08BFB0EC108AA1
:102EC00080F30988BFF36F8F704700BFAFF30080B6
:102ED000406D002008B54FF0500383F31188BFF315
:102EE0006F8FBFF34F8F04F0C5FF28B14FF0E02381
:102EF0004FF08052C3F8042D002383F3118808BDDE
:102F00004FF0E022002313619361054B1B680549D4
:102F1000A1FB03139B09013B536107231361704716
:102F200054000020D34D62104FF0E023D3F8002D61
:102F30003D4B9A421CD04FF0E023D3F8002D3B4B81
:102F40009A421ED030B583B0394B1A78D2B2019272
:102F5000FF221A701B78DBB28DF803309DF8033026
:102F600003F05003334A1370334B07221A601BE0FF
:102F70004FF0500383F31188BFF36F8FBFF34F8F70
:102F8000FEE74FF0500383F31188BFF36F8FBFF359
:102F90004F8FFEE7284A1368013B13609DF803300A
:102FA0005B00DBB28DF803309DF8033013F0800F27
:102FB000F0D1214B1B68032B08D04FF0500383F353
:102FC0001188BFF36F8FBFF34F8FFEE71B021A4AC2
:102FD000136003F4E0631360019BDBB2144A1370C7
:102FE0004FF0E024D4F8203D43F47003C4F8203DB2
:102FF000D4F8203D43F07043C4F8203DFFF780FF34
:1030000000250E4B1D60FFF7BFFED4F8343F43F0A0
:103010004043C4F8343FFFF7A3FE05F059F8FFF72B
:103020007FFE284603B030BD71C20F4170C20F4110
:1030300000E400E094670020906700204800002032
:10304000EFF305830F2B0ED9114A9A5C114B1B78B5
:103050009A4208D24FF0500383F31188BFF36F8F69
:10306000BFF34F8FFEE74FF0E023D3F80C3D03F49E
:10307000E063094A1268934208D94FF0500383F382
:103080001188BFF36F8FBFF34F8FFEE7704700BF0C
:10309000F0E300E0946700209067002010B504463C
:1030A000FFF7A8FEA26BE36B9A4204D00024FFF75F
:1030B000C3FE204610BD0124F9E710B50446FFF712
:1030C00099FEA36B23B90124FFF7B6FE204610BD7D
:1030D0000024F9E770B504461546866B026C5AB9B0
:1030E00003681BB100200136A66370BD806805F03F
:1030F0005FF90023A360F6E76DB9406807F0E2FCD2
:103100006368226C13446360A268934219D32368F6
:1031100063602846E7E7C06807F0D4FCE368226CE8
:1031200051429B1AE3602268934202D2A3680B4487
:10313000E360022D01D00020D5E726B1013E00203A
:10314000D1E72846CFE70020CDE70346026C6AB1FD
:1031500010B50846D9681144D9609C68A14201D3D2
:103160001968D960D96807F0ADFC10BD704738B553
:103170000546FFF73FFE95F8454064B201E0013C8B
:1031800064B2002C0ADD6B6A43B105F1240005F03E
:103190001FF80028F3D005F0F5F8F0E7FF2385F8D5
:1031A0004530FFF749FEFFF725FE95F8444064B22D
:1031B00001E0013C64B2002C0ADD2B6943B105F14A
:1031C000100005F005F80028F3D005F0DBF8F0E773
:1031D000FF2385F84430FFF72FFE38BD38B5E0B146
:1031E0000D460446FFF706FE2368E26B216C01FBE7
:1031F0000230A0600020A0636360013A02FB01334B
:10320000E360FF2384F8443084F84530FDB9236936
:1032100063B9FFF711FE012038BD4FF0500383F36F
:103220001188BFF36F8FBFF34F8FFEE704F11000DB
:1032300004F0CEFF0028ECD04FF0E0234FF0805296
:10324000C3F8042DBFF34F8FBFF36F8FE1E704F195
:103250001000FFF70FFC04F12400FFF70BFCD8E788
:1032600038B51D46049C0B4649B92460E0632364CD
:1032700001212046FFF7B2FF84F84C5038BD226090
:10328000F4E740B94FF0500383F31188BFF36F8F19
:10329000BFF34F8FFEE710B584B01C46844653B190
:1032A00092B189B94FF0500383F31188BFF36F8F48
:1032B000BFF34F8FFEE74FF0500383F31188BFF346
:1032C0006F8FBFF34F8FFEE76AB150230393039BC9
:1032D000502B13D04FF0500383F31188BFF36F8F3F
:1032E000BFF34F8FFEE70029EFD04FF0500383F379
:1032F0001188BFF36F8FBFF34F8FFEE7039B01234E
:1033000084F8463000949DF818306046FFF7A8FF17
:10331000204604B010BD40B94FF0500383F311882C
:10332000BFF36F8FBFF34F8FFEE7F0B583B00D464D
:103330001446064601FB00F05030FFF7EBF8074655
:1033400050B1002380F846300090234600F150022F
:1033500029463046FFF784FF384603B0F0BDF0B58C
:1033600085B0019288B10F461D460446B1B1022DC9
:1033700020D1E36B012B1DD04FF0500383F3118854
:10338000BFF36F8FBFF34F8FFEE74FF0500383F310
:103390001188BFF36F8FBFF34F8FFEE7036C002BD5
:1033A000E5D04FF0500383F31188BFF36F8FBFF365
:1033B0004F8FFEE704F0ECFF064658B9019B002B47
:1033C00048D04FF0500383F31188BFF36F8FBFF3E2
:1033D0004F8FFEE700263DE02A4639462046FFF79C
:1033E00079FE636A7BB948B14FF0E0234FF0805219
:1033F000C3F8042DBFF34F8FBFF36F8FFFF71CFD92
:10340000012005B0F0BD04F1240004F0E1FE002825
:10341000F4D04FF0E0234FF08052C3F8042DBFF3F7
:103420004F8FBFF36F8FE9E7FFF706FD0020E8E756
:1034300002A804F057FF012619E0002384F8443065
:1034400021E0002384F8453023E02046FFF78FFE7B
:1034500004F09CFDFFF7CEFCA26BE36B9A42BBD35A
:10346000022DB9D0019B002BDED0002EE0D0FFF75B
:10347000E3FC04F0F1FCFFF7BDFC94F8442052B2E9
:10348000B2F1FF3FD9D094F8452052B2B2F1FF3FDC
:10349000D7D0FFF7D1FC01A902A804F02FFFD8B9BB
:1034A0002046FFF7FBFD0028CFD0019904F1100062
:1034B00004F05AFE2046FFF75AFE04F067FD00288C
:1034C000C8D14FF0E0234FF08052C3F8042DBFF372
:1034D0004F8FBFF36F8FBDE72046FFF748FE04F024
:1034E00055FD00208DE72DE9F84390B10F461646B3
:1034F0001C460546B1B1022C20D1EB6B012B1DD02F
:103500004FF0500383F31188BFF36F8FBFF34F8FDA
:10351000FEE74FF0500383F31188BFF36F8FBFF3C3
:103520004F8FFEE7036C002BE5D04FF0500383F381
:103530001188BFF36F8FBFF34F8FFEE7FFF780FD5A
:10354000EFF311884FF0500383F31188BFF36F8FAF
:10355000BFF34F8FAA6BEB6B9A4206D3022C04D0B9
:10356000002088F31188BDE8F88395F845904FFA5C
:1035700089F9AB6B224639462846FFF7ABFDB9F116
:10358000FF3F06D009F101035BB285F84530012009
:10359000E7E76B6A0BB90120E3E705F1240004F0CB
:1035A00017FE18B126B101203060DAE70120D8E714
:1035B0000120D6E7F0B585B0019290B10F460446E0
:1035C000C1B104F0E5FE064600BB019B002B5ED0B6
:1035D0004FF0500383F31188BFF36F8FBFF34F8F0A
:1035E000FEE74FF0500383F31188BFF36F8FBFF3F3
:1035F0004F8FFEE7036C002BE3D04FF0500383F3B3
:103600001188BFF36F8FBFF34F8FFEE700263EE0B8
:1036100039462046FFF799FD013DA563236923B98B
:10362000FFF70AFC012005B0F0BD04F1100004F022
:10363000CFFD0028F4D04FF0E0234FF08052C3F8C4
:10364000042DBFF34F8FBFF36F8FE9E7FFF7F4FB54
:103650000020E8E702A804F045FE012621E000234F
:1036600084F8443029E0002384F845302BE02046DC
:10367000FFF77DFD04F08AFC09E02046FFF777FDA7
:1036800004F084FC2046FFF718FD00283FD1FFF727
:10369000B1FBA56B002DBBD1019B002BD6D0002E1A
:1036A000D8D0FFF7C9FB04F0D7FBFFF7A3FB94F8D2
:1036B00044305BB2B3F1FF3FD1D094F845305BB2F8
:1036C000B3F1FF3FCFD0FFF7B7FB01A902A804F089
:1036D00015FE0028D1D12046FFF7EFFC0028C6D008
:1036E000019904F1240004F03FFD2046FFF73FFD5F
:1036F00004F04CFC0028CAD14FF0E0234FF0805278
:10370000C3F8042DBFF34F8FBFF36F8FBFE70020C7
:1037100089E72DE9F843B0B10D4690460446D9B18A
:10372000FFF78EFCEFF311874FF0500383F31188FE
:10373000BFF36F8FBFF34F8FA66BCEB9002087F317
:103740001188BDE8F8834FF0500383F31188BFF36D
:103750006F8FBFF34F8FFEE7036C002BE0D04FF06D
:10376000500383F31188BFF36F8FBFF34F8FFEE7D2
:1037700094F844904FFA89F929462046FFF7E5FC72
:10378000731EA363B9F1FF3F06D009F101035BB2D9
:1037900084F844300120D2E723690BB90120CEE739
:1037A00004F1100004F014FD30B1B8F1000F05D0A1
:1037B0000120C8F80000C2E70120C0E70120BEE7F1
:1037C0000023072B0CD8074A52F833200AB10133E3
:1037D000F7E7044A42F8331002EBC3025060704727
:1037E000704700BF9867002070B504460D46164626
:1037F000FFF700FB94F844305BB2B3F1FF3F0DD00C
:1038000094F845305BB2B3F1FF3F0BD0FFF714FBE8
:10381000A36B5BB12046FFF7AAFC70BD002384F8C0
:103820004430EDE7002384F84530EFE7324629467F
:1038300004F1240004F0B0FCECE7000008B520B16E
:1038400080ED010A0170027208BD0248FEF7B2FB6A
:10385000FAE700BF50BB000810B50446007AFDF738
:10386000CDFA07EE100AB8EE477ADFED1A6AC7EE16
:10387000267A9FED197A67EE877A9FED187AF4EE33
:10388000C77AF1EE10FA13DB9FED157AF4EEC77AE2
:10389000F1EE10FA0CD8237883B9D4ED016A66EE04
:1038A000A76A9FED0D7A77EE677A86EEA70A04E0A5
:1038B0000C48FEF77FFB9FED0C0A10BD9FED067ACA
:1038C00037EE677AD4ED016A27EE267A87EE270A6B
:1038D000F3E700BF00F07F4533335340C3F5283E84
:1038E000D7A3484068BB00080000C07F10B5B0B344
:1038F000044603880BB94388BBB32079FDF77EFAF1
:1039000007EE900A6379B3B3F8EE677A228807EE80
:10391000102AF8EE476A638807EE103AB8EE477A45
:103920009A4245D077EEE67A9FED266A67EE867A70
:1039300037EE667A87EE870ADFED237A30EE270AC4
:10394000B5EEC00AF1EE10FA38D4DFED1E7AB4EE0F
:10395000E70AF1EE10FA01DDB0EE670A10BD1B4870
:10396000FEF728FB9FED1A0AF8E71A48FEF722FB3C
:103970009FED170AF2E7F8EE677A628807EE102AE1
:10398000F8EE476A238807EE103AB8EE477A9A4273
:1039900011D077EEE67A9FED0B6A67EE867A37EE06
:1039A000667A87EE870ADFED087A30EE270AC7E7E6
:1039B0009FED050AC9E79FED040AC6E79FED020ADD
:1039C000CCE700BF0000C8420000000080BB000838
:1039D0000000C07F8CBB000810B568B1044679B107
:1039E000012915D16423038040F6B83343800423B2
:1039F0000371094B1C6010BD0848FEF7DBFAFAE7BB
:103A00006423038040F6B833438004230371F0E756
:103A10000348FEF7CFFAECE7F0670020A4BB0008EC
:103A2000B8BB000870B58AB00446E9B1012938D1A5
:103A3000052200219FED1D0AFFF700FF04AD1C4E7B
:103A40000FCE0FC596E8030085E803000AAB13E923
:103A500007008DE8070004AB0ECB204604F0F0FC15
:103A6000144B1C600AB070BD052200219FED120AA4
:103A7000FFF7E4FE0DF1100C104D0FCDACE80F0078
:103A800095E803008CE803000AAB13E907008DE812
:103A9000070004AB0ECB204604F0D2FC054B1C60A3
:103AA000E0E70748FEF786FADCE700BF00401C4667
:103AB000F4B80008EC67002000E092450CB900085B
:103AC000D8BB000808B5104B186880B104F02CFD75
:103AD000DFED0E7AB4EEE70AF1EE10FA0DDBDFED62
:103AE0000C7AB4EEE70AF1EE10FA06D808BD0948E0
:103AF000FEF760FA9FED080AF8E70848FEF75AFA61
:103B00009FED050AF2E700BFEC670020000048C205
:103B100000001643F8BB0008000020420CBC00085F
:103B200070B58AB0F8B1044609B301293CD1062228
:103B300000219FED1F0AFFF781FE04AD1D4E0FCE41
:103B40000FC596E8030085E803000AAB13E90700F8
:103B50008DE8070004AB0ECB204604F071FC164B39
:103B60001C600AB070BD1548FEF724FAF9E706227A
:103B700000219FED130AFFF761FE0DF1100C114DAE
:103B80000FCDACE80F0095E803008CE803000AAB0A
:103B900013E907008DE8070004AB0ECB204604F0C4
:103BA0004FFC054B1C60DCE70748FEF703FAD8E73B
:103BB00000401C4624B90008E867002028BC000823
:103BC00000E092450CB900083CBC000808B5104B59
:103BD000186880B104F0A8FCDFED0E7AB4EEE70AB5
:103BE000F1EE10FA0DDBDFED0C7AB4EEE70AF1EE40
:103BF00010FA06D808BD0948FEF7DCF9B3EE0E0A44
:103C0000F8E70748FEF7D6F9B3EE0E0AF2E700BF71
:103C1000E8670020000048C20000164328BC0008E6
:103C20005CBC000808B548B140F2FF720280C822AF
:103C3000428007220271034A106008BD0248FEF765
:103C4000B9F9FAE7E467002078BC000810B5144B16
:103C50001B6803B31879FDF7D1F8114B1B681C885A
:103C600084422CBF0024012405F044F90D4B1B783D
:103C7000A34203D00C4B18600A4B1C700A4B1B6804
:103C8000C01A074B1B685B88984201D3074B1C7016
:103C9000064B187810BD0648FEF78CF90020F9E7AE
:103CA000E4670020E0670020DC670020D867002080
:103CB00078BC000808B50B4B1A6842F400721A6011
:103CC0001A6842F480621A601A6842F480721A60BC
:103CD000032000F0FFFB0F2002F054FF01F01AF860
:103CE000002008BD003C0240034A1168034B1B78CA
:103CF0000B441360704700BFF46700204C000020A5
:103D0000014B1868704700BFF467002038B50446BF
:103D1000FFF7F6FF0546B4F1FF3F02D0044B1B78D6
:103D20001C44FFF7EDFF401BA042FAD338BD00BF93
:103D30004C0000204A4B5A6822F440325A605A68BC
:103D400041680A435A600268536823F480735360E1
:103D500002685368016943EA0123536002685368AB
:103D600023F0407353600268536881680B435360CB
:103D70000268936823F40063936002689368C168E3
:103D80000B439360826A374B9A4257D0026893681C
:103D900023F07063936002689368816A0B439360B9
:103DA0000268936823F04053936002689368C16A85
:103DB0000B4393600268936823F0020393600268E8
:103DC0009368017E43EA4103936090F82030002B12
:103DD0003FD00268536843F400635360026853683D
:103DE00023F46043536001684B68426A013A43EA36
:103DF00042334B600268D36A23F47003D3620168D4
:103E0000CB6AC269013A43EA0253CB620268936803
:103E100023F4007393600268936890F8301043EACB
:103E2000412393600268936823F48063936002687F
:103E30009368416943EA81239360704702689368FD
:103E400023F0706393600268936823F0405393609B
:103E5000B0E70268536823F400635360CAE700BF09
:103E6000002301400100000F38B310B50446036C75
:103E700043B1236C13F0100F0BD00120002384F802
:103E80003C3010BDFCF728FF0023636484F83C300D
:103E9000EFE7236C23F4885323F0020343F002037B
:103EA00023642046FFF746FF00206064236C23F064
:103EB000030343F001032364E0E70120704700009F
:103EC00010B582B013460022019290F83C20012ADE
:103ED00000F094800446012280F83C20026890683B
:103EE00010F0010F13D1906840F001009060464A35
:103EF0001068464AA2FB0020800C00EB40000190B5
:103F000002E001980138019001980028F9D1226857
:103F1000906810F4807F03D0906820F480709060E7
:103F20002268906810F0010F5DD0206C20F4E060F2
:103F300020F0010040F480702064526812F4806F19
:103F400005D0226C22F4405242F480522264226C4A
:103F500012F4805F34D0626C22F0060262640022A8
:103F600084F83C20A26B2A48D063A26B29481064D5
:103F7000A26B2948D06422686FF02200106020688C
:103F8000426842F0806242602068826842F4807237
:103F9000826020680A4600F14C01A06B00F0B2FB81
:103FA0001E4B5B6813F01F0F0DD123689A6812F047
:103FB000405F25D19A6842F080429A6000201BE061
:103FC00000226264CBE72368154A934201D00020A7
:103FD00012E09A6812F0405F14D19A6842F0804271
:103FE0009A60002008E0236C43F010032364636CA4
:103FF00043F001036364002002B010BD0220FBE720
:104000000020F9E70020F7E75400002083DE1B437F
:1040100049400008274000083340000800230140C1
:1040200000200140704708B5806BFFF7FBFF08BD1B
:10403000704708B5806B40230364436C43F004036E
:104040004364FFF7F5FF08BD08B50346806B026CBB
:1040500012F0500F25D1036C43F40073036403681E
:104060009A6812F0405F19D1027EBAB9DA6A12F486
:10407000700F03D09A6812F4806F0FD15A6822F043
:1040800020025A60036C23F480730364036C13F4FE
:10409000805F03D1036C43F001030364FCF794FEDB
:1040A00008BD026C12F0100F04D1826BD26C18465E
:1040B0009047F5E7FFF7BCFFF2E7000030B482B0AD
:1040C0000022019290F83C20012A00F0B6800346BD
:1040D000012280F83C200A68092A40D90468E06877
:1040E00092B202EB42021E3A4FF0070C0CFA02F2B7
:1040F00020EA0202E2601C68E0680A8802EB4202E1
:104100001E3A8D6805FA02F20243E2604A68062A06
:104110003CD81C68606B02EB8202053A4FF01F0C22
:104120000CFA02F220EA020262631C68606B4A68C1
:1041300002EB8202053AB1F800C00CFA02F2024327
:10414000626318683E4A904250D018683C4A9042D8
:1041500055D0002083F83C0002B030BC70470468A2
:10416000206992B202EB42024FF0070C0CFA02F205
:1041700020EA020222611C6820690A8802EB4202DE
:104180008D6805FA02F202432261BFE70C2A16D8B5
:104190001D68286B02EB8202233A1F2404FA02F204
:1041A00020EA02022A631D68286B4A6802EB820239
:1041B000233A0C8804FA02F202432A63C1E71D681D
:1041C000E86A02EB8202413A1F2404FA02F220EA72
:1041D0000202EA621D68E86A4A6802EB8202413A1A
:1041E0000C8804FA02F20243EA62AAE70A68122A79
:1041F000ABD11448426842F480024260A5E70A68E5
:10420000103A012AA5D80F48426842F400024260E1
:104210000A68102A9DD10C4A12680C49A1FB0212AF
:10422000920C02EB82025200019202E0019A013AE2
:104230000192019A002AF9D18BE702208CE700BF96
:1042400000200140002301405400002083DE1B4376
:1042500090F83C20012A00F0F28030B4034601229D
:1042600080F83C200A68092A40F289800568E868DD
:1042700092B202EB42021E3A072404FA02F220EA4A
:104280000202EA601D68E8688C680A8802EB420254
:104290001E3A94402043E8601868826B22F4401272
:1042A00082631C68A26B0869013842EA0052A2636B
:1042B0001C68A06B4A680D69521BD2B20332D2B29D
:1042C00002EB82024FF01F0C0CFA02F220EA02020B
:1042D000A2631C68A06B4A680D69521BD2B20332FC
:1042E000D2B202EB8202B1F800C00CFA02F2024331
:1042F000A2638869534A904256D01868826822F4B3
:1043000070228260186882688C6922438260186813
:10431000826822F44012826018688268CC69224365
:1043200082604A7D002A4AD01868426842F480625E
:1043300042600A7D002A48D01868426842F48052E0
:1043400042604A68022A46D0032A4FD0012A58D137
:10435000186842696FF30B02426118684269CC68C1
:10436000224342611868384A904255D01868364A4C
:1043700090425AD0002083F83C0030BC704705685A
:10438000286992B202EB4202072404FA02F220EA00
:1043900002022A611D6828698C680A8802EB4202C1
:1043A00094402043286177E71868826822F47022DD
:1043B00082601868826822F440128260B1E718684F
:1043C000426822F480624260B3E71868426822F4CF
:1043D00080524260B5E7186882696FF30B02826110
:1043E00018688269CC6822438261BBE71868C26999
:1043F0006FF30B02C2611868C269CC682243C261C4
:10440000B0E71868026A6FF30B0202621868026A6A
:10441000CC6822430262A5E70A68122AA6D10B489B
:10442000426842F480024260A0E70A68103A012A1A
:10443000A0D806494A6842F400024A609AE702207E
:10444000704700BF01000F00002001400023014021
:10445000002807DB00F01F02400901239340024AB5
:1044600042F82030704700BF00E100E0002808DB80
:104470000901C9B200F1604000F5614080F8001305
:10448000704700F00F000901C9B2014B1954704781
:1044900014ED00E000B500F00700C0F1070CBCF11E
:1044A000040F28BF4FF0040C031D062B0FD9C31EA9
:1044B0004FF0FF3E0EFA0CF021EA000199400EFA8F
:1044C00003FE22EA0E0241EA02005DF804FB00232B
:1044D000EEE70000074AD36823F4E0631B041B0CDB
:1044E000000200F4E060034343F0BF6343F4003391
:1044F000D360704700ED00E010B50446054BD86866
:10450000C0F30220FFF7C6FF01462046FFF7AEFFCB
:1045100010BD00BF00ED00E008B5FFF799FF08BD32
:1045200058B110B5044643791BB1012363710020D3
:1045300010BD0371FDF7E2F9F7E70120704730B4D1
:1045400005682C6824F480242C6004686360836808
:10455000402B05D0036899600368DA6030BC70476F
:1045600003689A600368D960F8E7000010B4036834
:10457000D9B210390A4AA2FB01421209094CA25CC5
:10458000C2655F2907D96FF3090304338365806D22
:104590005DF8044B70476FF309038365F7E700BFCD
:1045A000ABAAAAAAB4BE0008836A826992B9012B99
:1045B0000AD0022B02D00BB100207047C36A13F05F
:1045C000807F28D100207047C36AB3F1C07F24D018
:1045D00000207047B2F5005F09D0022B25D9032BCC
:1045E00025D1C36A13F0807F23D100207047032BAD
:1045F00003D8DFE803F01404140A00207047C36AEC
:1046000013F0807F0DD100207047C36AB3F1C07FE3
:1046100009D0002070470120704701207047012019
:10462000704701207047012070470120704700202B
:10463000704701207047000070B50446FFF760FB2B
:10464000002C5BD00546022384F83530002384F823
:1046500034302268136823F00103136023681A685A
:1046600012F0010F0AD0FFF74BFB431B052BF5D9C6
:1046700020236365032084F8350070BD1A68204943
:1046800011406268A0680243E06802432069024367
:1046900060690243A0690243E0690243206A024361
:1046A0000A43616A04291ED01A602668756925F0DC
:1046B0000705636A1D43042B07D1A36A1D43E36A00
:1046C0001BB12046FFF770FF90B975612046FFF7D8
:1046D0004DFFE26D3F23934083600020606501231E
:1046E00084F83530C9E7E16A206B01430A43DBE710
:1046F00040236365012084F83500BEE70120BCE754
:104700003F8010F038B50446856D90F834000128DC
:104710002AD0012084F8340094F83500012804D010
:10472000002384F83430022038BD022084F835009C
:10473000002060652046FFF702FFE26D3F239340B3
:10474000AB602268136843F016031360236C23B137
:104750002268136843F0080313602268136843F06B
:10476000010313600020DFE70220DDE7F0B583B02E
:10477000044600230193724B1D68724BA3FB053561
:10478000AD0A876D3E68C26D08239340334210D056
:1047900003681A6812F0040F0BD01A6822F00402A2
:1047A0001A60C26D08239340BB60436D43F0010360
:1047B0004365E26D01239340334209D02268526978
:1047C00012F0800F04D0BB60636D43F00203636599
:1047D000E26D04239340334209D02268126812F03C
:1047E000020F04D0BB60636D43F004036365E26DA8
:1047F00010239340334224D02268126812F0080F2D
:104800001FD0BB6023681A6812F4802F0DD01B687C
:1048100013F4002F04D1236C9BB12046984710E07D
:10482000A36C73B1204698470BE01A6812F4807F9E
:1048300003D11A6822F008021A60236C0BB12046DB
:104840009847E26D20239340334254D02268126887
:1048500012F0100F4FD0BB6094F83530052B0ED0FE
:1048600023681A6812F4802F33D01B6813F4002FCA
:104870002AD1636C002B3ED0204698473BE022684B
:10488000136823F0160313602268536923F0800332
:104890005361236CA3B12268136823F008031360EB
:1048A000E26D3F239340BB60012384F83530002341
:1048B00084F83430236D002B3FD0204698473CE0ED
:1048C000A36C002BE7D1EBE7E36BA3B1204698473D
:1048D00011E01A6812F4807F09D11A6822F01002E0
:1048E0001A60012384F83530002384F83430E36BF8
:1048F0000BB120469847636DFBB1636D13F0010F58
:1049000017D0052384F835302268136823F001039B
:104910001360019B01330193AB4204D823681B68E9
:1049200013F0010FF5D1012384F83530002384F80A
:104930003430E36C0BB12046984703B0F0BD00BFA4
:1049400054000020B5814E1B00230F2B00F2D780AE
:1049500070B582B065E085684FEA430E032404FA1F
:104960000EF425EA0405CC6804FA0EF42C438460A6
:10497000446824EA02044A68C2F300129A402243BF
:1049800042605CE0DC08083450F8242003F007059E
:10499000AD004FF00F0E0EFA05FE22EA0E0E0A6968
:1049A000AA4042EA0E0240F824205CE0042200E023
:1049B000002202FA0EF22A430234514D45F8242017
:1049C000504A94686FEA0C0224EA0C054E6816F40B
:1049D000801F01D04CEA04054A4CA560E46802EA55
:1049E00004054E6816F4001F01D04CEA0405454C3E
:1049F000E560646802EA04054E6816F4003F01D0E1
:104A00004CEA04053F4C6560246822404D6815F46B
:104A1000803F01D04CEA04023A4C226001330F2B54
:104A20006BD801229A400C6804EA020C32EA0404B2
:104A3000F4D14C6804F00304013C012C8BD94A6882
:104A400002F00302032A09D0C4685D000322AA40D1
:104A500024EA02048A68AA402243C2604A6802F03B
:104A60000302022A8ED004684FEA430E032202FAA0
:104A70000EF224EA02044A6802F0030202FA0EF27D
:104A8000224302604A6812F4403FC7D000220192DC
:104A90001D4A546C44F480445464526C02F48042C5
:104AA0000192019A9C08A51C154A52F8255003F062
:104AB000030E4FEA8E0E0F2202FA0EF225EA0205CD
:104AC000124A90423FF474AF02F5806290420ED0D9
:104AD00002F5806290420CD002F5806290420AD0CA
:104AE00002F5806290423FF461AF072261E7012244
:104AF0005FE702225DE703225BE702B070BD70470B
:104B000000380140003C01400038024000000240F3
:104B10000369194201D001207047002070470AB193
:104B200081617047090481617047436901EA0302AA
:104B300021EA030141EA02418161704708B5054B52
:104B40005B69034200D108BD024B5861FDF7D7FFF6
:104B5000F9E700BF003C0140002800F0CC8070B5B0
:104B6000044690F83D30002B77D0242384F83D3064
:104B70002268136823F0010313602268136843F46A
:104B8000004313602268136823F40043136001F0AC
:104B900025FA62685A4B9A4264D85A4B98428CBFA5
:104BA00000230123002B40F0A8805749A1FB0031CE
:104BB0008B0C25686A6822F03F0242EA91426A60E3
:104BC00021680A6A22F03F0266684D4DAE424FD816
:104BD000013313430B622168CA6922F44F4222F069
:104BE000FF026568464B9D424CD8431E6D00B3FBE7
:104BF000F5F3013340F6FC70034278D0C3F30B03A6
:104C00001A43CA6121680B6823F0C003E269206A75
:104C1000024313430B6021688B6823F4034323F0A2
:104C2000FF032269E068024313438B602168CB686D
:104C300023F0FF036269A06902431343CB6022683B
:104C4000136843F00103136000202064202384F8DC
:104C50003D30206384F83E0070BD80F83C30FDF7A5
:104C600037FD82E7294B98428CBF0023012399E747
:104C70004FF4967505FB03F3254DA5FB03539B09E4
:104C80000133A6E7A668BEB9431E05EB450CB3FB8E
:104C9000FCF30133C3F30B03B3FA83F35B0943BBA8
:104CA000C6B9431E05EB4505B3FBF5F30133C3F36A
:104CB0000B0343F40043A3E7431E05EB850C0CEB09
:104CC0008C0CB3FBFCF30133C3F30B03B3FA83F394
:104CD0005B09E4E7431E05EB850505EB8505B3FBA2
:104CE000F5F30133C3F30B0343F4404388E7042394
:104CF00086E7012384E7012070470120ACE700BF6D
:104D0000A08601007F841E0083DE1B43FF083D0058
:104D1000D34D621000B583B0002200920D4B596C48
:104D200041F480415964596C01F48041009100992B
:104D30000192196C41F0805119641B6C03F080538F
:104D40000193019B0F216FF00100FFF7D5FB03B02A
:104D50005DF804FB003802402DE9F04383B0D0F841
:104D6000008001EBC10300EB83039A6A5B6A9A42FD
:104D700054D807460C469B1A01EBC10200EB820295
:104D8000D2699A4200D31A4602F103094FEA9909FF
:104D900015E006F103094FEA9909BB7904EBC40554
:104DA00007EB8505296A0093B3B2E2B2404602F0F0
:104DB0009AFA2B6A33442B62AB6A3344AB6208EB3A
:104DC000441303F510639B699BB24B4512D304EB6C
:104DD000C40307EB83039A6A5B6A9A420AD24BB117
:104DE0009B1A04EBC40207EB8202D6699E42D0D321
:104DF0001E46CEE704EBC40307EB83077A6ABB6A5F
:104E00009A420FD804F00F040122A240D8F8343897
:104E100023EA0203C8F83438002000E0012003B080
:104E2000BDE8F0830020FAE730B583B000287AD0DF
:104E30000446056890F89534C3B1032384F895348B
:104E4000B5F1A04F17D0206801F0FEFF237C8DF84C
:104E50000030231D0ECB206801F035FF70B1022316
:104E600084F895340125284603B030BD80F8943489
:104E700004F090FDE1E70023A371E4E7002120683E
:104E800002F047FC0246B8B903462079984218D987
:104E900003EBC30104EB8101012048750B75CB8541
:104EA00000200876C861086203EBC30104EB8101AE
:104EB00048620133DBB2E8E7022384F89534012528
:104EC000D1E7904217D902EBC20304EB8303002120
:104ED00083F8551283F8542283F85812C3F85C12F1
:104EE000C3F8601202EBC20304EB8303C3F864123D
:104EF0000132D2B2E5E7237C8DF80030231D0ECBC2
:104F0000206801F0F7FF054620B1022384F89534AC
:104F10000125A8E700236374012384F895342068F1
:104F200002F0B6FB9FE701259DE7036890F8942403
:104F3000012A1AD010B50446012280F89424DA68B8
:104F400012F0400F02D0427B012A09D0206801F004
:104F500075FF206802F08EFB002084F8940410BDD9
:104F60009A6B42F480329A63F0E7022070470000A7
:104F700070B504460D460068066C00EB411303F55E
:104F800030639A68A179012911D038498E4256D0F0
:104F90003DB905EBC50304EB8303D3F86432002B62
:104FA0005ED0E9B2204604F041FD002070BD12F051
:104FB000080F09D02E498E42F7D912F4004FF4D0D1
:104FC0004FF400429A60F0E712F0200F02D0202246
:104FD0009A60EAE712F0280FE7D125498E4206D9F8
:104FE00012F4004F03D04FF400429A60DDE705EB66
:104FF000C50204EB8202D2F874121B69C3F31203D8
:10500000CB1AC2F868327DB905EBC50204EB820207
:10501000D2F864226AB105EBC50204EB8202D2F831
:1050200060121944C2F86012E9B2204604F0FEFC96
:10503000BBE704F29C42012102F0AAFBF4E712F460
:10504000004F03D04FF400429A60AEE712F0200FF9
:1050500001D020229A60E9B2204604F0E7FCA4E7E0
:1050600004F29C42002102F093FB9AE70A31544F6C
:105070000A30544F38B5044603681D6C03EB4113E6
:10508000D3F8081B0E4A954207D903F5306311F493
:10509000004F02D04FF400429A60204604F0BEFC5C
:1050A000074B9D4202D9A379012B01D0002038BDC6
:1050B00004F29C420121206802F06AFBF6E700BF7F
:1050C0000A30544F90F89434012B0CD010B504469C
:1050D000012380F894344174006802F0BBFA002088
:1050E00084F8940410BD0220704738B505468C46FC
:1050F00011F0800F2BD101F00F0E0EEBCE04A400A7
:1051000004F514740444211D0EEBCE0E00EB8E0E3C
:1051100000208EF855020CF00F0C81F800C0C2F38D
:105120000A028A600B714A780AB1A1F81AC0022BF0
:105130001CD095F89434012B1BD0012385F89434AE
:10514000286801F0B4FF002085F8940438BD01F010
:105150000F0000EBC001890010312944043100EB3D
:10516000C00005EB800001244475D4E700234B7197
:10517000DFE70220EAE710B504460A4611F0800F87
:1051800020D101F00F0000EBC0039B0003F5147366
:105190002344191D00EBC00004EB8000002380F8BD
:1051A000553202F00F020A7094F89434012B18D093
:1051B000012384F89434206801F0C6FF002084F8AD
:1051C000940410BD01F00F0000EBC0039B001033EE
:1051D0002344191D00EBC00004EB8000012343753C
:1051E000DFE70220EDE710B5144601F00F0C0CEBE1
:1051F000CC01890001F51471014404310CEBCC0E93
:1052000000EB8E0ECEF86022CEF864320023CEF88A
:1052100068328EF855328EF854C28279012A04D051
:10522000006802F077F8002010BDCEF87042F7E772
:1052300001F00F0101EBC10100EB8100D0F8680221
:10524000704710B5144601F00F0C0CEBCC0189002F
:105250001031014404310CEBCC0E00EB8E0ECEF875
:105260002020CEF824300023CEF8283001238EF8F9
:1052700015308EF814C082799A4204D0006802F08A
:1052800049F8002010BDCEF83040F7E738B501F0FE
:105290000F050279AA4238D304460B4611F0800F5D
:1052A0001FD101EBC101890001F5147101440431E2
:1052B00003EBC30300EB8303002283F85522012391
:1052C0008B700D7094F89434012B20D0012384F856
:1052D0009434206802F063F985B1002084F89404C6
:1052E00038BD05EBC501890010310144043105EBDF
:1052F000C50300EB830301225A75E0E704F29C42E8
:10530000A179206802F044FAE7E70120E8E70220EB
:10531000E6E701F00F0302799A4230D310B5044654
:1053200011F0800F1ED103EBC301890001F5147148
:105330000144043103EBC30200EB8202002082F837
:10534000550200228A700B7094F89434012B18D007
:10535000012384F89434206802F04EF9002084F888
:10536000940410BD03EBC3018900103101440431E2
:1053700003EBC30200EB820201205075E1E701203C
:1053800070470220EDE708B511F0800F0CD101F055
:105390000F0101EBC101890001F5147101440431D1
:1053A000006801F041FF08BD01F00F0101EBC101F0
:1053B0008900103101440431F2E72DE9F04F83B048
:1053C00004460568284602F0A0F910B103B0BDE814
:1053D000F08F0646206802F069F90028F6D005F53E
:1053E0000067BB68C3F30D23C4F8D434206802F00F
:1053F0005DF910F0020F04D02268536903F0020334
:105400005361206802F052F910F0100F15D0226895
:10541000936923F010039361D5F8208008F00F09F9
:1054200008F4F013B3F5802F4CD0B3F5402F6FD0B4
:105430002268936943F010039361206802F036F903
:1054400010F4002F76D1206802F030F910F4802F8C
:1054500040F0E080206802F029F90028C0F2618164
:10546000206802F023F910F4006F09D0BB6813F034
:10547000010F40F06E812268536903F400635361A9
:10548000206802F013F910F4805F40F06681206814
:1054900002F00CF910F4005F40F0B381206802F0D4
:1054A00005F910F0080F40F0C481206802F0FEF802
:1054B00010F0800F00F0D781AB6923F08003AB615F
:1054C0000126C0E147F6F07318EA030FB0D04FEAA7
:1054D000181A4FEAC903019309EBC90B04EB8B0BB4
:1054E000C8F30A12DBF86012284602F035F8DBF840
:1054F0006032CAF30A0A5344CBF86032DBF86832F0
:10550000019A4A4404EB82025344C2F868328FE79E
:10551000082204F29C41284602F01EF809EBC90358
:1055200004EB8303D3F86822C8F30A184244C3F893
:1055300068227DE7206802F0BDF88046B14635E07C
:1055400005EB49130122C3F8082B49462046FFF713
:105550000FFD3CE005EB49130822C3F8082B494630
:105560002046FFF787FD35E009EBC90304EB830311
:1055700093F85732012B41D005EB49130222C3F8AF
:10558000082B1AF0200F04D005EB49132022C3F892
:10559000082B1AF4005F05D005EB49134FF40052B5
:1055A000C3F8082B09F101094FEA5808B8F1000FB8
:1055B0003FF449AF18F0010FF4D05FFA89FB594668
:1055C000206802F087F8824610F0010FB8D11AF077
:1055D000080FBFD11AF0100F04D005EB49131022A9
:1055E000C3F8082B1AF0020FCBD06B6913F0800FB1
:1055F000BAD07B6843F480637B60B5E709EBC903ED
:1056000004EB8303002283F857225946204604F016
:105610005BFAB1E7206802F055F88046B14625E014
:105620005946204604F00EFA1AF0080F04D005EB94
:1056300049130822C3F808291AF0100F04D005EB0B
:1056400049131022C3F808291AF0400F04D005EBC3
:1056500049134022C3F808291AF0020F40D11AF06A
:10566000800F59D109F101094FEA5808B8F1000F2C
:105670003FF4F0AE18F0010FF4D05FFA89FB594601
:10568000206802F030F8824610F0010FCCD009F00B
:105690000F02012101FA02F27B6B23EA02037B6312
:1056A00005EB4913C3F80819A3798B42B8D109EB6C
:1056B000C90304EB83031A6AD9690A441A62B9F16F
:1056C000000FADD109EBC90304EB83035B6A002B28
:1056D000A6D104F29C420121206802F059F89FE70C
:1056E0004946284601F0B6FB09EBC90304EB8303E6
:1056F000DB7D012B05D005EB49130222C3F80829F5
:10570000ADE709EBC90304EB83030022DA755946C0
:10571000204604F0DFF9EEE749462046FFF71CFB80
:10572000A0E77B6823F001037B6094F8CC34012B65
:1057300008D0204604F0C2F92268536903F0004300
:1057400053618DE6002184F8CC14204600F03FF927
:10575000F2E7204604F09AF98DE67B6823F0010316
:105760007B601021206801F075FB1AE005EB461301
:105770004FF67F31C3F80819D3F8002922F400123C
:10578000C3F80029C3F8081BD3F8002B22F4001239
:10579000C3F8002BD3F8002B42F00062C3F8002BB3
:1057A00001362379B342E1D8FB6943F00113FB6171
:1057B000E37BDBB1D7F8843043F00B03C7F88430C8
:1057C0007B6C43F00B037B64D5F8003823F4FE6355
:1057D000C5F8003804F29C42A179206801F0D8FF96
:1057E0002268536903F48053536150E67B6943F4A4
:1057F000005343F02B037B613B6943F00B033B6198
:10580000E2E7206801F0B6FF206801F03FFCE0719C
:10581000266800F0DDFB0146E279304601F09CFA93
:10582000204604F020F92268536903F400535361C1
:1058300034E6204604F011F92268536903F00803A6
:10584000536132E601362379B3420CD906EBC60325
:1058500004EB830393F85732012BF3D1F1B22046C6
:10586000FFF791FDEEE7206801F020FF10F4801FA4
:1058700025D1206801F01AFF10F4001F59D0012330
:1058800026E001362379B3421BD905EB4613D3F842
:10589000002906EBC60304EB83031B7E012BF0D12A
:1058A000002AEEDA06EBC60304EB83030122DA7565
:1058B00066F07F01C9B22046FFF765FDE1E70126EA
:1058C000E0E72268536903F480135361D1E70133A1
:1058D00022799A4228D905EB4312D2F8001B03EB38
:1058E000C30204EB820292F85822012AEFD1002968
:1058F000EDDA01F48031D4F8D42402F001029142AF
:10590000E5D103EBC30204EB8202012182F85712B6
:10591000AA6942F08002AA616A6912F0800FD6D1AA
:105920007B6843F400737B602268536903F40013BF
:105930005361206801F0BAFE10F0804F10D120684A
:1059400001F0B4FE10F0040F3FF440AD23685D6831
:1059500015F0040F0DD1226853682B43536035E5D1
:10596000204604F0BDF82268536903F08043536178
:10597000E5E7204604F0BAF8EDE710B40468606A81
:1059800031B940EA0240A06200205DF8044B704744
:105990008C46A36A00EB1340002308E003F14001AA
:1059A00004EB8101496800EB11400133DBB20CF1DB
:1059B000FF318B42F2D340EA02400CF13F0104EB8D
:1059C00081046060E0E70368596200207047704717
:1059D000002800F0E08170B582B00446036813F03F
:1059E000010F3BD09F4B9B6803F00C03042B2CD082
:1059F0009C4B9B6803F00C03082B21D06368B3F524
:105A0000803F4FD0B3F5A02F52D0964B1A6822F4A6
:105A100080321A601A6822F480221A606368002BB0
:105A200050D0FEF76DF905468E4B1B6813F4003F0E
:105A300014D1FEF765F9401B6428F5D90320B1E1C4
:105A4000884B5B6813F4800FD8D0864B1B6813F427
:105A5000003F03D06368002B00F09F81236813F0A0
:105A6000020F54D07F4B9B6813F00C0F3ED07D4B40
:105A70009B6803F00C03082B33D0E368002B68D03D
:105A8000794B01221A60FEF73BF90546754B1B68FE
:105A900013F0020F54D1FEF733F9401B0228F5D959
:105AA00003207FE16F4A136843F480331360B5E746
:105AB0006C4B1A6842F480221A601A6842F48032F1
:105AC0001A60ABE7FEF71CF90546664B1B6813F43A
:105AD000003FC3D0FEF714F9401B6428F5D903201A
