:020000040800F2
:1000000000000120418B0008454E0008474E0008C3
:10001000494E00084B4E00084D4E000800000000FD
:100020000000000000000000000000002117000890
:100030004F4E000800000000C1170008ED05000841
:10004000918B0008918B0008918B0008918B000820
:10005000918B0008918B0008918B0008918B000810
:10006000918B0008918B0008918B0008918B000800
:10007000918B0008918B0008918B0008918B0008F0
:10008000918B0008918B0008918B00080000000004
:10009000000000000000000000000000514E0008B9
:1000A000918B0008918B00085D4E0008918B000831
:1000B000754E0008918B0008918B0008918B000809
:1000C000918B0008918B0008918B0008918B0008A0
:1000D000918B0008918B0008918B000800000000B4
:1000E000918B0008918B0008918B000800000000A4
:1000F000000000000000000000000000918B0008DC
:1001000000000000918B0008918B0008918B000883
:1001100000000000000000000000000000000000DF
:10012000894E0008918B0008918B0008918B000884
:10013000918B00080000000000000000000000009B
:10014000000000000000000000000000994E0008C0
:10015000918B0008918B0008918B0008918B00080F
:10016000918B0008918B0008000000000000000047
:10017000000000000000000000000000000000007F
:1001800000000000918B000800000000000000004B
:04019000918B000847
:1001A000034613F8012B002AFBD1181A01387047B7
:1001B00001F0FF01102A2BDB10F0070F08D010F818
:1001C000013B013A8B422DD010F0070F42B3F6D11C
:1001D000F0B441EA012141EA014122F007047FF035
:1001E00000070023F0E80256083C85EA010586EA8C
:1001F000010685FA47F5A3FA87F586FA47F6A5FAC8
:1002000087F68EB9EED1F0BC01F0FF0102F00702D3
:1002100032B110F8013B013A83EA010313B1F8D17E
:100220000020704701387047002D06BF354603385F
:10023000073815F0010F07D1013015F4807F02BF98
:10024000013015F4C03F0130F0BC0138704700BFE9
:1002500053B94AB9002908BF00281CBF4FF0FF312D
:100260004FF0FF3000F00CB8ADF1080C6DE904CE92
:1002700009F07AFADDF804E0DDE9022304B0704702
:10028000704700BF10B5054C237833B9044B13B148
:100290000448AFF300800123237010BD50010020FB
:1002A00000000000609A000808B5034B1BB1034929
:1002B0000348AFF3008008BD000000005401002097
:1002C000609A000800B585B0002300930193029363
:1002D00003936148614A02604FF480324260836058
:1002E00001220261037680F82030C3625C4981629A
:1002F000C3600D21C16180F83030426102F068F9BD
:1003000000287ED1002300930122019202936946C6
:10031000514802F087FA002876D101230093022386
:10032000019369464C4802F07DFA00286FD1022300
:100330000093032301936946474802F073FA0028AB
:1003400068D103230093042301936946424802F0D5
:1003500069FA002861D104230093052301936946BB
:100360003D4802F05FFA00285AD105230093062386
:1003700001936946384802F055FA002853D1062304
:100380000093072301936946334802F04BFA002893
:100390004CD1072300930823019369462E4802F0AD
:1003A00041FA002845D10E230093092301936946A1
:1003B000294802F037FA00283ED10A23009301931E
:1003C0006946254802F02EFA002838D10B23009305
:1003D00001936946204802F025FA98BB0C2300934C
:1003E000019369461C4802F01DFA70BB0D2300936F
:1003F00001936946184802F015FA48BB05B05DF84C
:1004000004FB01F0C7F87DE701F0C4F885E701F0CF
:10041000C1F88CE701F0BEF893E701F0BBF89AE76A
:1004200001F0B8F8A1E701F0B5F8A8E701F0B2F8DB
:10043000AFE701F0AFF8B6E701F0ACF8BDE701F0C7
:10044000A9F8C3E701F0A6F8C8E701F0A3F8CDE7E3
:1004500001F0A0F8D2E700BFCC010020002001404D
:100460000100000FF0B589B00023039304930593B6
:1004700006930793026803F1804303F590339A4291
:1004800001D009B0F0BD04460025009503F58C337A
:100490005A6C42F480725A645A6C02F48072009270
:1004A000009A01951A6B42F004021A631A6B02F06B
:1004B00004020192019A02951A6B42F001021A633A
:1004C0001B6B03F001030293029B1F23039303277B
:1004D000049703AE3146144802F0EAFCFF2303936D
:1004E000049705953146114802F0E2FC1048114B83
:1004F000036045608560C5604FF4806303614FF41D
:10050000006343614FF400538361C5614FF480334E
:100510000362456202F044FB18B9054BA3639C6378
:10052000AFE701F037F8F8E70008024000000240AA
:100530006C0100201064024008B5074B186810B128
:10054000064B1B7803B108BD044B01221A700D2223
:10055000034902F069F8F6E7340200201402002093
:1005600018020020014B00221A707047140200206C
:1005700010B590B10B4A106001240B4A14700D2283
:100580000A4902F051F800231A462146084800F0B3
:10059000CFF8214600F020F910BD064800F096FA89
:1005A000FAE700BF340200201402002018020020E5
:1005B00039050008E09A000808B50C2804D8054B56
:1005C00033F8100080B208BD034800F07FFA002025
:1005D000F9E700BF18020020109B000808B506F0DC
:1005E00044FD10B102684068904708BD08B54FF05F
:1005F000E0231B6905F0E2FF012800D108BD01F0EE
:1006000011F9FBE7EFF305832BB9064B186828B9FE
:1006100001221A6070476FF0050070474FF0FF30FD
:10062000704700BFF0080020EFF3058373B90A4B51
:100630001B68012B0DD110B50024084BDC77064B4D
:1006400002221A6005F0D2FC204610BD6FF00500B2
:1006500070474FF0FF307047F008002000ED00E0D9
:10066000F0B587B000240594EFF3058404BBF8B11E
:10067000002A34D0156893692BB11E46013B372BF5
:1006800002D9002015E01826536813F0010F3FD15E
:10069000546984B14FEA940C93682BB1D7685B2FEF
:1006A00002D9176907B184B943B14FF0FF330BB3D7
:1006B000059807B0F0BD4FF0800CEDE7D368A3B903
:1006C0001369ABB14FF0FF33F1E702930197009646
:1006D0000B466246294605F01BFC0590E8E71546E7
:1006E000002318264FF0800CE1E74FF0FF33DEE7E0
:1006F0000023DCE705AB019300960B461FFA8CF252
:10070000294605F040FC0128D2D000230593CFE70D
:100710000020CEE708B5EFF3058333B908B9002010
:1007200008BD05F0C5FD0020FAE76FF00500F7E70A
:100730002DE9F04383B0EFF30587002F43D1064640
:10074000894615461C4600283FD0082000F06EFC64
:10075000804600283BD006604560B9F1000F00D00C
:10076000012704B32068A36813B1E2682B2A10D8CC
:1007700053B14FF0FF33DBB10024404600F0D8FC0A
:10078000204603B0BDE8F083E3687BB14FF0FF3350
:10079000F1E701930F4B009343463A46012106F0DF
:1007A000AFFA04460CE020460023E4E70023E2E72A
:1007B000084B009343463A46012106F085FA044669
:1007C000002CDDD1D9E70024DAE70024D8E704467D
:1007D000D6E700BFDD050008EFF305836BB90A46D5
:1007E00070B100B583B00093042106F0B3FA01287C
:1007F00009D1002003B05DF804FB6FF005007047DD
:100800006FF0030070476FF00200F3E708B5EFF3F5
:100810000583CBB9A0B1836813B1C2681F2A0BD876
:100820002BB14FF0FF338BB900F0B1F908BDC368AD
:1008300043B14FF0FF33F6E7184600F083F9F5E7D0
:100840000023F0E70023EEE70020EFE70020EDE7CC
:10085000F8B110B582B00C46B1F1807F1CD2EFF335
:1008600005829AB10022019201AA00F0E9F9B8B11B
:10087000019BC3B14FF0E0234FF08052C3F8042D29
:10088000BFF34F8FBFF36F8F204607E000F08DF965
:1008900004E06FF0030070476FF0030002B010BD7A
:1008A0006FF00200FAE72046F8E710B582B01C4668
:1008B000EFF30583C3B118B329B33CBB0023019305
:1008C00001AA01F094FA012823D1019850B14FF008
:1008D000E0234FF08052C3F8042DBFF34F8FBFF3D6
:1008E0006F8F002002B010BDB0B1C1B1002322460D
:1008F00001F0B9F9012815D0B4B16FF00100F1E7AA
:100900006FF00300EEE76FF00300EBE76FF003001A
:10091000E8E76FF00200E5E76FF00300E2E76FF051
:100920000300DFE70020DDE76FF00200DAE70000F8
:10093000034B0360034B0B6080231360704700BFC1
:100940009408002094060020034B0360034B0B60C7
:100950004FF480731360704738060020380200207F
:10096000F0B589B02A48FFF751FF2A4EB064002540
:10097000356000277760B760F760042232747574C1
:1009800006F81C5F244806F097FB2448FFF7F0FDAB
:10099000234C244B236025716571234BE360234B6B
:1009A0002361636103232376214BE36184F82050A4
:1009B00084F821506762A762A5713C23E37102238A
:1009C0002372A11D304606F07DFC84F8405929466B
:1009D000184801F05BFC84F841592946164801F09B
:1009E000D9FB84F842592946144801F0ADFB14485C
:1009F00001F0CCFC6C46134D0FCD0FC495E80F00F1
:100A000084E80F00684600F02DFC09B0F0BD00BF7F
:100A1000E09E000838090020245A0020CC01002064
:100A2000940900209A9919400000C8430000204111
:100A30000000404020090020080900200009002093
:100A4000F8080020789A000808B50548054B0360AF
:100A500002F01AF800B908BD00F09CFDFBE700BFEA
:100A600030130020003002400268094B9A4200D047
:100A7000704782B000230193064B1A6B42F48052F8
:100A80001A631B6B03F480530193019B02B0704700
:100A9000003002400038024000B583B000220192CD
:100AA000094B196B41F4800119631B6B03F480033C
:100AB0000193019B0521382001F0D2FF382001F07D
:100AC000DFFF03B05DF804FB00380240C0B170B531
:100AD0009AB0064601AC64252A460021204608F05B
:100AE0008FF83346074A2946204608F053F8204637
:100AF000FFF756FB81B2204607F038F81AB070BDF8
:100B0000704700BF409B0008C0B170B59AB0064660
:100B100001AC64252A460021204608F071F83346CE
:100B2000074A2946204608F035F82046FFF738FBEB
:100B300081B2204607F01AF81AB070BD704700BFA6
:100B40004C9B000880B110B582B00446202301936D
:100B5000019B202B11D04FF0500383F31188BFF37A
:100B60006F8FBFF34F8FFEE74FF0500383F3118871
:100B7000BFF36F8FBFF34F8FFEE7002340F8043BB6
:100B800000F0AEFC01232377204602B010BD38B53B
:100B9000202000F04BFA044628B1002540F8045B01
:100BA00000F09EFC2577204638BDF8B568B10D46AB
:100BB0000446B1F1807F11D34FF0500383F31188C5
:100BC000BFF36F8FBFF34F8FFEE74FF0500383F3F8
:100BD0001188BFF36F8FBFF34F8FFEE700F10C0654
:100BE00005F050FA206923682B43236000270AE0B0
:100BF000216832EA010105D111E0216841F000715C
:100C000005F042FC2846B0420ED04568036823F048
:100C10007F4213F0806FEBD121681142F2D013F0C4
:100C2000807FEAD01743E8E7236823EA07032360BD
:100C300005F0C2FA2068F8BD08B5FFF7B6FF08BD99
:100C400008B513460A460146014806F021FA08BDD8
:100C5000390C000808B506F0A3FC6420FFF75AFD24
:100C60000120FFF757FDFBE708B50120FFF752FD14
:100C7000FBE7000008B56420FFF74CFD104A022195
:100C80003C2006F02FFC0320FFF796FC07EE900AAD
:100C9000F8EE677A9FED0B7A67EE877A9FED0A7A16
:100CA00087EE870AF2EE047A30EE270A074B83EDCF
:100CB000000A06F025FC0120FFF72CFDE3E700BF4A
:100CC000417300080080774400F07F450000002059
:100CD00008B5FFF745FE00220EE0642302FB03F394
:100CE00002F580702D4901EB800107EE903AF8EE95
:100CF000677AC1ED007A01320F2AEED900230EE0A7
:100D000003EB8302520003F58870244901EB800154
:100D100007EE902AF8EE677AC1ED007A01330F2BC7
:100D2000EED9002011E05A1C00FB022107EE901AB8
:100D300003EB0013194901EB8303F8EE677AC3ED67
:100D4000007A13460F2BEED901300F280CD8002360
:100D5000F8E7DFED130A134B93ED000A0F4804F098
:100D60008BFE114B83ED000A6420FFF7D3FC0D4B83
:100D7000D3ED007AB2EE047A77EE877AC3ED007A8B
:100D80000A4B0B4A1A609FED0B7AF4EEC77AF1EE2C
:100D900010FADEDD034B084A1A60DAE75C13002024
:100DA000000034413C130020581300203813002069
:100DB0000000344100409C4500007AC408B5012081
:100DC000FFF7A8FC01F0B6FA054C84ED140A01F017
:100DD0002FFA84ED150A01F0EDFA84F85800EEE7D9
:100DE0003809002008B5144A00211448FFF738FCE0
:100DF000134B1860134A00211348FFF731FC134BC3
:100E00001860134A00211348FFF72AFC124B1860A0
:100E1000124A00211248FFF723FC124B1860124AB5
:100E200000211248FFF71CFC114B18601148FFF716
:100E3000EDFC114B186008BD909F0008550C000890
:100E4000541300206C9F0008750C000850130020FC
:100E5000489F0008690C00084C130020249F0008DC
:100E6000D10C000848130020009F0008BD0D0008A9
:100E700044130020F09E0008401300202DE9F041AB
:100E80008AB005AD0024059406940794089409944B
:100E90000194314B1A6B42F004021A631A6B02F090
:100EA00004020192019A02941A6B42F080021A63C2
:100EB0001A6B02F080020292029A03941A6B42F0BB
:100EC00001021A631A6B02F001020392039A04945E
:100ED0001A6B42F002021A631B6B03F002030493C5
:100EE000049BDFF87C8022464FF40051404602F01C
:100EF000CAF81A4E22464FF20441304602F0C3F8B7
:100F00004FF4005305930127069707940894294648
:100F1000404601F0CDFF4FF2044305930697079436
:100F200008942946304601F0C3FF4FF4007305933F
:100F30004FF48813069307942946304601F0B8FF12
:100F400022460521172001F08BFD172001F098FDA6
:100F50000AB0BDE8F08100BF003802400004024042
:100F600000080240124A12F0070F1ED0D11D21F0D6
:100F70000701C1F5705313440A460E480260002170
:100F800041601344083B23F007030B48036059609A
:100F90001960991A51601360084B1960084B196069
:100FA000084B4FF000421A6070474FF47053E4E76B
:100FB000FC170020F4170020F0170020E81700208D
:100FC000EC170020DC170020164B1A461B688342E2
:100FD000FBD3516802EB010C844509D0416800EB5A
:100FE000010C634509D00360904219D0106070472E
:100FF0004068014451601046F0E710B40A4C246880
:10100000A3420BD05B681944416013681B680360FE
:10101000904200D010605DF8044B70470460F7E721
:10102000704700BFF4170020F017002038B50446C1
:1010300005F028F8384B1B68B3B1384B1B681C42CD
:1010400050D1002C50D004F1080214F0070F02D048
:1010500022F007020832002A55D0314B1B68934218
:1010600053D330490C6804E0FFF77CFFE5E72146E5
:101070001C466368934202D22368002BF7D1264BAB
:101080001B68A34243D00D68083523680B60636872
:101090009B1A102B10D9A01810F0070F08D04FF092
:1010A000500383F31188BFF36F8FBFF34F8FFEE7B9
:1010B00043606260FFF788FF626819490B689B1AFA
:1010C0000B60194909688B4201D217490B60134B19
:1010D0001B681343636000232360144A13680133C1
:1010E000136002E0002500E0002505F065F815F02A
:1010F000070F0ED04FF0500383F31188BFF36F8FAB
:10110000BFF34F8FFEE70025EFE70025EDE7002551
:10111000EBE7284638BD00BFF0170020DC170020A1
:10112000EC170020F4170020E8170020E417002037
:10113000002834D038B50446A0F1080550F8043C26
:10114000174A1268134208D14FF0500383F31188F5
:10115000BFF36F8FBFF34F8FFEE750F8081C41B10C
:101160004FF0500383F31188BFF36F8FBFF34F8F9E
:10117000FEE723EA020340F8043C04F083FF54F83E
:10118000041C084A13680B4413602846FFF71CFF31
:10119000054A13680133136005F00EF838BD704737
:1011A000DC170020EC170020E017002010B370B50A
:1011B00004464378032B19D802780F4B01269E541E
:1011C00042789E5403780D4D05EBC3013246898861
:1011D00055F8330001F057FF637805EBC301324641
:1011E000898855F8330001F04EFF70BD0448FFF7C1
:1011F0006DFCFAE7704700BF04540020085400203B
:10120000989B000820B370B504464378032B1BD885
:101210000278104B00259D5442789D5403780E4E61
:1012200006EBC3012A46898856F8330001F02BFFEC
:10123000637806EBC3012A46898856F8330001F02B
:1012400022FF064B1D7070BD0548FFF73FFCFAE713
:10125000704700BF0454002008540020FE530020B3
:10126000989B000810B590B10146274B1B7993B9A4
:10127000264A04201074264B01241C7003245C7041
:1012800098700220D870234B5361002313E022484A
:10129000FFF71CFC02E02148FFF718FC10BD51F8D5
:1012A00033001F4A42F8330001EBC300406802EBF1
:1012B000C30250600133032BF1D9002408E0184B1E
:1012C000998853F8340001F0D7FE164B18550134B5
:1012D000032CF4D9002407E0114B0022998853F81D
:1012E000340001F0D0FE0134032CF5D9064B93F8FD
:1012F0002030002BD2D0044B93F82130082BCDD9CD
:101300000948FFF701FCC9E79409002038090020CB
:101310000054002000003443B09B0008D89B000814
:101320000854002004540020049C000830B585B007
:101330005D4BD3ED057AF5EE407AF1EE10FA00F050
:10134000A4805A4B1B7E002B00F0A680574B93EDD8
:10135000077AF6EE006AB4EEE67AF1EE10FAC0F221
:101360009880F1EE006AB4EEE67AF1EE10FA00F23F
:101370009080C0EE276AFCEEE66ACDED016A9DF82A
:10138000043006EE903AF8EEE66A66EEA76AB3EE2F
:101390000E6A76EEC66A77EEA67ACDED037ADDEDBB
:1013A000037ADFED436A27EE267AF5EE400AF1EE86
:1013B00010FA73D0DFED3F6A60EEA66ADFED3E5AA9
:1013C00086EEA56A27EE067A77EEC77ACDED027A29
:1013D0003A4CE25C013AD2B239490A704A7002339F
:1013E000E35C013B4B70304B5B7F012B54D1DDED57
:1013F000027A77EEC07AB2EE047AF4EEC77AF1EEB2
:1014000010FA49D52F4B1B78002B45D1DDED027A20
:1014100077EEC07AF5EEC07AF1EE10FA3CDD294B9A
:1014200001221A709DED027A37EE407AF5EE400AFD
:10143000F1EE10FA35D0DFED1F7A60EEA70ADFED8E
:101440001E6AC6EEA07AFCEEE77AF8EE677A27EE1F
:10145000277ABCEEC77ADDED036A76EEC06A67EEE6
:10146000A67AFCEEE77A17EE904A0444144D2A4619
:10147000154917EE103A0344184605F0DBFE2A46DC
:101480001249204605F0D6FE06E01148FFF71EFB84
:1014900002E01048FFF71AFB05B030BD9FED0E6A61
:1014A00090E7DFED0E7AD0E738090020940900209C
:1014B00000007A440000B443C0E1644C00540020B2
:1014C000FC530020FE530020AD1100080512000857
:1014D000389C0008549C0008000000000000000038
:1014E00000F1080343604FF0FF328260C360036184
:1014F00000230360704700230361704743684B601B
:101500009A688A60516099600861036801330360DA
:10151000704730B40D68B5F1FF3F11D000F10803FA
:101520001C465B681A68AA42FAD963684B609960E6
:101530008C606160086103680133036030BC7047F0
:101540000469F2E70369416882688A604168516012
:101550005A68824206D0002202611A68013A1A6073
:101560001868704782685A60F5E700BFB0F5007FE1
:1015700000D0704708B505F0E3FE08BD08B5026865
:10158000034B9A4200D008BD00F062FFFBE700BFAA
:101590000048014072B6FEE710B594B008AC3022A6
:1015A0000021204607F02CFB0023039304930593AE
:1015B000069307930193214A116C41F08051116405
:1015C000126C02F080520192019A02931C4A136835
:1015D00023F4404343F400431360136803F440438F
:1015E0000293029B012308934FF480330993022353
:1015F0000E934FF480030F93192310934FF4A873A5
:1016000011930423129307231393204602F0AEFB99
:1016100078B90F23039302210491002305934FF41B
:1016200080520692079303A802F0F0FD18B914B097
:1016300010BDFFF7AFFFFFF7ADFF00BF003802405E
:101640000070004008B500F0E9FEFFF7A5FFFFF7C6
:1016500015FCFFF721FA05F017FAFEF733FE05F047
:10166000AFF905F0BDF8FFF7EFF9FEF7CBFFFFF795
:10167000B9FBFEF7D9FFFEE782B0002301930D4BC3
:101680001B68B3F1FF3F08D04FF0500383F311887C
:10169000BFF36F8FBFF34F8FFEE74FF0500383F31D
:1016A0001188BFF36F8FBFF34F8F019B002BFCD0CE
:1016B00002B070470400002008480068006880F30A
:1016C00008884FF0000080F3148862B661B6BFF35B
:1016D0004F8FBFF36F8F00DF00BF000008ED00E009
:1016E000DFF80C00016841F47001016070470000F0
:1016F00088ED00E04FF0807340F8043C21F00101D8
:1017000040F8081C054B40F80C3C40F8202C6FF0CA
:10171000020340F8243C4438704700BF79160008A3
:10172000074B19680868B0E8F04F80F30988BFF3E9
:101730006F8F4FF0000080F311887047AFF3008087
:10174000D85900204FF0500383F31188BFF36F8FF7
:10175000BFF34F8F0B4A136801331360012B00D086
:1017600070474FF0E023D3F8043D13F0FF0FF7D09C
:101770004FF0500383F31188BFF36F8FBFF34F8F88
:10178000FEE700BF04000020094B1B6843B94FF07F
:10179000500383F31188BFF36F8FBFF34F8FFEE7C2
:1017A000013B034A13600BB983F31188704700BFF4
:1017B0000400002000000000000000000000000005
:1017C000EFF30980BFF36F8F154B1A681EF0100FEF
:1017D00008BF20ED108A20E9F04F10602DE90900C4
:1017E0004FF0500080F31188BFF34F8FBFF36F8F1E
:1017F00004F084FD4FF0000080F3118809BC1968E3
:101800000868B0E8F04F1EF0100F08BFB0EC108A67
:1018100080F30988BFF36F8F704700BFAFF300807C
:10182000D859002008B54FF0500383F31188BFF357
:101830006F8FBFF34F8F04F033FC28B14FF0E023DC
:101840004FF08052C3F8042D002383F3118808BDA4
:101850004FF0E022002313619361054B1B6805499B
:10186000A1FB03139B09013B5361072313617047DD
:1018700010000020D34D62104FF0E023D3F8002D6C
:101880003D4B9A421CD04FF0E023D3F8002D3B4B48
:101890009A421ED030B583B0394B1A78D2B2019239
:1018A000FF221A701B78DBB28DF803309DF80330ED
:1018B00003F05003334A1370334B07221A601BE0C6
:1018C0004FF0500383F31188BFF36F8FBFF34F8F37
:1018D000FEE74FF0500383F31188BFF36F8FBFF320
:1018E0004F8FFEE7284A1368013B13609DF80330D1
:1018F0005B00DBB28DF803309DF8033013F0800FEE
:10190000F0D1214B1B68032B08D04FF0500383F319
:101910001188BFF36F8FBFF34F8FFEE71B021A4A88
:10192000136003F4E0631360019BDBB2144A13708D
:101930004FF0E024D4F8203D43F47003C4F8203D78
:10194000D4F8203D43F07043C4F8203DFFF780FFFA
:1019500000250E4B1D60FFF7C3FED4F8343F43F063
:101960004043C4F8343FFFF7A7FE04F0C7FCFFF77D
:1019700083FE284603B030BD71C20F4170C20F41D3
:1019800000E400E02C540020285400200400002033
:10199000EFF305830F2B0ED9114A9A5C114B1B787C
:1019A0009A4208D24FF0500383F31188BFF36F8F30
:1019B000BFF34F8FFEE74FF0E023D3F80C3D03F465
:1019C000E063094A1268934208D94FF0500383F349
:1019D0001188BFF36F8FBFF34F8FFEE7704700BFD3
:1019E000F0E300E02C5400202854002010B50446F9
:1019F000FFF7A8FEA26BE36B9A4204D00024FFF726
:101A0000C3FE204610BD0124F9E710B50446FFF7D8
:101A100099FEA36B23B90124FFF7B6FE204610BD43
:101A20000024F9E770B504461546866B026C5AB976
:101A300003681BB100200136A66370BD806804F006
:101A4000CDFD0023A360F6E76DB9406807F00CF9FF
:101A50006368226C13446360A268934219D32368BD
:101A600063602846E7E7C06807F0FEF8E368226C89
:101A700051429B1AE3602268934202D2A3680B444E
:101A8000E360022D01D00020D5E726B1013E002001
:101A9000D1E72846CFE70020CDE70346026C6AB1C4
:101AA00010B50846D9681144D9609C68A14201D399
:101AB0001968D960D96807F0D7F810BD704738B5F4
:101AC0000546FFF73FFE95F8454064B201E0013C52
:101AD00064B2002C0ADD6B6A43B105F1240004F006
:101AE0008DFC0028F3D004F063FDF0E7FF2385F8B8
:101AF0004530FFF749FEFFF725FE95F8444064B2F4
:101B000001E0013C64B2002C0ADD2B6943B105F110
:101B1000100004F073FC0028F3D004F049FDF0E756
:101B2000FF2385F84430FFF72FFE38BD38B5E0B10C
:101B30000D460446FFF706FE2368E26B216C01FBAD
:101B40000230A0600020A0636360013A02FB013311
:101B5000E360FF2384F8443084F84530FDB92369FD
:101B600063B9FFF711FE012038BD4FF0500383F336
:101B70001188BFF36F8FBFF34F8FFEE704F11000A2
:101B800004F03CFC0028ECD04FF0E0234FF08052F2
:101B9000C3F8042DBFF34F8FBFF36F8FE1E704F15C
:101BA0001000FFF79DFC04F12400FFF799FCD8E733
:101BB00038B51D46049C0B4649B92460E063236494
:101BC00001212046FFF7B2FF84F84C5038BD226057
:101BD000F4E740B94FF0500383F31188BFF36F8FE0
:101BE000BFF34F8FFEE710B584B01C46844653B157
:101BF00092B189B94FF0500383F31188BFF36F8F0F
:101C0000BFF34F8FFEE74FF0500383F31188BFF30C
:101C10006F8FBFF34F8FFEE76AB150230393039B8F
:101C2000502B13D04FF0500383F31188BFF36F8F05
:101C3000BFF34F8FFEE70029EFD04FF0500383F33F
:101C40001188BFF36F8FBFF34F8FFEE7039B012314
:101C500084F8463000949DF818306046FFF7A8FFDE
:101C6000204604B010BDF0B585B0019288B10F4692
:101C70001D460446B1B1022D20D1E36B012B1DD0CE
:101C80004FF0500383F31188BFF36F8FBFF34F8F73
:101C9000FEE74FF0500383F31188BFF36F8FBFF35C
:101CA0004F8FFEE7036C002BE5D04FF0500383F31A
:101CB0001188BFF36F8FBFF34F8FFEE704F07EFCF8
:101CC000064658B9019B002B48D04FF0500383F3D0
:101CD0001188BFF36F8FBFF34F8FFEE700263DE003
:101CE0002A4639462046FFF79DFE636A7BB948B114
:101CF0004FF0E0234FF08052C3F8042DBFF34F8F15
:101D0000BFF36F8FFFF740FD012005B0F0BD04F178
:101D1000240004F073FB0028F4D04FF0E0234FF0D0
:101D20008052C3F8042DBFF34F8FBFF36F8FE9E7E5
:101D3000FFF72AFD0020E8E702A804F0E9FB0126EE
:101D400019E0002384F8443021E0002384F8453072
:101D500023E02046FFF7B3FE04F02EFAFFF7F2FC73
:101D6000A26BE36B9A42BBD3022DB9D0019B002B2F
:101D7000DED0002EE0D0FFF707FD04F083F9FFF777
:101D8000E1FC94F8442052B2B2F1FF3FD9D094F86C
:101D9000452052B2B2F1FF3FD7D0FFF7F5FC01A9C1
:101DA00002A804F0C1FBD8B92046FFF71FFE0028A7
:101DB000CFD0019904F1100004F0ECFA2046FFF7AF
:101DC0007EFE04F0F9F90028C8D14FF0E0234FF06F
:101DD0008052C3F8042DBFF34F8FBFF36F8FBDE761
:101DE0002046FFF76CFE04F0E7F900208DE72DE9AF
:101DF000F84390B10F4616461C460546B1B1022C79
:101E000020D1EB6B012B1DD04FF0500383F31188D1
:101E1000BFF36F8FBFF34F8FFEE74FF0500383F395
:101E20001188BFF36F8FBFF34F8FFEE7036C002B5A
:101E3000E5D04FF0500383F31188BFF36F8FBFF3EA
:101E40004F8FFEE7FFF7A4FDEFF311884FF050032B
:101E500083F31188BFF36F8FBFF34F8FAA6BEB6BC8
:101E60009A4206D3022C04D0002088F31188BDE8E2
:101E7000F88395F845904FFA89F9AB6B22463946BD
:101E80002846FFF7CFFDB9F1FF3F06D009F1010366
:101E90005BB285F845300120E7E76B6A0BB901209A
:101EA000E3E705F1240004F0A9FA18B126B10120F6
:101EB0003060DAE70120D8E70120D6E7F0B585B039
:101EC000019290B10F460446C1B104F077FB06467B
:101ED00000BB019B002B5ED04FF0500383F31188B1
:101EE000BFF36F8FBFF34F8FFEE74FF0500383F3C5
:101EF0001188BFF36F8FBFF34F8FFEE7036C002B8A
:101F0000E3D04FF0500383F31188BFF36F8FBFF31B
:101F10004F8FFEE700263EE039462046FFF7BDFD25
:101F2000013DA563236923B9FFF72EFC012005B00D
:101F3000F0BD04F1100004F061FA0028F4D04FF075
:101F4000E0234FF08052C3F8042DBFF34F8FBFF34F
:101F50006F8FE9E7FFF718FC0020E8E702A804F01C
:101F6000D7FA012621E0002384F8443029E0002339
:101F700084F845302BE02046FFF7A1FD04F01CF962
:101F800009E02046FFF79BFD04F016F92046FFF715
:101F90003CFD00283FD1FFF7D5FBA56B002DBBD141
:101FA000019B002BD6D0002ED8D0FFF7EDFB04F01C
:101FB00069F8FFF7C7FB94F844305BB2B3F1FF3F19
:101FC000D1D094F845305BB2B3F1FF3FCFD0FFF7EB
:101FD000DBFB01A902A804F0A7FA0028D1D1204612
:101FE000FFF713FD0028C6D0019904F1240004F086
:101FF000D1F92046FFF763FD04F0DEF80028CAD1CE
:102000004FF0E0234FF08052C3F8042DBFF34F8F01
:10201000BFF36F8FBFE7002089E700000023072B85
:102020000CD8074A52F833200AB10133F7E7044AC3
:1020300042F8331002EBC30250607047704700BF94
:102040003054002070B504460D461646FFF77AFB63
:1020500094F844305BB2B3F1FF3F0DD094F84530B3
:102060005BB2B3F1FF3F0BD0FFF78EFBA36B5BB10D
:102070002046FFF724FD70BD002384F84430EDE7CF
:10208000002384F84530EFE73246294604F1240066
:1020900004F098F9ECE7000008B520B180ED010AE2
:1020A0000170027208BD0248FEF710FDFAE700BF9A
:1020B000749C000810B50446007AFEF77DFA07EE1E
:1020C000100AB8EE477ADFED1A6AC7EE267A9FED5E
:1020D000197A67EE877A9FED187AF4EEC77AF1EEF7
:1020E00010FA13DB9FED157AF4EEC77AF1EE10FAD1
:1020F0000CD8237883B9D4ED016A66EEA76A9FED08
:102100000D7A77EE677A86EEA70A04E00C48FEF7B0
:10211000DDFC9FED0C0A10BD9FED067A37EE677A65
:10212000D4ED016A27EE267A87EE270AF3E700BF8F
:1021300000F07F4533335340C3F5283ED7A34840D2
:102140008C9C00080000C07F10B568B1044679B1CE
:10215000012915D16423038040F6B833438004235A
:102160000371094B1C6010BD0848FEF7AFFCFAE78D
:102170006423038040F6B833438004230371F0E7FF
:102180000348FEF7A3FCECE788540020A49C000859
:10219000B89C000870B58AB00446E9B1012938D16D
:1021A000052200219FED1D0AFFF776FF04AD1C4EAE
:1021B0000FCE0FC596E8030085E803000AAB13E9CC
:1021C00007008DE8070004AB0ECB204604F04EFA62
:1021D000144B1C600AB070BD052200219FED0F0A50
:1021E000FFF75AFF0DF1100C0F4D0FCDACE80F00AB
:1021F00095E803008CE803000AAB13E907008DE8BB
:10220000070004AB0ECB204604F030FA054B1C60EF
:10221000E0E70648FEF75AFCDCE700BF00401C463A
:10222000989A000884540020B09A0008D89C0008AE
:1022300008B5104B186880B104F08CFADFED0E7A07
:10224000B4EEE70AF1EE10FA0DDBDFED0C7AB4EE36
:10225000E70AF1EE10FA06D808BD0948FEF736FC89
:102260009FED080AF8E70848FEF730FC9FED050AE5
:10227000F2E700BF84540020000048C2000016436B
:10228000F89C0008000020420C9D000870B58AB040
:10229000F8B1044609B301293CD1062200219FED83
:1022A0001F0AFFF7F9FE04AD1D4E0FCE0FC596E8CD
:1022B000030085E803000AAB13E907008DE8070077
:1022C00004AB0ECB204604F0D1F9164B1C600AB0CB
:1022D00070BD1548FEF7FAFBF9E7062200219FEDD5
:1022E0000F0AFFF7D9FE0DF1100C104D0FCDACE821
:1022F0000F0095E803008CE803000AAB13E9070020
:102300008DE8070004AB0ECB204604F0AFF9054B77
:102310001C60DCE70648FEF7D9FBD8E700401C4606
:10232000C89A000880540020289D0008B09A000830
:102330003C9D000808B5104B186880B104F00AFAFB
:10234000DFED0E7AB4EEE70AF1EE10FA0DDBDFED09
:102350000C7AB4EEE70AF1EE10FA06D808BD094887
:10236000FEF7B4FBB3EE0E0AF8E70748FEF7AEFB44
:10237000B3EE0E0AF2E700BF80540020000048C20E
:1023800000001643289D00085C9D000808B548B170
:1023900040F2FF720280C822428007220271034A83
:1023A000106008BD0248FEF791FBFAE77C5400205C
:1023B000789D000810B5144B1B6803B31879FEF71D
:1023C000FBF8114B1B681C8884422CBF002401249D
:1023D00004F0A8FE0D4B1B78A34203D00C4B1860F1
:1023E0000A4B1C700A4B1B68C01A074B1B685B88A2
:1023F000984201D3074B1C70064B187810BD064855
:10240000FEF764FB0020F9E77C540020785400209C
:102410007454002070540020789D000808B50B4BC0
:102420001A6842F400721A601A6842F480621A60F4
:102430001A6842F480721A60032000F0FFFA0F203D
:1024400002F0B6FC00F034FE002008BD003C024063
:10245000034A1168034B1B780B441360704700BF9D
:102460008C54002008000020014B1868704700BF02
:102470008C54002038B50446FFF7F6FF0546B4F14A
:10248000FF3F02D0044B1B781C44FFF7EDFF401BBD
:10249000A042FAD338BD00BF080000204A4B5A685A
:1024A00022F440325A605A6841680A435A6002680E
:1024B000536823F48073536002685368016943EAE8
:1024C000012353600268536823F04073536002682D
:1024D000536881680B4353600268936823F4006378
:1024E000936002689368C1680B439360826A374BBC
:1024F0009A4257D00268936823F070639360026831
:102500009368816A0B4393600268936823F0405399
:10251000936002689368C16A0B4393600268936892
:1025200023F00203936002689368017E43EA41034B
:10253000936090F82030002B3FD00268536843F43A
:10254000006353600268536823F46043536001687A
:102550004B68426A013A43EA42334B600268D36AED
:1025600023F47003D3620168CB6AC269013A43EA7B
:102570000253CB620268936823F40073936002688D
:10258000936890F8301043EA41239360026893689F
:1025900023F48063936002689368416943EA81236E
:1025A000936070470268936823F0706393600268D9
:1025B000936823F040539360B0E70268536823F4B4
:1025C00000635360CAE700BF002301400100000F11
:1025D00038B310B50446036C43B1236C13F0100FED
:1025E0000BD00120002384F83C3010BDFDF73AFFEA
:1025F0000023636484F83C30EFE7236C23F48853B2
:1026000023F0020343F0020323642046FFF746FF52
:1026100000206064236C23F0030343F00103236470
:10262000E0E701207047000010B582B01346002299
:10263000019290F83C20012A00F094800446012287
:1026400080F83C200268906810F0010F13D1906868
:1026500040F001009060464A1068464AA2FB002004
:10266000800C00EB4000019002E0019801380190DD
:1026700001980028F9D12268906810F4807F03D077
:10268000906820F4807090602268906810F0010FCC
:102690005DD0206C20F4E06020F0010040F48070F8
:1026A0002064526812F4806F05D0226C22F44052EC
:1026B00042F480522264226C12F4805F34D0626C47
:1026C00022F006026264002284F83C20A26B2A48B1
:1026D000D063A26B29481064A26B2948D064226899
:1026E0006FF0220010602068426842F08062426011
:1026F0002068826842F48072826020680A4600F195
:102700004C01A06B00F0B2FA1E4B5B6813F01F0F78
:102710000DD123689A6812F0405F25D19A6842F083
:1027200080429A6000201BE000226264CBE72368AD
:10273000154A934201D0002012E09A6812F0405FDF
:1027400014D19A6842F080429A60002008E0236C1D
:1027500043F010032364636C43F0010363640020BF
:1027600002B010BD0220FBE70020F9E70020F7E7E8
:102770001000002083DE1B43B12700088F270008CC
:102780009B2700080023014000200140704708B546
:10279000806BFFF7FBFF08BD704708B5806B4023D7
:1027A0000364436C43F004034364FFF7F5FF08BD83
:1027B00008B50346806B026C12F0500F25D1036CF4
:1027C00043F40073036403689A6812F0405F19D100
:1027D000027EBAB9DA6A12F4700F03D09A6812F462
:1027E000806F0FD15A6822F020025A60036C23F4E4
:1027F00080730364036C13F4805F03D1036C43F0B4
:1028000001030364FDF7AEFE08BD026C12F0100F69
:1028100004D1826BD26C18469047F5E7FFF7BCFFF6
:10282000F2E7000030B482B00022019290F83C2020
:10283000012A00F0B6800346012280F83C200A6895
:10284000092A40D90468E06892B202EB42021E3ABB
:102850004FF0070C0CFA02F220EA0202E2601C6858
:10286000E0680A8802EB42021E3A8D6805FA02F21D
:102870000243E2604A68062A3CD81C68606B02EB9F
:102880008202053A4FF01F0C0CFA02F220EA020213
:1028900062631C68606B4A6802EB8202053AB1F819
:1028A00000C00CFA02F20243626318683E4A90428A
:1028B00050D018683C4A904255D0002083F83C0024
:1028C00002B030BC70470468206992B202EB420249
:1028D0004FF0070C0CFA02F220EA020222611C6897
:1028E00020690A8802EB42028D6805FA02F202436F
:1028F0002261BFE70C2A16D81D68286B02EB820202
:10290000233A1F2404FA02F220EA02022A631D6815
:10291000286B4A6802EB8202233A0C8804FA02F21E
:1029200002432A63C1E71D68E86A02EB8202413A6A
:102930001F2404FA02F220EA0202EA621D68E86A31
:102940004A6802EB8202413A0C8804FA02F202431E
:10295000EA62AAE70A68122AABD11448426842F434
:1029600080024260A5E70A68103A012AA5D80F48FC
:10297000426842F4000242600A68102A9DD10C4A63
:1029800012680C49A1FB0212920C02EB8202520067
:10299000019202E0019A013A0192019A002AF9D1CA
:1029A0008BE702208CE700BF00200140002301409C
:1029B0001000002083DE1B43002807DB00F01F020D
:1029C000400901239340024A42F82030704700BF7B
:1029D00000E100E0002808DB0901C9B200F1604015
:1029E00000F5614080F80013704700F00F00090106
:1029F000C9B2014B1954704714ED00E000B500F066
:102A00000700C0F1070CBCF1040F28BF4FF0040C05
:102A1000031D062B0FD9C31E4FF0FF3E0EFA0CF01C
:102A200021EA000199400EFA03FE22EA0E0241EA71
:102A300002005DF804FB0023EEE70000074AD368BC
:102A400023F4E0631B041B0C000200F4E06003436A
:102A500043F0BF6343F40033D360704700ED00E000
:102A600010B50446054BD868C0F30220FFF7C6FF37
:102A700001462046FFF7AEFF10BD00BF00ED00E0AD
:102A800008B5FFF799FF08BD58B110B50446437962
:102A90001BB101236371002010BD0371FDF7E4FF3A
:102AA000F7E70120704730B405682C6824F48024CF
:102AB0002C60046863608368402B05D003689960CC
:102AC0000368DA6030BC704703689A600368D960B5
:102AD000F8E7000010B40368D9B210390A4AA2FB23
:102AE00001421209094CA25CC2655F2907D96FF344
:102AF000090304338365806D5DF8044B70476FF301
:102B000009038365F7E700BFABAAAAAAB49F000830
:102B1000836A826992B9012B0AD0022B02D00BB1D1
:102B200000207047C36A13F0807F28D100207047CF
:102B3000C36AB3F1C07F24D000207047B2F5005FB4
:102B400009D0022B25D9032B25D1C36A13F0807F2E
:102B500023D100207047032B03D8DFE803F01404CF
:102B6000140A00207047C36A13F0807F0DD1002043
:102B70007047C36AB3F1C07F09D0002070470120BD
:102B800070470120704701207047012070470120E5
:102B900070470120704700207047012070470000F7
:102BA00070B50446FFF760FC002C5BD0054602239D
:102BB00084F83530002384F834302268136823F019
:102BC0000103136023681A6812F0010F0AD0FFF79F
:102BD0004BFC431B052BF5D920236365032084F8A8
:102BE000350070BD1A68204911406268A068024330
:102BF000E06802432069024360690243A06902431E
:102C0000E0690243206A02430A43616A04291ED034
:102C10001A602668756925F00705636A1D43042B51
:102C200007D1A36A1D43E36A1BB12046FFF770FF7B
:102C300090B975612046FFF74DFFE26D3F23934049
:102C4000836000206065012384F83530C9E7E16ABC
:102C5000206B01430A43DBE740236365012084F8CE
:102C60003500BEE70120BCE73F8010F038B50446D0
:102C7000856D90F8340001282AD0012084F83400B2
:102C800094F83500012804D0002384F83430022061
:102C900038BD022084F83500002060652046FFF72B
:102CA00002FFE26D3F239340AB602268136843F05C
:102CB00016031360236C23B12268136843F00803E2
:102CC00013602268136843F0010313600020DFE7FC
:102CD0000220DDE7F0B583B0044600230193724B78
:102CE0001D68724BA3FB0535AD0A876D3E68C26D4A
:102CF00008239340334210D003681A6812F0040F7F
:102D00000BD01A6822F004021A60C26D08239340A7
:102D1000BB60436D43F001034365E26D01239340C3
:102D2000334209D02268526912F0800F04D0BB6090
:102D3000636D43F002036365E26D04239340334205
:102D400009D02268126812F0020F04D0BB60636DD4
:102D500043F004036365E26D10239340334224D0B3
:102D60002268126812F0080F1FD0BB6023681A682F
:102D700012F4802F0DD01B6813F4002F04D1236CA4
:102D80009BB12046984710E0A36C73B1204698474A
:102D90000BE01A6812F4807F03D11A6822F008024F
:102DA0001A60236C0BB120469847E26D20239340B4
:102DB000334254D02268126812F0100F4FD0BB601B
:102DC00094F83530052B0ED023681A6812F4802F42
:102DD00033D01B6813F4002F2AD1636C002B3ED034
:102DE000204698473BE02268136823F016031360DF
:102DF0002268536923F080035361236CA3B12268D6
:102E0000136823F008031360E26D3F239340BB6017
:102E1000012384F83530002384F83430236D002BEF
:102E20003FD0204698473CE0A36C002BE7D1EBE76E
:102E3000E36BA3B12046984711E01A6812F4807F33
:102E400009D11A6822F010021A60012384F8353083
:102E5000002384F83430E36B0BB120469847636D50
:102E6000FBB1636D13F0010F17D0052384F83530E3
:102E70002268136823F001031360019B013301935F
:102E8000AB4204D823681B6813F0010FF5D101236E
:102E900084F83530002384F83430E36C0BB12046DD
:102EA000984703B0F0BD00BF10000020B5814E1B55
:102EB00000230F2B00F2D78070B582B065E08568E3
:102EC0004FEA430E032404FA0EF425EA0405CC6805
:102ED00004FA0EF42C438460446824EA02044A682D
:102EE000C2F300129A40224342605CE0DC080834DE
:102EF00050F8242003F00705AD004FF00F0E0EFA36
:102F000005FE22EA0E0E0A69AA4042EA0E0240F8C5
:102F100024205CE0042200E0002202FA0EF22A43A0
:102F20000234514D45F82420504A94686FEA0C024F
:102F300024EA0C054E6816F4801F01D04CEA040503
:102F40004A4CA560E46802EA04054E6816F4001FC6
:102F500001D04CEA0405454CE560646802EA0405CA
:102F60004E6816F4003F01D04CEA04053F4C656002
:102F7000246822404D6815F4803F01D04CEA0402D9
:102F80003A4C226001330F2B6BD801229A400C6817
:102F900004EA020C32EA0404F4D14C6804F003049D
:102FA000013C012C8BD94A6802F00302032A09D0A4
:102FB000C4685D000322AA4024EA02048A68AA4089
:102FC0002243C2604A6802F00302022A8ED00468DB
:102FD0004FEA430E032202FA0EF224EA02044A6880
:102FE00002F0030202FA0EF2224302604A6812F46F
:102FF000403FC7D0002201921D4A546C44F48044E3
:103000005464526C02F480420192019A9C08A51CFF
:10301000154A52F8255003F0030E4FEA8E0E0F2288
:1030200002FA0EF225EA0205124A90423FF474AF0A
:1030300002F5806290420ED002F5806290420CD080
:1030400002F5806290420AD002F5806290423FF41D
:1030500061AF072261E701225FE702225DE70322F9
:103060005BE702B070BD704700380140003C014092
:1030700000380240000002400369194201D00120DB
:103080007047002070470AB181617047090481616F
:103090007047000008B5054B5B69034200D108BDCD
:1030A000024B5861FEF761FAF9E700BF003C0140AE
:1030B00000B583B0002200920D4B596C41F4804161
:1030C0005964596C01F48041009100990192196C86
:1030D00041F0805119641B6C03F080530193019BF4
:1030E0000F216FF00100FFF7BBFC03B05DF804FB9C
:1030F000003802402DE9F04383B0D0F8008001EBA6
:10310000C10300EB83039A6A5B6A9A4254D807466C
:103110000C469B1A01EBC10200EB8202D2699A4273
:1031200000D31A4602F103094FEA990915E006F1A6
:1031300003094FEA9909BB7904EBC40507EB850540
:10314000296A0093B3B2E2B2404602F0E2F92B6A78
:1031500033442B62AB6A3344AB6208EB441303F590
:1031600010639B699BB24B4512D304EBC40307EB7E
:1031700083039A6A5B6A9A420AD24BB19B1A04EBA8
:10318000C40207EB8202D6699E42D0D31E46CEE728
:1031900004EBC40307EB83077A6ABB6A9A420FD831
:1031A00004F00F040122A240D8F8343823EA0203C5
:1031B000C8F83438002000E0012003B0BDE8F083F7
:1031C0000020FAE730B583B000287AD004460568BD
:1031D00090F89534C3B1032384F89534B5F1A04F2A
:1031E00017D0206801F046FF237C8DF80030231DA6
:1031F0000ECB206801F07DFE70B1022384F8953477
:103200000125284603B030BD80F8943404F0C4FC96
:10321000E1E70023A371E4E70021206802F08FFBBF
:103220000246B8B903462079984218D903EBC30186
:1032300004EB8101012048750B75CB8500200876D1
:10324000C861086203EBC30104EB810148620133EA
:10325000DBB2E8E7022384F895340125D1E79042F8
:1032600017D902EBC20304EB8303002183F8551244
:1032700083F8542283F85812C3F85C12C3F8601222
:1032800002EBC20304EB8303C3F864120132D2B22F
:10329000E5E7237C8DF80030231D0ECB206801F07C
:1032A0003FFF054620B1022384F895340125A8E7A5
:1032B00000236374012384F89534206802F0FEFA39
:1032C0009FE701259DE7036890F89424012A1AD00E
:1032D00010B50446012280F89424DA6812F0400FF9
:1032E00002D0427B012A09D0206801F0BDFE20688F
:1032F00002F0D6FA002084F8940410BD9A6B42F4D0
:1033000080329A63F0E702207047000070B50446EF
:103310000D460068066C00EB411303F530639A68B4
:10332000A179012911D038498E4256D03DB905EB1B
:10333000C50304EB8303D3F86432002B5ED0E9B2FB
:10334000204604F075FC002070BD12F0080F09D073
:103350002E498E42F7D912F4004FF4D04FF40042B8
:103360009A60F0E712F0200F02D020229A60EAE77C
:1033700012F0280FE7D125498E4206D912F4004FEA
:1033800003D04FF400429A60DDE705EBC50204EB81
:103390008202D2F874121B69C3F31203CB1AC2F86B
:1033A00068327DB905EBC50204EB8202D2F86422D3
:1033B0006AB105EBC50204EB8202D2F8601219442F
:1033C000C2F86012E9B2204604F032FCBBE704F216
:1033D0009C42012102F0F2FAF4E712F4004F03D00C
:1033E0004FF400429A60AEE712F0200F01D0202285
:1033F0009A60E9B2204604F01BFCA4E704F29C4268
:10340000002102F0DBFA9AE70A31544F0A30544F98
:1034100038B5044603681D6C03EB4113D3F8081B51
:103420000E4A954207D903F5306311F4004F02D0DC
:103430004FF400429A60204604F0F2FB074B9D4295
:1034400002D9A379012B01D0002038BD04F29C429F
:103450000121206802F0B2FAF6E700BF0A30544FAB
:1034600090F89434012B0CD010B50446012380F859
:1034700094344174006802F003FA002084F8940444
:1034800010BD0220704738B505468C4611F0800FFC
:103490002BD101F00F0E0EEBCE04A40004F5147432
:1034A0000444211D0EEBCE0E00EB8E0E00208EF894
:1034B00055020CF00F0C81F800C0C2F30A028A60BA
:1034C0000B714A780AB1A1F81AC0022B1CD095F8EA
:1034D0009434012B1BD0012385F89434286801F023
:1034E000FCFE002085F8940438BD01F00F0000EBCD
:1034F000C001890010312944043100EBC00005EB04
:10350000800001244475D4E700234B71DFE70220DB
:10351000EAE710B504460A4611F0800F20D101F009
:103520000F0000EBC0039B0003F514732344191D27
:1035300000EBC00004EB8000002380F8553202F05D
:103540000F020A7094F89434012B18D0012384F8E8
:103550009434206801F00EFF002084F8940410BD1C
:1035600001F00F0000EBC0039B0010332344191D32
:1035700000EBC00004EB800001234375DFE702206D
:10358000EDE710B5144601F00F0C0CEBCC018900EF
:1035900001F51471014404310CEBCC0E00EB8E0EDE
:1035A000CEF86022CEF864320023CEF868328EF86E
:1035B00055328EF854C28279012A04D0006801F095
:1035C000BFFF002010BDCEF87042F7E701F00F01F9
:1035D00001EBC10100EB8100D0F86802704710B523
:1035E000144601F00F0C0CEBCC01890010310144A2
:1035F00004310CEBCC0E00EB8E0ECEF82020CEF872
:1036000024300023CEF8283001238EF815308EF8B0
:1036100014C082799A4204D0006801F091FF002022
:1036200010BDCEF83040F7E738B501F00F0502794C
:10363000AA4238D304460B4611F0800F1FD101EB8C
:10364000C101890001F514710144043103EBC30386
:1036500000EB8303002283F8552201238B700D7049
:1036600094F89434012B20D0012384F894342068FA
:1036700002F0ABF885B1002084F8940438BD05EB66
:10368000C501890010310144043105EBC50300EB8D
:10369000830301225A75E0E704F29C42A179206875
:1036A00002F08CF9E7E70120E8E70220E6E701F005
:1036B0000F0302799A4230D310B5044611F0800FFF
:1036C0001ED103EBC301890001F5147101440431DB
:1036D00003EBC30200EB8202002082F855020022B5
:1036E0008A700B7094F89434012B18D0012384F85D
:1036F0009434206802F096F8002084F8940410BDF9
:1037000003EBC301890010310144043103EBC30210
:1037100000EB820201205075E1E701207047022092
:10372000EDE708B511F0800F0CD101F00F0101EBAE
:10373000C101890001F5147101440431006801F0F0
:1037400089FE08BD01F00F0101EBC10189001031B4
:1037500001440431F2E72DE9F04F83B004460568D7
:10376000284602F0E8F810B103B0BDE8F08F064635
:10377000206802F0B1F80028F6D005F50067BB68B4
:10378000C3F30D23C4F8D434206802F0A5F810F078
:10379000020F04D02268536903F0020353612068CA
:1037A00002F09AF810F0100F15D02268936923F0F8
:1037B00010039361D5F8208008F00F0908F4F01386
:1037C000B3F5802F4CD0B3F5402F6FD022689369AA
:1037D00043F010039361206802F07EF810F4002F8C
:1037E00076D1206802F078F810F4802F40F0E08065
:1037F000206802F071F80028C0F26181206802F0B0
:103800006BF810F4006F09D0BB6813F0010F40F0A3
:103810006E812268536903F400635361206802F0EB
:103820005BF810F4805F40F06681206802F054F885
:1038300010F4005F40F0B381206802F04DF810F002
:10384000080F40F0C481206802F046F810F0800FA5
:1038500000F0D781AB6923F08003AB610126C0E1A2
:1038600047F6F07318EA030FB0D04FEA181A4FEA80
:10387000C903019309EBC90B04EB8B0BC8F30A12C4
:10388000DBF86012284601F07DFFDBF86032CAF3F6
:103890000A0A5344CBF86032DBF86832019A4A4492
:1038A00004EB82025344C2F868328FE7082204F224
:1038B0009C41284601F066FF09EBC90304EB830332
:1038C000D3F86822C8F30A184244C3F868227DE797
:1038D000206802F005F88046B14635E005EB491353
:1038E0000122C3F8082B49462046FFF70FFD3CE0B4
:1038F00005EB49130822C3F8082B49462046FFF779
:1039000087FD35E009EBC90304EB830393F85732D5
:10391000012B41D005EB49130222C3F8082B1AF002
:10392000200F04D005EB49132022C3F8082B1AF40A
:10393000005F05D005EB49134FF40052C3F8082B84
:1039400009F101094FEA5808B8F1000F3FF449AFF7
:1039500018F0010FF4D05FFA89FB5946206801F096
:10396000CFFF824610F0010FB8D11AF0080FBFD177
:103970001AF0100F04D005EB49131022C3F8082BDE
:103980001AF0020FCBD06B6913F0800FBAD07B68AE
:1039900043F480637B60B5E709EBC90304EB830361
:1039A000002283F857225946204604F08FF9B1E7E8
:1039B000206801F09DFF8046B14625E0594620462B
:1039C00004F042F91AF0080F04D005EB491308225D
:1039D000C3F808291AF0100F04D005EB4913102280
:1039E000C3F808291AF0400F04D005EB4913402210
:1039F000C3F808291AF0020F40D11AF0800F59D1EC
:103A000009F101094FEA5808B8F1000F3FF4F0AE90
:103A100018F0010FF4D05FFA89FB5946206801F0D5
:103A200078FF824610F0010FCCD009F00F0201217F
:103A300001FA02F27B6B23EA02037B6305EB491375
:103A4000C3F80819A3798B42B8D109EBC90304EB79
:103A500083031A6AD9690A441A62B9F1000FADD119
:103A600009EBC90304EB83035B6A002BA6D104F2C4
:103A70009C420121206801F0A1FF9FE749462846AA
:103A800001F0FEFA09EBC90304EB8303DB7D012B94
:103A900005D005EB49130222C3F80829ADE709EB6D
:103AA000C90304EB83030022DA755946204604F06B
:103AB00013F9EEE749462046FFF71CFBA0E77B68B9
:103AC00023F001037B6094F8CC34012B08D020460E
:103AD00004F0F6F82268536903F0004353618DE661
:103AE000002184F8CC14204600F03FF9F2E720468C
:103AF00004F0CEF88DE67B6823F001037B60102193
:103B0000206801F0BDFA1AE005EB46134FF67F314D
:103B1000C3F80819D3F8002922F40012C3F80029C9
:103B2000C3F8081BD3F8002B22F40012C3F8002BB3
:103B3000D3F8002B42F00062C3F8002B0136237942
:103B4000B342E1D8FB6943F00113FB61E37BDBB1D6
:103B5000D7F8843043F00B03C7F884307B6C43F014
:103B60000B037B64D5F8003823F4FE63C5F80038F6
:103B700004F29C42A179206801F020FF2268536979
:103B800003F48053536150E67B6943F4005343F0E0
:103B90002B037B613B6943F00B033B61E2E7206849
:103BA00001F0FEFE206801F087FBE071266800F05E
:103BB000DDFB0146E279304601F0E4F9204604F0ED
:103BC00054F82268536903F40053536134E62046E5
:103BD00004F045F82268536903F00803536132E6A4
:103BE00001362379B3420CD906EBC60304EB8303F9
:103BF00093F85732012BF3D1F1B22046FFF791FD34
:103C0000EEE7206801F068FE10F4801F25D12068DF
:103C100001F062FE10F4001F59D0012326E00136A6
:103C20002379B3421BD905EB4613D3F8002906EBE1
:103C3000C60304EB83031B7E012BF0D1002AEEDACE
:103C400006EBC60304EB83030122DA7566F07F01FD
:103C5000C9B22046FFF765FDE1E70126E0E72268EB
:103C6000536903F480135361D1E7013322799A42F7
:103C700028D905EB4312D2F8001B03EBC30204EB77
:103C8000820292F85822012AEFD10029EDDA01F4DC
:103C90008031D4F8D42402F001029142E5D103EB43
:103CA000C30204EB8202012182F85712AA6942F092
:103CB0008002AA616A6912F0800FD6D17B6843F452
:103CC00000737B602268536903F40013536120681A
:103CD00001F002FE10F0804F10D1206801F0FCFDD1
:103CE00010F0040F3FF440AD23685D6815F0040F39
:103CF0000DD1226853682B43536035E5204603F00D
:103D0000F1FF2268536903F080435361E5E72046E1
:103D100003F0EEFFEDE710B40468606A31B940EAE1
:103D20000240A06200205DF8044B70478C46A36AF5
:103D300000EB1340002308E003F1400104EB810194
:103D4000496800EB11400133DBB20CF1FF318B42CB
:103D5000F2D340EA02400CF13F0104EB81046060C1
:103D6000E0E703685962002070477047002800F0C0
:103D7000E08170B582B00446036813F0010F3BD0B8
:103D80009F4B9B6803F00C03042B2CD09C4B9B682F
:103D900003F00C03082B21D06368B3F5803F4FD0AC
:103DA000B3F5A02F52D0964B1A6822F480321A60D5
:103DB0001A6822F480221A606368002B50D0FEF744
:103DC00053FB05468E4B1B6813F4003F14D1FEF7DE
:103DD0004BFB401B6428F5D90320B1E1884B5B689D
:103DE00013F4800FD8D0864B1B6813F4003F03D028
:103DF0006368002B00F09F81236813F0020F54D0FA
:103E00007F4B9B6813F00C0F3ED07D4B9B6803F0FB
:103E10000C03082B33D0E368002B68D0794B0122C8
:103E20001A60FEF721FB0546754B1B6813F0020F65
:103E300054D1FEF719FB401B0228F5D903207FE17E
:103E40006F4A136843F480331360B5E76C4B1A680C
:103E500042F480221A601A6842F480321A60ABE79A
:103E6000FEF702FB0546664B1B6813F4003FC3D008
:103E7000FEF7FAFA401B6428F5D9032060E1604B95
:103E80005B6813F4800FC6D15D4B1B6813F0020F03
:103E900003D0E368012B40F05081594A136823F0A6
:103EA000F803216943EAC1031360236813F0080F84
:103EB00042D063696BB3534B0122C3F8802EFEF7E7
:103EC000D3FA05464E4B5B6F13F0020F34D1FEF769
:103ED000CBFA401B0228F5D9032031E1484A136888
:103EE00023F0F803216943EAC1031360DDE7454B82
:103EF00000221A60FEF7B8FA0546414B1B6813F022
:103F0000020FD2D0FEF7B0FA401B0228F5D90320E9
:103F100016E13C4B0022C3F8802EFEF7A5FA0546B9
:103F2000374B5B6F13F0020F06D0FEF79DFA401B74
:103F30000228F5D9032003E1236813F0040F77D09A
:103F40002F4B1B6C13F0805F33D1002301932C4B5C
:103F50001A6C42F080521A641B6C03F08053019378
:103F6000019B0125284B1B6813F4807F23D0A36895
:103F7000012B34D0052B38D0214B1A6F22F00102CF
:103F80001A671A6F22F004021A67A368002B3DD04B
:103F9000FEF76AFA06461A4B1B6F13F0020F46D162
:103FA000FEF762FA801B41F288339842F3D903206E
:103FB000C6E00025D6E7144A136843F48073136003
:103FC000FEF752FA0646104B1B6813F4807FCED1E1
:103FD000FEF74AFA801B0228F5D90320B0E0084A10
:103FE000136F43F001031367CFE7054B1A6F42F0DD
:103FF00004021A671A6F42F001021A67C5E700BF90
:10400000003802400000474200700040FEF72CFAE2
:104010000646524B1B6F13F0020F08D0FEF724FA2E
:10402000801B41F288339842F3D9032088E0EDB930
:10403000A369002B00F08380484A926802F00C02CA
:10404000082A51D0022B17D0454B00221A66FEF7E2
:104050000BFA0446414B1B6813F0007F42D0FEF779
:1040600003FA001B0228F5D9032069E03B4A136CD0
:1040700023F080531364DBE7394B00221A66FEF706
:10408000F3F90546354B1B6813F0007F06D0FEF7A9
:10409000EBF9401B0228F5D9032051E0E369226ABD
:1040A0001343626A43EA8213A26A5208013A43EA5E
:1040B0000243E26A43EA0263284A5360284B012222
:1040C0001A66FEF7D1F90446244B1B6813F0007FF3
:1040D00006D1FEF7C9F9001B0228F5D903202FE00D
:1040E00000202DE000202BE0012B2BD01B4B5B6828
:1040F00003F48001E269914226D103F03F02216A74
:104100008A4223D1616A47F6C0721A40B2EB811F1E
:104110001ED103F44031A26A5208013AB1EB024FBA
:1041200018D103F07063E26AB3EB026F14D1002080
:1041300006E001207047012002E0012000E000209D
:1041400002B070BD0120FBE70120F9E70120F7E78D
:104150000120F5E70120F3E70120F1E700380240F4
:104160000000474208B5264B9B6803F00C03042B64
:1041700041D0082B41D1224B5A6802F03F025B68C4
:1041800013F4800F12D01E4B5968C1F388111D48DB
:104190000023A1FB0001FCF75BF8194B5B68C3F33C
:1041A000014301335B00B0FBF3F008BD144B5868CA
:1041B000C0F388104FEA401CBCEB000C6EEB0E0EF7
:1041C0004FEA8E1343EA9C634FEA8C11B1EB0C016A
:1041D00063EB0E03DB0043EA5173C90011EB000CE3
:1041E00043F10003990200234FEA8C2041EA9C51DD
:1041F000FCF72EF8D1E70348D7E70348D5E700BF1F
:104200000038024040787D010024F400002800F0CE
:104210009B8070B50D4604464F4B1B6803F00703A7
:104220008B4208D2CBB24C4A1370136803F00703D9
:104230008B4240F08B80236813F0020F17D013F0ED
:10424000040F04D0454A936843F4E0539360236815
:1042500013F0080F04D0414A936843F4604393601D
:104260003E4A936823F0F003A1680B4393602368F0
:1042700013F0010F32D06368012B21D09A1E012A5E
:1042800025D9364A126812F0020F61D033498A6884
:1042900022F0030213438B60FEF7E6F806462F4B2D
:1042A0009B6803F00C036268B3EB820F16D0FEF735
:1042B000DBF8801B41F288339842F0D9032042E0BA
:1042C000264A126812F4003FE0D101203BE0234A65
:1042D000126812F0007FD9D1012034E01E4B1B6818
:1042E00003F00703AB4207D9EAB21B4B1A701B68F5
:1042F00003F00703AB422DD1236813F0040F06D05F
:10430000164A936823F4E053E1680B4393602368F3
:1043100013F0080F07D0114A936823F46043216912
:1043200043EAC1039360FFF71DFF0C4B9B68C3F387
:1043300003130B4AD35CD8400A4B18600A4B186829
:1043400000F036FD002070BD012070470120FAE723
:104350000120F8E70120F6E7003C02400038024067
:10436000C49F0008100000200C000020014B1868BA
:10437000704700BF1000002008B5FFF7F7FF044B9F
:104380009B68C3F34233034AD35CD84008BD00BFE7
:1043900000380240BC9F00080F2303600B4B9A6853
:1043A00002F0030242609A6802F0F00282609A68AA
:1043B00002F4E052C2609B68DB0803F4E05303613F
:1043C000034B1B6803F007030B6070470038024083
:1043D000003C024030B4026A036A23F00103036226
:1043E0004568836923F073030C681C4322F00202C2
:1043F0008B6813430B4A904206D0456084614A683B
:104400004263036230BC704723F00803CA681A4352
:1044100022F0040325F440754A692A438D69154347
:10442000EBE700BF0000014030B4036A026A22F4E7
:10443000807202624468C26922F073020D681543FB
:1044400023F400738A6843EA02230D4A904206D09F
:104450004460C5614A68C263036230BC704723F49C
:104460000063CA6843EA022323F4806324F44054BF
:104470004A6944EA02148A6944EA0214E8E700BF80
:104480000000014030B4036A026A22F480520262E2
:104490004468C26922F4E6420D6842EA052223F428
:1044A00000538D6843EA0533074DA84206D04460A7
:1044B000C2614A680264036230BC704724F48044DD
:1044C0004D6944EA8514F2E70000014010B4036A24
:1044D000046A24F001040462846924F0F00C4CEABC
:1044E000021223F00A030B43826103625DF8044B5E
:1044F000704710B4036A046A24F0100404628469EB
:1045000024F4704C4CEA023223F0A00343EA011376
:10451000826103625DF8044B7047836823F0700387
:104520000B4343F0070383607047000090F83D3071
:10453000012B2FD1022380F83D300268D36843F06D
:104540000103D3600368154A934218D0B3F1804F3A
:1045500015D0A2F57C42934211D002F580629342BD
:104560000DD002F58062934209D002F59A3293424F
:1045700005D01A6842F001021A60002070479A685C
:1045800002F00702062A07D01A6842F001021A60F8
:104590000020704701207047002070470000014054
:1045A0007047704770477047704770B5044603689E
:1045B000DE681D6915F0020F10D016F0020F0DD045
:1045C0006FF002021A610123037703689B6913F0FD
:1045D000030F5ED0FFF7E6FF0023237715F0040FEB
:1045E00012D016F0040F0FD023686FF004021A6186
:1045F0000223237723689B6913F4407F4FD0204622
:10460000FFF7D0FF0023237715F0080F12D016F024
:10461000080F0FD023686FF008021A610423237774
:104620002368DB6913F0030F40D02046FFF7BAFF81
:104630000023237715F0100F12D016F0100F0FD0B3
:1046400023686FF010021A61082323772368DB695F
:1046500013F4407F31D02046FFF7A4FF00232377D7
:1046600015F0010F02D016F0010F2DD115F0800FBB
:1046700002D016F0800F2FD115F0400F02D016F0A7
:10468000400F31D115F0200F02D016F0200F33D19A
:1046900070BDFFF786FF2046FFF785FF9CE72046A9
:1046A000FFF77FFF2046FFF77EFFABE72046FFF7CF
:1046B00078FF2046FFF777FFBAE72046FFF771FF44
:1046C0002046FFF770FFC9E723686FF001021A6107
:1046D0002046FCF753FFC9E723686FF080021A6198
:1046E000204600F063FBC7E723686FF040021A61C1
:1046F0002046FFF759FFC5E723686FF020021A61D3
:10470000204600F052FBC3E70368294A90420ED0CE
:10471000B0F1804F0BD0A2F57C42904207D002F559
:104720008062904203D002F58062904203D123F070
:1047300070034A6813431E4A90421AD0B0F1804F6A
:1047400017D0A2F57C42904213D002F580629042CD
:104750000FD002F5806290420BD002F59A3290425F
:1047600007D002F58062904203D002F58062904249
:1047700003D123F44073CA68134323F080034A69CA
:10478000134303608B68C3620B688362084B9842D3
:104790000AD001234361036913F0010F03D00369B9
:1047A00023F00103036170470B690363F1E700BF66
:1047B0000000014040B310B5044690F83D30F3B11D
:1047C000022384F83D30214651F8040BFFF79CFF8B
:1047D000012384F8463084F83E3084F83F3084F872
:1047E000403084F8413084F8423084F8433084F813
:1047F000443084F8453084F83D30002010BD80F806
:104800003C3002F073F8DBE70120704740B310B58D
:10481000044690F83D30F3B1022384F83D30214640
:1048200051F8040BFFF770FF012384F8463084F839
:104830003E3084F83F3084F8403084F8413084F8CA
:10484000423084F8433084F8443084F8453084F8AA
:104850003D30002010BD80F83C30FFF7A1FEDBE7C3
:104860000120704740B310B5044690F83D30F3B1D5
:10487000022384F83D30214651F8040BFFF744FF32
:10488000012384F8463084F83E3084F83F3084F8C1
:10489000403084F8413084F8423084F8433084F862
:1048A000443084F8453084F83D30002010BD80F855
:1048B0003C3001F0E7FFDBE70120704730B4036ACA
:1048C000026A22F0100202624468826922F4E6421F
:1048D0000D6842EA052223F020038D6843EA0513A0
:1048E0000C4DA84206D0446082614A68826303622C
:1048F00030BC704723F08003CD6843EA051323F0F2
:10490000400324F440644D6944EA85048D6944EA17
:104910008504E8E70000014090F83C30012B28D0E6
:1049200010B50446012380F83C300C2A1CD8DFE87F
:1049300002F0071B1B1B0C1B1B1B111B1B1B160058
:104940000068FFF747FD00200FE00068FFF7B6FFA3
:1049500000200AE00068FFF767FD002005E000681E
:10496000FFF790FD002000E00120002384F83C3098
:1049700010BD0220704738B590F83C30012B66D04E
:1049800004460D46012380F83C300C2A5AD8DFE853
:1049900002F0075959591B5959593059595944006E
:1049A0000068FFF717FD2268936943F008039361DD
:1049B0002268936923F0040393612268936929694B
:1049C0000B43936100203EE00068FFF777FF226809
:1049D000936943F4006393612268936923F48063CD
:1049E000936122689369296943EA01239361002056
:1049F00029E00068FFF718FD2268D36943F0080337
:104A0000D3612268D36923F00403D3612268D36998
:104A100029690B43D361002015E00068FFF732FDE0
:104A20002268D36943F40063D3612268D36923F415
:104A30008063D3612268D369296943EA0123D36182
:104A4000002000E00120002384F83C3038BD022023
:104A5000FCE710B4846824F47F4C42EA03220A4342
:104A600042EA0C0282605DF8044B704790F83C30DB
:104A7000012B78D010B50446012380F83C30022386
:104A800080F83D300268936823F47F4323F0770376
:104A900093600B68602B4CD023D8402B54D011D896
:104AA000202B03D00AD80BB1102B05D11946206852
:104AB000FFF733FD002028E0012026E0302BF5D061
:104AC000012022E0502B0AD1CA6849680068FFF72C
:104AD000FDFC50212068FFF720FD002015E001209B
:104AE00013E0B3F5805F3AD0B3F5005F14D0702BBC
:104AF00037D1CB684A6889680068FFF7AAFF226847
:104B0000936843F0770393600020012384F83D30DD
:104B1000002384F83C3010BDCB684A68896800687F
:104B2000FFF797FF2268936843F480439360002067
:104B3000EBE7CA6849680068FFF7DBFC6021206882
:104B4000FFF7EBFC0020E0E7CA6849680068FFF760
:104B5000BDFC40212068FFF7E0FC0020D5E70020E5
:104B6000D3E70120D1E70220704701F01F014FF089
:104B7000010C0CFA01FC036A23EA0C030362036ACA
:104B80008A4013430362704710B504460846002963
:104B900037D194F83E30013B18BF0123002B40F081
:104BA0009580002843D1022384F83E302268D368E0
:104BB00043F00203D360012201462068FFF7D5FFCE
:104BC0002368454A934271D02368434A934272D086
:104BD000B3F1804F6FD0A2F57C4293426BD002F5C7
:104BE0008062934267D002F58062934263D002F5FF
:104BF0009A3293425FD01A6842F001021A60002094
:104C000065E0042907D008290BD094F84130013B16
:104C100018BF0123C2E794F83F30013B18BF0123BE
:104C2000BCE794F84030013B18BF0123B6E70428E5
:104C300024D008282BD0022384F841300C2847D8F0
:104C400001A353F820F000BFAD4B0008D14C000881
:104C5000D14C0008D14C0008834C0008D14C00080E
:104C6000D14C0008D14C0008954C0008D14C0008EC
:104C7000D14C0008D14C0008A14C0008022384F854
:104C80003F302268D36843F00403D36093E70223E4
:104C900084F840302268D36843F00803D3608AE781
:104CA0002268D36843F01003D36084E75A6C42F45F
:104CB00000425A6488E79A6802F00702062A09D07F
:104CC0001A6842F001021A60002000E0012010BDC5
:104CD0000120FCE70020FAE70000014090F83C20AA
:104CE000012A35D010B40346012280F83C2002226C
:104CF00080F83D2002685068946820F0700C0868C5
:104D000040EA0C0050601A681248824212D0B2F198
:104D1000804F0FD0A0F57C4082420BD000F5806020
:104D2000824207D000F58060824203D000F59A30BD
:104D3000824204D124F08004496821439160012219
:104D400083F83D20002083F83C005DF8044B704759
:104D50000220704700000140024690F83C30012BD1
:104D600021D0012380F83C30CB6823F4407388685D
:104D7000034323F480634868034323F40063086813
:104D8000034323F480530869034323F40053486921
:104D9000034323F48043C9690B4311684B6400202B
:104DA00082F83C007047022070477047704700004F
:104DB00030B589B00546002401941D4B5A6C42F46D
:104DC00080225A645B6C03F480230193019B02A947
:104DD00003A8FFF7E1FAFFF7CFFA164AA2FB002378
:104DE0009B0C013B1448154A026040F2E732C26056
:104DF0004360046184608461FFF7DCFC044610B109
:104E0000204609B030BD0C48FFF790FB044600284F
:104E1000F6D11A20FDF734FE0F2D01D90124EFE75A
:104E2000002229461A20FDF71BFE054B1D60E7E70F
:104E30000038024083DE1B439054002000480140AC
:104E40000C000020FEE7FEE7FEE7FEE7FEE7704706
:104E500008B54FF40070FEF71DF908BD08B503480A
:104E6000FFF7A3FB0248FFF7A0FB08BD6C5A002028
:104E70009054002008B502F091F90248FFF795FB25
:104E800008BD00BF245A002008B50248FDF722FFE4
:104E900008BD00BF6C01002008B50248FEF75BFCAE
:104EA00008BD00BF846A002082B000230193019BEB
:104EB00001330193019BB3F1706F15D80369002B87
:104EC000F5DA00230193036943F001030361019BB9
:104ED00001330193019BB3F1706F08D8036913F09C
:104EE000010FF4D1002000E0032002B0704703203E
:104EF000FBE784B010B5044603A880E80E009DF8D7
:104F00001130012B21D1A36B23F48033A363E36819
:104F100023F4840323F04003E360E36823F44013A5
:104F2000E3609DF81830012B0AD02046FFF7BCFF44
:104F30009DF80E30012B1CD0BDE8104004B0704726
:104F4000E36843F48013E360EFE7E36843F0400372
:104F5000E3602046FFF7A8FF9DF8153023B9A36B47
:104F600043F48033A363E3E7A36B23F48033A363A9
:104F7000DEE7A36843F00603A360A36843F02003C1
:104F8000A360D9E7022A0AD00922C36823F4705328
:104F9000C360C36843EA8223C36000207047234B89
:104FA0000B44234A93422FD9224B0B44224A93426B
:104FB0002CD9A1F57403A3F51053204A934227D9A5
:104FC000A1F18373A3F5E7431D4A934222D31D4BFE
:104FD0000B441D4A93421FD91C4B0B441C4A93425D
:104FE0001CD31C4B0B441C4A934219D3A1F1B77339
:104FF000A3F55853194A934214D3194B0B44194A39
:10500000934211D20722C0E70F22BEE70E22BCE76F
:105010000D22BAE70C22B8E70B22B6E70A22B4E762
:105020000922B2E70822B0E70622AEE7405327FF85
:10503000FF340C00401E1BFF3F420F007F4F120049
:1050400020D6130060B6E5FE5FE3160000D3CEFE67
:1050500040771B00C05BB3FEC09121002075380073
:10506000E05459FEE09C4100836843F001038360F3
:1050700000207047836823F001038360002070479D
:1050800082B000230193019B01330193019BB3F193
:10509000706F15D80369002BF5DA0023019389019D
:1050A00041F020010161019B01330193019BB3F1A8
:1050B000706F08D8036913F0200FF4D1002000E0CE
:1050C000032002B070470320FBE782B00023019366
:1050D000019B01330193019BB3F1706F13D80369F6
:1050E000002BF5DA0023019310230361019B0133A8
:1050F0000193019BB3F1706F08D8036913F0100F8F
:10510000F4D1002000E0032002B070470320FBE749
:10511000D0F800381943C0F800180020704700008C
:1051200084B0F8B5044607A880E80E00002306E026
:1051300003F1400204EB82020021516001330E2B87
:10514000F6D99DF8266006BBD4F8043843F0020374
:10515000C4F80438A36B43F40013A363A36B23F4D4
:105160000023A363A36B23F48023A3630023C4F869
:10517000003E9DF82130012B15D19DF81F306BB9F1
:1051800000212046FFF7C4FF11E0A36B23F40013B6
:10519000A363A36B43F40023A363E7E70121204645
:1051A000FFF7B6FF03E003212046FFF7B1FF102110
:1051B0002046FFF765FF054600B101252046FFF7B1
:1051C00084FF00B1012504F5006C0023CCF81030F9
:1051D000CCF81430CCF81C300DE04FF09040C2F801
:1051E000000902E00020C2F8000900220A614FF61F
:1051F0007F328A6001339DF81C1099420ED904EB6E
:10520000431202F51061D2F800090028EADA002BF7
:10521000E3D14FF00060C2F80009E6E700230AE09E
:10522000BBB14FF09047C2F8007B002202614FF6FD
:105230007F3282600133994210D904EB431202F5A8
:105240003060D2F8007B002FEADB0027C2F8007B39
:10525000EBE74FF00067C2F8007BE6E7DCF81030C0
:1052600023F48073CCF810300023A3616FF08043E7
:1052700063619DF81E301BB9A36943F01003A3615D
:10528000A2690C4B1343A3619DF822301BB1A369A3
:1052900043F00803A361012E04D02846BDE8F8407E
:1052A00004B07047A36943F0804343F00403A36153
:1052B000F3E700BF00383C80D0F8083803F006035D
:1052C000022B04D0062B04D02BB9002070470220FB
:1052D0007047022070470F20704710B591F800C04A
:1052E0004B78012B23D000F5006ED0F81C380CF061
:1052F0000F040122A24043EA0243C0F81C3800EB2D
:105300004C10D0F8003B13F4004F0ED1D0F8003B06
:105310008A68C2F30A02097942EA8142134343F0E0
:10532000805343F40043C0F8003B002010BDD0F888
:105330001C280CF00F0E03FA0EF39BB21343C0F8B7
:105340001C3800EB4C10D0F8003913F4004FECD1AE
:10535000D0F800398A68C2F30A02097942EA814228
:1053600042EA8C52134343F0805343F40043C0F8A5
:105370000039DAE730B40B784A78012A26D000EBFE
:105380004313D3F8002B002A52DBD0F83C480A78AC
:1053900002F00F024FF0010C0CFA02F224EA024272
:1053A000C0F83C28D0F81C28097801F00F010CFA4D
:1053B00001FC22EA0C42C0F81C28D3F8001B234A47
:1053C0000A40C3F8002B002030BC704700EB4313A9
:1053D000D3F80029002A1EDBD0F83C580A7802F0E6
:1053E0000F02012404FA02F292B225EA0202C0F886
:1053F0003C28D0F81C28097801F00F018C40A4B299
:1054000022EA0402C0F81C28D3F80019104A0A4006
:10541000C3F80029D7E7D3F8002942F00062C3F8A7
:105420000029D3F8002942F08042C3F80029D3E7CD
:10543000D3F8002B42F00062C3F8002BD3F8002B06
:1054400042F08042C3F8002B9FE700BF0078F3EFE3
:10545000007833EC10B483B00246002301934878FF
:1054600001280BD00B7802EB4313D3F8000B002874
:105470002DDB002003B05DF8044B70470B7802EB86
:105480004313D3F80049002C01DB0020F2E7D3F8E6
:10549000004944F00064C3F800490B7802EB431361
:1054A000D3F8004944F08044C3F80049019B01331C
:1054B0000193019C42F210739C42DBD80B7802EB03
:1054C0004313D3F80039002BF0DB0020D2E7D3F8E8
:1054D000000B40F00060C3F8000B0B7802EB4313A5
:1054E000D3F8000B40F08040C3F8000B019B013360
:1054F0000193019842F21073984208D80B7802EB9E
:105500004313D3F8003B002BF0DB0020B2E701206F
:10551000B0E710B59DF8084084B903334FEA930E05
:105520004FF0000C08E000EB023303F5805351F814
:10553000044B1C600CF1010CF445F4D3002010BDA9
:10554000F0B583B00C784B78012B2DD000EB441CC8
:105550000CF530631D696FF312051D611D696FF352
:10556000DC451D61002C40F0CE800C690CB18C68CC
:105570000C618C680C621D69C4F312042C431C611D
:105580001C6944F400241C61012A00F0DF800B79BF
:10559000012B00F0E180DCF8003B43F00443CCF841
:1055A000003B002003B0F0BD0B6973BB00EB44135C
:1055B000D3F810596FF3DC45C3F81059D3F81059DC
:1055C00045F40025C3F81059D3F810596FF31205AC
:1055D000C3F81059012A54D000EB4414D4F8003910
:1055E00043F00443C4F800390B79012B72D00B69E6
:1055F000002BD6D0D0F83438097801F00F01012201
:105600008A401343C0F83438CBE700EB441303F56A
:1056100010631D696FF312051D611D696FF3DC4591
:105620001D6184B90E698D68AE4200D90D611D6996
:1056300045F400251D611D690E69C6F3120C45EA8B
:105640000C051D61C6E70D698E683544013DB5FB4B
:10565000F6F51E691FFA85FC494F07EAC545354333
:105660001D610D79012DE6D11D6925F0C0451D6133
:105670001D694FEA4C7C0CF0C04C45EA0C051D61DD
:10568000D9E7CB691BB100EB4412C2F814390B798E
:10569000012B08D000EB4414D4F8003943F0044344
:1056A000C4F800397DE7D0F8083813F4807F08D1BA
:1056B00000EB4412D2F8003943F00053C2F800392D
:1056C000E8E700EB4412D2F8003943F08053C2F807
:1056D0000039DFE7D0F8083813F4807F0CD1D4F814
:1056E000003943F00053C4F8003900920B8A0A785D
:1056F000C968FFF70EFF54E7D4F8003943F0805330
:10570000C4F80039F1E70C6954B91C698D68C5F318
:1057100012052C431C611C6944F400241C6133E70E
:105720008D682C44013CB4FBF5F4A4B204FB05F5F0
:105730000D621D69124E06EAC4442C431C611C69AB
:105740000D6AC5F312052C431C611DE7CA68002AC7
:105750003FF41DAF5A611AE7D0F8083813F4807F80
:1057600006D1DCF8003B43F00053CCF8003B12E7D5
:10577000DCF8003B43F08053CCF8003B0BE700BF64
:105780000000F81F10B5844608464FEA920E02F05A
:105790000302002305E00CF58051096840F8041B62
:1057A00001337345F7D37AB10CF5805CDCF8004027
:1057B0000021CBB2DB0024FA03F300F8013B0131F6
:1057C000013A92B2002AF4D110BD0B784A78012A2E
:1057D00014D000EB4310D0F8002B002A06DB2BB1CD
:1057E000D0F8003B23F08043C0F8003BD0F8003BEA
:1057F00043F40013C0F8003B0020704700EB431057
:10580000D0F80029002A06DB2BB1D0F8003923F0AC
:105810008043C0F80039D0F8003943F40013C0F8D1
:105820000039E9E70B784A78012A0ED000EB4310E3
:10583000D0F8003B23F40013C0F8003B0B79023B87
:10584000DBB2012B15D90020704700EB4310D0F8D4
:10585000003923F40013C0F800390B79023BDBB2A6
:10586000012BF0D8D0F8003943F08053C0F800394C
:10587000E9E7D0F8003B43F08053C0F8003BE2E793
:10588000D0F8003823F4FE63C0F80038D0F80038B0
:10589000090101F4FE610B43C0F800380020704795
:1058A000D0F8003E23F00303C0F8003ED0F80438DF
:1058B00023F00203C0F8043800207047D0F8003EFF
:1058C00023F00303C0F8003ED0F8043843F002038D
:1058D000C0F8043800207047426980691040704762
:1058E000D0F8183800F50060C0691840000C704707
:1058F000D0F8183800F50060C069184080B27047D1
:1059000000EB4111D1F8082B00F500604069104010
:105910007047D0F81028D0F8343801F00F0C23FA73
:105920000CF3DB01DBB2134300EB411000F5106018
:10593000806818407047406900F00100704738B532
:105940000546C36823F0C043C360012913D019BBC7
:10595000C36843F08043C36000240A20FCF78AFD3B
:105960000A342846FFF7E7FF08B1C72CF5D9C82C41
:1059700014D0002038BDC36843F00053C360002436
:105980000A20FCF777FD0A342846FFF7D4FF0128E8
:10599000EDD0C72CF4D9EAE70120EBE70120E9E7D5
:1059A000D0F800396FF30A03C0F80039D0F8043892
:1059B00043F48073C0F804380020704710B4046CBE
:1059C000154B9C4203D9D0F8003B002B16DB00247A
:1059D000C0F8104BD0F8104B44F40024C0F8104B22
:1059E000D0F8104B44F01804C0F8104BD0F8104B0E
:1059F00044F0C044C0F8104B012903D000205DF8EA
:105A0000044B7047C0F8142BD0F8003B43F08023C0
:105A1000C0F8003BF2E700BF0A30544F10B5034610
:105A20000C4A0D490D48006840B10C480068034419
:105A3000521A934206D8094A136010BD0748084C11
:105A40000460F2E703F0E4F80C2303604FF0FF304A
:105A5000F3E700BF0000012000040000D85400203C
:105A6000B8720020034AD2F8883043F47003C2F8B9
:105A70008830704700ED00E000B500F58063D3ED9D
:105A8000006AF4EEC06AF1EE10FA0ADC00F23C4360
:105A9000D3ED006AF4EEC06AF1EE10FA01D4F0EE34
:105AA000406A00F5886393ED007AB4EEE07AF1EE97
:105AB00010FA0ADC00F27C4393ED007AB4EEE07A4F
:105AC000F1EE10FA01D4B0EE607A002301E0013368
:105AD000DBB20E2B0AD803F2011200EB8202D2EDE8
