:020000040800F2
:1000000000000120A9DC0008ED980008F198000824
:1000100055990008579900085999000800000000F8
:100020000000000000000000000000002157000850
:100030005B99000800000000C1570008CD0E0008C1
:10004000F9DC0008F9DC0008F9DC0008F9DC00083C
:10005000F9DC0008F9DC0008F9DC0008F9DC00082C
:10006000F9DC0008F9DC0008F9DC0008F9DC00081C
:10007000F9DC0008F9DC0008F9DC0008F9DC00080C
:10008000F9DC0008F9DC0008F9DC000800000000D9
:100090000000000000000000000000005D99000862
:1000A000F9DC0008F9DC000871990008F9DC0008A7
:1000B00081990008F9DC0008F9DC0008F9DC000887
:1000C000F9DC0008F9DC0008F9DC0008F9DC0008BC
:1000D000F9DC0008F9DC0008F9DC00080000000089
:1000E000F9DC0008F9DC0008F9DC00080000000079
:1000F000000000000000000000000000F9DC000823
:1001000000000000F9DC0008F9DC0008F9DC000858
:1001100000000000000000000000000000000000DF
:1001200095990008F9DC0008F9DC0008F9DC000802
:10013000F9DC0008000000000000000000000000E2
:10014000000000000000000000000000A599000869
:10015000F9DC0008F9DC0008F9DC0008F9DC00082B
:10016000F9DC0008F9DC00080000000000000000D5
:10017000000000000000000000000000000000007F
:1001800000000000F9DC0008000000000000000092
:04019000F9DC00088E
:1001A000034613F8012B002AFBD1181A01387047B7
:1001B00001F0FF01102A2BDB10F0070F08D010F818
:1001C000013B013A8B422DD010F0070F42B3F6D11C
:1001D000F0B441EA012141EA014122F007047FF035
:1001E00000070023F0E80256083C85EA010586EA8C
:1001F000010685FA47F5A3FA87F586FA47F6A5FAC8
:1002000087F68EB9EED1F0BC01F0FF0102F00702D3
:1002100032B110F8013B013A83EA010313B1F8D17E
:100220000020704701387047002D06BF354603385F
:10023000073815F0010F07D1013015F4807F02BF98
:10024000013015F4C03F0130F0BC0138704700BFE9
:1002500081F0004102E000BF83F0004330B54FEA77
:1002600041044FEA430594EA050F08BF90EA020FE4
:100270001FBF54EA000C55EA020C7FEA645C7FEA77
:10028000655C00F0E2804FEA5454D4EB5555B8BF9A
:100290006D420CDD2C4480EA020281EA030382EA0B
:1002A000000083EA010180EA020281EA0303362D9D
:1002B00088BF30BD11F0004F4FEA01314FF4801C70
:1002C0004CEA113102D0404261EB410113F0004F82
:1002D0004FEA03334CEA133302D0524263EB430339
:1002E00094EA050F00F0A780A4F10104D5F1200ED7
:1002F0000DDB02FA0EFC22FA05F2801841F1000132
:1003000003FA0EF2801843FA05F359410EE0A5F105
:1003100020050EF1200E012A03FA0EFC28BF4CF036
:10032000020C43FA05F3C01851EBE37101F00045EC
:1003300007D54FF0000EDCF1000C7EEB00006EEBF9
:100340000101B1F5801F1BD3B1F5001F0CD3490883
:100350005FEA30004FEA3C0C04F101044FEA4452DA
:1003600012F5800F80F09A80BCF1004F08BF5FEA61
:10037000500C50F1000041EB045141EA050130BD41
:100380005FEA4C0C404141EB0101013C28BFB1F553
:10039000801FE9D291F0000F04BF01460020B1FA9E
:1003A00081F308BF2033A3F10B03B3F120020CDA71
:1003B0000C3208DD02F1140CC2F10C0201FA0CF04F
:1003C00021FA02F10CE002F11402D8BFC2F1200CB4
:1003D00001FA02F120FA0CFCDCBF41EA0C0190406A
:1003E000E41AA2BF01EB0451294330BD6FEA0404B3
:1003F0001F3C1CDA0C340EDC04F11404C4F120029E
:1004000020FA04F001FA02F340EA030021FA04F3AF
:1004100045EA030130BDC4F10C04C4F1200220FA06
:1004200002F001FA04F340EA0300294630BD21FA44
:1004300004F0294630BD94F0000F83F4801306BF0A
:1004400081F480110134013D4EE77FEA645C18BFFE
:100450007FEA655C29D094EA050F08BF90EA020F95
:1004600005D054EA000C04BF1946104630BD91EA8D
:10047000030F1EBF0021002030BD5FEA545C05D190
:100480004000494128BF41F0004130BD14F58004CF
:100490003CBF01F5801130BD01F0004545F0FE4143
:1004A00041F470014FF0000030BD7FEA645C1ABF78
:1004B000194610467FEA655C1CBF0B46024650EAAF
:1004C000013406BF52EA033591EA030F41F40021DB
:1004D00030BD00BF90F0000F04BF0021704730B561
:1004E0004FF4806404F132044FF000054FF0000136
:1004F00050E700BF90F0000F04BF0021704730B5F7
:100500004FF4806404F1320410F0004548BF4042CB
:100510004FF000013EE700BF42004FEAE2014FEA20
:1005200031014FEA02701FBF12F07F4393F07F4FFB
:1005300081F06051704732F07F4208BF704793F0FE
:100540007F4F04BF41F40021704730B54FF4607411
:1005500001F0004521F000411CE700BF50EA010214
:1005600008BF704730B54FF000050AE050EA0102BD
:1005700008BF704730B511F0004502D5404261EB2D
:1005800041014FF4806404F132045FEA915C3FF46E
:10059000D8AE4FF003025FEADC0C18BF03325FEA0B
:1005A000DC0C18BF033202EBDC02C2F1200300FABC
:1005B00003FC20FA02F001FA03FE40EA0E0021FAE1
:1005C00002F11444BDE600BF70B54FF0FF0C4CF4CF
:1005D000E06C1CEA11541DBF1CEA135594EA0C0F81
:1005E00095EA0C0F00F0DEF82C4481EA030621EABC
:1005F0004C5123EA4C5350EA013518BF52EA0335F7
:1006000041F4801143F4801338D0A0FB02CE4FF0A8
:100610000005E1FB02E506F00042E0FB03E54FF0D8
:100620000006E1FB03569CF0000F18BF4EF0010ED0
:10063000A4F1FF04B6F5007F64F5407404D25FEACC
:100640004E0E6D4146EB060642EAC62141EA55517F
:100650004FEAC52040EA5E504FEACE2EB4F1FD0CC1
:1006600088BFBCF5E06F1ED8BEF1004F08BF5FEA3F
:10067000500E50F1000041EB045170BD06F00046F1
:1006800046EA010140EA020081EA0301B4EB5C049E
:10069000C2BFD4EB0C0541EA045170BD41F4801196
:1006A0004FF0000E013C00F3AB8014F1360FDEBFBB
:1006B000002001F0004170BDC4F10004203C35DA97
:1006C0000C341BDC04F11404C4F1200500FA05F31A
:1006D00020FA04F001FA05F240EA020001F00042BB
:1006E00021F0004110EBD37021FA04F642EB060131
:1006F0005EEA430E08BF20EAD37070BDC4F10C045B
:10070000C4F1200500FA04F320FA05F001FA04F21E
:1007100040EA020001F0004110EBD37041F100010A
:100720005EEA430E08BF20EAD37070BDC4F1200515
:1007300000FA05F24EEA020E20FA04F301FA05F27D
:1007400043EA020321FA04F001F0004121FA04F225
:1007500020EA020000EBD3705EEA430E08BF20EAF5
:10076000D37070BD94F0000F0FD101F0004640002F
:1007700041EB010111F4801F08BF013CF7D041EAB1
:10078000060195F0000F18BF704703F000465200B5
:1007900043EB030313F4801F08BF013DF7D043EA86
:1007A0000603704794EA0C0F0CEA135518BF95EA3C
:1007B0000C0F0CD050EA410618BF52EA4306D1D1C3
:1007C00081EA030101F000414FF0000070BD50EAE2
:1007D000410606BF1046194652EA430619D094EA6C
:1007E0000C0F02D150EA013613D195EA0C0F05D156
:1007F00052EA03361CBF104619460AD181EA0301AA
:1008000001F0004141F0FE4141F470014FF0000061
:1008100070BD41F0FE4141F4780170BD70B54FF0FC
:10082000FF0C4CF4E06C1CEA11541DBF1CEA13557C
:1008300094EA0C0F95EA0C0F00F0A7F8A4EB05045E
:1008400081EA030E52EA03354FEA013100F0888055
:100850004FEA03334FF0805545EA131343EA12631E
:100860004FEA022245EA111545EA10654FEA0026D3
:100870000EF000419D4208BF964244F1FD0404F58C
:10088000407402D25B084FEA3202B61A65EB0305E8
:100890005B084FEA32024FF480104FF4002CB6EBA5
:1008A000020E75EB030E22BFB61A754640EA0C0025
:1008B0005B084FEA3202B6EB020E75EB030E22BF65
:1008C000B61A754640EA5C005B084FEA3202B6EBA6
:1008D000020E75EB030E22BFB61A754640EA9C0065
:1008E0005B084FEA3202B6EB020E75EB030E22BF35
:1008F000B61A754640EADC0055EA060E18D04FEAF3
:10090000051545EA16754FEA06164FEAC30343EA92
:1009100052734FEAC2025FEA1C1CC0D111F4801F5F
:100920000BD141EA00014FF000004FF0004CB6E758
:1009300011F4801F04BF01430020B4F1FD0C88BFF7
:10094000BCF5E06F3FF6AFAEB5EB030C04BFB6EB02
:10095000020C5FEA500C50F1000041EB045170BDF5
:100960000EF0004E4EEA113114EB5C04C2BFD4EB22
:100970000C0541EA045170BD41F480114FF0000EA6
:10098000013C90E645EA060E8DE60CEA135594EA22
:100990000C0F08BF95EA0C0F3FF43BAF94EA0C0F25
:1009A0000AD150EA01347FF434AF95EA0C0F7FF49A
:1009B00025AF104619462CE795EA0C0F06D152EAEE
:1009C00003353FF4FDAE1046194622E750EA4106D2
:1009D00018BF52EA43067FF4C5AE50EA41047FF4E3
:1009E0000DAF52EA43057FF4EBAE12E74A0011D295
:1009F00012F5001211D20DD56FF47873B3EB625279
:100A00000ED44FEAC12343F0004343EA505323FA84
:100A100002F070474FF00000704750EA013002D1F9
:100A20004FF0FF3070474FF00000704753B94AB99C
:100A3000002908BF00281CBF4FF0FF314FF0FF30E6
:100A400000F00CB8ADF1080C6DE904CE0EF0D0FE4C
:100A5000DDF804E0DDE9022304B07047704700BF11
:100A600010B5054C237833B9044B13B10448AFF3E8
:100A700000800123237010BD5402002000000000FC
:100A8000E8FA000808B5034B1BB103490348AFF36C
:100A9000008008BD0000000058020020E8FA0008AD
:100AA00010B58CB00024089409940A940B94202269
:100AB000214668460DF058F98848894B0360446028
:100AC000846001230361047680F820404FF0805257
:100AD000C2624FF020628262C4600D22C26180F85F
:100AE0003030446105F0E0FF002840F0C1800A2367
:100AF00008930123099304230A9308A9774806F071
:100B0000FDF8002840F0B7800B23089302230993D7
:100B100000230A9308A9714806F0F0F8002840F075
:100B2000AD800C2308930323099308A96B4806F0B2
:100B3000E5F8002840F0A5800D23089304230993CD
:100B400008A9664806F0DAF8002840F09D800023E6
:100B500008930523099308A9604806F0CFF80028F8
:100B600040F09580012308930623099308A95B4868
:100B700006F0C4F8002840F08D8002230893072374
:100B8000099308A9554806F0B9F8002840F0858077
:100B9000032308930823099308A9504806F0AEF8E8
:100BA00000287DD1042308930923099308A94B4801
:100BB00006F0A4F8002876D1052308930A230993A8
:100BC00008A9464806F09AF800286FD10623089332
:100BD0000B23099308A9414806F090F8002868D132
:100BE000072308930C23099308A93C4806F086F8CC
:100BF000002861D10E2308930D23099308A93748D3
:100C000006F07CF800285AD10B23009301220192B0
:100C100004230493002302930793324906918DF82D
:100C200015208DF81430039369462C4806F030F9EE
:100C3000002847D10C2300930223019369462748DB
:100C400006F026F9002840D10D23009303230193D9
:100C50006946224806F01CF9D0BB00230093042308
:100C6000019369461D4806F013F9A0BB0CB010BDF6
:100C700004F09CFB3BE704F099FB45E704F096FB8E
:100C80004FE704F093FB57E704F090FB5FE704F0B5
:100C90008DFB67E704F08AFB6FE704F087FB77E7DB
:100CA00004F084FB7EE704F081FB85E704F07EFB23
:100CB0008CE704F07BFB93E704F078FB9AE704F001
:100CC00075FBA1E704F072FBB4E704F06FFBBBE730
:100CD00004F06CFBC1E704F069FBC7E7D002002019
:100CE0000020014001000F00F0B589B000230393FC
:100CF0000493059306930793026803F1804303F579
:100D000090339A4201D009B0F0BD04460025009509
:100D100003F58C335A6C42F480725A645A6C02F4B4
:100D200080720092009A01951A6B42F004021A63D5
:100D30001A6B02F004020192019A02951A6B42F0BA
:100D400001021A631B6B03F001030293029B1F2332
:100D500003930327049703AE3146154806F014FCAD
:100D6000FF230393049705953146124806F00CFCC7
:100D70001148124B036045608560C5604FF4806385
:100D800003614FF4006343614FF4005383614FF4F8
:100D90008073C3614FF400330362456206F06CFA5E
:100DA00018B9054BA3639C63ADE704F0FFFAF8E7BD
:100DB000000802400000024070020020106402405F
:100DC00008B501F0B7F908BD38B598B10C4689B13E
:100DD000154A106007F022FF00224FF47A7302FBDD
:100DE0000333B0FBF3F3013BB3F5803F06D301328D
:100DF00092B2F2E70D4802F09FFA14E021688A628D
:100E00002268D362E360236800255D636822084995
:100E1000054B186805F074FE204607F0E9FF2946E7
:100E2000204608F04BFB38BDE803002048FB0008D3
:100E30001803002038B50C2805D80546092807D125
:100E40000023194618E00F4802F076FA002017E058
:100E50000920FFF7EFFF40F206339842F0D8002058
:100E60000EE003EB430203EB82022A44064C34F803
:100E7000122011FA82F10133072BF2D9C1F3CF000E
:100E800038BD00BF80FB00081803002008B5FFF73D
:100E9000D1FF07EE900AF8EE677AB1EE047A67EEBA
:100EA000877A9FED047A87EE870ADFED037A30EECA
:100EB000270A08BD00F07F450000000008B50AF0D1
:100EC00068FE10B102684068904708BD08B54FF051
:100ED000E0231B690AF03CF9012800D108BD04F0A9
:100EE000A1FCFBE7EFF305832BB9064B186828B983
:100EF00001221A6070476FF0050070474FF0FF3015
:100F0000704700BFA40A0020EFF3058373B90A4BB2
:100F10001B68012B0DD110B50024084BDC77064B64
:100F200002221A6009F000FE204610BD6FF0050095
:100F300070474FF0FF307047A40A002000ED00E03A
:100F4000F0B587B000240594EFF3058404BBF8B135
:100F5000002A34D0156893692BB11E46013B372B0C
:100F600002D9002015E01826536813F0010F3FD175
:100F7000546984B14FEA940C93682BB1D7685B2F06
:100F800002D9176907B184B943B14FF0FF330BB3EE
:100F9000059807B0F0BD4FF0800CEDE7D368A3B91A
:100FA0001369ABB14FF0FF33F1E70293019700965D
:100FB0000B466246294609F049FD0590E8E71546CB
:100FC000002318264FF0800CE1E74FF0FF33DEE7F7
:100FD0000023DCE705AB019300960B461FFA8CF269
:100FE000294609F06EFD0128D2D000230593CFE7F2
:100FF0000020CEE708B5EFF3058333B908B9002028
:1010000008BD09F0F3FE0020FAE76FF00500F7E7EE
:101010002DE9F04383B0EFF30587002F43D1064657
:10102000894615461C4600283FD0082003F094F856
:10103000804600283BD006604560B9F1000F00D023
:10104000012704B32068A36813B1E2682B2A10D8E3
:1010500053B14FF0FF33DBB10024404603F0FEF8FC
:10106000204603B0BDE8F083E3687BB14FF0FF3367
:10107000F1E701930F4B009343463A4601210AF0F2
:10108000D3FB04460CE020460023E4E70023E2E71C
:10109000084B009343463A4601210AF0A9FB044657
:1010A000002CDDD1D9E70024DAE70024D8E7044694
:1010B000D6E700BFBD0E0008EFF305836BB90A4603
:1010C00070B100B583B0009304210AF0D7FB01286A
:1010D00009D1002003B05DF804FB6FF005007047F4
:1010E0006FF0030070476FF00200F3E708B5EFF30D
:1010F0000583CBB9A0B1836813B1C2681F2A0BD88E
:101100002BB14FF0FF338BB902F084F908BDC368EF
:1011100043B14FF0FF33F6E7184602F056F9F5E712
:101120000023F0E70023EEE70020EFE70020EDE7E3
:10113000F8B110B582B00C46B1F1807F1CD2EFF34C
:1011400005829AB10022019201AA02F081FAB8B197
:10115000019BC3B14FF0E0234FF08052C3F8042D40
:10116000BFF34F8FBFF36F8F204607E002F024FAE2
:1011700004E06FF0030070476FF0030002B010BD91
:101180006FF00200FAE72046F8E770B5B0B10C4600
:101190000646B1F1807F14D2EFF3058353B102F01C
:1011A000FDF905462146304602F0EEF958B96FF0D8
:1011B000020508E002F0C1F9054604E06FF00305FE
:1011C00001E06FF00305284670BD40B370B582B0F2
:1011D0000C461D468446B1F1807F23D2EFF3058390
:1011E00023BB12F0010610D0012312F0020F0ED023
:1011F000002200952146604602F01AF94EB1844360
:1012000012D0B5B16FF001000EE00023EDE701222E
:10121000EFE7044208D17DB16FF0010004E06FF008
:10122000030070476FF0030002B070BD6FF005005F
:10123000FAE76FF00200F7E76FF00200F4E770B52D
:1012400082B0EFF30583002B3AD1144600283BD03F
:1012500000293BD06AB393684BB1D2684F2A06D9B4
:10126000226922B101FB00F56669AE421BD273B15F
:101270004FF0FF3363BB002204F0F5FC054605B3D5
:1012800004B124682146284604F042FF19E0E368CF
:101290008BB9236913B14FF0FF33EBE763696BB18F
:1012A0004FF0FF33E6E70025009504F092FC054679
:1012B000E5E70023DEE74FF0FF33DBE70023D9E764
:1012C0000025284602B070BD0025FAE70025F8E7A2
:1012D0000025F6E710B582B01C46EFF30583C3B1D5
:1012E00018B329B33CBB0023019301AA04F0A3FD6A
:1012F000012823D1019850B14FF0E0234FF08052E4
:10130000C3F8042DBFF34F8FBFF36F8F002002B0DF
:1013100010BDB0B1C1B10023224604F0C8FC0128C1
:1013200015D0B4B16FF00100F1E76FF00300EEE704
:101330006FF00300EBE76FF00300E8E76FF00200E7
:10134000E5E76FF00300E2E76FF00300DFE700205E
:10135000DDE76FF00200DAE710B582B01C46EFF36C
:101360000583C3B110B321B334BB0023019301AA99
:1013700004F077FE012822D1019850B14FF0E0230C
:101380004FF08052C3F8042DBFF34F8FBFF36F8F20
:10139000002002B010BDA8B1B9B1224604F0B2FDE0
:1013A000012815D0B4B16FF00100F2E76FF003002F
:1013B000EFE76FF00300ECE76FF00300E9E76FF091
:1013C0000200E6E76FF00300E3E76FF00300E0E7F9
:1013D0000020DEE76FF00200DBE70000034B036054
:1013E000034B0B6080231360704700BF480A002046
:1013F00048080020034B0360034B0B604FF48073DD
:1014000013607047EC070020EC0300202DE9F04347
:1014100083B00F4615468DF8070096B206F107080F
:101420001FFA88F8013676BA01220DF10701002073
:101430000CF0D2FB2A4639460CF0CEFB040204F431
:101440007F0444EA1064030A03F47F431C4344EA24
:101450000064DFF83090A9F800609DF8073089F843
:1014600002302A46394609F103000CF0B1FC03357D
:1014700049F80540414648460BF09EFB03B0BDE8E5
:10148000F08300BFD00E002038B51446012B07D0E2
:101490004AB901224FF40051074806F060F938BDFF
:1014A000FFF7B4FFF5E7054D28460CF091FCA1B21B
:1014B00028460BF081FBECE700080240D00E00202C
:1014C00030B595B0002208210A20FFF7B8FE1A4B6C
:1014D00018600BAD24242246002128460CF044FC61
:1014E000164B0B934FF400631093282311932A4655
:1014F00000211348FFF724FD02AD224600212846B3
:101500000CF032FC0F4B02934FF400730793182337
:101510000893002401942A4621460B48FFF710FD4A
:101520002046FFF7E3FD094B18602046FFF7DEFD7C
:10153000074B186015B030BDF0120020A0FB00086A
:10154000D5170008ACFB0008ED210008AC0A00200C
:10155000A80A002008B50378433B102B32D8DFE8F7
:1015600003F021313109313129313131313131311A
:10157000193111000023032213491846FFF784FF95
:10158000012020E00023132210491846FFF77CFFBA
:10159000012018E0002313220C491846FFF774FFBE
:1015A000012010E000230122FF211846FFF76CFF05
:1015B000012008E000231A4619461846FFF764FF89
:1015C000012000E0002008BDBCFB0008C0FB0008B3
:1015D00001280DD808B5881841F6ED23984200D9A6
:1015E00008BD0123034801440020FFF74DFFF7E742
:1015F000704700BF9813002030B583B004460D46F5
:10160000FFF7A8FF002840F0C680052D21D8A37859
:10161000423B352B00F2BA80DFE803F09B20B8B0E4
:1016200027B8B82EB8B8B8B8B852B835B83CB8B8BA
:10163000B87BB8B8B8B8B8B8B8B8B8B8B8B8B8B867
:1016400043B8B8B8B861A7B8B8B8B8B859B8B8B856
:10165000B88BAA1FA11C0CF0BFFAD8E701231A46C9
:10166000FF210020FFF710FF95E0012303225249DC
:101670000020FFF709FF8EE001231A4600210846EB
:10168000FFF702FF87E0012313224C490020FFF7F8
:10169000FBFE80E00123142248490020FFF7F4FEFE
:1016A00079E002238DF800300423ADF80130ADF865
:1016B00003300123052269460020FFF7E5FE6AE0BA
:1016C00001237C223E490020FFF7DEFE63E0B4F8F0
:1016D0000520B4F803100020FFF77AFF5BE041F625
:1016E000ED22384900200CF077FA0090030203F451
:1016F0007F0343EA1063020A02F47F42134343EA82
:10170000006300930123042269460020FFF7BCFE1A
:1017100041E0B4F80330B4F80520E11D294818442D
:101720000CF056FB0123002211461046FFF7ACFED9
:1017300031E0B4F80330B4F80520E11D2148184425
:101740000CF046FB0123002211461046FFF79CFED9
:1017500021E001211C4B1868FFF7EAFC012300225D
:1017600011460420FFF790FE15E0E378022B14D019
:10177000032B15D0012B01D10AF074FEB4F803102D
:1017800049BA89B2114B1868FFF7D2FC4FF40051E7
:101790000F4805F0EAFF03B030BD0AF06FFEEDE739
:1017A0000AF076FE014601234FF4FE720020FFF797
:1017B0006BFE0AF057FEE1E7BCFB0008C0FB000827
:1017C0001C13002098130020A80A0020AC0A002057
:1017D0000008024000B583B04FF0FF330022694695
:1017E00005480068FFF7B8FD0028F5D1BDF80410E2
:1017F0000098FFF701FFEFE7F0120020BFF34F8FD3
:101800000549CA6802F4E062044B1343CB60BFF39E
:101810004F8F00BFFDE700BF00ED00E00400FA05B8
:1018200008B50AF097FA094BA3FB00308009084B72
:10183000D86001F017FF4FF40051064805F095FFFE
:101840004FF47A70FFF7D6FBEBE700BFD34D621081
:101850001C1300200008024008B54BE05B7D07EE3A
:10186000903AF8EE677A85E05B7D07EE903AF8EE05
:10187000677A4A4BC3ED197A494A9168494B03F597
:10188000ED6000680860916803F26C700068486061
:10189000916803F5EE6000688860926803F27471E5
:1018A0000968916103F5EF610968D16103F27C7108
:1018B0000968D1603C4A916803F608000068086036
:1018C000916803F60C0000684860916803F50160B8
:1018D00000688860926803F614010968916103F654
:1018E00018010968D16103F61C031B68D36001204D
:1018F000FFF780FB2D4D284604F0A6FC274C84ED15
:101900000A0A2B4804F0A0FC84ED0B0A284604F0D8
:10191000A5FC84ED0C0A274804F002FE84ED0E0AB3
:101920004FF07E53E36404F06DFF84ED100A04F081
:10193000A9FE84ED110A04F0D9FD84ED0D0A04F02E
:10194000ADFF84ED120A04F0CFFF84ED150A02F01A
:1019500017FF84ED090A124B5A69A2655B681A7D6C
:10196000002A3FF47BAF5B7D07EE903AF8EE677A92
:10197000F1EE677A094AC2ED187A0B4B5969D165C5
:101980005B681A7D002A3FF46FAF5B7D07EE903AEB
:10199000F8EE677AF1EE677A6BE700BF1C13002060
:1019A0004C2F0020982300200C2F00201C0000202A
:1019B000000000200413002008B56420FFF71AFB84
:1019C000054B064A02213C200AF06CFD044B93EDC6
:1019D000000A0AF087FDF9E7E1C00008B1BF00087E
:1019E0000013002038B52DED028B002438E007EEFF
:1019F000901AB8EE677AF2EE0E7AC7EE276A9FED7C
:101A0000E07A26EE077A27EE267AF3EE047A37EEAE
:101A1000277ADC4B01EB041203EB820080ED007AA5
:101A200002F5907003EB800080ED007A68EE277A73
:101A3000B2EE047A77EE877A66EE876A77EEE67A18
:101A400002F5107003EB8000C0ED007A02F55872C9
:101A500003EB8203C3ED007A01310F29C7D90134AA
:101A60000F2C17D807EE904AB8EE677AF2EE0E7A8E
:101A700087EE278A9FEDC40A28EE000A0CF05CFE70
:101A8000DFEDC27A20EE276ADFEDC17A36EE276AF3
:101A90000021E2E7002222E041F2707302FB03F32F
:101AA0001B0907EE903AF8EE677AB64B02F58071A3
:101AB00003EB8101C1ED007A02F5087103EB8101AE
:101AC000C1ED007A02F5507103EB8101C1ED007A9E
:101AD00002F58C6103EB8103C3ED007A01320F2A1A
:101AE000DAD9002325E007EE903AF8EE677A9FED09
:101AF000A97A67EE877A9FEDA87A67EE877AA14A7E
:101B000003F5887102EB8101C1ED007A03F50C71D8
:101B100002EB8101C1ED007A03F5547102EB810102
:101B2000C1ED007A03F58E6102EB8102C2ED007A0D
:101B300001330F2BD7D9934A02F5805302F5B451E4
:101B40009648086003F284614FF08240086003F514
:101B5000D161B2EE0E7A81ED007A03F28C61904889
:101B6000086003F2C4618F48086002F5B6518E48E0
:101B7000086003F5D2618D4C0C60012183F8D71AFF
:101B800003F29464206003F5D364894D256003F269
:101B90009C654FF07C542C6002F5B555DFF838C2D7
:101BA000C5F800C003F2A465DFF830C2C5F800C074
:101BB00003F5D565DFF828C2C5F800C003F2B465A7
:101BC000DFF820C2C5F800C003F5D765286003F52B
:101BD000D960784D056003F2CC60774D056003F560
:101BE000DA60F2EE047AC0ED007A03F2D4600460A9
:101BF00003F5DB60714C046003F2DC60DFF8E8E1C0
:101C0000C0F800E002F5B7556D48286003F2E465BE
:101C10002C6003F5ED6484ED007A03F26C74C4ED7E
:101C2000007A03F5EE65674C2C6003F27475C5F815
:101C300000E003F5EF65286003F27C752C6002F587
:101C4000BC55DFF8A8C1C5F800C003F28475C5F81B
:101C500000C003F6080585ED007A03F60C05C5ED16
:101C6000007A03F501652C6003F61405C5F800E061
:101C700003F6180ECEF8000003F61C0ECEF8004056
:101C800002F5C152504C146003F62402C2F800C0A1
:101C900003F628024D4C146003F62C02106003F585
:101CA00003644B4A226003F63404DFF844C1C4F8ED
:101CB00000C003F63804206003F63C00026040F6E2
:101CC000B832A3F8C02A4FF4FA70A3F8C20A4FF44E
:101CD0001660A3F8C40AA3F8C62A40F2A460A3F8C9
:101CE000C80AA3F8CA2AA3F8CC0A002283F8CE2A8D
:101CF00083F8CF2A83F8D02A83F8D11A83F8D22A1E
:101D000083F8D32A83F8D41A022083F8D50A83F8FB
:101D1000D60A83F8D81A032083F8D90A83F8DA2A76
:101D200083F8DB2A83F8DE2A83F8DF2A83F8E02AA7
:101D300083F8E10A83F8E22A83F8E32A83F8E42AA5
:101D400083F8E51A83F8E62A83F8E72A83F8E82A75
:101D500083F8E92A83F8EA2A83F8EB1A83F8EC1A65
:101D600083F8DC2A83F8DD2A03F2AC62194911609A
:101D700003F5D6634FF080421A60BDEC028B38BD8C
:101D800000008C4298130020D00F4940CDCC4C3F2E
:101D9000CDCC4C3E0000F0420000803D0000C84326
:101DA0000000E4420000AF430000A04100002040DA
:101DB00000C05A450080BB4400805444CDCCCC3D8B
:101DC0000000C8420AD7233C000048420000DC4221
:101DD0000000BE429A9909410000F04100004041D4
:101DE000333363410000A0400000C8C200007042CD
:101DF0000000B44208B500F087FD08BD2DE9F041B0
:101E00009EB07C220021A7480BF0AEFFA64C41F605
:101E1000ED252A46002120460BF0A6FF2946204644
:101E200000F052FD002800F00081FFF7E3FF9F481B
:101E300009F044FF9E499F48FEF7C6FF9E4B93F86A
:101E4000D43A002B40F0F7809B4C94F8D00A0AF06B
:101E50004BF894F8DE1A994804F030FC94F8DF1A35
:101E6000974804F077FB974D94F8E01A284604F061
:101E700091FA2946944801F087FC02F0E5FA02F055
:101E8000EFFF4FF4FA70FFF7B5F894F8E53A002B3E
:101E900034D094F8E73A002B00F0D58044F6206364
:101EA000009308230C228949894800F067FC894C7B
:101EB000204603F049FB16230193874B0093844B84
:101EC000814A2146854800F033FD7B4B93F8E93A7F
:101ED000002B40F0C280814C814B93ED000A2046DC
:101EE00000F060FD0023224601217E48FFF790F8B4
:101EF0007D4B186010B10121FFF7DEF86E4B93F8AF
:101F0000E63A2BB96C4B93F8CF3A0BB1022B43D185
:101F1000694B93F8E83A002B00F0AA8044F620635E
:101F20000093002304226949704800F027FC704C9C
:101F3000204603F009FB172301936E4B00936B4B74
:101F40006D4A21466D4800F0F3FC5B4B93F8EA3A8A
:101F5000002B40F09780694C9FED690A204600F005
:101F600021FD0023224601215E48FFF751F8654B11
:101F7000186010B10121FFF79FF8604801F05AFE88
:101F800000231A4601216048FFF742F85F4B1860B2
:101F900010B10121FFF790F8474B93F8E53A002B79
:101FA0007BD1FFF78DFA15AD242422460021284667
:101FB0000BF0DAFE564B15934FF400731A9330234F
:101FC0001B930DEB03072246002138460BF0CCFE95
:101FD000504B0C934FF48078CDF84480202312931B
:101FE00003AE2246002130460BF0BEFE4A4B03935F
:101FF000CDF8208018230993002402943A46214604
:102000004648FEF79DFF0290324621464448FEF7BF
:1020100097FF02902A4621464248FEF791FF424B25
:1020200001221A701EB0BDE8F081FFF7DBFC3F48CB
:1020300001F082F9F9E63E49A1F6D32393F8D20ADA
:1020400009F09CFF00E744F6206300930C2308226C
:102050001E491F4800F092FB29E7134B03F5BC52C1
:10206000D2ED000A92ED010A1C4801F043F932E773
:1020700044F6206300930423002214491B4800F017
:102080007DFB54E7084B03F5C152D2ED000A92EDF7
:10209000010A1A4801F02EF95DE7104801F002FF2D
:1020A0007FE700BF1C130020981300204874002015
:1020B000B8730020D002002098230020A02E00201A
:1020C000882E0020041300201C0000200074002033
:1020D000342F002038000020802A00204C2F0020C0
:1020E000202A0020D5290008FC120020F42E002010
:1020F000B82E0020202B0020000000200C2F0020F4
:1021000000000000F8120020513C0008F4120020EA
:10211000ECFB0008F8FB000804FC00085918000854
:1021200021180008B9190008852E0020D4FB0008EA
:102130006B2E00200E4B1B7803B9704710B509F0C9
:10214000FFFD044601460B4804F092F821460A4878
:1021500004F08EF8204604F04FF904F057FA04F02A
:1021600015FB204604F06AFB04F09EFB10BD00BF87
:10217000852E00201C0000200000002010B52DED51
:10218000028B09F0A1FFB0EE408A09F097FFF0EE54
:10219000408A09F0D5FD0446F0EE680AB0EE480A20
:1021A00002F06AFB2046F0EE680AB0EE480A02F040
:1021B00059FFBDEC028B10BD08B500BFB0F5807FA4
:1021C00003D0B0F5007F03D008BD09F089FFFBE71D
:1021D0004FF40071044805F0BBFA003818BF012025
:1021E00009F0E6FEF0E700BF0004024008B522E077
:1021F000FFF704FB684B93F8E53AB3B1674800F08A
:102200001BFE12E0644B93F8E63A73B1644800F0A9
:1022100013FE0AE0634A518A5F4BA3F8C81A118A79
:10222000A3F8C61A127E83F8DA2A4FF6FF715E4BC6
:102230001868FEF7AAFF4FF0FF3300224FF6FF7138
:1022400059480068FEF7C1FF01381C28EDD801A3EA
:1022500053F820F0F1210008F521000805220008BC
:1022600015220008C9220008E1220008E722000820
:10227000ED220008F9220008052300082B2200089F
:10228000112300081923000821230008292300082E
:10229000312300083923000841230008492300089E
:1022A000512300085B230008632300086D23000806
:1022B0002B2200082B220008752300087F2300082A
:1022C0008723000891230008384A518A324BA3F82B
:1022D000CC1A118AA3F8CA1A127E83F8DB2AA4E763
:1022E0000AF0F4F8A1E70AF0F7F89EE7304B314A1C
:1022F0001A600AF0EBF898E72D4B2F4A1A600AF0A3
:10230000E5F892E72A4B2D4A1A600AF0DFF88CE7CD
:102310002B4803F0F5F888E72A4803F0F1F884E742
:10232000294803F0EDF880E7284803F0E9F87CE756
:10233000274803F0F7F878E7264803F0F3F874E746
:10234000254803F0EFF870E7244803F0EBF86CE75A
:102350000121234803F0A8F867E7214803F0BBF800
:1023600063E701211F4803F09FF85EE71D4803F073
:10237000B2F85AE701211C4803F096F855E71A48CD
:1023800003F0A9F851E70121184803F08DF84CE754
:10239000164803F0A0F848E7982300204C2F0020AF
:1023A0000C2F00201C000020AC0A002000000020A0
:1023B000001300200000C84200007A430000FA43E6
:1023C0007800002084000020900000209C00002065
:1023D000A8000020B4000020C0000020CC00002095
:1023E000E4000020D8000020FC000020F0000020C5
:1023F00008B50548054B036004F0B2FE00B908BDFE
:1024000002F0D4FFFBE700BF742F00200030024031
:102410000268094B9A4200D0704782B000230193B2
:10242000064B1A6B42F480521A631B6B03F4805301
:102430000193019B02B07047003002400038024017
:10244000002800F038812DE9F8430D461646044671
:102450000768002F52D01046FEF74CF896A3D3E938
:102460000023FEF7DBF9804689463F68F86AFEF7ED
:1024700031F842464B46FEF7A7F8FEF7B7FAFDB132
:10248000012D79D06368002B40F0CF807B63A36877
:10249000002B40F0D78023681B6800225A63E36852
:1024A000002B40F0E28023681B6800225A632369F6
:1024B000002B40F0ED8023681B6800225A631BE06C
:1024C000E3686BB122695AB1042B19D0082B1AD0DA
:1024D00000233B642369CBB923681B68DA6A5A631B
:1024E000A36833BB23681B6800225A636368002B10
:1024F00032D123681B68586366752575BDE8F8837B
:102500000023BB63E6E70023FB63E3E7042B06D06D
:10251000082B09D023681B68DA6A1A64E0E723688D
:102520001B68DA6A9A63DBE723681B68DA6ADA6396
:10253000D6E7042B06D0082B09D023681B6800229D
:102540001A64D3E723681B6800229A63CEE72368E6
:102550001B680022DA63C9E7042B05D0082B07D0DB
:1025600023681B681864C7E723681B689863C3E780
:1025700023681B68D863BFE7E3686BB123695BB16D
:10258000042B16D0082B17D000233B64E368B3B9A3
:1025900023681B68DA6A5A6363681BBB23681B687D
:1025A00000225A63A368002B2FD123681B6858634D
:1025B000A2E70023BB63E9E70023FB63E6E7042B04
:1025C00006D0082B09D023681B68DA6A1A64E3E78F
:1025D00023681B68DA6A9A63DEE723681B68DA6A95
:1025E000DA63D9E7042B06D0082B09D023681B68CF
:1025F00000221A64D6E723681B6800229A63D1E799
:1026000023681B680022DA63CCE7042B05D0082B73
:1026100007D023681B6818646EE723681B689863FB
:102620006AE723681B68D86366E7042B04D0082B8D
:1026300005D000233B642AE70023BB6327E7002380
:10264000FB6324E7042B06D0082B09D023681B6802
:1026500000221A6423E723681B6800229A631EE79E
:1026600023681B680022DA6319E7042B06D0082BC5
:1026700009D023681B6800221A6418E723681B68C6
:1026800000229A6313E723681B680022DA630EE7CF
:10269000042B06D0082B09D023681B6800221A647B
:1026A0002AE723681B6800229A6325E723681B68D2
:1026B0000022DA6320E770470000000000E06F406E
:1026C000034678B102686AB1416861B91268516322
:1026D0009A68C2B91A6812680021516300225A75BB
:1026E00002229A757047042905D0082907D012687C
:1026F00000211164ECE7126800219163E8E7126899
:102700000021D163E4E7042A06D0082A09D01A6818
:10271000126800211164E1E71A68126800219163D0
:10272000DCE71A6812680021D163D7E738B505469F
:1027300099B10C4644F62063994200D91C4606F034
:1027400063F9002202FB0443B0FBF3F3013BB3F552
:10275000803F05D3013292B2F4E7FFF7B1FF0CE0FE
:10276000296809688A622A681268D3622A68D36075
:102770006A7D297D2846FFF763FE38BD00284FD0CB
:1027800010B5044629B30160426083600023C36032
:10279000036103758375084606F02AFBBDF808102F
:1027A0002046FFF7C3FF6368A3B923681B680022B4
:1027B0005A63A3680BBB23681B6800225A636168D5
:1027C000206806F097FFA168206806F093FF0023B9
:1027D000637510BD042B06D0082B09D023681B6835
:1027E00000221A64E5E723681B6800229A63E0E789
:1027F00023681B680022DA63DBE7042B06D0082B72
:1028000009D023681B6800221A64D8E723681B6874
:1028100000229A63D3E723681B680022DA63CEE7BD
:102820007047034688B102687AB1817D01290CD9CD
:10283000416859B9126851639A68BAB91A6812683E
:102840000021516300225A759A757047042905D0FA
:10285000082907D0126800211164EDE712680021F1
:102860009163E9E712680021D163E5E7042A06D005
:10287000082A09D01A68126800211164E2E71A6870
:10288000126800219163DDE71A6812680021D163A4
:10289000D8E7000000B583B000220192094B196B04
:1028A00041F4800119631B6B03F480030193019BC6
:1028B0000721382004F040FC382004F04DFC03B020
:1028C0005DF804FB003802400246B8B1C1B10D4BBF
:1028D00001205874052018744FF40030986000F1FE
:1028E0000060D860B1F5003F03D90020586018603F
:1028F0007047044B59601A600120704700207047F0
:10290000002070477C2F0020084B1A680AB1002372
:1029100006E070470549C968C95C02F8011B01332C
:10292000024949689942F5D8704700BF7C2F0020C2
:1029300010B5029C9DF80CE020B3844612B30BB393
:1029400004B38160C26043600023436104610F4BA4
:102950004B6183680E4A1A6183680E4ADA618368A4
:102960000D4A9A6180F800E0BEF11F0F06D80B49AE
:102970000B68012202FA0EF213430B6000238CF85D
:10298000253002E0064800F0D7FC10BD00007F4370
:1029900000007FC300007A4300007AC31C130020AC
:1029A00014FC0008B5EEC00AF1EE10FA09D4DFED10
:1029B000077AB4EEE70AF1EE10FA04DDB0EE670A2A
:1029C00001E09FED030A80ED050A70470000C84250
:1029D0000000000070B52DED028B82B088B3044674
:1029E000836873B3C06860B3636853B394F82550C9
:1029F00055BB03F029FCB0EE408AB4EE400AF1EE7C
:102A000010FA25D684ED060A94ED050AA06802F0B6
:102A1000A4FD94ED050A206907F07AFEF0EE408AE5
:102A2000DFEDC37AB4EEE70AF1EE10FA21DBDFED59
:102A3000C17AB4EEE70AF1EE10FA69D9DFEDBE8A89
:102A400019E0BE4800F078FC02B0BDEC028B70BD0E
:102A500023781F2B07D8BA480268012101FA03F333
:102A600022EA03020260002211466068FFF7E8FCD8
:102A7000EAE7DFEDB18AA66809F062F90146B0EE37
:102A8000480A304602F06CFD30EE280ADFEDA87AE5
:102A9000B4EEE70AF1EE10FA3CD59FEDA50AB5EECB
:102AA000C00AF1EE10FAD4BF0121002194F82430BD
:102AB000002B50D0002D66D0DFEDA27A78EE677A39
:102AC000F5EEC07AF1EE10FA00F1D7809FED9E7A14
:102AD000F4EEC77AF1EE10FA4CBF01230023002B6D
:102AE00000F0EF80DFED927AB4EEE70AF1EE10FA33
:102AF00040F1CD806068B0EE670AB1EE400AFCEEAE
:102B0000C07ACDED017A9DF80420FFF799FC9BE790
:102B10000125B0E7A66809F013F90146B0EE480AAE
:102B2000304602F01DFD30EE280ADFED827AB4EE69
:102B3000E70AF1EE10FA02DD9FED7E0AAFE7A66824
:102B400009F0FEF80146B0EE480A304602F008FDF2
:102B500030EE280AA3E76068B5EEC00AF1EE10FA7D
:102B600008D4FCEEC07ACDED017A9DF80420FFF781
:102B700067FC69E7B1EE400AFCEEC07ACDED017A60
:102B80009DF80420F3E7DFED6F7A78EE677AF5EED3
:102B9000C07AF1EE10FA1ED49FED6B7AF4EEC77A8C
:102BA000F1EE10FA4CBF0123002393B3DFED607AFE
:102BB000B4EEE70AF1EE10FA17D56068B0EE670AD6
:102BC000B1EE400AFCEEC07ACDED017A9DF804200A
:102BD000FFF736FC38E79FED5D7AF4EEC77AF1EE49
:102BE00010FACCBF01230023DFE7D4ED087AF4EE1E
:102BF000C07AF1EE10FA3AD46068B5EEC00AF1EE90
:102C000010FADDD4FCEEC07ACDED017A9DF80420F7
:102C1000DEE7B5EEC08AF1EE10FA1ED4DFED4A7A97
:102C2000B4EEE78AF1EE10FA4CBF01230023002B2B
:102C3000E2D0D4ED077AF1EE677AF4EEC07AF1EEE5
:102C400010FA17DCDFED3B7AB4EEE70AF1EE10FA8A
:102C5000D2DD6068B0EE670AD4E7DFED3C7AB4EE0F
:102C6000E78AF1EE10FACCBF01230023DFE7B0EED4
:102C7000670AC1E7B0EE670ABEE79FED347AF4EE6B
:102C8000C77AF1EE10FACCBF0123002327E72369AE
:102C9000D3ED0F7AB1EE047A77EE877AF4EEC07A4C
:102CA000F1EE10FA3ED46068B5EEC00AF1EE10FA0B
:102CB0003FF523AFFCEEC07ACDED017A9DF80420FC
:102CC00023E7B5EEC08AF1EE10FA21D4DFED1E7ACB
:102CD000B4EEE78AF1EE10FA4CBF01230023002B7B
:102CE000E1D02369D3ED007AB1EE047A77EEC77AAA
:102CF000F4EEC07AF1EE10FA17DCDFED0E7AB4EEE6
:102D0000E70AF1EE10FACEDD6068B0EE670AD1E7AF
:102D1000DFED0E7AB4EEE78AF1EE10FACCBF0123B4
:102D20000023DCE7B0EE670ABDE7B0EE670ABAE75A
:102D300000007FC300007F430000000034FC000857
:102D40001C1300200000C842CDCC4C3FCDCC4CBF62
:102D5000002380F82530704738B50446002510E080
:102D6000642200216068FFF76BFB0320FEF742F945
:102D7000002201216068FFF763FB0320FEF73AF9A8
:102D80000135202DECD9002510E064220021606877
:102D9000FFF756FB0220FEF72DF932220121606871
:102DA000FFF74EFB0220FEF725F90135312DECD956
:102DB000002510E0642200216068FFF741FB01203C
:102DC000FEF718F9322201216068FFF739FB012074
:102DD000FEF710F90135632DECD900221146606829
:102DE000FFF72EFB38BD70B50546002616E06422BD
:102DF00000216868FFF724FB0120FEF7FBF8322270
:102E000001216868FFF71CFB0120FEF7F3F801348D
:102E1000C72CECD96420FEF7EDF80136012E01D85D
:102E20000024F5E7002211466868FFF709FB00233C
:102E300085F8253070BD00002DE9F04F2DED028B97
:102E400087B0B0B104466420FEF7D4F803F04CFD1F
:102E5000F2EE067AB4EEE70AF1EE10FA0DD4A94BC1
:102E600093F87830009363B107B0BDEC028BBDE8F6
:102E7000F08FA54800F060FAF6E7A44800F05CFA8D
:102E8000F2E7012384F8253003F02EFD9FEDA07AB0
:102E9000C7EE007A9FED9F7A27EE877ABCEEC77A5D
:102EA0008DED017A9DF804709FED9B7A67EE877A2D
:102EB000FCEEE77A17EE906A5FFA86F90025ADF826
:102EC0001650ADF81450ADF8125000230393C6F31A
:102ED0004606DDF80080AA46AB4607E0187DFDF700
:102EE000A9FF18E0B2460AF10A060546B14524D901
:102EF000F2B201216068FFF7A3FA9620FEF77AF894
:102F0000E3681A7E002AE9D0187DFDF793FFC0F52B
:102F10007F600F3080B22D1A0135022DE2D808F102
:102F200001085FFA88F88344B8F1180FDBD9BBFBBE
:102F3000F8FB1FFA8BFBADF816B06068FFF7C0FB1B
:102F40004FF49670FEF756F8E3681A7EAAB1187D22
:102F5000FDF770FFC0F57F600F3080B2ADF8120052
:102F60006068FFF75EFC7E08DDF800A04FF0000807
:102F7000C346CDF80480454611E0187DFDF75AFFA1
:102F8000ECE7187DFDF756FF1EE0B046A7F10A03F7
:102F9000434501D80123019308F10A060546B742CB
:102FA00024D9F2B200216068FFF74AFA9620FEF7B2
:102FB00021F8E3681A7E002AE3D0187DFDF73AFF76
:102FC000C0F57F600F3080B22D1A0135022DDCD89C
:102FD0000AF1010A5FFA8AFA8344BAF1180FD5D9C7
:102FE000BBFBFAFB1FFA8BFBADF814B000221146B5
:102FF0006068FFF725FA40F2DC50FDF7FBFF019B0C
:103000007BB9E368BDF816205A82E368BDF8142046
:103010001A822046FFF7A0FEE06803F015F90023AE
:1030200015E02046FFF7DFFE1EE707EE903AF8EEC8
:10303000677AB4EE007A67EE877A226967EE807A63
:1030400003F1100102EB8102C2ED007A01330F2B74
:103050001BD8082BE9D9A3F1080207EE102AB8EE15
:10306000477AF1EE0C6AC7EE267A9FED2C7A37EE9E
:10307000407A67EE877A226977EE807A03F1100151
:1030800002EB8102C2ED007AE0E72369D3ED107A0A
:10309000B6EE007A77EE877AC3ED107A2369D3ED26
:1030A0001F7A77EEC77AC3ED1F7A009E0025DFED09
:1030B0001C8AA846AA4650E0002DCCBF0021012161
:1030C000606815F1310F0ADA164B83FB0523EA1706
:1030D000A2EB2312D2B2FFF7B3F9009E47E0114BE7
:1030E00083FB0523EA17C2EB2312D2B2F3E7BEEE4D
:1030F000007AB4EEC70AF1EE10FACCBF0123002328
:1031000059E000BF1C13002058FC00087CFC00089C
:103110009A99494100002043000034430000C8420E
:10312000000000001F85EB514FF00008C2466F49B8
:1031300081FB0531EB17C3EB21139A4408F1010819
:103140009AFBF8F307EE103AB8EEC77A02EB80026A
:1031500082ED007AF0EE678A013D6FF0310303FBE8
:1031600009F3AB4231DA312EA6D80136F6B201208E
:10317000FDF740FFE06803F067F8B0EE408A206991
:10318000102140300AF044FD226900F1100302EBE7
:103190008303D3ED007A38EE670AB5EEC00AF1EE8C
:1031A00010FAA4D4B6EE007AB4EEC70AF1EE10FA23
:1031B0004CBF01230023002BCED0F4EE678AF1EE42
:1031C00010FAB1D1F0EE687AB1E7009E0025DFED8C
:1031D000488AA846A9463AE0002DCCBF002101212B
:1031E000606815F1310F0ADA404B83FB0523EA17BB
:1031F000A2EB2312D2B2FFF723F9009E30E03B4B43
:1032000083FB0523EA17C2EB2312D2B2F3E7BEEE2B
:10321000007AB4EEC70AF1EE10FACCBF0123002306
:1032200042E0324981FB0531EB17C3EB211399448E
:1032300008F10108072809D999FBF8F307EE903A3D
:10324000F8EEE77A02EB8002C2ED007A0135322314
:1032500007FB03F3AB4234DD312EBDD80136F6B2A5
:103260000120FDF7C7FEE06802F0EEFFB0EE408AF5
:103270002069102140300AF0CBFC226900F11003D4
:1032800002EB8303D3ED007A38EE670AB5EEC00A8D
:10329000F1EE10FABBD4B6EE007AB4EEC70AF1EE46
:1032A00010FA4CBF01230023002BCFD0F4EE678A25
:1032B000F1EE10FAB5D0F0EE678A4FF00008C14683
:1032C000AFE7002211466068FFF7BAF84FF47A7052
:1032D000FDF790FE2046FFF73FFD2046FFF738FD43
:1032E0004FF47A70FDF786FEBEE500BF1F85EB51F7
:1032F00000000000C0B1012280F824209FED0B6A7D
:1033000020EE060ADFED0A6AC0EE267A9FED097A02
:1033100077EE877AC0ED077A60EE860AC0EEA67A6D
:1033200077EE877AC0ED087A704700BF00007F43D0
:103330000000C84200000000C0B170B59AB0064657
:1033400001AC64252A46002120460AF00DFD3346D3
:10335000074A294620460AF0D1FC2046FCF720FF08
:1033600081B2204609F028FC1AB070BD704700BF3A
:10337000A0FC0008C0B170B59AB0064601AC642547
:103380002A46002120460AF0EFFC3346074A294628
:1033900020460AF0B3FC2046FCF702FF81B220462B
:1033A00009F00AFC1AB070BD704700BFACFC000801
:1033B0001AB9084205D110467047814303D0002056
:1033C0007047012070470120704780B110B582B06E
:1033D000044620230193019B202B11D04FF0500372
:1033E00083F31188BFF36F8FBFF34F8FFEE74FF06A
:1033F000500383F31188BFF36F8FBFF34F8FFEE746
:10340000002340F8043B01F07FFF0123237720468F
:1034100002B010BD38B5202000F09EFE044628B151
:10342000002540F8045B01F06FFF2577204638BD8A
:1034300088B12DE9F0410C4616461D460746B1F10C
:10344000807F11D34FF0500383F31188BFF36F8F48
:10345000BFF34F8FFEE74FF0500383F31188BFF3A4
:103460006F8FBFF34F8FFEE741B94FF0500383F3E7
:103470001188BFF36F8FBFF34F8FFEE707F068FE31
:1034800050B9069B43B14FF0500383F31188BFF34B
:103490006F8FBFF34F8FFEE707F092FBD7F80080E6
:1034A0002A4621464046FFF783FFF8B18EB328EA4B
:1034B00004033B600023069307F01CFC069B93B1BA
:1034C00048B94FF0E0234FF08052C3F8042DBFF30A
:1034D0004F8FBFF36F8F07F093FE804610F0007F91
:1034E0001AD028F07F484046BDE8F081069B002BAB
:1034F000E2D05EB900210DB141F08061069A21430E
:10350000381D07F0FDFC4FF00008D5E74FF0807143
:10351000F1E700230693CFE702F014F9D7F8008013
:103520002A4621464046FFF743FF18B116B128EA64
:1035300004043C6002F028F9D3E770B170B50C4682
:103540000546B1F1807F11D34FF0500383F311880A
:10355000BFF36F8FBFF34F8FFEE74FF0500383F33E
:103560001188BFF36F8FBFF34F8FFEE702F0EAF8C9
:103570002E6826EA04042C6002F006F9304670BD7D
:1035800008B5FFF7DAFF08BD08B50A460023014673
:10359000014808F011FB08BD81350008EFF31183E5
:1035A0004FF0500282F31188BFF36F8FBFF34F8F3C
:1035B000006883F311887047F8B568B10D4604467A
:1035C000B1F1807F11D34FF0500383F31188BFF323
:1035D0006F8FBFF34F8FFEE74FF0500383F31188D7
:1035E000BFF36F8FBFF34F8FFEE700F10C0607F0BC
:1035F000E7FA206923682B43236000270AE021684B
:1036000032EA010105D111E0216841F0007107F0B3
:1036100005FD2846B0420ED04568036823F07F427E
:1036200013F0806FEBD121681142F2D013F0807F4C
:10363000EAD01743E8E7236823EA0703236007F08B
:1036400059FB2068F8BD08B5FFF7B6FF08BD0000BC
:1036500008B513460A460146014808F0ADFA08BD10
:103660004736000838B503F0CDF8274B93F8EB3A0E
:103670005BB1254BD3F8303807EE903AF4EEC07AC0
:10368000F1EE10FA12D5012200E000221E4B93F851
:10369000EC3A6BB11C4BD3F8383807EE903AF4EEA5
:1036A000C07AF1EE10FA1FD5012502E00022EDE705
:1036B0000025164B5C8814F0010417D114462146EE
:1036C000134801F0E3FE9CB1104A136843F0400335
:1036D000136029460F4801F0D9FE7DB10B4A1368EB
:1036E00043F08003136038BD0025E2E72546E6E796
:1036F000064A136823F040031360EAE7034A13689D
:1037000023F080031360EEE7982300201C130020B1
:10371000E4000020D800002008B508F051FF642024
:10372000FDF768FC0120FDF765FCFBE708B5FEF737
:1037300065FB6420FDF75EFCFBE7000008B50A4A64
:1037400000210A48FDF7FCFB094B1860094A0021DB
:103750000948FDF7F5FB094B18600948FDF7C6FC61
:10376000084B186008BD00BFAC00010819370008FD
:10377000B82F0020880001082D370008B42F002042
:1037800078000108B02F002020B119B1024A106062
:10379000024B1960704700BFC02F0020BC2F0020D3
:1037A00010B52DED068B08F089FCB0EE409A02F0C2
:1037B0009DFEF0EE409A02F065FFB0EE408A404B6D
:1037C00093F8CF3A012B35D0022B3DD0002B6BD193
:1037D000F0EE690AB0EE490A3A4806F0D3FEB0EEC0
:1037E000407A374BB3F8C43A07EE903AF8EE677A6E
:1037F00067EEA97A67EE897ADFED336A27EE260A4B
:1038000067EE807A9FED317A67EE877A9FED307AA6
:1038100067EE877A9FED2F7A38EE078A9FED2E7A32
:1038200028EE078A87EE880A2C4B83ED1A0ABDEC36
:10383000068B10BDF0EE690AB0EE490A284806F082
:10384000A1FEB0EE407ACCE708F038FCF0EE408AFA
:1038500002F04CFEF0EE400A224CB0EE680A204620
:1038600006F090FEB0EE40AAA4F59054F0EE690A7E
:10387000B0EE490A204606F085FEDFED137A2AEE07
:1038800027AA60EE0A8AF0EE690AB0EE490A04F54A
:10389000906006F077FEF7EE007A77EECA7A20EEB7
:1038A000270A38EE807A9CE70F48FFF763FD0B4A42
:1038B000136843F0010313609FED0C7A91E700BF9A
:1038C00098230020981300200AD7233CB5B7E7417E
:1038D0006F12833A33938843136F79441C1300208B
:1038E0001818002098250020E4FC000800000000C3
:1038F00010B52DED028BFFF753FFB0EE408A4D4B14
:1039000093F8CF3A012B0ED0022B26D0002B43D0B8
:103910004948FFF72FFD494A136843F0010313603C
:10392000DFED478A06E0434BD3F8A83607EE903A1E
:10393000C0EE278A414B1B6813F4005F2FD1414B27
:103940001868002872D002F089FC3F4806F0E0FEBB
:10395000DFED3B7A30EE278A23E008F0AFFBF0EE94
:10396000408A02F0C3FDF0EE400A384CB0EE680A1F
:10397000204606F007FED4F8A83407EE903AC8EEC9
:10398000278ADFED337A20EE270AF7EE007A77EE0A
:10399000C07A68EEA78ACDE7DFED298ACAE79FEDF6
:1039A000288A264B1B6813F4004F09D1294B18684D
:1039B00030B102F0B5FD284806F0AAFE38EE008AC4
:1039C000DFED267AB4EEE78AF1EE10FA0EDBDFEDDA
:1039D000247AB4EEE78AF1EE10FA07D828EE888A46
:1039E0009FED207AC8EE077A78EEA78A02F00AFFE8
:1039F0001D4806F08DFEDFED1D7AB4EEE70AF1EE0C
:103A000010FA0EDBDFED1A7AB4EEE70AF1EE10FAE7
:103A100007D89FED147AC0EE077A67EEA87A78EEA1
:103A2000A78AB0EE680ABDEC028B10BD9FED048A38
:103A3000B7E700BF98230020E4FC00081C13002017
:103A400000000000C02F0020D82B00209825002067
:103A50000AD7233CBC2F0020582C0020000048C46B
:103A6000000048440000C842D82D00200000FAC3DE
:103A70000000FA4308B52DED028BFFF739FFB0EED9
:103A8000408A08F01BFB9FED047AC0EE077A88EEAF
:103A9000270ABDEC028B08BD0000F04210B52DEDE9
:103AA000028BFFF77DFE534B93F8CF3A012B44D0A6
:103AB000B0EE408A022B1AD0A3BB4E4BD3F8A436EB
:103AC00007EE903AC0EE278A4B4B1B6813F4005F59
:103AD00036D14A4B186800285ED002F0BFFB484838
:103AE00006F016FEDFED477A30EE278A2AE008F06E
:103AF000E5FAF0EE408A02F0F9FCF0EE400A424CA2
:103B0000B0EE680A204606F03DFDD4F8A43407EE76
:103B1000903AC8EE278ADFED3D7A20EE270A68EE5C
:103B2000808AD1E73A48FFF725FC334A136843F00F
:103B300001031360DFED338AC6E7DFED328AC3E7A6
:103B40009FED308A2C4B1B6813F4004F09D1314B89
:103B5000186830B102F0E4FC2F4806F0D9FD38EEC9
:103B6000008ADFED2E7AB4EEE78AF1EE10FA16DB6A
:103B7000DFED2B7AB4EEE78AF1EE10FA36D868EE74
:103B8000886A9FED287AC6EE877A78EEA78ADFEDFD
:103B90001D7A38EE278A04E09FED1A8AD2E79FED5E
:103BA000198A02F02FFE204806F0B2FDDFED1F7AE1
:103BB000B4EEE70AF1EE10FA10DBDFED1D7AB4EE99
:103BC000E70AF1EE10FA09D89FED167AC0EE077AEF
:103BD00067EEA87A78EEA78A38EE008A064B83ED66
:103BE0001B8AB0EE680ABDEC028B10BD9FED058A02
:103BF000D7E700BF982300201C130020C02F00200F
:103C0000D82B002000000000982500200AD7233C74
:103C1000E4FC0008BC2F0020582C0020000048C401
:103C2000000048440000C842582D00200000FAC39C
:103C30000000FA4308B510B1034A106008BD0348FC
:103C4000FFF77AFBFAE700BFC42F0020F8FC00085A
:103C500008B52DED028B454B1B68002B78D0FFF784
:103C60001DFFB0EE408A08F06BF8414BD3F8B43634
:103C700007EE903A9FED3F7A67EE877AFCEEE77A9F
:103C800017EE903A984226D3DFED3B7AB4EEE78AFE
:103C9000F1EE10FA5FDD364BD3F8AC2607EE902A32
:103CA000C8EE277AD3F8B03607EE103A27EE870A27
:103CB000F6EE007A20EE270AB5EEC00AF1EE10FA11
:103CC0001BD4F7EE007AB4EEE70AF1EE10FA16DD37
:103CD000B0EE670A13E008F0DFFB0028D4D1244BD4
:103CE000D3F8B83608EE103A012001F001FC234A5F
:103CF000136843F48063136024E09FED210A0AF007
:103D0000B7FCDFED207A80EE278ADFED1F7A28EE00
:103D1000278AB5EEC08AF1EE10FA09D4DFED1B7ADE
:103D2000B4EEE78AF1EE10FA04DDB0EE678A01E046
:103D30009FED138A012001F0DBFB104A136843F466
:103D400080631360B0EE480A084B1868FEF72AFE3D
:103D5000BDEC028B08BD002001F0CAFB074A1368C6
:103D600023F4806313609FED068AEBE7C42F0020E5
:103D70009823002000247449CDCCCC3D1C13002096
:103D800000000000DB0F4940000048430000C8422B
:103D900070B52DED028B3B4B1B68002B45D03A4A8A
:103DA000D2F8D016394B1960D2F8D4165960D2F82F
:103DB000D8169960D2F8DC169961D2F8E016D9616C
:103DC000D2F8E426DA60324B93F87830032B30D007
:103DD0002D4AD2F8883608EE103A2D4B002183F890
:103DE0007910D2F8CC26DA61B0EE480A254B186873
:103DF000FEF7D8FD274BD3ED007A78EE677AF5EE23
:103E0000C07AF1EE10FA33D49FED237AF4EEC77A3C
:103E1000F1EE10FACCBF0123002303B100BF1D4B0C
:103E200083ED008ABDEC028B70BD1C48FFF784FA5D
:103E3000F8E7174C022384F87930134DD5F8C836CB
:103E400000EE103A114E304601F087FB08F036F9CB
:103E5000B0EE408A07F074FF0146B0EE480A3046E3
:103E600001F07EFBB0EE408AD5F8C836E361BBE7CF
:103E70009FED0B7AF4EEC77AF1EE10FA4CBF0123F6
:103E80000023CAE70830002098230020CC2F002010
:103E90001C130020C82F00200000A04214FD0008C1
:103EA0000000A0C230B587B0002832D01B4A106095
:103EB0001B4D284601F048FB1A4B6B6100232B6118
:103EC0006946002400940194029403940494059498
:103ED000154BD3F8D0260092D3F8D4260192D3F80C
:103EE000D8260292D3F8DC260392D3F8E026049277
:103EF000D3F8E4360593284601F0AEFB234622466C
:103F000001210A48FDF784F80121FDF7D5F807B033
:103F100030BD0748FFF710FAF9E700BF083000206E
:103F2000CC2F00200000C84298230020913D0008BB
:103F300028FD00082DE9F0478AB005AD002405945E
:103F4000069407940894099400944C4B1A6B42F021
:103F500004021A631A6B02F004020092009A0194A0
:103F60001A6B42F080021A631A6B02F0800201920F
:103F7000019A02941A6B42F001021A631A6B02F062
:103F800001020292029A03941A6B42F002021A632F
:103F90001A6B02F002020392039A04941A6B42F025
:103FA00008021A631B6B03F008030493049BDFF8F9
:103FB000D4A022464FF47051504603F0D0FB304F4E
:103FC00022464FF23F41384603F0C9FBDFF8B88084
:103FD00022464FF40741404603F0C1FBDFF8AC90A6
:103FE00022460421484603F0BAFB4FF47053059370
:103FF00001260696079408942946504603F0C4FA11
:104000004FF23F4305930696079408942946384695
:1040100003F0BAFA4FF4E063059306960794089408
:104020002946404603F0B0FA4FF400430593069644
:10403000079408962946404603F0A6FA0423059300
:104040000696079408942946484603F09DFA4FF4D3
:10405000407305934FF48813069307942946384616
:1040600003F092FA22460521172003F065F8172085
:1040700003F072F80AB0BDE8F08700BF00380240D4
:10408000000402400008024000000240000C024010
:10409000124A12F0070F1ED0D11D21F00701C1F501
:1040A000705313440A460E480260002141601344D5
:1040B000083B23F007030B48036059601960991A05
:1040C00051601360084B1960084B1960084B4FF0A2
:1040D00000421A6070474FF47053E4E72C30002020
:1040E0002430002020300020183000201C30002018
:1040F0000C300020164B1A461B688342FBD35168D4
:1041000002EB010C844509D0416800EB010C6345CA
:1041100009D00360904219D0106070474068014494
:1041200051601046F0E710B40A4C2468A3420BD04B
:104130005B681944416013681B680360904200D0BB
:1041400010605DF8044B70470460F7E7704700BFEC
:10415000243000202030002038B5044606F030FD21
:10416000384B1B68B3B1384B1B681C4250D1002C34
:1041700050D004F1080214F0070F02D022F0070219
:104180000832002A55D0314B1B68934253D3304933
:104190000C6804E0FFF77CFFE5E721461C466368F6
:1041A000934202D22368002BF7D1264B1B68A3420F
:1041B00043D00D68083523680B6063689B1A102B89
:1041C00010D9A01810F0070F08D04FF0500383F358
:1041D0001188BFF36F8FBFF34F8FFEE743606260BC
:1041E000FFF788FF626819490B689B1A0B60194931
:1041F00009688B4201D217490B60134B1B681343AC
:10420000636000232360144A13680133136002E0E3
:10421000002500E0002506F06DFD15F0070F0ED01B
:104220004FF0500383F31188BFF36F8FBFF34F8FAD
:10423000FEE70025EFE70025EDE70025EBE7284640
:1042400038BD00BF203000200C3000201C30002082
:10425000243000201830002014300020002834D0F2
:1042600038B50446A0F1080550F8043C174A126816
:10427000134208D14FF0500383F31188BFF36F8FBF
:10428000BFF34F8FFEE750F8081C41B14FF05003C9
:1042900083F31188BFF36F8FBFF34F8FFEE723EADD
:1042A000020340F8043C06F08BFC54F8041C084A56
:1042B00013680B4413602846FFF71CFF054A136878
:1042C0000133136006F016FD38BD70470C30002036
:1042D0001C3000201030002008B50B480B4B036049
:1042E0000B4B436000238360C3604FF48042026144
:1042F00043618361C361036203F04EFA00B908BDF4
:1043000001F054F8FBE700BF2C6C00200054004083
:10431000A086010030B589B0002303930493059370
:10432000069307930268144B9A4201D009B030BD3E
:1043300000250195114C236B43F002032363236B8B
:1043400003F002030193019BC02303931223049300
:10435000032306930423079303A9094803F014F9E0
:104360000295236C43F400132364236C03F40013BD
:104370000293029BDAE700BF00540040003802407D
:1043800000040240A0B110B50446836833B1012295
:104390009988186803F0E3F902232375E36833B1C1
:1043A00001229988186803F0DAF90223237510BDF9
:1043B0007047A0B110B50446836833B100229988D4
:1043C000186803F0CCF903232375E36833B10022A6
:1043D0009988186803F0C3F90323237510BD70474B
:1043E00038B500240BE02846FFF7E3FF124A1368B4
:1043F00043F4802313601148FEF79EFF0134104BF5
:104400001B78A34217D904EB44030E4D05EBC305FB
:104410002B7D022BF2D107F093FC6B68C01A07EEDC
:10442000900AF8EEE77AB7EE007AF4EEC77AF1EE8A
:1044300010FAE3DDD7E738BD1C13002040FD00086B
:10444000416D0020806C002008B5754B93F8CE3A82
:104450009BB1012B61D07348FEF76EFF724B1B7846
:10446000002B40F0C480714A136843F4802313602A
:1044700043F001031360002008BD6B4B04221A7047
:10448000674B93F8D63A013B032BE7D8DFE803F0FC
:10449000020E1B2E664B674A9A601A6200221A614E
:1044A000654A9A62654B02221A70D7E7604B002278
:1044B0001A61614A9A625F4A9A600C321A625F4BD3
:1044C00002221A70CAE75A4B00221A615A4A9A62AB
:1044D000584A9A6002F12401D96002F10C01196274
:1044E00018325A62554B02221A70B7E7504B00221D
:1044F0001A61514A1A64524A9A65524A9A624D4A5E
:104500009A6002F10C01196202F1180199632432D8
:104510001A654A4B04221A70A0E7434B06221A7010
:104520003F4B93F8D63A013B032B97D8DFE803F0D3
:10453000021141233E4B00221A61434A9A62434AC8
:104540001A643C4A9A601A629A633C4B03221A70BE
:1045500084E7374B00221A613B4A9A623B4A1A644D
:10456000344A9A6002F10C01196218329A63334B93
:1045700003221A7072E72A4B022283F8D62A2B4AAA
:10458000136843F480231360294B00221A612E4ADA
:104590009A622E4A1A64274A9A6002F10C01196243
:1045A00018329A63254B03221A702948FEF7C4FE7D
:1045B00054E71B4B022283F8D62A1C4A136843F4A3
:1045C000802313601A4B00221A611F4A9A621F4A05
:1045D0001A64184A9A6002F10C01196218329A633F
:1045E000164B03221A701A48FEF7A6FE36E707EEAE
:1045F000903AF8EE677ADFED176A86EEA77A0B4BF2
:1046000083ED087A00231A4601211348FCF700FDC8
:1046100010B10121FCF750FD0120104B18702BE761
:1046200098230020A4FD0008426D00201C130020E8
:10463000806C00207800002000003443416D002091
:104640000000B443000007440000F0420000704343
:104650005CFD000800003444E1430008436D002085
:1046600008B5134B00221A70124B93F8CE3A2BB1B7
:10467000012B1BD01048FEF75FFE17E00F4B002206
:104680001A610F4A1A640F4A9A650F4A9A620F4AD2
:104690009A6002F10C01196202F118019963243247
:1046A0001A6504230A4A13700A4A137008BD00BF32
:1046B000406D002098230020A4FD0008806C00209D
:1046C000000034430000B443000007447800002099
:1046D000416D0020426D002008B5114B01221A7077
:1046E000104B93F8CE3A2BB1934218D00E48FEF7F8
:1046F00023FE14E00D4B00221A610D4A9A620D4A06
:104700009A6002F12401D96002F10C011962183299
:104710005A62094B02221A70084B04221A7008BD13
:10472000406D002098230020A4FD0008806C00202C
:104730000000344378000020416D0020426D0020CD
:10474000C0B110B5044607F0FBFA03462268121AFE
:10475000002A0EDB6068C31A002B0ADB01232375D5
:104760002246054907F03CFB22460449206807F031
:1047700037FB10BD704700BFB343000885430008F6
:1047800008B52DED028B07F099FCB0EE408A01F0E0
:10479000ADFE344B93F8D73A002B4BD0314BD3F8C6
:1047A000943608EE903A02F02DF82F4805F0B0FF4D
:1047B000FAEE0E7AB4EEE70AF1EE10FA08DBF2EE4A
:1047C0000E7AB4EEE70AF1EE10FA01D878EE808A9C
:1047D000244BB3F8C03A07EE903AF8EE677AF4EE5D
:1047E000C87AF1EE10FA20D81E4BB3F8C23A07EEA1
:1047F000103AB8EE477A37EE877AB4EEC87AF1EE1F
:1048000010FA12DBF4EE477AF1EE10FA27D038EE08
:10481000678ADFED166A76EEE86A28EE268A37EEBA
:10482000677AC8EE077A78EEA78AB0EE680ABDEC20
:10483000028B08BD0E4B93F87830032B05D0094B43
:10484000D3F8843608EE903AADE7F0EE400AB0EEC9
:10485000480A084805F096FEF0EE408AA3E7DFED2F
:10486000038AE2E798230020D82C002000000000F3
:104870001C130020981C00202DE9F8432DED088B17
:10488000864B93F8D63A002B40D0B0EE409AF0EE2B
:10489000608A0646824B1B78C3B3824B1B68C3F306
:1048A000C00713F0080F31D07C4AD2F8902607EEEB
:1048B000902AB6EE007AF4EEC77AF1EE10FA06DB33
:1048C000B1EE007AF4EEC77AF1EE10FA22D9B6EE24
:1048D000007AF4EEC77AF1EE10FA09D4B1EE007A5C
:1048E000F4EEC77AF1EE10FA04DDF0EE477A01E05B
:1048F000F6EE007A17EE902A6849C1F8902643F444
:104900008023684A13606848FEF716FDBDEC088BEB
:10491000BDE8F883FFF734FFF0EE409AB5EEC00A29
:10492000F1EE10FA09D4DFED617AB4EEE70AF1EEA8
:1049300010FA04DDF0EE679A01E0DFED5D9A594B65
:10494000C3ED099A01F0D0FFF2EE0C7A87EE807A7F
:10495000524BD3F8903607EE903A67EE877AB6EE70
:10496000007AF4EEC77AF1EE10FA09D4B1EE007ACB
:10497000F4EEC77AF1EE10FA04DDF0EE477A01E0CA
:10498000F6EE007A474BC3ED1C7A1B68C3F30014A4
:10499000424A92F8D62A042A0BD0002400BF3F4B8B
:1049A00093F8D63A042B15D0B0EE49AA002700247C
:1049B00024E04CB943F004033A4A13603D48FEF743
:1049C000BBFCFFF789FEE9E7FFF74AFE07F070FB43
:1049D0000446E3E7384B1B7853B907EE904AB8EE2C
:1049E00067AADFED397A2AEE27AA3AEE09AADEE7AE
:1049F000B0EE49AA0027DAE77FB101342F4B1B78CC
:104A0000A34283D904EB44032D4D05EBC3052B7D55
:104A1000002BF1D0032BEFD0EFE707F05BFB04EBAB
:104A20004402274B03EBC203D3ED047A37EEE9BA15
:104A300003E0DFED257A3BEE27BAB5EEC0BAF1EE22
:104A400010FAF6D403E0DFED207A3BEE67BADFED33
:104A50001E7AB4EEE7BAF1EE10FAF4DAF5EE408A17
:104A6000F1EE10FA0DD068EEA77A9FED167AC7EE38
:104A700087AA0C4B93ED1C8A28EE2A8A3BEE488AC3
:104A800006E0DFED0BAAF4E7DFED0F7A38EE278AB8
:104A9000B5EEC08AF1EE10FAF6D41DE0982300209E
:104AA000436D00201C130020D0FD000800002042B0
:104AB00000000000F0FD0008406D0020416D002066
:104AC000806C002000606A470000B443C0E1644C81
:104AD0005FED037A38EE678A5FED057AB4EEE78A18
:104AE000F1EE10FAF4DAB0EE481AF0EE490A09F0E5
:104AF0004DF8002881D17BEE4A7AF5EEC07AF1EECE
:104B000010FA61D4F5EEC08AF1EE10FA61D9F5EE33
:104B1000C07AF1EE10FA5ED95FED156A68EEA66A0A
:104B20001FED166A86EE267A67EE277AFCEEE77AA4
:104B300017EE903A334404EB4401544A02EBC102AD
:104B4000536038EE4A8AB5EEC08AF1EE10FA44D4CA
:104B5000F5EEC08AF1EE10FA44D9B5EEC08AF1EE56
:104B600010FA41D99FED4A7A28EE877ADFED496A3B
:104B7000C6EE877A67EE887AFCEEE77A17EE903A0F
:104B8000334404EB4402414941F832302846FFF7F0
:104B9000D7FD414B93F8D83A4BB33F4BD3F89836F7
:104BA00007EE903AF4EEE87AF1EE10FA1EDD3A4B99
:104BB00093F8D63A012B23D0374B93F8D93A012BEF
:104BC00020D9013BDBB212E09FED317A77EE877A94
:104BD00098E70023AEE70023ACE7DFED2D7A38EE4F
:104BE000278AB5E70023CBE70023C9E70023022B80
:104BF00028BF022398464FF001099FED288A27E03D
:104C00000023F4E70023F2E7204904EB440001EB22
:104C1000C0025368DFED226A27EE267ABCEEC77A1F
:104C200017EE10CA634441F8303067EEA67AFCEE06
:104C3000E77A17EE901A0B44536009F101095FFA05
:104C400089F92846FFF77CFD08F1FF385FFA88F8FC
:104C5000B8F1000F16D0104BD3F89C2607EE102A9F
:104C6000104AD2ED1C7A77EE276A66EEAA6A38EE11
:104C7000268AD3F8A03606EE903AF4EEC86AF1EE32
:104C800010FAC1D5074B83F87A90B6E6806C002005
:104C90000000B443C0E1644C9823002000000000F1
:104CA00000007A441C13002008B5104B01221A7032
:104CB0000F4B93F8CE3A2BB1934215D00D48FEF727
:104CC0003BFB11E00C4B00221A610C4A9A620C4A21
:104CD0009A6002F12401D96002F10C0119621832C4
:104CE0005A62084B02221A7008BD00BF446D0020B2
:104CF0009823002020FE0008486D00200000344367
:104D0000A8000020476D002008B5124B00221A7041
:104D1000114B93F8CE3A2BB1012B19D00F48FEF767
:104D20000BFB15E00E4B0F4A1A610F4A1A64002262
:104D30009A650E4A9A620E4A9A6002F10C01196253
:104D400002F11801996324321A650A4B04221A7081
:104D500008BD00BF446D00209823002020FE0008FD
:104D6000486D00200000B4430000074400003443B5
:104D7000A8000020476D002080B110B5044680686F
:104D800020B1002100F082FB03232375E06820B1ED
:104D9000002100F07BFB0323237510BD704700004A
:104DA00038B5002400E001340F4B1B78A34219D919
:104DB00004EB44030D4D05EBC3052B7D022BF2D113
:104DC00006F0BEFF6B68C01A0028ECDD2846FFF72E
:104DD000D3FF074A136843F4002313600548FEF726
:104DE000ABFAE0E738BD00BF476D0020486D0020FA
:104DF0001C1300204CFE000880B110B504468068EA
:104E000020B1012100F042FB02232375E06820B1AC
:104E1000012100F03BFB0223237510BD7047000009
:104E2000C0B110B5044606F08BFF03462268121A83
:104E3000002A0EDB6068C31A002B0ADB01232375EE
:104E40002246054906F0CCFF22460449206806F0B8
:104E5000C7FF10BD704700BF794D0008F94D00082D
:104E600008B55A4B93F8D53A002B00F0AD80574A5D
:104E700092F8CE2A9AB1012A50D05548FEF75CFA32
:104E8000544B1B78002B40F09180534A136843F435
:104E90008023136043F001031360002095E04F4A24
:104EA00004211170022B0FD0032B20D0012BE7D14E
:104EB0004B4B4C4A9A601A6200221A614A4A9A6223
:104EC000444B02221A70DBE7454B00221A61464A26
:104ED0009A62444A9A6002F12401D96002F10C01FD
:104EE000196218325A623B4B02221A70C8E73C4BD7
:104EF0003E4A1A613E4A1A6400229A653A4A9A6208
:104F0000384A9A6002F10C01196202F118019963A2
:104F100024321A652F4B04221A70B1E72F4A06215A
:104F20001170022B12D0032B22D0012BA8D12C4BB5
:104F300000221A612F4A9A622F4A1A64294A9A60FB
:104F40001A629A63234B03221A7099E7244B0022BA
:104F50001A61284A9A62284A1A64224A9A6002F11F
:104F60000C01196218329A631A4B03221A7087E7F0
:104F7000164B022283F8D52A174A136843F40023FC
:104F80001360174B00221A611A4A9A621A4A1A646D
:104F9000144A9A6002F10C01196218329A630D4B9F
:104FA00003221A701548FEF7C7F969E700231A466D
:104FB00001211348FCF72CF810B10121FCF77CF813
:104FC0000120104B187000E0012008BD982300203C
:104FD00020FE0008476D00201C130020466D0020B5
:104FE000486D0020A8000020000034430000B443B6
:104FF000000007440000F0420000704368FE000813
:10500000A14D0008456D002008B5FEF733FDDFED2A
:105010000F7A80EE277A0E4BD3F8C43607EE903A1B
:10502000C7EE277A9FED0B7A67EE877A9FED0A7AB3
:1050300067EE877A094B1B7807EE103AB8EE477A8D
:1050400087EE870A064B83ED1D0A08BDCDCC2C3FA9
:10505000982300200000704200007A44466D002032
:105060001C130020F8B52DED088B9A4B93F8D53A18
:10507000002B00F02C81B0EE409AF0EE608A0546DD
:10508000954A1278002A00F02281944A1278002A68
:1050900000F01D81924A1268C2F3C00612F0080F98
:1050A00000F015818B49D1F8C0160AEE101AB5EE42
:1050B000C0AAF1EE10FA09D4DFED8A7AB4EEE7AABD
:1050C000F1EE10FA04DDB0EE67AA01E09FED86AACA
:1050D000C2F30014032B0BD0002400BF7D4B93F8C8
:1050E000D53A032B15D0F0EE499A0026002424E08F
:1050F0004CB942F004027A4B1A607C48FEF71CF966
:10510000FFF7D2FDE9E7FFF7FFFD06F0D1FF044608
:10511000E3E7774B1B7853B907EE904AF8EE679AAE
:10512000DFED747A69EEA79A79EE899ADEE7F0EE00
:10513000499A0026DAE786B101346F4B1B78A34207
:1051400040F2C58004EB44036C4F07EBC3073B7D83
:10515000032BF0D0002BEED0EEE706F0BBFFB0EE55
:1051600040BA04EB4402654B03EBC203D3ED047A6F
:1051700077EECAAA03E0DFED5F7A7AEEA7AAF5EE32
:10518000C0AAF1EE10FAF6D403E0DFED5A7A7AEE17
:10519000E7AADFED587AF4EEE7AAF1EE10FAF4DAB6
:1051A000F5EE408AF1EE10FA0CD068EEA77A9FED8A
:1051B000547A87EE878AFFF727FF20EE088A3AEEB7
:1051C000C88A06E09FED488AF5E7DFED4A7A38EEB7
:1051D000278AB5EEC08AF1EE10FAF6D403E0DFEDCF
:1051E000457A38EE678ADFED437AB4EEE78AF1EE6E
:1051F00010FAF4DAB0EE481AF0EE490AB0EE4B0AB3
:1052000008F0C4FC002897D17AEEE97AF5EEC07A6E
:10521000F1EE10FA49D4F5EEC08AF1EE10FA49D950
:10522000F5EEC07AF1EE10FA46D9DFED326A68EE9B
:10523000A66A9FED346A86EE267A67EE277AFCEE40
:10524000E77A17EE903AE81838EE698AB5EEC08A28
:10525000F1EE10FA32D4F5EEC08AF1EE10FA32D93E
:10526000B5EEC08AF1EE10FA2FD99FED227A28EE22
:10527000877ADFED246AC6EE877A67EE887AFCEEDD
:10528000E77A17EE902AA9189B1A312B7FF654AFB4
:105290001A4B04EB440203EBC20CCCF8040043F8B5
:1052A00032103846FFF7BCFD46E79FED127A77EEE5
:1052B000877AB0E70023C6E70023C4E7DFED0D7A65
:1052C00038EE278AC7E70022DDE70022DBE7BDECE6
:1052D000088BF8BD98230020456D00207400002045
:1052E0001C1300200000344300000000B8FE00083A
:1052F000446D00200000B443476D0020486D00203D
:1053000000606A47C0E1644C00F1080343604FF05D
:10531000FF328260C3600361002303607047002393
:105320000361704743684B609A688A605160996076
:105330000861036801330360704730B40D68B5F14C
:10534000FF3F11D000F108031C465B681A68AA42AF
:10535000FAD963684B6099608C606160086103688A
:105360000133036030BC70470469F2E703694168A8
:1053700082688A60416851605A68824206D0002281
:1053800002611A68013A1A601868704782685A60A8
:10539000F5E7000008B50268034B9A4200D008BD4B
:1053A00001F0C2FAFBE700BF0048014072B6FEE719
:1053B00010B594B008AC30220021204608F0D4FC8F
:1053C00000230393049305930693079301931F4AC5
:1053D000116C41F080511164126C02F08052019204
:1053E000019A02931A490A6822F4404242F40042A8
:1053F0000A600A6802F440420292029A022208926B
:1054000001210B9110210C910E920F930823109300
:10541000C0221192062212921393204603F0F8F84C
:1054200078B90F23039302210491002305934FF4CD
:1054300080520692079303A803F03AFB18B914B000
:1054400010BDFFF7B3FFFFF7B1FF00BF0038024008
:105450000070004008B501F04DFAFFF7A9FFFEF714
:1054600069FDFDF717FA06F08BF8FBF719FB05F05D
:105470006BFFFCF7BDFFFEF72FFF05F0B7FFFBF753
:1054800031FDFEF75BF9FBF73FFDFEE758B108B5CC
:1054900072B6027A0AB162B608BD0A46818800680F
:1054A00002F05DF9F7E77047A0B138B50D46044644
:1054B00072B68188006802F04BF9003818BF0120ED
:1054C0006072012323722A46A188206802F047F9FE
:1054D00062B638BD704750B108B572B6002202728C
:1054E000427A8188006802F03AF962B608BD7047D6
:1054F00008B501460148FFF7C9FF08BDF0000020CC
:1055000078B110B504460121FFF7CEFF0320FBF769
:1055100071FD2046FFF7DFFF00212046FFF7B6FFB1
:1055200010BD704778B110B504460121FFF7BCFFEC
:105530000A20FBF75FFD2046FFF7CDFF0021204644
:10554000FFF7A4FF10BD704700230362436283622C
:10555000C362002202638363704780ED0D0A7047C7
:10556000036BCB1A07EE903AF8EE677A9FED397A23
:10557000C7EE876A90ED0D6A36EE406AD0ED005AAC
:1055800065EE865A90ED087AD0ED017AB6EE005AB3
:1055900067EE857A67EEA67A90ED0A5A35EE065ADE
:1055A00067EE857A77EE277AC0ED087A90ED077A74
:1055B000F4EEC77AF1EE10FA38DD80ED087AD0ED1E
:1055C000027A77EEA77A90ED0B7A30EE477A67EEA3
:1055D000877A90ED037A37EE077A37EE665AD0ED88
:1055E000094A25EE245A77EE857AF1EE677A37EE8E
:1055F000267AC7EE876AC0ED096AD0ED087A77EEA1
:10560000A57A76EEA77AC0ED0E7A90ED057AF4EEE3
:10561000C77AF1EE10FA13DD80ED0E7A80ED0A6A9A
:1056200080ED0B0A016390ED0E0A704790ED067A4B
:10563000F4EEC77AF1EE10FAC1D580ED087ABEE734
:1056400090ED047AF4EEC77AF1EE10FAE6D580ED2B
:105650000E7AE3E70024744958B10A6802604A6888
:1056600042608A688260CA6882610A69C2614A6966
:10567000C260704782B0002301930D4B1B68B3F1E9
:10568000FF3F08D04FF0500383F31188BFF36F8FB3
:10569000BFF34F8FFEE74FF0500383F31188BFF342
:1056A0006F8FBFF34F8F019B002BFCD002B0704770
:1056B0000801002008480068006880F308884FF05F
:1056C000000080F3148862B661B6BFF34F8FBFF35A
:1056D0006F8F00DF00BF000008ED00E0DFF80C0076
:1056E000016841F4700101607047000088ED00E03E
:1056F0004FF0807340F8043C21F0010140F8081C91
:10570000054B40F80C3C40F8202C6FF0020340F8A9
:10571000243C4438704700BF755600080000000064
:10572000074B19680868B0E8F04F80F30988BFF3A9
:105730006F8F4FF0000080F311887047AFF3008047
:10574000B47300204FF0500383F31188BFF36F8FC1
:10575000BFF34F8F0B4A136801331360012B00D046
:1057600070474FF0E023D3F8043D13F0FF0FF7D05C
:105770004FF0500383F31188BFF36F8FBFF34F8F48
:10578000FEE700BF08010020094B1B6843B94FF03A
:10579000500383F31188BFF36F8FBFF34F8FFEE782
:1057A000013B034A13600BB983F31188704700BFB4
:1057B00008010020000000000000000000000000C0
:1057C000EFF30980BFF36F8F154B1A681EF0100FAF
:1057D00008BF20ED108A20E9F04F10602DE9090084
:1057E0004FF0500080F31188BFF34F8FBFF36F8FDE
:1057F00005F022FB4FF0000080F3118809BC196806
:105800000868B0E8F04F1EF0100F08BFB0EC108A27
:1058100080F30988BFF36F8F704700BFAFF300803C
:10582000B473002008B54FF0500383F31188BFF321
:105830006F8FBFF34F8F05F0D1F928B14FF0E02300
:105840004FF08052C3F8042D002383F3118808BD64
:105850004FF0E022002313619361054B1B6805495B
:10586000A1FB03139B09013B53610723136170479D
:1058700014010020D34D62104FF0E023D3F8002D27
:105880003D4B9A421CD04FF0E023D3F8002D3B4B08
:105890009A421ED030B583B0394B1A78D2B20192F9
:1058A000FF221A701B78DBB28DF803309DF80330AD
:1058B00003F05003334A1370334B07221A601BE086
:1058C0004FF0500383F31188BFF36F8FBFF34F8FF7
:1058D000FEE74FF0500383F31188BFF36F8FBFF3E0
:1058E0004F8FFEE7284A1368013B13609DF8033091
:1058F0005B00DBB28DF803309DF8033013F0800FAE
:10590000F0D1214B1B68032B08D04FF0500383F3D9
:105910001188BFF36F8FBFF34F8FFEE71B021A4A48
:10592000136003F4E0631360019BDBB2144A13704D
:105930004FF0E024D4F8203D43F47003C4F8203D38
:10594000D4F8203D43F07043C4F8203DFFF780FFBA
:1059500000250E4B1D60FFF7C1FED4F8343F43F025
:105960004043C4F8343FFFF7A5FE05F065FAFFF7A2
:1059700081FE284603B030BD71C20F4170C20F4195
:1059800000E400E00C6E0020086E002008010020FA
:10599000EFF305830F2B0ED9114A9A5C114B1B783C
:1059A0009A4208D24FF0500383F31188BFF36F8FF0
:1059B000BFF34F8FFEE74FF0E023D3F80C3D03F425
:1059C000E063094A1268934208D94FF0500383F309
:1059D0001188BFF36F8FBFF34F8FFEE7704700BF93
:1059E000F0E300E00C6E0020086E002010B50446C5
:1059F000FFF7A8FEA26BE36B9A4204D00024FFF7E6
:105A0000C3FE204610BD0124F9E710B50446FFF798
:105A100099FEA36B23B90124FFF7B6FE204610BD03
:105A20000024F9E770B504461546866B026C5AB936
:105A300003681BB100200136A66370BD806805F0C5
:105A400097FB0023A360F6E76DB9406808F0C0F942
:105A50006368226C13446360A268934219D323687D
:105A600063602846E7E7C06808F0B2F9E368226C93
:105A700051429B1AE3602268934202D2A3680B440E
:105A8000E360022D01D00020D5E726B1013E0020C1
:105A9000D1E72846CFE70020CDE70346026C6AB184
:105AA00010B50846D9681144D9609C68A14201D359
:105AB0001968D960D96808F08BF910BD704738B5FE
:105AC0000546FFF73FFE95F8454064B201E0013C12
:105AD00064B2002C0ADD6B6A43B105F1240005F0C5
