:020000040800F2
:100000000000012091490008C5230008C72300080B
:10001000C9230008CB230008CD23000800000000FE
:10002000000000000000000000000000CF230008D6
:10003000D123000800000000D3230008D5230008C6
:10004000E1490008E1490008E1490008E1490008E8
:10005000E1490008E1490008E1490008E1490008D8
:10006000E1490008E1490008E1490008E1490008C8
:10007000E1490008E1490008E1490008E1490008B8
:10008000E1490008E1490008E149000800000000DA
:10009000000000000000000000000000E14900082E
:1000A000E1490008E1490008D9230008E1490008B6
:1000B000E9230008E1490008E1490008E149000896
:1000C000E1490008E1490008E1490008E149000868
:1000D000E1490008E1490008E1490008000000008A
:1000E000F9230008E1490008E14900080000000088
:1000F000000000000000000000000000E1490008CE
:1001000000000000E1490008E1490008E149000859
:1001100000000000000000000000000000000000DF
:10012000E1490008E1490008E1490008E149000807
:10013000E14900080000000000000000000000008D
:10014000000000000000000000000000052400087E
:10015000E1490008E1490008E1490008E1490008D7
:10016000E1490008E149000800000000000000002B
:10017000000000000000000000000000000000007F
:1001800000000000E149000800000000000000003D
:04019000E149000839
:1001A00001F0FF01102A2BDB10F0070F08D010F828
:1001B000013B013A8B422DD010F0070F42B3F6D12C
:1001C000F0B441EA012141EA014122F007047FF045
:1001D00000070023F0E80256083C85EA010586EA9C
:1001E000010685FA47F5A3FA87F586FA47F6A5FAD8
:1001F00087F68EB9EED1F0BC01F0FF0102F00702E4
:1002000032B110F8013B013A83EA010313B1F8D18E
:100210000020704701387047002D06BF354603386F
:10022000073815F0010F07D1013015F4807F02BFA8
:10023000013015F4C03F0130F0BC0138704700BFF9
:1002400053B94AB9002908BF00281CBF4FF0FF313D
:100250004FF0FF3000F00CB8ADF1080C6DE904CEA2
:1002600005F07AF8DDF804E0DDE9022304B0704718
:10027000704700BF10B5054C237833B9044B13B158
:100280000448AFF300800123237010BD4801002013
:10029000000000005056000808B5034B1BB103498D
:1002A0000348AFF3008008BD000000004C010020AF
:1002B0005056000878B110B5074C206001F01AFBC9
:1002C000064BA3FB00239B0C20680268013B936252
:1002D00001F0F4FC10BD70476401002083DE1B4375
:1002E000024B1B681B68586A704700BF64010020FE
:1002F00010B58AB005A9002405944C608C60CC60D0
:100300000C6101941E4B1A6B42F004021A631A6BC3
:1003100002F004020192019A02941A6B42F08002E8
:100320001A631A6B02F080020292029A03941A6B0B
:1003300042F001021A631A6B02F001020392039A5F
:1003400004941A6B42F002021A631B6B03F002035F
:100350000493049B4FF4805305934FF48813069342
:1003600002230793074800F07FF922462146282000
:1003700000F066F9282000F073F90AB010BD00BF44
:100380000038024000040240A8B170B59AB0064699
:1003900001AC64252A460021204604F059FB33466F
:1003A000054A2946204604F01DFB2946204603F055
:1003B00005FB1AB070BD704768560008A8B170B54B
:1003C0009AB0064601AC64252A460021204604F076
:1003D0003FFB3346054A2946204604F003FB2946E5
:1003E000204603F0EBFA1AB070BD7047745600084F
:1003F000B0F5805F00D0704708B5024802F064FF96
:1004000008BD00BF8001002008B50268034B9A4276
:1004100000D008BD00F09AF8FBE700BF004801409B
:1004200072B6FEE710B594B008AC30220021204629
:1004300004F00EFB002303930493059306930793A4
:100440000193214A116C41F080511164126C02F049
:1004500080520192019A02931C4A136823F440438C
:1004600043F400431360136803F440430293029B78
:10047000012308934FF48033099302230E934FF422
:1004800080030F93192310934FF4A873119304233F
:10049000129307231393204601F030F878B90F2305
:1004A000039302210491002305934FF48052069296
:1004B000079303A801F072FA18B914B010BDFFF742
:1004C000AFFFFFF7ADFF00BF0038024000700040F3
:1004D00008B500F021F8FFF7A5FFFFF709FF02F0CC
:1004E000B7FD02F077FE02F07DFD02F099FF0748AC
:1004F000FFF7E0FE0648FFF761FF0648FFF744FFFD
:100500004FF47A7000F034F8F4E700BFFC010020EB
:1005100084560008A056000808B50B4B1A6842F430
:1005200000721A601A6842F480621A601A6842F413
:1005300080721A60032000F071F80F2001F0F8FEBD
:1005400000F084F9002008BD003C0240034A116815
:10055000034B1B780B441360704700BFAC010020B5
:1005600000000020014B1868704700BFAC0100205C
:1005700038B50446FFF7F6FF0546B4F1FF3F02D059
:10058000044B1B781C44FFF7EDFF401BA042FAD33D
:1005900038BD00BF00000020002807DB00F01F026C
:1005A000400901239340024A42F82030704700BFBF
:1005B00000E100E0002808DB0901C9B200F1604059
:1005C00000F5614080F80013704700F00F0009014A
:1005D000C9B2014B1954704714ED00E000B500F0AA
:1005E0000700C0F1070CBCF1040F28BF4FF0040C4A
:1005F000031D062B0FD9C31E4FF0FF3E0EFA0CF061
:1006000021EA000199400EFA03FE22EA0E0241EAB5
:1006100002005DF804FB0023EEE70000074AD36800
:1006200023F4E0631B041B0C000200F4E0600343AE
:1006300043F0BF6343F40033D360704700ED00E044
:1006400010B50446054BD868C0F30220FFF7C6FF7B
:1006500001462046FFF7AEFF10BD00BF00ED00E0F1
:1006600008B5FFF799FF08BD00230F2B00F2D780D4
:1006700070B582B065E085684FEA430E032404FA42
:100680000EF425EA0405CC6804FA0EF42C438460C9
:10069000446824EA02044A68C2F300129A402243E2
:1006A00042605CE0DC08083450F8242003F00705C1
:1006B000AD004FF00F0E0EFA05FE22EA0E0E0A698B
:1006C000AA4042EA0E0240F824205CE0042200E046
:1006D000002202FA0EF22A430234514D45F824203A
:1006E000504A94686FEA0C0224EA0C054E6816F42E
:1006F000801F01D04CEA04054A4CA560E46802EA78
:1007000004054E6816F4001F01D04CEA0405454C60
:10071000E560646802EA04054E6816F4003F01D003
:100720004CEA04053F4C6560246822404D6815F48E
:10073000803F01D04CEA04023A4C226001330F2B77
:100740006BD801229A400C6804EA020C32EA0404D5
:10075000F4D14C6804F00304013C012C8BD94A68A5
:1007600002F00302032A09D0C4685D000322AA40F4
:1007700024EA02048A68AA402243C2604A6802F05E
:100780000302022A8ED004684FEA430E032202FAC3
:100790000EF224EA02044A6802F0030202FA0EF2A0
:1007A000224302604A6812F4403FC7D000220192FF
:1007B0001D4A546C44F480445464526C02F48042E8
:1007C0000192019A9C08A51C154A52F8255003F085
:1007D000030E4FEA8E0E0F2202FA0EF225EA0205F0
:1007E000124A90423FF474AF02F5806290420ED0FC
:1007F00002F5806290420CD002F5806290420AD0ED
:1008000002F5806290423FF461AF072261E7012266
:100810005FE702225DE703225BE702B070BD70472D
:1008200000380140003C0140003802400000024016
:1008300008B5054B5B69034200D108BD024B586106
:10084000FFF7D6FDF9E700BF003C014082B0002170
:1008500000910B4B5A6C42F480425A645A6C02F479
:1008600080420092009A01911A6C42F080521A6400
:100870001B6C03F080530193019B02B0704700BFD3
:10088000003802402DE9F04383B0D0F8008001EB3E
:10089000C10300EB83039A6A5B6A9A4254D8074605
:1008A0000C469B1A01EBC10200EB8202D2699A420C
:1008B00000D31A4602F103094FEA990915E006F13F
:1008C00003094FEA9909BB7904EBC40507EB8505D9
:1008D000296A0093B3B2E2B2404602F0D0F82B6A24
:1008E00033442B62AB6A3344AB6208EB441303F529
:1008F00010639B699BB24B4512D304EBC40307EB17
:1009000083039A6A5B6A9A420AD24BB19B1A04EB40
:10091000C40207EB8202D6699E42D0D31E46CEE7C0
:1009200004EBC40307EB83077A6ABB6A9A420FD8C9
:1009300004F00F040122A240D8F8343823EA02035D
:10094000C8F83438002000E0012003B0BDE8F0838F
:100950000020FAE730B583B000287AD00446056855
:1009600090F89534C3B1032384F89534B5F1A04FC2
:1009700017D0206801F034FE237C8DF80030231D51
:100980000ECB206801F06BFD70B1022384F8953422
:100990000125284603B030BD80F8943403F024F8D4
:1009A000E1E70023A371E4E70021206802F07DFA6B
:1009B0000246B8B903462079984218D903EBC3011F
:1009C00004EB8101012048750B75CB85002008766A
:1009D000C861086203EBC30104EB81014862013383
:1009E000DBB2E8E7022384F895340125D1E7904291
:1009F00017D902EBC20304EB8303002183F85512DD
:100A000083F8542283F85812C3F85C12C3F86012BA
:100A100002EBC20304EB8303C3F864120132D2B2C7
:100A2000E5E7237C8DF80030231D0ECB206801F014
:100A30002DFE054620B1022384F895340125A8E750
:100A400000236374012384F89534206802F0ECF9E4
:100A50009FE701259DE7036890F89424012A1AD0A6
:100A600010B50446012280F89424DA6812F0400F91
:100A700002D0427B012A09D0206801F0ABFD20683A
:100A800002F0C4F9002084F8940410BD9A6B42F47B
:100A900080329A63F0E702207047000070B5044688
:100AA0000D460068066C00EB411303F530639A684D
:100AB000A179012911D038498E4256D03DB905EBB4
:100AC000C50304EB8303D3F86432002B5ED0E9B294
:100AD000204602F0D5FF002070BD12F0080F09D0AB
:100AE0002E498E42F7D912F4004FF4D04FF4004251
:100AF0009A60F0E712F0200F02D020229A60EAE715
:100B000012F0280FE7D125498E4206D912F4004F82
:100B100003D04FF400429A60DDE705EBC50204EB19
:100B20008202D2F874121B69C3F31203CB1AC2F803
:100B300068327DB905EBC50204EB8202D2F864226B
:100B40006AB105EBC50204EB8202D2F860121944C7
:100B5000C2F86012E9B2204602F092FFBBE704F24D
:100B60009C42012102F0E0F9F4E712F4004F03D0B7
:100B70004FF400429A60AEE712F0200F01D020221D
:100B80009A60E9B2204602F07BFFA4E704F29C429F
:100B9000002102F0C9F99AE70A31544F0A30544F44
:100BA00038B5044603681D6C03EB4113D3F8081BEA
:100BB0000E4A954207D903F5306311F4004F02D075
:100BC0004FF400429A60204602F052FF074B9D42CC
:100BD00002D9A379012B01D0002038BD04F29C4238
:100BE0000121206802F0A0F9F6E700BF0A30544F57
:100BF00090F89434012B0CD010B50446012380F8F2
:100C000094344174006802F0F1F8002084F89404F0
:100C100010BD0220704738B505468C4611F0800F94
:100C20002BD101F00F0E0EEBCE04A40004F51474CA
:100C30000444211D0EEBCE0E00EB8E0E00208EF82C
:100C400055020CF00F0C81F800C0C2F30A028A6052
:100C50000B714A780AB1A1F81AC0022B1CD095F882
:100C60009434012B1BD0012385F89434286801F0BB
:100C7000EAFD002085F8940438BD01F00F0000EB78
:100C8000C001890010312944043100EBC00005EB9C
:100C9000800001244475D4E700234B71DFE7022074
:100CA000EAE710B504460A4611F0800F20D101F0A2
:100CB0000F0000EBC0039B0003F514732344191DC0
:100CC00000EBC00004EB8000002380F8553202F0F6
:100CD0000F020A7094F89434012B18D0012384F881
:100CE0009434206801F0FCFD002084F8940410BDC9
:100CF00001F00F0000EBC0039B0010332344191DCB
:100D000000EBC00004EB800001234375DFE7022005
:100D1000EDE710B5144601F00F0C0CEBCC01890087
:100D200001F51471014404310CEBCC0E00EB8E0E76
:100D3000CEF86022CEF864320023CEF868328EF806
:100D400055328EF854C28279012A04D0006801F02D
:100D5000ADFE002010BDCEF87042F7E701F00F01A4
:100D600001EBC10100EB8100D0F86802704710B5BB
:100D7000144601F00F0C0CEBCC018900103101443A
:100D800004310CEBCC0E00EB8E0ECEF82020CEF80A
:100D900024300023CEF8283001238EF815308EF849
:100DA00014C082799A4204D0006801F07FFE0020CE
:100DB00010BDCEF83040F7E738B501F00F050279E5
:100DC000AA4238D304460B4611F0800F1FD101EB25
:100DD000C101890001F514710144043103EBC3031F
:100DE00000EB8303002283F8552201238B700D70E2
:100DF00094F89434012B20D0012384F89434206893
:100E000001F099FF85B1002084F8940438BD05EB0A
:100E1000C501890010310144043105EBC50300EB25
:100E2000830301225A75E0E704F29C42A17920680D
:100E300002F07AF8E7E70120E8E70220E6E701F0B0
:100E40000F0302799A4230D310B5044611F0800F97
:100E50001ED103EBC301890001F514710144043173
:100E600003EBC30200EB8202002082F8550200224D
:100E70008A700B7094F89434012B18D0012384F8F5
:100E80009434206801F084FF002084F8940410BD9D
:100E900003EBC301890010310144043103EBC302A9
:100EA00000EB820201205075E1E70120704702202B
:100EB000EDE708B511F0800F0CD101F00F0101EB47
:100EC000C101890001F5147101440431006801F089
:100ED00077FD08BD01F00F0101EBC1018900103160
:100EE00001440431F2E72DE9F04F83B00446056870
:100EF000284601F0D6FF10B103B0BDE8F08F0646DA
:100F0000206801F09FFF0028F6D005F50067BB6858
:100F1000C3F30D23C4F8D434206801F093FF10F01C
:100F2000020F04D02268536903F002035361206862
:100F300001F088FF10F0100F15D02268936923F09C
:100F400010039361D5F8208008F00F0908F4F0131E
:100F5000B3F5802F4CD0B3F5402F6FD02268936942
:100F600043F010039361206801F06CFF10F4002F30
:100F700076D1206801F066FF10F4802F40F0E08009
:100F8000206801F05FFF0028C0F26181206801F055
:100F900059FF10F4006F09D0BB6813F0010F40F047
:100FA0006E812268536903F400635361206801F085
:100FB00049FF10F4805F40F06681206801F042FF35
:100FC00010F4005F40F0B381206801F03BFF10F0A7
:100FD000080F40F0C481206801F034FF10F0800F4A
:100FE00000F0D781AB6923F08003AB610126C0E13B
:100FF00047F6F07318EA030FB0D04FEA181A4FEA19
:10100000C903019309EBC90B04EB8B0BC8F30A125C
:10101000DBF86012284601F06BFEDBF86032CAF3A1
:101020000A0A5344CBF86032DBF86832019A4A442A
:1010300004EB82025344C2F868328FE7082204F2BC
:101040009C41284601F054FE09EBC90304EB8303DD
:10105000D3F86822C8F30A184244C3F868227DE72F
:10106000206801F0F3FE8046B14635E005EB4913F8
:101070000122C3F8082B49462046FFF70FFD3CE04C
:1010800005EB49130822C3F8082B49462046FFF711
:1010900087FD35E009EBC90304EB830393F857326E
:1010A000012B41D005EB49130222C3F8082B1AF09B
:1010B000200F04D005EB49132022C3F8082B1AF4A3
:1010C000005F05D005EB49134FF40052C3F8082B1D
:1010D00009F101094FEA5808B8F1000F3FF449AF90
:1010E00018F0010FF4D05FFA89FB5946206801F02F
:1010F000BDFE824610F0010FB8D11AF0080FBFD123
:101100001AF0100F04D005EB49131022C3F8082B76
:101110001AF0020FCBD06B6913F0800FBAD07B6846
:1011200043F480637B60B5E709EBC90304EB8303F9
:10113000002283F857225946204602F0EFFCB1E71F
:10114000206801F08BFE8046B14625E059462046D6
:1011500002F0A2FC1AF0080F04D005EB4913082294
:10116000C3F808291AF0100F04D005EB4913102218
:10117000C3F808291AF0400F04D005EB49134022A8
:10118000C3F808291AF0020F40D11AF0800F59D184
:1011900009F101094FEA5808B8F1000F3FF4F0AE29
:1011A00018F0010FF4D05FFA89FB5946206801F06E
:1011B00066FE824610F0010FCCD009F00F0201212B
:1011C00001FA02F27B6B23EA02037B6305EB49130E
:1011D000C3F80819A3798B42B8D109EBC90304EB12
:1011E00083031A6AD9690A441A62B9F1000FADD1B2
:1011F00009EBC90304EB83035B6A002BA6D104F25D
:101200009C420121206801F08FFE9FE74946284655
:1012100001F0ECF909EBC90304EB8303DB7D012B3F
:1012200005D005EB49130222C3F80829ADE709EB05
:10123000C90304EB83030022DA755946204602F005
:1012400073FCEEE749462046FFF71CFBA0E77B68EE
:1012500023F001037B6094F8CC34012B08D02046A6
:1012600002F056FC2268536903F0004353618DE697
:10127000002184F8CC14204600F03FF9F2E7204624
:1012800002F02EFC8DE67B6823F001037B601021C9
:10129000206801F0ABF91AE005EB46134FF67F31F9
:1012A000C3F80819D3F8002922F40012C3F8002962
:1012B000C3F8081BD3F8002B22F40012C3F8002B4C
:1012C000D3F8002B42F00062C3F8002B01362379DB
:1012D000B342E1D8FB6943F00113FB61E37BDBB16F
:1012E000D7F8843043F00B03C7F884307B6C43F0AD
:1012F0000B037B64D5F8003823F4FE63C5F800388F
:1013000004F29C42A179206801F00EFE2268536924
:1013100003F48053536150E67B6943F4005343F078
:101320002B037B613B6943F00B033B61E2E72068E1
:1013300001F0ECFD206801F075FAE071266800F01C
:10134000DDFB0146E279304601F0D2F8204602F09A
:10135000B4FB2268536903F40053536134E620461A
:1013600002F0A5FB2268536903F00803536132E6DB
:1013700001362379B3420CD906EBC60304EB830391
:1013800093F85732012BF3D1F1B22046FFF791FDCC
:10139000EEE7206801F056FD10F4801F25D120688B
:1013A00001F050FD10F4001F59D0012326E0013652
:1013B0002379B3421BD905EB4613D3F8002906EB7A
:1013C000C60304EB83031B7E012BF0D1002AEEDA67
:1013D00006EBC60304EB83030122DA7566F07F0196
:1013E000C9B22046FFF765FDE1E70126E0E7226884
:1013F000536903F480135361D1E7013322799A4290
:1014000028D905EB4312D2F8001B03EBC30204EB0F
:10141000820292F85822012AEFD10029EDDA01F474
:101420008031D4F8D42402F001029142E5D103EBDB
:10143000C30204EB8202012182F85712AA6942F02A
:101440008002AA616A6912F0800FD6D17B6843F4EA
:1014500000737B602268536903F4001353612068B2
:1014600001F0F0FC10F0804F10D1206801F0EAFC90
:1014700010F0040F3FF440AD23685D6815F0040FD1
:101480000DD1226853682B43536035E5204602F0A6
:1014900051FB2268536903F080435361E5E720461E
:1014A00002F04EFBEDE710B40468606A31B940EA1F
:1014B0000240A06200205DF8044B70478C46A36A8E
:1014C00000EB1340002308E003F1400104EB81012D
:1014D000496800EB11400133DBB20CF1FF318B4264
:1014E000F2D340EA02400CF13F0104EB810460605A
:1014F000E0E703685962002070477047002800F059
:10150000E08170B582B00446036813F0010F3BD050
:101510009F4B9B6803F00C03042B2CD09C4B9B68C7
:1015200003F00C03082B21D06368B3F5803F4FD044
:10153000B3F5A02F52D0964B1A6822F480321A606D
:101540001A6822F480221A606368002B50D0FFF7DB
:1015500009F805468E4B1B6813F4003F14D1FFF7C2
:1015600001F8401B6428F5D90320B1E1884B5B6882
:1015700013F4800FD8D0864B1B6813F4003F03D0C0
:101580006368002B00F09F81236813F0020F54D092
:101590007F4B9B6813F00C0F3ED07D4B9B6803F094
:1015A0000C03082B33D0E368002B68D0794B012261
:1015B0001A60FEF7D7FF0546754B1B6813F0020F44
:1015C00054D1FEF7CFFF401B0228F5D903207FE15D
:1015D0006F4A136843F480331360B5E76C4B1A68A5
:1015E00042F480221A601A6842F480321A60ABE733
:1015F000FEF7B8FF0546664B1B6813F4003FC3D0E7
:10160000FEF7B0FF401B6428F5D9032060E1604B72
:101610005B6813F4800FC6D15D4B1B6813F0020F9B
:1016200003D0E368012B40F05081594A136823F03E
:10163000F803216943EAC1031360236813F0080F1C
:1016400042D063696BB3534B0122C3F8802EFEF77F
:1016500089FF05464E4B5B6F13F0020F34D1FEF746
:1016600081FF401B0228F5D9032031E1484A136865
:1016700023F0F803216943EAC1031360DDE7454B1A
:1016800000221A60FEF76EFF0546414B1B6813F0FF
:10169000020FD2D0FEF766FF401B0228F5D90320C7
:1016A00016E13C4B0022C3F8802EFEF75BFF054697
:1016B000374B5B6F13F0020F06D0FEF753FF401B52
:1016C0000228F5D9032003E1236813F0040F77D033
:1016D0002F4B1B6C13F0805F33D1002301932C4BF5
:1016E0001A6C42F080521A641B6C03F08053019311
:1016F000019B0125284B1B6813F4807F23D0A3682E
:10170000012B34D0052B38D0214B1A6F22F0010267
:101710001A671A6F22F004021A67A368002B3DD0E3
:10172000FEF720FF06461A4B1B6F13F0020F46D13F
:10173000FEF718FF801B41F288339842F3D903204B
:10174000C6E00025D6E7144A136843F4807313609B
:10175000FEF708FF0646104B1B6813F4807FCED1BE
:10176000FEF700FF801B0228F5D90320B0E0084AED
:10177000136F43F001031367CFE7054B1A6F42F075
:1017800004021A671A6F42F001021A67C5E700BF28
:10179000003802400000474200700040FEF7E2FEC1
:1017A0000646524B1B6F13F0020F08D0FEF7DAFE0D
:1017B000801B41F288339842F3D9032088E0EDB9C9
:1017C000A369002B00F08380484A926802F00C0263
:1017D000082A51D0022B17D0454B00221A66FEF77B
:1017E000C1FE0446414B1B6813F0007F42D0FEF758
:1017F000B9FE001B0228F5D9032069E03B4A136CAF
:1018000023F080531364DBE7394B00221A66FEF79E
:10181000A9FE0546354B1B6813F0007F06D0FEF786
:10182000A1FE401B0228F5D9032051E0E369226A9A
:101830001343626A43EA8213A26A5208013A43EAF6
:101840000243E26A43EA0263284A5360284B0122BA
:101850001A66FEF787FE0446244B1B6813F0007FD0
:1018600006D1FEF77FFE001B0228F5D903202FE0EA
:1018700000202DE000202BE0012B2BD01B4B5B68C0
:1018800003F48001E269914226D103F03F02216A0C
:101890008A4223D1616A47F6C0721A40B2EB811FB7
:1018A0001ED103F44031A26A5208013AB1EB024F53
:1018B00018D103F07063E26AB3EB026F14D1002019
:1018C00006E001207047012002E0012000E0002036
:1018D00002B070BD0120FBE70120F9E70120F7E726
:1018E0000120F5E70120F3E70120F1E7003802408D
:1018F0000000474208B5264B9B6803F00C03042BFD
:1019000041D0082B41D1224B5A6802F03F025B685C
:1019100013F4800F12D01E4B5968C1F388111D4873
:101920000023A1FB0001FEF78BFC194B5B68C3F39E
:10193000014301335B00B0FBF3F008BD144B586862
:10194000C0F388104FEA401CBCEB000C6EEB0E0E8F
:101950004FEA8E1343EA9C634FEA8C11B1EB0C0102
:1019600063EB0E03DB0043EA5173C90011EB000C7B
:1019700043F10003990200234FEA8C2041EA9C5175
:10198000FEF75EFCD1E70348D7E70348D5E700BF81
:101990000038024040787D010024F400002800F067
:1019A0009B8070B50D4604464F4B1B6803F0070340
:1019B0008B4208D2CBB24C4A1370136803F0070372
:1019C0008B4240F08B80236813F0020F17D013F086
:1019D000040F04D0454A936843F4E05393602368AE
:1019E00013F0080F04D0414A936843F460439360B6
:1019F0003E4A936823F0F003A1680B439360236889
:101A000013F0010F32D06368012B21D09A1E012AF6
:101A100025D9364A126812F0020F61D033498A681C
:101A200022F0030213438B60FEF79CFD06462F4B0A
:101A30009B6803F00C036268B3EB820F16D0FEF7CD
:101A400091FD801B41F288339842F0D9032042E097
:101A5000264A126812F4003FE0D101203BE0234AFD
:101A6000126812F0007FD9D1012034E01E4B1B68B0
:101A700003F00703AB4207D9EAB21B4B1A701B688D
:101A800003F00703AB422DD1236813F0040F06D0F7
:101A9000164A936823F4E053E1680B43936023688C
:101AA00013F0080F07D0114A936823F460432169AB
:101AB00043EAC1039360FFF71DFF0C4B9B68C3F320
:101AC00003130B4AD35CD8400A4B18600A4B1868C2
:101AD00000F02EFC002070BD012070470120FAE7C5
:101AE0000120F8E70120F6E7003C02400038024000
:101AF000105700080800002004000020014B18685F
:101B0000704700BF0800002008B5FFF7F7FF044B3F
:101B10009B68C3F34233034AD35CD84008BD00BF7F
:101B200000380240085700080F2303600B4B9A68E7
:101B300002F0030242609A6802F0F00282609A6842
:101B400002F4E052C2609B68DB0803F4E0530361D7
:101B5000034B1B6803F007030B607047003802401B
:101B6000003C024030B4026A036A23F001030362BE
:101B70004568836923F073030C681C4322F002025A
:101B80008B6813430B4A904206D0456084614A68D3
:101B90004263036230BC704723F00803CA681A43EB
:101BA00022F0040325F440754A692A438D691543E0
:101BB000EBE700BF0000014030B4036A026A22F480
:101BC000807202624468C26922F073020D68154394
:101BD00023F400738A6843EA02230D4A904206D038
:101BE0004460C5614A68C263036230BC704723F435
:101BF0000063CA6843EA022323F4806324F4405458
:101C00004A6944EA02148A6944EA0214E8E700BF18
:101C10000000014030B4036A026A22F4805202627A
:101C20004468C26922F4E6420D6842EA052223F4C0
:101C300000538D6843EA0533074DA84206D044603F
:101C4000C2614A680264036230BC704724F4804475
:101C50004D6944EA8514F2E70000014010B4036ABC
:101C6000046A24F001040462846924F0F00C4CEA54
:101C7000021223F00A030B43826103625DF8044BF6
:101C8000704710B4036A046A24F010040462846983
:101C900024F4704C4CEA023223F0A00343EA01130F
:101CA000826103625DF8044B7047836823F0700320
:101CB0000B4343F0070383607047000090F83D300A
:101CC000012B2AD1022380F83D300368154A934244
:101CD00018D0B3F1804F15D0A2F57C42934211D0B9
:101CE00002F5806293420DD002F58062934209D0E2
:101CF00002F59A32934205D01A6842F001021A6046
:101D0000002070479A6802F00702062A07D01A6876
:101D100042F001021A600020704701207047002045
:101D2000704700BF0000014090F83D30012B2FD1DB
:101D3000022380F83D300268D36843F00103D3608A
:101D40000368154A934218D0B3F1804F15D0A2F51D
:101D50007C42934211D002F5806293420DD002F58D
:101D60008062934209D002F59A32934205D01A68F4
:101D700042F001021A60002070479A6802F00702E0
:101D8000062A07D01A6842F001021A600020704744
:101D900001207047002070470000014070477047E5
:101DA00070477047704770B504460368DE681D6968
:101DB00015F0020F10D016F0020F0DD06FF00202D6
:101DC0001A610123037703689B6913F0030F5ED048
:101DD000FFF7E6FF0023237715F0040F12D016F06B
:101DE000040F0FD023686FF004021A6102232377D7
:101DF00023689B6913F4407F4FD02046FFF7D0FF44
:101E00000023237715F0080F12D016F0080F0FD01B
:101E100023686FF008021A61042323772368DB69C3
:101E200013F0030F40D02046FFF7BAFF00232377BB
:101E300015F0100F12D016F0100F0FD023686FF0AE
:101E400010021A61082323772368DB6913F4407FAB
:101E500031D02046FFF7A4FF0023237715F0010FB0
:101E600002D016F0010F2DD115F0800F02D016F020
:101E7000800F2FD115F0400F02D016F0400F31D156
:101E800015F0200F02D016F0200F33D170BDFFF7F0
:101E900086FF2046FFF785FF9CE72046FFF77FFF80
:101EA0002046FFF77EFFABE72046FFF778FF20468E
:101EB000FFF777FFBAE72046FFF771FF2046FFF7ED
:101EC00070FFC9E723686FF001021A612046FEF730
:101ED0009BFAC9E723686FF080021A61204600F080
:101EE00026FAC7E723686FF040021A612046FFF721
:101EF00059FFC5E723686FF020021A61204600F001
:101F000015FAC3E70368294A90420ED0B0F1804F1A
:101F10000BD0A2F57C42904207D002F5806290423D
:101F200003D002F58062904203D123F070034A6827
:101F300013431E4A90421AD0B0F1804F17D0A2F539
:101F40007C42904213D002F5806290420FD002F59D
:101F5000806290420BD002F59A32904207D002F58F
:101F60008062904203D002F58062904203D123F454
:101F70004073CA68134323F080034A691343036024
:101F80008B68C3620B688362084B98420AD00123B6
:101F90004361036913F0010F03D0036923F00103C8
:101FA000036170470B690363F1E700BF0000014064
:101FB00040B310B5044690F83D30F3B1022384F8E5
:101FC0003D30214651F8040BFFF79CFF012384F8B4
:101FD000463084F83E3084F83F3084F8403084F84E
:101FE000413084F8423084F8433084F8443084F837
:101FF000453084F83D30002010BD80F83C3001F0C1
:102000005DF8DBE70120704740B310B5044690F857
:102010003D30F3B1022384F83D30214651F8040BE2
:10202000FFF770FF012384F8463084F83E3084F8CF
:102030003F3084F8403084F8413084F8423084F8EE
:10204000433084F8443084F8453084F83D30002033
:1020500010BD80F83C30FFF7A1FEDBE701207047A0
:1020600030B4036A026A22F0100202624468826994
:1020700022F4E6420D6842EA052223F020038D682F
:1020800043EA05130C4DA84206D0446082614A68B9
:102090008263036230BC704723F08003CD6843EA5B
:1020A000051323F0400324F440644D6944EA850499
:1020B0008D6944EA8504E8E70000014038B590F8EE
:1020C0003C30012B66D004460D46012380F83C309D
:1020D0000C2A5AD8DFE802F0075959591B595959A7
:1020E0003059595944000068FFF73CFD2268936954
:1020F00043F0080393612268936923F0040393611A
:102100002268936929690B43936100203EE00068CF
:10211000FFF7A6FF2268936943F400639361226886
:10212000936923F48063936122689369296943EA80
:1021300001239361002029E00068FFF73DFD22683C
:10214000D36943F00803D3612268D36923F0040301
:10215000D3612268D36929690B43D361002015E05C
:102160000068FFF757FD2268D36943F40063D36129
:102170002268D36923F48063D3612268D369296913
:1021800043EA0123D361002000E00120002384F80A
:102190003C3038BD0220FCE710B4846824F47F4C46
:1021A00042EA03220A4342EA0C0282605DF8044BD1
:1021B000704790F83C30012B78D010B504460123CD
:1021C00080F83C30022380F83D300268936823F4A5
:1021D0007F4323F0770393600B68602B4CD023D8A8
:1021E000402B54D011D8202B03D00AD80BB1102B80
:1021F00005D119462068FFF758FD002028E001208E
:1022000026E0302BF5D0012022E0502B0AD1CA68FD
:1022100049680068FFF722FD50212068FFF745FD5F
:10222000002015E0012013E0B3F5805F3AD0B3F54C
:10223000005F14D0702B37D1CB684A68896800687A
:10224000FFF7AAFF2268936843F0770393600020AA
:10225000012384F83D30002384F83C3010BDCB6866
:102260004A6889680068FFF797FF2268936843F41B
:10227000804393600020EBE7CA6849680068FFF775
:1022800000FD60212068FFF710FD0020E0E7CA682C
:1022900049680068FFF7E2FC40212068FFF705FD70
:1022A0000020D5E70020D3E70120D1E702207047C6
:1022B00090F83C20012A35D010B40346012280F862
:1022C0003C20022280F83D2002685068946820F08B
:1022D000700C086840EA0C0050601A68124882428C
:1022E00012D0B2F1804F0FD0A0F57C4082420BD0CB
:1022F00000F58060824207D000F58060824203D002
:1023000000F59A30824204D124F0800449682143C8
:102310009160012283F83D20002083F83C005DF8A5
:10232000044B70470220704700000140704770471F
:1023300030B589B00546002401941D4B5A6C42F417
:1023400080225A645B6C03F480230193019B02A9F1
:1023500003A8FFF7E9FBFFF7D7FB164AA2FB002310
:102360009B0C013B1448154A026040F2E732C26000
:102370004360046184608461FFF71AFE044610B173
:10238000204609B030BD0C48FFF7CEFC04460028BB
:10239000F6D11A20FEF764F90F2D01D90124EFE7D9
:1023A000002229461A20FEF74BF9054B1D60E7E78E
:1023B0000038024083DE1B43B0010020004801408A
:1023C00004000020FEE7FEE7FEE7FEE7FEE77047B9
:1023D000704770477047000008B50248FFF7E3FCFC
:1023E00008BD00BFB001002008B50248FFF7DBFCC4
:1023F00008BD00BF8C02002008B54FF48050FEF7E6
:1024000017FA08BD08B50248FEF76DFD08BD00BF0C
:10241000D40F002082B000230193019B013301936C
:10242000019BB3F1706F15D80369002BF5DA002317
:102430000193036943F001030361019B013301939D
:10244000019BB3F1706F08D8036913F0010FF4D149
:10245000002000E0032002B070470320FBE784B0B7
:1024600010B5044603A880E80E009DF81130012B3A
:1024700021D1A36B23F48033A363E36823F48403A3
:1024800023F04003E360E36823F44013E3609DF826
:102490001830012B0AD02046FFF7BCFF9DF80E3004
:1024A000012B1CD0BDE8104004B07047E36843F432
:1024B0008013E360EFE7E36843F04003E360204606
:1024C000FFF7A8FF9DF8153023B9A36B43F48033C1
:1024D000A363E3E7A36B23F48033A363DEE7A3687E
:1024E00043F00603A360A36843F02003A360D9E789
:1024F000022A0AD00922C36823F47053C360C36858
:1025000043EA8223C36000207047234B0B44234AD5
:1025100093422FD9224B0B44224A93422CD9A1F546
:102520007403A3F51053204A934227D9A1F1837372
:10253000A3F5E7431D4A934222D31D4B0B441D4A8A
:1025400093421FD91C4B0B441C4A93421CD31C4B77
:102550000B441C4A934219D3A1F1B773A3F5585306
:10256000194A934214D3194B0B44194A934211D27E
:102570000722C0E70F22BEE70E22BCE70D22BAE712
:102580000C22B8E70B22B6E70A22B4E70922B2E729
:102590000822B0E70622AEE7405327FFFF340C00C5
:1025A000401E1BFF3F420F007F4F120020D613003A
:1025B00060B6E5FE5FE3160000D3CEFE40771B0059
:1025C000C05BB3FEC091210020753800E05459FE75
:1025D000E09C4100836843F0010383600020704762
:1025E000836823F0010383600020704782B00023DA
:1025F0000193019B01330193019BB3F1706F15D8D7
:102600000369002BF5DA00230193890141F02001D1
:102610000161019B01330193019BB3F1706F08D8F5
:10262000036913F0200FF4D1002000E0032002B072
:1026300070470320FBE782B000230193019B013325
:102640000193019BB3F1706F13D80369002BF5DA86
:102650000023019310230361019B01330193019B2C
:10266000B3F1706F08D8036913F0100FF4D1002094
:1026700000E0032002B070470320FBE7D0F80038E9
:102680001943C0F8001800207047000084B0F8B566
:10269000044607A880E80E00002306E003F140028C
:1026A00004EB82020021516001330E2BF6D99DF814
:1026B000266006BBD4F8043843F00203C4F804389B
:1026C000A36B43F40013A363A36B23F40023A3635E
:1026D000A36B23F48023A3630023C4F8003E9DF87A
:1026E0002130012B15D19DF81F306BB900212046F8
:1026F000FFF7C4FF11E0A36B23F40013A363A36BE4
:1027000043F40023A363E7E701212046FFF7B6FF68
:1027100003E003212046FFF7B1FF10212046FFF719
:1027200065FF054600B101252046FFF784FF00B193
:10273000012504F5006C0023CCF81030CCF81430DF
:10274000CCF81C300DE04FF09040C2F8000902E0D8
:102750000020C2F8000900220A614FF67F328A6029
:1027600001339DF81C1099420ED904EB431202F577
:102770001061D2F800090028EADA002BE3D14FF00B
:102780000060C2F80009E6E700230AE0BBB14FF0A1
:102790009047C2F8007B002202614FF67F328260D0
:1027A0000133994210D904EB431202F53060D2F89C
:1027B000007B002FEADB0027C2F8007BEBE74FF03D
:1027C0000067C2F8007BE6E7DCF8103023F4807382
:1027D000CCF810300023A3616FF0804363619DF853
:1027E0001E301BB9A36943F01003A361A2690C4B0F
:1027F0001343A3619DF822301BB1A36943F0080382
:10280000A361012E04D02846BDE8F84004B070470B
:10281000A36943F0804343F00403A361F3E700BFDF
:1028200000383C80D0F8083803F00603022B04D0AF
:10283000062B04D02BB900207047022070470220DD
:1028400070470F20704710B591F800C04B78012BEE
:1028500023D000F5006ED0F81C380CF00F040122D4
:10286000A24043EA0243C0F81C3800EB4C10D0F8F9
:10287000003B13F4004F0ED1D0F8003B8A68C2F33E
:102880000A02097942EA8142134343F0805343F438
:102890000043C0F8003B002010BDD0F81C280CF00D
:1028A0000F0E03FA0EF39BB21343C0F81C3800EB73
:1028B0004C10D0F8003913F4004FECD1D0F80039A7
:1028C0008A68C2F30A02097942EA814242EA8C52DA
:1028D000134343F0805343F40043C0F80039DAE770
:1028E00030B40B784A78012A26D000EB4313D3F892
:1028F000002B002A52DBD0F83C480A7802F00F0285
:102900004FF0010C0CFA02F224EA0242C0F83C2813
:10291000D0F81C28097801F00F010CFA01FC22EA1A
:102920000C42C0F81C28D3F8001B234A0A40C3F805
:10293000002B002030BC704700EB4313D3F8002974
:10294000002A1EDBD0F83C580A7802F00F0201245E
:1029500004FA02F292B225EA0202C0F83C28D0F84A
:102960001C28097801F00F018C40A4B222EA04026D
:10297000C0F81C28D3F80019104A0A40C3F80029EF
:10298000D7E7D3F8002942F00062C3F80029D3F852
:10299000002942F08042C3F80029D3E7D3F8002B86
:1029A00042F00062C3F8002BD3F8002B42F08042C3
:1029B000C3F8002B9FE700BF0078F3EF007833ECFB
:1029C00010B483B0024600230193487801280BD04D
:1029D0000B7802EB4313D3F8000B00282DDB00200B
:1029E00003B05DF8044B70470B7802EB4313D3F848
:1029F0000049002C01DB0020F2E7D3F8004944F045
:102A00000064C3F800490B7802EB4313D3F8004984
:102A100044F08044C3F80049019B01330193019CB9
:102A200042F210739C42DBD80B7802EB4313D3F8CD
:102A30000039002BF0DB0020D2E7D3F8000B40F088
:102A40000060C3F8000B0B7802EB4313D3F8000BC4
:102A500040F08040C3F8000B019B013301930198C3
:102A600042F21073984208D80B7802EB4313D3F864
:102A7000003B002BF0DB0020B2E70120B0E710B5EF
:102A80009DF8084084B903334FEA930E4FF0000CD1
:102A900008E000EB023303F5805351F8044B1C604F
:102AA0000CF1010CF445F4D3002010BDF0B583B057
:102AB0000C784B78012B2DD000EB441C0CF53063C7
:102AC0001D696FF312051D611D696FF3DC451D6102
:102AD000002C40F0CE800C690CB18C680C618C68C5
:102AE0000C621D69C4F312042C431C611C6944F47C
:102AF00000241C61012A00F0DF800B79012B00F01B
:102B0000E180DCF8003B43F00443CCF8003B0020BC
:102B100003B0F0BD0B6973BB00EB4413D3F810593D
:102B20006FF3DC45C3F81059D3F8105945F400256C
:102B3000C3F81059D3F810596FF31205C3F81059A0
:102B4000012A54D000EB4414D4F8003943F0044374
:102B5000C4F800390B79012B72D00B69002BD6D049
:102B6000D0F83438097801F00F0101228A4013436C
:102B7000C0F83438CBE700EB441303F510631D694C
:102B80006FF312051D611D696FF3DC451D6184B98A
:102B90000E698D68AE4200D90D611D6945F40025AE
:102BA0001D611D690E69C6F3120C45EA0C051D6115
:102BB000C6E70D698E683544013DB5FBF6F51E6923
:102BC0001FFA85FC494F07EAC54535431D610D795C
:102BD000012DE6D11D6925F0C0451D611D694FEA33
:102BE0004C7C0CF0C04C45EA0C051D61D9E7CB6963
:102BF0001BB100EB4412C2F814390B79012B08D039
:102C000000EB4414D4F8003943F00443C4F800390D
:102C10007DE7D0F8083813F4807F08D100EB441228
:102C2000D2F8003943F00053C2F80039E8E700EB6E
:102C30004412D2F8003943F08053C2F80039DFE77C
:102C4000D0F8083813F4807F0CD1D4F8003943F061
:102C50000053C4F8003900920B8A0A78C968FFF75C
:102C60000EFF54E7D4F8003943F08053C4F800391C
:102C7000F1E70C6954B91C698D68C5F312052C4342
:102C80001C611C6944F400241C6133E78D682C44EA
:102C9000013CB4FBF5F4A4B204FB05F50D621D691B
:102CA000124E06EAC4442C431C611C690D6AC5F32C
:102CB00012052C431C611DE7CA68002A3FF41DAFB2
:102CC0005A611AE7D0F8083813F4807F06D1DCF88F
:102CD000003B43F00053CCF8003B12E7DCF8003B2C
:102CE00043F08053CCF8003B0BE700BF0000F81F17
:102CF00010B5844608464FEA920E02F00302002304
:102D000005E00CF58051096840F8041B0133734558
:102D1000F7D37AB10CF5805CDCF800400021CBB22F
:102D2000DB0024FA03F300F8013B0131013A92B2CF
:102D3000002AF4D110BD0B784A78012A14D000EB98
:102D40004310D0F8002B002A06DB2BB1D0F8003B53
:102D500023F08043C0F8003BD0F8003B43F400135D
:102D6000C0F8003B0020704700EB4310D0F800296A
:102D7000002A06DB2BB1D0F8003923F08043C0F8DD
:102D80000039D0F8003943F40013C0F80039E9E7FE
:102D90000B784A78012A0ED000EB4310D0F8003BA4
:102DA00023F40013C0F8003B0B79023BDBB2012B8C
:102DB00015D90020704700EB4310D0F8003923F4F8
:102DC0000013C0F800390B79023BDBB2012BF0D8BD
:102DD000D0F8003943F08053C0F80039E9E7D0F863
:102DE000003B43F08053C0F8003BE2E7D0F80038E6
:102DF00023F4FE63C0F80038D0F80038090101F46C
:102E0000FE610B43C0F8003800207047D0F8003E48
:102E100023F00303C0F8003ED0F8043823F0020387
:102E2000C0F8043800207047D0F8003E23F00303B8
:102E3000C0F8003ED0F8043843F00203C0F804386C
:102E4000002070474269806910407047D0F81838F8
:102E500000F50060C0691840000C7047D0F81838C1
:102E600000F50060C069184080B2704700EB411166
:102E7000D1F8082B00F50060406910407047D0F889
:102E80001028D0F8343801F00F0C23FA0CF3DB01D2
:102E9000DBB2134300EB411000F51060806818406E
:102EA0007047406900F00100704738B50546C368B7
:102EB00023F0C043C360012913D019BBC36843F09A
:102EC0008043C36000240A20FDF752FB0A342846E1
:102ED000FFF7E7FF08B1C72CF5D9C82C14D00020A4
:102EE00038BDC36843F00053C36000240A20FDF7D7
:102EF0003FFB0A342846FFF7D4FF0128EDD0C72C4A
:102F0000F4D9EAE70120EBE70120E9E7D0F800393E
:102F10006FF30A03C0F80039D0F8043843F4807323
:102F2000C0F804380020704710B4046C154B9C4264
:102F300003D9D0F8003B002B16DB0024C0F8104B5F
:102F4000D0F8104B44F40024C0F8104BD0F8104BCC
:102F500044F01804C0F8104BD0F8104B44F0C044B3
:102F6000C0F8104B012903D000205DF8044B7047D6
:102F7000C0F8142BD0F8003B43F08023C0F8003B8E
:102F8000F2E700BF0A30544F10B503460C4A0D4912
:102F90000D48006840B10C4800680344521A93423F
:102FA00006D8094A136010BD0748084C0460F2E7D0
:102FB00001F056FD0C2303604FF0FF30F3E700BF34
:102FC0000000012000040000F80100200818002083
:102FD000034AD2F8883043F47003C2F8883070474F
:102FE00000ED00E000B587B0002302930393049343
:102FF00005930093019315484FF0804202604360AF
:1030000083604FF0FF32C26003618361FEF7D0FF3F
:1030100090B94FF48053029302A90C48FFF7C9F806
:1030200068B900230093019369460848FFF740F907
:1030300040B907B05DF804FBFDF7F2F9E9E7FDF7E9
:10304000EFF9EEE7FDF7ECF9F3E700BF8C020020A3
:1030500000B587B000230293039304930593009374
:1030600001931448144A0260436083604FF0FF32BA
:10307000C26003618361FEF79BFF90B94FF48053F8
:10308000029302A90B48FFF794F868B90023009354
:10309000019369460748FFF70BF940B907B05DF89F
:1030A00004FBFDF7BDF9E9E7FDF7BAF9EEE7FDF737
:1030B000B7F9F3E7FC010020000C004010B58AB01E
:1030C0000023059306930793089309930368B3F1CC
:1030D000804F07D0254A93422ED0254A934238D0BC
:1030E0000AB010BD0024019403F50E331A6C42F0AF
:1030F00001021A641A6C02F001020192019A029410
:103100001A6B42F001021A631B6B03F00103029376
:10311000029B05230593022306930123099305A926
:103120001448FDF7A1FA224621461C20FDF788FA33
:103130001C20FDF795FAD3E7002303930E4B1A6C7E
:1031400042F002021A641B6C03F002030393039B18
:10315000C6E700230493084B1A6C42F008021A6475
:103160001B6C03F008030493049BB9E700040040C0
:10317000000C0040000002400038024000B587B05B
:1031800000230193029303930493059302680E4B6B
:103190009A4202D007B05DF804FB002300930B4B6A
:1031A0001A6B42F001021A631B6B03F001030093D8
:1031B000009BC023019302230293059301A90448B5
:1031C000FDF752FAE6E700BF000400400038024075
:1031D0000000024000B58FB000230A930B930C93BC
:1031E0000D9308930993019302930393049305931A
:1031F000069307932548264A0260436083604FF692
:10320000FF72C26003618361FEF7D2FE58BB4FF4C8
:1032100080530A930AA91D48FEF7CBFF30BB1B4819
:10322000FEF7F2FE28BB00230893099308A917486C
:10323000FFF73EF800BB6023019300220292039245
:10324000059201A91148FEF739FFC0B904220DEB20
:1032500002010E48FEF732FFA0B90C48FFF78EFFBF
:103260000FB05DF804FBFDF7DBF8D0E7FDF7D8F809
:10327000D5E7FDF7D5F8D6E7FDF7D2F8DBE7FDF7A0
:10328000CFF8E3E7FDF7CCF8E7E700BF4402002002
:10329000000400400379032B13D8DFE803F0020594
:1032A000090C0023C3607047C3699B08C360704763
:1032B000C369C3607047C36903EB43039B08C360E2
:1032C00070470023C360704738B5514B1C682578A0
:1032D00005B938BDFDF704F820614D4B1B681A692C
:1032E0005869121ADA61D9688A42F2D3198D01310C
:1032F00089B219859C69001B824256D91862987957
:10330000012854D01C6A00FB04F45C62586A8242B3
:1033100003D893F82A2091425AD993F82A2091424F
:103320004BD200225A703A490868438801334380DF
:10333000384B1A600020D8600B681A85344B186827
:10334000437907EE103AB8EE477ADFED336AC6EEFE
:10335000877A038D07EE103AB8EE477A67EE877AE0
:103360002C4AC2ED017A016A2C4BB3FBF1F341798F
:10337000B3FBF1F307EE903AF8EE677AC2ED037A09
:103380004378012B26D04378012B2ED04378002B95
:1033900036D1204B01225A74002D35D01C4B1B68AE
:1033A0005A699A611A695A6193E71A62A7E7186A1B
:1033B00000EB400040085862A8E701225A70154A05
:1033C000136801331360124B1B6800221A85B5E79E
:1033D0000025B3E790ED027AF4EEC77AF1EE10FA29
:1033E000D1DB134603225A74CDE790ED027AF4EE56
:1033F000C77AF1EE10FAC9D5064B02225A74C5E716
:10340000044B00225A74C7E7FFF744FFC6E700BF2A
:10341000D4020020680100200000B4430087930319
:1034200008B500220F49104800F032FC70B90F496E
:103430000D4800F044FC60B90D490B4800F039FA22
:1034400050B9094800F05BFC48B908BDFCF7E8FF3B
:10345000EDE7FCF7E5FFEFE7FCF7E2FFF1E7FCF74C
:10346000DFFFF2E7DC000020D8020020500000203F
:103470009400002010B5D0F8D43203F1B00250F817
:1034800022408CB100EB820043687BB194F80002CB
:10349000FF280DD09B6894F8012221469847FF230E
:1034A00084F80032002010BD0320FCE70020FAE77A
:1034B0000020F8E70A2303800048704788000020B6
:1034C000F8B506460F4F8221384600F0CBFD054681
:1034D0000121384600F0C6FD04468121384600F03F
:1034E000C1FD0DB11022AA711CB14022227100222F
:1034F000627118B14022027100224271432333806D
:103500000048F8BD0C000020F8B506460F4F822198
:10351000384600F0A7FD05460121384600F0A2FD1F
:1035200004468121384600F09DFD0DB11022AA719C
:103530001CB1402222710022627118B14022027136
:1035400000224271432333800048F8BD0C00002064
:10355000F8B506460F4F8221384600F083FD054638
:103560000121384600F07EFD04468121384600F0F6
:1035700079FD0DB11022AA711CB100222271022224
:10358000627118B10022027102224271432333801A
:103590000048F8BD0C00002038B5D0F8D432B03364
:1035A00050F8235095B1044600F01AFBC5F80C0200
:1035B000D4F8D432B03304EB83046368DB6805F5D8
:1035C0000371D5F804029847002038BD0320FCE7BA
:1035D00038B5D0F8C852D0F8D432B03350F82340C0
:1035E00084B301F00F0303EB830200EB82029269C4
:1035F0004AB103EBC30C05EB8C05ED69B2FBF5FC9E
:1036000005FB1C2292B10023C4F81432D0F8D43246
:10361000B03300EB830043681B69ABB10A4604F585
:103620000471D4F808029847002038BD03EB8303E7
:1036300000EB830300249C612346224600F018FB24
:103640002046F2E70320F0E70020EEE7F0B583B074
:10365000D0F8D43203F1B00250F8227000228DF875
:103660000720ADF80420002F78D004460D460978D5
:1036700011F0600634D0202E69D1EA882AB311F007
:10368000800F0ED16B7887F80032EA883F2A1AD86B
:10369000D2B287F801223946204601F04CF90026C3
:1036A00059E0B03300EB83035B689B683946687868
:1036B0009847EA88072A28BF07223946204601F0A2
:1036C00025F9002647E04022E3E7B03300EB83030F
:1036D0005B689B68002229466878984700263AE094
:1036E0006F780B2F2ED8DFE807F006362D2D2D2D05
:1036F0002D2D2D2D152490F89C32032B04D0294616
:1037000000F0EDFC032626E0022201A901F0FEF8FC
:103710003E4620E090F89C32032B04D0294600F06E
:10372000DEFC032617E001220DF1070101F0EEF89F
:1037300011E090F89C32032B0DD0294600F0CFFC0D
:10374000032608E0294600F0CAFC032603E02946C8
:1037500000F0C5FC0326304603B0F0BD0326FAE7AF
:1037600038B50446812100F063FA00252587012140
:10377000204600F05DFAA4F878518221204600F03E
:1037800057FAA4F84C50A4F84E50D4F8D43203F1B0
:10379000B00254F822209AB1B03304EB83035B6883
:1037A0005B689847D4F8D432B03354F8230000F063
:1037B00021FAD4F8D432B03344F82350C4F8BC52C0
:1037C000002038BD70B504464FF4077000F00EFAC3
:1037D000002849D005464FF40772002101F038F95E
:1037E000D4F8D432B03344F82350C4F8BC52237C0C
:1037F000002B41D14FF4007302228121204600F0BA
:103800000CFA012626874FF4007302223146204627
:1038100000F003FAA4F878611023A4F84E300823CE
:1038200003228221204600F0F8F90123A4F84C304D
:103830000026C5F80462D4F8D432B03304EB830315
:103840005B681B689847C5F81462C5F81862D5F81C
:10385000042262B3257C1DBB4FF400730121204676
:1038600000F00EFA284670BDD4F8D432B0330022EE
:1038700044F823200225F5E7402302228121204637
:1038800000F0CBF90126268740230222314620464C
:1038900000F0C3F9A4F878611023A4F84E30BEE715
:1038A00040230121204600F0EBF90025DAE702254C
:1038B000D8E739B1D0F8D432B03300EB830041609F
:1038C0000020704703207047D0F8D432B03350F84E
:1038D00023302BB1C3F80812C3F810220020704720
:1038E00003207047D0F8D432B03350F823301BB1E6
:1038F000C3F80412002070470320704708B5D0F8C1
:10390000D432B03350F823208AB1D2F814320BB13C
:10391000012008BD0123C2F81432D2F81032C3626C
:10392000D2F80822812100F0A3F90020F1E703205A
:10393000EFE710B5D0F8D432B03350F8232092B16D
:10394000047C44B94FF40073D2F80422012100F042
:1039500097F9204610BD4023D2F80422012100F03F
:103960008FF90024F5E70324F3E7002070470020D7
:10397000704700207047000010B50146044C2046F7
:10398000FFF7B0FF2046FFF7D4FF002010BD00BFB7
:10399000D802002010B5064C002206492046FFF749
:1039A00093FF05492046FFF79DFF002010BD00BF93
:1039B000D8020020B4050020B4090020094BD3F838
:1039C000BC32D3F814320BB10120704710B5054C4E
:1039D0000A4601462046FFF777FF2046FFF78EFF95
:1039E00010BD00BFD802002030B589B0002303937A
:1039F00004930593069307930368B3F1A04F01D096
:103A000009B030BD03AA00250195174C236B43F084
:103A100001032363236B03F001030193019B4FF424
:103A2000C053039302230493032306930A230793AB
:103A300011460E48FCF718FE636B43F08003636386
:103A40000295636C43F480436364636C03F48043C6
:103A50000293029B2A4629464320FCF7F1FD4320AE
:103A6000FCF7FEFDCCE700BF00380240000002403A
:103A700008B500F29C41D0F8E00400F056F908BD0A
:103A800008B501EBC10300EB8303D3F86022D0F843
:103A9000E00400F017FA08BD08B501EBC10300EB24
:103AA00083031A6AD0F8E00400F06CFA08BD08B588
:103AB000D0F8E00400F0B4F908BD10B50446C379AD
:103AC000022B09D10121D4F8E00400F08CF9D4F8DC
:103AD000E00400F056F910BDFCF7A2FCF2E700008C
:103AE00010B50446D0F8E00400F080F92268D2F85E
:103AF000003E43F00103C2F8003EE37A23B1034ADB
:103B0000136943F00603136110BD00BF00ED00E030
:103B100008B5D0F8E00400F077F908BD08B5D0F892
:103B2000E00400F0A3F908BD08B5D0F8E00400F007
:103B300087F908BD08B5D0F8E00400F0ADF908BD7C
:103B400008B5D0F8E00400F0A9F908BD02780AB180
:103B50000020704710B503461548C0F8E034C3F89C
:103B6000C8024FF0A0430360042303710222C27114
:103B70000023837142728372C37203738373C373AE
:103B8000FCF7E8FE80B90A4C80212046FDF7B1FC25
:103B9000402200212046FDF786FC8022012120469C
:103BA000FDF781FC002010BDFCF73AFCEBE700BFFD
:103BB000D40F0020D0F8C83211F0800F08D101F0E6
:103BC0007F0101EBC10103EB810393F856027047BB
:103BD00001F07F0101EBC10103EB8103987D704788
:103BE00008B5D0F8C802FDF7B9F808BD004870471D
:103BF000B40D00207047032805D8DFE800F0050465
:103C00000205012070470320704708B5D0F8C802AC
:103C1000FCF721FFFFF7EFFF08BD08B594461A46F1
:103C20006346D0F8C802FCF7F6FFFFF7E4FF08BDD3
:103C300008B5D0F8C802FDF734F8FFF7DCFF08BD7F
:103C400008B5D0F8C802FDF7B7F8FFF7D4FF08BDF4
:103C500008B5D0F8C802FDF7F2F8FFF7CCFF08BDB1
:103C600008B5D0F8C802FCF7C3FFFFF7C4FF08BDD2
:103C700008B5D0F8C802FDF77AF8FFF7BCFF08BD19
:103C800008B5D0F8C802FDF744F8FFF7B4FF08BD47
:103C900098B108B503460020C3F8B802C3F8C402BF
:103CA000C3F8D00209B1C3F8B412012183F89C1201
:103CB0001A701846FFF74AFF08BD0320704710B579
:103CC00082B00023ADF80630B9B10446C0F8B8128E
:103CD000D0F8D422CB6A43B1AE3250F82230DB6A3E
:103CE0000DF106009847C4F8D002D4F8D832013359
:103CF000C4F8D832002002B010BD0320FBE708B59D
:103D0000FFF783FF08BD08B5D0F8B83213B11B68C0
:103D1000984708BD0020FCE708B5D0F8B8325B68CA
:103D2000984700B908BD0320FCE738B5044600F207
:103D3000AA25284600F0BFF90123C4F89432B4F84C
:103D4000B032C4F8983294F8AA1201F01F03012B84
:103D500007D0022B0AD073B92946204600F080FB19
:103D600038BD2946204600F0B6FBF9E72946204633
:103D700000F0F3FBF4E701F080012046FFF760FF5D
:103D8000EEE7F8B50446012380F89C320023C0F822
:103D900094324360C0F8A43280F8A032D0F8B83230
:103DA000DBB15B68DBB1002198470746C8B9402307
:103DB000002211462046FFF730FF0126A4F8646177
:103DC0004025C4F860512B46002280212046FFF791
:103DD00024FFA68425623846F8BD0027E7E70027C0
:103DE000E5E70327E3E701740020704790F89C3271
:103DF000042B04D090F89C32DBB280F89D3204236F
:103E000080F89C320020704790F89C32042B01D03F
:103E10000020704790F89D32DBB280F89C32F7E7C3
:103E200008B590F89C32032B01D0002008BDD0F8D3
:103E3000B832002BF9D0DB69002BF6D09847F4E7B5
:103E400008B5D0F8D432AE3350F8233053B190F8DF
:103E50009C22032A01D0002008BD1B6A23B1984789
:103E60000020F9E70320F7E70020F5E708B5D0F8D0
:103E7000D432AE3350F8233053B190F89C22032A49
:103E800001D0002008BD5B6A23B198470020F9E704
:103E90000320F7E70020F5E70020704708B501236D
:103EA00080F89C32D0F8B83223B15B68017998472A
:103EB00010B908BD0020FCE70320FAE70020704796
:103EC0000020704738B504460D46002941D11346FD
:103ED000D0F89422032A01D0084638BDD0F85C11EE
:103EE000D0F86021914209D890F8AA3203F01F035C
:103EF000012B0ED0022B1AD028460FE0891AC0F8E9
:103F00005C118A4228BF0A46194600F023FD284664
:103F1000E3E790F8AE12FFF7D1FF18B994F89C329E
:103F2000032B09D0204600F01DFD2846D5E790F868
:103F3000AE12FFF7C5FFF0E700F1AE0354F82330EF
:103F40001A69002AEED0C4F8D4021B6920469847AB
:103F5000E8E701F07F01FFF7B3FF88B994F89C32DE
:103F6000032BBAD100F1AE0354F823309A69002A2A
:103F7000B3D0C4F8D4029B69294620469847ACE7E1
:103F80000020AAE738B504460D4600294AD1134659
:103F9000D0F89422022A07D094F8A00218B1002386
:103FA00084F8A032284638BDC269016A8A420DD819
:103FB0008A4217D094F89C32032B27D080212046C8
:103FC000FFF73EFE204600F0D8FCE5E7521AC2613A
:103FD000194600F0A8FC00231A4619462046FFF7B0
:103FE0004FFED9E783699942E4D8D0F898229342EA
:103FF000E0D20022114600F096FC0021C4F898128D
:104000000B460A462046FFF73BFEC5E7D4F8B83218
:10401000DA68002AD2D00022C4F8D422DB68204615
:104020009847CBE741F08001FFF74AFF88B994F841
:104030009C32032BB7D100F1AE0354F823305A69F8
:10404000002AB0D0C4F8D4025B69294620469847BC
:10405000A9E70020A7E70B88027813440B800378B8
:1040600018447047428803789A4218D930B583B013
:1040700004460D46ADF806306388BDF806209A4226
:104080000AD20DF10601FFF7E6FF4378052BF3D1C5
:104090008378AB42F0D100E0002003B030BD0020B7
:1040A00070470346002002E00130C0B201331A78A5
:1040B000002AF9D170470B7803704B7843708B78E6
:1040C000CA7843EA022343800B794A7943EA022300
:1040D00083808B79CA7943EA0223C380704710B585
:1040E00004468021FFF7ACFD00212046FFF7A8FD24
:1040F00010BD30B583B004460D460023ADF8063040
:104100004A88130A013B062B00F2AA80DFE803F07D
:10411000041E32A8A88C9900D0F8B4321B680DF1A7
:104120000601007C9847EA88002A00F0A380BDF8C9
:104130000630002B00F099809A4228BF1A46ADF84D
:1041400006200146204600F0E1FB8CE0037C43B9E9
:10415000D0F8B8329B6A0DF10600984702234370ED
:10416000E1E7D0F8B832DB6A0DF106009847022388
:104170004370D8E7D2B2052A52D8DFE802F0031024
:104180001D2A3744D0F8B4325B6823B10DF1060123
:10419000007C9847C7E72946FFF7A1FF63E0D0F806
:1041A000B4329B6823B10DF10601007C9847BAE751
:1041B0002946FFF794FF56E0D0F8B432DB6823B10C
:1041C0000DF10601007C9847ADE72946FFF787FF10
:1041D00049E0D0F8B4321B6923B10DF10601007C2F
:1041E0009847A0E72946FFF77AFF3CE0D0F8B432C1
:1041F0005B6923B10DF10601007C984793E72946DE
:10420000FFF76DFF2FE0D0F8B4329B6923B10DF1B9
:104210000601007C984786E72946FFF760FF22E009
:104220002946FFF75CFF1EE0037C33B9D0F8B832B3
:104230005B6B0DF10600984775E72946FFF74FFFC6
:1042400011E0037C43B9D0F8B8321B6B0DF10600C6
:1042500098470723437066E72946FFF740FF02E0CF
:104260002946FFF73CFF03B030BD29462046FFF743
:1042700036FFF8E7204600F075FBF4E738B5044652
:104280008B88F3B9CB88E3B94B887F2B19D803F01F
:104290007F0590F89C32032B0CD080F89E52294663
:1042A000FFF7DEFC204600F05DFB35B1022384F809
:1042B0009C3209E0FFF713FF06E0012384F89C32EB
:1042C00002E02046FFF70BFF38BD000070B5044642
:1042D0000E468D782F4B1D70012D10D890F89C3212
:1042E000DAB2022B0FD0032A26D0FFF7F8FE294BB3
:1042F00019782046FFF710FD0325284670BDFFF70B
:10430000EEFE0325F9E7A5B145602946FFF7FBFC62
:10431000054638B131462046FFF7E1FE022384F816
:104320009C32EAE7204600F01DFB032384F89C3210
:10433000E3E700F017FBE0E7CDB141688D4225D0FF
:10434000C9B2FFF7E9FC134B197861602046FFF70B
:10435000DAFC0546B0B131462046FFF7C0FE2179B0
:104360002046FFF7D9FC022384F89C32C5E70223DC
:1043700080F89C3245602946FFF7CEFC204600F0CD
:10438000F1FABAE7204600F0EDFAB6E700F0EAFAF3
:104390000025B2E7B814002008B5CB88012B0BD15B
:1043A00090F89C32DAB2022B09D9032A11D10122EA
:1043B000011D00F0ABFA01E0FFF791FE08BD52B21B
:1043C0003AB10146002341F8083F012200F09EFA6D
:1043D000F4E7FFF784FEF1E708B590F89C32013B63
:1043E000022B12D8CB88022B0CD10123C360D0F84A
:1043F000A4320BB10323C360022200F10C0100F0D0
:1044000085FA08BDFFF76BFEFBE7FFF768FEF8E7EC
:1044100008B54B88012B04D0022B07D0FFF75FFEB5
:1044200008BDC0F8A43200F09DFAF9E78B881B0A9A
:1044300080F8A03200F096FAF2E708B590F89C32C6
:10444000013B022B09D84B88012B00D008BD00236B
:10445000C0F8A43200F086FAF8E7FFF740FEF5E76F
:1044600038B50C7804F06004202C06D0402C04D021
:104470006CB1FFF734FE002407E0D0F8D432AE333D
:1044800050F823309B6898470446204638BD4D7845
:10449000092D1DD8DFE805F012191C161C08051C93
:1044A0000F0BFFF726FEF0E7FFF7E8FEEDE7FFF75B
:1044B0000DFF0446E9E7FFF76FFFE6E7FFF78CFF24
:1044C0002C46E2E7FFF7A4FFDFE7FFF7B6FFDCE7E4
:1044D000FFF705FED9E770B505460C460B7803F0EB
:1044E0006003202B07D0402B05D023B1FFF7F7FD49
:1044F0000026304670BD95F89C32013B022B26D831
:104500002179012905D921462846FFF7E8FD002633
:10451000EFE72846FFF7D2FC68B900F1AE0255F884
:104520002220916889B1C5F8D402936821462846B3
:104530009847064600E00326E388002BD9D1002ED9
:10454000D7D1284600F00EFAD3E70326F4E7214638
:104550002846FFF7C4FD0026CBE72DE9F0410646CB
:104560000D468B88DFB20C7804F06004202C08D054
:10457000402C06D0DCB1FFF7B2FD00242046BDE898
:10458000F08139463046FFF79BFC0446002840F096
:10459000FC80C6F8D40200F1AE0356F823309B68C5
:1045A000002BEBD02946304698470446E6E791F8C1
:1045B0000180B8F1010F31D0B8F1030F05D0B8F187
:1045C000000F67D0FFF78BFDD8E790F89C32DAB286
:1045D000022B04D0032A12D0FFF781FDCEE70FB1E2
:1045E000802F04D129463046FFF779FDC6E73946CA
:1045F000FFF726FB80213046FFF722FBBEE74B8802
:1046000023B91FB1802F01D0CB881BB1304600F0F9
:10461000A9F9B3E73946FFF713FBF7E790F89C32A7
:10462000DAB2022B04D0032A12D0FFF758FDA5E717
:104630000FB1802F04D129463046FFF750FD9DE78A
:104640003946FFF7FDFA80213046FFF7F9FA95E782
:104650004B88002B92D117F07F0F17D1304600F016
:1046600081F939463046FFF72BFC002886D1C6F881
:10467000D40200F1AE0256F822209268002A00F01F
:104680008680294630469047044677E73946FFF74B
:10469000DFFAE3E790F89C22D1B2022A06D0032980
:1046A00029D02946FFF71BFD444667E70FB1802F4D
:1046B00013D113F0800F15D107F07F0707EB8707A1
:1046C000B90001F5A8713144043100230B600222C6
:1046D000304600F01BF9444650E72946FFF7FFFC3F
:1046E00044464BE707F07F0707EB8707B900103117
:1046F00031440431E9E75BB2002B1FDB07F00F0206
:1047000002EB820200EB8202B2F8642122B3002B9A
:1047100027DB07F07F0303EB83039C0004F5A874F9
:10472000344404340FB1802F24D1002323600222AB
:104730002146304600F0EAF844461FE707F00F0232
:1047400002EB820200EB8202928C002ADFD1294622
:10475000FFF7C5FC444611E72946FFF7C0FC444675
:104760000CE707F07F0303EB83039C001034344411
:104770000434D7E739463046FFF71CFA10B101235D
:104780002360D4E700232360D1E70024F6E6044643
:10479000F4E600B370B50D4616460446FFF781FCFB
:1047A00001304300B3F5007F06D89BB233802B70F5
:1047B00003236B7002230AE04FF40073F6E7EA5418
:1047C00001345A1CD2B20021A9540233DBB2227840
:1047D000002AF4D170BD704712230B800048704747
:1047E000C800002004230B8000487047C40000204C
:1047F000002393421ED200B510E00CF1370C01F8F3
:1048000013C000014FEA430C0CF1010C4FF0000EF5
:1048100001F80CE00133DBB2934209D24FEA107C7D
:10482000B0F1204FE9D20CF1300C01F813C0E8E7E9
:104830005DF804FB7047000038B50B4BD3F8100A45
:10484000D3F8144AD3F8183AC01800D138BD074D30
:1048500008222946FFF7CCFF042205F1100120466B
:10486000FFF7C6FFF2E700BF0070FF1FAA0000209D
:1048700008B51A230B80FFF7DFFF014808BD00BF12
:10488000A800002008B50A4628B905490548FFF7E1
:1048900080FF034808BD02490248FFF77AFFF8E7A6
:1048A000BC140020BC56000810B50A46034C214633
:1048B0000348FFF76EFF204610BD00BFBC14002068
:1048C000D856000808B50A4628B905490548FFF733
:1048D00060FF034808BD02490248FFF75AFFF8E7A6
:1048E000BC140020EC56000808B50A4628B9054952
:1048F0000548FFF74EFF034808BD02490248FFF78D
:1049000048FFF8E7BC140020F856000808B5134625
:104910000222C0F894228361C3610A460021FFF796
:10492000A7F9002008BD08B513460A460021FFF785
:104930009FF9002008BD08B513460322C0F8942251
:10494000C0F85831C0F85C310A460021FFF798F9E9
:10495000002008BD08B513460A460021FFF790F96C
:10496000002008BD08B50422C0F8942200231A468E
:104970001946FFF77DF9002008BD08B50522C0F8EB
:10498000942200231A461946FFF77AF9002008BD41
:10499000DFF834D0FEF71CFB0C480D490D4A00230C
:1049A00002E0D458C4500433C4188C42F9D30A4AE4
:1049B0000A4C002301E013600432A242FBD300F052
:1049C00055F8FBF785FD704700000120000000202E
:1049D0004801002064570008480100200418002006
:1049E000FEE700000CB430B5184B0C1E1D689DB0DE
:1049F00008DA8B232B604FF0FF301DB0BDE830404C
:104A000002B070474FF40273ADF814304FF000035A
:104A10001B9314BF04F1FF332346049307934FF60F
:104A2000FF7302900690ADF81630209A21AB02A9D0
:104A30002846019300F098F9431CBCBF8B232B60E0
:104A4000002CDAD0029B00221A70D6E7F800002072
:104A500002440346934200D1704703F8011BF9E773
:104A6000014B1868704700BFF800002070B50D4B6F
:104A70000D4D5B1B9C100026A64209D100F0E8FDFD
:104A80000A4D0B4B5B1B9C100026A64205D170BD46
:104A900055F8043B98470136EEE755F8043B984734
:104AA0000136F2E75C5700085C5700085C570008C5
:104AB000605700087047704738B50546002941D057
:104AC00051F8043C0C1F002BB8BFE41800F0E0F8CC
:104AD0001D4A136833B9636014602846BDE8384046
:104AE00000F0DCB8A34208D9206821188B4201BF2E
:104AF00019685B6809182160EDE71A465B680BB11D
:104B0000A342FAD911685018A0420BD12068014481
:104B1000501883421160E0D118685B685360084404
:104B20001060DAE702D90C232B60D6E72068211841
:104B30008B4204BF19685B68636004BF0918216079
:104B40005460CAE738BD00BF0018002070B50F4E92
:104B50000C463168054611B900F0AAFB30602146C9
:104B6000284600F0A5FB431C03D14FF0FF3420463C
:104B700070BDC41C24F00304A042F8D0211A2846BA
:104B800000F096FB0130F2D1EFE700BFFC170020E8
:104B90002DE9F843CD1C25F0030508350C2D38BF51
:104BA0000C25002D064601DBA94204D90C233360F5
:104BB0000020BDE8F883DFF8D48000F069F8D8F869
:104BC00000301C4644BB29463046FFF7BFFF431C5C
:104BD000044658D1D8F800402746002F43D1002C76
:104BE0004BD023683946304604EB030900F060FBE4
:104BF000814542D121686D1A29463046FFF7A6FF4C
:104C000001303AD023682B442360D8F800305A682A
:104C100062BBC8F800700FE02268521B20D40B2A38
:104C200017D96119A342256018BF5960636808BF8E
:104C3000C8F8001062514B60304600F02FF804F1C4
:104C40000B00231D20F00700C21A1CBF1B1AA35023
:104C5000AFE76268A3420CBFC8F800205A60EBE7D8
:104C600023466468AEE73C467F68B6E71A465B6851
:104C7000A342FBD100235360DEE70C2333603046B0
:104C800000F00CF894E70560D6E700BF001800209C
:104C90000148FFF70FBF00BFF81700200148FFF7DA
:104CA0000ABF00BFF81700202DE9F0478E681F46A5
:104CB000BE4282460C469046334653D8B1F90C00AA
:104CC00010F4906F2BD065692368096905EB4505E1
:104CD000A3EB010905EBD5757B1C6D104B44AB4272
:104CE0002A4684BF1D462A46430527D5114650460D
:104CF000FFF74EFF064658B321694A4600F0E8FA2E
:104D0000A38923F4906343F08003A3812661656146
:104D10004E44A5EB09052660A5603E463B461F466E
:104D200020683A46414600F0A9FAA3689B1BA3609D
:104D300023683B4423600020BDE8F087504600F024
:104D4000D5FA06460028E1D121695046FFF7B4FEA6
:104D50000C23CAF80030A38943F04003A3814FF02D
:104D6000FF30E9E73E46DBE72DE9F04F98468B89B7
:104D70001B069DB007460D46144610D50B6973B946
:104D80004021FFF705FF2860286130B90C233B6004
:104D90004FF0FF301DB0BDE8F08F40236B61002362
:104DA000099320238DF82930CDF80C803023DFF8CB
:104DB0009C818DF82A304FF0010923469A4613F85A
:104DC000012B0AB1252AF9D1BAEB040B0BD05B46B3
:104DD000224629463846FFF767FF013000F0A780DA
:104DE000099A5A4409929AF80030002B00F09F80EB
:104DF00000234FF0FF32CDE905230AF1010A0493A5
:104E000007938DF853301A935446052214F8011B6A
:104E10004E48FBF7C5F9049AD8B9D00644BF202301
:104E20008DF85330110744BF2B238DF853309AF877
:104E300000302A2B15D0079A544600204FF00A0C58
:104E4000214611F8013B303B092B4BD9B0B10792F9
:104E500014E0A0EB080309FA03F313430493A246FA
:104E6000D2E7039B191D1B680391002BBBBF5B425C
:104E700042F0020207930793B8BF049223782E2BC7
:104E80000AD163782A2B32D1039B1A1D1B68039227
:104E900043EAE37302340593DFF8C0A021780322CC
:104EA0005046FBF77DF938B1049BA0EB0A00402285
:104EB000824013430134049314F8011B24488DF8F5
:104EC00028100622FBF76CF9002836D0214B1BBBBB
:104ED000039B073323F0070308330393099B3344F1
:104EE00009936AE70CFB02320C460120A8E7002375
:104EF0000134059319464FF00A0C204610F8012B97
:104F0000303A092A03D9002BC6D00591C4E70CFB1F
:104F1000012104460123F0E703AB00932A460E4B20
:104F200004A93846AFF30080421C0646D6D1AB89AF
:104F30005B063FF52DAF09982CE703AB00932A469B
:104F4000054B04A9384600F079F8EDE72057000832
:104F50002A57000800000000A94C00082657000846
:104F60002DE9F047164698468A680B69DDF82090CF
:104F70009342B8BF1346336091F8432007460C466E
:104F80000AB1013333602368990642BF33680233A4
:104F90003360256815F0060506D104F1190AE368A7
:104FA00032689B1AAB4226DC94F843302268003BFF
:104FB00018BF012392062BD404F143024146384620
:104FC000C84701301ED02368226903F00603042B72
:104FD00002BFE5683368ED1AA3680CBF25EAE575E2
:104FE00000259342C4BF9B1AED1800261A34B5421F
:104FF0001AD1002008E00123524641463846C847EE
:10500000013003D14FF0FF30BDE8F0870135C6E72E
:10501000E1185A1C302081F84300224494F84510CE
:1050200082F843100233C7E701232246414638463F
:10503000C8470130E6D00136D9E700002DE9FF4727
:105040000F7E0C9E782F914680460C469A4601F1C1
:10505000430207D8622F0AD8002F00F0D280582FC1
:1050600000F0B78004F1420684F842703AE0A7F1FC
:105070006303152BF6D801A151F823F0D550000891
:10508000E9500008655000086550000865500008A8
:1050900065500008E9500008655000086550000898
:1050A0006550000865500008E951000813510008D8
:1050B0009F51000865500008655000080B52000819
:1050C000655000081351000865500008655000083D
:1050D000A751000833681A1D1B68326004F14206AC
:1050E00084F8423001239DE033682068191D316047
:1050F000060601D51D6803E04506FBD5B3F900504F
:10510000002D03DA2D236D4284F8433059480A23D9
:1051100010E021683368080653F8045B02D449069E
:1051200048BFADB26F2F5348336059D108230021D7
:1051300084F843106668A660002E05DB21682E43C4
:1051400021F0040121604DD01646B5FBF3F103FBBD
:105150001157C75D06F8017D2F46BB420D46F4D9B5
:10516000082B0BD12368DF0708D5236961689942B2
:10517000DEBF302306F8013C06F1FF36921B2261A8
:10518000CDF800A04B4603AA21464046FFF7E8FEB3
:1051900001304CD14FF0FF3004B0BDE8F0872368F8
:1051A00043F0200323603448782784F8457023684F
:1051B00031681F0651F8045B02D45F0648BFADB2E8
:1051C0003160D90744BF43F0200323601DB1102391
:1051D000ADE72848E9E7236823F020032360F6E7DA
:1051E0000A23A4E71646BBE7336825686169181DE2
:1051F00030602E061B6801D5196002E06806FBD5F9
:105200001980002323611646BAE733681A1D3260FD
:105210001E68626800213046FAF7C2FF08B1801BA1
:10522000606063682361002384F84330A8E7236942
:10523000324649464046D0470130ABD023689B07F1
:1052400013D4E068039B9842B8BF1846A4E7012333
:10525000324649464046D04701309BD00135E3688D
:1052600003995B1AAB42F2DCEBE7002504F1190667
:10527000F5E700BF3157000842570008884210B5D3
:1052800001EB020402D98442234607D8431EA142FF
:1052900007D011F8012B03F8012FF8E702448242EE
:1052A00000D110BD13F8011D02F8011DF7E7000041
:1052B00038B5064D0023044608462B60FDF764FE12
:1052C000431C02D12B6803B1236038BDF4170020C2
:1052D0000A44914200F1FF3300D1704710B511F834
:1052E000014B03F8014F9142F9D110BD2DE9F04176
:1052F000074614460D4621B9BDE8F0411146FFF7B7
:1053000047BC2AB9FFF7D8FB25462846BDE8F081FF
:1053100000F01AF88442064602D8B4EB500FF4D8D5
:1053200021463846FFF734FC804608B94546ECE78D
:10533000B4422246294628BF3246FFF7C9FF294614
:105340003846FFF7B9FBF1E751F8043C181F002B72
:10535000BCBF0B58C01870472DE9F047089D0F4699
:1053600004468C46002B48D18A42164661D9B2FACF
:1053700082F34BB1C3F1200201FA03FC20FA02F2DE
:105380009E4042EA0C0C9C404FEA164EB7B2BCFB62
:10539000FEF1220C0EFB11CC42EA0C4201FB07F09D
:1053A000904209D9B21801F1FF3C80F0EE809042A2
:1053B00040F2EB8002393244121AA4B2B2FBFEF082
:1053C0000EFB102244EA024400FB07F7A74209D96A
:1053D000341900F1FF3280F0DA80A74240F2D78022
:1053E0003444023840EA0140E41B00211DB1DC4096
:1053F0000023C5E90043BDE8F0878B4206D90DB113
:10540000C5E9000100210846BDE8F087B3FA83F141
:10541000002948D1BB4202D3824200F20781841A9C
:1054200067EB030201209446002DE4D0C5E9004C4F
:10543000E1E7002A00F09280B2FA82F3002B40F0FC
:10544000A8808A1A4FEA164E1FFA86FC0121200C0A
:10545000B2FBFEF70EFB172240EA02420CFB07F0FC
:10546000904207D9B21807F1FF3802D2904200F2F9
:10547000E2804746121AA4B2B2FBFEF00EFB1022E5
:1054800044EA02440CFB00FCA44507D9341900F19E
:10549000FF3202D2A44500F2CB801046A4EB0C04EC
:1054A00040EA0740A2E7C1F120068B4022FA06FC41
:1054B0004CEA030C07FA01F420FA06F3F7404FEA2E
:1054C0001C49234300FA01F81FFA8CFEB7FBF9F0E0
:1054D0001C0C09FB107744EA074400FB0EF7A742B7
:1054E00002FA01F20AD91CEB040400F1FF3A80F041
:1054F0009B80A74240F2988002386444E41B9FB22C
:10550000B4FBF9F309FB134447EA044403FB0EFE22
:10551000A64509D91CEB040403F1FF3780F0828013
:10552000A6457FD9023B644443EA0040A4EB0E0445
:10553000A0FB02E7BC427346B94663D360D05DB1BD
:10554000B8EB030264EB090404FA06F622FA01F34D
:105550001E43CC40C5E9006400214CE762084808BE
:1055600042EAC1710B0C43EA00438AB242EA0342A9
:10557000B3FBF6F1E407B4463746B6461F23B0FB4B
:10558000F6F0D21B41EA004161E7614614E710469C
:1055900028E7C3F1200120FA01F29E4027FA01F129
:1055A0009F403A434FEA164E1FFA86FCB1FBFEF7C6
:1055B0000EFB1710110C41EA004107FB0CF888455F
:1055C00004FA03F43AD9711807F1FF3001D2884583
:1055D0001FD8A1EB0801B1FBFEF808FB0CF70EFB8E
:1055E000181192B242EA0142BA422FD2B21808F11F
:1055F000FF31C6D2BA42C4D2A8F102013244C0E798
:10560000F0459CD2BEEB020367EB0C070138B946AC
:1056100095E7A6EB08084144B81EB1FBFEF808FB6D
:105620000CF7DCE73B467FE7504667E70846FBE6BA
:105630003444023832E7023F32441BE7A1EB080151
:105640003846B1FBFEF808FB0CF7C8E7414698E77F
:10565000F8B500BFF8BC08BC9E467047F8B500BF5F
:08566000F8BC08BC9E4670472F
:105668004572726F723A2025730A00005761726E94
:10567800696E673A2025730A000000005468697350
:1056880020697320616E206578616D706C65207784
:1056980061726E696E6721005468697320697320AE
:1056A800616E206578616D706C65206572726F72CD
:1056B80021000000536D6172742047656E65726148
:1056C800746F7220436F6E74726F6C6C6572000039
:1056D80053544D6963726F656C656374726F6E695C
:1056E8006373000043444320436F6E66696700009C
:1056F80043444320496E7465726661636500000027
:105708000000000001020304000000000000000087
:105718000102030406070809232D302B2000686CBA
:105728004C006566674546470030313233343536BC
:1057380037383941424344454600303132333435F5
:0C57480036373839616263646566000022
:085754004CAAFF7F01000000D8
:04575C0099020008A6
:0457600075020008C6
:1057640001000000100000000024F40009024300BE
:10577400020100C0320904000001020201000524F4
:10578400001001052401000104240202052406007E
:10579400010705820308001009040100020A000041
:1057A40000070501024000000705810240000000D7
:1057B400C5370008613700084D36000800000000B6
:1057C40075340008D1350008993500080000000040
:1057D40000000000000000005135000809350008F1
:1057E400C1340008B53400080A0600020000004075
:1057F40001000000953900086B3900086F39000872
:1058040079390008733900081A0300000000000009
:105814000000000000000000000000000000000084
:105824000000000004030904120100020202004007
:10583400830440570002010203010000D947000815
:10584400E5470008A9480008854800087148000891
:10585400C5480008E9480008FC00002000000000DA
:10586400BC160020241700208C1700200000000024
:105874000000000000000000000000000000000024
:105884000000000000000000000000000000000014
:105894000000000000000000000000000000000004
:0858A4000000000000000000FC
:040000050800499115
:00000001FF
