:020000040800F2
:10000000000001206175000811400008134000083D
:1000100015400008174000081940000800000000C3
:10002000000000000000000000000000B10D00080A
:100030001B40000800000000510E00088105000868
:10004000B1750008B1750008B1750008B1750008F8
:10005000B1750008B1750008B1750008B1750008E8
:10006000B1750008B1750008B1750008B1750008D8
:10007000B1750008B1750008B1750008B1750008C8
:10008000B1750008B1750008B175000800000000E6
:10009000000000000000000000000000B175000832
:1000A000B1750008B17500081D400008B175000861
:1000B000B1750008B1750008B1750008B175000888
:1000C000B1750008B1750008B1750008B175000878
:1000D000B1750008B1750008B17500080000000096
:1000E00035400008B1750008B17500080000000037
:1000F000000000000000000000000000B1750008D2
:1001000000000000B1750008B1750008B175000865
:1001100000000000000000000000000000000000DF
:1001200041400008B1750008B1750008B1750008BC
:10013000B175000800000000000000000000000091
:100140000000000000000000000000005140000816
:10015000B1750008B1750008B1750008B1750008E7
:10016000B1750008B1750008000000000000000033
:10017000000000000000000000000000000000007F
:1001800000000000B1750008000000000000000041
:04019000B17500083D
:1001A000034613F8012B002AFBD1181A01387047B7
:1001B00001F0FF01102A2BDB10F0070F08D010F818
:1001C000013B013A8B422DD010F0070F42B3F6D11C
:1001D000F0B441EA012141EA014122F007047FF035
:1001E00000070023F0E80256083C85EA010586EA8C
:1001F000010685FA47F5A3FA87F586FA47F6A5FAC8
:1002000087F68EB9EED1F0BC01F0FF0102F00702D3
:1002100032B110F8013B013A83EA010313B1F8D17E
:100220000020704701387047002D06BF354603385F
:10023000073815F0010F07D1013015F4807F02BF98
:10024000013015F4C03F0130F0BC0138704700BFE9
:1002500053B94AB9002908BF00281CBF4FF0FF312D
:100260004FF0FF3000F00CB8ADF1080C6DE904CE92
:1002700007F05AFEDDF804E0DDE9022304B0704720
:10028000704700BF10B5054C237833B9044B13B148
:100290000448AFF300800123237010BD4C010020FF
:1002A000000000002082000808B5034B1BB1034981
:1002B0000348AFF3008008BD00000000500100209B
:1002C0002082000800B585B00023009301930293BB
:1002D00003936448644A02604FF480324260836052
:1002E00001220261037680F82030C3625F49816297
:1002F000C3600D21C16180F83030426101F0EEFA37
:10030000002840F084800A230093012301930023F6
:1003100002936946534801F00BFC00287AD10B2365
:1003200000930223019369464E4801F001FC002826
:1003300073D10C230093032301936946494801F0CC
:10034000F7FB00286CD10D23009304230193694629
:10035000444801F0EDFB002865D1002300930523FC
:10036000019369463F4801F0E3FB00285ED1012379
:1003700000930623019369463A4801F0D9FB00280F
:1003800057D102230093072301936946354801F0B2
:10039000CFFB002850D10323009308230193694623
:1003A000304801F0C5FB002849D1042300930923FC
:1003B000019369462B4801F0BBFB002842D105237D
:1003C00000930A2301936946264801F0B1FB0028F7
:1003D0003BD1062300930B2301936946214801F08A
:1003E000A7FBA8BB072300930C23019369461D4874
:1003F00001F09EFB78BB0E2300930D230193694609
:10040000184801F095FB48BB05B05DF804FB00F00F
:10041000FBFB78E700F0F8FB81E700F0F5FB88E7ED
:1004200000F0F2FB8FE700F0EFFB96E700F0ECFB4B
:100430009DE700F0E9FBA4E700F0E6FBABE700F086
:10044000E3FBB2E700F0E0FBB9E700F0DDFBC0E75B
:1004500000F0DAFBC6E700F0D7FBCCE700F0D4FBF6
:10046000D2E700BFC8010020002001400100000FBA
:10047000F0B589B000230393049305930693079383
:10048000026803F1804303F590339A4201D009B02A
:10049000F0BD04460025009503F58C335A6C42F4F8
:1004A00080725A645A6C02F480720092009A01952C
:1004B0001A6B42F004021A631A6B02F004020192F2
:1004C000019A02951A6B42F001021A631B6B03F04A
:1004D00001030293029B1F2303930327049703AE98
:1004E0003146144801F05AFEFF2303930497059503
:1004F0003146114801F052FE1048114B036045602F
:100500008560C5604FF4806303614FF4006343610D
:100510004FF400538361C5614FF480330362456239
:1005200001F0B4FC18B9054BA3639C63AFE700F07E
:100530006BFBF8E700080240000002406801002061
:1005400010640240014B00221A7070471002002014
:1005500008B548B1064A1060064A012111700D2203
:10056000054901F0E7F908BD044800F0FBF8FAE797
:1005700068030020100200201402002038820008C6
:1005800008B54FF0E0231B6905F030F8012800D1D1
:1005900008BD00F08FFCFBE7EFF305832BB9064B9A
:1005A000186828B901221A6070476FF0050070477B
:1005B0004FF0FF30704700BF240A0020EFF305839F
:1005C00073B90A4B1B68012B0DD110B50024084BE1
:1005D000DC77064B02221A6004F064FD204610BD51
:1005E0006FF0050070474FF0FF307047240A00207D
:1005F00000ED00E0F0B587B000240594EFF305842A
:1006000004BBF8B1002A34D0156893692BB11E469B
:10061000013B372B02D9002015E01826536813F050
:10062000010F3FD1546984B14FEA940C93682BB108
:10063000D7685B2F02D9176907B184B943B14FF06E
:10064000FF330BB3059807B0F0BD4FF0800CEDE71A
:10065000D368A3B91369ABB14FF0FF33F1E702934D
:10066000019700960B466246294604F0ADFC0590C2
:10067000E8E71546002318264FF0800CE1E74FF01D
:10068000FF33DEE70023DCE705AB019300960B4662
:100690001FFA8CF2294604F0D2FC0128D2D00023A4
:1006A0000593CFE70020CEE708B5EFF3058333B914
:1006B00008B9002008BD04F057FE0020FAE76FF0EB
:1006C0000500F7E7034B0360034B0B6080231360C7
:1006D000704700BFC8090020C8070020034B036013
:1006E000034B0B604FF48073136070476C0700205E
:1006F0006C03002078B110B5074C206002F09AFE20
:10070000064BA3FB00239B0C20680268013B93620D
:1007100003F074F810BD7047280A002083DE1B43E5
:10072000024B1B681B68586A704700BF280A0020EC
:1007300000B583B000220192094B196B41F480018E
:1007400019631B6B03F480030193019B052138207F
:1007500001F00CFB382001F019FB03B05DF804FB3D
:1007600000380240C0B170B59AB0064601AC6425AD
:100770002A460021204606F053FF3346074A294601
:10078000204606F017FF2046FFF70AFD81B22046FB
:1007900005F0FCFE1AB070BD704700BF688200080B
:1007A00008B52DED028B05F023FC00211EE007EEBD
:1007B000901AF8EE677A07EE103AB8EE477A67EECD
:1007C000877A9FED1A7A67EE877A67EE877A9FEDD0
:1007D000187A67EE877A03EB0110164A02EB800263
:1007E000C2ED007A01330F2BE1D901310F2919D85D
:1007F0000023F8E7DFED100AB0EE480A0D4804F0D8
:1008000017FA0E4B83ED000AFA20FFF74DFFDFEDDC
:100810000C7A38EE278ADFED0B7AB4EEE78AF1EE38
:1008200010FAE7D49FED088AF5E700BF0000803D8D
:100830000000F042340A002000004842300A002044
:10084000000048430080BB450000000008B5044A92
:1008500000210448FFF7CEFE034B186008BD00BF1F
:1008600010830008A10700082C0A002010B58AB0E8
:1008700005A9002405944C608C60CC600C61019447
:100880001E4B1A6B42F004021A631A6B02F0040248
:100890000192019A02941A6B42F080021A631A6B59
:1008A00002F080020292029A03941A6B42F0010253
:1008B0001A631A6B02F001020392039A04941A6BF2
:1008C00042F002021A631B6B03F002030493049BC1
:1008D0004FF4805305934FF4881306930223079334
:1008E000074801F05BFC22460521282001F03EFA72
:1008F000282001F04BFA0AB010BD00BF00380240BA
:1009000000040240124A12F0070F1ED0D11D21F040
:100910000701C1F5705313440A460E4802600021D6
:1009200041601344083B23F007030B480360596000
:100930001960991A51601360084B1960084B1960CF
:10094000084B4FF000421A6070474FF47053E4E7D1
:10095000540E00204C0E0020480E0020400E0020B7
:10096000440E0020340E0020164B1A461B688342AA
:10097000FBD3516802EB010C844509D0416800EBC0
:10098000010C634509D00360904219D01060704794
:100990004068014451601046F0E710B40A4C2468E6
:1009A000A3420BD05B681944416013681B68036065
:1009B000904200D010605DF8044B70470460F7E788
:1009C000704700BF4C0E0020480E002038B504468A
:1009D00004F0B4FB384B1B68B3B1384B1B681C42A6
:1009E00050D1002C50D004F1080214F0070F02D0AF
:1009F00022F007020832002A55D0314B1B6893427F
:100A000053D330490C6804E0FFF77CFFE5E721464B
:100A10001C466368934202D22368002BF7D1264B11
:100A20001B68A34243D00D68083523680B606368D8
:100A30009B1A102B10D9A01810F0070F08D04FF0F8
:100A4000500383F31188BFF36F8FBFF34F8FFEE71F
:100A500043606260FFF788FF626819490B689B1A60
:100A60000B60194909688B4201D217490B60134B7F
:100A70001B681343636000232360144A1368013327
:100A8000136002E0002500E0002504F0F1FB15F002
:100A9000070F0ED04FF0500383F31188BFF36F8F11
:100AA000BFF34F8FFEE70025EFE70025EDE70025B8
:100AB000EBE7284638BD00BF480E0020340E00206A
:100AC000440E00204C0E0020400E00203C0E002062
:100AD000002834D038B50446A0F1080550F8043C8D
:100AE000174A1268134208D14FF0500383F311885C
:100AF000BFF36F8FBFF34F8FFEE750F8081C41B173
:100B00004FF0500383F31188BFF36F8FBFF34F8F04
:100B1000FEE723EA020340F8043C04F00FFB54F81C
:100B2000041C084A13680B4413602846FFF71CFF97
:100B3000054A13680133136004F09AFB38BD70470F
:100B4000340E0020440E0020380E002000F108036F
:100B500043604FF0FF328260C36003610023036093
:100B6000704700230361704743684B609A688A604E
:100B7000516099600861036801330360704730B4C5
:100B80000D68B5F1FF3F11D000F108031C465B680A
:100B90001A68AA42FAD963684B6099608C606160F8
:100BA000086103680133036030BC70470469F2E7F1
:100BB0000369416882688A60416851605A6882426C
:100BC00006D0002202611A68013A1A60186870475C
:100BD00082685A60F5E70000B0F5805F00D070478A
:100BE00008B5024805F058F908BD00BF6C4A00205E
:100BF00008B50268034B9A4200D008BD00F0AEFD74
:100C0000FBE700BF0048014072B6FEE710B594B0A4
:100C100008AC30220021204606F002FD0023039399
:100C200004930593069307930193214A116C41F0B5
:100C300080511164126C02F080520192019A029369
:100C40001C4A136823F4404343F4004313601368C1
:100C500003F440430293029B012308934FF4803333
:100C6000099302230E934FF480030F9319231093DB
:100C70004FF4A87311930423129307231393204670
:100C800002F0DCF978B90F230393022104910023C9
:100C900005934FF480520692079303A802F01EFCBE
:100CA00018B914B010BDFFF7AFFFFFF7ADFF00BFDD
:100CB000003802400070004008B500F035FDFFF735
:100CC000A5FFFFF7D3FDFFF733FD04F0E7FC04F0C9
:100CD00043FEFFF7F7FA04F0AFFD0648FFF70AFD01
:100CE0000548FFF735FCFFF757FCFFF7AFFDFFF7AF
:100CF00065FCFEE730500020C801002082B00023D0
:100D000001930D4B1B68B3F1FF3F08D04FF0500328
:100D100083F31188BFF36F8FBFF34F8FFEE74FF060
:100D2000500383F31188BFF36F8FBFF34F8F019B85
:100D3000002BFCD002B0704700000020084800687B
:100D4000006880F308884FF0000080F3148862B6D2
:100D500061B6BFF34F8FBFF36F8F00DF00BF00009E
:100D600008ED00E0DFF80C00016841F4700101605B
:100D70007047000088ED00E04FF0807340F8043CBD
:100D800021F0010140F8081C054B40F80C3C40F8EC
:100D9000202C6FF0020340F8243C4438704700BF19
:100DA000FD0C000800000000000000000000000032
:100DB000074B19680868B0E8F04F80F30988BFF363
:100DC0006F8F4FF0000080F311887047AFF3008001
:100DD0002C5000204FF0500383F31188BFF36F8F26
:100DE000BFF34F8F0B4A136801331360012B00D000
:100DF00070474FF0E023D3F8043D13F0FF0FF7D016
:100E00004FF0500383F31188BFF36F8FBFF34F8F01
:100E1000FEE700BF00000020094B1B6843B94FF0FC
:100E2000500383F31188BFF36F8FBFF34F8FFEE73B
:100E3000013B034A13600BB983F31188704700BF6D
:100E40000000002000000000000000000000000082
:100E5000EFF30980BFF36F8F154B1A681EF0100F68
:100E600008BF20ED108A20E9F04F10602DE909003D
:100E70004FF0500080F31188BFF34F8FBFF36F8F97
:100E800004F098FA4FF0000080F3118809BC19684B
:100E90000868B0E8F04F1EF0100F08BFB0EC108AE1
:100EA00080F30988BFF36F8F704700BFAFF30080F6
:100EB0002C50002008B54FF0500383F31188BFF386
:100EC0006F8FBFF34F8F04F047F928B14FF0E02345
:100ED0004FF08052C3F8042D002383F3118808BD1E
:100EE0004FF0E022002313619361054B1B68054915
:100EF000A1FB03139B09013B536107231361704757
:100F00000C000020D34D62104FF0E023D3F8002DE9
:100F10003D4B9A421CD04FF0E023D3F8002D3B4BC1
:100F20009A421ED030B583B0394B1A78D2B20192B2
:100F3000FF221A701B78DBB28DF803309DF8033066
:100F400003F05003334A1370334B07221A601BE03F
:100F50004FF0500383F31188BFF36F8FBFF34F8FB0
:100F6000FEE74FF0500383F31188BFF36F8FBFF399
:100F70004F8FFEE7284A1368013B13609DF803304A
:100F80005B00DBB28DF803309DF8033013F0800F67
:100F9000F0D1214B1B68032B08D04FF0500383F393
:100FA0001188BFF36F8FBFF34F8FFEE71B021A4A02
:100FB000136003F4E0631360019BDBB2144A137007
:100FC0004FF0E024D4F8203D43F47003C4F8203DF2
:100FD000D4F8203D43F07043C4F8203DFFF780FF74
:100FE00000250E4B1D60FFF7BDFED4F8343F43F0E3
:100FF0004043C4F8343FFFF7A1FE04F0DBF9FFF7EC
:101000007DFE284603B030BD71C20F4170C20F4152
:1010100000E400E09C4A0020984A002000000020E4
:10102000EFF305830F2B0ED9114A9A5C114B1B78F5
:101030009A4208D24FF0500383F31188BFF36F8FA9
:10104000BFF34F8FFEE74FF0E023D3F80C3D03F4DE
:10105000E063094A1268934208D94FF0500383F3C2
:101060001188BFF36F8FBFF34F8FFEE7704700BF4C
:10107000F0E300E09C4A0020984A002010B50446A6
:10108000FFF7A8FEA26BE36B9A4204D00024FFF79F
:10109000C3FE204610BD0124F9E710B50446FFF752
:1010A00099FEA36B23B90124FFF7B6FE204610BDBD
:1010B0000024F9E770B504461546866B026C5AB9F0
:1010C00003681BB100200136A66370BD806804F080
:1010D0009DFA0023A360F6E76DB9406806F0D4FAE4
:1010E0006368226C13446360A268934219D3236837
:1010F00063602846E7E7C06806F0C6FAE368226C3A
:1011000051429B1AE3602268934202D2A3680B44C7
:10111000E360022D01D00020D5E726B1013E00207A
:10112000D1E72846CFE70020CDE70346026C6AB13D
:1011300010B50846D9681144D9609C68A14201D312
:101140001968D960D96806F09FFA10BD704738B5A4
:101150000546FFF73FFE95F8454064B201E0013CCB
:1011600064B2002C0ADD6B6A43B105F1240004F07F
:10117000A1F90028F3D004F033FAF0E7FF2385F853
:101180004530FFF749FEFFF725FE95F8444064B26D
:1011900001E0013C64B2002C0ADD2B6943B105F18A
:1011A000100004F087F90028F3D004F019FAF0E7F2
:1011B000FF2385F84430FFF72FFE38BD38B5E0B186
:1011C0000D460446FFF706FE2368E26B216C01FB27
:1011D0000230A0600020A0636360013A02FB01338B
:1011E000E360FF2384F8443084F84530FDB9236977
:1011F00063B9FFF711FE012038BD4FF0500383F3B0
:101200001188BFF36F8FBFF34F8FFEE704F110001B
:1012100004F050F90028ECD04FF0E0234FF080525A
:10122000C3F8042DBFF34F8FBFF36F8FE1E704F1D5
:101230001000FFF78BFC04F12400FFF787FCD8E7D0
:1012400038B51D46049C0B4649B92460E06323640D
:1012500001212046FFF7B2FF84F84C5038BD2260D0
:10126000F4E740B94FF0500383F31188BFF36F8F59
:10127000BFF34F8FFEE710B584B01C46844653B1D0
:1012800092B189B94FF0500383F31188BFF36F8F88
:10129000BFF34F8FFEE74FF0500383F31188BFF386
:1012A0006F8FBFF34F8FFEE76AB150230393039B09
:1012B000502B13D04FF0500383F31188BFF36F8F7F
:1012C000BFF34F8FFEE70029EFD04FF0500383F3B9
:1012D0001188BFF36F8FBFF34F8FFEE7039B01238E
:1012E00084F8463000949DF818306046FFF7A8FF58
:1012F000204604B010BDF0B585B0019288B10F460C
:101300001D460446B1B1022D20D1E36B012B1DD047
:101310004FF0500383F31188BFF36F8FBFF34F8FEC
:10132000FEE74FF0500383F31188BFF36F8FBFF3D5
:101330004F8FFEE7036C002BE5D04FF0500383F393
:101340001188BFF36F8FBFF34F8FFEE704F04EF9A4
:10135000064658B9019B002B48D04FF0500383F349
:101360001188BFF36F8FBFF34F8FFEE700263DE07C
:101370002A4639462046FFF79DFE636A7BB948B18D
:101380004FF0E0234FF08052C3F8042DBFF34F8F8E
:10139000BFF36F8FFFF740FD012005B0F0BD04F1F2
:1013A000240004F087F80028F4D04FF0E0234FF039
:1013B0008052C3F8042DBFF34F8FBFF36F8FE9E75F
:1013C000FFF72AFD0020E8E702A804F0B9F801269B
:1013D00019E0002384F8443021E0002384F84530EC
:1013E00023E02046FFF7B3FE03F042FFFFF7F2FCD5
:1013F000A26BE36B9A42BBD3022DB9D0019B002BA9
:10140000DED0002EE0D0FFF707FD03F097FEFFF7D8
:10141000E1FC94F8442052B2B2F1FF3FD9D094F8E5
:10142000452052B2B2F1FF3FD7D0FFF7F5FC01A93A
:1014300002A804F091F8D8B92046FFF71FFE002853
:10144000CFD0019904F1100004F000F82046FFF716
:101450007EFE03F00DFF0028C8D14FF0E0234FF0CF
:101460008052C3F8042DBFF34F8FBFF36F8FBDE7DA
:101470002046FFF76CFE03F0FBFE00208DE72DE910
:10148000F84390B10F4616461C460546B1B1022CF2
:1014900020D1EB6B012B1DD04FF0500383F311884B
:1014A000BFF36F8FBFF34F8FFEE74FF0500383F30F
:1014B0001188BFF36F8FBFF34F8FFEE7036C002BD4
:1014C000E5D04FF0500383F31188BFF36F8FBFF364
:1014D0004F8FFEE7FFF7A4FDEFF311884FF05003A5
:1014E00083F31188BFF36F8FBFF34F8FAA6BEB6B42
:1014F0009A4206D3022C04D0002088F31188BDE85C
:10150000F88395F845904FFA89F9AB6B2246394636
:101510002846FFF7CFFDB9F1FF3F06D009F10103DF
:101520005BB285F845300120E7E76B6A0BB9012013
:10153000E3E705F1240003F0BDFF18B126B1012057
:101540003060DAE70120D8E70120D6E7F0B585B0B2
:10155000019290B10F460446C1B104F047F8064627
:1015600000BB019B002B5ED04FF0500383F311882A
:10157000BFF36F8FBFF34F8FFEE74FF0500383F33E
:101580001188BFF36F8FBFF34F8FFEE7036C002B03
:10159000E3D04FF0500383F31188BFF36F8FBFF395
:1015A0004F8FFEE700263EE039462046FFF7BDFD9F
:1015B000013DA563236923B9FFF72EFC012005B087
:1015C000F0BD04F1100003F075FF0028F4D04FF0D7
:1015D000E0234FF08052C3F8042DBFF34F8FBFF3C9
:1015E0006F8FE9E7FFF718FC0020E8E702A803F097
:1015F000A7FF012621E0002384F8443029E00023DE
:1016000084F845302BE02046FFF7A1FD03F030FEC3
:1016100009E02046FFF79BFD03F02AFE2046FFF776
:101620003CFD00283FD1FFF7D5FBA56B002DBBD1BA
:10163000019B002BD6D0002ED8D0FFF7EDFB03F096
:101640007DFDFFF7C7FB94F844305BB2B3F1FF3F79
:10165000D1D094F845305BB2B3F1FF3FCFD0FFF764
:10166000DBFB01A902A803F077FF0028D1D12046B7
:10167000FFF713FD0028C6D0019904F1240003F000
:10168000E5FE2046FFF763FD03F0F2FD0028CAD116
:101690004FF0E0234FF08052C3F8042DBFF34F8F7B
:1016A000BFF36F8FBFE7002089E700000023072BFF
:1016B0000CD8074A52F833200AB10133F7E7044A3D
:1016C00042F8331002EBC30250607047704700BF0E
:1016D000A04A002070B504460D461646FFF77AFB77
:1016E00094F844305BB2B3F1FF3F0DD094F845302D
:1016F0005BB2B3F1FF3F0BD0FFF78EFBA36B5BB187
:101700002046FFF724FD70BD002384F84430EDE748
:10171000002384F84530EFE73246294604F12400DF
:1017200003F0ACFEECE7000008B50B4B1A6842F47E
:1017300000721A601A6842F480621A601A6842F4F1
:1017400080721A60032000F0FFFA0F2002F016FCEE
:1017500000F016FE002008BD003C0240034A11685C
:10176000034B1B780B441360704700BFE04A002016
:1017700004000020014B1868704700BFE04A0020B9
:1017800038B50446FFF7F6FF0546B4F1FF3F02D037
:10179000044B1B781C44FFF7EDFF401BA042FAD31B
:1017A00038BD00BF040000204A4B5A6822F4403282
:1017B0005A605A6841680A435A600268536823F4C1
:1017C0008073536002685368016943EA01235360E0
:1017D0000268536823F0407353600268536881685D
:1017E0000B4353600268936823F4006393600268BC
:1017F0009368C1680B439360826A374B9A4257D013
:101800000268936823F07063936002689368816A4A
:101810000B4393600268936823F04053936002681F
:101820009368C16A0B4393600268936823F00203D4
:10183000936002689368017E43EA4103936090F8E5
:101840002030002B3FD00268536843F4006353609C
:101850000268536823F46043536001684B68426A2E
:10186000013A43EA42334B600268D36A23F47003BF
:10187000D3620168CB6AC269013A43EA0253CB6280
:101880000268936823F4007393600268936890F889
:10189000301043EA412393600268936823F4806325
:1018A000936002689368416943EA812393607047BB
:1018B0000268936823F0706393600268936823F072
:1018C00040539360B0E70268536823F400635360A9
:1018D000CAE700BF002301400100000F38B310B574
:1018E0000446036C43B1236C13F0100F0BD001209E
:1018F000002384F83C3010BDFEF7BAFD002363647A
:1019000084F83C30EFE7236C23F4885323F0020380
:1019100043F0020323642046FFF746FF0020606483
:10192000236C23F0030343F001032364E0E7012069
:101930007047000010B582B013460022019290F863
:101940003C20012A00F094800446012280F83C20CB
:101950000268906810F0010F13D1906840F0010008
:101960009060464A1068464AA2FB0020800C00EBBB
:101970004000019002E00198013801900198002890
:10198000F9D12268906810F4807F03D0906820F429
:10199000807090602268906810F0010F5DD0206C1C
:1019A00020F4E06020F0010040F480702064526870
:1019B00012F4806F05D0226C22F4405242F480521F
:1019C0002264226C12F4805F34D0626C22F0060232
:1019D0006264002284F83C20A26B2A48D063A26B88
:1019E00029481064A26B2948D06422686FF0220055
:1019F00010602068426842F080624260206882681D
:101A000042F48072826020680A4600F14C01A06BAB
:101A100000F0A2FA1E4B5B6813F01F0F0DD1236874
:101A20009A6812F0405F25D19A6842F080429A602D
:101A300000201BE000226264CBE72368154A934232
:101A400001D0002012E09A6812F0405F14D19A6829
:101A500042F080429A60002008E0236C43F01003BB
:101A60002364636C43F001036364002002B010BD83
:101A70000220FBE70020F9E70020F7E70C00002038
:101A800083DE1B43BD1A00089B1A0008A71A000832
:101A90000023014000200140704708B5806BFFF72C
:101AA000FBFF08BD704708B5806B40230364436C9F
:101AB00043F004034364FFF7F5FF08BD08B5034690
:101AC000806B026C12F0500F25D1036C43F400734D
:101AD000036403689A6812F0405F19D1027EBAB9B4
:101AE000DA6A12F4700F03D09A6812F4806F0FD183
:101AF0005A6822F020025A60036C23F48073036456
:101B0000036C13F4805F03D1036C43F0010303649F
:101B1000FEF718FD08BD026C12F0100F04D1826BA5
:101B2000D26C18469047F5E7FFF7BCFFF2E70000DC
:101B300030B482B00022019290F83C20012A00F0DB
:101B4000B6800346012280F83C200A68092A40D961
:101B50000468E06892B202EB42021E3A4FF0070CB2
:101B60000CFA02F220EA0202E2601C68E0680A88CD
:101B700002EB42021E3A8D6805FA02F20243E2606D
:101B80004A68062A3CD81C68606B02EB8202053A60
:101B90004FF01F0C0CFA02F220EA020262631C688A
:101BA000606B4A6802EB8202053AB1F800C00CFA99
:101BB00002F20243626318683E4A904250D01868AD
:101BC0003C4A904255D0002083F83C0002B030BC23
:101BD00070470468206992B202EB42024FF0070C92
:101BE0000CFA02F220EA020222611C6820690A88CB
:101BF00002EB42028D6805FA02F202432261BFE75E
:101C00000C2A16D81D68286B02EB8202233A1F2487
:101C100004FA02F220EA02022A631D68286B4A686D
:101C200002EB8202233A0C8804FA02F202432A638E
:101C3000C1E71D68E86A02EB8202413A1F2404FAF8
:101C400002F220EA0202EA621D68E86A4A6802EBD0
:101C50008202413A0C8804FA02F20243EA62AAE7DD
:101C60000A68122AABD11448426842F480024260EA
:101C7000A5E70A68103A012AA5D80F48426842F43D
:101C8000000242600A68102A9DD10C4A12680C4971
:101C9000A1FB0212920C02EB82025200019202E0BE
:101CA000019A013A0192019A002AF9D18BE70220A8
:101CB0008CE700BF00200140002301400C00002001
:101CC00083DE1B43002807DB00F01F0240090123CD
:101CD0009340024A42F82030704700BF00E100E024
:101CE000002808DB0901C9B200F1604000F561403D
:101CF00080F80013704700F00F000901C9B2014BD2
:101D00001954704714ED00E000B500F00700C0F171
:101D1000070CBCF1040F28BF4FF0040C031D062B69
:101D20000FD9C31E4FF0FF3E0EFA0CF021EA00015E
:101D300099400EFA03FE22EA0E0241EA02005DF823
:101D400004FB0023EEE70000074AD36823F4E063B6
:101D50001B041B0C000200F4E060034343F0BF636C
:101D600043F40033D360704700ED00E010B5044643
:101D7000054BD868C0F30220FFF7C6FF0146204696
:101D8000FFF7AEFF10BD00BF00ED00E008B5FFF7A4
:101D900099FF08BD30B405682C6824F480242C60B9
:101DA000046863608368402B05D00368996003680A
:101DB000DA6030BC704703689A600368D960F8E75E
:101DC00010B40368D9B210390A4AA2FB01421209C1
:101DD000094CA25CC2655F2907D96FF3090304337C
:101DE0008365806D5DF8044B70476FF3090383656D
:101DF000F7E700BFABAAAAAA34830008836A826906
:101E000092B9012B0AD0022B02D00BB100207047EF
:101E1000C36A13F0807F28D100207047C36AB3F1F2
:101E2000C07F24D000207047B2F5005F09D0022B9C
:101E300025D9032B25D1C36A13F0807F23D100203D
:101E40007047032B03D8DFE803F01404140A0020C2
:101E50007047C36A13F0807F0DD100207047C36ABA
:101E6000B3F1C07F09D000207047012070470120E6
:101E70007047012070470120704701207047012002
:101E800070470020704701207047000070B504467D
:101E9000FFF770FC002C5BD00546022384F8353038
:101EA000002384F834302268136823F001031360A0
:101EB00023681A6812F0010F0AD0FFF75BFC431B7E
:101EC000052BF5D920236365032084F8350070BD08
:101ED0001A68204911406268A0680243E068024322
:101EE0002069024360690243A0690243E06902433A
:101EF000206A02430A43616A04291ED01A602668D8
:101F0000756925F00705636A1D43042B07D1A36A91
:101F10001D43E36A1BB12046FFF770FF90B975615E
:101F20002046FFF74DFFE26D3F2393408360002082
:101F30006065012384F83530C9E7E16A206B01430D
:101F40000A43DBE740236365012084F83500BEE7E0
:101F50000120BCE73F8010F038B50446856D90F84D
:101F6000340001282AD0012084F8340094F8350088
:101F7000012804D0002384F83430022038BD022028
:101F800084F83500002060652046FFF703FFE26D0E
:101F90003F239340AB602268136843F0160313603D
:101FA000236C23B12268136843F00803136022688E
:101FB000136843F0010313600020DFE70220DDE730
:101FC000F0B583B0044600230193724B1D68724B39
:101FD000A3FB0535AD0A876D3E68C26D08239340AB
:101FE000334210D003681A6812F0040F0BD01A683D
:101FF00022F004021A60C26D08239340BB60436D57
:1020000043F001034365E26D01239340334209D05D
:102010002268526912F0800F04D0BB60636D43F0F8
:1020200002036365E26D04239340334209D02268C2
:10203000126812F0020F04D0BB60636D43F004031A
:102040006365E26D10239340334224D02268126806
:1020500012F0080F1FD0BB6023681A6812F4802F9B
:102060000DD01B6813F4002F04D1236C9BB12046C4
:10207000984710E0A36C73B1204698470BE01A68AC
:1020800012F4807F03D11A6822F008021A60236CD0
:102090000BB120469847E26D20239340334254D041
:1020A0002268126812F0100F4FD0BB6094F83530E0
:1020B000052B0ED023681A6812F4802F33D01B68CA
:1020C00013F4002F2AD1636C002B3ED02046984792
:1020D0003BE02268136823F01603136022685369FB
:1020E00023F080035361236CA3B12268136823F0AB
:1020F00008031360E26D3F239340BB60012384F823
:102100003530002384F83430236D002B3FD0204637
:1021100098473CE0A36C002BE7D1EBE7E36BA3B15E
:102120002046984711E01A6812F4807F09D11A6896
:1021300022F010021A60012384F83530002384F85D
:102140003430E36B0BB120469847636DFBB1636D90
:1021500013F0010F17D0052384F835302268136877
:1021600023F001031360019B01330193AB4204D8B8
:1021700023681B6813F0010FF5D1012384F8353073
:10218000002384F83430E36C0BB12046984703B049
:10219000F0BD00BF0C000020B5814E1B00230F2BAB
:1021A00000F2D78070B582B065E085684FEA430ED3
:1021B000032404FA0EF425EA0405CC6804FA0EF4AC
:1021C0002C438460446824EA02044A68C2F3001283
:1021D0009A40224342605CE0DC08083450F8242036
:1021E00003F00705AD004FF00F0E0EFA05FE22EAD0
:1021F0000E0E0A69AA4042EA0E0240F824205CE072
:10220000042200E0002202FA0EF22A430234514D69
:1022100045F82420504A94686FEA0C0224EA0C0521
:102220004E6816F4801F01D04CEA04054A4CA560A4
:10223000E46802EA04054E6816F4001F01D04CEA77
:102240000405454CE560646802EA04054E6816F42E
:10225000003F01D04CEA04053F4C656024682240F1
:102260004D6815F4803F01D04CEA04023A4C2260DC
:1022700001330F2B6BD801229A400C6804EA020C40
:1022800032EA0404F4D14C6804F00304013C012C4C
:102290008BD94A6802F00302032A09D0C4685D00A2
:1022A0000322AA4024EA02048A68AA402243C260A8
:1022B0004A6802F00302022A8ED004684FEA430EF5
:1022C000032202FA0EF224EA02044A6802F0030230
:1022D00002FA0EF2224302604A6812F4403FC7D06D
:1022E000002201921D4A546C44F480445464526CA0
:1022F00002F480420192019A9C08A51C154A52F8EA
:10230000255003F0030E4FEA8E0E0F2202FA0EF252
:1023100025EA0205124A90423FF474AF02F580624A
:1023200090420ED002F5806290420CD002F580629D
:1023300090420AD002F5806290423FF461AF0722DA
:1023400061E701225FE702225DE703225BE702B05B
:1023500070BD704700380140003C01400038024029
:102360000000024008B5054B5B69034200D108BD7F
:10237000024B5861FEF730FCF9E700BF003C01401A
:1023800000B583B0002200920D4B596C41F480419E
:102390005964596C01F48041009100990192196CC3
:1023A00041F0805119641B6C03F080530193019B31
:1023B0000F216FF00100FFF7D9FC03B05DF804FBBB
:1023C000003802402DE9F04383B0D0F8008001EBE3
:1023D000C10300EB83039A6A5B6A9A4254D80746AA
:1023E0000C469B1A01EBC10200EB8202D2699A42B1
:1023F00000D31A4602F103094FEA990915E006F1E4
:1024000003094FEA9909BB7904EBC40507EB85057D
:10241000296A0093B3B2E2B2404602F056F92B6A41
:1024200033442B62AB6A3344AB6208EB441303F5CD
:1024300010639B699BB24B4512D304EBC40307EBBB
:1024400083039A6A5B6A9A420AD24BB19B1A04EBE5
:10245000C40207EB8202D6699E42D0D31E46CEE765
:1024600004EBC40307EB83077A6ABB6A9A420FD86E
:1024700004F00F040122A240D8F8343823EA020302
:10248000C8F83438002000E0012003B0BDE8F08334
:102490000020FAE730B583B000287AD004460568FA
:1024A00090F89534C3B1032384F89534B5F1A04F67
:1024B00017D0206801F0BAFE237C8DF80030231D70
:1024C0000ECB206801F0F1FD70B1022384F8953441
:1024D0000125284603B030BD80F8943404F06CF830
:1024E000E1E70023A371E4E70021206802F003FB89
:1024F0000246B8B903462079984218D903EBC301C4
:1025000004EB8101012048750B75CB85002008760E
:10251000C861086203EBC30104EB81014862013327
:10252000DBB2E8E7022384F895340125D1E7904235
:1025300017D902EBC20304EB8303002183F8551281
:1025400083F8542283F85812C3F85C12C3F860125F
:1025500002EBC20304EB8303C3F864120132D2B26C
:10256000E5E7237C8DF80030231D0ECB206801F0B9
:10257000B3FE054620B1022384F895340125A8E76F
:1025800000236374012384F89534206802F072FA02
:102590009FE701259DE7036890F89424012A1AD04B
:1025A00010B50446012280F89424DA6812F0400F36
:1025B00002D0427B012A09D0206801F031FE206858
:1025C00002F04AFA002084F8940410BD9A6B42F499
:1025D00080329A63F0E702207047000070B504462D
:1025E0000D460068066C00EB411303F530639A68F2
:1025F000A179012911D038498E4256D03DB905EB59
:10260000C50304EB8303D3F86432002B5ED0E9B238
:10261000204604F01DF8002070BD12F0080F09D00C
:102620002E498E42F7D912F4004FF4D04FF40042F5
:102630009A60F0E712F0200F02D020229A60EAE7B9
:1026400012F0280FE7D125498E4206D912F4004F27
:1026500003D04FF400429A60DDE705EBC50204EBBE
:102660008202D2F874121B69C3F31203CB1AC2F8A8
:1026700068327DB905EBC50204EB8202D2F8642210
:102680006AB105EBC50204EB8202D2F8601219446C
:10269000C2F86012E9B2204603F0DAFFBBE704F2A9
:1026A0009C42012102F066FAF4E712F4004F03D0D5
:1026B0004FF400429A60AEE712F0200F01D02022C2
:1026C0009A60E9B2204603F0C3FFA4E704F29C42FB
:1026D000002102F04FFA9AE70A31544F0A30544F62
:1026E00038B5044603681D6C03EB4113D3F8081B8F
:1026F0000E4A954207D903F5306311F4004F02D01A
:102700004FF400429A60204603F09AFF074B9D4227
:1027100002D9A379012B01D0002038BD04F29C42DC
:102720000121206802F026FAF6E700BF0A30544F74
:1027300090F89434012B0CD010B50446012380F896
:1027400094344174006802F077F9002084F894040E
:1027500010BD0220704738B505468C4611F0800F39
:102760002BD101F00F0E0EEBCE04A40004F514746F
:102770000444211D0EEBCE0E00EB8E0E00208EF8D1
:1027800055020CF00F0C81F800C0C2F30A028A60F7
:102790000B714A780AB1A1F81AC0022B1CD095F827
:1027A0009434012B1BD0012385F89434286801F060
:1027B00070FE002085F8940438BD01F00F0000EB96
:1027C000C001890010312944043100EBC00005EB41
:1027D000800001244475D4E700234B71DFE7022019
:1027E000EAE710B504460A4611F0800F20D101F047
:1027F0000F0000EBC0039B0003F514732344191D65
:1028000000EBC00004EB8000002380F8553202F09A
:102810000F020A7094F89434012B18D0012384F825
:102820009434206801F082FE002084F8940410BDE6
:1028300001F00F0000EBC0039B0010332344191D6F
:1028400000EBC00004EB800001234375DFE70220AA
:10285000EDE710B5144601F00F0C0CEBCC0189002C
:1028600001F51471014404310CEBCC0E00EB8E0E1B
:10287000CEF86022CEF864320023CEF868328EF8AB
:1028800055328EF854C28279012A04D0006801F0D2
:1028900033FF002010BDCEF87042F7E701F00F01C2
:1028A00001EBC10100EB8100D0F86802704710B560
:1028B000144601F00F0C0CEBCC01890010310144DF
:1028C00004310CEBCC0E00EB8E0ECEF82020CEF8AF
:1028D00024300023CEF8283001238EF815308EF8EE
:1028E00014C082799A4204D0006801F005FF0020EC
:1028F00010BDCEF83040F7E738B501F00F0502798A
:10290000AA4238D304460B4611F0800F1FD101EBC9
:10291000C101890001F514710144043103EBC303C3
:1029200000EB8303002283F8552201238B700D7086
:1029300094F89434012B20D0012384F89434206837
:1029400002F01FF885B1002084F8940438BD05EB2F
:10295000C501890010310144043105EBC50300EBCA
:10296000830301225A75E0E704F29C42A1792068B2
:1029700002F000F9E7E70120E8E70220E6E701F0CE
:102980000F0302799A4230D310B5044611F0800F3C
:102990001ED103EBC301890001F514710144043118
:1029A00003EBC30200EB8202002082F855020022F2
:1029B0008A700B7094F89434012B18D0012384F89A
:1029C0009434206802F00AF8002084F8940410BDC2
:1029D00003EBC301890010310144043103EBC3024E
:1029E00000EB820201205075E1E7012070470220D0
:1029F000EDE708B511F0800F0CD101F00F0101EBEC
:102A0000C101890001F5147101440431006801F02D
:102A1000FDFD08BD01F00F0101EBC101890010317E
:102A200001440431F2E72DE9F04F83B00446056814
:102A3000284602F05CF810B103B0BDE8F08F0646FE
:102A4000206802F025F80028F6D005F50067BB687D
:102A5000C3F30D23C4F8D434206802F019F810F041
:102A6000020F04D02268536903F002035361206807
:102A700002F00EF810F0100F15D02268936923F0C1
:102A800010039361D5F8208008F00F0908F4F013C3
:102A9000B3F5802F4CD0B3F5402F6FD022689369E7
:102AA00043F010039361206801F0F2FF10F4002F4F
:102AB00076D1206801F0ECFF10F4802F40F0E08028
:102AC000206801F0E5FF0028C0F26181206801F074
:102AD000DFFF10F4006F09D0BB6813F0010F40F066
:102AE0006E812268536903F400635361206801F02A
:102AF000CFFF10F4805F40F06681206801F0C8FFCE
:102B000010F4005F40F0B381206801F0C1FF10F0C5
:102B1000080F40F0C481206801F0BAFF10F0800F68
:102B200000F0D781AB6923F08003AB610126C0E1DF
:102B300047F6F07318EA030FB0D04FEA181A4FEABD
:102B4000C903019309EBC90B04EB8B0BC8F30A1201
:102B5000DBF86012284601F0F1FEDBF86032CAF3C0
:102B60000A0A5344CBF86032DBF86832019A4A44CF
:102B700004EB82025344C2F868328FE7082204F261
:102B80009C41284601F0DAFE09EBC90304EB8303FC
:102B9000D3F86822C8F30A184244C3F868227DE7D4
:102BA000206801F079FF8046B14635E005EB491316
:102BB0000122C3F8082B49462046FFF70FFD3CE0F1
:102BC00005EB49130822C3F8082B49462046FFF7B6
:102BD00087FD35E009EBC90304EB830393F8573213
:102BE000012B41D005EB49130222C3F8082B1AF040
:102BF000200F04D005EB49132022C3F8082B1AF448
:102C0000005F05D005EB49134FF40052C3F8082BC1
:102C100009F101094FEA5808B8F1000F3FF449AF34
:102C200018F0010FF4D05FFA89FB5946206801F0D3
:102C300043FF824610F0010FB8D11AF0080FBFD140
:102C40001AF0100F04D005EB49131022C3F8082B1B
:102C50001AF0020FCBD06B6913F0800FBAD07B68EB
:102C600043F480637B60B5E709EBC90304EB83039E
:102C7000002283F857225946204603F037FDB1E77A
:102C8000206801F011FF8046B14625E059462046F4
:102C900003F0EAFC1AF0080F04D005EB49130822F0
:102CA000C3F808291AF0100F04D005EB49131022BD
:102CB000C3F808291AF0400F04D005EB491340224D
:102CC000C3F808291AF0020F40D11AF0800F59D129
:102CD00009F101094FEA5808B8F1000F3FF4F0AECE
:102CE00018F0010FF4D05FFA89FB5946206801F013
:102CF000ECFE824610F0010FCCD009F00F0201214A
:102D000001FA02F27B6B23EA02037B6305EB4913B2
:102D1000C3F80819A3798B42B8D109EBC90304EBB6
:102D200083031A6AD9690A441A62B9F1000FADD156
:102D300009EBC90304EB83035B6A002BA6D104F201
:102D40009C420121206801F015FF9FE74946284673
:102D500001F072FA09EBC90304EB8303DB7D012B5D
:102D600005D005EB49130222C3F80829ADE709EBAA
:102D7000C90304EB83030022DA755946204603F0A9
:102D8000BBFCEEE749462046FFF71CFBA0E77B684B
:102D900023F001037B6094F8CC34012B08D020464B
:102DA00003F09EFC2268536903F0004353618DE6F3
:102DB000002184F8CC14204600F03FF9F2E72046C9
:102DC00003F076FC8DE67B6823F001037B60102125
:102DD000206801F031FA1AE005EB46134FF67F3117
:102DE000C3F80819D3F8002922F40012C3F8002907
:102DF000C3F8081BD3F8002B22F40012C3F8002BF1
:102E0000D3F8002B42F00062C3F8002B013623797F
:102E1000B342E1D8FB6943F00113FB61E37BDBB113
:102E2000D7F8843043F00B03C7F884307B6C43F051
:102E30000B037B64D5F8003823F4FE63C5F8003833
:102E400004F29C42A179206801F094FE2268536943
:102E500003F48053536150E67B6943F4005343F01D
:102E60002B037B613B6943F00B033B61E2E7206886
:102E700001F072FE206801F0FBFAE071266800F0B4
:102E8000DDFB0146E279304601F058F9204603F0B7
:102E9000FCFB2268536903F40053536134E6204677
:102EA00003F0EDFB2268536903F00803536132E637
:102EB00001362379B3420CD906EBC60304EB830336
:102EC00093F85732012BF3D1F1B22046FFF791FD71
:102ED000EEE7206801F0DCFD10F4801F25D12068AA
:102EE00001F0D6FD10F4001F59D0012326E0013671
:102EF0002379B3421BD905EB4613D3F8002906EB1F
:102F0000C60304EB83031B7E012BF0D1002AEEDA0B
:102F100006EBC60304EB83030122DA7566F07F013A
:102F2000C9B22046FFF765FDE1E70126E0E7226828
:102F3000536903F480135361D1E7013322799A4234
:102F400028D905EB4312D2F8001B03EBC30204EBB4
:102F5000820292F85822012AEFD10029EDDA01F419
:102F60008031D4F8D42402F001029142E5D103EB80
:102F7000C30204EB8202012182F85712AA6942F0CF
:102F80008002AA616A6912F0800FD6D17B6843F48F
:102F900000737B602268536903F400135361206857
:102FA00001F076FD10F0804F10D1206801F070FD27
:102FB00010F0040F3FF440AD23685D6815F0040F76
:102FC0000DD1226853682B43536035E5204603F04A
:102FD00099FB2268536903F080435361E5E720467B
:102FE00003F096FBEDE710B40468606A31B940EA7B
:102FF0000240A06200205DF8044B70478C46A36A33
:1030000000EB1340002308E003F1400104EB8101D1
:10301000496800EB11400133DBB20CF1FF318B4208
:10302000F2D340EA02400CF13F0104EB81046060FE
:10303000E0E703685962002070477047002800F0FD
:10304000E08170B582B00446036813F0010F3BD0F5
:103050009F4B9B6803F00C03042B2CD09C4B9B686C
:1030600003F00C03082B21D06368B3F5803F4FD0E9
:10307000B3F5A02F52D0964B1A6822F480321A6012
:103080001A6822F480221A606368002B50D0FEF781
:1030900071FB05468E4B1B6813F4003F14D1FEF7FD
:1030A00069FB401B6428F5D90320B1E1884B5B68BC
:1030B00013F4800FD8D0864B1B6813F4003F03D065
:1030C0006368002B00F09F81236813F0020F54D037
:1030D0007F4B9B6813F00C0F3ED07D4B9B6803F039
:1030E0000C03082B33D0E368002B68D0794B012206
:1030F0001A60FEF73FFB0546754B1B6813F0020F85
:1031000054D1FEF737FB401B0228F5D903207FE19D
:103110006F4A136843F480331360B5E76C4B1A6849
:1031200042F480221A601A6842F480321A60ABE7D7
:10313000FEF720FB0546664B1B6813F4003FC3D027
:10314000FEF718FB401B6428F5D9032060E1604BB3
:103150005B6813F4800FC6D15D4B1B6813F0020F40
:1031600003D0E368012B40F05081594A136823F0E3
:10317000F803216943EAC1031360236813F0080FC1
:1031800042D063696BB3534B0122C3F8802EFEF724
:10319000F1FA05464E4B5B6F13F0020F34D1FEF788
:1031A000E9FA401B0228F5D9032031E1484A1368A7
:1031B00023F0F803216943EAC1031360DDE7454BBF
:1031C00000221A60FEF7D6FA0546414B1B6813F041
:1031D000020FD2D0FEF7CEFA401B0228F5D9032009
:1031E00016E13C4B0022C3F8802EFEF7C3FA0546D9
:1031F000374B5B6F13F0020F06D0FEF7BBFA401B94
:103200000228F5D9032003E1236813F0040F77D0D7
:103210002F4B1B6C13F0805F33D1002301932C4B99
:103220001A6C42F080521A641B6C03F080530193B5
:10323000019B0125284B1B6813F4807F23D0A368D2
:10324000012B34D0052B38D0214B1A6F22F001020C
:103250001A671A6F22F004021A67A368002B3DD088
:10326000FEF788FA06461A4B1B6F13F0020F46D181
:10327000FEF780FA801B41F288339842F3D903208D
:10328000C6E00025D6E7144A136843F48073136040
:10329000FEF770FA0646104B1B6813F4807FCED100
:1032A000FEF768FA801B0228F5D90320B0E0084A2F
:1032B000136F43F001031367CFE7054B1A6F42F01A
:1032C00004021A671A6F42F001021A67C5E700BFCD
:1032D000003802400000474200700040FEF74AFA02
:1032E0000646524B1B6F13F0020F08D0FEF742FA4E
:1032F000801B41F288339842F3D9032088E0EDB96E
:10330000A369002B00F08380484A926802F00C0207
:10331000082A51D0022B17D0454B00221A66FEF71F
:1033200029FA0446414B1B6813F0007F42D0FEF798
:1033300021FA001B0228F5D9032069E03B4A136CEF
:1033400023F080531364DBE7394B00221A66FEF743
:1033500011FA0546354B1B6813F0007F06D0FEF7C7
:1033600009FA401B0228F5D9032051E0E369226ADB
:103370001343626A43EA8213A26A5208013A43EA9B
:103380000243E26A43EA0263284A5360284B01225F
:103390001A66FEF7EFF90446244B1B6813F0007F12
:1033A00006D1FEF7E7F9001B0228F5D903202FE02C
:1033B00000202DE000202BE0012B2BD01B4B5B6865
:1033C00003F48001E269914226D103F03F02216AB1
:1033D0008A4223D1616A47F6C0721A40B2EB811F5C
:1033E0001ED103F44031A26A5208013AB1EB024FF8
:1033F00018D103F07063E26AB3EB026F14D10020BE
:1034000006E001207047012002E0012000E00020DA
:1034100002B070BD0120FBE70120F9E70120F7E7CA
:103420000120F5E70120F3E70120F1E70038024031
:103430000000474208B5264B9B6803F00C03042BA1
:1034400041D0082B41D1224B5A6802F03F025B6801
:1034500013F4800F12D01E4B5968C1F388111D4818
:103460000023A1FB0001FCF7F3FE194B5B68C3F3DB
:10347000014301335B00B0FBF3F008BD144B586807
:10348000C0F388104FEA401CBCEB000C6EEB0E0E34
:103490004FEA8E1343EA9C634FEA8C11B1EB0C01A7
:1034A00063EB0E03DB0043EA5173C90011EB000C20
:1034B00043F10003990200234FEA8C2041EA9C511A
:1034C000FCF7C6FED1E70348D7E70348D5E700BFBE
:1034D0000038024040787D010024F400002800F00C
:1034E0009B8070B50D4604464F4B1B6803F00703E5
:1034F0008B4208D2CBB24C4A1370136803F0070317
:103500008B4240F08B80236813F0020F17D013F02A
:10351000040F04D0454A936843F4E0539360236852
:1035200013F0080F04D0414A936843F4604393605A
:103530003E4A936823F0F003A1680B43936023682D
:1035400013F0010F32D06368012B21D09A1E012A9B
:1035500025D9364A126812F0020F61D033498A68C1
:1035600022F0030213438B60FEF704F906462F4B4B
:103570009B6803F00C036268B3EB820F16D0FEF772
:10358000F9F8801B41F288339842F0D9032042E0D9
:10359000264A126812F4003FE0D101203BE0234AA2
:1035A000126812F0007FD9D1012034E01E4B1B6855
:1035B00003F00703AB4207D9EAB21B4B1A701B6832
:1035C00003F00703AB422DD1236813F0040F06D09C
:1035D000164A936823F4E053E1680B439360236831
:1035E00013F0080F07D0114A936823F46043216950
:1035F00043EAC1039360FFF71DFF0C4B9B68C3F3C5
:1036000003130B4AD35CD8400A4B18600A4B186866
:1036100000F0B4FC002070BD012070470120FAE7E3
:103620000120F8E70120F6E7003C024000380240A4
:10363000448300080C00002008000020014B18689B
:10364000704700BF0C00002008B5FFF7F7FF044BE0
:103650009B68C3F34233034AD35CD84008BD00BF24
:10366000003802403C8300080F2303600B4B9A682C
:1036700002F0030242609A6802F0F00282609A68E7
:1036800002F4E052C2609B68DB0803F4E05303617C
:10369000034B1B6803F007030B60704700380240C0
:1036A000003C024030B4026A036A23F00103036263
:1036B0004568836923F073030C681C4322F00202FF
:1036C0008B6813430B4A904206D0456084614A6878
:1036D0004263036230BC704723F00803CA681A4390
:1036E00022F0040325F440754A692A438D69154385
:1036F000EBE700BF0000014030B4036A026A22F425
:10370000807202624468C26922F073020D68154338
:1037100023F400738A6843EA02230D4A904206D0DC
:103720004460C5614A68C263036230BC704723F4D9
:103730000063CA6843EA022323F4806324F44054FC
:103740004A6944EA02148A6944EA0214E8E700BFBD
:103750000000014030B4036A026A22F4805202621F
:103760004468C26922F4E6420D6842EA052223F465
:1037700000538D6843EA0533074DA84206D04460E4
:10378000C2614A680264036230BC704724F480441A
:103790004D6944EA8514F2E70000014010B4036A61
:1037A000046A24F001040462846924F0F00C4CEAF9
:1037B000021223F00A030B43826103625DF8044B9B
:1037C000704710B4036A046A24F010040462846928
:1037D00024F4704C4CEA023223F0A00343EA0113B4
:1037E000826103625DF8044B7047836823F07003C5
:1037F0000B4343F0070383607047000090F83D30AF
:10380000012B2AD1022380F83D300368154A9342E8
:1038100018D0B3F1804F15D0A2F57C42934211D05D
:1038200002F5806293420DD002F58062934209D086
:1038300002F59A32934205D01A6842F001021A60EA
:10384000002070479A6802F00702062A07D01A681B
:1038500042F001021A6000207047012070470020EA
:10386000704700BF0000014090F83D30012B2FD180
:10387000022380F83D300268D36843F00103D3602F
:103880000368154A934218D0B3F1804F15D0A2F5C2
:103890007C42934211D002F5806293420DD002F532
:1038A0008062934209D002F59A32934205D01A6899
:1038B00042F001021A60002070479A6802F0070285
:1038C000062A07D01A6842F001021A6000207047E9
:1038D000012070470020704700000140704770478A
:1038E00070477047704770B504460368DE681D690D
:1038F00015F0020F10D016F0020F0DD06FF002027B
:103900001A610123037703689B6913F0030F5ED0EC
:10391000FFF7E6FF0023237715F0040F12D016F00F
:10392000040F0FD023686FF004021A61022323777B
:1039300023689B6913F4407F4FD02046FFF7D0FFE8
:103940000023237715F0080F12D016F0080F0FD0C0
:1039500023686FF008021A61042323772368DB6968
:1039600013F0030F40D02046FFF7BAFF0023237760
:1039700015F0100F12D016F0100F0FD023686FF053
:1039800010021A61082323772368DB6913F4407F50
:1039900031D02046FFF7A4FF0023237715F0010F55
:1039A00002D016F0010F2DD115F0800F02D016F0C5
:1039B000800F2FD115F0400F02D016F0400F31D1FB
:1039C00015F0200F02D016F0200F33D170BDFFF795
:1039D00086FF2046FFF785FF9CE72046FFF77FFF25
:1039E0002046FFF77EFFABE72046FFF778FF204633
:1039F000FFF777FFBAE72046FFF771FF2046FFF792
:103A000070FFC9E723686FF001021A612046FDF7D5
:103A1000EFF8C9E723686FF080021A61204600F0D2
:103A2000ABFAC7E723686FF040021A612046FFF740
:103A300059FFC5E723686FF020021A61204600F0A5
:103A40009AFAC3E70368294A90420ED0B0F1804F3A
:103A50000BD0A2F57C42904207D002F580629042E2
:103A600003D002F58062904203D123F070034A68CC
:103A700013431E4A90421AD0B0F1804F17D0A2F5DE
:103A80007C42904213D002F5806290420FD002F542
:103A9000806290420BD002F59A32904207D002F534
:103AA0008062904203D002F58062904203D123F4F9
:103AB0004073CA68134323F080034A6913430360C9
:103AC0008B68C3620B688362084B98420AD001235B
:103AD0004361036913F0010F03D0036923F001036D
:103AE000036170470B690363F1E700BF0000014009
:103AF00040B310B5044690F83D30F3B1022384F88A
:103B00003D30214651F8040BFFF79CFF012384F858
:103B1000463084F83E3084F83F3084F8403084F8F2
:103B2000413084F8423084F8433084F8443084F8DB
:103B3000453084F83D30002010BD80F83C3001F065
:103B4000E3FDDBE70120704740B310B5044690F871
:103B50003D30F3B1022384F83D30214651F8040B87
:103B6000FFF770FF012384F8463084F83E3084F874
:103B70003F3084F8403084F8413084F8423084F893
:103B8000433084F8443084F8453084F83D300020D8
:103B900010BD80F83C30FFF7A1FEDBE70120704745
:103BA00040B310B5044690F83D30F3B1022384F8D9
:103BB0003D30214651F8040BFFF744FF012384F800
:103BC000463084F83E3084F83F3084F8403084F842
:103BD000413084F8423084F8433084F8443084F82B
:103BE000453084F83D30002010BD80F83C3001F0B5
:103BF000BFFDDBE70120704730B4036A026A22F0A0
:103C0000100202624468826922F4E6420D6842EAC8
:103C1000052223F020038D6843EA05130C4DA842CA
:103C200006D0446082614A688263036230BC704798
:103C300023F08003CD6843EA051323F0400324F406
:103C400040644D6944EA85048D6944EA8504E8E7E7
:103C50000000014090F83C30012B28D010B50446FC
:103C6000012380F83C300C2A1CD8DFE802F0071B47
:103C70001B1B0C1B1B1B111B1B1B16000068FFF7DB
:103C800011FD00200FE00068FFF7B6FF00200AE0FA
:103C90000068FFF731FD002005E00068FFF75AFDDE
:103CA000002000E00120002384F83C3010BD0220F9
:103CB000704738B590F83C30012B66D004460D466D
:103CC000012380F83C300C2A5AD8DFE802F007596B
:103CD00059591B5959593059595944000068FFF72F
:103CE000E1FC2268936943F00803936122689369B9
:103CF00023F0040393612268936929690B4393615C
:103D000000203EE00068FFF777FF2268936943F4E4
:103D1000006393612268936923F48063936122684E
:103D20009369296943EA01239361002029E000682F
:103D3000FFF7E2FC2268D36943F00803D3612268ED
:103D4000D36923F00403D3612268D36929690B4343
:103D5000D361002015E00068FFF7FCFC2268D369FE
:103D600043F40063D3612268D36923F48063D36191
:103D70002268D369296943EA0123D361002000E066
:103D80000120002384F83C3038BD0220FCE710B449
:103D9000846824F47F4C42EA03220A4342EA0C027C
:103DA00082605DF8044B704790F83C30012B78D06E
:103DB00010B50446012380F83C30022380F83D30E2
:103DC0000268936823F47F4323F0770393600B68C2
:103DD000602B4CD023D8402B54D011D8202B03D0AB
:103DE0000AD80BB1102B05D119462068FFF7FDFC4E
:103DF000002028E0012026E0302BF5D0012022E031
:103E0000502B0AD1CA6849680068FFF7C7FC5021E7
:103E10002068FFF7EAFC002015E0012013E0B3F56D
:103E2000805F3AD0B3F5005F14D0702B37D1CB68E8
:103E30004A6889680068FFF7AAFF2268936843F020
:103E4000770393600020012384F83D30002384F839
:103E50003C3010BDCB684A6889680068FFF797FF5F
:103E60002268936843F4804393600020EBE7CA68BC
:103E700049680068FFF7A5FC60212068FFF7B5FCE2
:103E80000020E0E7CA6849680068FFF787FC402126
:103E90002068FFF7AAFC0020D5E70020D3E7012027
:103EA000D1E702207047000090F83C20012A35D06D
:103EB00010B40346012280F83C20022280F83D2005
:103EC00002685068946820F0700C086840EA0C00A2
:103ED00050601A681248824212D0B2F1804F0FD05F
:103EE000A0F57C4082420BD000F58060824207D072
:103EF00000F58060824203D000F59A30824204D1FE
:103F000024F08004496821439160012283F83D2018
:103F1000002083F83C005DF8044B70470220704796
:103F200000000140024690F83C30012B21D00123D3
:103F300080F83C30CB6823F440738868034323F453
:103F400080634868034323F400630868034323F451
:103F500080530869034323F400534869034323F45F
:103F60008043C9690B4311684B64002082F83C0010
:103F700070470220704770477047000030B589B025
:103F80000546002401941D4B5A6C42F480225A6469
:103F90005B6C03F480230193019B02A903A8FFF744
:103FA00063FBFFF751FB164AA2FB00239B0C013B6E
:103FB0001448154A026040F2E732C260436004616F
:103FC00084608461FFF794FD044610B1204609B077
:103FD00030BD0C48FFF748FC04460028F6D11A20F3
:103FE000FDF7D4FE0F2D01D90124EFE70022294669
:103FF0001A20FDF7BBFE054B1D60E7E700380240C5
:1040000083DE1B43E44A00200048014008000020F2
:10401000FEE7FEE7FEE7FEE7FEE7704708B5034868
:10402000FFF761FC0248FFF75EFC08BDC0500020AE
:10403000E44A002008B54FF48050FEF793F908BD1C
:1040400008B50248FDF7BCFF08BD00BF68010020AD
:1040500008B50248FEF7E7FC08BD00BF345F00204A
:1040600082B000230193019B01330193019BB3F1C3
:10407000706F15D80369002BF5DA002301930369EB
:1040800043F001030361019B01330193019BB3F1F1
:10409000706F08D8036913F0010FF4D1002000E01D
:1040A000032002B070470320FBE784B010B504463C
:1040B00003A880E80E009DF81130012B21D1A36BDD
:1040C00023F48033A363E36823F4840323F04003E1
:1040D000E360E36823F44013E3609DF81830012B9C
:1040E0000AD02046FFF7BCFF9DF80E30012B1CD0F4
:1040F000BDE8104004B07047E36843F48013E36008
:10410000EFE7E36843F04003E3602046FFF7A8FFD2
:104110009DF8153023B9A36B43F48033A363E3E721
:10412000A36B23F48033A363DEE7A36843F00603A5
:10413000A360A36843F02003A360D9E7022A0AD052
:104140000922C36823F47053C360C36843EA82231F
:10415000C36000207047234B0B44234A93422FD95E
:10416000224B0B44224A93422CD9A1F57403A3F5A8
:104170001053204A934227D9A1F18373A3F5E74353
:104180001D4A934222D31D4B0B441D4A93421FD913
:104190001C4B0B441C4A93421CD31C4B0B441C4A23
:1041A000934219D3A1F1B773A3F55853194A934217
:1041B00014D3194B0B44194A934211D20722C0E77A
:1041C0000F22BEE70E22BCE70D22BAE70C22B8E7A9
:1041D0000B22B6E70A22B4E70922B2E70822B0E7C9
:1041E0000622AEE7405327FFFF340C00401E1BFFA2
:1041F0003F420F007F4F120020D6130060B6E5FE4D
:104200005FE3160000D3CEFE40771B00C05BB3FE19
:10421000C091210020753800E05459FEE09C410017
:10422000836843F00103836000207047836823F0B4
:10423000010383600020704782B000230193019B3B
:1042400001330193019BB3F1706F15D80369002B03
:10425000F5DA00230193890141F020010161019BFE
:1042600001330193019BB3F1706F08D8036913F018
:10427000200FF4D1002000E0032002B0704703209B
:10428000FBE782B000230193019B01330193019B63
:10429000B3F1706F13D80369002BF5DA0023019393
:1042A00010230361019B01330193019BB3F1706FF4
:1042B00008D8036913F0100FF4D1002000E00320A8
:1042C00002B070470320FBE7D0F800381943C0F86C
:1042D000001800207047000084B0F8B5044607A815
:1042E00080E80E00002306E003F1400204EB8202A6
:1042F0000021516001330E2BF6D99DF8266006BBD4
:10430000D4F8043843F00203C4F80438A36B43F430
:104310000013A363A36B23F40023A363A36B23F411
:104320008023A3630023C4F8003E9DF82130012BB5
:1043300015D19DF81F306BB900212046FFF7C4FF4F
:1043400011E0A36B23F40013A363A36B43F40023D6
:10435000A363E7E701212046FFF7B6FF03E003214F
:104360002046FFF7B1FF10212046FFF765FF054605
:1043700000B101252046FFF784FF00B1012504F5B7
:10438000006C0023CCF81030CCF81430CCF81C3082
:104390000DE04FF09040C2F8000902E00020C2F8A2
:1043A000000900220A614FF67F328A6001339DF8CE
:1043B0001C1099420ED904EB431202F51061D2F899
:1043C00000090028EADA002BE3D14FF00060C2F8C0
:1043D0000009E6E700230AE0BBB14FF09047C2F8BE
:1043E000007B002202614FF67F32826001339942E6
:1043F00010D904EB431202F53060D2F8007B002F95
:10440000EADB0027C2F8007BEBE74FF00067C2F859
:10441000007BE6E7DCF8103023F48073CCF8103032
:104420000023A3616FF0804363619DF81E301BB9C8
:10443000A36943F01003A361A2690C4B1343A3616A
:104440009DF822301BB1A36943F00803A361012E3C
:1044500004D02846BDE8F84004B07047A36943F093
:10446000804343F00403A361F3E700BF00383C80BE
:10447000D0F8083803F00603022B04D0062B04D032
:104480002BB90020704702207047022070470F2090
:10449000704710B591F800C04B78012B23D000F580
:1044A000006ED0F81C380CF00F040122A24043EA41
:1044B0000243C0F81C3800EB4C10D0F8003B13F45A
:1044C000004F0ED1D0F8003B8A68C2F30A02097986
:1044D00042EA8142134343F0805343F40043C0F85F
:1044E000003B002010BDD0F81C280CF00F0E03FA82
:1044F0000EF39BB21343C0F81C3800EB4C10D0F8FD
:10450000003913F4004FECD1D0F800398A68C2F3B7
:104510000A02097942EA814242EA8C52134343F08B
:10452000805343F40043C0F80039DAE730B40B7825
:104530004A78012A26D000EB4313D3F8002B002A37
:1045400052DBD0F83C480A7802F00F024FF0010C21
:104550000CFA02F224EA0242C0F83C28D0F81C28E7
:10456000097801F00F010CFA01FC22EA0C42C0F8B4
:104570001C28D3F8001B234A0A40C3F8002B002054
:1045800030BC704700EB4313D3F80029002A1EDB30
:10459000D0F83C580A7802F00F02012404FA02F223
:1045A00092B225EA0202C0F83C28D0F81C2809780B
:1045B00001F00F018C40A4B222EA0402C0F81C28CA
:1045C000D3F80019104A0A40C3F80029D7E7D3F8F6
:1045D000002942F00062C3F80029D3F8002942F014
:1045E0008042C3F80029D3E7D3F8002B42F00062E1
:1045F000C3F8002BD3F8002B42F08042C3F8002B05
:104600009FE700BF0078F3EF007833EC10B483B07D
:10461000024600230193487801280BD00B7802EB67
:104620004313D3F8000B00282DDB002003B05DF806
:10463000044B70470B7802EB4313D3F80049002C6E
:1046400001DB0020F2E7D3F8004944F00064C3F82E
:1046500000490B7802EB4313D3F8004944F080443F
:10466000C3F80049019B01330193019C42F210738E
:104670009C42DBD80B7802EB4313D3F80039002BB4
:10468000F0DB0020D2E7D3F8000B40F00060C3F865
:10469000000B0B7802EB4313D3F8000B40F0804083
:1046A000C3F8000B019B01330193019842F2107390
:1046B000984208D80B7802EB4313D3F8003B002B49
:1046C000F0DB0020B2E70120B0E710B59DF808400C
:1046D00084B903334FEA930E4FF0000C08E000EB6F
:1046E000023303F5805351F8044B1C600CF1010CAC
:1046F000F445F4D3002010BDF0B583B00C784B78AE
:10470000012B2DD000EB441C0CF530631D696FF3B9
:1047100012051D611D696FF3DC451D61002C40F021
:10472000CE800C690CB18C680C618C680C621D69C0
:10473000C4F312042C431C611C6944F400241C6162
:10474000012A00F0DF800B79012B00F0E180DCF81A
:10475000003B43F00443CCF8003B002003B0F0BD25
:104760000B6973BB00EB4413D3F810596FF3DC45AE
:10477000C3F81059D3F8105945F40025C3F810595F
:10478000D3F810596FF31205C3F81059012A54D009
:1047900000EB4414D4F8003943F00443C4F8003962
:1047A0000B79012B72D00B69002BD6D0D0F834389E
:1047B000097801F00F0101228A401343C0F8343810
:1047C000CBE700EB441303F510631D696FF312058B
:1047D0001D611D696FF3DC451D6184B90E698D682B
:1047E000AE4200D90D611D6945F400251D611D69AA
:1047F0000E69C6F3120C45EA0C051D61C6E70D698A
:104800008E683544013DB5FBF6F51E691FFA85FC3F
:10481000494F07EAC54535431D610D79012DE6D1A4
:104820001D6925F0C0451D611D694FEA4C7C0CF0E7
:10483000C04C45EA0C051D61D9E7CB691BB100EB03
:104840004412C2F814390B79012B08D000EB441440
:10485000D4F8003943F00443C4F800397DE7D0F8B8
:10486000083813F4807F08D100EB4412D2F80039E5
:1048700043F00053C2F80039E8E700EB4412D2F8E5
:10488000003943F08053C2F80039DFE7D0F8083828
:1048900013F4807F0CD1D4F8003943F00053C4F8EE
:1048A000003900920B8A0A78C968FFF70EFF54E7B7
:1048B000D4F8003943F08053C4F80039F1E70C69AB
:1048C00054B91C698D68C5F312052C431C611C6921
:1048D00044F400241C6133E78D682C44013CB4FB94
:1048E000F5F4A4B204FB05F50D621D69124E06EA4B
:1048F000C4442C431C611C690D6AC5F312052C438A
:104900001C611DE7CA68002A3FF41DAF5A611AE70F
:10491000D0F8083813F4807F06D1DCF8003B43F070
:104920000053CCF8003B12E7DCF8003B43F0805327
:10493000CCF8003B0BE700BF0000F81F10B5844621
:1049400008464FEA920E02F00302002305E00CF540
:104950008051096840F8041B01337345F7D37AB1DD
:104960000CF5805CDCF800400021CBB2DB0024FABF
:1049700003F300F8013B0131013A92B2002AF4D16D
:1049800010BD0B784A78012A14D000EB4310D0F800
:10499000002B002A06DB2BB1D0F8003B23F080432C
:1049A000C0F8003BD0F8003B43F40013C0F8003BD4
:1049B0000020704700EB4310D0F80029002A06DBE6
:1049C0002BB1D0F8003923F08043C0F80039D0F87B
:1049D000003943F40013C0F80039E9E70B784A784E
:1049E000012A0ED000EB4310D0F8003B23F4001353
:1049F000C0F8003B0B79023BDBB2012B15D900203C
:104A0000704700EB4310D0F8003923F40013C0F8CE
:104A100000390B79023BDBB2012BF0D8D0F800391A
:104A200043F08053C0F80039E9E7D0F8003B43F089
:104A30008053C0F8003BE2E7D0F8003823F4FE636F
:104A4000C0F80038D0F80038090101F4FE610B43CA
:104A5000C0F8003800207047D0F8003E23F0030370
:104A6000C0F8003ED0F8043823F00203C0F8043840
:104A700000207047D0F8003E23F00303C0F8003E4A
:104A8000D0F8043843F00203C0F80438002070471F
:104A90004269806910407047D0F8183800F500600E
:104AA000C0691840000C7047D0F8183800F5006055
:104AB000C069184080B2704700EB4111D1F8082B53
:104AC00000F50060406910407047D0F81028D0F819
:104AD000343801F00F0C23FA0CF3DB01DBB2134383
:104AE00000EB411000F51060806818407047406985
:104AF00000F00100704738B50546C36823F0C04395
:104B0000C360012913D019BBC36843F08043C3605D
:104B100000240A20FCF734FE0A342846FFF7E7FF9A
:104B200008B1C72CF5D9C82C14D0002038BDC368F3
:104B300043F00053C36000240A20FCF721FE0A342E
:104B40002846FFF7D4FF0128EDD0C72CF4D9EAE7B7
:104B50000120EBE70120E9E7D0F800396FF30A0301
:104B6000C0F80039D0F8043843F48073C0F8043832
:104B70000020704710B4046C154B9C4203D9D0F848
:104B8000003B002B16DB0024C0F8104BD0F8104B74
:104B900044F40024C0F8104BD0F8104B44F0180433
:104BA000C0F8104BD0F8104B44F0C044C0F8104B84
:104BB000012903D000205DF8044B7047C0F8142B86
:104BC000D0F8003B43F08023C0F8003BF2E700BF81
:104BD0000A30544F10B503460C4A0D490D48006881
:104BE00040B10C4800680344521A934206D8094A5F
:104BF000136010BD0748084C0460F2E702F018FD8E
:104C00000C2303604FF0FF30F3E700BF00000120EA
:104C1000000400002C4B002068670020034AD2F8F3
:104C2000883043F47003C2F88830704700ED00E02C
:104C300000B583B0B5EEC00AF1EE10FA2CDBDFED63
:104C40001A7AB4EEE70AF1EE10FA25D8F5EEC00AAA
:104C5000F1EE10FA20DBDFED157AF4EEE70AF1EE63
:104C600010FA19D89FED127AC0EE077AFCEEE77AB7
:104C7000CDED017A9DF80420B1EE0E7AC0EE877A70
:104C8000FCEEE77A17EE903A120152FA83F300EB4A
:104C9000830090ED000A04E00648FBF763FD9FEDFA
:104CA000060A03B05DF804FB0080BB450000F0423B
:104CB0000080BB438082000800000000084B1B6896
:104CC0001B6823B9074B4FF0FF321A607047044B43
:104CD0001B68DB68DB685A68024B1A60704700BFCC
:104CE000A04B0020384B00202DE9F04780460D46B0
:104CF00017469946089EDDF824A00A9C9200A5213B
:104D0000206B02F08DFC236B07F18042013A03EB2C
:104D1000820727F00707A5B34FF0000CBCF10F0F77
:104D200009D815F80C3004EB0C0282F8343013B1BA
:104D30000CF1010CF2E7002384F84330372E00D940
:104D40003726E662E66400252565201DFBF709FF8E
:104D500004F11800FBF705FF2461C6F13806A661CF
:104D60006462656584F858504A4641463846FCF707
:104D700003F82060BAF1000F01D0CAF80040BDE886
:104D8000F087002384F83430D8E7000038B50024D9
:104D900007E004EB840293000E481844FBF7D6FEAC
:104DA0000134372CF5D90C4D2846FBF7CFFE0B4CC0
:104DB0002046FBF7CBFE0A48FBF7C8FE0948FBF785
:104DC000C5FE0948FBF7C2FE084B1D60084B1C607E
:104DD00038BD00BFCC4B0020B84B0020A44B0020B6
:104DE000884B0020744B00205C4B0020A04B00201F
:104DF0009C4B002010B50446FBF7ECFF224A1368D9
:104E000001331360214B1B685BB1214B1B686BB9ED
:104E10001E4B1B68DA6AE36A9A4207D81B4B1C6078
:104E200004E01A4B1C601368012B29D0194A13683F
:104E3000013313606364E06A174B1B68984201D921
:104E4000154B186000EB8000211D144B03EB800014
:104E5000FBF78AFEFBF7E0FF0D4B1B687BB10B4BAA
:104E60001B68DA6AE36A9A4209D24FF0E0234FF0F6
:104E70008052C3F8042DBFF34F8FBFF36F8F10BD67
:104E8000FFF784FFD2E700BF584B00202C500020D2
:104E90004C4B00203C4B0020504B0020CC4B0020C2
:104EA00010B5044690F8593063B1012B11D0022B94
:104EB0000ED04FF0500383F31188BFF36F8FBFF311
:104EC0004F8FFEE7006BFBF703FE2046FBF700FE6B
:104ED00010BDFBF7FDFDFBE70F4B1B68D3B110B511
:104EE000FBF778FF0D4BDB68DC68201DFBF760FEED
:104EF0000B4A1368013B1360074A1368013B1360B8
:104F0000FBF78AFF2046FFF7CBFF034B1B68002B04
:104F1000E6D110BD704700BF704B0020744B0020DD
:104F2000584B002008B5FFF7D7FF074B1B68012B34
:104F3000F9D94FF0E0234FF08052C3F8042DBFF3AE
:104F40004F8FBFF36F8FEEE7CC4B002070B5044658
:104F50000D46174B1E68174B18680430FBF728FEE8
:104F6000B4F1FF3F0DD03444124B1B685C60A64285
:104F700010D9114B18680F4B19680431FBF7FFFD6E
:104F800070BD002DEFD00B4B196804310B48FBF7B7
:104F9000EBFDF5E70A4B1868064B19680431FBF77F
:104FA000EEFD084B1B68A342EAD9064B1C60E7E7FD
:104FB000544B00202C5000209C4B00205C4B0020C8
:104FC000A04B0020384B002030B587B00B9C7CB143
:104FD0000C9DB5B15C250495049D5C2D1AD04FF055
:104FE000500383F31188BFF36F8FBFF34F8FFEE73A
:104FF0004FF0500383F31188BFF36F8FBFF34F8FD0
:10500000FEE74FF0500383F31188BFF36F8FBFF3B8
:105010004F8FFEE7049D0C9D2C63022485F85940B8
:1050200000240394029505AC01940A9C0094FFF7B8
:105030005BFE0C98FFF7DEFE059807B030BD2DE94A
:10504000F04385B00746884614461E469000FBF79D
:10505000BDFC08B381465C20FBF7B8FC0546A8B14F
:10506000C0F83090002380F85930039302900D9BD4
:1050700001930C9B00933346224641463846FFF786
:1050800033FE2846FFF7B6FE012007E04846FBF74F
:105090001FFD4FF0FF3001E04FF0FF3005B0BDE8DD
:1050A000F083000010B588B000240594069407AA88
:1050B00006A905A8FBF706FB059B0293069B019337
:1050C00000942346079A17491748FFF77DFF174BAF
:1050D0001860C0B100F008FD012815D14FF0500351
:1050E00083F31188BFF36F8FBFF34F8F104B4FF0D7
:1050F000FF321A600F4B01221A600F4B00221A6018
:10510000FBF702FF03E00020B0F1FF3F01D008B041
:1051100010BD4FF0500383F31188BFF36F8FBFF3BF
:105120004F8FFEE7AC820008254F0008344B00206B
:10513000384B00204C4B0020544B0020024A13688F
:1051400001331360704700BF304B0020014B1868DB
:10515000704700BF544B0020F8B53A4B1B68002B3A
:1051600069D1394B1D6801351D60C5B9374B1B68C6
:105170001B6843B14FF0500383F31188BFF36F8F67
:10518000BFF34F8FFEE7314A1168314B186810604A
:105190001960304A136801331360FFF78FFD2E4BFF
:1051A0001B68AB423DD900272C4B1B68DB6A03EB25
:1051B00083039A002A4B9B58012B00D90127294BC6
:1051C0001B68002B3CD001273AE001271F4B1B68CE
:1051D0001B6843B31D4B1B68DB68DC6863689D423A
:1051E00026D3261D3046FBF7E3FCA36A1BB104F16E
:1051F0001800FBF7DDFCE36A1B4A1268934201D9F1
:10520000194A136003EB83039A0031461448104493
:10521000FBF7AAFCE26A114B1B68DB6A9A42D4D204
:10522000D4E70027D2E70C4B4FF0FF321A60BBE700
:10523000094A1360B8E70D4A136801331360002769
:105240003846F8BD304B0020544B0020A04B0020C6
:105250009C4B0020404B0020384B00202C5000205D
:10526000CC4B0020444B0020504B0020484B0020EA
:1052700038B5354B1B6843B94FF0500383F31188A1
:10528000BFF36F8FBFF34F8FFEE7FBF7A3FD2E4BEE
:105290001A68013A1A601B68002B4FD12B4B1B6810
:1052A0000BB900244BE00024294B1B681BB3284B8F
:1052B000DB68DC6804F11800FBF77AFC251D284642
:1052C000FBF776FCE06A234B1B68984201D9214B1F
:1052D000186000EB800029461F4B03EB8000FBF7B2
:1052E00043FCE26A1D4B1B68DB6A9A42DCD31C4B11
:1052F00001221A60D8E70CB1FFF7E0FC194B1C68DB
:1053000084B9174B1C68D4B14FF0E0234FF08052A2
:10531000C3F8042DBFF34F8FBFF36F8F01240EE04E
:10532000013C07D0FFF718FF0028F9D00C4B0122F1
:105330001A60F5E70B4B00221A60E2E70024FBF746
:105340006BFD204638BD00BF304B0020584B00207D
:10535000884B0020504B0020CC4B00202C500020CC
:10536000444B0020484B002010B5A8B10446104B18
:105370001B6843B14FF0500383F31188BFF36F8F65
:10538000BFF34F8FFEE7FFF7D9FE00212046FFF75E
:10539000DDFDFFF76DFF48B94FF0E0234FF080527D
:1053A000C3F8042DBFF34F8FBFF36F8F10BD00BF45
:1053B000304B0020204B1B681BB1204B01221A6090
:1053C00070471E4B00221A601D4B1B6803EB8301C4
:1053D0008A001C498A585AB90BB1013BF6E74FF0D5
:1053E000500383F31188BFF36F8FBFF34F8FFEE736
:1053F000084603EB83018A00024451684968516002
:1054000003EB830C4FEA8C020832024491420BD02A
:1054100003EB830291000B4A0A445268D1680A4A9E
:105420001160074A13607047486862469100054A58
:105430000A445060ECE700BF304B0020444B002092
:10544000504B0020CC4B00202C50002058B110B500
:105450000C46094A11681831FBF791FB01212046DF
:10546000FFF774FD10BD4FF0500383F31188BFF3B5
:105470006F8FBFF34F8FFEE72C50002038B570B10F
:105480000D4614460A4A11681831FBF76DFB0CB142
:105490004FF0FF3521462846FFF758FD38BD4FF045
:1054A000500383F31188BFF36F8FBFF34F8FFEE775
:1054B0002C50002038B5C368DC6824B304F118050B
:1054C0002846FBF775FB184B1B682BBB251D284690
:1054D000FBF76EFBE06A154B1B68984201D9134B32
:1054E000186000EB80002946114B03EB8000FBF7AE
:1054F0003BFBE26A0F4B1B68DB6A9A4211D9012021
:105500000D4B186038BD4FF0500383F31188BFF383
:105510006F8FBFF34F8FFEE729460848FBF724FB48
:10552000E7E70020EEE700BF304B0020504B0020A3
:10553000CC4B00202C500020444B0020884B0020F6
:10554000034B1B680360034B1B684360704700BF3D
:10555000404B0020544B0020E0B170B50C4605468E
:1055600009B3FBF737FC1C4B19686B68C81A226833
:10557000B2F1FF3F28D0DFF864C0DCF800C02E682D
:10558000664501D08B4224D9824215D8002323607E
:1055900001241AE04FF0500383F31188BFF36F8F9B
:1055A000BFF34F8FFEE74FF0500383F31188BFF333
:1055B0006F8FBFF34F8FFEE75B1A134423602846BB
:1055C000FFF7BEFF002400E00024FBF725FC204687
:1055D00070BD0124F9E700BF544B0020404B002070
:1055E000014B01221A607047444B0020054B1B6899
:1055F00033B1054B1B680BB1002070470220704788
:10560000012070474C4B0020304B002000283BD03D
:1056100038B504461E4B1B68834208D04FF0500338
:1056200083F31188BFF36F8FBFF34F8FFEE7036DD6
:1056300043B94FF0500383F31188BFF36F8FBFF36B
:105640004F8FFEE7013B0365C16AC26C91421DD0DA
:105650000BB1002038BD051D2846FBF7A9FAE06C08
:10566000E062C0F13803A3610A4B1B68984201D97C
:10567000084B186000EB80002946074B03EB8000C5
:10568000FBF772FA0120E5E7002070470020E1E710
:105690002C500020504B0020CC4B002000B587B090
:1056A00000230293039304930593009301931448FA
:1056B000144A0260436083604FF0FF32C2600361AE
:1056C0008361FEF715FA90B94FF48053029302A953
:1056D0000B48FEF769FB68B9002300930193694604
:1056E0000748FEF7E1FB40B907B05DF804FBFBF7A4
:1056F0008BFAE9E7FBF788FAEEE7FBF785FAF3E7C1
:1057000030500020000C004000B583B00368154AFB
:10571000934205D0144A934216D003B05DF804FBBF
:1057200000220092114B596C41F0010159645B6CED
:1057300003F001030093009B0F211A20FCF716FBD6
:105740001A20FCF723FBE8E700230193074B1A6CB0
:1057500042F008021A641B6C03F008030193019BDA
:10576000DBE700BF00000140000C004000380240B1
:105770000268094B9A4200D0704782B0002301931F
:10578000064B1A6C42F002021A641B6C03F002030F
:105790000193019B02B070470004004000380240B2
:1057A00000B589B0002303930493059306930793F0
:1057B00003681C4A934205D01B4A93421AD009B091
:1057C0005DF804FB00230193184B1A6B42F00102B1
:1057D0001A631B6B03F001030193019B4FF4E06319
:1057E0000393022304930123079303A91048FCF7B2
:1057F000D5FCE4E7002302930C4B1A6B42F0040241
:105800001A631B6B03F004030293029B4FF4707343
:10581000039302230493079303A90648FCF7BEFCF5
:10582000CDE700BF00000140000400400038024006
:10583000000002400008024010B596B00024129407
:105840001394149415941094119409940A940B943D
:105850000C940D940E940F942022214601A801F07F
:10586000DFFE3B483B4B0360446084604FF6FF73B0
:10587000C360046144618461FEF73AF900284CD1A9
:105880004FF48053129312A93148FEF78DFA002885
:1058900046D12F48FEF784F9002844D12C48FEF762
:1058A00053F9002842D100231093119310A92848DE
:1058B000FEF7FAFA00283CD16023099300220A92ED
:1058C0000B920C920D920E920F9209A92048FEF7AE
:1058D000F0F9002830D1042209A91D48FEF7E9F9A2
:1058E00068BB00230993082209A91948FEF7B2F9F9
:1058F00040BB0023019302930393049305934FF459
:1059000000520692089301A91148FEF70BFBE0B97B
:105910000F48FFF745FF16B010BDFBF775F9AFE76D
:10592000FBF772F9B5E7FBF76FF9B7E7FBF76CF92F
:10593000B9E7FBF769F9BFE7FBF766F9CBE7FBF7D8
:1059400063F9CEE7FBF760F9D3E7FBF75DF9DFE733
:10595000C05000200000014000B58BB00023089328
:10596000099301930293039304930593069307937A
:105970002548264A0260436083604FF6FF72C2608A
:1059800003618361FEF70CF958BB00230893099368
:1059900008A91D48FEF788FA30BB60230193002256
:1059A00002920392059201A91748FEF782F9F0B915
:1059B00004220DEB02011448FEF77BF9D0B908224E
:1059C00001A91148FEF775F9B8B90C2201A90E48D2
:1059D000FEF76FF9A0B90C48FFF7E2FE0BB05DF8D7
:1059E00004FBFBF711F9D0E7FBF70EF9D5E7FBF75E
:1059F0000BF9DDE7FBF708F9E1E7FBF705F9E4E769
:105A0000FBF702F9E7E700BF7850002000040040F0
:105A1000064B1A6813682BB90123036023B9D368B6
:105A2000186870470023F8E70020704708520020EC
:105A300008B54160006191420CD8D21A83699A423C
:105A400001D3012008BD011D094B1868FBF797F829
:105A50000020F7E79A4201D2994206D2011D054B78
:105A60001868FBF78CF80020ECE70120EAE700BF9C
:105A7000045200200852002030B583B0FBF7AAF989
:105A8000114B1B681BB1FBF7C7F903B030BD0F4DBD
:105A90002846FBF75BF80E4C2046FBF757F80D4BFA
:105AA0001D600D4B1C60002300930C4B0C4A102111
:105AB0000A20FBF7D6FB044B18600028E3D0094905
:105AC000FBF7F4FDDFE700BF00520020205200206A
:105AD0000C520020085200200452002008510020DF
