:020000040800F2
:10000000000001209D130008451100084711000859
:10001000491100084B1100084D11000800000000B4
:100020000000000000000000000000004F11000868
:10003000511100080000000053110008551100087C
:10004000ED130008ED130008ED130008ED13000890
:10005000ED130008ED130008ED130008ED13000880
:10006000ED130008ED130008ED130008ED13000870
:10007000ED130008ED130008ED130008ED13000860
:10008000ED130008ED130008ED1300080000000058
:10009000000000000000000000000000ED13000858
:1000A000ED130008ED130008ED130008ED13000830
:1000B000ED130008ED130008ED130008ED13000820
:1000C000ED130008ED130008ED130008ED13000810
:1000D000ED130008ED130008ED1300080000000008
:1000E0005D110008ED130008ED130008000000008A
:1000F000000000000000000000000000ED130008F8
:1001000000000000ED130008ED130008ED130008D7
:1001100000000000000000000000000000000000DF
:10012000ED130008ED130008ED130008ED130008AF
:10013000ED130008000000000000000000000000B7
:10014000000000000000000000000000ED130008A7
:10015000ED130008ED130008ED130008ED1300087F
:10016000ED130008ED13000800000000000000007F
:10017000000000000000000000000000000000007F
:1001800000000000ED130008000000000000000067
:04019000ED13000863
:1001940053B94AB9002908BF00281CBF4FF0FF31EA
:1001A4004FF0FF3000F00CB8ADF1080C6DE904CE4F
:1001B40001F048F9DDF804E0DDE9022304B07047FA
:1001C400704700BF10B5054C237833B9044B13B105
:1001D4000448AFF300800123237010BD0C000020FD
:1001E400000000004017000808B5034B1BB1034989
:1001F4000348AFF3008008BD000000001000002099
:100204004017000878B110B5074C206000F0E2FCFC
:10021400034620680168054AA2FB03239B0C8B62FA
:1002240000F00CFE10BD70472800002083DE1B4345
:10023400024B1B681B68586A704700BF28000020E7
:10024400044B1B681B68586A034BA3FB00308009EE
:10025400704700BF28000020D34D621010B58AB04B
:1002640005A9002405944C608C60CC600C61019459
:100274001E4B1A6B42F004021A631A6B02F004025A
:100284000192019A02941A6B42F080021A631A6B6B
:1002940002F080020292029A03941A6B42F0020264
:1002A4001A631A6B02F002020392039A04941A6B03
:1002B40042F001021A631B6B03F001030493049BD5
:1002C4004FF4805305934FF4881306930223079346
:1002D400074800F075F922462146282000F048F925
:1002E400282000F055F90AB010BD00BF00380240C4
:1002F40000040240B0F5805F00D0704708B500F0FC
:10030400D1FF08BD72B6FEE710B594B008AC302238
:100314000021204601F069F8002303930493059318
:10032400069307930193204A116C41F080511164A4
:10033400126C02F080520192019A02931B4A1368D4
:1003440023F4404343F400431360136803F440432D
:100354000293029B012308934FF4803309930223F1
:100364000E934FF480020F9219221092A822119238
:10037400129304231393204600F030FA78B90F2324
:10038400039302210491002305934FF480520692B3
:10039400079303A800F072FC18B914B010BDFFF75E
:1003A400B1FFFFF7AFFF00BF00380240007000400C
:1003B40008B50F4B00241C703C229A7002225A701C
:1003C40000F042F8FFF7A0FFFFF748FF00F0D4FE6B
:1003D4000848FFF717FF204600F046FF00F04CFFE7
:1003E400642000F05DF8FFF72BFF034B1860F7E77C
:1003F4002C000020440000203C00002010B50446DE
:100404000E4B1A784FF47A73B3FBF2F30C4A10686C
:10041400B0FBF3F000F0C0F868B90F2C01D901204B
:100424000AE0002221464FF0FF3000F0A1F8054B0E
:100434001C60002000E0012010BD00BF000000206F
:10044400080000200400002008B50B4B1A6842F491
:1004540000721A601A6842F480621A601A6842F4E0
:1004640080721A60032000F071F80F20FFF7C6FFB6
:1004740000F098F9002008BD003C0240034A1168CE
:10048400034B1B780B441360704700BF40000020EF
:1004940000000020014B1868704700BF4000002096
:1004A40038B50446FFF7F6FF0546B4F1FF3F02D026
:1004B400044B1B781C44FFF7EDFF401BA042FAD30A
:1004C40038BD00BF00000020002807DB00F01F0239
:1004D400400901239340024A42F82030704700BF8C
:1004E40000E100E0002808DB0901C9B200F1604026
:1004F40000F5614080F80013704700F00F00090117
:10050400C9B2014B1954704714ED00E000B500F076
:100514000700C0F1070CBCF1040F28BF4FF0040C16
:10052400031D062B0FD9C31E4FF0FF3E0EFA0CF02D
:1005340021EA000199400EFA03FE22EA0E0241EA82
:1005440002005DF804FB0023EEE70000074AD368CD
:1005540023F4E0631B041B0C000200F4E06003437B
:1005640043F0BF6343F40033D360704700ED00E011
:1005740010B50446054BD868C0F30220FFF7C6FF48
:1005840001462046FFF7AEFF10BD00BF00ED00E0BE
:1005940008B5FFF799FF08BD0138B0F1807F0BD291
:1005A4004FF0E0235861054AF02182F8231000201F
:1005B400986107221A6170470120704700ED00E03E
:1005C40000230F2B00F2D78070B582B065E08568F8
:1005D4004FEA430E032404FA0EF425EA0405CC681A
:1005E40004FA0EF42C438460446824EA02044A6842
:1005F400C2F300129A40224342605CE0DC080834F3
:1006040050F8242003F00705AD004FF00F0E0EFA4A
:1006140005FE22EA0E0E0A69AA4042EA0E0240F8DA
:1006240024205CE0042200E0002202FA0EF22A43B5
:100634000234514D45F82420504A94686FEA0C0264
:1006440024EA0C054E6816F4801F01D04CEA040518
:100654004A4CA560E46802EA04054E6816F4001FDB
:1006640001D04CEA0405454CE560646802EA0405DF
:100674004E6816F4003F01D04CEA04053F4C656017
:10068400246822404D6815F4803F01D04CEA0402EE
:100694003A4C226001330F2B6BD801229A400C682C
:1006A40004EA020C32EA0404F4D14C6804F00304B2
:1006B400013C012C8BD94A6802F00302032A09D0B9
:1006C400C4685D000322AA4024EA02048A68AA409E
:1006D4002243C2604A6802F00302022A8ED00468F0
:1006E4004FEA430E032202FA0EF224EA02044A6895
:1006F40002F0030202FA0EF2224302604A6812F484
:10070400403FC7D0002201921D4A546C44F48044F7
:100714005464526C02F480420192019A9C08A51C14
:10072400154A52F8255003F0030E4FEA8E0E0F229D
:1007340002FA0EF225EA0205124A90423FF474AF1F
:1007440002F5806290420ED002F5806290420CD095
:1007540002F5806290420AD002F5806290423FF432
:1007640061AF072261E701225FE702225DE703220E
:100774005BE702B070BD704700380140003C0140A7
:10078400003802400000024008B5054B5B69034293
:1007940000D108BD024B5861FFF7ACFDF9E700BF7B
:1007A400003C014082B0002100910B4B5A6C42F492
:1007B40080425A645A6C02F480420092009A019179
:1007C4001A6C42F080521A641B6C03F0805301933C
:1007D400019B02B0704700BF00380240002800F0BF
:1007E400E08170B582B00446036813F0010F3BD07A
:1007F4009F4B9B6803F00C03042B2CD09C4B9B68F1
:1008040003F00C03082B21D06368B3F5803F4FD06D
:10081400B3F5A02F52D0964B1A6822F480321A6096
:100824001A6822F480221A606368002B50D0FFF704
:1008340031FE05468E4B1B6813F4003F14D1FFF7BD
:1008440029FE401B6428F5D90320B1E1884B5B687D
:1008540013F4800FD8D0864B1B6813F4003F03D0E9
:100864006368002B00F09F81236813F0020F54D0BB
:100874007F4B9B6813F00C0F3ED07D4B9B6803F0BD
:100884000C03082B33D0E368002B68D0794B01228A
:100894001A60FFF7FFFD0546754B1B6813F0020F46
:1008A40054D1FFF7F7FD401B0228F5D903207FE15F
:1008B4006F4A136843F480331360B5E76C4B1A68CE
:1008C40042F480221A601A6842F480321A60ABE75C
:1008D400FFF7E0FD0546664B1B6813F4003FC3D0E9
:1008E400FFF7D8FD401B6428F5D9032060E1604B75
:1008F4005B6813F4800FC6D15D4B1B6813F0020FC5
:1009040003D0E368012B40F05081594A136823F067
:10091400F803216943EAC1031360236813F0080F45
:1009240042D063696BB3534B0122C3F8802EFFF7A7
:10093400B1FD05464E4B5B6F13F0020F34D1FFF748
:10094400A9FD401B0228F5D9032031E1484A136868
:1009540023F0F803216943EAC1031360DDE7454B43
:1009640000221A60FFF796FD0546414B1B6813F001
:10097400020FD2D0FFF78EFD401B0228F5D90320C9
:1009840016E13C4B0022C3F8802EFFF783FD054699
:10099400374B5B6F13F0020F06D0FFF77BFD401B54
:1009A4000228F5D9032003E1236813F0040F77D05C
:1009B4002F4B1B6C13F0805F33D1002301932C4B1E
:1009C4001A6C42F080521A641B6C03F0805301933A
:1009D400019B0125284B1B6813F4807F23D0A36857
:1009E400012B34D0052B38D0214B1A6F22F0010291
:1009F4001A671A6F22F004021A67A368002B3DD00D
:100A0400FFF748FD06461A4B1B6F13F0020F46D141
:100A1400FFF740FD801B41F288339842F3D903204D
:100A2400C6E00025D6E7144A136843F480731360C4
:100A3400FFF730FD0646104B1B6813F4807FCED1C0
:100A4400FFF728FD801B0228F5D90320B0E0084AEF
:100A5400136F43F001031367CFE7054B1A6F42F09E
:100A640004021A671A6F42F001021A67C5E700BF51
:100A7400003802400000474200700040FFF70AFDC2
:100A84000646524B1B6F13F0020F08D0FFF702FD0E
:100A9400801B41F288339842F3D9032088E0EDB9F2
:100AA400A369002B00F08380484A926802F00C028C
:100AB400082A51D0022B17D0454B00221A66FFF7A3
:100AC400E9FC0446414B1B6813F0007F42D0FFF75A
:100AD400E1FC001B0228F5D9032069E03B4A136CB2
:100AE40023F080531364DBE7394B00221A66FFF7C7
:100AF400D1FC0546354B1B6813F0007F06D0FFF789
:100B0400C9FC401B0228F5D9032051E0E369226A9D
:100B14001343626A43EA8213A26A5208013A43EA1F
:100B24000243E26A43EA0263284A5360284B0122E3
:100B34001A66FFF7AFFC0446244B1B6813F0007FD2
:100B440006D1FFF7A7FC001B0228F5D903202FE0EC
:100B540000202DE000202BE0012B2BD01B4B5B68E9
:100B640003F48001E269914226D103F03F02216A35
:100B74008A4223D1616A47F6C0721A40B2EB811FE0
:100B84001ED103F44031A26A5208013AB1EB024F7C
:100B940018D103F07063E26AB3EB026F14D1002042
:100BA40006E001207047012002E0012000E000205F
:100BB40002B070BD0120FBE70120F9E70120F7E74F
:100BC4000120F5E70120F3E70120F1E700380240B6
:100BD4000000474208B5264B9B6803F00C03042B26
:100BE40041D0082B41D1224B5A6802F03F025B6886
:100BF40013F4800F12D01E4B5968C1F388111D489D
:100C04000023A1FB0001FFF7C3FA194B5B68C3F390
:100C1400014301335B00B0FBF3F008BD144B58688B
:100C2400C0F388104FEA401CBCEB000C6EEB0E0EB8
:100C34004FEA8E1343EA9C634FEA8C11B1EB0C012B
:100C440063EB0E03DB0043EA5173C90011EB000CA4
:100C540043F10003990200234FEA8C2041EA9C519E
:100C6400FFF796FAD1E70348D7E70348D5E700BF73
:100C74000038024040787D010024F400002800F090
:100C84009B8070B50D4604464F4B1B6803F0070369
:100C94008B4208D2CBB24C4A1370136803F007039B
:100CA4008B4240F08B80236813F0020F17D013F0AF
:100CB400040F04D0454A936843F4E05393602368D7
:100CC40013F0080F04D0414A936843F460439360DF
:100CD4003E4A936823F0F003A1680B4393602368B2
:100CE40013F0010F32D06368012B21D09A1E012A20
:100CF40025D9364A126812F0020F61D033498A6846
:100D040022F0030213438B60FFF7C4FB06462F4B0C
:100D14009B6803F00C036268B3EB820F16D0FFF7F5
:100D2400B9FB801B41F288339842F0D9032042E09A
:100D3400264A126812F4003FE0D101203BE0234A26
:100D4400126812F0007FD9D1012034E01E4B1B68D9
:100D540003F00703AB4207D9EAB21B4B1A701B68B6
:100D640003F00703AB422DD1236813F0040F06D020
:100D7400164A936823F4E053E1680B4393602368B5
:100D840013F0080F07D0114A936823F460432169D4
:100D940043EAC1039360FFF71DFF0C4B9B68C3F349
:100DA40003130B4AD35CD8400A4B18600A4B1868EB
:100DB400FFF724FB002070BD012070470120FAE7F3
:100DC4000120F8E70120F6E7003C02400038024029
:100DD40058170008080000200400002010B4036A1B
:100DE400046A24F001040462846924F0F00C4CEADF
:100DF400021223F00A030B43826103625DF8044B81
:100E0400704710B4036A046A24F01004046284690D
:100E140024F4704C4CEA023223F0A00343EA011399
:100E2400826103625DF8044B7047836823F07003AA
:100E34000B4343F0070383607047000090F83D3094
:100E4400012B2AD1022380F83D300368154A9342CE
:100E540018D0B3F1804F15D0A2F57C42934211D043
:100E640002F5806293420DD002F58062934209D06C
:100E740002F59A32934205D01A6842F001021A60D0
:100E8400002070479A6802F00702062A07D01A6801
:100E940042F001021A6000207047012070470020D0
:100EA400704700BF000001400368294A90420ED0F9
:100EB400B0F1804F0BD0A2F57C42904207D002F5EE
:100EC4008062904203D002F58062904203D123F005
:100ED40070034A6813431E4A90421AD0B0F1804FFF
:100EE40017D0A2F57C42904213D002F58062904262
:100EF4000FD002F5806290420BD002F59A329042F4
:100F040007D002F58062904203D002F580629042DD
:100F140003D123F44073CA68134323F080034A695E
:100F2400134303608B68C3620B688362084B984267
:100F34000AD001234361036913F0010F03D003694D
:100F440023F00103036170470B690363F1E700BFFA
:100F54000000014040B310B5044690F83D30F3B1B1
:100F6400022384F83D30214651F8040BFFF79CFF1F
:100F7400012384F8463084F83E3084F83F3084F806
:100F8400403084F8413084F8423084F8433084F8A7
:100F9400443084F8453084F83D30002010BD80F89A
:100FA4003C3000F01FF9DBE70120704710B484687F
:100FB40024F47F4C42EA03220A4342EA0C02826090
:100FC4005DF8044B704790F83C30012B78D010B595
:100FD4000446012380F83C30022380F83D30026847
:100FE400936823F47F4323F0770393600B68602BAB
:100FF4004CD023D8402B54D011D8202B03D00AD85E
:101004000BB1102B05D119462068FFF70EFF002005
:1010140028E0012026E0302BF5D0012022E0502BDF
:101024000AD1CA6849680068FFF7D8FE50212068D1
:10103400FFF7FBFE002015E0012013E0B3F5805F0D
:101044003AD0B3F5005F14D0702B37D1CB684A681F
:1010540089680068FFF7AAFF2268936843F0770362
:1010640093600020012384F83D30002384F83C3051
:1010740010BDCB684A6889680068FFF797FF22684B
:10108400936843F4804393600020EBE7CA6849689F
:101094000068FFF7B6FE60212068FFF7C6FE002057
:1010A400E0E7CA6849680068FFF798FE40212068B5
:1010B400FFF7BBFE0020D5E70020D3E70120D1E7EE
:1010C4000220704790F83C20012A35D010B4034622
:1010D400012280F83C20022280F83D2002685068FA
:1010E400946820F0700C086840EA0C0050601A689C
:1010F4001248824212D0B2F1804F0FD0A0F57C404A
:1011040082420BD000F58060824207D000F58060F7
:10111400824203D000F59A30824204D124F0800444
:10112400496821439160012283F83D20002083F81F
:101134003C005DF8044B70470220704700000140FA
:10114400FEE7FEE7FEE7FEE7FEE7704770477047FD
:1011540008B5FFF793F908BD08B54FF48050FFF7C1
:1011640013FB08BD034AD2F8883043F47003C2F875
:101174008830704700ED00E000B587B0002302938B
:10118400039304930593009301931448144A026053
:10119400436083604FF0FF32C26003618361FFF7F5
:1011A400D9FE90B94FF48053029302A90B48FFF77C
:1011B4000AFF68B900230093019369460748FFF7C3
:1011C40081FF40B907B05DF804FBFFF79BF8E9E73E
:1011D400FFF798F8EEE7FFF795F8F3E744000020EF
:1011E400000C00400268094B9A4200D0704782B05C
:1011F40000230193064B1A6C42F008021A641B6C1C
:1012040003F008030193019B02B07047000C0040F7
:1012140000380240114B1B78032B1AD8DFE803F087
:1012240002060C110E4B00221A6070470D4B1B680E
:101234009B080B4A136070470A4B1A68084B1A60E4
:101244007047084B1B6803EB43039B08044A136075
:101254007047034B00221A60704700BF2C00002027
:10126400A40000209400002008B5024B1870FFF77A
:10127400D1FF08BD2C00002038B5074D00236B704A
:10128400064C2078FFF7F0FFA37862789B1A044A93
:10129400137001232B7038BDA80000202C000020FF
:1012A4008C00002008B5334B1B7803B908BDFEF74A
:1012B400BFFF314A1060136852689B1A2F4A1360AB
:1012C40012682F4B1B689A42F0D32E4A13889BB2A4
:1012D40001339BB21380284B5B680BB1264B9B6890
:1012E400254A536892689B1A244A12689A4201D884
:1012F400224B1B68244A5278012A27D003FB02F2AE
:10130400224B1A601D4B1A68204B1B689A4206D860
:101314001F4B1A781B4B1B889BB29A421CD21C4B46
:101324001A78184B1B889BB29A4218D9114A002389
:101334005370518801315180164A1360114A138049
:101344000D4B5A689A601A685A60AFE703EB43037F
:101354005B080E4A1360D5E7FFF75CFFF0E7054B27
:1013640001225A700B4A136801331360054B0022A3
:101374001A80E5E7A80000209800002094000020CF
:10138400A40000208E0000202C00002090000020EB
:101394008C00002030000020DFF834D0FFF7E2FE9C
:1013A4000C480D490D4A002302E0D458C4500433BC
:1013B400C4188C42F9D30A4A0A4C002301E0136092
:1013C4000432A242FBD300F019F8FEF7F1FF704794
:1013D40000000120000000200C0000207817000805
:1013E4000C000020AC000020FEE7024403469342B8
:1013F40000D1704703F8011BF9E7000070B50D4BED
:101404000D4D5B1B9C100026A64209D100F096F9F5
:101414000A4D0B4B5B1B9C100026A64205D170BDE8
:1014240055F8043B98470136EEE755F8043B9847D6
:101434000136F2E7701700087017000870170008EB
:10144400741700082DE9F047089D0F4604468C46A2
:10145400002B48D18A42164661D9B2FA82F34BB1C5
:10146400C3F1200201FA03FC20FA02F29E4042EA90
:101474000C0C9C404FEA164EB7B2BCFBFEF1220C9A
:101484000EFB11CC42EA0C4201FB07F0904209D951
:10149400B21801F1FF3C80F0EE80904240F2EB8004
:1014A40002393244121AA4B2B2FBFEF00EFB10222F
:1014B40044EA024400FB07F7A74209D9341900F1B2
:1014C400FF3280F0DA80A74240F2D78034440238F9
:1014D40040EA0140E41B00211DB1DC400023C5E9C2
:1014E4000043BDE8F0878B4206D90DB1C5E9000180
:1014F40000210846BDE8F087B3FA83F1002948D1FA
:10150400BB4202D3824200F20781841A67EB0302D2
:1015140001209446002DE4D0C5E9004CE1E7002AFF
:1015240000F09280B2FA82F3002B40F0A8808A1A6D
:101534004FEA164E1FFA86FC0121200CB2FBFEF77F
:101544000EFB172240EA02420CFB07F0904207D937
:10155400B21807F1FF3802D2904200F2E280474607
:10156400121AA4B2B2FBFEF00EFB102244EA0244AB
:101574000CFB00FCA44507D9341900F1FF3202D258
:10158400A44500F2CB801046A4EB0C0440EA0740CB
:10159400A2E7C1F120068B4022FA06FC4CEA030CB8
:1015A40007FA01F420FA06F3F7404FEA1C492343F3
:1015B40000FA01F81FFA8CFEB7FBF9F01C0C09FBCA
:1015C400107744EA074400FB0EF7A74202FA01F23F
:1015D4000AD91CEB040400F1FF3A80F09B80A74277
:1015E40040F2988002386444E41B9FB2B4FBF9F3E0
:1015F40009FB134447EA044403FB0EFEA64509D93C
:101604001CEB040403F1FF3780F08280A6457FD9E8
:10161400023B644443EA0040A4EB0E04A0FB02E74F
:10162400BC427346B94663D360D05DB1B8EB0302E4
:1016340064EB090404FA06F622FA01F31E43CC40D3
:10164400C5E9006400214CE76208480842EAC17118
:101654000B0C43EA00438AB242EA0342B3FBF6F1BD
:10166400E407B4463746B6461F23B0FBF6F0D21B58
:1016740041EA004161E7614614E7104628E7C3F1F7
:10168400200120FA01F29E4027FA01F19F403A43DB
:101694004FEA164E1FFA86FCB1FBFEF70EFB17103D
:1016A400110C41EA004107FB0CF8884504FA03F4E5
:1016B4003AD9711807F1FF3001D288451FD8A1EB40
:1016C4000801B1FBFEF808FB0CF70EFB181192B2EF
:1016D40042EA0142BA422FD2B21808F1FF31C6D20F
:1016E400BA42C4D2A8F102013244C0E7F0459CD208
:1016F400BEEB020367EB0C070138B94695E7A6EB8E
:1017040008084144B81EB1FBFEF808FB0CF7DCE7FF
:101714003B467FE7504667E70846FBE63444023819
:1017240032E7023F32441BE7A1EB08013846B1FB24
:10173400FEF808FB0CF7C8E7414698E7F8B500BF88
:10174400F8BC08BC9E467047F8B500BFF8BC08BC9E
:041754009E467047F6
:101758000000000000000000010203040607080959
:08176800E0FCFF7F010000001E
:04177000ED0100087F
:04177400C90100089F
:0C17780001000000100000000024F4003C
:040000050800139D3F
:00000001FF
